:10000000024A2885A72C12580912581312581D129B
:10001000582712583B12583112570D12003E1258F1
:10002000421258491257B81257701257D9125850E5
:10003000125857125864852CA7222202198175D1B3
:100040004022FF02575DE4FF1257E9754F057BAA76
:100050007D027F201251D87F0A7E00125595754F80
:1000600005E4FB7D027F201251D87F0A7E000255F5
:1000700095FFFF0257F58F311247238E328F33E5FC
:1000800031602BE5324480F53E85333F7540007585
:100090004104E4F5427FA47E21FD7C581245537B48
:1000A000047A007D047C80E4FF123234807DE532E6
:1000B000547FF53E85333F754000754104E4F542B9
:1000C0007FA47E21FD7C581245537B047A007D0479
:1000D0007C80E4FF123234E4F53E7FC07E34FD7C48
:1000E0005812472D8E328F3385323EE53354FEF55C
:1000F0003F754000754104E4F5427FC07E34FD7CCD
:1001000058124553E4F53E7FA47E10FD7C581247FB
:100110002DE4F53E7F807E36FD7C5812472DE4F5B8
:100120003E7FC07E34FD7C5812472DE4F53E7FA40F
:100130007E61FD7C5812472D8E328F33E531602B66
:10014000E5324480F53E85333F754000754104E457
:10015000F5427FA47E61FD7C581245537B047A00F2
:100160007D047C807F01123234807DE532547FF53E
:100170003E85333F754000754104E4F5427FA47E1F
:1001800061FD7C581245537B047A007D047C807F9E
:1001900001123234E4F53E7FC07E74FD7C58124774
:1001A0002D8E328F3385323EE53354FEF53F754058
:1001B00000754104E4F5427FC07E74FD7C58124511
:1001C00053E4F53E7FA47E50FD7C5812472DE4F5A4
:1001D0003E7F807E76FD7C5812472DE4F53E7FC041
:1001E0007E74FD7C5812472DE4F53E7FA47EA1FD70
:1001F0007C5812472D8E328F33E531602BE5324427
:1002000080F53E85333F754000754104E4F5427F3B
:10021000A47EA1FD7C581245537B047A007D047CAA
:10022000807F02123234807DE532547FF53E853383
:100230003F754000754104E4F5427FA47EA1FD7C3A
:10024000581245537B047A007D047C807F02123271
:1002500034E4F53E7FC07EB4FD7C5812472D8E32CB
:100260008F3385323EE53354FEF53F7540007541CE
:1002700004E4F5427FC07EB4FD7C58124553E4F59A
:100280003E7FA47E90FD7C5812472DE4F53E7F8092
:100290007EB6FD7C5812472DE4F53E7FC07EB4FD4E
:1002A0007C5812472DE4F53E7FA47EE1FD7C581278
:1002B000472D8E328F33E531602BE5324480F53E99
:1002C00085333F754000754104E4F5427FA47EE12B
:1002D000FD7C581245537B047A007D047C807F03AB
:1002E000123234807DE532547FF53E85333F7540D0
:1002F00000754104E4F5427FA47EE1FD7C5812457F
:10030000537B047A007D047C807F03123234E4F551
:100310003E7FC07EF4FD7C5812472D8E328F338590
:10032000323EE53354FEF53F754000754104E4F577
:10033000427FC07EF4FD7C58124553E4F53E7FA415
:100340007ED0FD7C5812472DE4F53E7F807EF6FD81
:100350007C5812472DE4F53E7FC07EF4FD7C581298
:10036000472DE4F53E7F987E21FD7C5812472D8E67
:10037000328F33E5316006E53244808004E5325443
:100380007FF53E85333F754000754104E4F5427FBB
:10039000987E21FD7C581245537B047A007D047CB5
:1003A00080E4FF123234E4F53E7F807E10FD7C58FD
:1003B00012472D8E328F33E531600985323EE533A9
:1003C0004402800785323EE53354FDF53F75400019
:1003D000754104E4F5427F807E10FD7C5812455340
:1003E000E4F53E7F807E10FD7C5812472D8E328FC3
:1003F00033E531600985323EE533440180078532BB
:100400003EE53354FEF53F754000754104E4F54286
:100410007F807E10FD7C58124553E4F53E7F987E28
:1004200061FD7C5812472D8E328F33E5316006E531
:100430003244808004E532547FF53E85333F754079
:1004400000754104E4F5427F987E61FD7C581245B9
:10045000537B047A007D047C807F01123234E4F502
:100460003E7F807E50FD7C5812472D8E328F33E5C3
:1004700031600985323EE5334402800785323EE52E
:100480003354FDF53F754000754104E4F5427F802B
:100490007E50FD7C58124553E4F53E7F807E50FD32
:1004A0007C5812472D8E328F33E531600985323EFC
:1004B000E5334401800785323EE53354FEF53F7550
:1004C0004000754104E4F5427F807E50FD7C581267
:1004D0004553E4F53E7F987EA1FD7C5812472D8E52
:1004E000328F33E5316006E53244808004E53254D2
:1004F0007FF53E85333F754000754104E4F5427F4A
:10050000987EA1FD7C581245537B047A007D047CC3
:10051000807F02123234E4F53E7F807E90FD7C586D
:1005200012472D8E328F33E531600985323EE53337
:100530004402800785323EE53354FDF53F754000A7
:10054000754104E4F5427F807E90FD7C581245534E
:10055000E4F53E7F807E50FD7C5812472D8E328F11
:1005600033E531600985323EE53344018007853249
:100570003EE53354FEF53F754000754104E4F54215
:100580007F807E90FD7C58124553E4F53E7F987E37
:10059000E1FD7C5812472D8E328F33E5316006E540
:1005A0003244808004E532547FF53E85333F754008
:1005B00000754104E4F5427F987EE1FD7C581245C8
:1005C000537B047A007D047C807F03123234E4F58F
:1005D0003E7F807ED0FD7C5812472D8E328F33E5D2
:1005E00031600985323EE5334402800785323EE5BD
:1005F0003354FDF53F754000754104E4F5427F80BA
:100600007ED0FD7C58124553E4F53E7F807E50FD40
:100610007C5812472D8E328F33E531600985323E8A
:10062000E5334401800785323EE53354FEF53F75DE
:100630004000754104E4F5427F807ED0FD7C581275
:10064000455322EF14700302079D1470030208DD66
:10065000147003020A1D24036003020B637F20123F
:1006600057E99006D9E0FB754F05E4FD7F20125154
:10067000D89006EBE0FB754F057D017F201251D825
:100680009006DAE0FB754F057D027F201251D8906D
:1006900006DBE0FB754F057D037F201251D89006E5
:1006A000DCE0FB754F057D047F201251D89006DDFC
:1006B000E0FB754F057D057F201251D89006DEE0E6
:1006C000FB754F057D0A7F201251D89006ECE0FBA8
:1006D000754F057D0C7F201251D89006DFE0FB7529
:1006E0004F057D0D7F201251D89006E0E0FB754F3D
:1006F000057D197F201251D89006E1E0FB754F056A
:100700007D1A7F201251D89006E4E0FB754F057DDD
:10071000C27F201251D89006E7E0FB754F057DE2BD
:100720007F201251D89006EAE0FB754F057DD27FFD
:10073000201251D89006E4E020E01E9006E2E0FB93
:10074000754F057DC07F201251D89006E3E0FB7500
:100750004F057DC17F201251D89006E7E020E01EB2
:100760009006E5E0FB754F057DE07F201251D890A3
:1007700006E6E0FB754F057DE17F201251D890061B
:10078000EAE030E003020B639006E8E0FB754F05FA
:100790007DD07F201251D89006E9020B577F21129D
:1007A00057E99006EFE0FB754F05E4FD7F201251FD
:1007B000D8900701E0FB754F057D017F201251D8CD
:1007C0009006F0E0FB754F057D027F201251D89016
:1007D00006F1E0FB754F057D037F201251D890068E
:1007E000F2E0FB754F057D047F201251D89006F38F
:1007F000E0FB754F057D057F201251D89006F4E08F
:10080000FB754F057D0A7F201251D8900702E0FB4F
:10081000754F057D0C7F201251D89006F5E0FB75D1
:100820004F057D0D7F201251D89006F6E0FB754FE5
:10083000057D197F201251D89006F7E0FB754F0512
:100840007D1A7F201251D89006FAE0FB754F057D86
:10085000C27F201251D89006FDE0FB754F057DE266
:100860007F201251D8900700E0FB754F057DD27FA5
:10087000201251D89006FAE020E01E9006F8E0FB26
:10088000754F057DC07F201251D89006F9E0FB75A9
:100890004F057DC17F201251D89006FDE020E01E5B
:1008A0009006FBE0FB754F057DE07F201251D8904C
:1008B00006FCE0FB754F057DE17F201251D89007C3
:1008C00000E030E003020B639006FEE0FB754F058D
:1008D0007DD07F201251D89006FF020B577F221245
:1008E00057E9900705E0FB754F05E4FD7F201251A5
:1008F000D8900717E0FB754F057D017F201251D876
:10090000900706E0FB754F057D027F201251D890BD
:100910000707E0FB754F057D037F201251D8900734
:1009200008E0FB754F057D047F201251D890070920
:10093000E0FB754F057D057F201251D890070AE036
:10094000FB754F057D0A7F201251D8900718E0FBF8
:10095000754F057D0C7F201251D890070BE0FB7579
:100960004F057D0D7F201251D890070CE0FB754F8D
:10097000057D197F201251D890070DE0FB754F05BA
:100980007D1A7F201251D8900710E0FB754F057D2E
:10099000C27F201251D8900713E0FB754F057DE20E
:1009A0007F201251D8900716E0FB754F057DD27F4E
:1009B000201251D8900710E020E01E90070EE0FBB7
:1009C000754F057DC07F201251D890070FE0FB7551
:1009D0004F057DC17F201251D8900713E020E01E03
:1009E000900711E0FB754F057DE07F201251D890F4
:1009F0000712E0FB754F057DE17F201251D890076B
:100A000016E030E003020B63900714E0FB754F051E
:100A10007DD07F201251D8900715020B577F2312EB
:100A200057E990071BE0FB754F05E4FD7F2012514D
:100A3000D890072DE0FB754F057D017F201251D81E
:100A400090071CE0FB754F057D027F201251D89066
:100A5000071DE0FB754F057D037F201251D89007DD
:100A60001EE0FB754F057D047F201251D890071FB3
:100A7000E0FB754F057D057F201251D8900720E0DF
:100A8000FB754F057D0A7F201251D890072EE0FBA1
:100A9000754F057D0C7F201251D8900721E0FB7522
:100AA0004F057D0D7F201251D8900722E0FB754F36
:100AB000057D197F201251D8900723E0FB754F0563
:100AC0007D1A7F201251D8900726E0FB754F057DD7
:100AD000C27F201251D8900729E0FB754F057DE2B7
:100AE0007F201251D890072CE0FB754F057DD27FF7
:100AF000201251D8900726E020E01E900724E0FB4A
:100B0000754F057DC07F201251D8900725E0FB75F9
:100B10004F057DC17F201251D8900729E020E01EAB
:100B2000900727E0FB754F057DE07F201251D8909C
:100B30000728E0FB754F057DE17F201251D8900713
:100B40002CE020E01E90072AE0FB754F057DD07F4A
:100B5000201251D890072BE0FB754F057DD17F20E7
:100B60001251D822EC4D6011E8497017ED33EC3387
:100B700004600DE4FCFFFEFD22E933E8330470F865
:100B8000020D14120CDF58046009E4CC24815006D5
:100B9000285009020D1E284003020D1BC0E0EB4A3D
:100BA0007044B98006D0E0FB020D0AEF4E701CBD08
:100BB0008008EBFFEAFEE9FD80EBE98DF0A4FEE59D
:100BC000F0020C4DE9CDF9EAFEEBFFEF89F0A4FC51
:100BD000E5F0CE89F0A42EFFE435F0CD89F0A42D08
:100BE000FEE435F08067EF4E7005BD80D780C3EF1F
:100BF0008BF0A4ACF0EE8BF0A42CFCE435F0F8EF15
:100C00008AF0A42CE5F038FCE433CB8DF0A42CFC66
:100C1000E5F03BF8EE8AF0A42CFCE5F038F8E4337C
:100C2000CF89F0A42CFCE5F038CF3400CE89F0A4B5
:100C30002FFFE5F03EFEE433C98DF0A42EFEE5F073
:100C400039CD8AF0A42FFFE5F03EFEE43DFD33D020
:100C5000E0FB50070BBB000F020D1EEC2CFCEF332A
:100C6000FFEE33FEED33FD020CF675F020800E75BD
:100C7000F010800575F0087D007E007F003392D56E
:100C800030D503120EE1EC334010EF33FFEE33FEAC
:100C9000ED33FDEC33FCD5F0ED22E5F0247EA2D55A
:100CA00013CC92E7CDCEFF22EDD2E7CD33EC3392D9
:100CB000D524814006E4FFFEFDFC22FCE4CFCECD2E
:100CC000CC24E0501174FF80EDC3CC13CCCD13CDF8
:100CD000CE13CECF13CF0470F030D5DE020EE1E993
:100CE000D2E7C933E833F892D5EDD2E7CD33EC3310
:100CF000FC5002B2D522EC30E7100FBF000C0EBE44
:100D000000080DBD00040BEB6014A2D5EB13FCED45
:100D100092E7FD2274FFFCFDFEFF22E480F8A2D5DD
:100D200074FF13FC7D80E480EFE709F608DFFA80AA
:100D300046E709F208DFFA803E88828C83E709F0F3
:100D4000A3DFFA8032E309F608DFFA8078E309F2DC
:100D500008DFFA807088828C83E309F0A3DFFA80D1
:100D60006489828A83E0A3F608DFFA805889828A40
:100D700083E0A3F208DFFA804C80D280FA80C6803C
:100D8000D4806980F28033801080A680EA809A80C7
:100D9000A880DA80E280CA803389828A83ECFAE410
:100DA00093A3C8C582C8CCC583CCF0A3C8C582C8EC
:100DB000CCC583CCDFE9DEE7800D89828A83E493AA
:100DC000A3F608DFF9ECFAA9F0EDFB2289828A8309
:100DD000ECFAE0A3C8C582C8CCC583CCF0A3C8C5D3
:100DE00082C8CCC583CCDFEADEE880DB89828A83D7
:100DF000E493A3F208DFF980CC88F0EF60010E4E97
:100E000060C388F0ED2402B4040050B9F582EB24ED
:100E100002B4040050AF2323458223900D7973BBA5
:100E2000010689828A83E0225002E722BBFE02E3A8
:100E30002289828A83E49322BB010689828A83F015
:100E4000225002F722BBFE01F322EF8DF0A4A8F09E
:100E5000CF8CF0A428CE8DF0A42EFE22C2D5EC308B
:100E6000E709B2D5E4C39DFDE49CFCEE30E715B282
:100E7000D5E4C39FFFE49EFE120F55C3E49DFDE43D
:100E80009CFC8003120F5530D507C3E49FFFE49EFE
:100E9000FE22E88FF0A4CC8BF0A42CFCE98EF0A409
:100EA0002CFC8AF0EDA42CFCEA8EF0A4CDA8F08BEB
:100EB000F0A42DCC3825F0FDE98FF0A42CCD35F031
:100EC000FCEB8EF0A4FEA9F0EB8FF0A4CFC5F02EC2
:100ED000CD39FEE43CFCEAA42DCE35F0FDE43CFC2B
:100EE00022C3E49FFFE49EFEE49DFDE49CFC22E817
:100EF0006010ECA2E713FCED13FDEE13FEEF13FF01
:100F0000D8F022D083D082F8E493701274019370E9
:100F10000DA3A393F8740193F5828883E47374029C
:100F2000936860EFA3A3A380DFEF4E6012EF600130
:100F30000EEDBB010B89828A83F0A3DFFCDEFA226F
:100F400089F05007F709DFFCA9F022BBFEFCF3098A
:100F5000DFFCA9F022BC000BBE0029EF8DF084FF5E
:100F6000ADF022E4CCF875F008EF2FFFEE33FEEC85
:100F700033FCEE9DEC984005FCEE9DFE0FD5F0E9AC
:100F8000E4CEFD22EDF8F5F0EE8420D21CFEADF0AB
:100F900075F008EF2FFFED33FD4007985006D5F0B0
:100FA000F222C398FD0FD5F0EA2275F00875820091
:100FB000EF2FFFEE33FECD33CDCC33CCC58233C51E
:100FC000829BED9AEC99E58298400CF582EE9BFEAF
:100FD000ED9AFDEC99FC0FD5F0D6E4CEFBE4CDFA0A
:100FE000E4CCF9A88222B800C1B90059BA002DECAE
:100FF0008BF084CFCECDFCE5F0CBF97818EF2FFF46
:10100000EE33FEED33FDEC33FCEB33FB10D70399ED
:101010004004EB99FB0FD8E5E4F9FA227818EF2F9A
:10102000FFEE33FEED33FDEC33FCC933C910D705B9
:101030009BE99A4007EC9BFCE99AF90FD8E0E4C9D8
:10104000FAE4CCFB2275F010EF2FFFEE33FEED3308
:10105000FDCC33CCC833C810D7079BEC9AE8994035
:101060000AED9BFDEC9AFCE899F80FD5F0DAE4CD97
:10107000FBE4CCFAE4C8F922EF1470030211B014B7
:1010800070030212CE1470030213EC2403600302F7
:1010900015097F201257E97B05E4FD7F2012519846
:1010A0009006D9EFF07B057D017F201251989006C4
:1010B000EBEFF07B057D027F201251989006DAEF6E
:1010C000F07B057D037F201251989006DBEFF07BCB
:1010D000057D047F201251989006DCEFF07B057DA2
:1010E000057F201251989006DDEFF07B057D0A7F89
:1010F000201251989006DEEFF07B057D0C7F2012C8
:1011000051989006ECEFF07B057D0D7F20125198F1
:101110009006DFEFF07B057D197F20125198900635
:10112000E0EFF07B057D1A7F201251989006E1EFE9
:10113000F07B057DC07F201251989006E2EFF07B96
:10114000057DC17F201251989006E3EFF07B057D6D
:10115000C27F201251989006E4EFF07B057DE07F7E
:10116000201251989006E5EFF07B057DE17F20127B
:1011700051989006E6EFF07B057DE27F20125198B2
:101180009006E7EFF07B057DD07F20125198900606
:10119000E8EFF07B057DD17F201251989006E9EFB2
:1011A000F07B057DD27F201251989006EAEFF02265
:1011B0007F211257E97B05E4FD7F201251989006AC
:1011C000EFEFF07B057D017F20125198900701EF32
:1011D000F07B057D027F201251989006F0EFF07BA6
:1011E000057D037F201251989006F1EFF07B057D7D
:1011F000047F201251989006F2EFF07B057D057F69
:10120000201251989006F3EFF07B057D0A7F2012A3
:1012100051989006F4EFF07B057D0C7F20125198D9
:10122000900702EFF07B057D0D7F2012519890060C
:10123000F5EFF07B057D197F201251989006F6EFAF
:10124000F07B057D1A7F201251989006F7EFF07B16
:10125000057DC07F201251989006F8EFF07B057D48
:10126000C17F201251989006F9EFF07B057DC27F77
:10127000201251989006FAEFF07B057DE07F201256
:1012800051989006FBEFF07B057DE17F201251988D
:101290009006FCEFF07B057DE27F201251989006CE
:1012A000FDEFF07B057DD07F201251989006FEEF78
:1012B000F07B057DD17F201251989006FFEFF07BE7
:1012C000057DD27F20125198900700EFF0227F22F7
:1012D0001257E97B05E4FD7F20125198900705EF36
:1012E000F07B057D017F20125198900717EFF07B6E
:1012F000057D027F20125198900706EFF07B057D57
:10130000037F20125198900707EFF07B057D047F43
:1013100020125198900708EFF07B057D057F201281
:101320005198900709EFF07B057D0A7F20125198B4
:1013300090070AEFF07B057D0C7F201251989007F3
:1013400018EFF07B057D0D7F2012519890070BEF71
:10135000F07B057D197F2012519890070CEFF07BF0
:10136000057D1A7F2012519890070DEFF07B057DC7
:10137000C07F2012519890070EEFF07B057DC17F52
:101380002012519890070FEFF07B057DC27F20124D
:101390005198900710EFF07B057DE07F2012519867
:1013A000900711EFF07B057DE17F201251989007A7
:1013B00012EFF07B057DE27F20125198900713EF2A
:1013C000F07B057DD07F20125198900714EFF07BC1
:1013D000057DD17F20125198900715EFF07B057D98
:1013E000D27F20125198900716EFF0227F231257D8
:1013F000E97B05E4FD7F2012519890071BEFF07BFD
:10140000057D017F2012519890072DEFF07B057D1F
:10141000027F2012519890071CEFF07B057D037F1F
:101420002012519890071DEFF07B057D047F20125C
:10143000519890071EEFF07B057D057F2012519893
:1014400090071FEFF07B057D0A7F201251989007CF
:1014500020EFF07B057D0C7F2012519890072EEF36
:10146000F07B057D0D7F20125198900721EFF07BD6
:10147000057D197F20125198900722EFF07B057DA2
:101480001A7F20125198900723EFF07B057DC07FD3
:1014900020125198900724EFF07B057DC17F201228
:1014A0005198900725EFF07B057DC27F201251985F
:1014B000900726EFF07B057DE07F20125198900782
:1014C00027EFF07B057DE17F20125198900728EFF0
:1014D000F07B057DE27F20125198900729EFF07B89
:1014E000057DD07F2012519890072AEFF07B057D73
:1014F000D17F2012519890072BEFF07B057DD27F92
:101500002012519890072CEFF0224107F500410777
:10151000F4004107ED004107EF004107F2004107E9
:10152000F7004107FE004107F1004107F3004107C2
:10153000FD004107FF004107EE004107F0004107B1
:10154000F6004107FA004207FB00004207F80000DE
:101550004107DA004107D6014107D7014107D80109
:101560004107D9014107DB004107DC0001110001FF
:101570000D0002090000010B00010F00010E000127
:1015800008000113FF010C000112000110004108C6
:1015900000104108021041080410410806104108DB
:1015A00007104108011041080310410805104106C9
:1015B00056A0490545534C4246363451333260817A
:1015C00005540000000000000000000000000000C2
:1015D000000000000000000000000000000000000B
:1015E00000000000000000000000000000000000FB
:1015F00000000000000000000000000000000000EB
:1016000000000000000000000000000000000000DA
:1016100000000000000000000000000000000000CA
:1016200000000000000000000000000000000000BA
:1016300000000000000000000000000000000000AA
:1016400000000041055200410541004105510041A3
:1016500005420041054F004105430041054E006130
:101660000001000000000000000000000000000079
:10167000000000000000000000000000000000006A
:10168000000000000000000000000000000000005A
:10169000000000000000000000000000000000004A
:1016A000000000000000000000000000000000003A
:1016B000000000000000000000000000000000002A
:1016C000000000000000000000000000000000001A
:1016D000000000000000000000000000000000000A
:1016E00000000000000000000000000000000000FA
:1016F00000000000000000000000000000000000EA
:1017000000000000000000000000000000000000D9
:1017100000000000000000000000000000000000C9
:1017200000000000000000000000000000000000B9
:1017300000000000000000000000000000000000A9
:101740000000000000000000000000000000000099
:101750000000000000000000000000000000000089
:101760000000006080008000000000000000000019
:101770000000000000000000000000000000000069
:101780000000000000000000000000000000000059
:101790000000000000000000000000000000000049
:1017A0000000000000000000000000000000000039
:1017B0000000000000000000000000000000000029
:1017C0000000000000000000000000000000000019
:1017D0000000000000000000000000000000000009
:1017E0000000000000000060800211000000000006
:1017F00000000000000000000000000000000000E9
:1018000000000000000000000000000000000000D8
:1018100000000000000000000000000000000000C8
:1018200000000000000000000000000000000000B8
:1018300000000000000000000000000000000000A8
:101840000000000000000000000000000000000098
:101850000000000000000000000000000000000088
:101860000000000000000000000000608002930003
:101870000000000000000000000000000000000068
:101880000000000000000000000000000000000058
:101890000000000000000000000000000000000048
:1018A0000000000000000000000000000000000038
:1018B0000000000000000000000000000000000028
:1018C0000000000000000000000000000000000018
:1018D0000000000000000000000000000000000008
:1018E0000000000000000000000000000000006098
:1018F0008000000000000000000000000000000068
:1019000000000000000000000000000000000000D7
:1019100000000000000000000000000000000000C7
:1019200000000000000000000000000000000000B7
:1019300000000000000000000000000000000000A7
:101940000000000000000000000000000000000097
:101950000000000000000000000000000000000087
:101960000000000000000000000000000000000077
:1019700000000042029100004102100241065501A0
:1019800000C0E0C0F0C083C082C0D075D000C000ED
:10199000C001C002C003C004C005C006C007752155
:1019A0000075220030C203021D03E5C054F070032D
:1019B000021AB724F07003021ADA24D07003021C52
:1019C0002724F07003021CF724306003021CFBC2C2
:1019D000C5900541E5C2F0E0FF54FE64A06003023B
:1019E0001AB2EF20E003021AAD900552E0FFC39453
:1019F000805041EF94754011EF947F500C74002F8C
:101A0000F582E43401F583E4F0900552E0FF240010
:101A1000F582E43401F583E0F5C2EFB4080612550F
:101A20000D021AAD900552E064096003021AAD126E
:101A30005339807990017FE0FFB4010D900552E0A9
:101A40002491F582E43401805FEFB4020D900552D9
:101A5000E02413F582E43402804E90017FE0FFB46D
:101A6000100D900552E02480F582E434FF8039EFB8
:101A7000B4112A900552E0FF2400F582E43400F509
:101A800083E0F5C2EFC394874023900552E0FFD373
:101A900094985019EF2480FF122D3D80109005522C
:101AA000E02400F582E43401F583E0F5C2D2C102FE
:101AB0001D09C2C1021D09900551E02454F582E4BC
:101AC0003405F583E5C2F0900554E0900552F0909E
:101AD0000551E004F0D2C1021D09C2C4900551E0D5
:101AE000FFC394025003021C1F90054F7401F0EFD6
:101AF00014900553F0900552E0647F6003021BA729
:101B0000900551E064026003021BA7900555E09028
:101B1000017FF070147B017A017980F53175328094
:101B20007F807EC8124F79806E90017FE0B40115EE
:101B300078807C017D017B017A0279117E007F80B3
:101B4000120DF9805290017FE0B4021578807C017B
:101B50007D017B017A0279937E007F80120DF980EE
:101B60003690017FE0B4101578807C017D017B0107
:101B70007A0079007E007F80120DF9801A90017F33
:101B8000E0B4111B78807C017D017B017A007980B3
:101B90007E007F80120DF9900544E4F0021C1F9036
:101BA00005447401F08078900552E0FFC3947A40B8
:101BB0000EEFD3947D50089005447405F08060903A
:101BC0000553E0FF900552E0FD2FFFE433FED3EF15
:101BD0009400EE648094814005EDF404A3F0900538
:101BE00053E0FF7E00900552E02400F9E43401A8A0
:101BF00001FC7D017B017A057955120DF990017F79
:101C0000E0B4101578007C007D017B017A017980B9
:101C10007E007F80120DF980069005447407F090D5
:101C20000551E4F0021D0920C103021D099005526F
:101C3000E004F0E0FFC394805042EF94754011EF50
:101C4000947F500C74002FF582E43401F583E4F0A6
:101C5000900552E0FF2400F582E43401F583E0F5BD
:101C6000C2EFB4080612550D021D09900552E0643A
:101C7000096003021D09125339021D0990017FE01A
:101C8000FFB4010D900552E02491F582E434018007
:101C90005FEFB4020D900552E02413F582E43402A4
:101CA000804E90017FE0FFB4100D900552E024803B
:101CB000F582E434FF8039EFB4112A900552E0FF39
:101CC0002400F582E43400F583E0F5C2EFC3948785
:101CD0004037900552E0FFD39498502DEF2480FFB9
:101CE000122D3D8024900552E02400F582E4340159
:101CF000F583E0F5C28012C2C4800E53C17F43C198
:101D0000808000C2C5C2C4C2C1C2C0D007D006D044
:101D100005D004D003D002D001D000D0D0D082D0E2
:101D200083D0F0D0E03290017FE0120F031D5B0002
:101D30001D8D011DB3021DD9101DE8821E7C851E5C
:101D400093861EBD871EE78A1F8A901FEE911FCFC4
:101D5000922009B02025D00000205F900542E0C30A
:101D60009401500302205F7B017A017900753300F2
:101D70007534807F007EC8124F317B017A017980F3
:101D80007531007532807F807EC80250D490054244
:101D9000E0C39401500302205F7B017A01798075D2
:101DA00033007534807F007ECA124F3178117C0277
:101DB000021E8C900542E0C39401500302205F7B19
:101DC000017A0179807533007534807F007ECC12F2
:101DD0004F3178937C02021E8C90054E7401F0788E
:101DE000007C00FDFB021FE3900542E0D39401500C
:101DF0000302205F900552E094F840579001FFE005
:101E00006401600302205F9001F8E090064DF090BD
:101E100001F9E090064EF09001FEE0FF900653F0CD
:101E2000BF011490064DE0FD7B057F1C1251989078
:101E3000064EEFF0021F5B900653E06003021F5B4B
:101E400090064DE0FDA3E0FB754F057F1C1251D8B5
:101E5000021F5B7B017A0179807533007534807FC6
:101E6000007ED4124F3178D57C057D017B017A014B
:101E700079807E007F80120DF902586B900542E058
:101E8000D39401500302205F78577C067D017B01CB
:101E9000021FE3900542E0D39401500302205F7BD0
:101EA000017A0179807533007534807F007ED81205
:101EB0004F3178437C047D017B01021FE390054292
:101EC000E0D39401500302205F7B017A0179807591
:101ED00033007534807F007EDA124F3178C17C0484
:101EE0007D017B01021FE3900542E0D39401500382
:101EF00002205F900552E094F840669001FFE06494
:101F000001600302205F9001F8E090074EF090011D
:101F1000F9E090074FF09001FEE0FF900754F0BF0A
:101F2000011B9001FAE0FF1257E990074EE0FD7B9C
:101F3000047F2012519890074FEFF0801E900754B5
:101F4000E070189001FAE0FF1257E990074EE0FDAB
:101F5000A3E0FB754F047F201251D8E49001FFF0FD
:101F6000227B017A0179807533007534807F007E91
:101F7000D6124F3178D67C067D017B017A017980BB
:101F80007E007F80120DF9025682900542E0D394C4
:101F900001500302205F78F87C017D017B017A0308
:101FA000798B7E007F08120DF97B017A01798075AB
:101FB00033007534807F007ED0124F317B017A036D
:101FC00079137531007532807F007ED0024F799091
:101FD0000542E0D39401500302205F78937C037D97
:101FE000017B017A0179807E007F80020DF99005E6
:101FF00042E0D3940140687B017A01798075330017
:102000007534807F007ED28019900542E0D3940120
:10201000404D7B017A0179807533007534807F00F3
:102020007EF6024F31900542E0D394014031900595
:1020300052E064247029900555E064117021A3E0FA
:102040006422701BA3E0B43316A3E0B45511A3E0DF
:10205000B4660CA3E0B45507780076A575EF12229C
:102060008F31E4F532F533E5316401707EF53E7F62
:102070000C7E11FD7C5812472D8E328F33E53330A4
:10208000E42290047FE07002A3E060030222E5F501
:102090003E7F987E21FD7C5812472D8E348F35531C
:1020A00035FE802190047FE07002A3E070030222DD
:1020B000E5E4F53E7F987E21FD7C5812472D8E3455
:1020C0008F3543350185343E85353F754000754178
:1020D00004E4F5427F987E21FD7C581245537B0431
:1020E0007A007D047C80E4FF0222E2E53164026034
:1020F00003022196F53E7F0C7E51FD7C5812472D40
:102100008E328F33E53330E446900481E07002A3D1
:10211000E060030222E5F53E7F987E61FD7C581267
:10212000472D8E348F3543350185343E85353F75D7
:102130004000754104E4F5427F987E61FD7C5812B1
:1021400045537B047A007D047C807F010222E2906B
:102150000481E07002A3E070030222E5E4F53E7F13
:10216000987E61FD7C5812472D8E348F355335FE95
:1021700085343E85353F754000754104E4F5427F66
:10218000987E61FD7C581245537B047A007D047C67
:10219000807F010222E2E53164036003022241F5FF
:1021A0003E7F0C7E91FD7C5812472D8E328F33E599
:1021B0003330E446900483E07002A3E0600302221F
:1021C000E5F53E7F987EA1FD7C5812472D8E348F19
:1021D000355335FE85343E85353F754000754104E5
:1021E000E4F5427F987EA1FD7C581245537B047A2A
:1021F000007D047C807F020222E2900483E0700272
:10220000A3E070030222E5E4F53E7F987EA1FD7C09
:102210005812472D8E348F3543350185343E853530
:102220003F754000754104E4F5427F987EA1FD7C36
:10223000581245537B047A007D047C807F02022281
:10224000E2E531640460030222E5F53E7F0C7ED1B5
:10225000FD7C5812472D8E328F33E53330E44290A7
:102260000485E07002A3E0707CF53E7F987EE1FD7E
:102270007C5812472D8E348F3543350185343E8589
:10228000353F754000754104E4F5427F987EE1FDDD
:102290007C581245537B047A007D047C807F038048
:1022A00041900485E07002A3E0603AE4F53E7F9837
:1022B0007EE1FD7C5812472D8E348F355335FE85D7
:1022C000343E85353F754000754104E4F5427F9802
:1022D0007EE1FD7C581245537B047A007D047C80AE
:1022E0007F03123234227B05E4FD7F1C125198904B
:1022F00005D5EFF07B057D017F1C1251989005D626
:10230000EFF07B057D177F1C1251989005D7EFF0F9
:102310007B057D187F1C1251989005D8EFF07B0546
:102320007D1A7F1C1251989005D9EFF07B057D0333
:102330007F1C1251989005E1EFF07B057D057F1C15
:102340001251989005E3EFF07B057D107F1C125130
:10235000989005E4EFF07B057D167F1C1251989054
:1023600005E5EFF07B057D197F1C1251989005E67D
:10237000EFF07B057D1B7F1C1251989005E7EFF075
:102380007B057D1C7F1C1251989005E8EFF07B05C2
:102390007D1D7F1C1251989005E9EFF07B057D2192
:1023A0007F1C1251989005EBEFF07B057D227F1C7E
:1023B0001251989005ECEFF07B057D257F1C1251A2
:1023C000989005EDEFF07B057D267F1C12519890CB
:1023D00005EEEFF07B057D277F1C1251989005EFED
:1023E000EFF07B057D287F1C1251989005F0EFF0EF
:1023F0007B057D407F1C1251989005F2EFF07B0524
:102400007D417F1C1251989005F3EFF07B057D42D2
:102410007F1C1251989005F4EFF07B057D437F1CE3
:102420001251989005F5EFF07B057D447F1C125109
:10243000989005F6EFF07B057D457F1C1251989032
:1024400005F7EFF07B057D467F1C1251989005F84B
:10245000EFF07B057D477F1C1251989005F9EFF056
:102460007B057D487F1C1251989005FAEFF07B05A3
:102470007D497F1C1251989005FBEFF07B057D4A4A
:102480007F1C1251989005FCEFF07B057D4B7F1C63
:102490001251989005FDEFF07B057D4C7F1C125189
:1024A000989005FEEFF07B057D4D7F1C12519890B2
:1024B00005FFEFF07B057D4F7F1C125198900600C1
:1024C000EFF07B057D507F1C125198900601EFF0D4
:1024D0007B057D517F1C125198900602EFF07B0521
:1024E0007D527F1C125198900603EFF07B057D5EB4
:1024F0007F1C125198900605EFF07B057D5F7F1CD5
:10250000125198900606EFF07B057D607F1C1251FA
:1025100098900607EFF07B057D627F1C1251989022
:102520000608EFF07B057D917F1C12519890060AFA
:10253000EFF07B057D927F1C12519890060BEFF017
:10254000228F31E5316401703B1245371245371255
:102550004537900489E0F53EA3E0F53F75400075EE
:102560004104E4F5427F2C12454E900489E0F53E8B
:10257000A3E0F53F754000754104E4F5427F2C7EF1
:1025800018022758E5316402600302262190048B6B
:10259000E04480F53EA3E0F53F754000754104E45A
:1025A000F5427F287E58FD7C5812455390048BE0FD
:1025B0004480F53EA3E0F53F754000754104E4F525
:1025C000427F287E58FD7C5812455390048BE0448E
:1025D00080F53EA3E0F53F754000754104E4F54207
:1025E0007F287E58FD7C5812455390048DE0F53EBF
:1025F000A3E0F53F754000754104E4F5427F2C7E71
:1026000058FD7C5812455390048DE0F53EA3E0F54B
:102610003F754000754104E4F5427F2C7E58022747
:1026200058E531640360030226BE90048FE04480C5
:10263000F53EA3E0F53F754000754104E4F5427FA7
:10264000287E98FD7C5812455390048FE04480F515
:102650003EA3E0F53F754000754104E4F5427F2854
:102660007E98FD7C5812455390048FE04480F53EDF
:10267000A3E0F53F754000754104E4F5427F287EF4
:1026800098FD7C58124553900491E0F53EA3E0F587
:102690003F754000754104E4F5427F2C7E98FD7C37
:1026A00058124553900491E0F53EA3E0F53F754084
:1026B00000754104E4F5427F2C7E98022758E531ED
:1026C0006404600302275E900493E04480F53EA317
:1026D000E0F53F754000754104E4F5427F287ED85F
:1026E000FD7C58124553900493E04480F53EA3E0EE
:1026F000F53F754000754104E4F5427F287ED8FD22
:102700007C58124553900493E04480F53EA3E0F5D5
:102710003F754000754104E4F5427F287ED8FD7C7A
:1027200058124553900495E0F53EA3E0F53F7540FF
:1027300000754104E4F5427F2C7ED8FD7C5812459B
:1027400053900495E0F53EA3E0F53F7540007541D8
:1027500004E4F5427F2C7ED8FD7C5812455322902C
:1027600005E1E0FB754F057D037F1C1251D89005F4
:10277000E3E0FB754F057D057F1C1251D89005E401
:10278000E0FB754F057D107F1C1251D89005E5E0E8
:10279000FB754F057D167F1C1251D89005E6E0FBB6
:1027A000754F057D197F1C1251D89005E7E0FB7528
:1027B0004F057D1B7F1C1251D89005E8E0FB754F3B
:1027C000057D1C7F1C1251D89005E9E0FB754F0573
:1027D0007D1D7F1C1251D89005EBE0FB754F057DE8
:1027E000217F1C1251D89005ECE0FB754F057D222E
:1027F0007F1C1251D89005EDE0FB754F057D257FBC
:102800001C1251D89005EEE0FB754F057D267F1C0C
:102810001251D89005EFE0FB754F057D277F1C1204
:1028200051D89005F0E0FB754F057D287F1C1251B3
:10283000D89005F2E0FB754F057D407F1C1251D802
:10284000900655E0700F9005F3E0FB754F057D4154
:102850007F1C1251D89005FCE0FB754F057D4A7F27
:102860001C1251D89005FDE0FB754F057D4B7F1C78
:102870001251D89005FEE0FB754F057D4C7F1C1270
:1028800051D89005FFE0FB754F057D4D7F1C12511F
:10289000D8900600E0FB754F057D4F7F1C1251D884
:1028A000900601E0FB754F057D507F1C1251D890BA
:1028B0000602E0FB754F057D517F1C1251D8900632
:1028C00003E0FB754F057D527F1C1251D890060521
:1028D000E0FB754F057D5E7F1C1251D8900606E027
:1028E000FB754F057D5F7F1C1251D89005F4E0FB0E
:1028F000754F057D427F1C1251D89005F5E0FB75A0
:102900004F057D437F1C1251D89005F6E0FB754FB3
:10291000057D447F1C1251D89005F7E0FB754F05EB
:102920007D457F1C1251D89005F8E0FB754F057D61
:10293000467F1C1251D89005F9E0FB754F057D4785
:102940007F1C1251D89005FAE0FB754F057D487F3A
:102950001C1251D89005FBE0FB754F057D497F1C8B
:102960001251D8E4900655F0228F31E4F532F53358
:10297000F534F535E53164017065F53E7FCC7E3583
:10298000FD7C5812472D8E328F33E53330E01690A0
:102990000477E07002A3E070461247248E348F352E
:1029A0004335018014900477E07002A3E060301298
:1029B00047238E348F355335FE85343E85353F753C
:1029C0004000754104E4F5427FA47E21FD7C58124D
:1029D00045537B047A007D047C80E4FF123234E5A9
:1029E0003164027078F53E7FCC7E75FD7C581247CD
:1029F0002D8E328F33E53330E01F900479E0700282
:102A0000A3E07059F53E7FA47E61FD7C5812472DEE
:102A10008E348F355335FE801E900479E07002A30A
:102A2000E0603AE4F53E7FA47E61FD7C5812472DBC
:102A30008E348F3543350185343E85353F754000F2
:102A4000754104E4F5427FA47E61FD7C5812455334
:102A50007B047A007D047C807F01123234E531648E
:102A6000037078F53E7FCC7EB5FD7C5812472D8EE5
:102A7000328F33E53330E01F90047BE07002A3E037
:102A80007059F53E7FA47EA1FD7C5812472D8E34EF
:102A90008F35433501801E90047BE07002A3E06017
:102AA0003AE4F53E7FA47EA1FD7C5812472D8E347A
:102AB0008F355335FE85343E85353F754000754171
:102AC00004E4F5427FA47EA1FD7C581245537B04AB
:102AD0007A007D047C807F02123234E53164047018
:102AE00078F53E7FCC7EF5FD7C5812472D8E328FD7
:102AF00033E53330E01F90047DE07002A3E07059AD
:102B0000F53E7FA47EE1FD7C5812472D8E348F3533
:102B10005335FE801E90047DE07002A3E0603AE42D
:102B2000F53E7FA47EE1FD7C5812472D8E348F3513
:102B300043350185343E85353F754000754104E4D9
:102B4000F5427FA47EE1FD7C581245537B047A0058
:102B50007D047C807F03123234228F31E4F53E7F86
:102B6000C47E447D037C5012472D8E328F33E53175
:102B7000600985323EE5334401800785323EE53306
:102B800054FEF53F754000754104E4F5427FC47E74
:102B9000447D037C50124553E4F53E7FC47E447D62
:102BA000137C5012472D8E328F33E5316009853208
:102BB0003EE5334401800785323EE53354FEF53F60
:102BC000754000754104E4F5427FC47E447D137C6A
:102BD00050124553E4F53E7FC47E447D237C501261
:102BE000472D8E328F33E531600985323EE533441F
:102BF00001800785323EE53354FEF53F7540007590
:102C00004104E4F5427FC47E447D237C5012455349
:102C1000E4F53E7FC47E447D337C5012472D8E32D6
:102C20008F33E531600985323EE533440180078505
:102C3000323EE53354FEF53F754000754104E4F53E
:102C4000427FC47E447D337C50124553E4F53E7F81
:102C5000847E467D037C5012472D8E328F33E531C2
:102C6000600985323EE5334402800785323EE53314
:102C700054FDF53F754000754104E4F5427F847EC4
:102C8000467D037C50124553E4F53E7F847E467DAD
:102C9000137C5012472D8E328F33E5316009853217
:102CA0003EE5334402800785323EE53354FDF53F6F
:102CB000754000754104E4F5427F847E467D137CB7
:102CC00050124553E4F53E7F847E467D237C5012AE
:102CD000472D8E328F33E531600985323EE533442E
:102CE00002800785323EE53354FDF53F754000759F
:102CF0004104E4F5427F847E467D237C5012455397
:102D0000E4F53E7F847E467D337C5012472D8E3223
:102D10008F33E531600985323EE533440280078513
:102D2000323EE53354FDF53F754000754104E4F54E
:102D3000427F847E467D337C5012455322EF24F936
:102D4000B412004003022EDF902D5675F003A4C587
:102D50008325F0C58373022D8C022D94022D9C02D5
:102D60002DA4022DAC022DC3022DDA022DF5022E68
:102D700010022E2B022E46022E5C022EDF022E7235
:102D8000022E79022E93022EAD022EC7E490008708
:102D9000F0022EDFE4900088F0022EDFE49000893C
:102DA000F0022EDFE490008AF0022EDF90008BE02C
:102DB000FF9007EFE0F4FEEF5E90008BF09007FCD1
:102DC000022EC190008CE0FF9007F2E0F4FEEF5E6F
:102DD00090008CF09007FC022EDB90008DE0FF90BD
:102DE00007F7E0F4FEEF5E90008DF09007FCE054F2
:102DF000BFF0022EDF90008EE0FF9007FEE0F4FEB1
:102E0000EF5E90008EF09007FCE0547FF0022EDF22
:102E100090008FE0FF9007F1E0F4FEEF5E90008FEE
:102E2000F09007FBE054FEF0022EDF900090E0FFF0
:102E30009007F3E0F4FEEF5E900090F09007FBE067
:102E400054FDF0022EDF900091E0FF9007FDE0F4CA
:102E5000FEEF5E900091F09007FB8031900092E0D1
:102E6000FF9007FFE0F4FEEF5E900092F09007FB0A
:102E70008035E4900094F08066900095E0FF900724
:102E8000EEE0F4FEEF5E900095F09007F9E054FB61
:102E9000F0804C900096E0FF9007F0E0F4FEEF5ECB
:102EA000900096F09007F9E054F7F0803290009788
:102EB000E0FF9007F6E0F4FEEF5E900097F09007D9
:102EC000F9E054EFF08018900098E0FF9007FAE0E6
:102ED000F4FEEF5E900098F09007F9E054DFF09078
:102EE00007FBE07002A3E070139007F8E07002A304
:102EF000E07009900103E04401F0D282228F32E5B4
:102F00003264017061F53E7FCC7E447D037C5012BB
:102F1000472D8E338F349004E9E04408F53EA3E05A
:102F2000F53F754000754104E4F5427FCC7E447D59
:102F3000037C50124553E4F53E7FCC7E447D037CF8
:102F40005012472D8E338F349004E9E054F7F53E4C
:102F5000A3E0F53F754000754104E4F5427FCC7E67
:102F6000447D03023097E53264027061F53E7FCC08
:102F70007E447D137C5012472D8E338F349004EBAA
:102F8000E04408F53EA3E0F53F754000754104E4D8
:102F9000F5427FCC7E447D137C50124553E4F53ED0
:102FA0007FCC7E447D137C5012472D8E338F34901E
:102FB00004EBE054F7F53EA3E0F53F7540007541A2
:102FC00004E4F5427FCC7E447D13023097E5326401
:102FD000037060F53E7FCC7E447D237C5012472DEC
:102FE0008E338F349004EDE04408F53EA3E0F53FC6
:102FF000754000754104E4F5427FCC7E447D237C1E
:1030000050124553E4F53E7FCC7E447D237C501224
:10301000472D8E338F349004EDE054F7F53EA3E056
:10302000F53F754000754104E4F5427FCC7E447D58
:10303000238064E53264047063F53E7FCC7E447D7A
:10304000337C5012472D8E338F349004EFE04408C8
:10305000F53EA3E0F53F754000754104E4F5427F7D
:10306000CC7E447D337C50124553E4F53E7FCC7ECC
:10307000447D337C5012472D8E338F349004EFE023
:1030800054F7F53EA3E0F53F754000754104E4F5C3
:10309000427FCC7E447D337C50124553228F32E5F3
:1030A000326401705CF53E7FCC7E34FD7C58124763
:1030B0002D8E338F3490046FE04408F53EA3E0F585
:1030C0003F754000754104E4F5427FCC7E34FD7CC1
:1030D00058124553E4F53E7FCC7E34FD7C581247B0
:1030E0002D8E338F3490046FE054F7F53EA3E0F556
:1030F0003F754000754104E4F5427FCC7E340232D6
:1031000023E5326402705CF53E7FCC7E74FD7C5812
:1031100012472D8E338F34900471E04408F53EA39E
:10312000E0F53F754000754104E4F5427FCC7E74C4
:10313000FD7C58124553E4F53E7FCC7E74FD7C58EF
:1031400012472D8E338F34900471E054F7F53EA36F
:10315000E0F53F754000754104E4F5427FCC7E7494
:10316000023223E5326403705BF53E7FCC7EB4FD12
:103170007C5812472D8E338F34900473E04408F549
:103180003EA3E0F53F754000754104E4F5427FCC75
:103190007EB4FD7C58124553E4F53E7FCC7EB4FDF1
:1031A0007C5812472D8E338F34900473E054F7F51A
:1031B0003EA3E0F53F754000754104E4F5427FCC45
:1031C0007EB4805FE5326404705FF53E7FCC7EF4B0
:1031D000FD7C5812472D8E338F34900475E04408DF
:1031E000F53EA3E0F53F754000754104E4F5427FEC
:1031F000CC7EF4FD7C58124553E4F53E7FCC7EF442
:10320000FD7C5812472D8E338F34900475E054F7AF
:10321000F53EA3E0F53F754000754104E4F5427FBB
:10322000CC7EF4FD7C58124553227B047D047A0049
:103230007C807F018C368D378A388B39EF14605C47
:103240001470030232E514700302332D240360036B
:1032500002337985363E85373F754000754104E479
:10326000F5427F887E21FD7C58124553E4F53E7F70
:103270008C7E21FD7C5812472D85383E85393F755F
:103280004000754104E4F5427F887E21FD7C5812A0
:103290004553E4F53E7F8C7E2102337385363E85AF
:1032A000373F754000754104E4F5427F887E61FD3B
:1032B0007C58124553E4F53E7F8C7E61FD7C5812AC
:1032C000472D85383E85393F754000754104E4F54A
:1032D000427F887E61FD7C58124553E4F53E7F8C29
:1032E0007E6102337385363E85373F7540007541F8
:1032F00004E4F5427F887EA1FD7C58124553E4F535
:103300003E7F8C7EA1FD7C5812472D85383E853945
:103310003F754000754104E4F5427F887EA1FD7C45
:1033200058124553E4F53E7F8C7EA1804685363E9B
:1033300085373F754000754104E4F5427F887EE1A2
:10334000FD7C58124553E4F53E7F8C7EE1FD7C58B0
:1033500012472D85383E85393F754000754104E49C
:10336000F5427F887EE1FD7C58124553E4F53E7FAF
:103370008C7EE1FD7C5812472D2290017FE0120FD8
:103380000333A08233BE8533D98633F387340D8A65
:10339000342A90346991344B923484B0000034C2A2
:1033A000900542E0C3940150030234C2124E9E784D
:1033B000807C017D017B017A0579D502346090051E
:1033C00042E0D3940150030234C278807C017D0135
:1033D0007B017A067957023460900542E0C394017C
:1033E00050030234C278807C017D017B017A04792C
:1033F00043806D900542E0C3940150030234C278CB
:10340000807C017D017B017A0479C1805390054263
:10341000E0C3940150030234C21256B478807C0198
:103420007D017B017A0679D68036900542E0D394FF
:1034300001403490038D7403F0A37412F078807C03
:10344000017D017B017A0379138015900542E0D359
:103450009401401378807C017D017B017A0379938C
:103460007E007F80020DF9804A900542E0D39401EE
:1034700040507B017A0179807531007532807F0080
:103480007ED2802C900542E0D39401402678807C47
:10349000017D017B017A0579457E007F09120DF9D6
:1034A0007B017A0179897531007532777F097EF663
:1034B000024F797E007F807DFF7B017A0179801247
:1034C0000F2922E4F52CF52DF52EF52FF530E4F536
:1034D0003E7F047E447D037C5012472DEF64034EF3
:1034E0007005753001801C052DE52D7002052CC37B
:1034F0009464E52C940040D6E4F52CF52DF530903D
:103500000679F0E4F53E7F207ECBFD7C5212472DFC
:1035100090067CEEF0A3EFF0E4F53E7F047E447D60
:10352000037C5012472D90067AEEF0A3EFF0E530C1
:10353000640160030235E7124CC37FD07E07125549
:10354000957F011200767F01122B5A7F0A7E0012AE
:103550005595E4FF1248047FDC7E05125595E4F58D
:103560003E7F847E21FD7C5812472D900443E06EFF
:103570007003A3E06F704EF53E7F847E61FD7C5842
:1035800012472D900443E06E7003A3E06F7036F590
:103590003E7F847EA1FD7C5812472D900443E0B508
:1035A0000623A3E0B5071EE4F53E7F847EE1FD7CA3
:1035B0005812472D900443E0B5060AA3E0B507056D
:1035C0007530028022052DE52D7002052CC39488EC
:1035D000E52C94134088900681E52CF0A3E52DF0AE
:1035E000E4F52CF52DF530E530B40217124DB61286
:1035F0005216E4FF120076E4FF122B5A7F327E004F
:10360000125595900679E530F0227F1F1257E99008
:103610000731E0FB754F057DF87F201251D89007E8
:1036200032E0FB754F057DF07F201251D8900733B3
:10363000E0FB754F057D3A7F201251D8900734E0AA
:10364000FB754F057D3B7F201251D8900735E0FB7D
:10365000754F057DF17F201251D8900736E0FB753C
:103660004F057D427F201251D8900737E0FB754F00
:10367000057D437F201251D8900738E0FB754F0538
:103680007DF47F201251D890073AE0FB754F057DFD
:10369000577F201251D8900739E0FB754F057D56B2
:1036A0007F201251D8900744E0FB754F057D177FAE
:1036B000201251D890073BE0FB754F057DC57F2058
:1036C0001251D890073CE0FB754F057DC67F201254
:1036D00051D890073DE0FB754F057DC77F20125103
:1036E000D890073EE0FB754F057DD57F201251D85D
:1036F00090073FE0FB754F057DD67F201251D89093
:103700000740E0FB754F057DD77F201251D8900709
:1037100041E0FB754F057DE57F201251D8900742AF
:10372000E0FB754F057DE67F201251D8900743E0FE
:10373000FB754F057DE77F200251D8E51124FE601F
:103740001824FE604A24FE70030237D72406600363
:103750000238001252C7023800E50D6401701C9057
:10376000000FE0B4FF02E4F0900000E0F460030218
:103770003800751104C282F5088005751104C282F3
:103780009001037404F0900108E04401F08071C2DC
:103790009453A87F7FE87E031255951234C343A843
:1037A000807F647E00125595751106C282900103D8
:1037B000E511F0900108E04401F090000074FFF082
:1037C000E4900002F0FF124C6E9000807444F0A36D
:1037D000F0A3F0A3F08029D3E50A94B0E50994049E
:1037E0004016AF0B125553050BE50BC3940B40036A
:1037F000E4F50BE4F509F50A050AE50A7002050986
:10380000E511640660157F0D12562EEF25E0FFEEE0
:1038100033FE1257A712549A124D66E511640660E2
:1038200005E511B4042190054EE0B40117900002A3
:10383000E0FF650C6003124C6E900002E0F50CE4B2
:1038400090054EF0125737228F31E4F532F533E50B
:10385000316401703AF53E7FCC7E457D037C501289
:10386000472D8E328F339004F2E030E00543330170
:1038700080035333FE85323E85333F7540007541EA
:1038800004E4F5427FCC7E457D037C50124553E530
:10389000316402703AF53E7FCC7E457D137C501238
:1038A000472D8E328F339004F4E030E0054333012E
:1038B00080035333FE85323E85333F7540007541AA
:1038C00004E4F5427FCC7E457D137C50124553E5E0
:1038D000316403703AF53E7FCC7E457D237C5012E7
:1038E000472D8E328F339004F6E030E005433301EC
:1038F00080035333FE85323E85333F75400075416A
:1039000004E4F5427FCC7E457D237C50124553E58F
:10391000316404703AF53E7FCC7E457D337C501295
:10392000472D8E328F339004F8E030E005433301A9
:1039300080035333FE85323E85333F754000754129
:1039400004E4F5427FCC7E457D337C501245532202
:103950008F31E4F532F533E5316401703AF53E7F9D
:103960008C7E457D037C5012472D8E328F33900420
:10397000FAE030E00543330180035333FE85323EE5
:1039800085333F754000754104E4F5427F8C7E45E8
:103990007D037C50124553E5316402703AF53E7F59
:1039A0008C7E457D137C5012472D8E328F339004D0
:1039B000FCE030E00543330180035333FE85323EA3
:1039C00085333F754000754104E4F5427F8C7E45A8
:1039D0007D137C50124553E5316403703AF53E7F08
:1039E0008C7E457D237C5012472D8E328F33900480
:1039F000FEE030E00543330180035333FE85323E61
:103A000085333F754000754104E4F5427F8C7E4567
:103A10007D237C50124553E5316404703AF53E7FB6
:103A20008C7E457D337C5012472D8E328F3390052E
:103A300000E030E00543330180035333FE85323E1E
:103A400085333F754000754104E4F5427F8C7E4527
:103A50007D337C50124553228F32E5326401703A37
:103A6000F53E7FD07E447D037C5012472DEE54FE00
:103A7000F5337534009004C1E04533F535A3E045D6
:103A800034F53685353EF53F754000754104E4F563
:103A9000427FD07E447D03023B55E532640270399B
:103AA000F53E7FD07E447D137C5012472DEE54FEB0
:103AB000F5337534009004C3E04533F535A3E04594
:103AC00034F53685353EF53F754000754104E4F523
:103AD000427FD07E447D13807CE53264037039F5EB
:103AE0003E7FD07E447D237C5012472DEE54FEF560
:103AF000337534009004C5E04533F535A3E0453413
:103B0000F53685353EF53F754000754104E4F542D4
:103B10007FD07E447D23803DE532B4043DE4F53E14
:103B20007FD07E447D337C5012472DEE54FEF5331A
:103B30007534009004C7E04533F535A3E04534F50E
:103B40003685353EF53F754000754104E4F5427F0A
:103B5000D07E447D337C50124553228F32E532644F
:103B600001703AF53E7FD47E447D037C5012472D90
:103B7000EE54FEF5337534009004C9E04533F53555
:103B8000A3E04534F53685353EF53F754000754177
:103B900004E4F5427FD47E447D03023C58E5326460
:103BA000027039F53E7FD47E447D137C5012472D40
:103BB000EE54FEF5337534009004CBE04533F53513
:103BC000A3E04534F53685353EF53F754000754137
:103BD00004E4F5427FD47E447D13807CE5326403A7
:103BE0007039F53E7FD47E447D237C5012472DEE04
:103BF00054FEF5337534009004CDE04533F535A31C
:103C0000E04534F53685353EF53F75400075410495
:103C1000E4F5427FD47E447D23803DE532B4043D0B
:103C2000E4F53E7FD47E447D337C5012472DEE5424
:103C3000FEF5337534009004CFE04533F535A3E04D
:103C40004534F53685353EF53F754000754104E451
:103C5000F5427FD47E447D337C50124553228F320F
:103C6000E5326401703AF53E7FD87E447D037C5096
:103C700012472DEE54FEF5337534009004D1E04523
:103C800033F535A3E04534F53685353EF53F7540CF
:103C900000754104E4F5427FD87E447D03023D5B1C
:103CA000E53264027039F53E7FD87E447D137C5046
:103CB00012472DEE54FEF5337534009004D3E045E1
:103CC00033F535A3E04534F53685353EF53F75408F
:103CD00000754104E4F5427FD87E447D13807CE585
:103CE0003264037039F53E7FD87E447D237C5012C8
:103CF000472DEE54FEF5337534009004D5E045337E
:103D0000F535A3E04534F53685353EF53F75400081
:103D1000754104E4F5427FD87E447D23803DE53241
:103D2000B4043DE4F53E7FD87E447D337C50124799
:103D30002DEE54FEF5337534009004D7E04533F58D
:103D400035A3E04534F53685353EF53F75400075C1
:103D50004104E4F5427FD87E447D337C50124553C4
:103D6000228F32E5326401703AF53E7FDC7E447D7D
:103D7000037C5012472DEE54FEF533753400900449
:103D8000D9E04533F535A3E04534F53685353EF5C4
:103D90003F754000754104E4F5427FDC7E447D03BD
:103DA000023E5EE53264027039F53E7FDC7E447D82
:103DB000137C5012472DEE54FEF5337534009004F9
:103DC000DBE04533F535A3E04534F53685353EF582
:103DD0003F754000754104E4F5427FDC7E447D136D
:103DE000807CE53264037039F53E7FDC7E447D23C0
:103DF0007C5012472DEE54FEF5337534009004DDEF
:103E0000E04533F535A3E04534F53685353EF53FDD
:103E1000754000754104E4F5427FDC7E447D2380DB
:103E20003DE532B4043DE4F53E7FDC7E447D337CE9
:103E30005012472DEE54FEF5337534009004DFE048
:103E40004533F535A3E04534F53685353EF53F7508
:103E50004000754104E4F5427FDC7E447D337C50B4
:103E6000124553228F32E5326401703AF53E7FE00D
:103E70007E447D037C5012472DEE54FEF53375349D
:103E8000009004E1E04533F535A3E04534F536858F
:103E9000353EF53F754000754104E4F5427FE07E14
:103EA000447D03023F61E53264027039F53E7FE0F4
:103EB0007E447D137C5012472DEE54FEF53375344D
:103EC000009004E3E04533F535A3E04534F536854D
:103ED000353EF53F754000754104E4F5427FE07ED4
:103EE000447D13807CE53264037039F53E7FE07ECB
:103EF000447D237C5012472DEE54FEF5337534007B
:103F00009004E5E04533F535A3E04534F5368535D5
:103F10003EF53F754000754104E4F5427FE07E4484
:103F20007D23803DE532B4043DE4F53E7FE07E44F0
:103F30007D337C5012472DEE54FEF53375340090DE
:103F400004E7E04533F535A3E04534F53685353EE5
:103F5000F53F754000754104E4F5427FE07E447D05
:103F6000337C50124553228F32E53264017037F5AD
:103F70003E7FD07E34FD7C5812472DEE54FEF53343
:103F8000753400900447E04533F535A3E04534F53A
:103F90003685353EF53F754000754104E4F5427FB6
:103FA000D07E34024058E53264027036F53E7FD050
:103FB0007E74FD7C5812472DEE54FEF533753400A7
:103FC000900449E04533F535A3E04534F5368535B1
:103FD0003EF53F754000754104E4F5427FD07E74A4
:103FE0008076E53264037036F53E7FD07EB4FD7C8A
:103FF0005812472DEE54FEF53375340090044BE013
:104000004533F535A3E04534F53685353EF53F7546
:104010004000754104E4F5427FD07EB4803AE53239
:10402000B4043BE4F53E7FD07EF4FD7C5812472D6E
:10403000EE54FEF53375340090044DE04533F5350C
:10404000A3E04534F53685353EF53F7540007541B2
:1040500004E4F5427FD07EF4FD7C58124553228F54
:1040600032E53264017037F53E7FD47E34FD7C58F2
:1040700012472DEE54FEF53375340090044FE045A1
:1040800033F535A3E04534F53685353EF53F7540CB
:1040900000754104E4F5427FD47E34024150E5329C
:1040A00064027036F53E7FD47E74FD7C5812472D35
:1040B000EE54FEF533753400900451E04533F53588
:1040C000A3E04534F53685353EF53F754000754132
:1040D00004E4F5427FD47E748076E5326403703662
:1040E000F53E7FD47EB4FD7C5812472DEE54FEF58C
:1040F00033753400900453E04533F535A3E045347F
:10410000F53685353EF53F754000754104E4F542CE
:104110007FD47EB4803AE532B4043BE4F53E7FD4EC
:104120007EF4FD7C5812472DEE54FEF533753400B5
:10413000900455E04533F535A3E04534F536853533
:104140003EF53F754000754104E4F5427FD47EF4AE
:10415000FD7C58124553228F32E53264017037F5E9
:104160003E7FD87E34FD7C5812472DEE54FEF53349
:10417000753400900457E04533F535A3E04534F538
:104180003685353EF53F754000754104E4F5427FC4
:10419000D87E34024248E53264027036F53E7FD85C
:1041A0007E74FD7C5812472DEE54FEF533753400B5
:1041B000900459E04533F535A3E04534F5368535AF
:1041C0003EF53F754000754104E4F5427FD87E74AA
:1041D0008076E53264037036F53E7FD87EB4FD7C90
:1041E0005812472DEE54FEF53375340090045BE011
:1041F0004533F535A3E04534F53685353EF53F7555
:104200004000754104E4F5427FD87EB4803AE5323F
:10421000B4043BE4F53E7FD87EF4FD7C5812472D74
:10422000EE54FEF53375340090045DE04533F5350A
:10423000A3E04534F53685353EF53F7540007541C0
:1042400004E4F5427FD87EF4FD7C58124553228F5A
:1042500032E53264017037F53E7FDC7E34FD7C58F8
:1042600012472DEE54FEF53375340090045FE0459F
:1042700033F535A3E04534F53685353EF53F7540D9
:1042800000754104E4F5427FDC7E34024340E532B0
:1042900064027036F53E7FDC7E74FD7C5812472D3B
:1042A000EE54FEF533753400900461E04533F53586
:1042B000A3E04534F53685353EF53F754000754140
:1042C00004E4F5427FDC7E748076E5326403703668
:1042D000F53E7FDC7EB4FD7C5812472DEE54FEF592
:1042E00033753400900463E04533F535A3E045347D
:1042F000F53685353EF53F754000754104E4F542DD
:104300007FDC7EB4803AE532B4043BE4F53E7FDCEA
:104310007EF4FD7C5812472DEE54FEF533753400C3
:10432000900465E04533F535A3E04534F536853531
:104330003EF53F754000754104E4F5427FDC7EF4B4
:10434000FD7C58124553228F32E53264017037F5F7
:104350003E7FE07E34FD7C5812472DEE54FEF5334F
:10436000753400900467E04533F535A3E04534F536
:104370003685353EF53F754000754104E4F5427FD2
:10438000E07E34024438E53264027036F53E7FE068
:104390007E74FD7C5812472DEE54FEF533753400C3
:1043A000900469E04533F535A3E04534F5368535AD
:1043B0003EF53F754000754104E4F5427FE07E74B0
:1043C0008076E53264037036F53E7FE07EB4FD7C96
:1043D0005812472DEE54FEF53375340090046BE00F
:1043E0004533F535A3E04534F53685353EF53F7563
:1043F0004000754104E4F5427FE07EB4803AE53246
:10440000B4043BE4F53E7FE07EF4FD7C5812472D7A
:10441000EE54FEF53375340090046DE04533F53508
:10442000A3E04534F53685353EF53F7540007541CE
:1044300004E4F5427FE07EF4FD7C58124553228B64
:104440002C8A2D892EE4F53A052EE52E7002052DD5
:1044500014F9120E1FF534052EE52EAA2D70020553
:104460002D14F9120E1FF535052EE52EAA2D70021A
:10447000052D14F9120E1FF536052EE52EAA2D7006
:1044800002052D14F9120E1FF537E533F538E53224
:10449000F539900656E0FF754F047BFF7D7F125182
:1044A000D8900656E0FF754F04AB377D801251D887
:1044B000900656E0FF754F04AB367D811251D890BF
:1044C0000656E0FF754F04AB357D821251D8900639
:1044D00056E0FF754F04AB347D831251D8900656D9
:1044E000E0FF754F04AB387D841251D8900656E03A
:1044F000FF754F04AB397D851251D8900656E0FF09
:10450000754F047B017D861251D8E4F53AE53AC334
:1045100095385022900656E0FF7B047D901251980A
:10452000AB2F0531E531AA307002053014F9EF12D6
:104530000E38053A80D722900487E04480F53EA3E8
:10454000E0F53F754000754104E4F5427F287E1890
:10455000FD7C588F3D8E3C8D3B8C3A8F46780812FF
:104560000EEF8F45AF3DAE3CAD3BAC3A7810120E2E
:10457000EF8F44AF3DAE3CAD3BAC3A7818120EEF36
:104580008F43E541F54AE540F54B853F47E53EF56C
:1045900048E54270057549A080037549A2754F042E
:1045A0007BFF7D7FAF491251D8754F04AB467D80AC
:1045B000AF491251D8754F04AB457D81AF491251B7
:1045C000D8754F04AB447D82AF491251D8754F0462
:1045D000AB437D83AF491251D8754F04AB4A7D84FC
:1045E000AF491251D8754F04AB4B7D85AF4912517D
:1045F000D8754F047B037D86AF491251D8754F049F
:10460000AB477D87AF491251D8754F04AB487D87C2
:10461000AF491251D8754F04E4FB7D87AF49125161
:10462000D8754F04E4FB7D87AF490251D88B2C8AA3
:104630002D892E052EE52E7002052D14F9120E1F60
:10464000F534052EE52EAA2D7002052D14F9120E53
:104650001FF535052EE52EAA2D7002052D14F91231
:104660000E1FF536052EE52EAA2D7002052D14F924
:10467000120E1FF537E533F538E532F53990065659
:10468000E0FF754F047BFF7D7F1251D8900656E006
:10469000FF754F04AB377D801251D8900656E0FF6E
:1046A000754F04AB367D811251D8900656E0FF75E8
:1046B0004F04AB357D821251D8900656E0FF754FFE
:1046C00004AB347D831251D8900656E0FF754F0439
:1046D000AB387D841251D8900656E0FF754F04AB7D
:1046E000397D851251D8900656E0FF754F047B0343
:1046F0007D861251D8E4F53AE53AC39538502390B7
:104700000656E0FFAB2F0531E531AA3070020530C7
:1047100014F9120E1FFB754F047D871251D8053A0C
:1047200080D622E4F53E7E217FA4FD7C588F3D8E0D
:104730003C8D3B8C3AE4F5448F427808120EEF8FA3
:1047400041AF3DAE3CAD3BAC3A7810120EEF8F401E
:10475000AF3DAE3CAD3BAC3A7818120EEF8F3FE563
:104760003E70057543A080037543A2754F047BFF1F
:104770007D7FAF431251D8754F04AB427D80AF436C
:104780001251D8754F04AB417D81AF431251D8759A
:104790004F04AB407D82AF431251D8754F04AB3FFD
:1047A0007D83AF431251D8754F047B047D84AF43A2
:1047B0001251D8754F04E4FB7D85AF431251D87573
:1047C0004F047B017D86AF431251D87B047D90AFAF
:1047D000431251988F457B047D90AF431251988FBF
:1047E000467B047D90AF431251988F477B047D90A8
:1047F000AF431251988F47E5467F00FEEF2545FFF6
:10480000E43EFE22EF700C753E80F53FF5407541A9
:1048100004800D753E80753F00754000754104E4CD
:10482000F5427F447EC07D037C5012455390044383
:10483000E0F53EA3E0F53F754000754104E4F54224
:104840007F847E21FD7C58124553900443E0F53E61
:10485000A3E0F53F754000754104E4F5427F847E96
:1048600061FD7C58124553900443E0F53EA3E0F50A
:104870003F754000754104E4F5427F847EA1FD7CD4
:1048800058124553900443E0F53EA3E0F53F7540D0
:1048900000754104E4F5427F847EE1FD7C581245B9
:1048A00053753E80753F00754000754104E4F54244
:1048B0007F887E21FD7C58124553E4F53EF53FF597
:1048C00040754104F5427F887E21FD7C5812455396
:1048D000228F32E532B401201247238E338F34E524
:1048E000334420F53E85343F754000754104E4F5BE
:1048F000427FA47E2102497BE532B40224E4F53EE6
:104900007E611247288E338F34E5334420F53E858F
:10491000343F754000754104E4F5427FA47E618018
:104920005AE532B40329E4F53E7FA47EA1FD7C580C
:1049300012472D8E338F34E5334420F53E85343FC6
:10494000754000754104E4F5427FA47EA1802CE50A
:1049500032B4042DE4F53E7FA47EE1FD7C5812477D
:104960002D8E338F34E5334420F53E85343F75403A
:1049700000754104E4F5427FA47EE1FD7C581245B8
:1049800053229000117410F0A3F0A3F0A3F0A3F051
:10499000A3F0A3F0A3F0E4A3F0900011E09000CE08
:1049A000F0900012E09000CFF0900013E09000D063
:1049B000F0900014E09000D1F0900015E09000D24B
:1049C000F0900016E09000D3F0900017E09000D433
:1049D000F0900018E09000D5F090002074FFF09067
:1049E00000DDF0900021F09000DEF0900080741166
:1049F000F0A3F0A3F0A3F0E4900000F0A3F0A37400
:104A0000FFF0E490001CF0A3F0A3F0A3F0900022CC
:104A1000F0A3F0A3F0A3F0A3F0A3F0A3F0A3F0A3FE
:104A2000F0A3F0A3F0A3F02212003A787FE4F6D8C6
:104A3000FD75814F024A7202543AE493A3F8E4935D
:104A4000A34003F68001F208DFF48029E493A3F881
:104A50005407240CC8C333C4540F4420C8834004F3
:104A6000F456800146F6DFE4800B010204081020B2
:104A7000408090150AE47E019360BCA3FF543F3050
:104A8000E509541FFEE493A360010ECF54C025E056
:104A900060A840B8E493A3FAE493A3F8E493A3C80E
:104AA000C582C8CAC583CAF0A3C8C582C8CAC5839F
:104AB000CADFE9DEE780BE7B017A0579D575310072
:104AC0007532807F007ED4124F797B017A0679D6C9
:104AD0007531007532807F007ED6124F797B017A66
:104AE0000779567531007532807F007ED8124F7974
:104AF00078437C047D017B017A0779567E007F80B4
:104B0000120DF97B017A0779567531007532807F75
:104B1000007EDA124F7978C17C047D017B017A072F
:104B200079567E007F80120DF97B017A0379137527
:104B300031007532807F007ED0024F7990054FE0C2
:104B400064017062900544E024FB601524FE604E11
:104B50002406704D900555E090017FF012337A8065
:104B600040E4FFFE900553E0FDC3EF9DEE9400503E
:104B70002874552FF58274053EF583E0FD900552AB
:104B8000E02FFBE43EFA74002BF58274013AF583C2
:104B9000EDF00FBF00010E80CB1251588003121DA3
:104BA00026E490054FF0227F1112562E9003E4EE7A
:104BB000F0A3EFF07F1212562E9003E2EEF0A3EF77
:104BC000F07F0D12562EEF25E0FFEE339003DEF05E
:104BD000A3EFF07F0F12562E9003E0EEF0A3EFF05C
:104BE0007F1012562EEF7802C333CE33CED8F9FFA2
:104BF0009003DCEEF0A3EFF012549A9003E6EEF08F
:104C0000A3EFF0124FC19003E8EFF022AB05A90724
:104C1000E4F530F52FF52EF52D85A72CF5A7FAEA4A
:104C2000C39B503789BBE4FFFE0FBF00010EEF644A
:104C30000A4E70F5D2EC30EDFDAFBDAEBEE4FCFD2A
:104C4000E5302FF530E52F3EF52FED352EF52EEC26
:104C5000352DF52DC2ECC2ED0A80C4E4FAF9F8AFA7
:104C600030AE2FAD2EAC2D12504E852CA722AD07A5
:104C7000ED9005F330E006E04401F08004E054FEDE
:104C8000F0ED9005F330E106E04402F08004E054DA
:104C9000FDF0ED9005F330E206E04404F08004E01E
:104CA00054FBF0ED9005F330E306E04408F0800497
:104CB000E054F7F09005F3E0FB754F057D417F1C54
:104CC0000251D8E4F533F534F53E7F507EC07D03C4
:104CD0007C5012472D8E3EEF4481F53F75400075A4
:104CE0004104E4F5427F507EC07D037C5012455361
:104CF000E4F53E7F507EC07D037C5012472DEE20B0
:104D0000E6120532E53270020531D394B8E53194EC
:104D10000B40DD2222E4900291F0A3F0F52CF52D5A
:104D2000AF2DAE2C12569C7E00900292E02FF09098
:104D30000291E03EF0052DE52D7002052CC3E52C17
:104D400094C840DC900291E0FFA3E090038BCFF089
:104D5000A3EFF07B017A0379137533007534807FFC
:104D6000007ED0024F31AC06900317E0FDA3E0FBBC
:104D7000A3E0F5823395E0F53085823112528DAC97
:104D800006AD07ECFF3395E090010EEFF0AF05A301
:104D9000EFF090010EE0FBFF3395E0FEEF2428FFDB
:104DA000E43EFE7C007D02120E5C9007DAEFF0D349
:104DB000EB648094C0227F011254087F02125408D1
:104DC0007F031254087F041254087F011229697F5F
:104DD000021229697F031229697F041229697F0160
:104DE0001220607F021220607F031220607F041275
:104DF00020607F011225417F021225417F03122589
:104E0000417F04022541900666E0640170439006EC
:104E100065E07019752F0175300675315BF53275D7
:104E200033047B017A06795712462D801F90066560
:104E3000E0B40118752F0175300675315F753200C9
:104E40007533047B017A06795712443FE490066675
:104E5000F0227B017A0479237531007532107F00CE
:104E60007ED2124F797B017A047933753100753225
:104E7000107F107ED2124F797B017A027900753152
:104E8000007532107F207ED2124F797B017A04792F
:104E9000137531007532107F407ED2024F79122295
:104EA000E67B057D047F1C1251989005E2EFF07BB4
:104EB000057D1E7F1C1251989005EAEFF07B057D61
:104EC000297F1C1251989005F1EFF07B057D5A7FE8
:104ED0001C125198900604EFF07B057D647F1C1234
:104EE0005198900609EFF022AC07E4FBFF12564FF1
:104EF0001256571256577A0712564ABC0406A2B2E7
:104F000092018007BC0504A2909201A201E433FF44
:104F1000A802088002C333D8FC4203AD04E4FF12A8
:104F200057831256571AC3EA6480948050CAAF035D
:104F3000228E2E8F2F8B308A318932E4F535F5366B
:104F40007D5512536FE4F535F536C3E5369534E5F6
:104F50003595335023E52F2536FFE52E3535FEAB4D
:104F6000300532E532AA317002053112525205364F
:104F7000E53670D6053580D2228E2C8F2D8B2E8A69
:104F80002F8930E4F533F534F533F534C3E5349542
:104F900032E53395315029E52D2534FFE52C3533A5
:104FA000FE12569CAB2E0530E530AA2F7002052F5D
:104FB00014F9EF120E380534E53470D0053380CC87
:104FC00022E4FFA296332FFFA293E43325E025E0ED
:104FD0002FFFA292E43333333354F82FFFA294E42B
:104FE00033C454F02FFFA286E433C43354E02FFFC0
:104FF000A295E433C4333354C02FFFA2B4E433C4C6
:1050000033333354802FFF22EF30E004D2968002F6
:10501000C296EF30E204D2938002C293EF30E304F1
:10502000D2928002C292EF30E404D2948002C29401
:10503000EF30E504D2868002C286EF30E604D295D6
:105040008002C295EF30E703D2B422C2B422C2D5A7
:10505000E830E70FB2D5E4C39BFBE49AFAE499F990
:10506000E498F8EC30E717B2D5125084120FE6E45A
:10507000C39BFBE49AFAE499F9E498F88003120FD1
:10508000E630D50DE4C39FFFE49EFEE49DFDE49C65
:10509000FC22AC06E0FDA3E0FBA3E0F530A3E0F5C5
:1050A000318D2E8B2FAB07AA06E4F9F8AF2EFCFD4D
:1050B000FE120E928F358E348D338C32A92FA801BB
:1050C000120EEF8F358E348D338C32E5312FFFE5A4
:1050D000303EFE228E2C8F2D8B2E8A2F8930E4F5C8
:1050E00033F534F533F534C3E5349532E533953192
:1050F0005023E52D2534FFE52C3533FEAB2E05304E
:10510000E530AA2F7002052F1252520534E5347093
:10511000D6053380D222AC05AB07A903E4FF1256B3
:10512000511256571256577A07EBA802088002C34D
:1051300013D8FC5401F9AD0460047F018002E4FF40
:105140001256E512564DE4FF1257831256571AC3F2
:10515000EA6480948050D22290017AE0FFB49316E2
:10516000A3E0B47811A3E0B4CC0CA3E0B4AE0790F4
:1051700005427401F022EFB43A1890017BE0B418B4
:1051800011A3E0B4B60CA3E0B46F0790054274021B
:10519000F022E4900542F0228F488D498B4A125646
:1051A000F7AF481253A2AF491253A2AD4A7F011282
:1051B00057831256571256F7E54804FF1253A2AF11
:1051C0004A124EE8A907AF4A125575AF4A1255B4B4
:1051D000AF4A1257FFAF01228D4D8B4EAC07AF4F38
:1051E0001257FFAF4F1256FEAF04AD4F125116AF1C
:1051F0004F1253A9AD4FAF4D125116AF4F1253A9D5
:10520000AD4FAF4E125116AF4F1253A9AF4F1255BB
:10521000B4AF4F0257FF7F011255F27F021255F2D1
:105220007F031255F27F041255F27F011238487F36
:10523000021238487F031238487F041238487F0131
:105240001239507F021239507F031239507F040205
:10525000395014F9120E1FFD7B55ACA7A2AF920175
:10526000E4F5A7C2AF75FF8075EF028F828E83BB16
:10527000550975B7A575B7F1438F0175FF8075EFB7
:1052800002EDF0538FFEA20192AF8CA7228D2E8BE0
:105290002FAB07AA06EA3395E0F9F8AF2EE4FCFD40
:1052A000FE120E928F358E348D338C32A92FA801C9
:1052B000120EEF8F358E348D338C32E531FEE425BE
:1052C00035FFEE3534FE227FFF124C6E900360E016
:1052D00064017013308408750D01750E10800E7511
:1052E0000E10E4F50D8006750E10E4F50D75110233
:1052F000C282900103E511F0900108E04401F02220
:105300007B017A0179007531017532007F007EC81A
:10531000124F797B017A0279117531007532807FE5
:10532000007ECA124F797B017A027993753100753C
:1053300032807F007ECC024F79900109E0FF900718
:10534000EDE0F4FEEF5E900109F09007F9E054BF44
:10535000F09007FBE07002A3E070139007F8E07094
:1053600002A3E07009900103E04401F0D28222AC74
:10537000A7A2AF9201C2AFE4F5A775FF8075EF0257
:105380008F828E83BD550975B7A575B7F1438F031D
:1053900075FF8075EF02E4F0538FFCA20192AF8C91
:1053A000A722AD4A125116AF4AAC0712564AAF04B3
:1053B000125795EF600CE4FF125783125657E4FF23
:1053C000800CAD04E4FF1257831256577F0112562A
:1053D000E512565722124E069003EAE0B4AA0AE4F8
:1053E000F09003E9E0FF125008900388E0B4AA08A7
:1053F000125868E4900388F090067FE0B4AA08127F
:10540000585EE490067FF0228F311248D1E53114C6
:10541000FF7B047A007D047C80123234AF31123F6E
:1054200067AF3112405FAF31124157AF3112424F77
:10543000AF31124347AF3102309D120003125610B4
:105440001255D31254E81254C212275F12004612AA
:1054500056827FDC7E0512559575A88012373B1267
:1054600053D512574A124B3C80F2E4FF1257E97BA6
:1054700005E4FD7F201251989006D6EFF07B057D64
:10548000017F201251989006D7EFF07B057D037FB6
:10549000201251989006D8EFF0227D047F14124C10
:1054A0000CC3EF9519FFEE9518FE3395E0FDFCE473
:1054B000FB7A01F9F8120E92E47B13FAF9F8125014
:1054C0004E22754F057BAA7D027F1C1251D87F0AA0
:1054D0007E00125595754F05E4FB7D027F1C12512D
:1054E000D87F0A7E0002559590FFD5E493FE90FF89
:1054F000D4E493FDEEFCE4120C6F7BD77AA37930F1
:10550000783F120B64120CA88E188F1922E49001B8
:1055100008F09007FBE07002A3E070139007F8E03A
:105520007002A3E07009900103E04401F0D28222EE
:105530007E007F547D007B017A017900120F299053
:105540000180E0900100F0A37408F0E4A3F0A374DC
:1055500007F022EF24F66019240A701812549A12E8
:105560004D667F0D12562EEF25E0FFEE33FE0257FB
:10557000A7124BA722AC071256571256E1125657E4
:105580007F01125651E4FF125783125657E4FF125F
:1055900056E5025657AD07AC06E4FBFAC3EB9DECAB
:1055A0006480F8EA648098500A1257C90BBB000166
:1055B0000A80E922AC07AD04E4FF1256E57F02122F
:1055C0005666AD047F011257830F1256661256E1DC
:1055D0000256577F327E00125595C295C292D293E1
:1055E000D2B4D296C294C2867F057E00125595D25F
:1055F00095228F31123A58AF31123B5BAF31123CDA
:105600005EAF31123D61AF31123E64AF31022EFD0B
:10561000125300124AB7125530124982124E527E6E
:10562000007F807D007B017A037993020F297D043E
:10563000124C0CAD07AC06E4120C6F7B487AE17992
:10564000BA783F120B64120CA8221256577F01AD94
:1056500004125783125657E4FFFE0FBF00010EEFEE
:1056600064024E70F522AD07E4FBFAEDFFC3EB9F39
:105670007480F86A98500A1256570BBB00010A80D2
:10568000EA22125723E4FF1206437F011206437FEA
:10569000021206437F0312064302360AADA7A2AFE9
:1056A0009201C2AFE4F5A78F828E8393FFA201928D
:1056B000AF8DA72212546AE4FF1210787F011210F6
:1056C000787F021210787F03021078BD0408EF245F
:1056D000FF92B392B222BD0507EF24FF9291929000
:1056E00022AD047F01BD0406EF24FF92B222BD0566
:1056F00005EF24FF929022AF4A1257FFAF4AAD0741
:10570000125657E4FF1256E57F0202566675B280C4
:1057100075BB1475DF1F75BC1875B90453E8F943E0
:10572000E88522E4FF1257E99006D8E0FB754F05A3
:105730007D037F200251D890011AE0FF65126007B7
:10574000EF30E30375EF128F1222AFA7E4F5A72025
:10575000870543C180800353C17F8FA722C0E0C06B
:10576000D075D000C00712574AD007D0D0D0E03251
:10577000AF885388AF758CF1EF5440FEEF54104E54
:10578000428822BD0406EF24FF92B322BD0505EF37
:1057900024FF929122BF0404A2B28005BF0505A296
:1057A00090E433FEAF0622900313125092AC0690A1
:1057B0000110ECF0A3EFF022E4F5A9E5A930E7FB36
:1057C00075A903E5A930E7FB22E4FFFE000FBF0047
:1057D000010EBE17F7BF70F422E59154045391FBFC
:1057E0007593157592A0429122AB07754F057DFF09
:1057F0007F200251D853C17F43C18053917F32AD86
:10580000077F011256CB025666E4F5A77597DE7541
:1058100097AD2275A46075F1FE75D4FF2275A56859
:1058200075F27F75D5FF2275A72075F30375CC0C33
:1058300022E4F5A775E34075E10422759C1275F426
:105840009F2275A71075C12022E4F5A775EF0622E7
:10585000758E017589022275D7A043C11C22124D95
:10586000B602521675E68122024D1502275FFFFF30
:10587000FFFFFFFFFFFFFFFFFFFFFFFFFFFFFFFF38
:10588000FFFFFFFFFFFFFFFFFFFFFFFFFFFFFFFF28
:10589000FFFFFFFFFFFFFFFFFFFFFFFFFFFFFFFF18
:1058A000FFFFFFFFFFFFFFFFFFFFFFFFFFFFFFFF08
:10C800001100000000000000000000000000000017
:10C810000000000000000000000000000000000018
:10C820000000000000000000000000000000000008
:10C8300000000000000000000000000000000000F8
:10C8400000000000000000000000000000000000E8
:10C8500000000000000000000000000000000000D8
:10C860000000FF00000000000000000000000000C9
:10C8700000000000000000FFFFFFFFFFFFFFFF00C0
:10C88000118C23000000004000020205FF000000A0
:10C89000000000004C555853484152452D4943541F
:10C8A000202020201F3C18A00000000000000000F5
:10C8B0000000000000000000000000000000000078
:10C8C0000000000000000000000000000000000068
:10C8D0000000000000000000000000000000000058
:10C8E000FFFFFFFFFFFFFFFFFFFFFFFFFFFFFFFF58
:10CE000080000000000000000000000000000000A2
:10CE10000000000000000000000000000000000012
:10CE20000000000000000000000000000000000002
:10CE300000000000000000000000000000000000F2
:10CE400000000000000000000000000000000000E2
:10CE500000000000000000000000000000000000D2
:10CE600000000000000000000000666600002222B2
:10CE700000000000000000000000000000000000B2
:10CE8000FFFFFFFFFFFFFFFFFFFFFFFFFFFFFFFFB2
:10CE9000FFFFFFFFFFFFFFFFFFFFFFFFFFFFFFFFA2
:10CEA000FFFFFFFFFFFFFFFFFFFFFFFFFFFFFFFF92
:10CEB000FFFFFFFFFFFFFFFFFFFFFFFFFFFFFFFF82
:10CEC000FFFFFFFFFFFFFFFFFFFFFFFFFFFFFFFF72
:10CED000FFFFFFFFFFFFFFFFFFFFFFFFFFFFFFFF62
:10CEE000FFFFFFFFFFFFFFFFFFFFFFFFFFFFFFFF52
:10CEF000FFFFFFFFFFFFFFFFFFFFFFFFFFFFFFFF42
:10CF0000FFFFFFFFFFFFFFFFFFFFFFFFFFFFFFFF31
:10CF1000FFFFFFFFFFFFFFFFFFFFFFFFFFFFFFFF21
:10CF2000FFFFFFFFFFFFFFFFFFFFFFFFFFFFFFFF11
:10CF3000FFFFFFFFFFFFFFFFFFFFFFFFFFFFFFFF01
:10CF4000FFFFFFFFFFFFFFFFFFFFFFFFFFFFFFFFF1
:10CF5000FFFFFFFFFFFFFFFFFFFFFFFFFFFFFFFFE1
:10CF6000FFFFFFFFFFFFFFFFFFFFFFFFFFFFFFFFD1
:10CF7000FFFFFFFFFFFFFFFFFFFFFFFFFFFFFFFFC1
:10CF8000FFFFFFFFFFFFFFFFFFFFFFFFFFFFFFFFB1
:10CF9000FFFFFFFFFFFFFFFFFFFFFFFFFFFFFFFFA1
:10CFA000FFFFFFFFFFFFFFFFFFFFFFFFFFFFFFFF91
:10CFB000FFFFFFFFFFFFFFFFFFFFFFFFFFFFFFFF81
:10CFC000FFFFFFFFFFFFFFFFFFFFFFFFFFFFFFFF71
:10CFD000FFFFFFFFFFFFFFFFFFFFFFFFFFFFFFFF61
:10CFE000FFFFFFFFFFFFFFFFFFFFFFFFFFFFFFFF51
:10CFF000FFFFFFFFFFFFFFFFFFFFFFFFFFFFFFFF41
:10D00000010000000100000100000001000000011B
:10D01000000000010000000100000001000000010C
:10D0200000000001000000010000000100000001FC
:10D0300000000001000000008001000080010000ED
:10D040008001000080010046000100000000000097
:10D05000FFFFFFFFFFFFFFFFFFFFFFFFFFFFFFFFE0
:10D06000FFFFFFFFFFFFFFFFFFFFFFFFFFFFFFFFD0
:10D07000FFFFFFFFFFFFFFFFFFFFFFFFFFFFFFFFC0
:10D08000FFFFFFFFFFFFFFFFFFFFFFFFFFFFFFFFB0
:10D09000FFFFFFFFFFFFFFFFFFFFFFFFFFFFFFFFA0
:10D0A000FFFFFFFFFFFFFFFFFFFFFFFFFFFFFFFF90
:10D0B000FFFFFFFFFFFFFFFFFFFFFFFFFFFFFFFF80
:10D0C000FFFFFFFFFFFFFFFFFFFFFFFFFFFFFFFF70
:10D0D000FFFFFFFFFFFFFFFFFFFFFFFFFFFFFFFF60
:10D0E000FFFFFFFFFFFFFFFFFFFFFFFFFFFFFFFF50
:10D0F000FFFFFFFFFFFFFFFFFFFFFFFFFFFFFFFF40
:10D10000FFFFFFFFFFFFFFFFFFFFFFFFFFFFFFFF2F
:10D11000FFFFFFFFFFFFFFFFFFFFFFFFFFFFFFFF1F
:10D12000FFFFFFFFFFFFFFFFFFFFFFFFFFFFFFFF0F
:10D13000FFFFFFFFFFFFFFFFFFFFFFFFFFFFFFFFFF
:10D14000FFFFFFFFFFFFFFFFFFFFFFFFFFFFFFFFEF
:10D15000FFFFFFFFFFFFFFFFFFFFFFFFFFFFFFFFDF
:10D16000FFFFFFFFFFFFFFFFFFFFFFFFFFFFFFFFCF
:10D17000FFFFFFFFFFFFFFFFFFFFFFFFFFFFFFFFBF
:10D18000FFFFFFFFFFFFFFFFFFFFFFFFFFFFFFFFAF
:10D19000FFFFFFFFFFFFFFFFFFFFFFFFFFFFFFFF9F
:10D1A000FFFFFFFFFFFFFFFFFFFFFFFFFFFFFFFF8F
:10D1B000FFFFFFFFFFFFFFFFFFFFFFFFFFFFFFFF7F
:10D1C000FFFFFFFFFFFFFFFFFFFFFFFFFFFFFFFF6F
:10D1D000FFFFFFFFFFFFFFFFFFFFFFFFFFFFFFFF5F
:10D1E000FFFFFFFFFFFFFFFFFFFFFFFFFFFFFFFF4F
:10D1F000FFFFFFFFFFFFFFFFFFFFFFFFFFFFFFFF3F
:10D2000000000102030406080A0B0E0000000000E3
:10D2100002030507090B0D0F0000000000000000CD
:10D22000001E323C00000000000000000000000072
:10D230009378CCAEFFFFFFFFFFFFFFFFFFFFFFFF75
:10D24000FFFFFFFFFFFFFFFFFFFFFFFFFFFFFFFFEE
:10D25000FFFFFFFFFFFFFFFFFFFFFFFFFFFFFFFFDE
:10D26000FFFFFFFFFFFFFFFFFFFFFFFFFFFFFFFFCE
:10D27000FFFFFFFFFFFFFFFFFFFFFFFFFFFFFFFFBE
:10D28000FFFFFFFFFFFFFFFFFFFFFFFFFFFFFFFFAE
:10D29000FFFFFFFFFFFFFFFFFFFFFFFFFFFFFFFF9E
:10D2A000FFFFFFFFFFFFFFFFFFFFFFFFFFFFFFFF8E
:10D2B000FFFFFFFFFFFFFFFFFFFFFFFFFFFFFFFF7E
:10D2C000FFFFFFFFFFFFFFFFFFFFFFFFFFFFFFFF6E
:10D2D000FFFFFFFFFFFFFFFFFFFFFFFFFFFFFFFF5E
:10D2E000FFFFFFFFFFFFFFFFFFFFFFFFFFFFFFFF4E
:10D2F000FFFFFFFFFFFFFFFFFFFFFFFFFFFFFFFF3E
:10D30000FFFFFFFFFFFFFFFFFFFFFFFFFFFFFFFF2D
:10D31000FFFFFFFFFFFFFFFFFFFFFFFFFFFFFFFF1D
:10D32000FFFFFFFFFFFFFFFFFFFFFFFFFFFFFFFF0D
:10D33000FFFFFFFFFFFFFFFFFFFFFFFFFFFFFFFFFD
:10D34000FFFFFFFFFFFFFFFFFFFFFFFFFFFFFFFFED
:10D35000FFFFFFFFFFFFFFFFFFFFFFFFFFFFFFFFDD
:10D36000FFFFFFFFFFFFFFFFFFFFFFFFFFFFFFFFCD
:10D37000FFFFFFFFFFFFFFFFFFFFFFFFFFFFFFFFBD
:10D38000FFFFFFFFFFFFFFFFFFFFFFFFFFFFFFFFAD
:10D39000FFFFFFFFFFFFFFFFFFFFFFFFFFFFFFFF9D
:10D3A000FFFFFFFFFFFFFFFFFFFFFFFFFFFFFFFF8D
:10D3B000FFFFFFFFFFFFFFFFFFFFFFFFFFFFFFFF7D
:10D3C000FFFFFFFFFFFFFFFFFFFFFFFFFFFFFFFF6D
:10D3D000FFFFFFFFFFFFFFFFFFFFFFFFFFFFFFFF5D
:10D3E000FFFFFFFFFFFFFFFFFFFFFFFFFFFFFFFF4D
:10D3F000FFFFFFFFFFFFFFFFFFFFFFFFFFFFFFFF3D
:10D400000000000000000000000000000004000018
:10D41000FF00FF0070080000070707070FF0002358
:10D420002323234A4A4A4A00000000000000000467
:10D4300000001000080000000000000000000000D4
:10D4400000000000000000000000000000000000DC
:10D4500000000000000000000000000000000000CC
:10D4600000000000000000000000000000000000BC
:10D4700000000000000000000000000000000000AC
:10D48000FFFFFFFFFFFFFFFFFFFFFFFFFFFFFFFFAC
:10D49000FFFFFFFFFFFFFFFFFFFFFFFFFFFFFFFF9C
:10D4A000FFFFFFFFFFFFFFFFFFFFFFFFFFFFFFFF8C
:10D4B000FFFFFFFFFFFFFFFFFFFFFFFFFFFFFFFF7C
:10D4C000FFFFFFFFFFFFFFFFFFFFFFFFFFFFFFFF6C
:10D4D000FFFFFFFFFFFFFFFFFFFFFFFFFFFFFFFF5C
:10D4E000FFFFFFFFFFFFFFFFFFFFFFFFFFFFFFFF4C
:10D4F000FFFFFFFFFFFFFFFFFFFFFFFFFFFFFFFF3C
:10D50000FFFFFFFFFFFFFFFFFFFFFFFFFFFFFFFF2B
:10D51000FFFFFFFFFFFFFFFFFFFFFFFFFFFFFFFF1B
:10D52000FFFFFFFFFFFFFFFFFFFFFFFFFFFFFFFF0B
:10D53000FFFFFFFFFFFFFFFFFFFFFFFFFFFFFFFFFB
:10D54000FFFFFFFFFFFFFFFFFFFFFFFFFFFFFFFFEB
:10D55000FFFFFFFFFFFFFFFFFFFFFFFFFFFFFFFFDB
:10D56000FFFFFFFFFFFFFFFFFFFFFFFFFFFFFFFFCB
:10D57000FFFFFFFFFFFFFFFFFFFFFFFFFFFFFFFFBB
:10D58000FFFFFFFFFFFFFFFFFFFFFFFFFFFFFFFFAB
:10D59000FFFFFFFFFFFFFFFFFFFFFFFFFFFFFFFF9B
:10D5A000FFFFFFFFFFFFFFFFFFFFFFFFFFFFFFFF8B
:10D5B000FFFFFFFFFFFFFFFFFFFFFFFFFFFFFFFF7B
:10D5C000FFFFFFFFFFFFFFFFFFFFFFFFFFFFFFFF6B
:10D5D000FFFFFFFFFFFFFFFFFFFFFFFFFFFFFFFF5B
:10D5E000FFFFFFFFFFFFFFFFFFFFFFFFFFFFFFFF4B
:10D5F000FFFFFFFFFFFFFFFFFFFFFFFFFFFFFFFF3B
:10D60000000000640A0000000020380D0000350012
:10D61000002500001D04E40000640A000000002052
:10D62000380D00003500002500001D04E4000064F2
:10D630000A0000000020380D000035000025000021
:10D640001D04E40000640A0000000020380D000002
:10D650003500002500001D04E40000003F00003FED
:10D660000000F3000003000C03000C03000C00009A
:10D6700000000000000000000000000000000000AA
:10D68000FFFFFFFFFFFFFFFFFFFFFFFFFFFFFFFFAA
:10D69000FFFFFFFFFFFFFFFFFFFFFFFFFFFFFFFF9A
:10D6A000FFFFFFFFFFFFFFFFFFFFFFFFFFFFFFFF8A
:10D6B000FFFFFFFFFFFFFFFFFFFFFFFFFFFFFFFF7A
:10D6C000FFFFFFFFFFFFFFFFFFFFFFFFFFFFFFFF6A
:10D6D000FFFFFFFFFFFFFFFFFFFFFFFFFFFFFFFF5A
:10D6E000FFFFFFFFFFFFFFFFFFFFFFFFFFFFFFFF4A
:10D6F000FFFFFFFFFFFFFFFFFFFFFFFFFFFFFFFF3A
:10D70000FFFFFFFFFFFFFFFFFFFFFFFFFFFFFFFF29
:10D71000FFFFFFFFFFFFFFFFFFFFFFFFFFFFFFFF19
:10D72000FFFFFFFFFFFFFFFFFFFFFFFFFFFFFFFF09
:10D73000FFFFFFFFFFFFFFFFFFFFFFFFFFFFFFFFF9
:10D74000FFFFFFFFFFFFFFFFFFFFFFFFFFFFFFFFE9
:10D75000FFFFFFFFFFFFFFFFFFFFFFFFFFFFFFFFD9
:10D76000FFFFFFFFFFFFFFFFFFFFFFFFFFFFFFFFC9
:10D77000FFFFFFFFFFFFFFFFFFFFFFFFFFFFFFFFB9
:10D78000FFFFFFFFFFFFFFFFFFFFFFFFFFFFFFFFA9
:10D79000FFFFFFFFFFFFFFFFFFFFFFFFFFFFFFFF99
:10D7A000FFFFFFFFFFFFFFFFFFFFFFFFFFFFFFFF89
:10D7B000FFFFFFFFFFFFFFFFFFFFFFFFFFFFFFFF79
:10D7C000FFFFFFFFFFFFFFFFFFFFFFFFFFFFFFFF69
:10D7D000FFFFFFFFFFFFFFFFFFFFFFFFFFFFFFFF59
:10D7E000FFFFFFFFFFFFFFFFFFFFFFFFFFFFFFFF49
:10D7F000FFFFFFFFFFFFFFFFFFFFFFFFFFFFFFFF39
:10D80000282C0001FFF6FFF6FFF6FFF6005000504F
:10D810000050005000000000000000000000000068
:10D820000000000000000000000000003000300098
:10D830003000300000000001000000000000000087
:10D840000000000080000000800000008000000058
:10D850008000000000000000000000000000000048
:10D8600000000000000000000000000000000000B8
:10D8700000000000000000000000000000000000A8
:10D88000FFFFFFFFFFFFFFFFFFFFFFFFFFFFFFFFA8
:10D89000FFFFFFFFFFFFFFFFFFFFFFFFFFFFFFFF98
:10D8A000FFFFFFFFFFFFFFFFFFFFFFFFFFFFFFFF88
:10D8B000FFFFFFFFFFFFFFFFFFFFFFFFFFFFFFFF78
:10D8C000FFFFFFFFFFFFFFFFFFFFFFFFFFFFFFFF68
:10D8D000FFFFFFFFFFFFFFFFFFFFFFFFFFFFFFFF58
:10D8E000FFFFFFFFFFFFFFFFFFFFFFFFFFFFFFFF48
:10D8F000FFFFFFFFFFFFFFFFFFFFFFFFFFFFFFFF38
:10D90000FFFFFFFFFFFFFFFFFFFFFFFFFFFFFFFF27
:10D91000FFFFFFFFFFFFFFFFFFFFFFFFFFFFFFFF17
:10D92000FFFFFFFFFFFFFFFFFFFFFFFFFFFFFFFF07
:10D93000FFFFFFFFFFFFFFFFFFFFFFFFFFFFFFFFF7
:10D94000FFFFFFFFFFFFFFFFFFFFFFFFFFFFFFFFE7
:10D95000FFFFFFFFFFFFFFFFFFFFFFFFFFFFFFFFD7
:10D96000FFFFFFFFFFFFFFFFFFFFFFFFFFFFFFFFC7
:10D97000FFFFFFFFFFFFFFFFFFFFFFFFFFFFFFFFB7
:10D98000FFFFFFFFFFFFFFFFFFFFFFFFFFFFFFFFA7
:10D99000FFFFFFFFFFFFFFFFFFFFFFFFFFFFFFFF97
:10D9A000FFFFFFFFFFFFFFFFFFFFFFFFFFFFFFFF87
:10D9B000FFFFFFFFFFFFFFFFFFFFFFFFFFFFFFFF77
:10D9C000FFFFFFFFFFFFFFFFFFFFFFFFFFFFFFFF67
:10D9D000FFFFFFFFFFFFFFFFFFFFFFFFFFFFFFFF57
:10D9E000FFFFFFFFFFFFFFFFFFFFFFFFFFFFFFFF47
:10D9F000FFFFFFFFFFFFFFFFFFFFFFFFFFFFFFFF37
:10DA0000FFECFFECFFECFFEC00940094009400941A
:10DA10000000000000000000000000000000000006
:10DA200000000000000000000000000000000000F6
:10DA300000000000000000000000000000000000E6
:10DA400000000000000000000000000000000000D6
:10DA500000000000000000000000000000000000C6
:10DA600000000000000000000000000000000000B6
:10DA70000000000000000000000000000000FFFFA8
:10DA8000FFFFFFFFFFFFFFFFFFFFFFFFFFFFFFFFA6
:10DA9000FFFFFFFFFFFFFFFFFFFFFFFFFFFFFFFF96
:10DAA000FFFFFFFFFFFFFFFFFFFFFFFFFFFFFFFF86
:10DAB000FFFFFFFFFFFFFFFFFFFFFFFFFFFFFFFF76
:10F800000100000000000000FFFFFFFFFFFFFFFFFF
:10F81000FFFFFFFFFFFFFFFFFFFFFFFFFFFFFFFFF8
:10F82000FFFFFFFFFFFFFFFFFFFFFFFFFFFFFFFFE8
:10F83000FFFFFFFFFFFFFFFFFFFFFFFFFFFFFFFFD8
:10F84000FFFFFFFFFFFFFFFFFFFFFFFFFFFFFFFFC8
:10F85000FFFFFFFFFFFFFFFFFFFFFFFFFFFFFFFFB8
:10F86000FFFFFFFFFFFFFFFFFFFFFFFFFFFFFFFFA8
:10F87000FFFFFFFFFFFFFFFFFFFFFFFFFFFFFFFF98
:10F88000FFFFFFFFFFFFFFFFFFFFFFFFFFFFFFFF88
:10F89000FFFFFFFFFFFFFFFFFFFFFFFFFFFFFFFF78
:10F8A000FFFFFFFFFFFFFFFFFFFFFFFFFFFFFFFF68
:10F8B000FFFFFFFFFFFFFFFFFFFFFFFFFFFFFFFF58
:10F8C000FFFFFFFFFFFFFFFFFFFFFFFFFFFFFFFF48
:10F8D000FFFFFFFFFFFFFFFFFFFFFFFFFFFFFFFF38
:10F8E000FFFFFFFFFFFFFFFFFFFFFFFFFFFFFFFF28
:10F8F000FFFFFFFFFFFFFFFFFFFFFFFFFFFFFFFF18
:10F90000FFFFFFFFFFFFFFFFFFFFFFFFFFFFFFFF07
:10F91000FFFFFFFFFFFFFFFFFFFFFFFFFFFFFFFFF7
:10F92000FFFFFFFFFFFFFFFFFFFFFFFFFFFFFFFFE7
:10F93000FFFFFFFFFFFFFFFFFFFFFFFFFFFFFFFFD7
:10F94000FFFFFFFFFFFFFFFFFFFFFFFFFFFFFFFFC7
:10F95000FFFFFFFFFFFFFFFFFFFFFFFFFFFFFFFFB7
:10F96000FFFFFFFFFFFFFFFFFFFFFFFFFFFFFFFFA7
:10F97000FFFFFFFFFFFFFFFFFFFFFFFFFFFFFFFF97
:10F98000FFFFFFFFFFFFFFFFFFFFFFFFFFFFFFFF87
:10F99000FFFFFFFFFFFFFFFFFFFFFFFFFFFFFFFF77
:10F9A000FFFFFFFFFFFFFFFFFFFFFFFFFFFFFFFF67
:10F9B000FFFFFFFFFFFFFFFFFFFFFFFFFFFFFFFF57
:10F9C000FFFFFFFFFFFFFFFFFFFFFFFFFFFFFFFF47
:10F9D000FFFFFFFFFFFFFFFFFFFFFFFFFFFFFFFF37
:10F9E000FFFFFFFFFFFFFFFFFFFFFFFFFFFFFFFF27
:10F9F000FFFFFFFFFFFFFFFFFFFFFFFFFFFFFFFF17
:00000001FF
