:1000000002623785A72E12745812746212746C1231
:10001000747612749412748012736312003E127418
:100020009B1274A21273FB1273B312741C1274A984
:100030001274B012748A852EA72222021A6D75D10D
:100040004022FF0273A0E4FF1274387554057BAAA6
:100050007D027F20126DFE7F0A7E0012718F755423
:1000600005E4FB7D027F20126DFE7F0A7E00027197
:100070008FFFFF0274448F32125B728E338F34E530
:1000800032602BE5334480F5438534447545007573
:100090004604E4F5477FA47E21FD7C581257C87BB7
:1000A000047A007D047C80E4FF1242D1807DE53338
:1000B000547FF543853444754500754604E4F5479F
:1000C0007FA47E21FD7C581257C87B047A007D04F2
:1000D0007C80E4FF1242D1E4F5437FC07E34FD7C96
:1000E00058125B7C8E338F34853343E53454FEF5F0
:1000F00044754500754604E4F5477FC07E34FD7CB9
:10010000581257C8E4F5437FA47E10FD7C58125B5B
:100110007CE4F5437F807E36FD7C58125B7CE4F501
:10012000437FC07E34FD7C58125B7CE4F5437FA4A2
:100130007E61FD7C58125B7C8E338F34E532602B00
:10014000E5334480F543853444754500754604E441
:10015000F5477FA47E61FD7C581257C87B047A0066
:100160007D047C807F011242D1807DE533547FF590
:1001700043853444754500754604E4F5477FA47E05
:1001800061FD7C581257C87B047A007D047C807F17
:10019000011242D1E4F5437FC07E74FD7C58125BAE
:1001A0007C8E338F34853343E53454FEF5447545F6
:1001B00000754604E4F5477FC07E74FD7C581257F5
:1001C000C8E4F5437FA47E50FD7C58125B7CE4F5C7
:1001D000437F807E76FD7C58125B7CE4F5437FC0D4
:1001E0007E74FD7C58125B7CE4F5437FA47EA1FD08
:1001F0007C58125B7C8E338F34E532602BE53344C0
:1002000080F543853444754500754604E4F5477F21
:10021000A47EA1FD7C581257C87B047A007D047C23
:10022000807F021242D1807DE533547FF5438534CF
:1002300044754500754604E4F5477FA47EA1FD7C26
:10024000581257C87B047A007D047C807F021242DA
:10025000D1E4F5437FC07EB4FD7C58125B7C8E33C5
:100260008F34853343E53454FEF5447545007546B7
:1002700004E4F5477FC07EB4FD7C581257C8E4F50E
:10028000437FA47E90FD7C58125B7CE4F5437F8025
:100290007EB6FD7C58125B7CE4F5437FC07EB4FDE6
:1002A0007C58125B7CE4F5437FA47EE1FD7C581210
:1002B0005B7C8E338F34E532602BE5334480F5432D
:1002C000853444754500754604E4F5477FA47EE116
:1002D000FD7C581257C87B047A007D047C807F0324
:1002E0001242D1807DE533547FF543853444754512
:1002F00000754604E4F5477FA47EE1FD7C58125763
:10030000C87B047A007D047C807F031242D1E4F52F
:10031000437FC07EF4FD7C58125B7C8E338F348526
:100320003343E53454FEF544754500754604E4F561
:10033000477FC07EF4FD7C581257C8E4F5437FA484
:100340007ED0FD7C58125B7CE4F5437F807EF6FD19
:100350007C58125B7CE4F5437FC07EF4FD7C581230
:100360005B7CE4F5437F987E21FD7C58125B7C8E9C
:10037000338F34E5326006E53344808004E533543E
:100380007FF543853444754500754604E4F5477FA1
:10039000987E21FD7C581257C87B047A007D047C2E
:1003A00080E4FF1242D1E4F5437F807E10FD7C584B
:1003B000125B7C8E338F34E5326009853343E5343C
:1003C00044028007853343E53454FDF54475450008
:1003D000754604E4F5477F807E10FD7C581257C8AF
:1003E000E4F5437F807E10FD7C58125B7C8E338F5A
:1003F00034E5326009853343E534440180078533B1
:1004000043E53454FEF544754500754604E4F5476C
:100410007F807E10FD7C581257C8E4F5437F987E9C
:1004200061FD7C58125B7C8E338F34E5326006E5CB
:100430003344808004E533547FF543853444754567
:1004400000754604E4F5477F987E61FD7C5812579D
:10045000C87B047A007D047C807F011242D1E4F5E0
:10046000437F807E50FD7C58125B7C8E338F34E559
:10047000326009853343E53444028007853343E520
:100480003454FDF544754500754604E4F5477F8016
:100490007E50FD7C581257C8E4F5437F807E50FDA6
:1004A0007C58125B7C8E338F34E532600985334390
:1004B000E53444018007853343E53454FEF5447543
:1004C0004500754604E4F5477F807E50FD7C581258
:1004D00057C8E4F5437F987EA1FD7C58125B7C8E63
:1004E000338F34E5326006E53344808004E53354CD
:1004F0007FF543853444754500754604E4F5477F30
:10050000987EA1FD7C581257C87B047A007D047C3C
:10051000807F021242D1E4F5437F807E90FD7C58BB
:10052000125B7C8E338F34E5326009853343E534CA
:1005300044028007853343E53454FDF54475450096
:10054000754604E4F5477F807E90FD7C581257C8BD
:10055000E4F5437F807E50FD7C58125B7C8E338FA8
:1005600034E5326009853343E5344401800785333F
:1005700043E53454FEF544754500754604E4F547FB
:100580007F807E90FD7C581257C8E4F5437F987EAB
:10059000E1FD7C58125B7C8E338F34E5326006E5DA
:1005A0003344808004E533547FF5438534447545F6
:1005B00000754604E4F5477F987EE1FD7C581257AC
:1005C000C87B047A007D047C807F031242D1E4F56D
:1005D000437F807ED0FD7C58125B7C8E338F34E568
:1005E000326009853343E53444028007853343E5AF
:1005F0003454FDF544754500754604E4F5477F80A5
:100600007ED0FD7C581257C8E4F5437F807E50FDB4
:100610007C58125B7C8E338F34E53260098533431E
:10062000E53444018007853343E53454FEF54475D1
:100630004500754604E4F5477F807ED0FD7C581266
:1006400057C822EC4D6011E8497017ED33EC3304C4
:10065000600DE4FCFFFEFD22E933E8330470F8028C
:1006600007F31207BE58046009E4CC248150062821
:1006700050090207FD2840030207FAC0E0EB4A7068
:1006800044B98006D0E0FB0207E9EF4E701CBD8044
:1006900008EBFFEAFEE9FD80EBE98DF0A4FEE5F052
:1006A00002072CE9CDF9EAFEEBFFEF89F0A4FCE5A7
:1006B000F0CE89F0A42EFFE435F0CD89F0A42DFE14
:1006C000E435F08067EF4E7005BD80D780C3EF8BB7
:1006D000F0A4ACF0EE8BF0A42CFCE435F0F8EF8A3B
:1006E000F0A42CE5F038FCE433CB8DF0A42CFCE531
:1006F000F03BF8EE8AF0A42CFCE5F038F8E433CFB8
:1007000089F0A42CFCE5F038CF3400CE89F0A42F7A
:10071000FFE5F03EFEE433C98DF0A42EFEE5F0398E
:10072000CD8AF0A42FFFE5F03EFEE43DFD33D0E09E
:10073000FB50070BBB000F0207FDEC2CFCEF33FF57
:10074000EE33FEED33FD0207D575F020800E75F017
:1007500010800575F0087D007E007F003392D53053
:10076000D5031209C0EC334010EF33FFEE33FEED3A
:1007700033FDEC33FCD5F0ED22E5F0247EA2D51359
:10078000CC92E7CDCEFF22EDD2E7CD33EC3392D53C
:1007900024814006E4FFFEFDFC22FCE4CFCECDCC5C
:1007A00024E0501174FF80EDC3CC13CCCD13CDCE1B
:1007B00013CECF13CF0470F030D5DE0209C0E9D2DA
:1007C000E7C933E833F892D5EDD2E7CD33EC33FC0B
:1007D0005002B2D522EC30E7100FBF000C0EBE0065
:1007E000080DBD00040BEB6014A2D5EB13FCED92D9
:1007F000E7FD2274FFFCFDFEFF22E480F8A2D57421
:10080000FF13FC7D80E480EFE709F608DFFA8046FD
:10081000E709F208DFFA803E88828C83E709F0A3BB
:10082000DFFA8032E309F608DFFA8078E309F2089C
:10083000DFFA807088828C83E309F0A3DFFA80649A
:1008400089828A83E0A3F608DFFA805889828A8346
:10085000E0A3F208DFFA804C80D280FA80C680D410
:10086000806980F28033801080A680EA809A80A818
:1008700080DA80E280CA803389828A83ECFAE4934A
:10088000A3C8C582C8CCC583CCF0A3C8C582C8CCD8
:10089000C583CCDFE9DEE7800D89828A83E493A3F8
:1008A000F608DFF9ECFAA9F0EDFB2289828A83ECE5
:1008B000FAE0A3C8C582C8CCC583CCF0A3C8C58262
:1008C000C8CCC583CCDFEADEE880DB89828A83E49A
:1008D00093A3F208DFF980CC88F0EF60010E4E6040
:1008E000C388F0ED2402B4040050B9F582EB240271
:1008F000B4040050AF232345822390085873BB01F2
:100900000689828A83E0225002E722BBFE02E322AC
:1009100089828A83E49322BB010689828A83F0223A
:100920005002F722BBFE01F322EF8DF0A4A8F0CF16
:100930008CF0A428CE8DF0A42EFE22C2D5EC30E798
:1009400009B2D5E4C39DFDE49CFCEE30E715B2D5B9
:10095000E4C39FFFE49EFE120A71C3E49DFDE49C84
:10096000FC8003120A7130D507C3E49FFFE49EFEAA
:1009700022E88FF0A4CC8BF0A42CFCE98EF0A42C00
:10098000FC8AF0EDA42CFCEA8EF0A4CDA8F08BF04C
:10099000A42DCC3825F0FDE98FF0A42CCD35F0FC4A
:1009A000EB8EF0A4FEA9F0EB8FF0A4CFC5F02ECD16
:1009B00039FEE43CFCEAA42DCE35F0FDE43CFC22FB
:1009C000C3E49FFFE49EFEE49DFDE49CFC22E860FE
:1009D00010ECA2E713FCED13FDEE13FEEF13FFD8AE
:1009E000F022ECF0A3EDF0A3EEF0A3EFF022A8824A
:1009F0008583F0D083D082120A05120A05120A05F7
:100A0000120A05E473E493A3C583C5F0C583C8C582
:100A100082C8F0A3C583C5F0C583C8C582C822D0EB
:100A200083D082F8E4937012740193700DA3A393A2
:100A3000F8740193F5828883E4737402936860EF1D
:100A4000A3A3A380DFEF4E6012EF60010EEDBB01A8
:100A50000B89828A83F0A3DFFCDEFA2289F050073B
:100A6000F709DFFCA9F022BBFEFCF309DFFCA9F0CB
:100A700022BC000BBE0029EF8DF084FFADF022E414
:100A8000CCF875F008EF2FFFEE33FEEC33FCEE9D53
:100A9000EC984005FCEE9DFE0FD5F0E9E4CEFD227A
:100AA000EDF8F5F0EE8420D21CFEADF075F008EF05
:100AB0002FFFED33FD4007985006D5F0F222C39882
:100AC000FD0FD5F0EA2275F008758200EF2FFFEEDA
:100AD00033FECD33CDCC33CCC58233C5829BED9A6A
:100AE000EC99E58298400CF582EE9BFEED9AFDECC8
:100AF00099FC0FD5F0D6E4CEFBE4CDFAE4CCF9A80E
:100B00008222B800C1B90059BA002DEC8BF084CF15
:100B1000CECDFCE5F0CBF97818EF2FFFEE33FEEDEC
:100B200033FDEC33FCEB33FB10D703994004EB9916
:100B3000FB0FD8E5E4F9FA227818EF2FFFEE33FE29
:100B4000ED33FDEC33FCC933C910D7059BE99A405E
:100B500007EC9BFCE99AF90FD8E0E4C9FAE4CCFB76
:100B60002275F010EF2FFFEE33FEED33FDCC33CCCA
:100B7000C833C810D7079BEC9AE899400AED9BFD53
:100B8000EC9AFCE899F80FD5F0DAE4CDFBE4CCFA66
:100B9000E4C8F92241087C0041087B004108740048
:100BA000410876004108790041087E00410885002F
:100BB0004108780041087A00410884004108860015
:100BC000410875004108770041087D004108810017
:100BD000420882000042087F00004108610041088D
:100BE0005D0141085E0141085F0141086001410863
:100BF000620041086300011100010D0002090000BC
:100C0000010B00010F00010E000108000113FF019C
:100C10000C000112000110004108910041088700FA
:100C20004108881041088B1041088D1041088F1031
:100C3000410890104108891041088C1041088E101D
:100C400041088A00011A004106DDA04905CB534C3A
:100C500042463634513332608105DB00000000002B
:100C60000000000000000000000000000000000084
:100C70000000000000000000000000000000000074
:100C80000000000000000000000000000000000064
:100C90000000000000000000000000000000000054
:100CA0000000000000000000000000000000000044
:100CB0000000000000000000000000000000000034
:100CC0000000000000000000000000000000000024
:100CD0000000000000000000000000004105D900F5
:100CE0004105C7004105D8004105C8004105D600AF
:100CF0004105C9004105D4004105D50061000186C8
:100D000000000000000000000000000000000000E3
:100D100000000000000000000000000000000000D3
:100D200000000000000000000000000000000000C3
:100D300000000000000000000000000000000000B3
:100D400000000000000000000000000000000000A3
:100D50000000000000000000000000000000000093
:100D60000000000000000000000000000000000083
:100D70000000000000000000000000000000000073
:100D80000000000000000000000000000000000063
:100D90000000000000000000000000000000000053
:100DA0000000000000000000000000000000000043
:100DB0000000000000000000000000000000000033
:100DC0000000000000000000000000000000000023
:100DD0000000000000000000000000000000000013
:100DE0000000000000000000000000000000000003
:100DF00000000000000000000000000000000000F3
:100E00006080008200000000000000000000000080
:100E100000000000000000000000000000000000D2
:100E200000000000000000000000000000000000C2
:100E300000000000000000000000000000000000B2
:100E400000000000000000000000000000000000A2
:100E50000000000000000000000000000000000092
:100E60000000000000000000000000000000000082
:100E70000000000000000000000000000000000072
:100E800000000000608002970000000000000000E9
:100E90000000000000000000000000000000000052
:100EA0000000000000000000000000000000000042
:100EB0000000000000000000000000000000000032
:100EC0000000000000000000000000000000000022
:100ED0000000000000000000000000000000000012
:100EE0000000000000000000000000000000000002
:100EF00000000000000000000000000000000000F2
:100F000000000000000000006080031900000000E5
:100F100000000000000000000000000000000000D1
:100F200000000000000000000000000000000000C1
:100F300000000000000000000000000000000000B1
:100F400000000000000000000000000000000000A1
:100F50000000000000000000000000000000000091
:100F60000000000000000000000000000000000081
:100F70000000000000000000000000000000000071
:100F8000000000000000000000000000608000027F
:100F90000000000000000000000000000000000051
:100FA0000000000000000000000000000000000041
:100FB0000000000000000000000000000000000031
:100FC0000000000000000000000000000000000021
:100FD0000000000000000000000000000000000011
:100FE0000000000000000000000000000000000001
:100FF00000000000000000000000000000000000F1
:1010000000000000000000000000000000000000E0
:1010100060800104000000000000000000000000EB
:1010200000000000000000000000000000000000C0
:1010300000000000000000000000000000000000B0
:1010400000000000000000000000000000000000A0
:101050000000000000000000000000000000000090
:101060000000000000000000000000000000000080
:101070000000000000000000000000000000000070
:101080000000000000000000000000000000000060
:1010900000000000420317000041029602410103D4
:1010A0000541018505410102004101840041000024
:1010B00003410001034106DC0100EF14700302123A
:1010C0001414700302135414700302149424036064
:1010D000030215DA7F20127438900760E0FB755424
:1010E00005E4FD7F20126DFE900772E0FB7554054C
:1010F0007D017F20126DFE900761E0FB7554057D38
:10110000027F20126DFE900762E0FB7554057D039F
:101110007F20126DFE900763E0FB7554057D047F10
:1011200020126DFE900764E0FB7554057D057F205D
:10113000126DFE900765E0FB7554057D0A7F201255
:101140006DFE900773E0FB7554057D0C7F20126DDA
:10115000FE900766E0FB7554057D0D7F20126DFE45
:10116000900767E0FB7554057D197F20126DFE9096
:101170000768E0FB7554057D1A7F20126DFE90070D
:101180006BE0FB7554057DC27F20126DFE90076EEB
:10119000E0FB7554057DE27F20126DFE900771E043
:1011A000FB7554057DD27F20126DFE90076BE02009
:1011B000E01E900769E0FB7554057DC07F20126D2D
:1011C000FE90076AE0FB7554057DC17F20126DFE1D
:1011D00090076EE020E01E90076CE0FB7554057DE3
:1011E000E07F20126DFE90076DE0FB7554057DE1F8
:1011F0007F20126DFE900771E030E0030215DA9057
:10120000076FE0FB7554057DD07F20126DFE9007BF
:10121000700215CE7F21127438900776E0FB75546A
:1012200005E4FD7F20126DFE900788E0FB755405F4
:101230007D017F20126DFE900777E0FB7554057DE0
:10124000027F20126DFE900778E0FB7554057D0348
:101250007F20126DFE900779E0FB7554057D047FB9
:1012600020126DFE90077AE0FB7554057D057F2006
:10127000126DFE90077BE0FB7554057D0A7F2012FE
:101280006DFE900789E0FB7554057D0C7F20126D83
:10129000FE90077CE0FB7554057D0D7F20126DFEEE
:1012A00090077DE0FB7554057D197F20126DFE903F
:1012B000077EE0FB7554057D1A7F20126DFE9007B6
:1012C00081E0FB7554057DC27F20126DFE9007847E
:1012D000E0FB7554057DE27F20126DFE900787E0EC
:1012E000FB7554057DD27F20126DFE900781E020B2
:1012F000E01E90077FE0FB7554057DC07F20126DD6
:10130000FE900780E0FB7554057DC17F20126DFEC5
:10131000900784E020E01E900782E0FB7554057D75
:10132000E07F20126DFE900783E0FB7554057DE1A0
:101330007F20126DFE900787E030E0030215DA90FF
:101340000785E0FB7554057DD07F20126DFE900768
:10135000860215CE7F2212743890078CE0FB7554FC
:1013600005E4FD7F20126DFE90079EE0FB7554059D
:101370007D017F20126DFE90078DE0FB7554057D89
:10138000027F20126DFE90078EE0FB7554057D03F1
:101390007F20126DFE90078FE0FB7554057D047F62
:1013A00020126DFE900790E0FB7554057D057F20AF
:1013B000126DFE900791E0FB7554057D0A7F2012A7
:1013C0006DFE90079FE0FB7554057D0C7F20126D2C
:1013D000FE900792E0FB7554057D0D7F20126DFE97
:1013E000900793E0FB7554057D197F20126DFE90E8
:1013F0000794E0FB7554057D1A7F20126DFE90075F
:1014000097E0FB7554057DC27F20126DFE90079A10
:10141000E0FB7554057DE27F20126DFE90079DE094
:10142000FB7554057DD27F20126DFE900797E0205A
:10143000E01E900795E0FB7554057DC07F20126D7E
:10144000FE900796E0FB7554057DC17F20126DFE6E
:1014500090079AE020E01E900798E0FB7554057D08
:10146000E07F20126DFE900799E0FB7554057DE149
:101470007F20126DFE90079DE030E0030215DA90A8
:10148000079BE0FB7554057DD07F20126DFE900711
:101490009C0215CE7F231274389007A2E0FB75548E
:1014A00005E4FD7F20126DFE9007B4E0FB75540546
:1014B0007D017F20126DFE9007A3E0FB7554057D32
:1014C000027F20126DFE9007A4E0FB7554057D039A
:1014D0007F20126DFE9007A5E0FB7554057D047F0B
:1014E00020126DFE9007A6E0FB7554057D057F2058
:1014F000126DFE9007A7E0FB7554057D0A7F201250
:101500006DFE9007B5E0FB7554057D0C7F20126DD4
:10151000FE9007A8E0FB7554057D0D7F20126DFE3F
:101520009007A9E0FB7554057D197F20126DFE9090
:1015300007AAE0FB7554057D1A7F20126DFE900707
:10154000ADE0FB7554057DC27F20126DFE9007B0A3
:10155000E0FB7554057DE27F20126DFE9007B3E03D
:10156000FB7554057DD27F20126DFE9007ADE02003
:10157000E01E9007ABE0FB7554057DC07F20126D27
:10158000FE9007ACE0FB7554057DC17F20126DFE17
:101590009007B0E020E01E9007AEE0FB7554057D9B
:1015A000E07F20126DFE9007AFE0FB7554057DE1F2
:1015B0007F20126DFE9007B3E020E01E9007B1E09F
:1015C000FB7554057DD07F20126DFE9007B2E0FBC5
:1015D0007554057DD17F20126DFE22EF1470030239
:1015E000171314700302183114700302194F2403E7
:1015F0006003021A6C7F201274387B05E4FD7F20A3
:10160000126DBE900760EFF07B057D017F20126DAB
:10161000BE900772EFF07B057D027F20126DBE90B9
:101620000761EFF07B057D037F20126DBE9007629E
:10163000EFF07B057D047F20126DBE900763EFF015
:101640007B057D057F20126DBE900764EFF07B0562
:101650007D0A7F20126DBE900765EFF07B057D0C43
:101660007F20126DBE900773EFF07B057D0D7F200C
:10167000126DBE900766EFF07B057D197F20126D1D
:10168000BE900767EFF07B057D1A7F20126DBE903C
:101690000768EFF07B057DC07F20126DBE90076963
:1016A000EFF07B057DC17F20126DBE90076AEFF0E1
:1016B0007B057DC27F20126DBE90076BEFF07B052E
:1016C0007DE07F20126DBE90076CEFF07B057DE121
:1016D0007F20126DBE90076DEFF07B057DE27F20CD
:1016E000126DBE90076EEFF07B057DD07F20126DEE
:1016F000BE90076FEFF07B057DD17F20126DBE900D
:101700000770EFF07B057DD27F20126DBE900771D0
:10171000EFF0227F211274387B05E4FD7F20126DEB
:10172000BE900776EFF07B057D017F20126DBE90A5
:101730000788EFF07B057D027F20126DBE90077752
:10174000EFF07B057D037F20126DBE900778EFF0F0
:101750007B057D047F20126DBE900779EFF07B053D
:101760007D057F20126DBE90077AEFF07B057D0A24
:101770007F20126DBE90077BEFF07B057D0C7F20F4
:10178000126DBE900789EFF07B057D0D7F20126DF5
:10179000BE90077CEFF07B057D197F20126DBE9017
:1017A000077DEFF07B057D1A7F20126DBE90077ECE
:1017B000EFF07B057DC07F20126DBE90077FEFF0BC
:1017C0007B057DC17F20126DBE900780EFF07B0509
:1017D0007DC27F20126DBE900781EFF07B057DE01A
:1017E0007F20126DBE900782EFF07B057DE17F20A8
:1017F000126DBE900783EFF07B057DE27F20126DB6
:10180000BE900784EFF07B057DD07F20126DBE90E7
:101810000785EFF07B057DD17F20126DBE90078696
:10182000EFF07B057DD27F20126DBE900787EFF031
:10183000227F221274387B05E4FD7F20126DBE905A
:10184000078CEFF07B057D017F20126DBE90079E17
:10185000EFF07B057D027F20126DBE90078DEFF0CB
:101860007B057D037F20126DBE90078EEFF07B0518
:101870007D047F20126DBE90078FEFF07B057D0504
:101880007F20126DBE900790EFF07B057D0A7F20D0
:10189000126DBE900791EFF07B057D0C7F20126DDD
:1018A000BE90079FEFF07B057D0D7F20126DBE90EF
:1018B0000792EFF07B057D197F20126DBE90079394
:1018C000EFF07B057D1A7F20126DBE900794EFF03C
:1018D0007B057DC07F20126DBE900795EFF07B05E4
:1018E0007DC17F20126DBE900796EFF07B057DC213
:1018F0007F20126DBE900797EFF07B057DE07F2083
:10190000126DBE900798EFF07B057DE17F20126D90
:10191000BE900799EFF07B057DE27F20126DBE90AF
:10192000079AEFF07B057DD07F20126DBE90079B5C
:10193000EFF07B057DD17F20126DBE90079CEFF00C
:101940007B057DD27F20126DBE90079DEFF0227F38
:10195000231274387B05E4FD7F20126DBE9007A230
:10196000EFF07B057D017F20126DBE9007B4EFF094
:101970007B057D027F20126DBE9007A3EFF07B05F3
:101980007D037F20126DBE9007A4EFF07B057D04E0
:101990007F20126DBE9007A5EFF07B057D057F20AF
:1019A000126DBE9007A6EFF07B057D0A7F20126DB9
:1019B000BE9007A7EFF07B057D0C7F20126DBE90D7
:1019C00007B5EFF07B057D0D7F20126DBE9007A857
:1019D000EFF07B057D197F20126DBE9007A9EFF017
:1019E0007B057D1A7F20126DBE9007AAEFF07B0564
:1019F0007DC07F20126DBE9007ABEFF07B057DC1EF
:101A00007F20126DBE9007ACEFF07B057DC27F207A
:101A1000126DBE9007ADEFF07B057DE07F20126D6B
:101A2000BE9007AEEFF07B057DE17F20126DBE908A
:101A300007AFEFF07B057DE27F20126DBE9007B00F
:101A4000EFF07B057DD07F20126DBE9007B1EFF0E7
:101A50007B057DD17F20126DBE9007B2EFF07B0534
:101A60007DD27F20126DBE9007B3EFF022C0E0C0A0
:101A7000F0C083C082C0D075D000C000C001C002D9
:101A8000C003C004C005C006C00775210075220050
:101A900030C203021E24E5C054F07003021BA324CD
:101AA000F07003021BC624D07003021D4824F0709E
:101AB00003021E1824306003021E1CC2C59005C715
:101AC000E5C2F0E0FF54FE64A06003021B9EEF201D
:101AD000E003021B999005D9E0FFC394805041EFC9
:101AE00094754011EF947F500C74862FF582E43486
:101AF00001F583E4F09005D9E0FF2486F582E43413
:101B000001F583E0F5C2EFB40806127106021B99D5
:101B10009005D9E064096003021B99126F62807915
:101B2000900205E0FFB4010D9005D9E02417F5827D
:101B3000E43402805FEFB4020D9005D9E02499F5FA
:101B400082E43402804E900205E0FFB4100D90054F
:101B5000D9E02482F582E434FF8039EFB4112A9071
:101B600005D9E0FF2402F582E43400F583E0F5C2F4
:101B7000EFC3948740239005D9E0FFD39498501980
:101B8000EF2480FF123B3B80109005D9E02486F5BE
:101B900082E43401F583E0F5C2D2C1021E2AC2C13B
:101BA000021E2A9005D8E024DBF582E43405F58393
:101BB000E5C2F09005DBE09005D9F09005D8E0048F
:101BC000F0D2C1021E2AC2C49005D8E0FFC394021D
:101BD0005003021D409005D67401F0EF149005DA11
:101BE000F09005D9E0647F6003021CB19005D8E055
:101BF00064026003021CB19005DCE0900205F07005
:101C0000157B017A027906F5347535807F807EC8B0
:101C1000126B5C021CA0900205E0B4011578067CF2
:101C2000027D017B017A0279977E007F801208D8BD
:101C3000806E900205E0B4021578067C027D017B7F
:101C4000017A0379197E007F801208D880529002B1
:101C500005E0B4101578067C027D017B017A0079DD
:101C6000027E007F801208D88036900205E0B41111
:101C70001578067C027D017B017A0079827E007FE7
:101C8000801208D8801A900205E0B4131B78067CF5
:101C9000027D017B017A0179047E007F801208D8E1
:101CA0009005CAE4F0021D409005CA7401F0021DBF
:101CB000409005D9E0FFC3947A400EEFD3947D5055
:101CC000089005CA7405F080779005DAE0FF90056A
:101CD000D9E0FD2FFFE433FED3EF9400EE6480944F
:101CE000814005EDF404A3F09005DAE0FF7E00905A
:101CF00005D9E02486F9E43401A801FC7D017B01CB
:101D00007A0579DC1208D8900205E0B4100C900531
:101D1000D47401F078027C008011900205E0B413C5
:101D2000199005D57401F078047C01FDFB7A0279E5
:101D3000067E007F801208D880069005CA7407F0DE
:101D40009005D8E4F0021E2A20C103021E2A900545
:101D5000D9E004F0E0FFC394805042EF9475401145
:101D6000EF947F500C74862FF582E43401F583E400
:101D7000F09005D9E0FF2486F582E43401F583E094
:101D8000F5C2EFB40806127106021E2A9005D9E0CA
:101D900064096003021E2A126F62021E2A90020565
:101DA000E0FFB4010D9005D9E02417F582E4340278
:101DB000805FEFB4020D9005D9E02499F582E434F8
:101DC00002804E900205E0FFB4100D9005D9E0248A
:101DD00082F582E434FF8039EFB4112A9005D9E00E
:101DE000FF2402F582E43400F583E0F5C2EFC394EA
:101DF0008740379005D9E0FFD39498502DEF248089
:101E0000FF123B3B80249005D9E02486F582E43420
:101E100001F583E0F5C28012C2C4800E53C17F4336
:101E2000C1808000C2C5C2C4C2C1C2C0D007D00632
:101E3000D005D004D003D002D001D000D0D0D082C1
:101E4000D083D0F0D0E03285A72E900205E0120AB0
:101E50001F1E82001EB4011EDA021F00101F0C1389
:101E60001F1B821FAF851FC6861FF087201A8A207E
:101E7000BD90212191210292213CB02158D0000037
:101E800021999005C8E0C3940150030221997B0178
:101E90007A0179867535007536807F007EC8126BB1
:101EA000147B017A0279067534007535807F807E57
:101EB000C8026CFA9005C8E0C3940150030221994E
:101EC0007B017A0279067535007536807F007ECAFF
:101ED000126B1478977C02021FBF9005C8E0C39470
:101EE0000150030221997B017A027906753500754C
:101EF00036807F007ECC126B1478197C03021FBFE2
:101F00009005D47401F078027C00800A9005D574A5
:101F100001F078047C01FDFB0221169005C8E0D396
:101F2000940150030221999005D9E094F84057900C
:101F30000285E06401600302219990027EE0900630
:101F4000D4F090027FE09006D5F0900284E0FF90FC
:101F500006DAF0BF01149006D4E0FD7B057F1C1269
:101F60006DBE9006D5EFF002208E9006DAE0600399
:101F700002208E9006D4E0FDA3E0FB7554057F1C83
:101F8000126DFE02208E7B017A027906753500758E
:101F900036807F007ED4126B14785C7C067D017BDA
:101FA000017A0279067E007F801208D80274C09000
:101FB00005C8E0D39401500302219978DE7C067DA8
:101FC000017B010221169005C8E0D3940150030261
:101FD00021997B017A0279067535007536807F007C
:101FE0007ED8126B1478C97C047D017B0102211616
:101FF0009005C8E0D3940150030221997B017A0235
:1020000079067535007536807F007EDA126B14789C
:10201000477C057D017B010221169005C8E0D39421
:102020000150030221999005D9E094F8406690028E
:1020300085E06401600302219990027EE09007D55B
:10204000F090027FE09007D6F0900284E0FF9007C6
:10205000DBF0BF011B900280E0FF1274389007D5BF
:10206000E0FD7B047F20126DBE9007D6EFF0801E4E
:102070009007DBE07018900280E0FF127438900740
:10208000D5E0FDA3E0FB7554047F20126DFEE490C3
:102090000285F0227B017A0279067535007536805B
:1020A0007F007ED6126B14785D7C077D017B017A00
:1020B0000279067E007F801208D802727C9005C8E3
:1020C000E0D394015003022199787E7C027D017B4C
:1020D000017A0479117E007F081208D87B017A0208
:1020E00079067535007536807F007ED0126B147BC3
:1020F000017A0379997534007535807F007ED002AE
:102100006B5C9005C8E0D3940150030221997819C3
:102110007C047D017B017A0279067E007F800208C3
:10212000D89005C8E0D39401406F7B017A0279060C
:102130007535007536807F007ED280199005C8E025
:10214000D3940140547B017A0279067535007536C7
:10215000807F007EF6026B149005C8E0D3940140A6
:10216000389005D9E0642470309005DCE06411708B
:1021700028A3E064227022A3E06433701CA3E0B4BF
:102180005517A3E0B46612A3E0B4550D780076A508
:10219000E4F5A775EF12852EA7228F32E4F533F50B
:1021A00034E5326401707EF5437F0C7E11FD7C586E
:1021B000125B7C8E338F34E53430E422900505E0E9
:1021C0007002A3E0600302241FF5437F987E21FD87
:1021D0007C58125B7C8E358F365336FE80219005FD
:1021E00005E07002A3E0700302241FE4F5437F982A
:1021F0007E21FD7C58125B7C8E358F3643360185FF
:102200003543853644754500754604E4F5477F98A7
:102210007E21FD7C581257C87B047A007D047C80A7
:10222000E4FF02241CE532640260030222D0F5437D
:102230007F0C7E51FD7C58125B7C8E338F34E534ED
:1022400030E446900507E07002A3E0600302241F1B
:10225000F5437F987E61FD7C58125B7C8E358F360E
:10226000433601853543853644754500754604E49B
:10227000F5477F987E61FD7C581257C87B047A0031
:102280007D047C807F0102241C900507E07002A37E
:10229000E0700302241FE4F5437F987E61FD7C58C3
:1022A000125B7C8E358F365336FE8535438536443A
:1022B000754500754604E4F5477F987E61FD7C58BE
:1022C0001257C87B047A007D047C807F0102241CA5
:1022D000E5326403600302237BF5437F0C7E91FDAE
:1022E0007C58125B7C8E338F34E53430E4469005A5
:1022F00009E07002A3E0600302241FF5437F987E8B
:10230000A1FD7C58125B7C8E358F365336FE8535A9
:1023100043853644754500754604E4F5477F987E4D
:10232000A1FD7C581257C87B047A007D047C807F15
:102330000202241C900509E07002A3E0700302244D
:102340001FE4F5437F987EA1FD7C58125B7C8E359F
:102350008F364336018535438536447545007546CD
:1023600004E4F5477F987EA1FD7C581257C87B0492
:102370007A007D047C807F0202241CE532640460C4
:102380000302241FF5437F0C7ED1FD7C58125B7C39
:102390008E338F34E53430E44290050BE07002A3B5
:1023A000E0707CF5437F987EE1FD7C58125B7C8E6B
:1023B000358F36433601853543853644754500757E
:1023C0004604E4F5477F987EE1FD7C581257C87BB0
:1023D000047A007D047C807F03804190050BE070CF
:1023E00002A3E0603AE4F5437F987EE1FD7C581259
:1023F0005B7C8E358F365336FE8535438536447586
:102400004500754604E4F5477F987EE1FD7C58124F
:1024100057C87B047A007D047C807F031242D1225E
:102420007B05E4FD7F1C126DBE90065CEFF07B0522
:102430007D017F1C126DBE90065DEFF07B057D1760
:102440007F1C126DBE90065EEFF07B057D187F1C31
:10245000126DBE90065FEFF07B057D1A7F1C126D3A
:10246000BE900660EFF07B057D037F1C126DBE9071
:102470000668EFF07B057D057F1C126DBE90066A35
:10248000EFF07B057D107F1C126DBE90066BEFF0A8
:102490007B057D167F1C126DBE90066CEFF07B05F0
:1024A0007D197F1C126DBE90066DEFF07B057D1BC4
:1024B0007F1C126DBE90066EEFF07B057D1C7F1CAD
:1024C000126DBE90066FEFF07B057D1D7F1C126DB7
:1024D000BE900670EFF07B057D217F1C126DBE90D3
:1024E0000672EFF07B057D227F1C126DBE90067395
:1024F000EFF07B057D257F1C126DBE900674EFF01A
:102500007B057D267F1C126DBE900675EFF07B0566
:102510007D277F1C126DBE900676EFF07B057D282F
:102520007F1C126DBE900677EFF07B057D407F1C0F
:10253000126DBE900679EFF07B057D417F1C126D18
:10254000BE90067AEFF07B057D427F1C126DBE9037
:10255000067BEFF07B057D437F1C126DBE90067CF1
:10256000EFF07B057D447F1C126DBE90067DEFF081
:102570007B057D457F1C126DBE90067EEFF07B05CE
:102580007D467F1C126DBE90067FEFF07B057D4778
:102590007F1C126DBE900680EFF07B057D487F1C8E
:1025A000126DBE900681EFF07B057D497F1C126D98
:1025B000BE900682EFF07B057D4A7F1C126DBE90B7
:1025C0000683EFF07B057D4B7F1C126DBE90068469
:1025D000EFF07B057D4C7F1C126DBE900685EFF001
:1025E0007B057D4D7F1C126DBE900686EFF07B054E
:1025F0007D4F7F1C126DBE900687EFF07B057D50EE
:102600007F1C126DBE900688EFF07B057D517F1C0C
:10261000126DBE900689EFF07B057D527F1C126D16
:10262000BE90068AEFF07B057D5E7F1C126DBE902A
:10263000068CEFF07B057D5F7F1C126DBE90068DD2
:10264000EFF07B057D607F1C126DBE90068EEFF073
:102650007B057D627F1C126DBE90068FEFF07B05BF
:102660007D917F1C126DBE900691EFF07B057D92EF
:102670007F1C126DBE900692EFF022E4F52FF5302C
:10268000F531F532EF14700302272114700302278D
:10269000A4147003022827240360030228ACE4FF7B
:1026A000126513900864EEF0A3EFF08E31F53290CE
:1026B00003A0126CBA900864EEF0A3EFF09003B0A0
:1026C000E0FDA3E0FBA3E0F537A3E0F538AF32AEC1
:1026D00031126CC78E318F32900004E030E02AE472
:1026E0009000ACF0A3F090009CF0A3F090008EE07E
:1026F0004401F0900090E04401F0900092E0440129
:10270000F0900094E04401F022900864E0FCA3E023
:10271000FDEC9000ACF0A3EDF0E53190009C0228B8
:10272000A77F20126513900866EEF0A3EFF08E31BC
:10273000F5329003A4126CBA900866EEF0A3EFF0A5
:102740009003B4E0FDA3E0FBA3E0F537A3E0F53888
:10275000AF32AE31126CC78E318F32900004E03050
:10276000E12AE49000AEF0A3F090009EF0A3F09078
:10277000008EE04402F0900090E04402F09000925D
:10278000E04402F0900094E04402F022900866E0F9
:10279000FCA3E0FDEC9000AEF0A3EDF0E53190007D
:1027A0009E0228A77F40126513900868EEF0A3EF01
:1027B000F08E31F5329003A8126CBA900868EEF0F2
:1027C000A3EFF09003B8E0FDA3E0FBA3E0F537A38F
:1027D000E0F538AF32AE31126CC78E318F329000D7
:1027E00004E030E22AE49000B0F0A3F09000A0F002
:1027F000A3F090008EE04404F0900090E04404F0D8
:10280000900092E04404F0900094E04404F02290A0
:102810000868E0FCA3E0FDEC9000B0F0A3EDF0E56B
:10282000319000A00228A77F6012651390086AEE1D
:10283000F0A3EFF08E31F5329003AC126CBA900831
:102840006AEEF0A3EFF09003BCE0FDA3E0FBA3E091
:10285000F537A3E0F538AF32AE31126CC78E318F49
:1028600032900004E030E32AE49000B2F0A3F0904C
:1028700000A2F0A3F090008EE04408F0900090E0F9
:102880004408F0900092E04408F0900094E044087E
:10289000F02290086AE0FCA3E0FDEC9000B2F0A307
:1028A000EDF0E5319000A2F0A3E532F0228F32E5A1
:1028B000326401703B1257AC1257AC1257AC900502
:1028C0000FE0F543A3E0F544754500754604E4F5D3
:1028D000477F2C1257C390050FE0F543A3E0F54462
:1028E000754500754604E4F5477F2C7E18022AC41E
:1028F000E5326402600302298D900511E04480F501
:1029000043A3E0F544754500754604E4F5477F2888
:102910007E58FD7C581257C8900511E04480F5435D
:10292000A3E0F544754500754604E4F5477F287E2D
:1029300058FD7C581257C8900511E04480F543A318
:10294000E0F544754500754604E4F5477F287E5858
:10295000FD7C581257C8900513E0F543A3E0F544F9
:10296000754500754604E4F5477F2C7E58FD7C587C
:102970001257C8900513E0F543A3E0F544754500F0
:10298000754604E4F5477F2C7E58022AC4E532647C
:10299000036003022A2A900515E04480F543A3E072
:1029A000F544754500754604E4F5477F287E98FD9B
:1029B0007C581257C8900515E04480F543A3E0F514
:1029C00044754500754604E4F5477F287E98FD7CF4
:1029D000581257C8900515E04480F543A3E0F5442C
:1029E000754500754604E4F5477F287E98FD7C58C0
:1029F0001257C8900517E0F543A3E0F5447545006C
:102A0000754604E4F5477F2C7E98FD7C581257C824
:102A1000900517E0F543A3E0F544754500754604BD
:102A2000E4F5477F2C7E98022AC4E53264046003F3
:102A3000022ACA900519E04480F543A3E0F54475E5
:102A40004500754604E4F5477F287ED8FD7C581282
:102A500057C8900519E04480F543A3E0F544754557
:102A600000754604E4F5477F287ED8FD7C58125750
:102A7000C8900519E04480F543A3E0F5447545008E
:102A8000754604E4F5477F287ED8FD7C581257C868
:102A900090051BE0F543A3E0F54475450075460439
:102AA000E4F5477F2C7ED8FD7C581257C890051B53
:102AB000E0F543A3E0F544754500754604E4F547A9
:102AC0007F2C7ED8FD7C581257C822900668E0FB08
:102AD0007554057D037F1C126DFE90066AE0FB7540
:102AE00054057D057F1C126DFE90066BE0FB75544E
:102AF000057D107F1C126DFE90066CE0FB75540581
:102B00007D167F1C126DFE90066DE0FB7554057DF1
:102B1000197F1C126DFE90066EE0FB7554057D1B3F
:102B20007F1C126DFE90066FE0FB7554057D1C7FC7
:102B30001C126DFE900670E0FB7554057D1D7F1C18
:102B4000126DFE900672E0FB7554057D217F1C120C
:102B50006DFE900673E0FB7554057D227F1C126D9F
:102B6000FE900674E0FB7554057D257F1C126DFEFA
:102B7000900675E0FB7554057D267F1C126DFE9056
:102B80000676E0FB7554057D277F1C126DFE9006CE
:102B900077E0FB7554057D287F1C126DFE90067949
:102BA000E0FB7554057D407F1C126DFE9006DCE055
:102BB000700F90067AE0FB7554057D417F1C126D05
:102BC000FE900683E0FB7554057D4A7F1C126DFE66
:102BD000900684E0FB7554057D4B7F1C126DFE90C2
:102BE0000685E0FB7554057D4C7F1C126DFE90063A
:102BF00086E0FB7554057D4D7F1C126DFE900687A7
:102C0000E0FB7554057D4F7F1C126DFE900688E039
:102C1000FB7554057D507F1C126DFE900689E0FB0C
:102C20007554057D517F1C126DFE90068AE0FB7580
:102C300054057D527F1C126DFE90068CE0FB75548E
:102C4000057D5E7F1C126DFE90068DE0FB755405C0
:102C50007D5F7F1C126DFE90067BE0FB7554057D49
:102C6000427F1C126DFE90067CE0FB7554057D438F
:102C70007F1C126DFE90067DE0FB7554057D447F40
:102C80001C126DFE90067EE0FB7554057D457F1C91
:102C9000126DFE90067FE0FB7554057D467F1C1289
:102CA0006DFE900680E0FB7554057D477F1C126D1C
:102CB000FE900681E0FB7554057D487F1C126DFE79
:102CC000900682E0FB7554057D497F1C126DFEE481
:102CD0009006DCF0228D31EF24FE7003022D681483
:102CE0007003022DDE147003022E532403600302CE
:102CF0002ECBE4F5437FC47E447D037C50125B7C85
:102D00008E328F33E5316009853243E533440180EB
:102D100007853243E53354FEF54475450075460496
:102D2000E4F5477FC47E447D037C501257C8E4F528
:102D3000437F847E467D037C50125B7C8E328F33D2
:102D4000E5316009853243E533440280078532432B
:102D5000E53354FDF544754500754604E4F5477FB9
:102D6000847E467D03022EC6E4F5437FC47E447D07
:102D7000137C50125B7C8E328F33E53160098532D3
:102D800043E53344018007853243E53354FEF5447F
:102D9000754500754604E4F5477FC47E447D137C89
:102DA000501257C8E4F5437F847E467D137C501251
:102DB0005B7C8E328F33E5316009853243E53344E5
:102DC000028007853243E53354FDF54475450075AF
:102DD0004604E4F5477F847E467D13022EC6E4F563
:102DE000437FC47E447D237C50125B7C8E328F33C4
:102DF000E5316009853243E533440180078532437C
:102E0000E53354FEF544754500754604E4F5477F07
:102E1000C47E447D237C501257C8E4F5437F847EF2
:102E2000467D237C50125B7C8E328F33E531600906
:102E3000853243E53344028007853243E53354FD50
:102E4000F544754500754604E4F5477F847E467D6C
:102E5000238073E4F5437FC47E447D337C50125B52
:102E60007C8E328F33E5316009853243E53344018E
:102E70008007853243E53354FEF5447545007546B9
:102E800004E4F5477FC47E447D337C501257C8E488
:102E9000F5437F847E467D337C50125B7C8E328F7F
:102EA00033E5316009853243E533440280078532DA
:102EB00043E53354FDF544754500754604E4F54794
:102EC0007F847E467D337C501257C8228F32E4F5D2
:102ED00033F534F535F536E53264017065F5437F39
:102EE000CC7E35FD7C58125B7C8E338F34E53430DC
:102EF000E0169004FDE07002A3E07046125B738E52
:102F0000358F3643360180149004FDE07002A3E053
:102F10006030125B728E358F365336FE85354385B1
:102F20003644754500754604E4F5477FA47E21FDCF
:102F30007C581257C87B047A007D047C80E4FF1221
:102F400042D1E53264027078F5437FCC7E75FD7C1A
:102F500058125B7C8E338F34E53430E01F9004FFD1
:102F6000E07002A3E07059F5437FA47E61FD7C58B8
:102F7000125B7C8E358F365336FE801E9004FFE048
:102F80007002A3E0603AE4F5437FA47E61FD7C58C3
:102F9000125B7C8E358F364336018535438536444A
:102FA000754500754604E4F5477FA47E61FD7C58B5
:102FB0001257C87B047A007D047C807F011242D1C5
:102FC000E53264037078F5437FCC7EB5FD7C581202
:102FD0005B7C8E338F34E53430E01F900501E07068
:102FE00002A3E07059F5437FA47EA1FD7C58125BDB
:102FF0007C8E358F36433601801E900501E07002CD
:10300000A3E0603AE4F5437FA47EA1FD7C58125B07
:103010007C8E358F365336FE85354385364475456F
:1030200000754604E4F5477FA47EA1FD7C58125745
:10303000C87B047A007D047C807F021242D1E53295
:1030400064047078F5437FCC7EF5FD7C58125B7C80
:103050008E338F34E53430E01F900503E07002A317
:10306000E07059F5437FA47EE1FD7C58125B7C8EB5
:10307000358F365336FE801E900503E07002A3E0C4
:10308000603AE4F5437FA47EE1FD7C58125B7C8EC0
:10309000358F364336018535438536447545007591
:1030A0004604E4F5477FA47EE1FD7C581257C87BB7
:1030B000047A007D047C807F031242D1228F32E4A7
:1030C000F5437FC47E447D037C50125B7C8E338F3E
:1030D00034E5326009853343E534440180078533A4
:1030E00043E53454FEF544754500754604E4F54760
:1030F0007FC47E447D037C501257C8E4F5437FC4EF
:103100007E447D137C50125B7C8E338F34E53260BD
:1031100009853343E53444018007853343E534545E
:10312000FEF544754500754604E4F5477FC47E44CA
:103130007D137C501257C8E4F5437FC47E447D2341
:103140007C50125B7C8E338F34E5326009853343CB
:10315000E53444018007853343E53454FEF5447576
:103160004500754604E4F5477FC47E447D237C50CA
:103170001257C8E4F5437FC47E447D337C50125B14
:103180007C8E338F34E5326009853343E534440166
:103190008007853343E53454FEF544754500754694
:1031A00004E4F5477FC47E447D337C501257C8E465
:1031B000F5437F847E467D037C50125B7C8E338F8B
:1031C00034E5326009853343E534440280078533B2
:1031D00043E53454FDF544754500754604E4F54770
:1031E0007F847E467D037C501257C8E4F5437F847C
:1031F0007E467D137C50125B7C8E338F34E53260CB
:1032000009853343E53444028007853343E534546C
:10321000FDF544754500754604E4F5477F847E4618
:103220007D137C501257C8E4F5437F847E467D238E
:103230007C50125B7C8E338F34E5326009853343DA
:10324000E53444028007853343E53454FDF5447585
:103250004500754604E4F5477F847E467D237C5017
:103260001257C8E4F5437F847E467D337C50125B61
:103270007C8E338F34E5326009853343E534440274
:103280008007853343E53454FDF5447545007546A4
:1032900004E4F5477F847E467D337C501257C82274
:1032A000E4F545F9FDFC9000ACE0FEA3E0FBEEF593
:1032B0002FEBF530A3E0FEA3E0FBEEF531EBF532AA
:1032C000A3E0FEA3E0FBEEF533EBF534A3E0FEA3B1
:1032D000E0FBEEF535EBF536900351E0FEA3E0FBA5
:1032E000EEF53FEBF540A3E0FEA3E0FBEEF541EB8E
:1032F000F542A3E0FEA3E0FBEEF543EBF544A3E0CB
:10330000FEA3E0FBEBFFE4FBEB25E0242FF8E6F562
:103310008308E6D39540E583953F400D7401A803EB
:10332000088002C333D8FC4201EB25E0242FF8E6E5
:10333000F58308E6C39542E5839541500D7401A8D5
:1033400003088002C333D8FC4245EB25E0242FF864
:10335000E6F58308E6D39544E5839543400D740173
:10336000A803088002C333D8FC4204EB25E0242FD5
:10337000F8E6F58308E6C39FE5839E500D7401A827
:1033800003088002C333D8FC42050BEB64046003DE
:10339000023308900091E0FFD394004005E97002E9
:1033A000A907900092E0FFD394004006E545700223
:1033B0008F45900093E0FFD394004005EC7002AC81
:1033C00007900094E0FFD394004005ED7002AD0734
:1033D000900878E9F090087AE545F0900884ECF0E0
:1033E000900886EDF0900091E9F0A3E545F0A3EC9C
:1033F000F0A3EDF0900060E0F4FF900878E05F60EB
:1034000013C282900189E054FEF0900882E04401EA
:10341000F0A3E0F0900061E0F4FF90087AE05F60D4
:1034200013C282900189E054FEF0900882E04402C9
:10343000F0A3E0F0900062E0F4FF900884E05F60A9
:1034400013C282900189E054FEF0900882E04404A7
:10345000F0A3E0F0900063E0F4FF900886E05F6086
:1034600013C282900189E054FEF0900882E0440883
:10347000F0A3E0F022E4F545F9FDFC90009CE0FEAD
:10348000A3E0FBEEF52FEBF530A3E0FEA3E0FBEEAF
:10349000F531EBF532A3E0FEA3E0FBEEF533EBF5FF
:1034A00034A3E0FEA3E0FBEEF535EBF536900349DF
:1034B000E0FEA3E0FBEEF53FEBF540A3E0FEA3E06A
:1034C000FBEEF541EBF542A3E0FEA3E0FBEEF54396
:1034D000EBF544A3E0FEA3E0FBEBFFE4FBEB25E010
:1034E000242FF8E6F58308E6D39540E583953F4021
:1034F0000D7401A803088002C333D8FC4201EB25F8
:10350000E0242FF8E6F58308E6C39542E58395416C
:10351000500D7401A803088002C333D8FC4245EB68
:1035200025E0242FF8E6F58308E6D39544E5839556
:1035300043400D7401A803088002C333D8FC420441
:10354000EB25E0242FF8E6F58308E6C39FE5839E8C
:10355000500D7401A803088002C333D8FC42050B48
:10356000EB640460030234DD90008DE0FFD394002F
:103570004005E97002A90790008EE0FFD394004057
:1035800006E54570028F4590008FE0FFD394004020
:1035900005EC7002AC07900090E0FFD3940040056A
:1035A000ED7002AD07900876E9F0900879E545F0F6
:1035B00090087EECF0900885EDF090008DE9F0A386
:1035C000E545F0A3ECF0A3EDF090005CE0F4FF9093
:1035D0000876E05F6010C282900189E054FEF090AE
:1035E0000883E04410F090005DE0F4FF900879E07B
:1035F0005F6010C282900189E054FEF0900883E081
:103600004420F090005EE0F4FF90087EE05F6010E0
:10361000C282900189E054FEF0900883E04440F0BB
:1036200090005FE0F4FF900885E05F6010C2829038
:103630000189E054FEF0900883E04480F022E4F534
:1036400045F9FDFC9000BCE0FEA3E0FBEEF52FEB9E
:10365000F530A3E0FEA3E0FBEEF531EBF532A3E09D
:10366000FEA3E0FBEEF533EBF534A3E0FEA3E0FBB5
:10367000EEF535EBF536900359E0FEA3E0FBEEF5F1
:103680003FEBF540A3E0FEA3E0FBEEF541EBF54296
:10369000A3E0FEA3E0FBEEF543EBF544A3E0FEA3BD
:1036A000E0FBEBFFE4FBEB25E0242FF8E6F58308D5
:1036B000E6D39540E583953F400D7401A80308804B
:1036C00002C333D8FC4245EB25E0242FF8E6F5830E
:1036D00008E6C39542E5839541500D7401A803089F
:1036E0008002C333D8FC4201EB25E0242FF8E6F535
:1036F0008308E6D39544E5839543400D7401A80300
:10370000088002C333D8FC4205EB25E0242FF8E6FD
:10371000F58308E6C39FE5839E500D7401A8030856
:103720008002C333D8FC42040BEB6404600302360E
:10373000A6900097E0FFD394004006E54570028F05
:1037400045900098E0FFD394004005E97002A90776
:10375000900099E0FFD394004005ED7002AD079012
:10376000009AE0FFD394004005EC7002AC0790088B
:1037700075E545F0900877E9F090087DEDF0900848
:1037800081ECF0900097E545F0A3E9F0A3EDF0A3FC
:10379000ECF0900066E0F455456010C2829001891B
:1037A000E054FEF0900880E04404F0900067E0F4FC
:1037B000FF900877E05F6010C282900189E054FEBC
:1037C000F0900880E04408F0900068E0F4FF900872
:1037D0007DE05F6010C282900189E054FEF09008A5
:1037E00080E04410F0900069E0F4FF900881E05F11
:1037F0006010C282900189E054FEF0900880E0449D
:1038000020F0228F33E53364017061F5437FCC7E75
:10381000447D037C50125B7C8E348F3590056FE0C5
:103820004408F543A3E0F544754500754604E4F506
:10383000477FCC7E447D037C501257C8E4F5437F1C
:10384000CC7E447D037C50125B7C8E348F3590059A
:103850006FE054F7F543A3E0F54475450075460461
:10386000E4F5477FCC7E447D0302399DE533640255
:103870007061F5437FCC7E447D137C50125B7C8E5F
:10388000348F35900571E04408F543A3E0F54475A5
:103890004500754604E4F5477FCC7E447D137C509B
:1038A0001257C8E4F5437FCC7E447D137C50125BF5
:1038B0007C8E348F35900571E054F7F543A3E0F525
:1038C00044754500754604E4F5477FCC7E447D137E
:1038D00002399DE53364037060F5437FCC7E447DFF
:1038E000237C50125B7C8E348F35900573E0440846
:1038F000F543A3E0F544754500754604E4F5477FBC
:10390000CC7E447D237C501257C8E4F5437FCC7EA7
:10391000447D237C50125B7C8E348F35900573E0A0
:1039200054F7F543A3E0F544754500754604E4F506
:10393000477FCC7E447D238064E53364047063F567
:10394000437FCC7E447D337C50125B7C8E348F353C
:10395000900575E04408F543A3E0F544754500750E
:103960004604E4F5477FCC7E447D337C501257C833
:10397000E4F5437FCC7E447D337C50125B7C8E34F7
:103980008F35900575E054F7F543A3E0F544754590
:1039900000754604E4F5477FCC7E447D337C5012AD
:1039A00057C822E4F52FF53075438075440CF54572
:1039B000754604F5477F887E21FD7C581257C8E480
:1039C000F5437F8C7E21FD7C58125B7C754300752E
:1039D000440C754500754604E4F5477F887E21FD5B
:1039E0007C581257C8E4F5437F8C7E21FD7C581229
:1039F0005B7CEF30E10543300180035330FEEF3054
:103A0000E405532FFE8003432F0175438075440C5A
:103A1000754500754604E4F5477F887E61FD7C5856
:103A20001257C8E4F5437F8C7E61FD7C58125B7CA5
:103A300075430075440C754500754604E4F5477FF1
:103A4000887E61FD7C581257C8E4F5437F8C7E6107
:103A5000FD7C58125B7CEF30E1054330028003535C
:103A600030FDEF30E405532FFD8003432F027543F3
:103A70008075440C754500754604E4F5477F887EE3
:103A8000A1FD7C581257C8E4F5437F8C7EA1FD7CD4
:103A900058125B7C75430075440C754500754604EF
:103AA000E4F5477F887EA1FD7C581257C8E4F543B2
:103AB0007F8C7EA1FD7C58125B7CEF30E1054330AA
:103AC0000480035330FBEF30E405532FFB800343A6
:103AD0002F0475438075440C754500754604E4F564
:103AE000477F887EE1FD7C581257C8E4F5437F8C00
:103AF0007EE1FD7C58125B7C75430075440C754576
:103B000000754604E4F5477F887EE1FD7C58125736
:103B1000C8E4F5437F8C7EE1FD7C58125B7CEF307E
:103B2000E10543300880035330F7EF30E405532FAD
:103B3000F78003432F08AE2FAF3022EF24F9B412E1
:103B4000004003023CB0903B5475F003A4C58325AC
:103B5000F0C58373023B8A023B92023B9D023BA865
:103B6000023BB0023BC7023BCF023BEA023BF20200
:103B70003C08023C10023C26023C2E023C3C023C2B
:103B80004A023C64023C7E023C98E4900089F002C8
:103B90003CB0E490008AF0900883023C44E490003A
:103BA0008BF0900883023C5EE490008CF0023CB005
:103BB00090008DE0FF900876E0F4FEEF5E90008DBF
:103BC000F0900883023C92E490008EF0023CB090AA
:103BD000008FE0FF90087EE0F4FEEF5E90008FF033
:103BE000900883E054BFF0023CB0E4900090F002F3
:103BF0003CB0900091E0FF900878E0F4FEEF5E901A
:103C00000091F0900882802EE4900092F0023CB087
:103C1000900093E0FF900884E0F4FEEF5E90009344
:103C2000F09008828038E4900094F0023CB0E49078
:103C30000095F0900880E054FEF08074E4900096C7
:103C4000F0900880E054FDF08066900097E0FF90CF
:103C50000875E0F4FEEF5E900097F0900880E05465
:103C6000FBF0804C900098E0FF900877E0F4FEEFC6
:103C70005E900098F0900880E054F7F08032900059
:103C800099E0FF90087DE0F4FEEF5E900099F090DF
:103C90000880E054EFF0801890009AE0FF900881CF
:103CA000E0F4FEEF5E90009AF0900880E054DFF0C0
:103CB000900882E07002A3E0701390087FE0700229
:103CC000A3E07009900189E04401F0D282228F3391
:103CD000E5336401705CF5437FCC7E34FD7C581283
:103CE0005B7C8E348F359004F5E04408F543A3E007
:103CF000F544754500754604E4F5477FCC7E34FDF8
:103D00007C581257C8E4F5437FCC7E34FD7C5812B2
:103D10005B7C8E348F359004F5E054F7F543A3E0D7
:103D2000F544754500754604E4F5477FCC7E3402C2
:103D30003E54E5336402705CF5437FCC7E74FD7CB9
:103D400058125B7C8E348F359004F7E04408F543BD
:103D5000A3E0F544754500754604E4F5477FCC7E45
:103D600074FD7C581257C8E4F5437FCC7E74FD7C0B
:103D700058125B7C8E348F359004F7E054F7F5438E
:103D8000A3E0F544754500754604E4F5477FCC7E15
:103D900074023E54E5336403705BF5437FCC7EB41C
:103DA000FD7C58125B7C8E348F359004F9E044081A
:103DB000F543A3E0F544754500754604E4F5477FF7
:103DC000CC7EB4FD7C581257C8E4F5437FCC7EB45A
:103DD000FD7C58125B7C8E348F359004F9E054F7EB
:103DE000F543A3E0F544754500754604E4F5477FC7
:103DF000CC7EB4805FE5336404705FF5437FCC7E96
:103E0000F4FD7C58125B7C8E348F359004FBE044CB
:103E100008F543A3E0F544754500754604E4F5470D
:103E20007FCC7EF4FD7C581257C8E4F5437FCC7EEE
:103E3000F4FD7C58125B7C8E348F359004FBE0548B
:103E4000F7F543A3E0F544754500754604E4F547EE
:103E50007FCC7EF4FD7C581257C82290001374105A
:103E6000F0A3F0A3F0A3F0A3F0A3F0A3F0A3F0E479
:103E7000A3F0900013E09000D0F0900014E09000C8
:103E8000D1F0900015E09000D2F0900016E0900084
:103E9000D3F0900017E09000D4F0900018E090006C
:103EA000D5F0900019E09000D6F090001AE0900054
:103EB000D7F090002274FFF09000DFF0900023F024
:103EC0009000E0F09000827411F0A3F0A3F0A3F052
:103ED000E4900002F0A3F0A3F090001EF0A3F0A382
:103EE000F0A3F09003FAE06401705D9003F2E090BB
:103EF0000024F09003F3E0900025F09003F4E090AC
:103F00000026F09003F5E0900027F09003F6E09093
:103F10000028F09003F7E0900029F09003F8E0907B
:103F2000002AF09003F9E090002BF09003EEE0906F
:103F3000002CF09003EFE090002DF09003F0E09063
:103F4000002EF09003F1802EE4900024F0A3F0A363
:103F5000F0A3F0A3F0A3F0A3F0A3F09003EAE090A5
:103F6000002CF09003EBE090002DF09003ECE0903B
:103F7000002EF09003EDE090002FF0900024E090F0
:103F80000103F0900025E0900185F0900024E0907E
:103F900000E1F0900025E09000E2F0900028E09031
:103FA0000102F0900029E0900184F0900028E09058
:103FB00000E5F0900029E09000E6F090002CE09001
:103FC0000000F090002DE0900001F090002CE090B7
:103FD00000E9F090002DE09000EAF02285A72EE5A0
:103FE0001124FE601824FE605124FE7003024099E3
:103FF000240660030240E9126E3C0240E9E50D64CC
:10400000017022900011E0B4FF081256B6E490004F
:1040100011F0900002E0F460030240E9751104C25F
:1040200082F5088005751104C2829001897404F03C
:1040300090018EE04401F00240E9C294E4F5A753F8
:10404000C17FC2C5C2C4C2C1C2C0E50EB41004E47F
:10405000FF8007E50EB420057F0112643D43C18057
:10406000852EA77F647E0012718F751106C2829023
:104070000189E511F090018EE04401F09000027496
:10408000FFF0E4900004F0FF12675890008274443F
:10409000F0A3F0A3F0A3F080509003E9E0B4010591
:1040A0001272AE8044D3E50A9440E509940640318B
:1040B000AF0B1261A7050BE50BC3940D401EE4F591
:1040C0000B1272F5900891E07012900887E004F0EE
:1040D000E0D3941440069008917401F0E4F509F5DA
:1040E0000A050AE50A70020509E511640660157FF4
:1040F0000D127228EF25E0FFEE33FE1273EA127004
:1041000093126949E51164066006E511640470467E
:104110009005D4E06401702A126116900004E0FF5B
:10412000650C6003126758E511B4060B9005D4E0E6
:10413000FF12670312634B900004E0F50CE4900556
:10414000D4F09005D5E0B4010D90013BE0FF126C76
:1041500075E49005D5F022EF1460671470030242F5
:104160001814700302426C240360030242C67F03EA
:1041700012714C9003C0126CB8AC06AD07D3ED942D
:1041800000EC94F04003E4FCFDD39003D1E09D905B
:1041900003D0E09C4005E490085DF0D39003D3E0A9
:1041A0009D9003D2E09C500690085D7401F0900849
:1041B0005DE0B401069000BC0242B8E49000BC028D
:1041C00042C27F0212714CAC069003C4126CBAACAE
:1041D00006AD07D3ED9400EC94F04003E4FCFDD36E
:1041E0009003D5E09D9003D4E09C4005E490085EE8
:1041F000F0D39003D7E09D9003D6E09C5006900842
:104200005E7401F090085EE0B401069000BE0242C8
:10421000B8E49000BE0242C27F0112714CAC06901D
:1042200003C8126CBAAC06AD07D3ED9400EC94F061
:104230004003E4FCFDD39003D9E09D9003D8E09CBB
:104240004005E490085FF0D39003DBE09D9003DA33
:10425000E09C500690085F7401F090085FE0B401A4
:10426000059000C08052E49000C08056E4FF1271B7
:104270004CAC069003CC126CBAAC06AD07D3ED94EF
:1042800000EC94F04003E4FCFDD39003DDE09D904E
:1042900003DCE09C4005E4900860F0D39003DFE08D
:1042A0009D9003DEE09C50069008607401F0900839
:1042B00060E0B401099000C2ECF0A3EDF022E490BC
:1042C00000C2F0A304F0227B047D047A007C807F8E
:1042D000018C378D388A398B3AEF14605C14700387
:1042E0000243821470030243CA240360030244168B
:1042F000853743853844754500754604E4F5477FA6
:10430000887E21FD7C581257C8E4F5437F8C7E21BE
:10431000FD7C58125B7C853943853A4475450075B0
:104320004604E4F5477F887E21FD7C581257C8E497
:10433000F5437F8C7E2102441085374385384475D0
:104340004500754604E4F5477F887E61FD7C581280
:1043500057C8E4F5437F8C7E61FD7C58125B7C85F9
:104360003943853A44754500754604E4F5477F882E
:104370007E61FD7C581257C8E4F5437F8C7E610254
:104380004410853743853844754500754604E4F587
:10439000477F887EA1FD7C581257C8E4F5437F8C87
:1043A0007EA1FD7C58125B7C853943853A44754576
:1043B00000754604E4F5477F887EA1FD7C581257BE
:1043C000C8E4F5437F8C7EA1804685374385384419
:1043D000754500754604E4F5477F887EE1FD7C580D
:1043E0001257C8E4F5437F8C7EE1FD7C58125B7C5C
:1043F000853943853A44754500754604E4F5477FA1
:10440000887EE1FD7C581257C8E4F5437F8C7EE13D
:10441000FD7C58125B7C22900205E0120A1F443D8D
:1044200082445B8544768644908744AA8A44C79038
:1044300045069144E8924521B00000455F9005C8CB
:10444000E0C39401500302455F126A8178067C0242
:104450007D017B017A06795C0244FD9005C8E0D3BA
:104460009401500302455F78067C027D017B017A4E
:104470000679DE0244FD9005C8E0C39401500302B2
:10448000455F78067C027D017B017A0479C9806DE5
:104490009005C8E0C39401500302455F78067C0292
:1044A0007D017B017A05794780539005C8E0C3946C
:1044B00001500302455F1272DE78067C027D017BAB
:1044C000017A07795D80369005C8E0D394014034C5
:1044D0009004137403F0A37418F078067C027D0135
:1044E0007B017A03799980159005C8E0D394014047
:1044F0001378067C027D017B017A0479197E007FA6
:10450000800208D8804A9005C8E0D3940140507BCF
:10451000017A0279067534007535807F007ED2807D
:104520002C9005C8E0D39401402678067C027D01DA
:104530007B017A0579CB7E007F091208D87B017A4E
:1045400002790F7534007535777F097EF6026B5C52
:104550007E007F807DFF7B017A027906120A452268
:10456000E4FD900194E0FEA3E0FBEEF52FEBF530C7
:10457000900319E0FEA3E0FBEEF531EBF532A3E08A
:10458000FEA3E0FBEEF533EBF534A3E0FEA3E0FB86
:10459000EEF535EBF536A3E0FEA3E0FBEEF537EBE9
:1045A000F538900196E0FEA3E0FBEEF539EBF53A25
:1045B000900321E0FEA3E0FBEEF53BEBF53CA3E02E
:1045C000FEA3E0FBEEF53DEBF53EA3E0FEA3E0FB32
:1045D000EEF53FEBF540A3E0FEA3E0FBEBFF90011F
:1045E000A6E0FCC3E5309538E5376480F8E52F6434
:1045F000809850027D08D3E5309536E5356480F823
:10460000E52F6480984003430504C3E5309534E505
:10461000336480F8E52F6480985003430502D3E5A6
:10462000309532E5316480F8E52F6480984003438B
:104630000501C3E53A9FE5399E5003430580D3E564
:104640003A9540E539953F4003430540C3E53A9527
:104650003EE539953D5003430520D3E53A953CE5C9
:1046600039953B400343051090018FE0FFD3940040
:104670004005ED7002AD07900874EDF090018FF0E9
:10468000ECF45D6010C282900189E054FEF0900865
:1046900080E04440F0227F1F1274389007B8E0FB9E
:1046A0007554057DF87F20126DFE9007B9E0FB750B
:1046B00054057DF07F20126DFE9007BAE0FB755423
:1046C000057D3A7F20126DFE9007BBE0FB75540517
:1046D0007D3B7F20126DFE9007BCE0FB7554057D8D
:1046E000F17F20126DFE9007BDE0FB7554057D4201
:1046F0007F20126DFE9007BEE0FB7554057D437F61
:1047000020126DFE9007BFE0FB7554057DF47F20FD
:10471000126DFE9007C1E0FB7554057D577F201296
:104720006DFE9007C0E0FB7554057D567F20126D2D
:10473000FE9007CBE0FB7554057D177F20126DFEC0
:104740009007C2E0FB7554057DC57F20126DFE9079
:1047500007C3E0FB7554057DC67F20126DFE9007F0
:10476000C4E0FB7554057DC77F20126DFE9007C520
:10477000E0FB7554057DD57F20126DFE9007C6E0E5
:10478000FB7554057DD67F20126DFE9007C7E0FBB8
:104790007554057DD77F20126DFE9007C8E0FB752C
:1047A00054057DE57F20126DFE9007C9E0FB75542E
:1047B000057DE67F20126DFE9007CAE0FB7554056B
:1047C0007DE77F20026DFE8F32E4F533F534E5326C
:1047D0006401703AF5437FCC7E457D037C50125BCB
:1047E0007C8E338F34900578E030E00543340180CF
:1047F000035334FE853343853444754500754604C0
:10480000E4F5477FCC7E457D037C501257C8E532E6
:104810006402703AF5437FCC7E457D137C50125B79
:104820007C8E338F3490057AE030E005433401808C
:10483000035334FE8533438534447545007546047F
:10484000E4F5477FCC7E457D137C501257C8E53296
:104850006403703AF5437FCC7E457D237C50125B28
:104860007C8E338F3490057CE030E005433401804A
:10487000035334FE8533438534447545007546043F
:10488000E4F5477FCC7E457D237C501257C8E53246
:104890006404703AF5437FCC7E457D337C50125BD7
:1048A0007C8E338F3490057EE030E0054334018008
:1048B000035334FE853343853444754500754604FF
:1048C000E4F5477FCC7E457D337C501257C8228F5C
:1048D00032E4F533F534E5326401703AF5437F8C08
:1048E0007E457D037C50125B7C8E338F3490058037
:1048F000E030E00543340180035334FE85334385C3
:104900003444754500754604E4F5477F8C7E457D4B
:10491000037C501257C8E5326402703AF5437F8C2D
:104920007E457D137C50125B7C8E338F34900582E4
:10493000E030E00543340180035334FE8533438582
:104940003444754500754604E4F5477F8C7E457D0B
:10495000137C501257C8E5326403703AF5437F8CDC
:104960007E457D237C50125B7C8E338F3490058492
:10497000E030E00543340180035334FE8533438542
:104980003444754500754604E4F5477F8C7E457DCB
:10499000237C501257C8E5326404703AF5437F8C8B
:1049A0007E457D337C50125B7C8E338F3490058640
:1049B000E030E00543340180035334FE8533438502
:1049C0003444754500754604E4F5477F8C7E457D8B
:1049D000337C501257C8228F3AE53A6401703AF599
:1049E000437FD07E447D037C50125B7CEE54FEF509
:1049F0003B753C00900547E0453BF53DA3E0453C59
:104A0000F53E853D43F544754500754604E4F5479C
:104A10007FD07E447D03024AD4E53A64027039F5C2
:104A2000437FD07E447D137C50125B7CEE54FEF5B8
:104A30003B753C00900549E0453BF53DA3E0453C16
:104A4000F53E853D43F544754500754604E4F5475C
:104A50007FD07E447D13807CE53A64037039F54352
:104A60007FD07E447D237C50125B7CEE54FEF53B70
:104A7000753C0090054BE0453BF53DA3E0453CF51A
:104A80003E853D43F544754500754604E4F5477F92
:104A9000D07E447D23803DE53AB4043DE4F5437F78
:104AA000D07E447D337C50125B7CEE54FEF53B752A
:104AB0003C0090054DE0453BF53DA3E0453CF53E0F
:104AC000853D43F544754500754604E4F5477FD0C0
:104AD0007E447D337C501257C8228F3AE53A6401F8
:104AE000703AF5437FD47E447D037C50125B7CEEAC
:104AF00054FEF53B753C0090054FE0453BF53DA36A
:104B0000E0453CF53E853D43F5447545007546045A
:104B1000E4F5477FD47E447D03024BD7E53A640237
:104B20007039F5437FD47E447D137C50125B7CEE5C
:104B300054FEF53B753C00900551E0453BF53DA327
:104B4000E0453CF53E853D43F5447545007546041A
:104B5000E4F5477FD47E447D13807CE53A6403709E
:104B600039F5437FD47E447D237C50125B7CEE5428
:104B7000FEF53B753C00900553E0453BF53DA3E059
:104B8000453CF53E853D43F544754500754604E4D6
:104B9000F5477FD47E447D23803DE53AB4043DE46F
:104BA000F5437FD47E447D337C50125B7CEE54FE13
:104BB000F53B753C00900555E0453BF53DA3E045D0
:104BC0003CF53E853D43F544754500754604E4F5E6
:104BD000477FD47E447D337C501257C8228F3AE5FC
:104BE0003A6401703AF5437FD87E447D037C5012CD
:104BF0005B7CEE54FEF53B753C00900557E0453B71
:104C0000F53DA3E0453CF53E853D43F54475450043
:104C1000754604E4F5477FD87E447D03024CDAE50F
:104C20003A64027039F5437FD87E447D137C50127C
:104C30005B7CEE54FEF53B753C00900559E0453B2E
:104C4000F53DA3E0453CF53E853D43F54475450003
:104C5000754604E4F5477FD87E447D13807CE53AB1
:104C600064037039F5437FD87E447D237C50125B0A
:104C70007CEE54FEF53B753C0090055BE0453BF552
:104C80003DA3E0453CF53E853D43F5447545007543
:104C90004604E4F5477FD87E447D23803DE53AB461
:104CA000043DE4F5437FD87E447D337C50125B7C29
:104CB000EE54FEF53B753C0090055DE0453BF53D4F
:104CC000A3E0453CF53E853D43F5447545007546FA
:104CD00004E4F5477FD87E447D337C501257C822C8
:104CE0008F33E5336401703AF5437FDC7E447D0306
:104CF0007C50125B7CEE54FEF53475350090055FF8
:104D0000E04534F536A3E04535F537853643F544BF
:104D1000754500754604E4F5477FDC7E447D03025B
:104D20004DDDE53364027039F5437FDC7E447D134D
:104D30007C50125B7CEE54FEF534753500900561B5
:104D4000E04534F536A3E04535F537853643F5447F
:104D5000754500754604E4F5477FDC7E447D13808D
:104D60007CE53364037039F5437FDC7E447D237C2E
:104D700050125B7CEE54FEF534753500900563E00F
:104D80004534F536A3E04535F537853643F54475AA
:104D90004500754604E4F5477FDC7E447D23803D75
:104DA000E533B4043DE4F5437FDC7E447D337C5041
:104DB000125B7CEE54FEF534753500900565E045D8
:104DC00034F536A3E04535F537853643F54475456A
:104DD00000754604E4F5477FDC7E447D337C501249
:104DE00057C8228F33E5336401703AF5437FE07E84
:104DF000447D037C50125B7CEE54FEF53475350027
:104E0000900567E04534F536A3E04535F53785363E
:104E100043F544754500754604E4F5477FE07E445C
:104E20007D03024EE0E53364027039F5437FE07E96
:104E3000447D137C50125B7CEE54FEF534753500D6
:104E4000900569E04534F536A3E04535F5378536FC
:104E500043F544754500754604E4F5477FE07E441C
:104E60007D13807CE53364037039F5437FE07E4435
:104E70007D237C50125B7CEE54FEF534753500903A
:104E8000056BE04534F536A3E04535F53785364307
:104E9000F544754500754604E4F5477FE07E447DA2
:104EA00023803DE533B4043DE4F5437FE07E447D5B
:104EB000337C50125B7CEE54FEF534753500900562
:104EC0006DE04534F536A3E04535F537853643F5D5
:104ED00044754500754604E4F5477FE07E447D3324
:104EE0007C501257C822AC07900024E0F530A3E0B4
:104EF000F531A3E0F532A3E0F533E530540FFFC3FD
:104F0000940740027F07EF7008900547F0A3F080F8
:104F10001574B92FF582E43404F583E0FB9005475E
:104F200074FFF0A3EBF0E53054F0C4540FFFC394CA
:104F30000740027F07EF7008900549F0A3F0801545
:104F400074B92FF582E43404F583E0FB90054974CD
:104F5000FFF0A3EBF0E531540FFFC3940740027F4D
:104F600007EF700890054BF0A3F0801574B92FF58A
:104F700082E43404F583E0FB90054B74FFF0A3EB6F
:104F8000F0E53154F0C4540FFFC3940740027F078B
:104F9000EF700890054DF0A3F0801574B92FF582DD
:104FA000E43404F583E0FF90054D74FFF0A3EFF0C7
:104FB000EC64017030900103E06530600A7F0112FB
:104FC00049D77F021249D7900185E06531600A7F99
:104FD000031249D77F041249D7900103E530F090BE
:104FE0000185E531F022AC07900028E0F530A3E020
:104FF000F531A3E0F532A3E0F533E530540FFFC3FC
:10500000940740027F07EF7008900557F0A3F080E7
:105010001574992FF582E43404F583E0FB9005576D
:1050200074FFF0A3EBF0E53054F0C4540FFFC394C9
:105030000740027F07EF7008900559F0A3F0801534
:1050400074992FF582E43404F583E0FB90055974DC
:10505000FFF0A3EBF0E531540FFFC3940740027F4C
:1050600007EF700890055BF0A3F0801574992FF599
:1050700082E43404F583E0FB90055B74FFF0A3EB5E
:10508000F0E53154F0C4540FFFC3940740027F078A
:10509000EF700890055DF0A3F0801574992FF582EC
:1050A000E43404F583E0FF90055D74FFF0A3EFF0B6
:1050B000EC64017030900102E06530600A7F0112FB
:1050C0004BDD7F02124BDD900184E06531600A7F89
:1050D00003124BDD7F04124BDD900102E530F090AE
:1050E0000184E531F0228F33E53364017037F543F5
:1050F0007FD07E34FD7C58125B7CEE54FEF5347517
:1051000035009004CDE04534F536A3E04535F5375C
:10511000853643F544754500754604E4F5477FD070
:105120007E340251D7E53364027036F5437FD07E7A
:1051300074FD7C58125B7CEE54FEF534753500909E
:1051400004CFE04534F536A3E04535F537853643E1
:10515000F544754500754604E4F5477FD07E7480BC
:1051600076E53364037036F5437FD07EB4FD7C581A
:10517000125B7CEE54FEF5347535009004D1E045A9
:1051800034F536A3E04535F537853643F5447545A6
:1051900000754604E4F5477FD07EB4803AE533B429
:1051A000043BE4F5437FD07EF4FD7C58125B7CEE3B
:1051B00054FEF5347535009004D3E04534F536A33C
:1051C000E04535F537853643F544754500754604A9
:1051D000E4F5477FD07EF4FD7C581257C8228F3308
:1051E000E53364017037F5437FD47E34FD7C58127B
:1051F0005B7CEE54FEF5347535009004D5E0453403
:10520000F536A3E04535F537853643F54475450059
:10521000754604E4F5477FD47E340252CFE533640B
:10522000027036F5437FD47E74FD7C58125B7CEEB1
:1052300054FEF5347535009004D7E04534F536A3B7
:10524000E04535F537853643F54475450075460428
:10525000E4F5477FD47E748076E53364037036F5D9
:10526000437FD47EB4FD7C58125B7CEE54FEF53453
:105270007535009004D9E04534F536A3E04535F5A1
:1052800037853643F544754500754604E4F5477F98
:10529000D47EB4803AE533B4043BE4F5437FD47E56
:1052A000F4FD7C58125B7CEE54FEF53475350090AD
:1052B00004DBE04534F536A3E04535F53785364364
:1052C000F544754500754604E4F5477FD47EF4FD4A
:1052D0007C581257C8228F33E53364017037F54389
:1052E0007FD87E34FD7C58125B7CEE54FEF534751D
:1052F00035009004DDE04534F536A3E04535F5375B
:10530000853643F544754500754604E4F5477FD876
:105310007E340253C7E53364027036F5437FD87E8E
:1053200074FD7C58125B7CEE54FEF53475350090AC
:1053300004DFE04534F536A3E04535F537853643DF
:10534000F544754500754604E4F5477FD87E7480C2
:1053500076E53364037036F5437FD87EB4FD7C5820
:10536000125B7CEE54FEF5347535009004E1E045A7
:1053700034F536A3E04535F537853643F5447545B4
:1053800000754604E4F5477FD87EB4803AE533B42F
:10539000043BE4F5437FD87EF4FD7C58125B7CEE41
:1053A00054FEF5347535009004E3E04534F536A33A
:1053B000E04535F537853643F544754500754604B7
:1053C000E4F5477FD87EF4FD7C581257C8228F330E
:1053D000E53364017037F5437FDC7E34FD7C581281
:1053E0005B7CEE54FEF5347535009004E5E0453401
:1053F000F536A3E04535F537853643F54475450068
:10540000754604E4F5477FDC7E340254BFE533641F
:10541000027036F5437FDC7E74FD7C58125B7CEEB7
:1054200054FEF5347535009004E7E04534F536A3B5
:10543000E04535F537853643F54475450075460436
:10544000E4F5477FDC7E748076E53364037036F5DF
:10545000437FDC7EB4FD7C58125B7CEE54FEF53459
:105460007535009004E9E04534F536A3E04535F59F
:1054700037853643F544754500754604E4F5477FA6
:10548000DC7EB4803AE533B4043BE4F5437FDC7E54
:10549000F4FD7C58125B7CEE54FEF53475350090BB
:1054A00004EBE04534F536A3E04535F53785364362
:1054B000F544754500754604E4F5477FDC7EF4FD50
:1054C0007C581257C8228F33E53364017037F54397
:1054D0007FE07E34FD7C58125B7CEE54FEF5347523
:1054E00035009004EDE04534F536A3E04535F53759
:1054F000853643F544754500754604E4F5477FE07D
:105500007E340255B7E53364027036F5437FE07EA2
:1055100074FD7C58125B7CEE54FEF53475350090BA
:1055200004EFE04534F536A3E04535F537853643DD
:10553000F544754500754604E4F5477FE07E7480C8
:1055400076E53364037036F5437FE07EB4FD7C5826
:10555000125B7CEE54FEF5347535009004F1E045A5
:1055600034F536A3E04535F537853643F5447545C2
:1055700000754604E4F5477FE07EB4803AE533B435
:10558000043BE4F5437FE07EF4FD7C58125B7CEE47
:1055900054FEF5347535009004F3E04534F536A338
:1055A000E04535F537853643F544754500754604C5
:1055B000E4F5477FE07EF4FD7C581257C8228B2E1D
:1055C0008A2F8930E4F53C0530E5307002052F1450
:1055D000F91208FEF5360530E530AA2F7002052FC6
:1055E00014F91208FEF5370530E530AA2F700205D0
:1055F0002F14F91208FEF5380530E530AA2F700295
:10560000052F14F91208FEF539E535F53AE534F5BC
:105610003B9006DDE0FF7554047BFF7D7F126DFE3D
:105620009006DDE0FF755404AB397D80126DFE906D
:1056300006DDE0FF755404AB387D81126DFE9006E7
:10564000DDE0FF755404AB377D82126DFE9006DD00
:10565000E0FF755404AB367D83126DFE9006DDE0ED
:10566000FF755404AB3A7D84126DFE9006DDE0FFB9
:10567000755404AB3B7D85126DFE9006DDE0FF7531
:1056800054047B017D86126DFEE4F53CE53CC39538
:105690003A50229006DDE0FF7B047D90126DBEAB98
:1056A000310533E533AA327002053214F9EF1209DD
:1056B00017053C80D722E4FC9000CCF0A3F0A3F0C7
:1056C000A3F0A3F0A3F0A3F0A3F0A3F0A3F0A3F042
:1056D000A3F0900013E0FD64106009ED6420600405
:1056E000EDB4300E9000D0EDF09000CCE04401F02D
:1056F00080079000CCE04403F0900014E0FF6410B9
:105700006009EF64206004EFB4300E9000D1EFF038
:105710009000CCE04410F080079000CCE04430F0E2
:10572000900015E0FF64106009EF64206004EFB49E
:10573000300E9000D2EFF09000CDE04401F08007F1
:105740009000CDE04403F0900016E0FF6410600983
:10575000EF64206004EFB4300E9000D3EFF09000BF
:10576000CDE04410F080079000CDE04430F07E01A1
:1057700074D02EF582E43400F583E0FF9000D0E091
:10578000B507010C0EBE04E8BC03209000D0E0FF7A
:10579000B41005750E108010EFB42005750E208032
:1057A00007EFB43003750E307508012290050DE047
:1057B0004480F543A3E0F544754500754604E4F5DF
:1057C000477F287E18FD7C588F428E418D408C3F4C
:1057D0008F4B78081209CE8F4AAF42AE41AD40AC34
:1057E0003F78101209CE8F49AF42AE41AD40AC3F79
:1057F00078181209CE8F48E546F54FE545F55085F6
:10580000444CE543F54DE5477005754EA0800375A2
:105810004EA27554047BFF7D7FAF4E126DFE755412
:1058200004AB4B7D80AF4E126DFE755404AB4A7DC8
:1058300081AF4E126DFE755404AB497D82AF4E129E
:105840006DFE755404AB487D83AF4E126DFE7554EA
:1058500004AB4F7D84AF4E126DFE755404AB507D8A
:1058600085AF4E126DFE7554047B037D86AF4E12DC
:105870006DFE755404AB4C7D87AF4E126DFE7554B2
:1058800004AB4D7D87AF4E126DFE755404E4FB7D75
:1058900087AF4E126DFE755404E4FB7D87AF4E0258
:1058A0006DFE8B2E8A2F89300530E5307002052F72
:1058B00014F91208FEF5360530E530AA2F700205FE
:1058C0002F14F91208FEF5370530E530AA2F7002C3
:1058D000052F14F91208FEF5380530E530AA2F70AF
:1058E00002052F14F91208FEF539E535F53AE534CD
:1058F000F53B9006DDE0FF7554047BFF7D7F126D64
:10590000FE9006DDE0FF755404AB397D80126DFE1C
:105910009006DDE0FF755404AB387D81126DFE907A
:1059200006DDE0FF755404AB377D82126DFE9006F4
:10593000DDE0FF755404AB367D83126DFE9006DD0D
:10594000E0FF755404AB3A7D84126DFE9006DDE0F5
:10595000FF755404AB3B7D85126DFE9006DDE0FFC4
:105960007554047B037D86126DFEE4F53CE53CC373
:10597000953A50239006DDE0FFAB310533E533AABD
:10598000327002053214F91208FEFB7554047D874B
:10599000126DFE053C80D6228F308D31E5301460CB
:1059A00043146072147003025A4824036003025ABD
:1059B0007EE4F5437F807E22FD7C52125B7C8E323A
:1059C0008F33E531600543332080035333DF853265
:1059D00043853344754500754604E4F5477F807E72
:1059E00022025A78E4F5437F807E26FD7C52125BCA
:1059F0007C8E328F33E5316005433320800353338F
:105A0000DF853243853344754500754604E4F54728
:105A10007F807E268062E4F5437F807EA6FD7C52F7
:105A2000125B7C8E328F33E5316005433320800377
:105A30005333DF853243853344754500754604E4AE
:105A4000F5477F807EA68030E4F5437F807EA2FD0F
:105A50007C52125B7C8E328F33E5316005433320FC
:105A600080035333DF8532438533447545007546E3
:105A700004E4F5477F807EA2FD7C521257C87B0369
:105A80007A007D037C80AF300242D1EF700C754309
:105A900080F544F54575460480179004C97408F0F4
:105AA000A37403F075438075440075450075460482
:105AB000E4F5477F447EC07D037C501257C89004B4
:105AC000C9E0F543A3E0F544754500754604E4F5E7
:105AD000477F847E21FD7C581257C89004C9E0F5A9
:105AE00043A3E0F544754500754604E4F5477F841B
:105AF0007E61FD7C581257C89004C9E0F543A3E0CD
:105B0000F544754500754604E4F5477F847EA1FDA4
:105B10007C581257C89004C9E0F543A3E0F54475DA
:105B20004500754604E4F5477F847EE1FD7C58120C
:105B300057C8754380754400754500754604E4F503
:105B4000477F887E21FD7C581257C8E4F5437F8C3F
:105B50007E21FD7C58125B7CE4F543F544F54575E8
:105B60004604F5477F887E21FD7C581257C8125E97
:105B7000A022E4F5437E217FA4FD7C588F428E4114
:105B80008D408C3FE4F5498F4778081209CE8F4647
:105B9000AF42AE41AD40AC3F78101209CE8F45AF59
:105BA00042AE41AD40AC3F78181209CE8F44E54378
:105BB00070057548A080037548A27554047BFF7D6D
:105BC0007FAF48126DFE755404AB477D80AF48121D
:105BD0006DFE755404AB467D81AF48126DFE755461
:105BE00004AB457D82AF48126DFE755404AB447D15
:105BF00083AF48126DFE7554047B047D84AF481258
:105C00006DFE755404E4FB7D85AF48126DFE75543E
:105C1000047B017D86AF48126DFE7B047D90AF480A
:105C2000126DBE8F4A7B047D90AF48126DBE8F4BC4
:105C30007B047D90AF48126DBE8F4C7B047D90AF8E
:105C400048126DBE8F4CE54B7F00FEEF254AFFE406
:105C50003EFE22AB0790002CE0F530A3E0F531A327
:105C6000E0F532A3E0F533E530540FFEC394044071
:105C7000027E0374862EF582E43402F583E0FF9001
:105C8000054FE4F0A3EFF0E53054F0C4540FFEC329
:105C9000940440027E0374862EF582E43402F58378
:105CA000E0FF900551E4F0A3EFF0E531540FFEC39F
:105CB000940440027E0374862EF582E43402F58358
:105CC000E0FF900553E4F0A3EFF0E53154F0C45445
:105CD0000FFEC3940440027E0374862EF582E434E2
:105CE00002F583E0FF900555E4F0A3EFF0EB6401CB
:105CF0007030900000E06530600A7F01124ADA7F60
:105D000002124ADA900001E06531600A7F03124A0C
:105D1000DA7F04124ADA900000E530F0900001E5E5
:105D200031F02285A72FE4F5A753C17F900013E03F
:105D3000B480109000D0F09000CCE04401F07D01E0
:105D4000E48014900013E0B490119000D0F0900023
:105D5000CCE04401F0E4FDFF125998900014E0B447
:105D6000800F9000D1F09000CCE04410F07D0180D5
:105D700014900014E0B490129000D1F09000CCE0A8
:105D80004410F0E4FD7F01125998900015E0B480B2
:105D90000F9000D2F09000CDE04401F07D0180141E
:105DA000900015E0B490129000D2F09000CDE04445
:105DB00001F0E4FD7F02125998900016E0B4800FC4
:105DC0009000D3F09000CDE04410F07D018014905D
:105DD0000016E0B490129000D3F09000CDE0441093
:105DE000F0E4FD7F0312599843C180852FA7228FCD
:105DF00033E533B40120125B728E348F35E53444C1
:105E000020F543853544754500754604E4F5477F24
:105E1000A47E21025E99E533B40224E4F5437E6159
:105E2000125B778E348F35E5344420F54385354455
:105E3000754500754604E4F5477FA47E61805AE508
:105E400033B40329E4F5437FA47EA1FD7C58125BA3
:105E50007C8E348F35E5344420F5438535447545D3
:105E600000754604E4F5477FA47EA1802CE533B499
:105E7000042DE4F5437FA47EE1FD7C58125B7C8E0B
:105E8000348F35E5344420F5438535447545007538
:105E90004604E4F5477FA47EE1FD7C581257C822F2
:105EA000E4F532F533E4F5437F8C7E21FD7C581216
:105EB0005B7CEF4E7065F5437F847E21FD7C58123C
:105EC0005B7C9004C9E06E7003A3E06F704DF543F6
:105ED0007F847E61FD7C58125B7C9004C9E06E700B
:105EE00003A3E06F7035F5437F847EA1FD7C5812DB
:105EF0005B7C9004C9E0B50622A3E0B5071DE4F57C
:105F0000437F847EE1FD7C58125B7C9004C9E0B540
:105F10000609A3E0B50704751A02220533E53370BC
:105F2000020532C39488E53294135003025EA590B3
:105F30000708E532F0A3E533F0E4F532F533F51A5E
:105F400022E4F52FF530F5437F107E4A7D037C5027
:105F5000125B7CEF30E0055330FE8003433001EFED
:105F600030E105532FFE8003432F01E4F5437F10FA
:105F70007E4A7D137C50125B7CEF30E0055330FD90
:105F80008003433002EF30E105532FFD8003432FA0
:105F900002E4F5437F107E4A7D237C50125B7CEF48
:105FA00030E0055330FB8003433004EF30E105530C
:105FB0002FFB8003432F04E4F5437F107E4A7D339B
:105FC0007C50125B7CEF30E0055330F780034330A8
:105FD00008EF30E105532FF78003432F08AE2FAFB2
:105FE00030228F368D378B38E49007DDF0A3F0A395
:105FF000F0A3F0AF3812744EAF3812733EAD38AF25
:1060000036126D3CAF38126FD2AD38AF37126D3CDF
:10601000AF38126FD2AD387F011273C6127251AF12
:106020003812744EAF3812733EE53604FFAD3812A5
:106030006D3CAF38126FD2AF38126ACB9007DDEFEC
:10604000F0AF3812734DAF38126ACBA3EFF0AF3810
:1060500012716F9007DDE075F010A4FFA3E07C00E3
:106060002FFEEC35F0A3F0A3CEF0AF381271AEAF37
:106070003812744E9007DFE0FEA3E0FF228D32EF6E
:1060800014B40800400302611590609775F003A4F2
:10609000C58325F0C583730260AF0260BC0260C98E
:1060A0000260D60260E50260F402610302610385CA
:1060B0003239E4FBFA7D80FC7FF08054853239E48C
:1060C000FBFA7D94FC7FEC8047853239E4FBFA7D56
:1060D00090FC7FE8803A8532397BFC7AFF7D8C7CAE
:1060E000007FE8802B8532397BF87AFF7D887C0041
:1060F0007FE8801C8532397BF47AFF7D847C007FC9
:10610000E8800D8532397BF07AFF7D807C007FE866
:106110007EFF1263C722E4F52FF530900002E0FF06
:106120006513607CE4900082F0A3F0A3F0A3F0EF8D
:1061300090008230E008E04404F0E4FD8006E04492
:1061400001F07D017F01122CD5900002E0900082C9
:1061500030E108E04440F0E4FD8006E04410F07DCA
:10616000017F02122CD5900002E090008330E208FB
:10617000E04404F0E4FD8006E04401F07D017F038B
:10618000122CD5900002E090008330E308E04440F8
:10619000F0E4FD8006E04410F07D017F04122CD570
:1061A000900002E0F51322EFB40D004003026236C6
:1061B0009061B7F82828730261DE0261F30261F78B
:1061C0000261FB0261FF02620402620802620C02C9
:1061D000621002621502621F0262290262331270AB
:1061E000931269497F0D127228EF25E0FFEE33FE0E
:1061F0000273EAE4FF800A7F0180067F0280027F4B
:1062000003024157E4FF800A7F0180067F0280027B
:106210007F0302267B900891E0B4011A02742C904F
:106220000891E0B401100266A4900891E0B4010660
:1062300002664312657C2212003A787FE4F6D8FDAC
:106240007581540262810268A6E493A3F8E493A3E3
:106250004003F68001F208DFF48029E493A3F854A8
:1062600007240CC8C333C4540F4420C8834004F42B
:1062700056800146F6DFE4800B010204081020403E
:1062800080900B94E47E019360BCA3FF543F30E503
:1062900009541FFEE493A360010ECF54C025E060B3
:1062A000A840B8E493A3FAE493A3F8E493A3C8C581
:1062B00082C8CAC583CAF0A3C8C582C8CAC583CA72
:1062C000DFE9DEE780BE7B017A06795C7534007514
:1062D00035807F007ED4126B5C7B017A07795D7517
:1062E00034007535807F007ED6126B5C7B017A07A7
:1062F00079DD7534007535807F007ED8126B5C784F
:10630000C97C047D017B017A0779DD7E007F8012E4
:1063100008D87B017A0779DD7534007535807F00F8
:106320007EDA126B5C78477C057D017B017A077908
:10633000DD7E007F801208D87B017A03799975345D
:10634000007535807F007ED0026B5CE4FC9000130A
:10635000E0FE900888E06E60080CEE54F0900013A8
:10636000F0900014E0FF90088BE06F60097C02EF72
:1063700054F0900014F0900015E0FF90088DE06F4D
:1063800060097C04EF54F0900015F0900016E0FFD7
:1063900090088FE06F60097C08EF54F0900016F0D1
:1063A000EC6003125D23900013E0900888F09000E9
:1063B00014E090088BF0900015E090088DF09000AC
:1063C00016E090088FF022E53924FE601F1460313A
:1063D00014604324037057900547EEF0A3EFF0904C
:1063E000054FECF0A3EDF0900557803D900549EE88
:1063F000F0A3EFF0900551ECF0A3EDF0900559807B
:106400002890054BEEF0A3EFF0900553ECF0A3EDD0
:10641000F090055B801390054DEEF0A3EFF0900532
:1064200055ECF0A3EDF090055DEAF0A3EBF0AF3989
:106430001249D7AF39124ADAAF39024BDD8F2FE458
:10644000F530F531F5437F207ECBFD7C52125B7C2D
:10645000900703EEF0A3EFF0E4F5437F047E447D64
:10646000037C50125B7C900701EEF0A3EFF0E51A7D
:10647000B401191268547FD07E0712718F7F011208
:1064800000767F011230BDAF2F125A8BE51AB4028D
:1064900010126999126E78E4FF120076E4FF123050
:1064A000BD900700E51AF0229005D6E06401706205
:1064B0009005CAE024FB601524FE604E2406704D52
:1064C0009005DCE0900205F01244178040E4FFFEE6
:1064D0009005DAE0FDC3EF9DEE9400502874DC2FA8
:1064E000F58274053EF583E0FD9005D9E02FFBE4CD
:1064F0003EFA74862BF58274013AF583EDF00FBFF6
:1065000000010E80CB126D7E8003121E47E49005C1
:10651000D6F0228F33E4FE7554057B107D607F1C1E
:10652000126DFE755405AB337D917F1C126DFE75A7
:1065300054057B087D927F1C126DFE7F017E001248
:10654000718F7B057D687F1C125FE28E348F3575FD
:1065500054057B047D927F1C126DFE7F017E00122C
:10656000718F7B057D687F1C125FE2C3EF9535FF5D
:10657000EE9534FE7C007D14120929227F111272DF
:106580002890046AEEF0A3EFF07F121272289004B4
:1065900068EEF0A3EFF07F0D127228EF25E0FFEE1A
:1065A00033900464F0A3EFF07F0F1272289004661A
:1065B000EEF0A3EFF07F10127228EF7802C333CE13
:1065C00033CED8F9FF900462EEF0A3EFF01270938F
:1065D00090046CEEF0A3EFF0126BA490046EEFF059
:1065E00022AB05A907E4F533F532F531F53085A77F
:1065F0002FF5A7FAEAC39B503789BBE4FFFE0FBF14
:1066000000010EEF640A4E70F5D2EC30EDFDAFBD27
:10661000AEBEE4FCFDE5332FF533E5323EF532ED59
:106620003531F531EC3530F530C2ECC2ED0A80C4BD
:10663000E4FAF9F8AF33AE32AD31AC30126C3185DB
:106640002FA722E4FDFE1239A3AD07900095E0FFCD
:10665000D394004005ED7002AD07900096E0FFD3A3
:1066600094004005EE7002AE07900096EEF09000A8
:1066700095EDF0900064E0F45D6010C282900189B5
:10668000E054FEF0900880E04401F0900065E0F4F2
:106690005E6010C282900189E054FEF0900880E0B4
:1066A0004402F022E4FDFE125F41AD0790008AE053
:1066B000FFD394004005ED7002AD0790008BE0FF22
:1066C000D394004005EE7002AE0790008AEDF0A36F
:1066D000EEF0900059E0F45D6010C282900189E014
:1066E00054FEF0900880E04402F090005AE0F45E1E
:1066F0006010C282900189E054FEF0900880E0446E
:1067000004F0228F2FE52F604E9003FAE0B4010FC2
:10671000125C53AF2F124EE6AF2F124FE6800312DA
:1067200067ADAF2F127296900024E09000E1F090D8
:106730000025E09000E2F0900028E09000E5F09065
:106740000029E09000E6F090002CE09000E9F09045
:10675000002DE09000EAF022AD07ED90067A30E0DF
:1067600006E04401F08004E054FEF0ED90067A303B
:10677000E106E04402F08004E054FDF0ED90067A7A
:1067800030E206E04404F08004E054FBF0ED9006B3
:106790007A30E306E04408F08004E054F7F0900615
:1067A0007AE0FB7554057D417F1C026DFE90002C44
:1067B000E0F530A3E0F531E530540FFFC394094014
:1067C000027F097D0112607DE53054F0C4540FFF53
:1067D000C3940940027F097D0212607DE531540FA8
:1067E000FFC3940940027F097D0312607DE53154A7
:1067F000F0C4540FFFC3940940027F097D04026076
:106800007DE4F52EF52FF530F531E4F5437F047E78
:10681000447D037C50125B7CEF64034E7004751A58
:106820000122052FE52F7002052EE4F530F5310524
:1068300031E531700205306464453070F2C3E52FF4
:1068400094E8E52E940340C2E4F52EF52FF51A9056
:106850000700F022E4F534F535F5437F507EC07D26
:10686000037C50125B7C8E43EF4481F544754500F8
:10687000754604E4F5477F507EC07D037C50125777
:10688000C8E4F5437F507EC07D037C50125B7CEEF4
:1068900020E6120533E53370020532D394D0E53299
:1068A000940740DD222285A72CE4F52D1200031267
:1068B000720A1271CD1270E120850C3085FD052D14
:1068C000E52DD3941440F41270BB122ACB1200466B
:1068D00012727C12680175A880E49003E9F0123FFF
:1068E000DC126FFE12738D1264A82085F1E4F5A707
:1068F00075EF12852CA780E6E4900317F0A3F0F55E
:106900002EF52FAF2FAE2E1272C67E00900318E028
:106910002FF0900317E03EF0052FE52F7002052EB3
:10692000C3E52E94C840DC900317E0FFA3E0900479
:1069300011CFF0A3EFF07B017A03799975350075DB
:1069400036807F007ED0026B14AC0690039DE0FD84
:10695000A3E0FBA3E0F5823395E0F53385823412A2
:106960006EEFAC06AD07ECFF3395E0900194EFF0CD
:10697000AF05A3EFF0900194E0FBFF3395E0FEEF4D
:106980002428FFE43EFE7C007D0212093B90086152
:10699000EFF0D3EB648094C0227F011270317F024C
:1069A0001270317F031270317F041270317F011237
:1069B0002ECC7F02122ECC7F03122ECC7F04122EFF
:1069C000CC7F0112219A7F0212219A7F0312219A11
:1069D0007F0412219A7F011228AD7F021228AD7F19
:1069E000031228AD7F040228AD9006EDE06401702B
:1069F000439006ECE070197531017532067533E28B
:106A0000F5347535047B017A0679DE1258A2801FB1
:106A10009006ECE0B401187531017532067533E665
:106A20007534007535047B017A0679DE1255BEE4B3
:106A30009006EDF0227B017A0479A9753400753552
:106A4000107F007ED2126B5C7B017A0479B97534B9
:106A5000007535107F107ED2126B5C7B017A027953
:106A6000867534007535107F207ED2126B5C7B01F9
:106A70007A0479997534007535107F407ED2026BA7
:106A80005C1224207B057D047F1C126DBE9006697C
:106A9000EFF07B057D1E7F1C126DBE900671EFF03E
:106AA0007B057D297F1C126DBE900678EFF07B057B
:106AB0007D5A7F1C126DBE90068BEFF07B057D64C6
:106AC0007F1C126DBE900690EFF022AC07E4FBFF36
:106AD0001272491272511272517A07127244BC0436
:106AE00006A2B292018007BC0504A2909201A20105
:106AF000E433FFA802088002C333D8FC4203AD048C
:106B0000E4FF1273C61272511AC3EA648094805073
:106B1000CAAF03228E308F318B328A338934E4F549
:106B200037F5387D55126F98E4F537F538C3E538F9
:106B30009536E53795355023E5312538FFE5303575
:106B400037FEAB320534E534AA3370020533126EDA
:106B5000B40538E53870D6053780D2228E2F8F30B5
:106B60008B318A328933E4F536F537F536F537C39C
:106B7000E5379535E53695345029E5302537FFE57D
:106B80002F3536FE1272C6AB310533E533AA3270AB
:106B900002053214F9EF1209170537E53770D005F1
:106BA0003680CC22E4FFA296332FFFA293E4332554
:106BB000E025E02FFFA292E43333333354F82FFF64
:106BC000A294E433C454F02FFFA286E433C43354B8
:106BD000E02FFFA295E433C4333354C02FFFA2B497
:106BE000E433C433333354802FFF22EF30E004D238
:106BF000968002C296EF30E204D2938002C293EFF5
:106C000030E304D2928002C292EF30E404D2948046
:106C100002C294EF30E504D2868002C286EF30E6ED
:106C200004D2958002C295EF30E703D2B422C2B4F9
:106C300022C2D5E830E70FB2D5E4C39BFBE49AFA51
:106C4000E499F9E498F8EC30E717B2D5126C6712C2
:106C50000B02E4C39BFBE49AFAE499F9E498F88008
:106C600003120B0230D50DE4C39FFFE49EFEE49DAA
:106C7000FDE49CFC228F2FE52F30E0057D01E480B0
:106C800002E4FDFF125998E52F30E1047D018002F6
:106C9000E4FD7F01125998E52F30E2047D01800266
:106CA000E4FD7F02125998E52F30E3047D01800254
:106CB000E4FD7F0312599822AC06E0FDA3E0FBA39C
:106CC000E0F537A3E0F5388D358B36AB07AA06E43F
:106CD000F9F8AF35FCFDFE1209718F3C8E3B8D3A01
:106CE0008C39A936A8011209CE8F3C8E3B8D3A8C87
:106CF00039E5382FFFE5373EFE228E2F8F308B315E
:106D00008A328933E4F536F537F536F537C3E5379A
:106D10009535E53695345023E5302537FFE52F3599
:106D200036FEAB310533E533AA3270020532126EFE
:106D3000B40537E53770D6053680D222AC05AB07EF
:106D4000A903E4FF12724B1272511272517A07EBCF
:106D5000A802088002C313D8FC5401F9AD046004F2
:106D60007F018002E4FF127325127247E4FF127361
:106D7000C61272511AC3EA6480948050D2229002E3
:106D800000E0FFB49316A3E0B47811A3E0B4CC0CF8
:106D9000A3E0B4AE079005C87401F022EFB43A182E
:106DA000900201E0B41811A3E0B4B60CA3E0B46FF4
:106DB000079005C87402F022E49005C8F0228F4DB8
:106DC0008D4E8B4F127337AF4D126FCBAF4E126F8C
:106DD000CBAD4F7F011273C6127251127337E54D5E
:106DE00004FF126FCBAF4F126ACBA907AF4F1271DE
:106DF0006FAF4F1271AEAF4F12744EAF01228D5272
:106E00008B53AC07AF5412744EAF5412733EAF04A1
:106E1000AD54126D3CAF54126FD2AD54AF52126DDF
:106E20003CAF54126FD2AD54AF53126D3CAF5412FD
:106E30006FD2AF541271AEAF5402744E7FFF12671F
:106E4000589003E6E064017013308408750D0175F5
:106E50000E10800E750E10E4F50D8006750E10E410
:106E6000F50D751102C282900189E511F090018E35
:106E7000E04401F0750E10227F011271EC7F0212C6
:106E800071EC7F031271EC7F041271EC7F011247E9
:106E9000C77F021247C77F031247C77F041247C745
:106EA0007F011248CF7F021248CF7F031248CF7F65
:106EB000040248CF14F91208FEFD7B55ACA7A2AF1F
:106EC0009201E4F5A7C2AF75FF8075EF028F828E45
:106ED00083BB550975B7A575B7F1438F0175FF8061
:106EE00075EF02EDF0538FFEA20192AF8CA7228DB9
:106EF000318B32AB07AA06EA3395E0F9F8AF31E4FB
:106F0000FCFDFE1209718F388E378D368C35A93213
:106F1000A8011209CE8F388E378D368C35E534FEB8
:106F2000E42538FFEE3537FE227B017A017986753C
:106F300034017535007F007EC8126B5C7B017A02DC
:106F400079977534007535807F007ECA126B5C7B43
:106F5000017A0379197534007535807F007ECC0283
:106F60006B5C90018FE0FF900874E0F4FEEF5E90A0
:106F7000018FF0900880E054BFF0900882E070022A
:106F8000A3E0701390087FE07002A3E07009900105
:106F900089E04401F0D28222ACA7A2AF9201C2AF35
:106FA000E4F5A775FF8075EF028F828E83BD5509CA
:106FB00075B7A575B7F1438F0375FF8075EF02E4D0
:106FC000F0538FFCA20192AF8CA722AD4F126D3C03
:106FD000AF4FAC07127244AF041273D8EF600CE4E9
:106FE000FF1273C6127251E4FF800CAD04E4FF126D
:106FF00073C61272517F01127325127251221269E7
:10700000E9900470E0B4AA0AE4F090046FE0FF1283
:107010006BEB90040EE0B4AA081274BDE490040E69
:10702000F0900706E0B4AA081274B7E4900706F0DF
:10703000228F32125DEFE53214FF7B047A007D046B
:107040007C801242D1AF321250E6AF321251DEAF25
:10705000321252D6AF321253CEAF321254C6AF32C2
:10706000023CCEE4FF1274387B05E4FD7F20126DF4
:10707000BE90075DEFF07B057D017F20126DBE9015
:10708000075EEFF07B057D037F20126DBE90075FEA
:10709000EFF0227D047F141265E1C3EF9519FFEE36
:1070A0009518FE3395E0FDFCE4FB7A01F9F812092E
:1070B00071E47B13FAF9F8126C31227554057BAA3E
:1070C0007D027F1C126DFE7F0A7E0012718F755447
:1070D00005E4FB7D027F1C126DFE7F0A7E000271BB
:1070E0008F90FFD5E493FE90FFD4E493FDEEFCE493
:1070F00012074E7BD77AA37930783F1206431207E6
:10710000878E188F1922E490018EF0900882E0702B
:1071100002A3E0701390087FE07002A3E070099072
:107120000189E04401F0D282227E007F547D007B01
:10713000017A017986120A45900206E0900186F0F4
:10714000A37430F0E4A3F0A37407F022EFC4335427
:107150006090075FF0E4FF12743890075FE0FB7502
:1071600054057D037F20126DFE7F1312722822AC1E
:10717000071272511273211272517F0112724BE485
:10718000FF1273C6127251E4FF127325027251ADE1
:1071900007AC06E4FBFAC3EB9DEC6480F8EA64807C
:1071A00098500A12740C0BBB00010A80E922AC074C
:1071B000AD04E4FF1273257F02127260AD047F01FB
:1071C0001273C60F1272601273210272517F327EE7
:1071D0000012718FC295C292D293D2B4D296C29449
:1071E000C2867F057E0012718FD295228F3212499E
:1071F000D7AF32124ADAAF32124BDDAF32124CE067
:10720000AF32124DE3AF32023803126F291262C659
:10721000127129123E5B126A357E007F807D007BF1
:10722000017A047919020A457D041265E1AD07ACC3
:1072300006E412074E7B487AE179BA783F1206439A
:10724000120787221272517F01AD041273C61272A7
:1072500051E4FFFE0FBF00010EEF64024E70F522F5
:10726000AD07E4FBFAEDFFC3EB9F7480F86A98501A
:107270000A1272510BBB00010A80EA22127379E4F0
:10728000FF1210BA7F011210BA7F021210BA7F03E8
:107290001210BA024696BF01147F011238037F0212
:1072A0001238037F031238037F041238032212704E
:1072B000931269497F0D127228EF25E0FFEE33FE2D
:1072C0001273EA02657CADA7A2AF9201C2AFE4F5EA
:1072D000A78F828E8393FFA20192AF8DA722127097
:1072E00063E4FF1215DB7F011215DB7F021215DB51
:1072F0007F030215DB9001A0E0FF6512600AEF300A
:10730000E306E4F5A775EF128F1222BD0408EF24FF
:10731000FF92B392B222BD0507EF24FF92919290A3
:1073200022AD047F01BD0406EF24FF92B222BD0509
:1073300005EF24FF929022AF4F12744EAF4FAD076E
:10734000127251E4FF1273257F02027260AC07AD26
:1073500004E4FF1273250F12724BE4FF1273C60F81
:1073600002732575B28075BB1475DF1F75BC187567
:10737000B90453E8F943E88522E4FF127438900712
:107380005FE0FB7554057D037F20026DFEAFA7E42F
:10739000F5A720870543C180800353C17F8FA722B3
:1073A000C0E0C0D075D000C00712738DD007D0D018
:1073B000D0E032AF885388AF758CF1EF5440FEEFC8
:1073C00054104E428822BD0406EF24FF92B322BD22
:1073D0000505EF24FF929122BF0404A2B28005BFED
:1073E0000505A290E433FEAF0622900399126CB813
:1073F000AC06900196ECF0A3EFF022E4F5A9E5A924
:1074000030E7FB75A903E5A930E7FB22E4FFFE00A6
:107410000FBF00010EBE17F7BF70F422E5915404B0
:107420005391FB7593157592A042912212456012FB
:10743000363E1232A0023475AB077554057DFF7FCE
:1074400020026DFE53C17F43C18053917F32AD074F
:107450007F0112730B027260E4F5A77597DE7597D2
:10746000AD2275A44075F1FE75D4FF2275A568752F
:10747000F27F75D5FF2275A72075F30375CC0C221A
:10748000E4F5A775E34075E1042275E68175A71060
:1074900075EE0122759C1275F49F2275A71075C1B7
:1074A0002022E4F5A775EF0622758E017589022268
:1074B00075D7A043C11C22126999026E780268F840
:1074C000022ACBFFFFFFFFFFFFFFFFFFFFFFFFFFD2
:1074D000FFFFFFFFFFFFFFFFFFFFFFFFFFFFFFFFBC
:1074E000FFFFFFFFFFFFFFFFFFFFFFFFFFFFFFFFAC
:1074F000FFFFFFFFFFFFFFFFFFFFFFFFFFFFFFFF9C
:10750000FFFFFFFFFFFFFFFFFFFFFFFFFFFFFFFF8B
:10C800001E0000000000000000000000000000000A
:10C810000000000000000000000000000000000018
:10C820000000000000000000000000000000000008
:10C8300000000000000000000000000000000000F8
:10C8400000000000000000000000000000000000E8
:10C8500000000000000100000000000000000000D7
:10C8600000000000000000000000000000000000C8
:10C8700000000000000000000000000000000000B8
:10C880001E4C555853484152452D494354202020B1
:10C89000203C18A000000000000000000000000084
:10C8A0000000000000000000000000000000000088
:10C8B0000000000000000000000000000000000078
:10C8C0000000000000000000000000000000000068
:10C8D0000000000000000000000000000000000058
:10C8E0000000000000000000000000000000000048
:10C8F0000000000000000000000000000000000038
:10C90000FFFFFFFFFFFFFFFFFFFFFFFFFFFFFFFF37
:10C91000FFFFFFFFFFFFFFFFFFFFFFFFFFFFFFFF27
:10C92000FFFFFFFFFFFFFFFFFFFFFFFFFFFFFFFF17
:10C93000FFFFFFFFFFFFFFFFFFFFFFFFFFFFFFFF07
:10C94000FFFFFFFFFFFFFFFFFFFFFFFFFFFFFFFFF7
:10C95000FFFFFFFFFFFFFFFFFFFFFFFFFFFFFFFFE7
:10C96000FFFFFFFFFFFFFFFFFFFFFFFFFFFFFFFFD7
:10C97000FFFFFFFFFFFFFFFFFFFFFFFFFFFFFFFFC7
:10C98000FFFFFFFFFFFFFFFFFFFFFFFFFFFFFFFFB7
:10C99000FFFFFFFFFFFFFFFFFFFFFFFFFFFFFFFFA7
:10C9A000FFFFFFFFFFFFFFFFFFFFFFFFFFFFFFFF97
:10C9B000FFFFFFFFFFFFFFFFFFFFFFFFFFFFFFFF87
:10C9C000FFFFFFFFFFFFFFFFFFFFFFFFFFFFFFFF77
:10C9D000FFFFFFFFFFFFFFFFFFFFFFFFFFFFFFFF67
:10C9E000FFFFFFFFFFFFFFFFFFFFFFFFFFFFFFFF57
:10C9F000FFFFFFFFFFFFFFFFFFFFFFFFFFFFFFFF47
:10CA000003200300000032230000426807D0040A1C
:10CA100088604600000000000000000000000000E8
:10CA20000000000000000000000000000000000006
:10CA30000111FF0111FF00000000000000000000D4
:10CA400000000000000000000000000000000000E6
:10CA500000000000000000000000000000000000D6
:10CA600000000000000000000000000000000000C6
:10CA700000000000000000000000000000000011A5
:10CA8000FFFFFFFFFFFFFFFFFFFFFFFFFFFFFFFFB6
:10CA9000FFFFFFFFFFFFFFFFFFFFFFFFFFFFFFFFA6
:10CAA000FFFFFFFFFFFFFFFFFFFFFFFFFFFFFFFF96
:10CAB000FFFFFFFFFFFFFFFFFFFFFFFFFFFFFFFF86
:10CAC000FFFFFFFFFFFFFFFFFFFFFFFFFFFFFFFF76
:10CAD000FFFFFFFFFFFFFFFFFFFFFFFFFFFFFFFF66
:10CAE000FFFFFFFFFFFFFFFFFFFFFFFFFFFFFFFF56
:10CAF000FFFFFFFFFFFFFFFFFFFFFFFFFFFFFFFF46
:10CB0000FFFFFFFFFFFFFFFFFFFFFFFFFFFFFFFF35
:10CB1000FFFFFFFFFFFFFFFFFFFFFFFFFFFFFFFF25
:10CB2000FFFFFFFFFFFFFFFFFFFFFFFFFFFFFFFF15
:10CB3000FFFFFFFFFFFFFFFFFFFFFFFFFFFFFFFF05
:10CB4000FFFFFFFFFFFFFFFFFFFFFFFFFFFFFFFFF5
:10CB5000FFFFFFFFFFFFFFFFFFFFFFFFFFFFFFFFE5
:10CB6000FFFFFFFFFFFFFFFFFFFFFFFFFFFFFFFFD5
:10CB7000FFFFFFFFFFFFFFFFFFFFFFFFFFFFFFFFC5
:10CB8000FFFFFFFFFFFFFFFFFFFFFFFFFFFFFFFFB5
:10CB9000FFFFFFFFFFFFFFFFFFFFFFFFFFFFFFFFA5
:10CBA000FFFFFFFFFFFFFFFFFFFFFFFFFFFFFFFF95
:10CBB000FFFFFFFFFFFFFFFFFFFFFFFFFFFFFFFF85
:10CBC000FFFFFFFFFFFFFFFFFFFFFFFFFFFFFFFF75
:10CBD000FFFFFFFFFFFFFFFFFFFFFFFFFFFFFFFF65
:10CBE000FFFFFFFFFFFFFFFFFFFFFFFFFFFFFFFF55
:10CBF000FFFFFFFFFFFFFFFFFFFFFFFFFFFFFFFF45
:10CC000080000000000000000000000000000000A4
:10CC10000000000000000000000000000000000014
:10CC20000000000000000000000000000000000004
:10CC300000000000000000000000000000000000F4
:10CC400000000000000000000000000000000000E4
:10D00000010000000100000100000001000000011B
:10D01000000000010000000100000001000000010C
:10D0200000000001000000010000000100000001FC
:10D0300000000001000000008001000080010000ED
:10D040008001000080010046000100010001000095
:10D050000022222222333333335555555500000028
:10D0600000000000000000000000000000000000C0
:10D0700000000000000000000000000000000000B0
:10D08000FFFFFFFFFFFFFFFFFFFFFFFFFFFFFFFFB0
:10D09000FFFFFFFFFFFFFFFFFFFFFFFFFFFFFFFFA0
:10D0A000FFFFFFFFFFFFFFFFFFFFFFFFFFFFFFFF90
:10D0B000FFFFFFFFFFFFFFFFFFFFFFFFFFFFFFFF80
:10D0C000FFFFFFFFFFFFFFFFFFFFFFFFFFFFFFFF70
:10D0D000FFFFFFFFFFFFFFFFFFFFFFFFFFFFFFFF60
:10D0E000FFFFFFFFFFFFFFFFFFFFFFFFFFFFFFFF50
:10D0F000FFFFFFFFFFFFFFFFFFFFFFFFFFFFFFFF40
:10D10000FFFFFFFFFFFFFFFFFFFFFFFFFFFFFFFF2F
:10D11000FFFFFFFFFFFFFFFFFFFFFFFFFFFFFFFF1F
:10D12000FFFFFFFFFFFFFFFFFFFFFFFFFFFFFFFF0F
:10D13000FFFFFFFFFFFFFFFFFFFFFFFFFFFFFFFFFF
:10D14000FFFFFFFFFFFFFFFFFFFFFFFFFFFFFFFFEF
:10D15000FFFFFFFFFFFFFFFFFFFFFFFFFFFFFFFFDF
:10D16000FFFFFFFFFFFFFFFFFFFFFFFFFFFFFFFFCF
:10D17000FFFFFFFFFFFFFFFFFFFFFFFFFFFFFFFFBF
:10D18000FFFFFFFFFFFFFFFFFFFFFFFFFFFFFFFFAF
:10D19000FFFFFFFFFFFFFFFFFFFFFFFFFFFFFFFF9F
:10D1A000FFFFFFFFFFFFFFFFFFFFFFFFFFFFFFFF8F
:10D1B000FFFFFFFFFFFFFFFFFFFFFFFFFFFFFFFF7F
:10D1C000FFFFFFFFFFFFFFFFFFFFFFFFFFFFFFFF6F
:10D1D000FFFFFFFFFFFFFFFFFFFFFFFFFFFFFFFF5F
:10D1E000FFFFFFFFFFFFFFFFFFFFFFFFFFFFFFFF4F
:10D1F000FFFFFFFFFFFFFFFFFFFFFFFFFFFFFFFF3F
:10D200000C1316191C1F2326292C2F3236393C3FAC
:10D2100000FCF8F4F0ECE8E4E4E4E40000000000D2
:10D2200050647C940000000000000000000000003A
:10D230009378CCAE00000000000000000000000069
:10D2400000FCF8F4F0ECE8E4E4E4E40000000000A2
:10D2500000000000000000000000000000000000CE
:10D2600000000000000000000000000000000000BE
:10D2700000000000000000000000000000000000AE
:10D28000FFFFFFFFFFFFFFFFFFFFFFFFFFFFFFFFAE
:10D29000FFFFFFFFFFFFFFFFFFFFFFFFFFFFFFFF9E
:10D2A000FFFFFFFFFFFFFFFFFFFFFFFFFFFFFFFF8E
:10D2B000FFFFFFFFFFFFFFFFFFFFFFFFFFFFFFFF7E
:10D2C000FFFFFFFFFFFFFFFFFFFFFFFFFFFFFFFF6E
:10D2D000FFFFFFFFFFFFFFFFFFFFFFFFFFFFFFFF5E
:10D2E000FFFFFFFFFFFFFFFFFFFFFFFFFFFFFFFF4E
:10D2F000FFFFFFFFFFFFFFFFFFFFFFFFFFFFFFFF3E
:10D30000FFFFFFFFFFFFFFFFFFFFFFFFFFFFFFFF2D
:10D31000FFFFFFFFFFFFFFFFFFFFFFFFFFFFFFFF1D
:10D32000FFFFFFFFFFFFFFFFFFFFFFFFFFFFFFFF0D
:10D33000FFFFFFFFFFFFFFFFFFFFFFFFFFFFFFFFFD
:10D34000FFFFFFFFFFFFFFFFFFFFFFFFFFFFFFFFED
:10D35000FFFFFFFFFFFFFFFFFFFFFFFFFFFFFFFFDD
:10D36000FFFFFFFFFFFFFFFFFFFFFFFFFFFFFFFFCD
:10D37000FFFFFFFFFFFFFFFFFFFFFFFFFFFFFFFFBD
:10D38000FFFFFFFFFFFFFFFFFFFFFFFFFFFFFFFFAD
:10D39000FFFFFFFFFFFFFFFFFFFFFFFFFFFFFFFF9D
:10D3A000FFFFFFFFFFFFFFFFFFFFFFFFFFFFFFFF8D
:10D3B000FFFFFFFFFFFFFFFFFFFFFFFFFFFFFFFF7D
:10D3C000FFFFFFFFFFFFFFFFFFFFFFFFFFFFFFFF6D
:10D3D000FFFFFFFFFFFFFFFFFFFFFFFFFFFFFFFF5D
:10D3E000FFFFFFFFFFFFFFFFFFFFFFFFFFFFFFFF4D
:10D3F000FFFFFFFFFFFFFFFFFFFFFFFFFFFFFFFF3D
:10D400000000000000000000000000000004000018
:10D41000FF00FF0070080000070707070FF0002B50
:10D420002B2B2B77777777000000001E1E1E1E0423
:10D4300000001000080000000000000000000000D4
:10D4400000000000000000000000000000000000DC
:10D4500000000000000000000000000000000000CC
:10D4600000000000000000000000000000000000BC
:10D4700000000000000000000000000000000000AC
:10D48000FFFFFFFFFFFFFFFFFFFFFFFFFFFFFFFFAC
:10D49000FFFFFFFFFFFFFFFFFFFFFFFFFFFFFFFF9C
:10D4A000FFFFFFFFFFFFFFFFFFFFFFFFFFFFFFFF8C
:10D4B000FFFFFFFFFFFFFFFFFFFFFFFFFFFFFFFF7C
:10D4C000FFFFFFFFFFFFFFFFFFFFFFFFFFFFFFFF6C
:10D4D000FFFFFFFFFFFFFFFFFFFFFFFFFFFFFFFF5C
:10D4E000FFFFFFFFFFFFFFFFFFFFFFFFFFFFFFFF4C
:10D4F000FFFFFFFFFFFFFFFFFFFFFFFFFFFFFFFF3C
:10D50000FFFFFFFFFFFFFFFFFFFFFFFFFFFFFFFF2B
:10D51000FFFFFFFFFFFFFFFFFFFFFFFFFFFFFFFF1B
:10D52000FFFFFFFFFFFFFFFFFFFFFFFFFFFFFFFF0B
:10D53000FFFFFFFFFFFFFFFFFFFFFFFFFFFFFFFFFB
:10D54000FFFFFFFFFFFFFFFFFFFFFFFFFFFFFFFFEB
:10D55000FFFFFFFFFFFFFFFFFFFFFFFFFFFFFFFFDB
:10D56000FFFFFFFFFFFFFFFFFFFFFFFFFFFFFFFFCB
:10D57000FFFFFFFFFFFFFFFFFFFFFFFFFFFFFFFFBB
:10D58000FFFFFFFFFFFFFFFFFFFFFFFFFFFFFFFFAB
:10D59000FFFFFFFFFFFFFFFFFFFFFFFFFFFFFFFF9B
:10D5A000FFFFFFFFFFFFFFFFFFFFFFFFFFFFFFFF8B
:10D5B000FFFFFFFFFFFFFFFFFFFFFFFFFFFFFFFF7B
:10D5C000FFFFFFFFFFFFFFFFFFFFFFFFFFFFFFFF6B
:10D5D000FFFFFFFFFFFFFFFFFFFFFFFFFFFFFFFF5B
:10D5E000FFFFFFFFFFFFFFFFFFFFFFFFFFFFFFFF4B
:10D5F000FFFFFFFFFFFFFFFFFFFFFFFFFFFFFFFF3B
:10D6000000000074090000000F20380D00003500F4
:10D61000002500001D04E4000074090000000F2034
:10D62000380D00003500002500001D04E4000074E2
:10D63000090000000F20380D000035000025000013
:10D640001D04E4000074090000000F20380D0000E4
:10D650003500002500001D04E40000003F00003FED
:10D660000000F3000003000C03000C03000C00009A
:10D6700000000000000000000000000000000000AA
:10D68000FFFFFFFFFFFFFFFFFFFFFFFFFFFFFFFFAA
:10D69000FFFFFFFFFFFFFFFFFFFFFFFFFFFFFFFF9A
:10D6A000FFFFFFFFFFFFFFFFFFFFFFFFFFFFFFFF8A
:10D6B000FFFFFFFFFFFFFFFFFFFFFFFFFFFFFFFF7A
:10D6C000FFFFFFFFFFFFFFFFFFFFFFFFFFFFFFFF6A
:10D6D000FFFFFFFFFFFFFFFFFFFFFFFFFFFFFFFF5A
:10D6E000FFFFFFFFFFFFFFFFFFFFFFFFFFFFFFFF4A
:10D6F000FFFFFFFFFFFFFFFFFFFFFFFFFFFFFFFF3A
:10D70000FFFFFFFFFFFFFFFFFFFFFFFFFFFFFFFF29
:10D71000FFFFFFFFFFFFFFFFFFFFFFFFFFFFFFFF19
:10D72000FFFFFFFFFFFFFFFFFFFFFFFFFFFFFFFF09
:10D73000FFFFFFFFFFFFFFFFFFFFFFFFFFFFFFFFF9
:10D74000FFFFFFFFFFFFFFFFFFFFFFFFFFFFFFFFE9
:10D75000FFFFFFFFFFFFFFFFFFFFFFFFFFFFFFFFD9
:10D76000FFFFFFFFFFFFFFFFFFFFFFFFFFFFFFFFC9
:10D77000FFFFFFFFFFFFFFFFFFFFFFFFFFFFFFFFB9
:10D78000FFFFFFFFFFFFFFFFFFFFFFFFFFFFFFFFA9
:10D79000FFFFFFFFFFFFFFFFFFFFFFFFFFFFFFFF99
:10D7A000FFFFFFFFFFFFFFFFFFFFFFFFFFFFFFFF89
:10D7B000FFFFFFFFFFFFFFFFFFFFFFFFFFFFFFFF79
:10D7C000FFFFFFFFFFFFFFFFFFFFFFFFFFFFFFFF69
:10D7D000FFFFFFFFFFFFFFFFFFFFFFFFFFFFFFFF59
:10D7E000FFFFFFFFFFFFFFFFFFFFFFFFFFFFFFFF49
:10D7F000FFFFFFFFFFFFFFFFFFFFFFFFFFFFFFFF39
:10D80000282C0001FFF4FFF4FFF4FFF400800080F7
:10D810000080008000000000000000000000000008
:10D820000000000000000000000000003000300098
:10D830003000300000000001000000010000000185
:10D8400000000001800200038002008380020003C8
:10D8500080020083000000000000000000000000C3
:10D8600000000000000000000000000000000000B8
:10D8700000000000000000000000000000000000A8
:10D88000FFFFFFFFFFFFFFFFFFFFFFFFFFFFFFFFA8
:10D89000FFFFFFFFFFFFFFFFFFFFFFFFFFFFFFFF98
:10D8A000FFFFFFFFFFFFFFFFFFFFFFFFFFFFFFFF88
:10D8B000FFFFFFFFFFFFFFFFFFFFFFFFFFFFFFFF78
:10D8C000FFFFFFFFFFFFFFFFFFFFFFFFFFFFFFFF68
:10D8D000FFFFFFFFFFFFFFFFFFFFFFFFFFFFFFFF58
:10D8E000FFFFFFFFFFFFFFFFFFFFFFFFFFFFFFFF48
:10D8F000FFFFFFFFFFFFFFFFFFFFFFFFFFFFFFFF38
:10D90000FFFFFFFFFFFFFFFFFFFFFFFFFFFFFFFF27
:10D91000FFFFFFFFFFFFFFFFFFFFFFFFFFFFFFFF17
:10D92000FFFFFFFFFFFFFFFFFFFFFFFFFFFFFFFF07
:10D93000FFFFFFFFFFFFFFFFFFFFFFFFFFFFFFFFF7
:10D94000FFFFFFFFFFFFFFFFFFFFFFFFFFFFFFFFE7
:10D95000FFFFFFFFFFFFFFFFFFFFFFFFFFFFFFFFD7
:10D96000FFFFFFFFFFFFFFFFFFFFFFFFFFFFFFFFC7
:10D97000FFFFFFFFFFFFFFFFFFFFFFFFFFFFFFFFB7
:10D98000FFFFFFFFFFFFFFFFFFFFFFFFFFFFFFFFA7
:10D99000FFFFFFFFFFFFFFFFFFFFFFFFFFFFFFFF97
:10D9A000FFFFFFFFFFFFFFFFFFFFFFFFFFFFFFFF87
:10D9B000FFFFFFFFFFFFFFFFFFFFFFFFFFFFFFFF77
:10D9C000FFFFFFFFFFFFFFFFFFFFFFFFFFFFFFFF67
:10D9D000FFFFFFFFFFFFFFFFFFFFFFFFFFFFFFFF57
:10D9E000FFFFFFFFFFFFFFFFFFFFFFFFFFFFFFFF47
:10D9F000FFFFFFFFFFFFFFFFFFFFFFFFFFFFFFFF37
:10DA0000FFECFFECFFECFFEC00940094009400941A
:10DA10000000000000000000000000000000000006
:10DA200000000000000000000000000000000000F6
:10DA300000010000000100000001000000010000E2
:10DA400000000000000000000000000000000000D6
:10DA500000000000000000000000000000000000C6
:10DA600000000000000000000000000000000000B6
:10DA70000000000000000000000000000000FFFFA8
:10DA8000FFFFFFFFFFFFFFFFFFFFFFFFFFFFFFFFA6
:10DA9000FFFFFFFFFFFFFFFFFFFFFFFFFFFFFFFF96
:10DAA000FFFFFFFFFFFFFFFFFFFFFFFFFFFFFFFF86
:10DAB000FFFFFFFFFFFFFFFFFFFFFFFFFFFFFFFF76
:10F800000100000000000000FFFFFFFFFFFFFFFFFF
:00000001FF
