:1000000002284585A73212339C1233CD1233451294
:1000100033A61233B01232DB1200371233D412334C
:10002000E21233241232EE1233551233DB1233BA9A
:100030001233E98532A72275D180220208C8023323
:100040009CFFFF022EB28D3AAC07A9031233C412F3
:100050003388AF04122DB8123016AF3A122DB812F1
:100060003016AF01122DB812301612327C0233C492
:10007000FFFFFF02337EEC4D6011E8497017ED334E
:10008000EC3304600DE4FCFFFEFD22E933E83304A9
:1000900070F80202261201F158046009E4CC2481B0
:1000A000500628500902023028400302022DC0E009
:1000B000EB4A7044B98006D0E0FB02021CEF4E70A0
:1000C0001CBD8008EBFFEAFEE9FD80EBE98DF0A4A2
:1000D000FEE5F002015FE9CDF9EAFEEBFFEF89F002
:1000E000A4FCE5F0CE89F0A42EFFE435F0CD89F034
:1000F000A42DFEE435F08067EF4E7005BD80D780FB
:10010000C3EF8BF0A4ACF0EE8BF0A42CFCE435F044
:10011000F8EF8AF0A42CE5F038FCE433CB8DF0A4A2
:100120002CFCE5F03BF8EE8AF0A42CFCE5F038F866
:10013000E433CF89F0A42CFCE5F038CF3400CE892D
:10014000F0A42FFFE5F03EFEE433C98DF0A42EFEAF
:10015000E5F039CD8AF0A42FFFE5F03EFEE43DFD49
:1001600033D0E0FB50070BBB000F020230EC2CFC3D
:10017000EF33FFEE33FEED33FD02020875F0208011
:100180000E75F010800575F0087D007E007F00334D
:1001900092D530D5031203BDEC334010EF33FFEEA0
:1001A00033FEED33FDEC33FCD5F0ED22E5F0247E9B
:1001B000A2D513CC92E7CDCEFF22EDD2E7CD33EC22
:1001C0003392D524814006E4FFFEFDFC22FCE4CFFF
:1001D000CECDCC24E0501174FF80EDC3CC13CCCD38
:1001E00013CDCE13CECF13CF0470F030D5DE020383
:1001F000BDE9D2E7C933E833F892D5EDD2E7CD3384
:10020000EC33FC5002B2D522EC30E7100FBF000CEB
:100210000EBE00080DBD00040BEB6014A2D5EB135D
:10022000FCED92E7FD2274FFFCFDFEFF22E480F866
:10023000A2D574FF13FC7D80E480EFE709F608DFA8
:10024000FA8046E709F208DFFA803E88828C83E76D
:1002500009F0A3DFFA8032E309F608DFFA8078E3D9
:1002600009F208DFFA807088828C83E309F0A3DF4B
:10027000FA806489828A83E0A3F608DFFA805889CD
:10028000828A83E0A3F208DFFA804C80D280FA8071
:10029000C680D4806980F28033801080A680EA8096
:1002A0009A80A880DA80E280CA803389828A83ECCF
:1002B000FAE493A3C8C582C8CCC583CCF0A3C8C553
:1002C00082C8CCC583CCDFE9DEE7800D89828A83D2
:1002D000E493A3F608DFF9ECFAA9F0EDFB2289829A
:1002E0008A83ECFAE0A3C8C582C8CCC583CCF0A34E
:1002F000C8C582C8CCC583CCDFEADEE880DB898252
:100300008A83E493A3F208DFF980CC88F0EF6001E0
:100310000E4E60C388F0ED2402B4040050B9F5829B
:10032000EB2402B4040050AF232345822390028BB8
:1003300073BB010689828A83E0225002E722BBFE5A
:1003400002E32289828A83E49322BB010689828A9E
:1003500083F0225002F722BBFE01F322EF8DF0A4BE
:10036000A8F0CF8CF0A428CE8DF0A42EFE22E88F2A
:10037000F0A4CC8BF0A42CFCE98EF0A42CFC8AF029
:10038000EDA42CFCEA8EF0A4CDA8F08BF0A42DCC2B
:100390003825F0FDE98FF0A42CCD35F0FCEB8EF084
:1003A000A4FEA9F0EB8FF0A4CFC5F02ECD39FEE46A
:1003B0003CFCEAA42DCE35F0FDE43CFC22C3E49FD6
:1003C000FFE49EFEE49DFDE49CFC22E86010ECA2AC
:1003D000E713FCED13FDEE13FEEF13FFD8F022D070
:1003E00083D082F8E4937012740193700DA3A393E9
:1003F000F8740193F5828883E4737402936860EF64
:10040000A3A3A380DFEF4E6012EF60010EEDBB01EE
:100410000B89828A83F0A3DFFCDEFA2289F0500781
:10042000F709DFFCA9F022BBFEFCF309DFFCA9F011
:100430002275F008758200EF2FFFEE33FECD33CD2D
:10044000CC33CCC58233C5829BED9AEC99E582987A
:10045000400CF582EE9BFEED9AFDEC99FC0FD5F079
:10046000D6E4CEFBE4CDFAE4CCF9A88222B800C1F0
:10047000B90059BA002DEC8BF084CFCECDFCE5F05D
:10048000CBF97818EF2FFFEE33FEED33FDEC33FCA4
:10049000EB33FB10D703994004EB99FB0FD8E5E44D
:1004A000F9FA227818EF2FFFEE33FEED33FDEC332F
:1004B000FCC933C910D7059BE99A4007EC9BFCE9BE
:1004C0009AF90FD8E0E4C9FAE4CCFB2275F010EFFA
:1004D0002FFFEE33FEED33FDCC33CCC833C810D73D
:1004E000079BEC9AE899400AED9BFDEC9AFCE89991
:1004F000F80FD5F0DAE4CDFBE4CCFAE4C8F92290A9
:10050000007FE01203DF054000057201059102053E
:10051000B00305F180068188071090075591077494
:10052000A00793A107B2A207D1A307F0A8080EA9BC
:10053000082CAA084AAB0865B00881D0000008C79B
:10054000900239E0C3940150030208C77B017A008E
:100550007900753900753A807F007EC8122CDC7BEB
:10056000017A0079807537007538807F807EC802F7
:100570002DF3900239E0C3940150030208C77B01B8
:100580007A007980753900753A807F007ECA02084A
:100590007E900239E0C3940150030208C77B017AC0
:1005A000007980753900753A807F007ECC02087E24
:1005B000900239E0C3940140257B017A007980756F
:1005C0003900753A807F007ECE122CDC78A77C0142
:1005D0007D017B017A0079807E007F808010781118
:1005E0007C027D017B017A0079EA7E007F080203AC
:1005F0000B900239E0D3940150030208C790025EC9
:10060000E0D394F040529000FFE0640160030208E0
:10061000C79000F8E0900359F09000F9E090035A79
:10062000F09000FEE0FF90035FF0BF0112900359CD
:10063000E0FD7F181231A690035AEFF00206E19018
:10064000035FE060030206E1900359E0FDA3E0FBD5
:100650007F181200460206E17B017A007980753925
:1006600000753A787F007ED0122CDC78E17C027D28
:10067000017B017A0079807E007F7812030B0217DC
:100680007B900239E0D3940150030208C790025EC8
:10069000E0D394F040519000FFE064016003020851
:1006A000C79000F8E09003DAF09000F9E09003DBE7
:1006B000F09000FEE0FF9003E0F0BF01119003DA3C
:1006C000E0FD7F161231A69003DBEFF0801390035C
:1006D000E0E0700D9003DAE0FDA3E0FB7F1612006E
:1006E00046E49000FFF0227B017A007980753900A2
:1006F000753A787F007ED2122CDC78627C037D0113
:100700007B017A0079807E007F7812030B021DC77F
:10071000900239E0D3940150030208C778F87C00B6
:100720007D017B017A01799B7E007F0812030B7BA0
:10073000017A007980753900753A807F007ED41285
:100740002CDC7B017A0179237537007538807F00B6
:100750007ED4022D24900239E0D394015003020884
:10076000C77B017A007980753900753A807F007EF9
:10077000D602087E900239E0D3940150030208C7E4
:100780007B017A007980753900753A807F007ED8C8
:1007900002087E900239E0D3940150030208C77B1F
:1007A000017A007980753900753A807F007EDA021F
:1007B000087E900239E0D3940150030208C77B0100
:1007C0007A007980753900753A807F007EDC0208F6
:1007D0007E900239E0D3940150030208C77B017A6E
:1007E000007980753900753A807F007EDE02087ED0
:1007F000900239E0D3940150030208C77B017A00CC
:100800007980753900753A807F007EE080709002B3
:1008100039E0D3940150030208C77B017A00798044
:10082000753900753A807F007EE28052900239E08F
:10083000D3940150030208C77B017A00798075398F
:1008400000753A807F007EE48034900239E0D394D2
:100850000140747B017A007980753900753A807F98
:10086000007EE68019900239E0D3940140597B0163
:100870007A007980753900753A807F007EF6022C07
:10088000DC900239E0D39401403D90025EE06424A4
:100890007035900261E06411702DA3E0642270272E
:1008A000A3E064337021A3E0B4551CA3E0B4661741
:1008B000A3E0B455127B557D017F007EF8122E7F98
:1008C000780076A575EF1222C0E0C0F0C083C08228
:1008D000C0D075D000C000C001C002C003C004C0B9
:1008E00005C006C00775210075220030C203020B47
:1008F000F6E5C054F070030209E524F07003020A23
:100900000824D07003020B3A24F07003020BEA248F
:10091000306003020BEEC2C5900237E5C2F09002D0
:100920005DE4F0900238F0900237E0FF54FE64A0DE
:1009300060030209E0EF20E0030209DB90025EE0C1
:10094000FFC394805074EF9415402FEF943A502ACF
:10095000EF20E0102401F582E43400F583E09002FA
:100960005CF0803190025CE0FF90025EE02400F5D4
:1009700082E43400F583EFF0801B90025EE0FFD349
:1009800094764011EF947F500C74002FF582E4347C
:1009900000F583E4F090025EE0FF2400F582E43489
:1009A00000F583E0F5C2EFD39402402F90025EE0A1
:1009B000FF940F5026122166802190007FE0900264
:1009C0005EB4030AE02427F582E434018008E024C1
:1009D00000F582E43400F583E0F5C2D2C1020BFCDD
:1009E000C2C1020BFC90025DE02460F582E4340297
:1009F000F583E5C2F0900260E090025EF090025D47
:100A0000E004F0D2C1020BFCC2C490025DE0FFC35F
:100A100094025003020B3290025B7401F0EF1490C9
:100A2000025FF090025EE0647F705190025DE064CE
:100A3000027049900261E090007FF070147B017AAF
:100A4000007980F5377538807F807EC8122D24802C
:100A50001A90007FE0B4031B78807C007D017B014D
:100A60007A0179A77E007F8012030B90023AE4F0AE
:100A7000020B3290023A7401F0020B3290025EE0F7
:100A8000B4561090025DE0B4020990023A7402F08C
:100A9000020B3290025EE0FFB45D1090025DE0B4A4
:100AA000020990023A7403F0020B32EFB4620F9025
:100AB000025DE0B4020890023A7404F0807490027F
:100AC0005EE0FFC3947B400EEFD3947E500890020B
:100AD0003A7405F0805C90025EE0FFC39477400EAC
:100AE000EFD3947A500890023A7406F08044900252
:100AF0005FE0FF90025EE0FD2FFFE433FED3EF9452
:100B000000EE648094814005EDF404A3F090025F50
:100B1000E0FF7E0090025EE02400F9E43400A801CA
:100B2000FC7D017B017A02796112030B90023A7419
:100B300007F090025DE4F0020BFC20C103020BFC05
:100B400090025EE004F0E0FFC39480507AEF9415C9
:100B5000402FEF943A502AEF20E0102401F582E470
:100B60003400F583E090025CF0803190025CE0FF9D
:100B700090025EE02400F582E43400F583EFF0801B
:100B80001B90025EE0FFD394764011EF947F500CEF
:100B900074002FF582E43400F583E4F090025EE007
:100BA000FF2400F582E43400F583E0F5C2EFD3942E
:100BB00002400C90025EE0FF940F500312216690F9
:100BC00002387401F0803590007FE090025EB4033B
:100BD0000AE02427F582E434018008E02400F5824D
:100BE000E43400F583E0F5C28012C2C4800E53C124
:100BF0007F43C1808000C2C5C2C4C2C1C2C0D00789
:100C0000D006D005D004D003D002D001D000D0D07F
:100C1000D082D083D0F0D0E032E4F532F533F53431
:100C2000F535EF147003020CD8147003020D75141F
:100C30007003020E1424036003020EB5E4FFFE12DB
:100C400029BE9003F7EEF0A3EFF0900304E075F0F7
:100C500043A485F032F533E532C313FCE53313FDCD
:100C60009003F7E0FEA3E0FF2DF535EE3CF5349060
:100C7000012A122E379003F7EEF0A3EFF090013A1D
:100C8000E0FDA3E0FBA3E0F53AA3E0F53BAF35AE12
:100C900034122E448E348F35900056E020E00790B9
:100CA0000407E0B4011AE490002AF0A3F0900032A7
:100CB000F0A3F090000BE04450F090000D020DF70F
:100CC0009003F7E0FCA3E0FDEC90002AF0A3EDF028
:100CD000E534900032020EB07F107E001229BE90E3
:100CE00003F9EEF0A3EFF0900305E075F043A4855F
:100CF000F032F533E532C313FCE53313FD9003F90D
:100D0000E0FEA3E0FF2DF535EE3CF53490012E1208
:100D10002E379003F9EEF0A3EFF090013EE0FDA333
:100D2000E0FBA3E0F53AA3E0F53BAF35AE34122E7D
:100D3000448E348F35900056E020E107900407E0A0
:100D4000B4011AE490002CF0A3F0900034F0A3F06A
:100D500090000BE04405F090000D020E969003F910
:100D6000E0FCA3E0FDEC90002CF0A3EDF0E5349066
:100D70000034020EB07F207E001229BE9003FBEEED
:100D8000F0A3EFF0900306E075F043A485F032F590
:100D900033E532C313FCE53313FD9003FBE0FEA300
:100DA000E0FF2DF535EE3CF534900132122E3790F0
:100DB00003FBEEF0A3EFF0900142E0FDA3E0FBA304
:100DC000E0F53AA3E0F53BAF35AE34122E448E3455
:100DD0008F35900056E020E207900407E0B4011C34
:100DE000E490002EF0A3F0900036F0A3F090000CF9
:100DF000E04450F090000EE04450F0229003FBE0FD
:100E0000FCA3E0FDEC90002EF0A3EDF0E5349000A3
:100E100036020EB07F307E001229BE9003FDEEF048
:100E2000A3EFF0900307E075F043A485F032F533AB
:100E3000E532C313FCE53313FD9003FDE0FEA3E0B0
:100E4000FF2DF535EE3CF534900136122E37900328
:100E5000FDEEF0A3EFF0900146E0FDA3E0FBA3E080
:100E6000F53AA3E0F53BAF35AE34122E448E348F05
:100E700035900056E020E307900407E0B4011CE43D
:100E8000900030F0A3F0900038F0A3F090000CE058
:100E90004405F090000EE04405F0229003FDE0FCD4
:100EA000A3E0FDEC900030F0A3EDF0E534900038C5
:100EB000F0A3E535F022E4FD7F181231A69002E19F
:100EC000EFF07D017F181231A69002E2EFF07D0273
:100ED0007F181231A69002ECEFF07D037F181231DB
:100EE000A69002EDEFF07D047F181231A69002EE7D
:100EF000EFF07D057F181231A69002EFEFF07D1024
:100F00007F181231A69002F0EFF07D117F18123198
:100F1000A69002F1EFF07D167F181231A69002F232
:100F2000EFF07D177F181231A69002E3EFF07D18E5
:100F30007F181231A69002E4EFF07D197F1812316C
:100F4000A69002F3EFF07D1A7F181231A69002E509
:100F5000EFF07D1B7F181231A69002F4EFF07D1C9C
:100F60007F181231A69002F5EFF07D1D7F18123127
:100F7000A69002F6EFF07D217F181231A69002F7BD
:100F8000EFF07D227F181231A69002F8EFF07D235A
:100F90007F181231A69002F9EFF07D257F181231EB
:100FA000A69002FAEFF07D267F181231A69002FB80
:100FB000EFF07D277F181231A69002FCEFF07D281C
:100FC0007F181231A69002FDEFF07D407F1812319C
:100FD000A69002FEEFF07D417F181231A69002FF2D
:100FE000EFF07D427F181231A6900300EFF07D43B1
:100FF0007F181231A6900301EFF07D447F18123163
:10100000A6900302EFF07D457F181231A6900303EE
:10101000EFF07D467F181231A6900304EFF07D4774
:101020007F181231A6900305EFF07D487F1812312A
:10103000A6900306EFF07D497F181231A6900307B2
:10104000EFF07D4A7F181231A6900308EFF07D4B38
:101050007F181231A6900309EFF07D4C7F181231F2
:10106000A690030AEFF07D4D7F181231A690030B76
:10107000EFF07D4E7F181231A690030CEFF07D4FFC
:101080007F181231A690030DEFF07D507F181231BA
:10109000A690030EEFF07D517F181231A690030F3A
:1010A000EFF07D527F181231A6900310EFF07D5EB5
:1010B0007F181231A6900311EFF07D5F7F18123177
:1010C000A6900312EFF07D607F181231A6900313F3
:1010D000EFF07D627F181231A6900314EFF07D6867
:1010E0007F181231A69002E6EFF07D697F18123169
:1010F000A69002E7EFF07D907F181231A6900315BD
:10110000EFF07D927F181231A6900316EFF07D82EA
:101110007F181231A6900317EFF02290007FE012A3
:1011200003DF11530111660211798011968811B302
:101130009011D9911231A01250A1126FA2128EA358
:1011400012ADA812CCA912E9AA1306AB1323B00062
:101150000013617B017A0079807537007538807FD4
:10116000007ECA02134F7B017A00798075370075C3
:1011700038807F007ECC02134F900239E0D3940177
:101180005003021361120EB678807C007D017B0152
:101190007A0279E1803C900239E0D3940150030255
:1011A0001361121AF678807C007D017B017A037945
:1011B00062801F900239E0D39401407290019D74C7
:1011C00002F0A37417F078807C007D017B017A0126
:1011D00079237E007F8002030B900239E0D39401D3
:1011E000404C78807C007D017B017A0279277E006B
:1011F0007F1012030B78907C007D017B017A0179CE
:10120000007E007F1012030B78A07C007D017B0123
:101210007A0179107E007F1012030B7B017A00792E
:10122000807537007538807F007ED602134F021319
:1012300052900239E0D3940140137B017A00798007
:101240007537007538807F007ED802134F02135225
:10125000900239E0D3940140137B017A00798075C4
:1012600037007538807F007EDA02134F02135290E8
:101270000239E0D3940140137B017A0079807537FD
:10128000007538807F007EDC02134F0213529002FB
:1012900039E0D3940140137B017A007980753700DF
:1012A0007538807F007EDE02134F021352900239A0
:1012B000E0D3940140137B017A0079807537007583
:1012C00038807F007EE002134F021352900239E013
:1012D000D3940140127B017A00798075370075380C
:1012E000807F007EE280688069900239E0D39401BB
:1012F00040127B017A0079807537007538807F0055
:101300007EE4804B804C900239E0D3940140127B04
:10131000017A0079807537007538807F007EE6801D
:101320002E802F900239E0D39401402678807C00F3
:101330007D017B017A02793B7E007F2012030B7BCB
:10134000017A0079A07537007538607F207EF6023B
:101350002D247E007F807DFF7B017A00798012043E
:101360000522EF24FE70030213F7147003021473B6
:101370001470030214ED2403600302156A7F031244
:10138000314290014A122E35AC06AD07D3ED9400E0
:10139000EC94F04003E4FCFDD390015BE09D9001F0
:1013A0005AE09C4019900217E090037D30E406E07B
:1013B00054F7F08004E04408F0E49003F2F0D39096
:1013C000015DE09D90015CE09C500D90037DE05438
:1013D000F7F09003F27401F09003F2E0B40106908C
:1013E0000022021554E4900022F0A304F0900003C0
:1013F000E04401F002156A7F02123142AC0690010E
:101400004E122E37AC06AD07D3ED9400EC94F040AD
:1014100003E4FCFDD390015FE09D90015EE09C4001
:1014200019900217E090037D30E506E054FBF08050
:1014300004E04404F0E49003F3F0D3900161E09DF4
:10144000900160E09C500D90037DE054FBF0900310
:10145000F37401F09003F3E0B40106900024021548
:1014600054E4900024F0A304F0900003E04402F060
:1014700002156A7F01123142AC06900152122E37DA
:10148000AC06AD07D3ED9400EC94F04003E4FCFD12
:10149000D3900163E09D900162E09C401990021797
:1014A000E090037D30E606E054FDF08004E0440265
:1014B000F0E49003F4F0D3900165E09D900164E0C6
:1014C0009C500D90037DE054FDF09003F47401F006
:1014D0009003F4E0B401059000268078E4900026A3
:1014E000F0A304F0900003E04404F0807DE4FF12D8
:1014F0003142AC06900156122E37AC06AD07D3ED43
:101500009400EC94F04003E4FCFDD3900167E09D6F
:10151000900166E09C4019900217E090037D30E74F
:1015200006E054FEF08004E04401F0E49003F5F09E
:10153000D3900169E09D900168E09C500D90037D7F
:10154000E054FEF09003F57401F09003F5E0B4016F
:101550000A900028ECF0A3EDF0800FE4900028F052
:10156000A304F0900003E04408F090037DE0FB90BA
:1015700003F1E06B60077D407F1612004690037D0B
:10158000E09003F1F0227BF07D107F18120046906E
:1015900002ECE0FB7D027F181200469002EDE0FBBA
:1015A0007D037F181200469002EEE0FB7D047F1859
:1015B0001200469002EFE0FB7D057F181200469076
:1015C00002F1E0FB7D117F181200469002F2E0FB71
:1015D0007D167F181200469002F3E0FB7D197F18FC
:1015E0001200469002F4E0FB7D1B7F18120046902B
:1015F00002F5E0FB7D1C7F181200469002F6E0FB2E
:101600007D1D7F181200469002F7E0FB7D217F18B8
:101610001200469002F8E0FB7D227F1812004690EF
:1016200002F9E0FB7D237F181200469002FAE0FBEE
:101630007D257F181200469002FBE0FB7D267F1877
:101640001200469002FCE0FB7D277F1812004690B6
:1016500002FDE0FB7D287F181200469002FEE0FBB1
:101660007D407F18120046900308E0FB7D4A7F18FA
:10167000120046900309E0FB7D4B7F181200469054
:10168000030AE0FB7D4C7F1812004690030BE0FB41
:101690007D4D7F1812004690030CE0FB7D4E7F18B5
:1016A00012004690030DE0FB7D4F7F18120046901C
:1016B000030EE0FB7D507F1812004690030FE0FB05
:1016C0007D517F18120046900310E0FB7D527F1879
:1016D000120046900311E0FB7D5E7F1812004690D9
:1016E0000312E0FB7D5F7F18120046900313E0FBBE
:1016F0007D607F18120046900314E0FB7D627F1826
:10170000120046900300E0FB7D427F1812004690D5
:101710000301E0FB7D437F18120046900302E0FBCB
:101720007D447F18120046900303E0FB7D457F183F
:10173000120046900304E0FB7D467F18120046909D
:101740000305E0FB7D477F18120046900306E0FB8F
:101750007D487F18120046900307E0FB7D497F1803
:101760001200469002FFE0FB7D417F181200469078
:101770000317E0FB7D827F180200469002ECE0FB3D
:101780007D027F181200469002EDE0FB7D037F187A
:101790001200469002EEE0FB7D047F181200469096
:1017A00002EFE0FB7D057F181200469002F0E0FB9F
:1017B0007D107F181200469002F1E0FB7D117F182A
:1017C0001200469002F2E0FB7D167F181200469050
:1017D00002F3E0FB7D197F181200469002F4E0FB53
:1017E0007D1B7F181200469002F5E0FB7D1C7F18E0
:1017F0001200469002F6E0FB7D1D7F181200469015
:1018000002F7E0FB7D217F181200469002F8E0FB12
:101810007D227F181200469002F9E0FB7D237F189D
:101820001200469002FAE0FB7D257F1812004690D8
:1018300002FBE0FB7D267F181200469002FCE0FBD5
:101840007D277F181200469002FDE0FB7D287F185F
:101850001200469002FEE0FB7D407F181200469089
:101860000308E0FB7D4A7F18120046900309E0FB65
:101870007D4B7F1812004690030AE0FB7D4C7F18D9
:1018800012004690030BE0FB7D4D7F18120046903E
:10189000030CE0FB7D4E7F1812004690030DE0FB29
:1018A0007D4F7F1812004690030EE0FB7D507F189D
:1018B00012004690030FE0FB7D517F181200469006
:1018C0000310E0FB7D527F18120046900311E0FBED
:1018D0007D5E7F18120046900312E0FB7D5F7F184B
:1018E000120046900300E0FB7D427F1812004690F4
:1018F0000301E0FB7D437F18120046900302E0FBEA
:101900007D447F18120046900303E0FB7D457F185D
:10191000120046900304E0FB7D467F1812004690BB
:101920000305E0FB7D477F18120046900306E0FBAD
:101930007D487F18120046900307E0FB7D497F1821
:101940001200469002FFE0FB7D417F181200469096
:101950000317E0FB7D827F18020046E4FDFC900047
:1019600022E0FEA3E0FBEEF532EBF533A3E0FEA3AD
:10197000E0FBEEF534EBF535A3E0FEA3E0FBEEF57E
:1019800036EBF537A3E0FEA3E0FBEEF538EBF539D7
:101990009001D7E0FEA3E0FBEEF53AEBF53BA3E0C8
:1019A000FEA3E0FBEEF53CEBF53DA3E0FEA3E0FB80
:1019B000EEF53EEBF53FA3E0FEA3E0FBEBFFC3E556
:1019C000339FE5329E50027D10D3E533953FE532DB
:1019D000953E4003430520C3E533953DE532953CF4
:1019E0005003430540D3E533953BE532953A400338
:1019F000430580C3E5359FE5349E5003430501D37D
:101A0000E535953FE534953E4003430502C3E53592
:101A1000953DE534953C5003430504D3E535953BAE
:101A2000E534953A4003430508C3E5379FE5369E04
:101A30005003430410D3E537953FE536953E400308
:101A4000430420C3E537953DE536953C50034304F8
:101A500040D3E537953BE536953A4003430480C3D0
:101A6000E5399FE5389E5003430401D3E539953F9E
:101A7000E538953E4003430402C3E539953DE5381A
:101A8000953C5003430404D3E539953BE538953A3A
:101A90004003430408900009E0FFD394004005EDA3
:101AA0007002AD0790000AE0FFD394004005EC708F
:101AB00002AC079003E2EDF0900009F09003E5EC32
:101AC000F090000AF0900219E0F45D6010C282907C
:101AD0000002E054FDF09003EFE04410F090021A91
:101AE000E0F45C6010C282900002E054FDF09003CC
:101AF000EFE04420F022E4FD7F161231A69003624D
:101B0000EFF07D017F161231A6900363EFF07D02A6
:101B10007F161231A690036BEFF07D037F16123112
:101B2000A690036CEFF07D047F161231A690036D32
:101B3000EFF07D057F161231A690036EEFF07D1059
:101B40007F161231A690036FEFF07D117F161231D0
:101B5000A6900370EFF07D167F161231A6900371E8
:101B6000EFF07D177F161231A6900364EFF07D1819
:101B70007F161231A6900365EFF07D197F161231A2
:101B8000A6900372EFF07D1A7F161231A6900366BD
:101B9000EFF07D1B7F161231A6900373EFF07D20CE
:101BA0007F161231A6900374EFF07D217F1612315B
:101BB000A6900375EFF07D227F161231A690037672
:101BC000EFF07D237F161231A6900377EFF07D248E
:101BD0007F161231A6900378EFF07D257F16123123
:101BE000A6900379EFF07D267F161231A690037A36
:101BF000EFF07D277F161231A690037BEFF07D2852
:101C00007F161231A690037CEFF07D407F161231D3
:101C1000A690037DEFF07D417F161231A690037EE2
:101C2000EFF07D427F161231A690037FEFF07D43E7
:101C30007F161231A6900380EFF07D447F1612319B
:101C4000A6900381EFF07D457F161231A6900382A6
:101C5000EFF07D467F161231A6900383EFF07D47AB
:101C60007F161231A6900384EFF0224103610060D9
:101C700020023B534C424636345133324D4C4433B0
:101C800037303435434D5441333730343443010019
:101C90000000006081026000000000000000000001
:101CA0000000000000000000000000000000000034
:101CB0000000000000000000000000000000000024
:101CC0000000000000000000000000000000000014
:101CD0000000000000000000000000000000000004
:101CE00000000000000000000000000000000000F4
:101CF00000000000000000000000000000000000E4
:101D000000000000000000000000000000000000D3
:101D1000000000000000000041025E0041023700A8
:101D200041025D004102390041025B00410238007E
:101D300041040FAA410410AA4104110042012100EC
:101D400000410120024103ED004103E7004103EBA4
:101D5000004103F0004103E8004103E2004103E5D4
:101D6000004103E9004103EC004103E4004103E6C4
:101D7000004203EE00004103EA004103E301410396
:101D8000F2014103F3014103F4014103F501410371
:101D9000F6004103F1004104080041040A01410436
:101DA0000700410409004104010041040600410309
:101DB000FF064104000641040200410403004104FF
:101DC0000402410405020090036CE0FB7D037F16D2
:101DD00012004690036DE0FB7D047F1612004690D2
:101DE000036EE0FB7D057F1612004690036FE0FB5B
:101DF0007D107F16120046900370E0FB7D117F1668
:101E0000120046900371E0FB7D167F16120046908B
:101E10000372E0FB7D197F16120046900373E0FB0E
:101E20007D1B7F16120046900374E0FB7D207F1619
:101E3000120046900375E0FB7D217F16120046904C
:101E40000376E0FB7D227F16120046900377E0FBCD
:101E50007D237F16120046900378E0FB7D247F16D9
:101E6000120046900379E0FB7D257F161200469014
:101E7000037AE0FB7D267F1612004690037BE0FB91
:101E80007D277F1612004690037CE0FB7D287F169D
:101E900012004690037DE0FB7D407F1612004690C5
:101EA000037EE0FB7D417F1612004690037FE0FB3E
:101EB0007D427F16120046900380E0FB7D437F1633
:101EC000120046900381E0FB7D447F16120046908D
:101ED0000382E0FB7D457F16120046900383E0FB02
:101EE0007D467F16120046900384E0FB7D477F16F7
:101EF000120046900385E0FB7D827F160200467B40
:101F0000F07D107F1612004690036CE0FB7D037F8E
:101F10001612004690036DE0FB7D047F161200460A
:101F200090036EE0FB7D057F16120046900370E083
:101F3000FB7D117F16120046900371E0FB7D167F3A
:101F400016120046900372E0FB7D197F16120046C0
:101F5000900373E0FB7D1B7F16120046900374E034
:101F6000FB7D207F16120046900375E0FB7D217FEC
:101F700016120046900376E0FB7D227F1612004683
:101F8000900377E0FB7D237F16120046900378E0F4
:101F9000FB7D247F16120046900379E0FB7D257FB0
:101FA0001612004690037AE0FB7D267F161200464B
:101FB00090037BE0FB7D277F1612004690037CE0B8
:101FC000FB7D287F1612004690037DE0FB7D407F5D
:101FD0001612004690037EE0FB7D417F16120046FC
:101FE00090037FE0FB7D427F16120046900380E065
:101FF000FB7D437F16120046900381E0FB7D447F0A
:1020000016120046900382E0FB7D457F16120046C3
:10201000900383E0FB7D467F16120046900384E028
:10202000FB7D477F16120046900385E0FB7D827F93
:1020300016020046EF24FE60591470030220D814E3
:10204000700302211D240360030221659003F6E062
:10205000FF3395E0FEE42FFFEE34D8FE12321D90E0
:102060000300EFF09003F6E0FF3395E0FEE42FFF6E
:10207000EE34E0FE12321D900304EFF0900300E016
:10208000FB7D427F18120046900304E0FB7D460270
:1020900021609003F6E0FF3395E0FEE42FFFEE347D
:1020A000DAFE12321D900301EFF09003F6E0FF33E9
:1020B00095E0FEE42FFFEE34E2FE12321D900305A0
:1020C000EFF0900301E0FB7D437F18120046900380
:1020D00005E0FB7D470221609003F6E0FF3395E0C9
:1020E000FEE42FFFEE34DCFE12321D900302EFF00F
:1020F0009003F6E0FF3395E0FEE42FFFEE34E4FEBC
:1021000012321D900306EFF0900302E0FB7D447F46
:1021100018120046900306E0FB7D4880439003F6CA
:10212000E0FF3395E0FEE42FFFEE34DEFE12321DB9
:10213000900303EFF09003F6E0FF3395E0FEE42F09
:10214000FFEE34E6FE12321D900307EFF09003031A
:10215000E0FB7D457F18120046900307E0FB7D49B8
:102160007F1812004622EF24FDB40C004003022227
:102170004690217F75F003A4C58325F0C5837302C3
:1021800021A30221AB0221BA0221D00221DE0222C8
:10219000460221F802221202222C02223302223AA3
:1021A000022241E4900003F0022246E4900004F091
:1021B0009003EFE054FDF0022246900005E0FF900E
:1021C00003EBE0F4FEEF5E900005F09003EE800874
:1021D000E4900006F09003EFE054FBF0806890007C
:1021E00007E0FF9003E8E0F4FEEF5E900007F09058
:1021F00003EFE054F7F0804E900009E0FF9003E217
:10220000E0F4FEEF5E900009F09003EFE054EFF091
:10221000803490000AE0FF9003E5E0F4FEEF5E906A
:10222000000AF09003EFE054DFF0801AE490000B16
:10223000F08013E490000CF0800CE490000DF0802E
:1022400005E490000EF09003EEE07002A3E0700948
:10225000900002E04402F0D28222EFB40A00400370
:1022600002232390226AF82828730222880222BBC4
:102270000222CA0222D90222E80222F80222FC0229
:102280002300022304022309123087122C3E7F0D03
:102290001231E512324D7F111231E5EF25E0FFEEEC
:1022A0003390019FF0A3EFF07F101231E5EF25E0AE
:1022B000FFEE339001A1F0A3EFF02290016FE060F8
:1022C000057F01122034E4FF802B90016FE0600550
:1022D0007F021220347F01801C90016FE060057F37
:1022E000031220347F02800D90016FE060057F04AF
:1022F0001220347F03020C197F01800A7F028006BE
:102300007F0380027F04021362900411E0B401098C
:1023100012232412249E12195B90007FE0B4030361
:10232000122C8F22E4FD900016E0FEA3E0FBEEF5F8
:1023300032EBF5339001A7E0FEA3E0FBEEF534EBC2
:10234000F535A3E0FEA3E0FBEEF536EBF537A3E0B1
:10235000FEA3E0FBEEF538EBF539A3E0FEA3E0FBCE
:10236000EBFF900067E0FCC3E5339FEE6480F8E587
:102370003264809850027D10D3E5339539E5386496
:1023800080F8E5326480984003430520C3E5339527
:1023900037E5366480F8E5326480985003430540A1
:1023A000D3E5339535E5346480F8E53264809840B0
:1023B00003430580900006E0FFD394004005ED70D4
:1023C00002AD079003F0EDF04F900006F0ECF45DE5
:1023D0006010C282900002E054FDF09003EFE044F0
:1023E00004F022900062E0FFFE9003E3E0FDEF6D59
:1023F0007003022495EE90036F30E006E054F7F08E
:102400008004E04408F0EE90036F30E106E054FBF6
:10241000F08004E04404F0EE90036F30E206E054F4
:10242000FDF08004E04402F0EE90036F30E306E03C
:1024300054FEF08004E04401F0EE9002F030E40637
:10244000E054FEF08004E04401F0EE9002F030E54C
:1024500006E054FDF08004E04402F0EE9002F0301B
:10246000E606E054FBF08004E04404F0EE9002F055
:1024700030E706E054F7F08004E04408F090036F82
:10248000E0FB7D107F161200469002F0E0FB7D100D
:102490007F18120046900062E09003E3F022E4FD12
:1024A00090001AE0FEA3E0FBEEF532EBF53390016D
:1024B000B7E0FEA3E0FBEEF534EBF535A3E0FEA3B9
:1024C000E0FBEEF536EBF537A3E0FEA3E0FBEEF51F
:1024D00038EBF539A3E0FEA3E0FBEBFF900068E0EA
:1024E000FCC3E5339FE5329E50027D10D3E5339562
:1024F00039E53295384003430520C3E5339537E588
:102500003295365003430540D3E5339535E5329592
:10251000344003430580900007E0FFD3940040055A
:10252000ED7002AD079003E8EDF0900007F0ECF4D9
:102530005D6010C282900002E054FDF09003EFE075
:102540004408F02290025BE0640160030225E19000
:10255000023AE024FE601E14602814603214603CCD
:1025600024FE607524067074900261E090007FF094
:1025700012111B8067900261E0900056F01228D47F
:10258000805A900261E090005DF0122A82804D90A6
:102590000261E0900062F01223E38040E4FFFE90CD
:1025A000025FE0FDC3EF9DEE9400502874612FF5AB
:1025B0008274023EF583E0FD90025EE02FFBE43E74
:1025C000FA74002BF58274003AF583EDF00FBF002A
:1025D000010E80CB122B3F80031204FFE490025BBC
:1025E000F022900211E0F533A3E0F5349003FFE010
:1025F0006533603BE53354F0C4540FF5322427F5BE
:1026000082E43402F583E09002FAF0FB7D257F1826
:10261000120046E533540FF5322427F582E43402E4
:10262000F583E09002FBF0FB7D267F1812004690B8
:102630000400E06534603BE53454F0C4540FF532D7
:102640002427F582E43402F583E09002FCF0FB7D60
:10265000277F18120046E534540FF5322427F582FF
:10266000E43402F583E09002FDF0FB7D287F181230
:1026700000469003FFE533F0A3E534F02290021505
:10268000E0F533A3E0F534900404E06533603BE506
:102690003354F0C4540FF5322410F582E43401F5BC
:1026A00083E0900382F0FB7D457F16120046E53300
:1026B000540FF5322410F582E43401F583E09003E1
:1026C00081F0FB7D447F16120046900405E06534DE
:1026D000603BE53454F0C4540FF5322410F582E425
:1026E0003401F583E0900380F0FB7D437F161200F8
:1026F00046E534540FF5322410F582E43401F583B5
:10270000E090037FF0FB7D427F16120046900404A8
:10271000E533F0A3E534F022900213E0F533A3E0B3
:10272000F534900402E06533603AE533540FF53236
:102730002400F582E43401F583E0FF900384F0E5A2
:102740003354F0C4540FF5322400F582E43401F51B
:1027500083E0C454F0FEEF4E900384F0FB7D477F8E
:1027600016120046900403E06534603AE534540FD5
:10277000F5322400F582E43401F583E0FF90038311
:10278000F0E53454F0C4540FF5322400F582E434FB
:1027900001F583E0C454F0FEEF4E900383F0FB7D1F
:1027A000467F16120046900402E533F0A3E534F0AC
:1027B00022E4F52DF52EF52FF530F5311200031238
:1027C0002AE17F147E001231C61232351230FB121C
:1027D00033F61233651233F0E4FB7D107F181200DC
:1027E00046E4FB7D107F16120046123313C282D3DB
:1027F000E52E9420E52D94034032AF3012225A0585
:1028000030E5307002052FC3940AE52F940040177D
:10281000E4F52FF530900411E0700C0531E531D36B
:10282000946440037401F0E4F52DF52E052EE52E99
:102830007002052D1233131228D4122A821223E3B8
:1028400012254480AA12003E787FE4F6D8FD7581F7
:102850003F02288F0227B1E493A3F8E493A3400337
:10286000F68001F208DFF48029E493A3F8540724EA
:102870000CC8C333C4540F4420C8834004F45680AA
:102880000146F6DFE4800B0102040810204080902E
:102890001C6BE47E019360BCA3FF543F30E50954F8
:1028A0001FFEE493A360010ECF54C025E060A84052
:1028B000B8E493A3FAE493A3F8E493A3C8C582C849
:1028C000CAC583CAF0A3C8C582C8CAC583CADFE91E
:1028D000DEE780BE900056E0FF540FF5329003EA29
:1028E000E0FEEF6E6064E5329002FF30E005E04408
:1028F000018003E054FEF0FB7D417F18120046E5A5
:10290000329002FF30E105E044028003E054FDF024
:10291000FB7D417F18120046E5329002FF30E20550
:10292000E044048003E054FBF0FB7D417F1812007B
:1029300046E5329002FF30E305E044088003E054AE
:10294000F7F0FB7D417F18120046900056E090039F
:10295000EAF022900217E0540FF532900406E06589
:10296000326048E5329002F830E006E04401F08041
:1029700004E054FEF0E5329002F830E106E0440253
:10298000F08004E054FDF0E5329002F830E206E019
:102990004404F08004E054FBF0E5329002F830E3A8
:1029A00006E04408F08004E054F7F09002F8E0FB01
:1029B0007D227F18120046900406E532F0228E3602
:1029C0008F37EF2480FB7D907F181200467B047DBB
:1029D000927F181200467D657F18122B998E388FD2
:1029E000397D687F18122B998E388F39E53724800E
:1029F000FB7D907F181200467B087D927F181200A5
:102A0000467D657F18122B997D687F18122B99C31C
:102A1000E5399FFFE5389EFE7C007D1512035C22A0
:102A2000AB05A907E4F538F537F536F53585A73454
:102A3000F5A7FAEAC39B503789BBE4FFFE0FBF003E
:102A4000010EEF640A4E70F5D2EC30EDFDAFBDAE75
:102A5000BEE4FCFDE5382FF538E5373EF537ED35BA
:102A600036F536EC3535F535C2ECC2ED0A80C4E4F6
:102A7000FAF9F8AF38AE37AD36AC35122D6C853477
:102A8000A72290005DE0FF900409E06F604AEF30FC
:102A9000E03AE4A3F053E6FDEF30E119900408E0DA
:102AA00070097BFF7D107F16120046D283900407C9
:102AB0007401F08023900408E07008FB7D107F16FD
:102AC000120046C283E4900407F0800C90040A745C
:102AD00001F012305E43E60290005DE0900409F0E0
:102AE00022E4F532F5337F0AFE1231C6C296C29552
:102AF000D2837F0A7E001231C6D2967F0A7E0012F0
:102B000031C6C3E5339498E532943A500B7F0D12E9
:102B100031E58E328F3380EA7F017E001231C6D2DA
:102B2000957F0A7E001231C6C3E5339440E53294A6
:102B30001F500B7F111231E58E328F3380EA2290C5
:102B400001A3E0FF90007BE0FE6F702B9001A4E0FA
:102B5000FF90007CE0B5071F9001A5E0FF90007D8D
:102B6000E0B507139001A6E0FF90007EE0B50707EF
:102B70009002397401F022EEB43A1890007CE0B46F
:102B80001811A3E0B4B60CA3E0B46F079002397437
:102B900002F022E4900239F0228D3AA907E4900471
:102BA0000BF0A3F0A3F0A3F0122DB0123016AF3A41
:102BB000122FFF122EED90040BEFF0123392122E13
:102BC000EDA3EFF012330190040BE075F010A4FFB9
:102BD000A3E07C002FFEEC35F0A3F0A3CEF0123280
:102BE0007C1233C490040DE0FEA3E0FF22E49001C8
:102BF00021F0A3F0F532F533AF33AE3212321D7E41
:102C000000900122E02FF0900121E03EF00533E535
:102C10003370020532C3E53294C840DC900121E0F4
:102C2000FFA3E090019BCFF0A3EFF07B017A017945
:102C300023753900753A807F007ED4022CDC900128
:102C400027E0FDA3E0FBA3E0F5823395E0F53685B0
:102C50008237122F27AD07AC06ECFF900016EFF07D
:102C6000AF05A3EFF0900016E0FFC36480945850C6
:102C7000027FD8D3EF648094D540027F5574282F0B
:102C8000FFA2E7139003F6F0D3EF648094BF221203
:102C900029531225E212271812267D900211E09086
:102CA00000EAF0900212E09000EBF0900213E09046
:102CB00000ECF0900214E09000EDF0900215E0902E
:102CC00000EEF0900216E09000EFF0900217E09016
:102CD00000F0F0900218E09000F1F0228E348F3571
:102CE0008B368A378938E4F53BF53C7D55122F9AAF
:102CF000E4F53BF53CC3E53C953AE53B953950237B
:102D0000E535253CFFE534353BFEAB360538E53887
:102D1000AA3770020537122E77053CE53C70D605C0
:102D20003B80D2228E328F338B348A358936E4F55C
:102D300039F53AF539F53AC3E53A9538E539953735
:102D40005029E533253AFFE5323539FE12321DAB05
:102D5000340536E536AA357002053514F9EF12034D
:102D60004A053AE53A70D0053980CC22C2D5E83020
:102D7000E70FB2D5E4C39BFBE49AFAE499F9E4982F
:102D8000F8EC30E717B2D5122DA212046DE4C39B04
:102D9000FBE49AFAE499F9E498F8800312046D30A0
:102DA000D50DE4C39FFFE49EFEE49DFDE49CFC2260
:102DB0001233C4123388AF01AD07AC05C2B312326F
:102DC0006D12326D12326D12326D7B07EDA8030861
:102DD0008002C313D8FC5401FC6004D2B28002C24A
:102DE000B2123268C2B312326D1BC3EB648094809E
:102DF00050DA228E328F338B348A358936E4F539B6
:102E0000F53AF539F53AC3E53A9538E5399537504D
:102E100023E533253AFFE5323539FEAB340536E597
:102E200036AA3570020535122E77053AE53A70D686
:102E3000053980D222AC06E0FDA3E0FBA3E0F53A21
:102E4000A3E0F53B8D388B39AB07AA06E4F9F8AF60
:102E500038FCFDFE12036E8F3F8E3E8D3D8C3CA9EB
:102E600039A8011203CB8F3F8E3E8D3D8C3CE53B54
:102E70002FFFE53A3EFE2214F9120331FD7B55ACDB
:102E8000A7A2AF9201E4F5A7C2AF75FF8075EF026C
:102E90008F828E83BB550975B7A575B7F1438F0136
:102EA00075FF8075EF02EDF0538FFEA20192AF8C9B
:102EB000A722C0E0C0F0C083C082C0D075D000C0DF
:102EC00000C001C002C003C004C005C006C0071294
:102ED0003313D007D006D005D004D003D002D001E0
:102EE000D000D0D0D082D083D0F0D0E032E4FDC288
:102EF000B312326D12326D12326D12326D7C0712C6
:102F00003265A2B29201A201E433FFA80408800254
:102F1000C333D8FC4205C2B312326D1CC3EC6480CB
:102F2000948050DBAF05228D348B35AB07AA06EABF
:102F30003395E0F9F8AF34E4FCFDFE12036E8F3BED
:102F40008E3A8D398C38A935A8011203CB8F3B8E70
:102F50003A8D398C38E537FEE4253BFFEE353AFEF5
:102F6000227B017A0279E17537007538807F007E17
:102F7000D0122D247B017A03796275370075388071
:102F80007F007ED2122D247B017A017923753700D0
:102F90007538807F007ED4022D24ACA7A2AF9201A9
:102FA000C2AFE4F5A775FF8075EF028F828E83BDF7
:102FB000550975B7A575B7F1438F0375FF8075EF98
:102FC00002E4F0538FFCA20192AF8CA7227E007F17
:102FD000807D007B017A007900120405900080E07A
:102FE000900000F0A37408F0A3E04402F0900062A7
:102FF00074FFF090006E7428F0E4900071F02212DB
:103000002DB8123016D2B312326D1233C412338877
:10301000E904FF122DB812326530B209C2B3123280
:103020006DC2B28007C2B312326DD2B212326D22BB
:10303000E4F533FD7F181231A68F32E4FD7F1812BC
:1030400031A68F32E532B47901221231850533E59C
:1030500033D3940A40E5900199E04401F022308492
:1030600010D2839004077401F0A3E070177BFF80F7
:103070000CC283E4900407F0A3E07008FB7D107F8E
:10308000161200460233737D047F14122A20C3EF08
:10309000950DFFEE950CFE3395E0FDFCE4FB7A0107
:1030A000F9F812036EE47B13FAF9F8122D6C227F03
:1030B000007EF812321DBF010C122BED7D557F00F2
:1030C0007EF8022F9A90019BE0FFA3E0900121CFB0
:1030D000F0A3EFF0227B017A007980753700753814
:1030E000807F807EC8122D247B017A0179A77537F5
:1030F000007538807F007ECE022D2490FFD5E493AA
:10310000FE90FFD4E493FDEEFCE41201817BD77ABC
:10311000A37930783F1200761201BA8E0C8F0D22FF
:10312000E4F532E4FD7F161231A6BF770122123199
:10313000640532E532D3940A40E9900199E04401F4
:10314000F02290036CE054CFFDEF75F010A4FFE582
:10315000F0FCEF4205AB057D037F161200467F139E
:103160001231E52290036B74AAF0FB7D027F1612E8
:103170000046123335E490036BF0FB7D027F16129C
:1031800000460233359002EC74AAF0FB7D027F18F2
:10319000120046123335E49002ECF0FB7D027F18FA
:1031A0001200460233358D34A907122DB0123016A5
:1031B000AF34122FFF122EEDAC0712330112327C06
:1031C0001233C4AF0422AD07AC06E4FBFAC3EB9D97
:1031D000EC6480F8EA648098500A1233350BBB0027
:1031E000010A80E9227D04122A20AD07AC06E41210
:1031F00001817B487AE179BA783F1200761201BAF0
:1032000022AD07E4FBFAEDFFC3EB9F7480F86A98E8
:10321000500A12326D0BBB00010A80EA22ADA7A250
:10322000AF9201C2AFE4F5A78F828E8393FFA20114
:1032300092AF8DA7221230D5122F61122FCD1230EE
:10324000AF12328F1232A21232B50232C8EF25E02D
:10325000FFEE33FE900123122E35AC0690001AECDF
:10326000F0A3EFF02212326DD2B312326DE4FFFE02
:103270000FBF00010EEF640A4E70F522C2B27F024A
:10328000123201D2B37F02123201D2B202326D7B0E
:10329000017A0279277537007538107F007ED602D3
:1032A0002D247B017A0179007537007538107F1065
:1032B0007ED6022D247B017A01791075370075388E
:1032C000107F207ED6022D247B017A0179A37537E9
:1032D000007538047F307ED6022D2475B28075BB10
:1032E0001475DF1F75BC1875B90443E88122AF88D7
:1032F0005388AF758CF1EF5440FEEF54104E428866
:103300002212326DD2B2123265C2B312326DC2B223
:1033100002326D85A732E4F5A720860443C18022DE
:1033200053C17F22E4F5A9E5A930E7FB75A903E5C0
:10333000A930E7FB22E4FFFE000FBF00010EBE171D
:10334000F7BF70F4225390BF75A56075F27F75F2D8
:103350007F75D5FF22E59154045391FB7593157544
:1033600092A04291227F0A7E001231C6D296D29557
:10337000C2832230840475FDFF2275FDEF2253C104
:103380007F43C18053917F3212326DC2B27F0202FD
:103390003201C2B2123268C2B3D2B222E4F5A775CA
:1033A00097DE7597AD2275A72075F32375CC0C2297
:1033B000E4F5A775E34075E1042275D7A075D6FF43
:1033C00043C11C22D2B3D2B27F0102320175F1FE99
:1033D00075D4FF2275A71075C12022758E017589DD
:1033E0000222E4F5A775EF062275E68175A8802212
:1033F000123120021EFF123030021586FFFFFFFF40
:10340000FFFFFFFFFFFFFFFFFFFFFFFFFFFFFFFFCC
:10341000FFFFFFFFFFFFFFFFFFFFFFFFFFFFFFFFBC
:10342000FFFFFFFFFFFFFFFFFFFFFFFFFFFFFFFFAC
:10343000FFFFFFFFFFFFFFFFFFFFFFFFFFFFFFFF9C
:10C800001100000000000000000000000000000017
:10C810000000000000000000000000000000000018
:10C820000000000000000000000000000000000008
:10C8300000000000000000000000000000000000F8
:10C8400000000000000000000000000000000000E8
:10C8500000000000000000000000000000000000D8
:10C860000000FF00000000000000000000000000C9
:10C8700000000000000000FFFFFFFFFFFFFFFF00C0
:10C88000118C23000000004000020205FF000000A0
:10C89000000000004C555853484152452D4943541F
:10C8A000202020201F3C18A00000000000000000F5
:10C8B0000000000000000000000000000000000078
:10C8C0000000000000000000000000000000000068
:10C8D0000000000000000000000000000000000058
:10C8E000FFFFFFFFFFFFFFFFFFFFFFFFFFFFFFFF58
:10CE000080000000000000000000000000000000A2
:10CE10000000000000000000000000000000000012
:10CE20000000000000000000000000000000000002
:10CE300000000000000000000000000000000000F2
:10CE400000000000000000000000000000000000E2
:10CE500000000000000000000000000000000000D2
:10CE6000000000000000000000006666333322224C
:10CE700000000000000000000000000000000000B2
:10CE8000FFFFFFFFFFFFFFFFFFFFFFFFFFFFFFFFB2
:10CE9000FFFFFFFFFFFFFFFFFFFFFFFFFFFFFFFFA2
:10CEA000FFFFFFFFFFFFFFFFFFFFFFFFFFFFFFFF92
:10CEB000FFFFFFFFFFFFFFFFFFFFFFFFFFFFFFFF82
:10CEC000FFFFFFFFFFFFFFFFFFFFFFFFFFFFFFFF72
:10CED000FFFFFFFFFFFFFFFFFFFFFFFFFFFFFFFF62
:10CEE000FFFFFFFFFFFFFFFFFFFFFFFFFFFFFFFF52
:10CEF000FFFFFFFFFFFFFFFFFFFFFFFFFFFFFFFF42
:10CF0000FFFFFFFFFFFFFFFFFFFFFFFFFFFFFFFF31
:10CF1000FFFFFFFFFFFFFFFFFFFFFFFFFFFFFFFF21
:10CF2000FFFFFFFFFFFFFFFFFFFFFFFFFFFFFFFF11
:10CF3000FFFFFFFFFFFFFFFFFFFFFFFFFFFFFFFF01
:10CF4000FFFFFFFFFFFFFFFFFFFFFFFFFFFFFFFFF1
:10CF5000FFFFFFFFFFFFFFFFFFFFFFFFFFFFFFFFE1
:10CF6000FFFFFFFFFFFFFFFFFFFFFFFFFFFFFFFFD1
:10CF7000FFFFFFFFFFFFFFFFFFFFFFFFFFFFFFFFC1
:10CF8000FFFFFFFFFFFFFFFFFFFFFFFFFFFFFFFFB1
:10CF9000FFFFFFFFFFFFFFFFFFFFFFFFFFFFFFFFA1
:10CFA000FFFFFFFFFFFFFFFFFFFFFFFFFFFFFFFF91
:10CFB000FFFFFFFFFFFFFFFFFFFFFFFFFFFFFFFF81
:10CFC000FFFFFFFFFFFFFFFFFFFFFFFFFFFFFFFF71
:10CFD000FFFFFFFFFFFFFFFFFFFFFFFFFFFFFFFF61
:10CFE000FFFFFFFFFFFFFFFFFFFFFFFFFFFFFFFF51
:10CFF000FFFFFFFFFFFFFFFFFFFFFFFFFFFFFFFF41
:10D000000000000000000000000000000000000020
:10D010000F00FF000F7F55000006060606F00023F4
:10D02000232323595959590000000000020202022B
:10D0300000001000000110000000000000000000CF
:10D0400000000000000000000000000000000000E0
:10D0500000000000000000000000000000000000D0
:10D0600000000000000000000000000000000000C0
:10D0700000000000000000000000000000000000B0
:10D08000FFFFFFFFFFFFFFFFFFFFFFFFFFFFFFFFB0
:10D09000FFFFFFFFFFFFFFFFFFFFFFFFFFFFFFFFA0
:10D0A000FFFFFFFFFFFFFFFFFFFFFFFFFFFFFFFF90
:10D0B000FFFFFFFFFFFFFFFFFFFFFFFFFFFFFFFF80
:10D0C000FFFFFFFFFFFFFFFFFFFFFFFFFFFFFFFF70
:10D0D000FFFFFFFFFFFFFFFFFFFFFFFFFFFFFFFF60
:10D0E000FFFFFFFFFFFFFFFFFFFFFFFFFFFFFFFF50
:10D0F000FFFFFFFFFFFFFFFFFFFFFFFFFFFFFFFF40
:10D10000FFFFFFFFFFFFFFFFFFFFFFFFFFFFFFFF2F
:10D11000FFFFFFFFFFFFFFFFFFFFFFFFFFFFFFFF1F
:10D12000FFFFFFFFFFFFFFFFFFFFFFFFFFFFFFFF0F
:10D13000FFFFFFFFFFFFFFFFFFFFFFFFFFFFFFFFFF
:10D14000FFFFFFFFFFFFFFFFFFFFFFFFFFFFFFFFEF
:10D15000FFFFFFFFFFFFFFFFFFFFFFFFFFFFFFFFDF
:10D16000FFFFFFFFFFFFFFFFFFFFFFFFFFFFFFFFCF
:10D17000FFFFFFFFFFFFFFFFFFFFFFFFFFFFFFFFBF
:10D18000FFFFFFFFFFFFFFFFFFFFFFFFFFFFFFFFAF
:10D19000FFFFFFFFFFFFFFFFFFFFFFFFFFFFFFFF9F
:10D1A000FFFFFFFFFFFFFFFFFFFFFFFFFFFFFFFF8F
:10D1B000FFFFFFFFFFFFFFFFFFFFFFFFFFFFFFFF7F
:10D1C000FFFFFFFFFFFFFFFFFFFFFFFFFFFFFFFF6F
:10D1D000FFFFFFFFFFFFFFFFFFFFFFFFFFFFFFFF5F
:10D1E000FFFFFFFFFFFFFFFFFFFFFFFFFFFFFFFF4F
:10D1F000FFFFFFFFFFFFFFFFFFFFFFFFFFFFFFFF3F
:10D2000000000000000000000000C00000000F004F
:10D21000CF030000F0F0000F0F0F0F00003232328A
:10D2200032777710000000000000000000000000CE
:10D2300000000000000000000000000000000000EE
:10D2400000000000000000000000000000000000DE
:10D2500000000000000000000000000000000000CE
:10D2600000000000000000000000000000000000BE
:10D2700000000000000000000000000000000000AE
:10D28000FFFFFFFFFFFFFFFFFFFFFFFFFFFFFFFFAE
:10D29000FFFFFFFFFFFFFFFFFFFFFFFFFFFFFFFF9E
:10D2A000FFFFFFFFFFFFFFFFFFFFFFFFFFFFFFFF8E
:10D2B000FFFFFFFFFFFFFFFFFFFFFFFFFFFFFFFF7E
:10D2C000FFFFFFFFFFFFFFFFFFFFFFFFFFFFFFFF6E
:10D2D000FFFFFFFFFFFFFFFFFFFFFFFFFFFFFFFF5E
:10D2E000FFFFFFFFFFFFFFFFFFFFFFFFFFFFFFFF4E
:10D2F000FFFFFFFFFFFFFFFFFFFFFFFFFFFFFFFF3E
:10D30000FFFFFFFFFFFFFFFFFFFFFFFFFFFFFFFF2D
:10D31000FFFFFFFFFFFFFFFFFFFFFFFFFFFFFFFF1D
:10D32000FFFFFFFFFFFFFFFFFFFFFFFFFFFFFFFF0D
:10D33000FFFFFFFFFFFFFFFFFFFFFFFFFFFFFFFFFD
:10D34000FFFFFFFFFFFFFFFFFFFFFFFFFFFFFFFFED
:10D35000FFFFFFFFFFFFFFFFFFFFFFFFFFFFFFFFDD
:10D36000FFFFFFFFFFFFFFFFFFFFFFFFFFFFFFFFCD
:10D37000FFFFFFFFFFFFFFFFFFFFFFFFFFFFFFFFBD
:10D38000FFFFFFFFFFFFFFFFFFFFFFFFFFFFFFFFAD
:10D39000FFFFFFFFFFFFFFFFFFFFFFFFFFFFFFFF9D
:10D3A000FFFFFFFFFFFFFFFFFFFFFFFFFFFFFFFF8D
:10D3B000FFFFFFFFFFFFFFFFFFFFFFFFFFFFFFFF7D
:10D3C000FFFFFFFFFFFFFFFFFFFFFFFFFFFFFFFF6D
:10D3D000FFFFFFFFFFFFFFFFFFFFFFFFFFFFFFFF5D
:10D3E000FFFFFFFFFFFFFFFFFFFFFFFFFFFFFFFF4D
:10D3F000FFFFFFFFFFFFFFFFFFFFFFFFFFFFFFFF3D
:10D400000100000001000001000000010000000117
:10D410000000000100000001000000010000000108
:10D4200000000001000000010000000100000001F8
:10D4300000000001000000008001000080010000E9
:10D440008001000080010046000100000100000092
:10D45000FFFFFFFFFFFFFFFFFFFFFFFFFFFFFFFFDC
:10D46000FFFFFFFFFFFFFFFFFFFFFFFFFFFFFFFFCC
:10D47000FFFFFFFFFFFFFFFFFFFFFFFFFFFFFFFFBC
:10D48000FFFFFFFFFFFFFFFFFFFFFFFFFFFFFFFFAC
:10D49000FFFFFFFFFFFFFFFFFFFFFFFFFFFFFFFF9C
:10D4A000FFFFFFFFFFFFFFFFFFFFFFFFFFFFFFFF8C
:10D4B000FFFFFFFFFFFFFFFFFFFFFFFFFFFFFFFF7C
:10D4C000FFFFFFFFFFFFFFFFFFFFFFFFFFFFFFFF6C
:10D4D000FFFFFFFFFFFFFFFFFFFFFFFFFFFFFFFF5C
:10D4E000FFFFFFFFFFFFFFFFFFFFFFFFFFFFFFFF4C
:10D4F000FFFFFFFFFFFFFFFFFFFFFFFFFFFFFFFF3C
:10D50000FFFFFFFFFFFFFFFFFFFFFFFFFFFFFFFF2B
:10D51000FFFFFFFFFFFFFFFFFFFFFFFFFFFFFFFF1B
:10D52000FFFFFFFFFFFFFFFFFFFFFFFFFFFFFFFF0B
:10D53000FFFFFFFFFFFFFFFFFFFFFFFFFFFFFFFFFB
:10D54000FFFFFFFFFFFFFFFFFFFFFFFFFFFFFFFFEB
:10D55000FFFFFFFFFFFFFFFFFFFFFFFFFFFFFFFFDB
:10D56000FFFFFFFFFFFFFFFFFFFFFFFFFFFFFFFFCB
:10D57000FFFFFFFFFFFFFFFFFFFFFFFFFFFFFFFFBB
:10D58000FFFFFFFFFFFFFFFFFFFFFFFFFFFFFFFFAB
:10D59000FFFFFFFFFFFFFFFFFFFFFFFFFFFFFFFF9B
:10D5A000FFFFFFFFFFFFFFFFFFFFFFFFFFFFFFFF8B
:10D5B000FFFFFFFFFFFFFFFFFFFFFFFFFFFFFFFF7B
:10D5C000FFFFFFFFFFFFFFFFFFFFFFFFFFFFFFFF6B
:10D5D000FFFFFFFFFFFFFFFFFFFFFFFFFFFFFFFF5B
:10D5E000FFFFFFFFFFFFFFFFFFFFFFFFFFFFFFFF4B
:10D5F000FFFFFFFFFFFFFFFFFFFFFFFFFFFFFFFF3B
:10D6000000000102030406080A0B0E0000000000DF
:10D6100002030507090B0D0F0000000000000000C9
:10D62000001E323C0000000000000000000000006E
:10D630009378CCAEFFFFFFFFFFFFFFFFFFFFFFFF71
:10D64000FFFFFFFFFFFFFFFFFFFFFFFFFFFFFFFFEA
:10D65000FFFFFFFFFFFFFFFFFFFFFFFFFFFFFFFFDA
:10D66000FFFFFFFFFFFFFFFFFFFFFFFFFFFFFFFFCA
:10D67000FFFFFFFFFFFFFFFFFFFFFFFFFFFFFFFFBA
:10D68000FFFFFFFFFFFFFFFFFFFFFFFFFFFFFFFFAA
:10D69000FFFFFFFFFFFFFFFFFFFFFFFFFFFFFFFF9A
:10D6A000FFFFFFFFFFFFFFFFFFFFFFFFFFFFFFFF8A
:10D6B000FFFFFFFFFFFFFFFFFFFFFFFFFFFFFFFF7A
:10D6C000FFFFFFFFFFFFFFFFFFFFFFFFFFFFFFFF6A
:10D6D000FFFFFFFFFFFFFFFFFFFFFFFFFFFFFFFF5A
:10D6E000FFFFFFFFFFFFFFFFFFFFFFFFFFFFFFFF4A
:10D6F000FFFFFFFFFFFFFFFFFFFFFFFFFFFFFFFF3A
:10D70000FFFFFFFFFFFFFFFFFFFFFFFFFFFFFFFF29
:10D71000FFFFFFFFFFFFFFFFFFFFFFFFFFFFFFFF19
:10D72000FFFFFFFFFFFFFFFFFFFFFFFFFFFFFFFF09
:10D73000FFFFFFFFFFFFFFFFFFFFFFFFFFFFFFFFF9
:10D74000FFFFFFFFFFFFFFFFFFFFFFFFFFFFFFFFE9
:10D75000FFFFFFFFFFFFFFFFFFFFFFFFFFFFFFFFD9
:10D76000FFFFFFFFFFFFFFFFFFFFFFFFFFFFFFFFC9
:10D77000FFFFFFFFFFFFFFFFFFFFFFFFFFFFFFFFB9
:10D78000FFFFFFFFFFFFFFFFFFFFFFFFFFFFFFFFA9
:10D79000FFFFFFFFFFFFFFFFFFFFFFFFFFFFFFFF99
:10D7A000FFFFFFFFFFFFFFFFFFFFFFFFFFFFFFFF89
:10D7B000FFFFFFFFFFFFFFFFFFFFFFFFFFFFFFFF79
:10D7C000FFFFFFFFFFFFFFFFFFFFFFFFFFFFFFFF69
:10D7D000FFFFFFFFFFFFFFFFFFFFFFFFFFFFFFFF59
:10D7E000FFFFFFFFFFFFFFFFFFFFFFFFFFFFFFFF49
:10D7F000FFFFFFFFFFFFFFFFFFFFFFFFFFFFFFFF39
:10D8000014141414141414141414141414141414D8
:10D810001414141414151616171819191A1B1C1C95
:10D820001D1E1E1F1F1F1F202020202021212121FF
:10D8300021222222222323232323232323232323BE
:10D8400023232323232323232323232323232323A8
:10D850002323232323232323232323232323232398
:10D860002323232323232323232323232323232388
:10D870002323232323232323232323232323232378
:10D88000FFFFFFFFFFFFFFFFFFFFFFFFFFFFFFFFA8
:10D89000FFFFFFFFFFFFFFFFFFFFFFFFFFFFFFFF98
:10D8A000FFFFFFFFFFFFFFFFFFFFFFFFFFFFFFFF88
:10D8B000FFFFFFFFFFFFFFFFFFFFFFFFFFFFFFFF78
:10D8C000FFFFFFFFFFFFFFFFFFFFFFFFFFFFFFFF68
:10D8D000FFFFFFFFFFFFFFFFFFFFFFFFFFFFFFFF58
:10D8E000FFFFFFFFFFFFFFFFFFFFFFFFFFFFFFFF48
:10D8F000FFFFFFFFFFFFFFFFFFFFFFFFFFFFFFFF38
:10D90000FFFFFFFFFFFFFFFFFFFFFFFFFFFFFFFF27
:10D91000FFFFFFFFFFFFFFFFFFFFFFFFFFFFFFFF17
:10D92000FFFFFFFFFFFFFFFFFFFFFFFFFFFFFFFF07
:10D93000FFFFFFFFFFFFFFFFFFFFFFFFFFFFFFFFF7
:10D94000FFFFFFFFFFFFFFFFFFFFFFFFFFFFFFFFE7
:10D95000FFFFFFFFFFFFFFFFFFFFFFFFFFFFFFFFD7
:10D96000FFFFFFFFFFFFFFFFFFFFFFFFFFFFFFFFC7
:10D97000FFFFFFFFFFFFFFFFFFFFFFFFFFFFFFFFB7
:10D98000FFFFFFFFFFFFFFFFFFFFFFFFFFFFFFFFA7
:10D99000FFFFFFFFFFFFFFFFFFFFFFFFFFFFFFFF97
:10D9A000FFFFFFFFFFFFFFFFFFFFFFFFFFFFFFFF87
:10D9B000FFFFFFFFFFFFFFFFFFFFFFFFFFFFFFFF77
:10D9C000FFFFFFFFFFFFFFFFFFFFFFFFFFFFFFFF67
:10D9D000FFFFFFFFFFFFFFFFFFFFFFFFFFFFFFFF57
:10D9E000FFFFFFFFFFFFFFFFFFFFFFFFFFFFFFFF47
:10D9F000FFFFFFFFFFFFFFFFFFFFFFFFFFFFFFFF37
:10DA000014141414141414141414141414141414D6
:10DA10001414141414151616171819191A1B1C1C93
:10DA20001D1E1E1F1F1F1F202020202021212121FD
:10DA300021222222222323232323232323232323BC
:10DA400023232323232323232323232323232323A6
:10DA50002323232323232323232323232323232396
:10DA60002323232323232323232323232323232386
:10DA70002323232323232323232323232323232376
:10DA8000FFFFFFFFFFFFFFFFFFFFFFFFFFFFFFFFA6
:10DA9000FFFFFFFFFFFFFFFFFFFFFFFFFFFFFFFF96
:10DAA000FFFFFFFFFFFFFFFFFFFFFFFFFFFFFFFF86
:10DAB000FFFFFFFFFFFFFFFFFFFFFFFFFFFFFFFF76
:10DAC000FFFFFFFFFFFFFFFFFFFFFFFFFFFFFFFF66
:10DAD000FFFFFFFFFFFFFFFFFFFFFFFFFFFFFFFF56
:10DAE000FFFFFFFFFFFFFFFFFFFFFFFFFFFFFFFF46
:10DAF000FFFFFFFFFFFFFFFFFFFFFFFFFFFFFFFF36
:10DB0000FFFFFFFFFFFFFFFFFFFFFFFFFFFFFFFF25
:10DB1000FFFFFFFFFFFFFFFFFFFFFFFFFFFFFFFF15
:10DB2000FFFFFFFFFFFFFFFFFFFFFFFFFFFFFFFF05
:10DB3000FFFFFFFFFFFFFFFFFFFFFFFFFFFFFFFFF5
:10DB4000FFFFFFFFFFFFFFFFFFFFFFFFFFFFFFFFE5
:10DB5000FFFFFFFFFFFFFFFFFFFFFFFFFFFFFFFFD5
:10DB6000FFFFFFFFFFFFFFFFFFFFFFFFFFFFFFFFC5
:10DB7000FFFFFFFFFFFFFFFFFFFFFFFFFFFFFFFFB5
:10DB8000FFFFFFFFFFFFFFFFFFFFFFFFFFFFFFFFA5
:10DB9000FFFFFFFFFFFFFFFFFFFFFFFFFFFFFFFF95
:10DBA000FFFFFFFFFFFFFFFFFFFFFFFFFFFFFFFF85
:10DBB000FFFFFFFFFFFFFFFFFFFFFFFFFFFFFFFF75
:10DBC000FFFFFFFFFFFFFFFFFFFFFFFFFFFFFFFF65
:10DBD000FFFFFFFFFFFFFFFFFFFFFFFFFFFFFFFF55
:10DBE000FFFFFFFFFFFFFFFFFFFFFFFFFFFFFFFF45
:10DBF000FFFFFFFFFFFFFFFFFFFFFFFFFFFFFFFF35
:10DC000014141414141414141414141414141414D4
:10DC10001414141414151616171819191A1B1C1C91
:10DC20001D1E1E1F1F1F1F202020202021212121FB
:10DC300021222222222323232323232323232323BA
:10DC400023232323232323232323232323232323A4
:10DC50002323232323232323232323232323232394
:10DC60002323232323232323232323232323232384
:10DC70002323232323232323232323232323232374
:10DC8000FFFFFFFFFFFFFFFFFFFFFFFFFFFFFFFFA4
:10DC9000FFFFFFFFFFFFFFFFFFFFFFFFFFFFFFFF94
:10DCA000FFFFFFFFFFFFFFFFFFFFFFFFFFFFFFFF84
:10DCB000FFFFFFFFFFFFFFFFFFFFFFFFFFFFFFFF74
:10DCC000FFFFFFFFFFFFFFFFFFFFFFFFFFFFFFFF64
:10DCD000FFFFFFFFFFFFFFFFFFFFFFFFFFFFFFFF54
:10DCE000FFFFFFFFFFFFFFFFFFFFFFFFFFFFFFFF44
:10DCF000FFFFFFFFFFFFFFFFFFFFFFFFFFFFFFFF34
:10DD0000FFFFFFFFFFFFFFFFFFFFFFFFFFFFFFFF23
:10DD1000FFFFFFFFFFFFFFFFFFFFFFFFFFFFFFFF13
:10DD2000FFFFFFFFFFFFFFFFFFFFFFFFFFFFFFFF03
:10DD3000FFFFFFFFFFFFFFFFFFFFFFFFFFFFFFFFF3
:10DD4000FFFFFFFFFFFFFFFFFFFFFFFFFFFFFFFFE3
:10DD5000FFFFFFFFFFFFFFFFFFFFFFFFFFFFFFFFD3
:10DD6000FFFFFFFFFFFFFFFFFFFFFFFFFFFFFFFFC3
:10DD7000FFFFFFFFFFFFFFFFFFFFFFFFFFFFFFFFB3
:10DD8000FFFFFFFFFFFFFFFFFFFFFFFFFFFFFFFFA3
:10DD9000FFFFFFFFFFFFFFFFFFFFFFFFFFFFFFFF93
:10DDA000FFFFFFFFFFFFFFFFFFFFFFFFFFFFFFFF83
:10DDB000FFFFFFFFFFFFFFFFFFFFFFFFFFFFFFFF73
:10DDC000FFFFFFFFFFFFFFFFFFFFFFFFFFFFFFFF63
:10DDD000FFFFFFFFFFFFFFFFFFFFFFFFFFFFFFFF53
:10DDE000FFFFFFFFFFFFFFFFFFFFFFFFFFFFFFFF43
:10DDF000FFFFFFFFFFFFFFFFFFFFFFFFFFFFFFFF33
:10DE000014141414141414141414141414141414D2
:10DE10001414141414151616171819191A1B1C1C8F
:10DE20001D1E1E1F1F1F1F202020202021212121F9
:10DE300021222222222323232323232323232323B8
:10DE400023232323232323232323232323232323A2
:10DE50002323232323232323232323232323232392
:10DE60002323232323232323232323232323232382
:10DE70002323232323232323232323232323232372
:10DE8000FFFFFFFFFFFFFFFFFFFFFFFFFFFFFFFFA2
:10DE9000FFFFFFFFFFFFFFFFFFFFFFFFFFFFFFFF92
:10DEA000FFFFFFFFFFFFFFFFFFFFFFFFFFFFFFFF82
:10DEB000FFFFFFFFFFFFFFFFFFFFFFFFFFFFFFFF72
:10DEC000FFFFFFFFFFFFFFFFFFFFFFFFFFFFFFFF62
:10DED000FFFFFFFFFFFFFFFFFFFFFFFFFFFFFFFF52
:10DEE000FFFFFFFFFFFFFFFFFFFFFFFFFFFFFFFF42
:10DEF000FFFFFFFFFFFFFFFFFFFFFFFFFFFFFFFF32
:10DF0000FFFFFFFFFFFFFFFFFFFFFFFFFFFFFFFF21
:10DF1000FFFFFFFFFFFFFFFFFFFFFFFFFFFFFFFF11
:10DF2000FFFFFFFFFFFFFFFFFFFFFFFFFFFFFFFF01
:10DF3000FFFFFFFFFFFFFFFFFFFFFFFFFFFFFFFFF1
:10DF4000FFFFFFFFFFFFFFFFFFFFFFFFFFFFFFFFE1
:10DF5000FFFFFFFFFFFFFFFFFFFFFFFFFFFFFFFFD1
:10DF6000FFFFFFFFFFFFFFFFFFFFFFFFFFFFFFFFC1
:10DF7000FFFFFFFFFFFFFFFFFFFFFFFFFFFFFFFFB1
:10DF8000FFFFFFFFFFFFFFFFFFFFFFFFFFFFFFFFA1
:10DF9000FFFFFFFFFFFFFFFFFFFFFFFFFFFFFFFF91
:10DFA000FFFFFFFFFFFFFFFFFFFFFFFFFFFFFFFF81
:10DFB000FFFFFFFFFFFFFFFFFFFFFFFFFFFFFFFF71
:10DFC000FFFFFFFFFFFFFFFFFFFFFFFFFFFFFFFF61
:10DFD000FFFFFFFFFFFFFFFFFFFFFFFFFFFFFFFF51
:10DFE000FFFFFFFFFFFFFFFFFFFFFFFFFFFFFFFF41
:10DFF000FFFFFFFFFFFFFFFFFFFFFFFFFFFFFFFF31
:10E000004A4A4A4A4A4A4A4A4A4A4A4A4A4A4A4A70
:10E010004A4A4A4A4A4B4C4D4F5051525354565714
:10E020005859595959595959595959595959595961
:10E030005959595959595959595959595959595950
:10E040005959595959595959595959595959595940
:10E050005959595959595959595959595959595930
:10E060005959595959595959595959595959595920
:10E070005959595959595959595959595959595910
:10E08000FFFFFFFFFFFFFFFFFFFFFFFFFFFFFFFFA0
:10E09000FFFFFFFFFFFFFFFFFFFFFFFFFFFFFFFF90
:10E0A000FFFFFFFFFFFFFFFFFFFFFFFFFFFFFFFF80
:10E0B000FFFFFFFFFFFFFFFFFFFFFFFFFFFFFFFF70
:10E0C000FFFFFFFFFFFFFFFFFFFFFFFFFFFFFFFF60
:10E0D000FFFFFFFFFFFFFFFFFFFFFFFFFFFFFFFF50
:10E0E000FFFFFFFFFFFFFFFFFFFFFFFFFFFFFFFF40
:10E0F000FFFFFFFFFFFFFFFFFFFFFFFFFFFFFFFF30
:10E10000FFFFFFFFFFFFFFFFFFFFFFFFFFFFFFFF1F
:10E11000FFFFFFFFFFFFFFFFFFFFFFFFFFFFFFFF0F
:10E12000FFFFFFFFFFFFFFFFFFFFFFFFFFFFFFFFFF
:10E13000FFFFFFFFFFFFFFFFFFFFFFFFFFFFFFFFEF
:10E14000FFFFFFFFFFFFFFFFFFFFFFFFFFFFFFFFDF
:10E15000FFFFFFFFFFFFFFFFFFFFFFFFFFFFFFFFCF
:10E16000FFFFFFFFFFFFFFFFFFFFFFFFFFFFFFFFBF
:10E17000FFFFFFFFFFFFFFFFFFFFFFFFFFFFFFFFAF
:10E18000FFFFFFFFFFFFFFFFFFFFFFFFFFFFFFFF9F
:10E19000FFFFFFFFFFFFFFFFFFFFFFFFFFFFFFFF8F
:10E1A000FFFFFFFFFFFFFFFFFFFFFFFFFFFFFFFF7F
:10E1B000FFFFFFFFFFFFFFFFFFFFFFFFFFFFFFFF6F
:10E1C000FFFFFFFFFFFFFFFFFFFFFFFFFFFFFFFF5F
:10E1D000FFFFFFFFFFFFFFFFFFFFFFFFFFFFFFFF4F
:10E1E000FFFFFFFFFFFFFFFFFFFFFFFFFFFFFFFF3F
:10E1F000FFFFFFFFFFFFFFFFFFFFFFFFFFFFFFFF2F
:10E200004A4A4A4A4A4A4A4A4A4A4A4A4A4A4A4A6E
:10E210004A4A4A4A4A4B4C4D4F5051525354565712
:10E22000585959595959595959595959595959595F
:10E23000595959595959595959595959595959594E
:10E24000595959595959595959595959595959593E
:10E25000595959595959595959595959595959592E
:10E26000595959595959595959595959595959591E
:10E27000595959595959595959595959595959590E
:10E28000FFFFFFFFFFFFFFFFFFFFFFFFFFFFFFFF9E
:10E29000FFFFFFFFFFFFFFFFFFFFFFFFFFFFFFFF8E
:10E2A000FFFFFFFFFFFFFFFFFFFFFFFFFFFFFFFF7E
:10E2B000FFFFFFFFFFFFFFFFFFFFFFFFFFFFFFFF6E
:10E2C000FFFFFFFFFFFFFFFFFFFFFFFFFFFFFFFF5E
:10E2D000FFFFFFFFFFFFFFFFFFFFFFFFFFFFFFFF4E
:10E2E000FFFFFFFFFFFFFFFFFFFFFFFFFFFFFFFF3E
:10E2F000FFFFFFFFFFFFFFFFFFFFFFFFFFFFFFFF2E
:10E30000FFFFFFFFFFFFFFFFFFFFFFFFFFFFFFFF1D
:10E31000FFFFFFFFFFFFFFFFFFFFFFFFFFFFFFFF0D
:10E32000FFFFFFFFFFFFFFFFFFFFFFFFFFFFFFFFFD
:10E33000FFFFFFFFFFFFFFFFFFFFFFFFFFFFFFFFED
:10E34000FFFFFFFFFFFFFFFFFFFFFFFFFFFFFFFFDD
:10E35000FFFFFFFFFFFFFFFFFFFFFFFFFFFFFFFFCD
:10E36000FFFFFFFFFFFFFFFFFFFFFFFFFFFFFFFFBD
:10E37000FFFFFFFFFFFFFFFFFFFFFFFFFFFFFFFFAD
:10E38000FFFFFFFFFFFFFFFFFFFFFFFFFFFFFFFF9D
:10E39000FFFFFFFFFFFFFFFFFFFFFFFFFFFFFFFF8D
:10E3A000FFFFFFFFFFFFFFFFFFFFFFFFFFFFFFFF7D
:10E3B000FFFFFFFFFFFFFFFFFFFFFFFFFFFFFFFF6D
:10E3C000FFFFFFFFFFFFFFFFFFFFFFFFFFFFFFFF5D
:10E3D000FFFFFFFFFFFFFFFFFFFFFFFFFFFFFFFF4D
:10E3E000FFFFFFFFFFFFFFFFFFFFFFFFFFFFFFFF3D
:10E3F000FFFFFFFFFFFFFFFFFFFFFFFFFFFFFFFF2D
:10E400004A4A4A4A4A4A4A4A4A4A4A4A4A4A4A4A6C
:10E410004A4A4A4A4A4B4C4D4F5051525354565710
:10E42000585959595959595959595959595959595D
:10E43000595959595959595959595959595959594C
:10E44000595959595959595959595959595959593C
:10E45000595959595959595959595959595959592C
:10E46000595959595959595959595959595959591C
:10E47000595959595959595959595959595959590C
:10E48000FFFFFFFFFFFFFFFFFFFFFFFFFFFFFFFF9C
:10E49000FFFFFFFFFFFFFFFFFFFFFFFFFFFFFFFF8C
:10E4A000FFFFFFFFFFFFFFFFFFFFFFFFFFFFFFFF7C
:10E4B000FFFFFFFFFFFFFFFFFFFFFFFFFFFFFFFF6C
:10E4C000FFFFFFFFFFFFFFFFFFFFFFFFFFFFFFFF5C
:10E4D000FFFFFFFFFFFFFFFFFFFFFFFFFFFFFFFF4C
:10E4E000FFFFFFFFFFFFFFFFFFFFFFFFFFFFFFFF3C
:10E4F000FFFFFFFFFFFFFFFFFFFFFFFFFFFFFFFF2C
:10E50000FFFFFFFFFFFFFFFFFFFFFFFFFFFFFFFF1B
:10E51000FFFFFFFFFFFFFFFFFFFFFFFFFFFFFFFF0B
:10E52000FFFFFFFFFFFFFFFFFFFFFFFFFFFFFFFFFB
:10E53000FFFFFFFFFFFFFFFFFFFFFFFFFFFFFFFFEB
:10E54000FFFFFFFFFFFFFFFFFFFFFFFFFFFFFFFFDB
:10E55000FFFFFFFFFFFFFFFFFFFFFFFFFFFFFFFFCB
:10E56000FFFFFFFFFFFFFFFFFFFFFFFFFFFFFFFFBB
:10E57000FFFFFFFFFFFFFFFFFFFFFFFFFFFFFFFFAB
:10E58000FFFFFFFFFFFFFFFFFFFFFFFFFFFFFFFF9B
:10E59000FFFFFFFFFFFFFFFFFFFFFFFFFFFFFFFF8B
:10E5A000FFFFFFFFFFFFFFFFFFFFFFFFFFFFFFFF7B
:10E5B000FFFFFFFFFFFFFFFFFFFFFFFFFFFFFFFF6B
:10E5C000FFFFFFFFFFFFFFFFFFFFFFFFFFFFFFFF5B
:10E5D000FFFFFFFFFFFFFFFFFFFFFFFFFFFFFFFF4B
:10E5E000FFFFFFFFFFFFFFFFFFFFFFFFFFFFFFFF3B
:10E5F000FFFFFFFFFFFFFFFFFFFFFFFFFFFFFFFF2B
:10E600004A4A4A4A4A4A4A4A4A4A4A4A4A4A4A4A6A
:10E610004A4A4A4A4A4B4C4D4F505152535456570E
:10E62000585959595959595959595959595959595B
:10E63000595959595959595959595959595959594A
:10E64000595959595959595959595959595959593A
:10E65000595959595959595959595959595959592A
:10E66000595959595959595959595959595959591A
:10F800000100000000000000FFFFFFFFFFFFFFFFFF
:00000001FF
