:100000000227197E007F807D007B017A0079001233
:100010000405900080E0900000F0A37408F0A3E0D5
:100020004402F090006274FFF090006A741FF09038
:10003000006E7428F0E4900071F0220208C875D1B7
:100040008022FF022E2B8D38AC07A90312335B12DE
:100050003315AF04122D73122F91AF38122D731276
:100060002F91AF01122D73122F9112320F02335BB9
:1000700002332902330BEC4D6011E8497017ED3360
:10008000EC3304600DE4FCFFFEFD22E933E83304A9
:1000900070F80202261201F158046009E4CC2481B0
:1000A000500628500902023028400302022DC0E009
:1000B000EB4A7044B98006D0E0FB02021CEF4E70A0
:1000C0001CBD8008EBFFEAFEE9FD80EBE98DF0A4A2
:1000D000FEE5F002015FE9CDF9EAFEEBFFEF89F002
:1000E000A4FCE5F0CE89F0A42EFFE435F0CD89F034
:1000F000A42DFEE435F08067EF4E7005BD80D780FB
:10010000C3EF8BF0A4ACF0EE8BF0A42CFCE435F044
:10011000F8EF8AF0A42CE5F038FCE433CB8DF0A4A2
:100120002CFCE5F03BF8EE8AF0A42CFCE5F038F866
:10013000E433CF89F0A42CFCE5F038CF3400CE892D
:10014000F0A42FFFE5F03EFEE433C98DF0A42EFEAF
:10015000E5F039CD8AF0A42FFFE5F03EFEE43DFD49
:1001600033D0E0FB50070BBB000F020230EC2CFC3D
:10017000EF33FFEE33FEED33FD02020875F0208011
:100180000E75F010800575F0087D007E007F00334D
:1001900092D530D5031203BDEC334010EF33FFEEA0
:1001A00033FEED33FDEC33FCD5F0ED22E5F0247E9B
:1001B000A2D513CC92E7CDCEFF22EDD2E7CD33EC22
:1001C0003392D524814006E4FFFEFDFC22FCE4CFFF
:1001D000CECDCC24E0501174FF80EDC3CC13CCCD38
:1001E00013CDCE13CECF13CF0470F030D5DE020383
:1001F000BDE9D2E7C933E833F892D5EDD2E7CD3384
:10020000EC33FC5002B2D522EC30E7100FBF000CEB
:100210000EBE00080DBD00040BEB6014A2D5EB135D
:10022000FCED92E7FD2274FFFCFDFEFF22E480F866
:10023000A2D574FF13FC7D80E480EFE709F608DFA8
:10024000FA8046E709F208DFFA803E88828C83E76D
:1002500009F0A3DFFA8032E309F608DFFA8078E3D9
:1002600009F208DFFA807088828C83E309F0A3DF4B
:10027000FA806489828A83E0A3F608DFFA805889CD
:10028000828A83E0A3F208DFFA804C80D280FA8071
:10029000C680D4806980F28033801080A680EA8096
:1002A0009A80A880DA80E280CA803389828A83ECCF
:1002B000FAE493A3C8C582C8CCC583CCF0A3C8C553
:1002C00082C8CCC583CCDFE9DEE7800D89828A83D2
:1002D000E493A3F608DFF9ECFAA9F0EDFB2289829A
:1002E0008A83ECFAE0A3C8C582C8CCC583CCF0A34E
:1002F000C8C582C8CCC583CCDFEADEE880DB898252
:100300008A83E493A3F208DFF980CC88F0EF6001E0
:100310000E4E60C388F0ED2402B4040050B9F5829B
:10032000EB2402B4040050AF232345822390028BB8
:1003300073BB010689828A83E0225002E722BBFE5A
:1003400002E32289828A83E49322BB010689828A9E
:1003500083F0225002F722BBFE01F322EF8DF0A4BE
:10036000A8F0CF8CF0A428CE8DF0A42EFE22E88F2A
:10037000F0A4CC8BF0A42CFCE98EF0A42CFC8AF029
:10038000EDA42CFCEA8EF0A4CDA8F08BF0A42DCC2B
:100390003825F0FDE98FF0A42CCD35F0FCEB8EF084
:1003A000A4FEA9F0EB8FF0A4CFC5F02ECD39FEE46A
:1003B0003CFCEAA42DCE35F0FDE43CFC22C3E49FD6
:1003C000FFE49EFEE49DFDE49CFC22E86010ECA2AC
:1003D000E713FCED13FDEE13FEEF13FFD8F022D070
:1003E00083D082F8E4937012740193700DA3A393E9
:1003F000F8740193F5828883E4737402936860EF64
:10040000A3A3A380DFEF4E6012EF60010EEDBB01EE
:100410000B89828A83F0A3DFFCDEFA2289F0500781
:10042000F709DFFCA9F022BBFEFCF309DFFCA9F011
:100430002275F008758200EF2FFFEE33FECD33CD2D
:10044000CC33CCC58233C5829BED9AEC99E582987A
:10045000400CF582EE9BFEED9AFDEC99FC0FD5F079
:10046000D6E4CEFBE4CDFAE4CCF9A88222B800C1F0
:10047000B90059BA002DEC8BF084CFCECDFCE5F05D
:10048000CBF97818EF2FFFEE33FEED33FDEC33FCA4
:10049000EB33FB10D703994004EB99FB0FD8E5E44D
:1004A000F9FA227818EF2FFFEE33FEED33FDEC332F
:1004B000FCC933C910D7059BE99A4007EC9BFCE9BE
:1004C0009AF90FD8E0E4C9FAE4CCFB2275F010EFFA
:1004D0002FFFEE33FEED33FDCC33CCC833C810D73D
:1004E000079BEC9AE899400AED9BFDEC9AFCE89991
:1004F000F80FD5F0DAE4CDFBE4CCFAE4C8F92290A9
:10050000007FE01203DF054000057201059102053E
:10051000B00305F180068188071090075591077494
:10052000A00793A107B2A207D1A307F0A8080EA9BC
:10053000082CAA084AAB0865B00881D0000008C79B
:10054000900239E0C3940150030208C77B017A008E
:1005500079007537007538807F007EC8122C537B78
:10056000017A0079807535007536807F807EC802FB
:100570002DAE900239E0C3940150030208C77B01FD
:100580007A0079807537007538807F007ECA02084E
:100590007E900239E0C3940150030208C77B017AC0
:1005A0000079807537007538807F007ECC02087E28
:1005B000900239E0C3940140257B017A007980756F
:1005C00037007538807F007ECE122C5378A77C01CF
:1005D0007D017B017A0079807E007F808010781118
:1005E0007C027D017B017A0079EA7E007F080203AC
:1005F0000B900239E0D3940150030208C790025EC9
:10060000E0D394F040529000FFE0640160030208E0
:10061000C79000F8E0900359F09000F9E090035A79
:10062000F09000FEE0FF90035FF0BF0112900359CD
:10063000E0FD7F1812312190035AEFF00206E1909D
:10064000035FE060030206E1900359E0FDA3E0FBD5
:100650007F181200460206E17B017A007980753727
:10066000007538787F007ED0122C5378E17C027DB3
:10067000017B017A0079807E007F7812030B0215DE
:1006800015900239E0D3940150030208C790025E2E
:10069000E0D394F040519000FFE064016003020851
:1006A000C79000F8E09003DAF09000F9E09003DBE7
:1006B000F09000FEE0FF9003E0F0BF01119003DA3C
:1006C000E0FD7F161231219003DBEFF080139003E1
:1006D000E0E0700D9003DAE0FDA3E0FB7F1612006E
:1006E00046E49000FFF0227B017A007980753700A4
:1006F0007538787F007ED2122C5378627C037D019E
:100700007B017A0079807E007F7812030B021CF255
:10071000900239E0D3940150030208C778F87C00B6
:100720007D017B017A01799B7E007F0812030B7BA0
:10073000017A0079807537007538807F007ED41289
:100740002C537B017A0179237535007536807F0043
:100750007ED4022C9B900239E0D39401500302080E
:10076000C77B017A0079807537007538807F007EFD
:10077000D602087E900239E0D3940150030208C7E4
:100780007B017A0079807537007538807F007ED8CC
:1007900002087E900239E0D3940150030208C77B1F
:1007A000017A0079807537007538807F007EDA0223
:1007B000087E900239E0D3940150030208C77B0100
:1007C0007A0079807537007538807F007EDC0208FA
:1007D0007E900239E0D3940150030208C77B017A6E
:1007E0000079807537007538807F007EDE02087ED4
:1007F000900239E0D3940150030208C77B017A00CC
:1008000079807537007538807F007EE080709002B7
:1008100039E0D3940150030208C77B017A00798044
:100820007537007538807F007EE28052900239E093
:10083000D3940150030208C77B017A007980753791
:10084000007538807F007EE48034900239E0D394D4
:100850000140747B017A0079807537007538807F9C
:10086000007EE68019900239E0D3940140597B0163
:100870007A0079807537007538807F007EF6022C0B
:1008800053900239E0D39401403D90025EE064242D
:100890007035900261E06411702DA3E0642270272E
:1008A000A3E064337021A3E0B4551CA3E0B4661741
:1008B000A3E0B455127B557D017F007EF8122DF820
:1008C000780076A575EF1222C0E0C0F0C083C08228
:1008D000C0D075D000C000C001C002C003C004C0B9
:1008E00005C006C00775210075220030C203020B47
:1008F000B4E5C054F070030209E524F07003020A65
:100900000824D07003020AF824F07003020BA82414
:10091000306003020BACC2C5900237E5C2F0900212
:100920005DE4F0900238F0900237E0FF54FE64A0DE
:1009300060030209E0EF20E0030209DB90025EE0C1
:10094000FFC394805074EF9415402FEF943A502ACF
:10095000EF20E0102401F582E43400F583E09002FA
:100960005CF0803190025CE0FF90025EE02400F5D4
:1009700082E43400F583EFF0801B90025EE0FFD349
:1009800094764011EF947F500C74002FF582E4347C
:1009900000F583E4F090025EE0FF2400F582E43489
:1009A00000F583E0F5C2EFD39402402F90025EE0A1
:1009B000FF940F5026122091802190007FE090023A
:1009C0005EB4030AE02427F582E434018008E024C1
:1009D00000F582E43400F583E0F5C2D2C1020BBA1F
:1009E000C2C1020BBA90025DE02460F582E43402D9
:1009F000F583E5C2F0900260E090025EF090025D47
:100A0000E004F0D2C1020BBAC2C490025DE0FFC3A1
:100A100094025003020AF090025B7401F0EF14900C
:100A2000025FF090025EE0647F704F90025DE064D0
:100A3000027047900261E090007FF070147B017AB1
:100A4000007980F5357536807F807EC8122C9B80BA
:100A50001A90007FE0B4031A78807C007D017B014E
:100A60007A0179A77E007F8012030B90023AE4F0AE
:100A7000807E90023A7401F0807690025EE0B45677
:100A80000F90025DE0B4020890023A7402F08060B8
:100A900090025EE0FFB45D0F90025DE0B40208904A
:100AA000023A7403F08049EFB4620F90025DE0B443
:100AB000020890023A7404F0803690025EE0FFC3B0
:100AC000947B400EEFD3947E500890023A7405F068
:100AD000801E90025EE0FFC39477400EEFD3947ABD
:100AE000500890023A7406F0800690023A7407F0BB
:100AF00090025DE4F0020BBA20C103020BBA90022F
:100B00005EE004F0E0FFC39480507AEF9415402F2C
:100B1000EF943A502AEF20E0102401F582E43400EB
:100B2000F583E090025CF0803190025CE0FF90027F
:100B30005EE02400F582E43400F583EFF0801B9042
:100B4000025EE0FFD394764011EF947F500C740066
:100B50002FF582E43400F583E4F090025EE0FF2498
:100B600000F582E43400F583E0F5C2EFD39402404F
:100B70000C90025EE0FF940F500312209190023817
:100B80007401F0803590007FE090025EB4030AE0CB
:100B90002427F582E434018008E02400F582E4345F
:100BA00000F583E0F5C28012C2C4800E53C17F43BA
:100BB000C1808000C2C5C2C4C2C1C2C0D007D006B5
:100BC000D005D004D003D002D001D000D0D0D08244
:100BD000D083D0F0D0E032E4F530F531F532F533A2
:100BE000EF147003020C96147003020D331470039B
:100BF000020DD224036003020E73E4FFFE12299358
:100C00009003F3EEF0A3EFF0900304E075F043A43B
:100C100085F030F531E530C313FCE53113FD900369
:100C2000F3E0FEA3E0FF2DF533EE3CF53290012A10
:100C3000122CE79003F3EEF0A3EFF090013AE0FD01
:100C4000A3E0FBA3E0F538A3E0F539AF33AE3212F1
:100C50002CF48E328F33900056E020E0079004038E
:100C6000E0B4011AE490002AF0A3F0900032F0A35F
:100C7000F090000BE04450F090000D020DB5900391
:100C8000F3E0FCA3E0FDEC90002AF0A3EDF0E532E8
:100C9000900032020E6E7F107E001229939003F5B1
:100CA000EEF0A3EFF0900305E075F043A485F0307B
:100CB000F531E530C313FCE53113FD9003F5E0FE9B
:100CC000A3E0FF2DF533EE3CF53290012E122CE718
:100CD0009003F5EEF0A3EFF090013EE0FDA3E0FB02
:100CE000A3E0F538A3E0F539AF33AE32122CF48E21
:100CF000328F33900056E020E107900403E0B40106
:100D00001AE490002CF0A3F0900034F0A3F09000CF
:100D10000BE04405F090000D020E549003F5E0FC4A
:100D2000A3E0FDEC90002CF0A3EDF0E53290003450
:100D3000020E6E7F207E001229939003F7EEF0A33F
:100D4000EFF0900306E075F043A485F030F531E54F
:100D500030C313FCE53113FD9003F7E0FEA3E0FF81
:100D60002DF533EE3CF532900132122CE79003F76B
:100D7000EEF0A3EFF0900142E0FDA3E0FBA3E0F56D
:100D800038A3E0F539AF33AE32122CF48E328F3304
:100D9000900056E020E207900403E0B4011CE490C8
:100DA000002EF0A3F0900036F0A3F090000CE04489
:100DB00050F090000EE04450F0229003F7E0FCA3C6
:100DC000E0FDEC90002EF0A3EDF0E532900036024D
:100DD0000E6E7F307E001229939003F9EEF0A3EFA0
:100DE000F0900307E075F043A485F030F531E5306D
:100DF000C313FCE53113FD9003F9E0FEA3E0FF2DE2
:100E0000F533EE3CF532900136122CE79003F9EE03
:100E1000F0A3EFF0900146E0FDA3E0FBA3E0F5387E
:100E2000A3E0F539AF33AE32122CF48E328F33900B
:100E30000056E020E307900403E0B4011CE49000B6
:100E400030F0A3F0900038F0A3F090000CE04405DF
:100E5000F090000EE04405F0229003F9E0FCA3E0DE
:100E6000FDEC900030F0A3EDF0E532900038F0A3F7
:100E7000E533F022E4FD7F181231219002E1EFF01A
:100E80007D017F181231219002E2EFF07D027F1880
:100E90001231219002ECEFF07D037F181231219086
:100EA00002EDEFF07D047F181231219002EEEFF099
:100EB0007D057F181231219002EFEFF07D107F1831
:100EC0001231219002F0EFF07D117F181231219044
:100ED00002F1EFF07D167F181231219002F2EFF04F
:100EE0007D177F181231219002E3EFF07D187F18F3
:100EF0001231219002E4EFF07D197F181231219018
:100F000002F3EFF07D1A7F181231219002E5EFF025
:100F10007D1B7F181231219002F4EFF07D1C7F18A9
:100F20001231219002F5EFF07D1D7F1812312190D2
:100F300002F6EFF07D217F181231219002F7EFF0D9
:100F40007D227F181231219002F8EFF07D237F1867
:100F50001231219002F9EFF07D257F181231219096
:100F600002FAEFF07D267F181231219002FBEFF09C
:100F70007D277F181231219002FCEFF07D287F1829
:100F80001231219002FDEFF07D407F181231219047
:100F900002FEEFF07D417F181231219002FFEFF049
:100FA0007D427F18123121900300EFF07D437F18BE
:100FB000123121900301EFF07D447F18123121900E
:100FC0000302EFF07D457F18123121900303EFF00B
:100FD0007D467F18123121900304EFF07D477F1882
:100FE000123121900305EFF07D487F1812312190D6
:100FF0000306EFF07D497F18123121900307EFF0CF
:101000007D4A7F18123121900308EFF07D4B7F1845
:10101000123121900309EFF07D4C7F18123121909D
:10102000030AEFF07D4D7F1812312190030BEFF092
:101030007D4E7F1812312190030CEFF07D4F7F1809
:1010400012312190030DEFF07D507F181231219065
:10105000030EEFF07D517F1812312190030FEFF056
:101060007D527F18123121900310EFF07D5E7F18C2
:10107000123121900311EFF07D5F7F181231219022
:101080000312EFF07D607F18123121900313EFF00F
:101090007D627F18123121900314EFF07D687F1874
:1010A0001231219002E6EFF07D697F181231219014
:1010B00002E7EFF07D907F18123121900315EFF0D9
:1010C0007D927F18123121900316EFF07D827F18F8
:1010D000123121900317EFF02290007FE01203DF1E
:1010E00011110111240211378011548811719011CE
:1010F000979111EFA0120EA1122DA2124CA3126B08
:10110000A8128AA912A7AA12C4AB12E1B000001358
:101110001F7B017A0079807535007536807F007EEF
:10112000CA02130D7B017A0079807535007536800F
:101130007F007ECC02130D900239E0D3940150035E
:1011400002131F120E7478807C007D017B017A02ED
:1011500079E1803C900239E0D39401500302131FDF
:10116000121A3578807C007D017B017A03796280D8
:101170001F900239E0D39401407290019D7402F0F7
:10118000A37409F078807C007D017B017A017923CA
:101190007E007F8002030B900239E0D39401404C23
:1011A00078807C007D017B017A0279277E007F10A8
:1011B00012030B78907C007D017B017A0179007E1F
:1011C000007F1012030B78A07C007D017B017A0167
:1011D00079107E007F1012030B7B017A00798075F5
:1011E00035007536807F007ED602130D02131090F5
:1011F0000239E0D3940140137B017A007980753580
:10120000007536807F007ED802130D021310900205
:1012100039E0D3940140137B017A00798075350061
:101220007536807F007EDA02130D021310900239AA
:10123000E0D3940140137B017A0079807535007505
:1012400036807F007EDC02130D021310900239E01D
:10125000D3940140137B017A00798075350075368F
:10126000807F007EDE02130D021310900239E0D35E
:10127000940140137B017A007980753500753680C2
:101280007F007EE002130D021310900239E0D39428
:101290000140127B017A0079807535007536807FB8
:1012A000007EE280688069900239E0D394014012A8
:1012B0007B017A0079807535007536807F007EE489
:1012C000804B804C900239E0D3940140127B017A2C
:1012D0000079807535007536807F007EE6802E802F
:1012E0002F900239E0D39401402678807C007D0164
:1012F0007B017A02793B7E007F2012030B7B017A0F
:101300000079A07535007536607F207EF6022C9B33
:101310007E007F807DFF7B017A00798012040522A8
:101320007BF07D107F181200469002ECE0FB7D02FE
:101330007F181200469002EDE0FB7D037F1812003B
:10134000469002EEE0FB7D047F181200469002EF0B
:10135000E0FB7D057F181200469002F1E0FB7D1155
:101360007F181200469002F2E0FB7D167F181200F3
:10137000469002F3E0FB7D197F181200469002F4BC
:10138000E0FB7D1B7F181200469002F5E0FB7D1C00
:101390007F181200469002F6E0FB7D1D7F181200B8
:1013A000469002F7E0FB7D217F181200469002F87C
:1013B000E0FB7D227F181200469002F9E0FB7D23BE
:1013C0007F181200469002FAE0FB7D257F1812007C
:1013D000469002FBE0FB7D267F181200469002FC3F
:1013E000E0FB7D277F181200469002FDE0FB7D2880
:1013F0007F181200469002FEE0FB7D407F1812002D
:1014000046900308E0FB7D4A7F18120046900309CE
:10141000E0FB7D4B7F1812004690030AE0FB7D4CF9
:101420007F1812004690030BE0FB7D4D7F181200E1
:101430004690030CE0FB7D4E7F1812004690030D92
:10144000E0FB7D4F7F1812004690030EE0FB7D50BD
:101450007F1812004690030FE0FB7D517F181200A9
:1014600046900310E0FB7D527F1812004690031156
:10147000E0FB7D5E7F18120046900312E0FB7D5F6B
:101480007F18120046900313E0FB7D607F18120066
:1014900046900314E0FB7D627F1812004690030023
:1014A000E0FB7D427F18120046900301E0FB7D4384
:1014B0007F18120046900302E0FB7D447F18120063
:1014C00046900303E0FB7D457F181200469003041D
:1014D000E0FB7D467F18120046900305E0FB7D4748
:1014E0007F18120046900306E0FB7D487F1812002B
:1014F00046900307E0FB7D497F181200469002FFEB
:10150000E0FB7D417F18120046900317E0FB7D82CF
:101510007F180200469002ECE0FB7D027F1812006B
:10152000469002EDE0FB7D037F181200469002EE2C
:10153000E0FB7D047F181200469002EFE0FB7D0582
:101540007F181200469002F0E0FB7D107F18120019
:10155000469002F1E0FB7D117F181200469002F2E6
:10156000E0FB7D167F181200469002F3E0FB7D1928
:101570007F181200469002F4E0FB7D1B7F181200DA
:10158000469002F5E0FB7D1C7F181200469002F6A3
:10159000E0FB7D1D7F181200469002F7E0FB7D21E5
:1015A0007F181200469002F8E0FB7D227F1812009F
:1015B000469002F9E0FB7D237F181200469002FA64
:1015C000E0FB7D257F181200469002FBE0FB7D26A4
:1015D0007F181200469002FCE0FB7D277F18120066
:1015E000469002FDE0FB7D287F181200469002FE27
:1015F000E0FB7D407F18120046900308E0FB7D4A27
:101600007F18120046900309E0FB7D4B7F18120003
:101610004690030AE0FB7D4C7F1812004690030BB6
:10162000E0FB7D4D7F1812004690030CE0FB7D4EE1
:101630007F1812004690030DE0FB7D4F7F181200CB
:101640004690030EE0FB7D507F1812004690030F7A
:10165000E0FB7D517F18120046900310E0FB7D52A5
:101660007F18120046900311E0FB7D5E7F18120088
:1016700046900312E0FB7D5F7F1812004690030046
:10168000E0FB7D427F18120046900301E0FB7D43A2
:101690007F18120046900302E0FB7D447F18120081
:1016A00046900303E0FB7D457F181200469003043B
:1016B000E0FB7D467F18120046900305E0FB7D4766
:1016C0007F18120046900306E0FB7D487F18120049
:1016D00046900307E0FB7D497F181200469002FF09
:1016E000E0FB7D417F18120046900317E0FB7D82EE
:1016F0007F18020046EF24FE606E1470030217C3C9
:1017000014700302181E2403600302187E7F031264
:1017100030BDAD07AC06D390015BE09D90015AE06F
:101720009C401C900217E090037D30E406E054F7E3
:10173000F08004E04408F0E4900022F0A304F0D329
:1017400090015DE09D90015CE09C400302187E905A
:10175000014A122CE3AC06AD0790037DE054F7F08C
:10176000AF049000220218777F021230BDAD07ACA3
:1017700006D390015FE09D90015EE09C401C9002CA
:1017800017E090037D30E506E054FBF08004E04470
:1017900004F0E4900024F0A304F0D3900161E09DF4
:1017A000900160E09C400302187E90014E122CE3F1
:1017B000AC06AD0790037DE054FBF0AF049000242D
:1017C0000218777F011230BDAD07AC06D3900163DC
:1017D000E09D900162E09C401C900217E090037D28
:1017E00030E606E054FDF08004E04402F0E49000AE
:1017F00026F0A304F0D3900165E09D900164E09C85
:10180000507CAF05AE04900152122CE7AC06AD0738
:1018100090037DE054FDF0AF049000268059E4FF72
:101820001230BDAD07AC06D3900167E09D90016614
:10183000E09C401C900217E090037D30E706E054E6
:10184000FEF08004E04401F0E4900028F0A304F0EE
:10185000D3900169E09D900168E09C5021AF05AEF6
:1018600004900156122CE7AC06AD0790037DE054BE
:10187000FEF0AF04900028EFF0AF05A3EFF0900367
:101880007DE0FB9003F1E06B60077D407F16120066
:101890004690037DE09003F1F022E4FDFC900022ED
:1018A000E0FEA3E0FBEEF530EBF531A3E0FEA3E0B4
:1018B000FBEEF532EBF533A3E0FEA3E0FBEEF534EF
:1018C000EBF535A3E0FEA3E0FBEEF536EBF5379044
:1018D00001D7E0FEA3E0FBEEF538EBF539A3E0FE1F
:1018E000A3E0FBEEF53AEBF53BA3E0FEA3E0FBEE55
:1018F000F53CEBF53DA3E0FEA3E0FBEBFFC3E531D8
:101900009FE5309E50027D10D3E531953DE5309541
:101910003C4003430520C3E531953BE530953A5003
:1019200003430540D3E5319539E53095384003430D
:101930000580C3E5339FE5329E5003430501D3E59F
:1019400033953DE532953C4003430502C3E53395AD
:101950003BE532953A5003430504D3E5339539E529
:101960003295384003430508C3E5359FE5349E5062
:1019700003430410D3E535953DE534953C400343DE
:101980000420C3E535953BE534953A5003430440C4
:10199000D3E5359539E53495384003430480C3E5F4
:1019A000379FE5369E5003430401D3E537953DE567
:1019B00036953C4003430402C3E537953BE5369535
:1019C0003A5003430404D3E5379539E5369538405A
:1019D00003430408900009E0FFD394004005ED7034
:1019E00002AD0790000AE0FFD394004005EC7002BE
:1019F000AC079003E2EDF0900009F09003E5ECF005
:101A000090000AF0900219E0F45D6010C28290002C
:101A100002E054FDF09003EFE04410F090021AE071
:101A2000F45C6010C282900002E054FDF09003EF7D
:101A3000E04420F022E4FD7F16123121900362EF92
:101A4000F07D017F16123121900363EFF07D027F5C
:101A50001612312190036BEFF07D037F16123121B6
:101A600090036CEFF07D047F1612312190036DEF2F
:101A7000F07D057F1612312190036EEFF07D107F0F
:101A80001612312190036FEFF07D117F1612312174
:101A9000900370EFF07D167F16123121900371EFE5
:101AA000F07D177F16123121900364EFF07D187FCF
:101AB00016123121900365EFF07D197F1612312146
:101AC000900372EFF07D1A7F16123121900366EFBA
:101AD000F07D1B7F16123121900373EFF07D207F84
:101AE00016123121900374EFF07D217F16123121FF
:101AF000900375EFF07D227F16123121900376EF6F
:101B0000F07D237F16123121900377EFF07D247F43
:101B100016123121900378EFF07D257F16123121C6
:101B2000900379EFF07D267F1612312190037AEF32
:101B3000F07D277F1612312190037BEFF07D287F07
:101B40001612312190037CEFF07D407F1612312177
:101B500090037DEFF07D417F1612312190037EEFDF
:101B6000F07D427F1612312190037FEFF07D437F9D
:101B700016123121900380EFF07D447F161231213F
:101B8000900381EFF07D457F16123121900382EFA3
:101B9000F07D467F16123121900383EFF07D477F61
:101BA00016123121900384EFF0224103610060207E
:101BB000023B534C424636345133324D4C4433375A
:101BC000303435434D544133373034344301000011
:101BD00000006081026000000000000000000000C2
:101BE00000000000000000000000000000000000F5
:101BF00000000000000000000000000000000000E5
:101C000000000000000000000000000000000000D4
:101C100000000000000000000000000000000000C4
:101C200000000000000000000000000000000000B4
:101C300000000000000000000000000000000000A4
:101C40000000000000000000000000000000000094
:101C50000000000000000041025E00410237004128
:101C6000025D004102390041025B0041023800413F
:101C7000040BAA41040CAA420121000041012002E8
:101C80004103ED004103E7004103EB004103F00095
:101C90004103E8004103E2004103E5004103E9009C
:101CA0004103EC004103E4004103E6004203EE007F
:101CB000004103EA004103E3014103F2004103F163
:101CC00000410404004104060141040300410405ED
:101CD000004103FD00410402004103FB064103FCF7
:101CE000064103FE004103FF0041040002410401DC
:101CF000020090036CE0FB7D037F16120046900308
:101D00006DE0FB7D047F1612004690036EE0FB7DC4
:101D1000057F1612004690036FE0FB7D107F1612C0
:101D20000046900370E0FB7D117F16120046900381
:101D300071E0FB7D167F16120046900372E0FB7D7A
:101D4000197F16120046900373E0FB7D1B7F16126D
:101D50000046900374E0FB7D207F1612004690033E
:101D600075E0FB7D217F16120046900376E0FB7D37
:101D7000227F16120046900377E0FB7D237F161228
:101D80000046900378E0FB7D247F16120046900306
:101D900079E0FB7D257F1612004690037AE0FB7DFB
:101DA000267F1612004690037BE0FB7D277F1612EC
:101DB000004690037CE0FB7D287F161200469003CE
:101DC0007DE0FB7D407F1612004690037EE0FB7DA8
:101DD000417F1612004690037FE0FB7D427F161282
:101DE0000046900380E0FB7D437F1612004690037F
:101DF00081E0FB7D447F16120046900382E0FB7D6C
:101E0000457F16120046900383E0FB7D467F161245
:101E10000046900384E0FB7D477F16120046900346
:101E200085E0FB7D827F160200467BF07D107F16E9
:101E300012004690036CE0FB7D037F161200469073
:101E4000036DE0FB7D047F1612004690036EE0FBFD
:101E50007D057F16120046900370E0FB7D117F1612
:101E6000120046900371E0FB7D167F16120046902B
:101E70000372E0FB7D197F16120046900373E0FBAE
:101E80007D1B7F16120046900374E0FB7D207F16B9
:101E9000120046900375E0FB7D217F1612004690EC
:101EA0000376E0FB7D227F16120046900377E0FB6D
:101EB0007D237F16120046900378E0FB7D247F1679
:101EC000120046900379E0FB7D257F1612004690B4
:101ED000037AE0FB7D267F1612004690037BE0FB31
:101EE0007D277F1612004690037CE0FB7D287F163D
:101EF00012004690037DE0FB7D407F161200469065
:101F0000037EE0FB7D417F1612004690037FE0FBDD
:101F10007D427F16120046900380E0FB7D437F16D2
:101F2000120046900381E0FB7D447F16120046902C
:101F30000382E0FB7D457F16120046900383E0FBA1
:101F40007D467F16120046900384E0FB7D477F1696
:101F5000120046900385E0FB7D827F16020046EF6B
:101F600024FE6059147003022003147003022048F9
:101F7000240360030220909003F2E0FF3395E0FE1B
:101F8000E42FFFEE34D8FE1231B2900300EFF09050
:101F900003F2E0FF3395E0FEE42FFFEE34E0FE12A3
:101FA00031B2900304EFF0900300E0FB7D427F1814
:101FB000120046900304E0FB7D4602208B9003F262
:101FC000E0FF3395E0FEE42FFFEE34DAFE1231B28B
:101FD000900301EFF09003F2E0FF3395E0FEE42F71
:101FE000FFEE34E2FE1231B2900305EFF0900301F0
:101FF000E0FB7D437F18120046900305E0FB7D4720
:1020000002208B9003F2E0FF3395E0FEE42FFFEE19
:1020100034DCFE1231B2900302EFF09003F2E0FFE5
:102020003395E0FEE42FFFEE34E4FE1231B290036C
:1020300006EFF0900302E0FB7D447F18120046900B
:102040000306E0FB7D4880439003F2E0FF3395E018
:10205000FEE42FFFEE34DEFE1231B2900303EFF008
:102060009003F2E0FF3395E0FEE42FFFEE34E6FE4E
:102070001231B2900307EFF0900303E0FB7D457F40
:1020800018120046900307E0FB7D497F18120046B6
:1020900022EF24FDB40C0040030221719020AA75A8
:1020A000F003A4C58325F0C583730220CE0220D699
:1020B0000220E50220FB02210902217102212302F4
:1020C000213D02215702215E02216502216CE4902C
:1020D0000003F0022171E4900004F09003EFE0545B
:1020E000FDF0022171900005E0FF9003EBE0F4FEAB
:1020F000EF5E900005F09003EE8008E4900006F09B
:102100009003EFE054FBF08068900007E0FF90033D
:10211000E8E0F4FEEF5E900007F09003EFE054F784
:10212000F0804E900009E0FF9003E2E0F4FEEF5EE5
:10213000900009F09003EFE054EFF0803490000A33
:10214000E0FF9003E5E0F4FEEF5E90000AF09003FC
:10215000EFE054DFF0801AE490000BF08013E4907D
:10216000000CF0800CE490000DF08005E490000E6F
:10217000F09003EEE07002A3E07009900002E044EA
:1021800002F0D2822290025BE064016003022266C8
:1021900090023AE024FE602214602D14603814602E
:1021A0004224FE607B24066003022261900261E00B
:1021B00090007FF01210D9022261900261E090003D
:1021C00056F012282B022261900261E090005DF02F
:1021D000122A57022261900261E0900062F01223FD
:1021E000E9807EE4FFFE90025FE0FDC3EF9DEE9488
:1021F00000502874612FF58274023EF583E0FD9053
:10220000025EE02FFBE43EFA74002BF58274003A84
:10221000F583EDF00FBF00010E80CB122AB680418E
:1022200090025FE0FF90025EE0FD2FFFE433FED3FB
:10223000EF9400EE648094814005EDF404A3F090E7
:10224000025FE0FF7E0090025EE02400F9E43400CB
:10225000A801FC7D017B017A02796112030B120453
:10226000FFE490025BF022EFB40A0040030223294E
:10227000902277F82828730222950222C80222D7DA
:102280000222E60222F502230502230902230D029F
:102290002311022316123002122BB57F0D1231606A
:1022A0001231987F11123160EF25E0FFEE3390017B
:1022B0009FF0A3EFF07F10123160EF25E0FFEE33C7
:1022C0009001A1F0A3EFF02290016FE060057F0183
:1022D000121F5FE4FF802B90016FE060057F021208
:1022E0001F5F7F01801C90016FE060057F03121F5C
:1022F0005F7F02800D90016FE060057F04121F5F19
:102300007F03020BD77F01800A7F0280067F038054
:10231000027F040216F512232A1224A412189A909E
:10232000007FE0B40303122C0622E4FD900016E0C7
:10233000FEA3E0FBEEF530EBF5319001A7E0FEA344
:10234000E0FBEEF532EBF533A3E0FEA3E0FBEEF5A8
:1023500034EBF535A3E0FEA3E0FBEEF536EBF53705
:10236000A3E0FEA3E0FBEBFF900067E0FCC3E531D8
:102370009FEE6480F8E53064809850027D10D3E5CC
:10238000319537E5366480F8E53064809840034342
:102390000520C3E5319535E5346480F8E530648087
:1023A000985003430540D3E5319533E5326480F816
:1023B000E5306480984003430580900006E0FFD339
:1023C00094004005ED7002AD079003F0EDF04F90E2
:1023D0000006F0ECF45D6010C282900002E054FD53
:1023E000F09003EFE04404F022900062E0FFFE90E2
:1023F00003E3E0FDEF6D700302249BEE90036F306A
:10240000E006E054F7F08004E04408F0EE90036F3B
:1024100030E106E054FBF08004E04404F0EE900369
:102420006F30E206E054FDF08004E04402F0EE90EC
:10243000036F30E306E054FEF08004E04401F0EE68
:102440009002F030E406E054FEF08004E04401F035
:10245000EE9002F030E506E054FDF08004E0440226
:10246000F0EE9002F030E606E054FBF08004E04429
:1024700004F0EE9002F030E706E054F7F08004E05C
:102480004408F090036FE0FB7D107F161200469029
:1024900002F0E0FB7D107F18120046900062E09091
:1024A00003E3F022E4FD90001AE0FEA3E0FBEEF56A
:1024B00030EBF5319001B7E0FEA3E0FBEEF532EB37
:1024C000F533A3E0FEA3E0FBEEF534EBF535A3E036
:1024D000FEA3E0FBEEF536EBF537A3E0FEA3E0FB51
:1024E000EBFF900068E0FCC3E5319FE5309E5002B1
:1024F0007D10D3E5319537E530953640034305200F
:10250000C3E5319535E53095345003430540D3E5B7
:10251000319533E53095324003430580900007E064
:10252000FFD394004005ED7002AD079003E8EDF095
:10253000900007F0ECF45D6010C282900002E0545D
:10254000FDF09003EFE04408F022900211E0F53135
:10255000A3E0F5329003FBE06531603BE53154F0D8
:10256000C4540FF5302427F582E43402F583E0905B
:1025700002FAF0FB7D257F18120046E531540FF575
:10258000302427F582E43402F583E09002FBF0FB6F
:102590007D267F181200469003FCE06532603BE523
:1025A0003254F0C4540FF5302427F582E43402F598
:1025B00083E09002FCF0FB7D277F18120046E53295
:1025C000540FF5302427F582E43402F583E09002BD
:1025D000FDF0FB7D287F181200469003FBE531F0EB
:1025E000A3E532F022900215E0F531A3E0F5329038
:1025F0000400E06531603BE53154F0C4540FF53020
:102600002410F582E43401F583E0900382F0FB7D31
:10261000457F16120046E531540FF5302410F5823F
:10262000E43401F583E0900381F0FB7D447F1612D2
:102630000046900401E06532603BE53254F0C4543A
:102640000FF5302410F582E43401F583E090038027
:10265000F0FB7D437F16120046E532540FF530241F
:1026600010F582E43401F583E090037FF0FB7D42B6
:102670007F16120046900400E531F0A3E532F02207
:10268000900213E0F531A3E0F5329003FEE06531EE
:10269000603AE531540FF5302400F582E43401F559
:1026A00083E0FF900384F0E53154F0C4540FF5301B
:1026B0002400F582E43401F583E0C454F0FEEF4ECB
:1026C000900384F0FB7D477F161200469003FFE0E5
:1026D0006532603AE532540FF5302400F582E43477
:1026E00001F583E0FF900383F0E53254F0C4540F0A
:1026F000F5302400F582E43401F583E0C454F0FEA3
:10270000EF4E900383F0FB7D467F16120046900348
:10271000FEE531F0A3E532F022120070787FE4F696
:10272000D8FD75813D0227630228AAE493A3F8E44B
:1027300093A34003F68001F208DFF48029E493A319
:10274000F85407240CC8C333C4540F4420C8834032
:1027500004F456800146F6DFE4800B010204081001
:10276000204080901BAAE47E019360BCA3FF543FED
:1027700030E509541FFEE493A360010ECF54C02539
:10278000E060A840B8E493A3FAE493A3F8E493A329
:10279000C8C582C8CAC583CAF0A3C8C582C8CAC58D
:1027A00083CADFE9DEE780BEE4F530F5317F0AFE5B
:1027B000123141C3E5319498E530943A500B7F0DC6
:1027C0001231608E308F3180EAC296C295D2837FFB
:1027D000647E00123141D3E53194E8E53094034042
:1027E0000B7F0D1231608E308F3180EAD296C3E5B7
:1027F000319498E530943A500B7F0D1231608E3051
:102800008F3180EA7F017E00123141D2957F647E54
:1028100000123141C3E5319440E530941F500B7FE5
:10282000111231608E308F3180EA22900056E0FF25
:10283000540FF5309003EAE0FEEF6E6064E53090EF
:1028400002FF30E005E044018003E054FEF0FB7D30
:10285000417F18120046E5309002FF30E105E04468
:10286000028003E054FDF0FB7D417F18120046E535
:10287000309002FF30E205E044048003E054FBF0B6
:10288000FB7D417F18120046E5309002FF30E305E2
:10289000E044088003E054F7F0FB7D417F1812000C
:1028A00046900056E09003EAF022E4F52CF52DF571
:1028B0002EF52F122F131227A87F3C7E00123141D4
:1028C0001231CA1230761233861232E7123380E4A4
:1028D000FB7D107F18120046E4FB7D107F1612006E
:1028E000461233001231F9D3E52D9420E52C9403E0
:1028F0004020AF2F122267052FE52F7002052EC34F
:10290000940AE52E94004005E4F52EF52FE4F52C0D
:10291000F52D052DE52D7002052C12282B122A57B6
:102920001223E912218580BF900217E0540FF53081
:10293000900402E065306048E5309002F830E0062F
:10294000E04401F08004E054FEF0E5309002F830FD
:10295000E106E04402F08004E054FDF0E53090022E
:10296000F830E206E04404F08004E054FBF0E53087
:102970009002F830E306E04408F08004E054F7F0F9
:102980009002F8E0FB7D227F18120046900402E5D9
:1029900030F0228E348F35EF2480FB7D907F18122B
:1029A00000467B047D927F181200467D657F1812D9
:1029B0002B108E368F377D687F18122B108E368F36
:1029C00037E5352480FB7D907F181200467B087D1B
:1029D000927F181200467D657F18122B107D687F4C
:1029E00018122B10C3E5379FFFE5369EFE7C007D55
:1029F0001512035C22AB05A907E4F536F535F5346D
:102A0000F53385A732F5A7FAEAC39B503789BBE4B3
:102A1000FFFE0FBF00010EEF640A4E70F5D2EC30DE
:102A2000EDFDAFBDAEBEE4FCFDE5362FF536E53578
:102A30003EF535ED3534F534EC3533F533C2ECC2C3
:102A4000ED0A80C4E4FAF9F8AF36AE35AD34AC33F4
:102A5000122D278532A72290005DE0FF900405E04B
:102A60006F604AEF30E03AE4A3F053E6FDEF30E167
:102A700019900404E070097BFF7D107F1612004658
:102A8000D2839004037401F08023900404E0700862
:102A9000FB7D107F16120046C283E4900403F08091
:102AA0000C9004067401F0122FD943E60290005DE9
:102AB000E0900405F0229001A3E0FF90007BE0FE8F
:102AC0006F702B9001A4E0FF90007CE0B5071F9091
:102AD00001A5E0FF90007DE0B507139001A6E0FF9F
:102AE00090007EE0B507079002397401F022EEB441
:102AF0003A1890007CE0B41811A3E0B4B60CA3E03F
:102B0000B46F079002397402F022E4900239F02287
:102B10008D38A907E4900407F0A3F0A3F0A3F01206
:102B20002D6B122F91AF38122F7A122E6690040758
:102B3000EFF012331F122E66A3EFF01232949004BE
:102B400007E075F010A4FFA3E07C002FFEEC35F049
:102B5000A3F0A3CEF012320F12335B900409E0FE13
:102B6000A3E0FF22E4900121F0A3F0F530F531AFAE
:102B700031AE301231B27E00900122E02FF0900190
:102B800021E03EF00531E53170020530C3E53094B7
:102B9000C840DC900121E0FFA3E090019BCFF0A3AF
:102BA000EFF07B017A0179237537007538807F005B
:102BB0007ED4022C53900127E0FDA3E0FBA3E0F5B7
:102BC000823395E0F534858235122EA0AD07AC0630
:102BD000ECFF900016EFF0AF05A3EFF0900016E0C9
:102BE000FFC36480945850027FD8D3EF648094D59B
:102BF00040027F5574282FFFA2E7139003F2F0D311
:102C0000EF648094BF2212292812254A12268012CE
:102C100025E5900211E09000EAF0900212E09000A9
:102C2000EBF0900213E09000ECF0900214E09000C2
:102C3000EDF0900215E09000EEF0900216E09000AA
:102C4000EFF0900217E09000F0F0900218E0900092
:102C5000F1F0228E328F338B348A358936E4F539A0
:102C6000F53A7D55122F47E4F539F53AC3E53A9523
:102C700038E53995375023E533253AFFE5323539C4
:102C8000FEAB340536E536AA3570020535122DF057
:102C9000053AE53A70D6053980D2228E308F318BD5
:102CA000328A338934E4F537F538F537F538C3E53A
:102CB000389536E53795355029E5312538FFE5302B
:102CC0003537FE1231B2AB320534E534AA33700227
:102CD000053314F9EF12034A0538E53870D005378B
:102CE00080CC22AF05AE04E0FDA3E0FBA3E0F53805
:102CF000A3E0F5398D368B37AB07AA06E4F9F8AFB8
:102D000036FCFDFE12036E8F3D8E3C8D3B8C3AA946
:102D100037A8011203CB8F3D8E3C8D3B8C3AE539B1
:102D20002FFFE5383EFE22C2D5E830E70FB2D5E4EA
:102D3000C39BFBE49AFAE499F9E498F8EC30E717BE
:102D4000B2D5122D5D12046DE4C39BFBE49AFAE444
:102D500099F9E498F8800312046D30D50DE4C39F0F
:102D6000FFE49EFEE49DFDE49CFC2212335B1233E3
:102D700015AF01AD07AC05C2B31231EA1231EA1248
:102D800031EA1231EA7B07EDA803088002C313D8A9
:102D9000FC5401FC6004D2B28002C2B21231E5C21E
:102DA000B31231EA1BC3EB6480948050DA228E3078
:102DB0008F318B328A338934E4F537F538F537F5BE
:102DC00038C3E5389536E53795355023E531253854
:102DD000FFE5303537FEAB320534E534AA337002F7
:102DE0000533122DF00538E53870D6053780D2222C
:102DF00014F9120331FD7B55ACA7A2AF9201E4F5A3
:102E0000A7C2AF75FF8075EF028F828E83BB550915
:102E100075B7A575B7F1438F0175FF8075EF02EDAA
:102E2000F0538FFEA20192AF8CA722C0E0C0F0C089
:102E300083C082C0D075D000C000C001C002C003F2
:102E4000C004C005C006C0071231F9D007D006D0B3
:102E500005D004D003D002D001D000D0D0D082D091
:102E600083D0F0D0E032E4FDC2B31231EA1231EA8D
:102E70001231EA1231EA7C071231E2A2B29201A2C7
:102E800001E433FFA804088002C333D8FC4205C222
:102E9000B31231EA1CC3EC6480948050DBAF05228E
:102EA0008D328B33AB07AA06EA3395E0F9F8AF32DF
:102EB000E4FCFDFE12036E8F398E388D378C36A9F7
:102EC00033A8011203CB8F398E388D378C36E53518
:102ED000FEE42539FFEE3538FE227B017A0279E1E6
:102EE0007535007536807F007ED0122C9B7B017A71
:102EF0000379627535007536807F007ED2122C9B77
:102F00007B017A0179237535007536807F007ED488
:102F1000022C9B85A7301233291232C71233331289
:102F2000333D12334712326E12003E1233641233B5
:102F3000721232A61232811232D712336B1233510F
:102F40001233798530A722ACA7A2AF9201C2AFE4B9
:102F5000F5A775FF8075EF028F828E83BD550975C9
:102F6000B7A575B7F1438F0375FF8075EF02E4F0E5
:102F7000538FFCA20192AF8CA722122D73122F91B6
:102F8000D2B31231EA12335B123315E904FF122D6A
:102F9000731231E230B209C2B31231EAC2B2800711
:102FA000C2B31231EAD2B21231EA22E4F531FD7F26
:102FB000181231218F30E4FD7F181231218F30E556
:102FC00030B47901221231000531E531D3940A4041
:102FD000E5900199E04401F022308410D2839004FE
:102FE000037401F0A3E070177BFF800CC283E490B0
:102FF0000403F0A3E07008FB7D107F161200460268
:1030000032F57D047F141229F5C3EF950DFFEE957F
:103010000CFE3395E0FDFCE4FB7A01F9F812036E37
:10302000E47B13FAF9F8122D27227F007EF8123183
:10303000B2BF010C122B647D557F007EF8022F4732
:1030400090019BE0FFA3E0900121CFF0A3EFF022DD
:103050007B017A0079807535007536807F807EC867
:10306000122C9B7B017A0179A77535007536807F1C
:10307000007ECE022C9B90FFD5E493FE90FFD4E41B
:1030800093FDEEFCE41201817BD77AA37930783F7F
:103090001200761201BA8E0C8F0D22E4F530E4FD99
:1030A0007F16123121BF7701221230DF0530E53063
:1030B000D3940A40E9900199E04401F02290036C16
:1030C000E054CFFDEF75F010A4FFE5F0FCEF4205F2
:1030D000AB057D037F161200467F131231602290EC
:1030E000036B74AAF0FB7D027F161200461232B702
:1030F000E490036BF0FB7D027F161200460232B7AC
:103100009002EC74AAF0FB7D027F18120046123286
:10311000B7E49002ECF0FB7D027F18120046023209
:10312000B78D32A907122D6B122F91AF32122F7A61
:10313000122E66AC0712329412320F12335BAF04B8
:1031400022AD07AC06E4FBFAC3EB9DEC6480F8EA21
:10315000648098500A1232B70BBB00010A80E92242
:103160007D041229F5AD07AC06E41201817B487A93
:10317000E179BA783F1200761201BA22AD07E4FB7A
:10318000FAEDFFC3EB9F7480F86A98500A1231EA97
:103190000BBB00010A80EA22EF25E0FFEE33FEAC14
:1031A00006900123122CE7AC0690001AECF0A3EF76
:1031B000F022ADA7A2AF9201C2AFE4F5A78F828E35
:1031C0008393FFA20192AF8DA722123050122EDA04
:1031D00012000312302A1232221232351232480201
:1031E000325B1231EAD2B31231EAE4FFFE0FBF00C4
:1031F000010EEF640A4E70F522AFA7E4F5A7208612
:103200000543C180800353C17F1233008FA722C2C0
:10321000B27F0212317CD2B37F0212317CD2B20271
:1032200031EA7B017A0279277535007536107F0007
:103230007ED6022C9B7B017A0179007535007536AC
:10324000107F107ED6022C9B7B017A017910753598
:10325000007536107F207ED6022C9B7B017A017987
:10326000A37535007536047F307ED6022C9B75B26F
:103270008075BB1475DF1F75BC1875B90443E881F0
:1032800022AF885388AF758CF1EF5440FEEF541095
:103290004E4288221231EAD2B21231E2C2B3123166
:1032A000EAC2B20231EAE4F5A9E5A930E7FB75A963
:1032B00003E5A930E7FB22E4FFFE000FBF00010E8B
:1032C000BE17F7BF70F422E4F5A475F1FE75D4FFC4
:1032D00075FE4075FDBF22E59154045391FB759333
:1032E000157592A04291227F647E00123141D296E0
:1032F000D295C2832230840475FDFF2275FDEF2232
:1033000030860475FDFF2275FDBF2253C17F43C186
:103310008053917F321231EAC2B27F0202317CC205
:10332000B21231E5C2B3D2B222E4F5A77597DE75C9
:1033300097AD2275A56075F27F75D5FF2275A72020
:1033400075F32375CC0C22E4F5A775E34075E10411
:103350002275D7A075D6FE43C11C22D2B3D2B27F4C
:103360000102317C75A71075C12022758E01758907
:103370000222E4F5A775EF062275E68375A8802280
:1033800012309B021E2A122FAB021320FFFFFFFFF9
:10339000FFFFFFFFFFFFFFFFFFFFFFFFFFFFFFFF3D
:1033A000FFFFFFFFFFFFFFFFFFFFFFFFFFFFFFFF2D
:1033B000FFFFFFFFFFFFFFFFFFFFFFFFFFFFFFFF1D
:1033C000FFFFFFFFFFFFFFFFFFFFFFFFFFFFFFFF0D
:10C800001100000000000000000000000000000017
:10C810000000000000000000000000000000000018
:10C820000000000000000000000000000000000008
:10C8300000000000000000000000000000000000F8
:10C8400000000000000000000000000000000000E8
:10C8500000000000000000000000000000000000D8
:10C860000000FF00000000000000000000000000C9
:10C8700000000000000000FFFFFFFFFFFFFFFF00C0
:10C88000118C23000000004000020205FF000000A0
:10C89000000000004C555853484152452D4943541F
:10C8A000202020201F3C18A00000000000000000F5
:10C8B0000000000000000000000000000000000078
:10C8C0000000000000000000000000000000000068
:10C8D0000000000000000000000000000000000058
:10C8E000FFFFFFFFFFFFFFFFFFFFFFFFFFFFFFFF58
:10CE000080000000000000000000000000000000A2
:10CE10000000000000000000000000000000000012
:10CE20000000000000000000000000000000000002
:10CE300000000000000000000000000000000000F2
:10CE400000000000000000000000000000000000E2
:10CE500000000000000000000000000000000000D2
:10CE6000000000000000000000006666333322224C
:10CE700000000000000000000000000000000000B2
:10CE8000FFFFFFFFFFFFFFFFFFFFFFFFFFFFFFFFB2
:10CE9000FFFFFFFFFFFFFFFFFFFFFFFFFFFFFFFFA2
:10CEA000FFFFFFFFFFFFFFFFFFFFFFFFFFFFFFFF92
:10CEB000FFFFFFFFFFFFFFFFFFFFFFFFFFFFFFFF82
:10CEC000FFFFFFFFFFFFFFFFFFFFFFFFFFFFFFFF72
:10CED000FFFFFFFFFFFFFFFFFFFFFFFFFFFFFFFF62
:10CEE000FFFFFFFFFFFFFFFFFFFFFFFFFFFFFFFF52
:10CEF000FFFFFFFFFFFFFFFFFFFFFFFFFFFFFFFF42
:10CF0000FFFFFFFFFFFFFFFFFFFFFFFFFFFFFFFF31
:10CF1000FFFFFFFFFFFFFFFFFFFFFFFFFFFFFFFF21
:10CF2000FFFFFFFFFFFFFFFFFFFFFFFFFFFFFFFF11
:10CF3000FFFFFFFFFFFFFFFFFFFFFFFFFFFFFFFF01
:10CF4000FFFFFFFFFFFFFFFFFFFFFFFFFFFFFFFFF1
:10CF5000FFFFFFFFFFFFFFFFFFFFFFFFFFFFFFFFE1
:10CF6000FFFFFFFFFFFFFFFFFFFFFFFFFFFFFFFFD1
:10CF7000FFFFFFFFFFFFFFFFFFFFFFFFFFFFFFFFC1
:10CF8000FFFFFFFFFFFFFFFFFFFFFFFFFFFFFFFFB1
:10CF9000FFFFFFFFFFFFFFFFFFFFFFFFFFFFFFFFA1
:10CFA000FFFFFFFFFFFFFFFFFFFFFFFFFFFFFFFF91
:10CFB000FFFFFFFFFFFFFFFFFFFFFFFFFFFFFFFF81
:10CFC000FFFFFFFFFFFFFFFFFFFFFFFFFFFFFFFF71
:10CFD000FFFFFFFFFFFFFFFFFFFFFFFFFFFFFFFF61
:10CFE000FFFFFFFFFFFFFFFFFFFFFFFFFFFFFFFF51
:10CFF000FFFFFFFFFFFFFFFFFFFFFFFFFFFFFFFF41
:10D000000000000000000000000000000000000020
:10D010000F00FF000F7F55000006060606F00023F4
:10D02000232323595959590000000000020202022B
:10D0300000001000000110000000000000000000CF
:10D0400000000000000000000000000000000000E0
:10D0500000000000000000000000000000000000D0
:10D0600000000000000000000000000000000000C0
:10D0700000000000000000000000000000000000B0
:10D08000FFFFFFFFFFFFFFFFFFFFFFFFFFFFFFFFB0
:10D09000FFFFFFFFFFFFFFFFFFFFFFFFFFFFFFFFA0
:10D0A000FFFFFFFFFFFFFFFFFFFFFFFFFFFFFFFF90
:10D0B000FFFFFFFFFFFFFFFFFFFFFFFFFFFFFFFF80
:10D0C000FFFFFFFFFFFFFFFFFFFFFFFFFFFFFFFF70
:10D0D000FFFFFFFFFFFFFFFFFFFFFFFFFFFFFFFF60
:10D0E000FFFFFFFFFFFFFFFFFFFFFFFFFFFFFFFF50
:10D0F000FFFFFFFFFFFFFFFFFFFFFFFFFFFFFFFF40
:10D10000FFFFFFFFFFFFFFFFFFFFFFFFFFFFFFFF2F
:10D11000FFFFFFFFFFFFFFFFFFFFFFFFFFFFFFFF1F
:10D12000FFFFFFFFFFFFFFFFFFFFFFFFFFFFFFFF0F
:10D13000FFFFFFFFFFFFFFFFFFFFFFFFFFFFFFFFFF
:10D14000FFFFFFFFFFFFFFFFFFFFFFFFFFFFFFFFEF
:10D15000FFFFFFFFFFFFFFFFFFFFFFFFFFFFFFFFDF
:10D16000FFFFFFFFFFFFFFFFFFFFFFFFFFFFFFFFCF
:10D17000FFFFFFFFFFFFFFFFFFFFFFFFFFFFFFFFBF
:10D18000FFFFFFFFFFFFFFFFFFFFFFFFFFFFFFFFAF
:10D19000FFFFFFFFFFFFFFFFFFFFFFFFFFFFFFFF9F
:10D1A000FFFFFFFFFFFFFFFFFFFFFFFFFFFFFFFF8F
:10D1B000FFFFFFFFFFFFFFFFFFFFFFFFFFFFFFFF7F
:10D1C000FFFFFFFFFFFFFFFFFFFFFFFFFFFFFFFF6F
:10D1D000FFFFFFFFFFFFFFFFFFFFFFFFFFFFFFFF5F
:10D1E000FFFFFFFFFFFFFFFFFFFFFFFFFFFFFFFF4F
:10D1F000FFFFFFFFFFFFFFFFFFFFFFFFFFFFFFFF3F
:10D2000000000000000000000000C00000000F004F
:10D21000CF030000F0F0000F0F0F0F00003232328A
:10D2200032777710000000000000000000000000CE
:10D2300000000000000000000000000000000000EE
:10D2400000000000000000000000000000000000DE
:10D2500000000000000000000000000000000000CE
:10D2600000000000000000000000000000000000BE
:10D2700000000000000000000000000000000000AE
:10D28000FFFFFFFFFFFFFFFFFFFFFFFFFFFFFFFFAE
:10D29000FFFFFFFFFFFFFFFFFFFFFFFFFFFFFFFF9E
:10D2A000FFFFFFFFFFFFFFFFFFFFFFFFFFFFFFFF8E
:10D2B000FFFFFFFFFFFFFFFFFFFFFFFFFFFFFFFF7E
:10D2C000FFFFFFFFFFFFFFFFFFFFFFFFFFFFFFFF6E
:10D2D000FFFFFFFFFFFFFFFFFFFFFFFFFFFFFFFF5E
:10D2E000FFFFFFFFFFFFFFFFFFFFFFFFFFFFFFFF4E
:10D2F000FFFFFFFFFFFFFFFFFFFFFFFFFFFFFFFF3E
:10D30000FFFFFFFFFFFFFFFFFFFFFFFFFFFFFFFF2D
:10D31000FFFFFFFFFFFFFFFFFFFFFFFFFFFFFFFF1D
:10D32000FFFFFFFFFFFFFFFFFFFFFFFFFFFFFFFF0D
:10D33000FFFFFFFFFFFFFFFFFFFFFFFFFFFFFFFFFD
:10D34000FFFFFFFFFFFFFFFFFFFFFFFFFFFFFFFFED
:10D35000FFFFFFFFFFFFFFFFFFFFFFFFFFFFFFFFDD
:10D36000FFFFFFFFFFFFFFFFFFFFFFFFFFFFFFFFCD
:10D37000FFFFFFFFFFFFFFFFFFFFFFFFFFFFFFFFBD
:10D38000FFFFFFFFFFFFFFFFFFFFFFFFFFFFFFFFAD
:10D39000FFFFFFFFFFFFFFFFFFFFFFFFFFFFFFFF9D
:10D3A000FFFFFFFFFFFFFFFFFFFFFFFFFFFFFFFF8D
:10D3B000FFFFFFFFFFFFFFFFFFFFFFFFFFFFFFFF7D
:10D3C000FFFFFFFFFFFFFFFFFFFFFFFFFFFFFFFF6D
:10D3D000FFFFFFFFFFFFFFFFFFFFFFFFFFFFFFFF5D
:10D3E000FFFFFFFFFFFFFFFFFFFFFFFFFFFFFFFF4D
:10D3F000FFFFFFFFFFFFFFFFFFFFFFFFFFFFFFFF3D
:10D400000100000001000001000000010000000117
:10D410000000000100000001000000010000000108
:10D4200000000001000000010000000100000001F8
:10D4300000000001000000008001000080010000E9
:10D440008001000080010046000100000100000092
:10D45000FFFFFFFFFFFFFFFFFFFFFFFFFFFFFFFFDC
:10D46000FFFFFFFFFFFFFFFFFFFFFFFFFFFFFFFFCC
:10D47000FFFFFFFFFFFFFFFFFFFFFFFFFFFFFFFFBC
:10D48000FFFFFFFFFFFFFFFFFFFFFFFFFFFFFFFFAC
:10D49000FFFFFFFFFFFFFFFFFFFFFFFFFFFFFFFF9C
:10D4A000FFFFFFFFFFFFFFFFFFFFFFFFFFFFFFFF8C
:10D4B000FFFFFFFFFFFFFFFFFFFFFFFFFFFFFFFF7C
:10D4C000FFFFFFFFFFFFFFFFFFFFFFFFFFFFFFFF6C
:10D4D000FFFFFFFFFFFFFFFFFFFFFFFFFFFFFFFF5C
:10D4E000FFFFFFFFFFFFFFFFFFFFFFFFFFFFFFFF4C
:10D4F000FFFFFFFFFFFFFFFFFFFFFFFFFFFFFFFF3C
:10D50000FFFFFFFFFFFFFFFFFFFFFFFFFFFFFFFF2B
:10D51000FFFFFFFFFFFFFFFFFFFFFFFFFFFFFFFF1B
:10D52000FFFFFFFFFFFFFFFFFFFFFFFFFFFFFFFF0B
:10D53000FFFFFFFFFFFFFFFFFFFFFFFFFFFFFFFFFB
:10D54000FFFFFFFFFFFFFFFFFFFFFFFFFFFFFFFFEB
:10D55000FFFFFFFFFFFFFFFFFFFFFFFFFFFFFFFFDB
:10D56000FFFFFFFFFFFFFFFFFFFFFFFFFFFFFFFFCB
:10D57000FFFFFFFFFFFFFFFFFFFFFFFFFFFFFFFFBB
:10D58000FFFFFFFFFFFFFFFFFFFFFFFFFFFFFFFFAB
:10D59000FFFFFFFFFFFFFFFFFFFFFFFFFFFFFFFF9B
:10D5A000FFFFFFFFFFFFFFFFFFFFFFFFFFFFFFFF8B
:10D5B000FFFFFFFFFFFFFFFFFFFFFFFFFFFFFFFF7B
:10D5C000FFFFFFFFFFFFFFFFFFFFFFFFFFFFFFFF6B
:10D5D000FFFFFFFFFFFFFFFFFFFFFFFFFFFFFFFF5B
:10D5E000FFFFFFFFFFFFFFFFFFFFFFFFFFFFFFFF4B
:10D5F000FFFFFFFFFFFFFFFFFFFFFFFFFFFFFFFF3B
:10D6000000000102030406080A0B0E0000000000DF
:10D6100002030507090B0D0F0000000000000000C9
:10D62000001E323C0000000000000000000000006E
:10D630009378CCAEFFFFFFFFFFFFFFFFFFFFFFFF71
:10D64000FFFFFFFFFFFFFFFFFFFFFFFFFFFFFFFFEA
:10D65000FFFFFFFFFFFFFFFFFFFFFFFFFFFFFFFFDA
:10D66000FFFFFFFFFFFFFFFFFFFFFFFFFFFFFFFFCA
:10D67000FFFFFFFFFFFFFFFFFFFFFFFFFFFFFFFFBA
:10D68000FFFFFFFFFFFFFFFFFFFFFFFFFFFFFFFFAA
:10D69000FFFFFFFFFFFFFFFFFFFFFFFFFFFFFFFF9A
:10D6A000FFFFFFFFFFFFFFFFFFFFFFFFFFFFFFFF8A
:10D6B000FFFFFFFFFFFFFFFFFFFFFFFFFFFFFFFF7A
:10D6C000FFFFFFFFFFFFFFFFFFFFFFFFFFFFFFFF6A
:10D6D000FFFFFFFFFFFFFFFFFFFFFFFFFFFFFFFF5A
:10D6E000FFFFFFFFFFFFFFFFFFFFFFFFFFFFFFFF4A
:10D6F000FFFFFFFFFFFFFFFFFFFFFFFFFFFFFFFF3A
:10D70000FFFFFFFFFFFFFFFFFFFFFFFFFFFFFFFF29
:10D71000FFFFFFFFFFFFFFFFFFFFFFFFFFFFFFFF19
:10D72000FFFFFFFFFFFFFFFFFFFFFFFFFFFFFFFF09
:10D73000FFFFFFFFFFFFFFFFFFFFFFFFFFFFFFFFF9
:10D74000FFFFFFFFFFFFFFFFFFFFFFFFFFFFFFFFE9
:10D75000FFFFFFFFFFFFFFFFFFFFFFFFFFFFFFFFD9
:10D76000FFFFFFFFFFFFFFFFFFFFFFFFFFFFFFFFC9
:10D77000FFFFFFFFFFFFFFFFFFFFFFFFFFFFFFFFB9
:10D78000FFFFFFFFFFFFFFFFFFFFFFFFFFFFFFFFA9
:10D79000FFFFFFFFFFFFFFFFFFFFFFFFFFFFFFFF99
:10D7A000FFFFFFFFFFFFFFFFFFFFFFFFFFFFFFFF89
:10D7B000FFFFFFFFFFFFFFFFFFFFFFFFFFFFFFFF79
:10D7C000FFFFFFFFFFFFFFFFFFFFFFFFFFFFFFFF69
:10D7D000FFFFFFFFFFFFFFFFFFFFFFFFFFFFFFFF59
:10D7E000FFFFFFFFFFFFFFFFFFFFFFFFFFFFFFFF49
:10D7F000FFFFFFFFFFFFFFFFFFFFFFFFFFFFFFFF39
:10D8000014141414141414141414141414141414D8
:10D810001414141414151616171819191A1B1C1C95
:10D820001D1E1E1F1F1F1F202020202021212121FF
:10D8300021222222222323232323232323232323BE
:10D8400023232323232323232323232323232323A8
:10D850002323232323232323232323232323232398
:10D860002323232323232323232323232323232388
:10D870002323232323232323232323232323232378
:10D88000FFFFFFFFFFFFFFFFFFFFFFFFFFFFFFFFA8
:10D89000FFFFFFFFFFFFFFFFFFFFFFFFFFFFFFFF98
:10D8A000FFFFFFFFFFFFFFFFFFFFFFFFFFFFFFFF88
:10D8B000FFFFFFFFFFFFFFFFFFFFFFFFFFFFFFFF78
:10D8C000FFFFFFFFFFFFFFFFFFFFFFFFFFFFFFFF68
:10D8D000FFFFFFFFFFFFFFFFFFFFFFFFFFFFFFFF58
:10D8E000FFFFFFFFFFFFFFFFFFFFFFFFFFFFFFFF48
:10D8F000FFFFFFFFFFFFFFFFFFFFFFFFFFFFFFFF38
:10D90000FFFFFFFFFFFFFFFFFFFFFFFFFFFFFFFF27
:10D91000FFFFFFFFFFFFFFFFFFFFFFFFFFFFFFFF17
:10D92000FFFFFFFFFFFFFFFFFFFFFFFFFFFFFFFF07
:10D93000FFFFFFFFFFFFFFFFFFFFFFFFFFFFFFFFF7
:10D94000FFFFFFFFFFFFFFFFFFFFFFFFFFFFFFFFE7
:10D95000FFFFFFFFFFFFFFFFFFFFFFFFFFFFFFFFD7
:10D96000FFFFFFFFFFFFFFFFFFFFFFFFFFFFFFFFC7
:10D97000FFFFFFFFFFFFFFFFFFFFFFFFFFFFFFFFB7
:10D98000FFFFFFFFFFFFFFFFFFFFFFFFFFFFFFFFA7
:10D99000FFFFFFFFFFFFFFFFFFFFFFFFFFFFFFFF97
:10D9A000FFFFFFFFFFFFFFFFFFFFFFFFFFFFFFFF87
:10D9B000FFFFFFFFFFFFFFFFFFFFFFFFFFFFFFFF77
:10D9C000FFFFFFFFFFFFFFFFFFFFFFFFFFFFFFFF67
:10D9D000FFFFFFFFFFFFFFFFFFFFFFFFFFFFFFFF57
:10D9E000FFFFFFFFFFFFFFFFFFFFFFFFFFFFFFFF47
:10D9F000FFFFFFFFFFFFFFFFFFFFFFFFFFFFFFFF37
:10DA000014141414141414141414141414141414D6
:10DA10001414141414151616171819191A1B1C1C93
:10DA20001D1E1E1F1F1F1F202020202021212121FD
:10DA300021222222222323232323232323232323BC
:10DA400023232323232323232323232323232323A6
:10DA50002323232323232323232323232323232396
:10DA60002323232323232323232323232323232386
:10DA70002323232323232323232323232323232376
:10DA8000FFFFFFFFFFFFFFFFFFFFFFFFFFFFFFFFA6
:10DA9000FFFFFFFFFFFFFFFFFFFFFFFFFFFFFFFF96
:10DAA000FFFFFFFFFFFFFFFFFFFFFFFFFFFFFFFF86
:10DAB000FFFFFFFFFFFFFFFFFFFFFFFFFFFFFFFF76
:10DAC000FFFFFFFFFFFFFFFFFFFFFFFFFFFFFFFF66
:10DAD000FFFFFFFFFFFFFFFFFFFFFFFFFFFFFFFF56
:10DAE000FFFFFFFFFFFFFFFFFFFFFFFFFFFFFFFF46
:10DAF000FFFFFFFFFFFFFFFFFFFFFFFFFFFFFFFF36
:10DB0000FFFFFFFFFFFFFFFFFFFFFFFFFFFFFFFF25
:10DB1000FFFFFFFFFFFFFFFFFFFFFFFFFFFFFFFF15
:10DB2000FFFFFFFFFFFFFFFFFFFFFFFFFFFFFFFF05
:10DB3000FFFFFFFFFFFFFFFFFFFFFFFFFFFFFFFFF5
:10DB4000FFFFFFFFFFFFFFFFFFFFFFFFFFFFFFFFE5
:10DB5000FFFFFFFFFFFFFFFFFFFFFFFFFFFFFFFFD5
:10DB6000FFFFFFFFFFFFFFFFFFFFFFFFFFFFFFFFC5
:10DB7000FFFFFFFFFFFFFFFFFFFFFFFFFFFFFFFFB5
:10DB8000FFFFFFFFFFFFFFFFFFFFFFFFFFFFFFFFA5
:10DB9000FFFFFFFFFFFFFFFFFFFFFFFFFFFFFFFF95
:10DBA000FFFFFFFFFFFFFFFFFFFFFFFFFFFFFFFF85
:10DBB000FFFFFFFFFFFFFFFFFFFFFFFFFFFFFFFF75
:10DBC000FFFFFFFFFFFFFFFFFFFFFFFFFFFFFFFF65
:10DBD000FFFFFFFFFFFFFFFFFFFFFFFFFFFFFFFF55
:10DBE000FFFFFFFFFFFFFFFFFFFFFFFFFFFFFFFF45
:10DBF000FFFFFFFFFFFFFFFFFFFFFFFFFFFFFFFF35
:10DC000014141414141414141414141414141414D4
:10DC10001414141414151616171819191A1B1C1C91
:10DC20001D1E1E1F1F1F1F202020202021212121FB
:10DC300021222222222323232323232323232323BA
:10DC400023232323232323232323232323232323A4
:10DC50002323232323232323232323232323232394
:10DC60002323232323232323232323232323232384
:10DC70002323232323232323232323232323232374
:10DC8000FFFFFFFFFFFFFFFFFFFFFFFFFFFFFFFFA4
:10DC9000FFFFFFFFFFFFFFFFFFFFFFFFFFFFFFFF94
:10DCA000FFFFFFFFFFFFFFFFFFFFFFFFFFFFFFFF84
:10DCB000FFFFFFFFFFFFFFFFFFFFFFFFFFFFFFFF74
:10DCC000FFFFFFFFFFFFFFFFFFFFFFFFFFFFFFFF64
:10DCD000FFFFFFFFFFFFFFFFFFFFFFFFFFFFFFFF54
:10DCE000FFFFFFFFFFFFFFFFFFFFFFFFFFFFFFFF44
:10DCF000FFFFFFFFFFFFFFFFFFFFFFFFFFFFFFFF34
:10DD0000FFFFFFFFFFFFFFFFFFFFFFFFFFFFFFFF23
:10DD1000FFFFFFFFFFFFFFFFFFFFFFFFFFFFFFFF13
:10DD2000FFFFFFFFFFFFFFFFFFFFFFFFFFFFFFFF03
:10DD3000FFFFFFFFFFFFFFFFFFFFFFFFFFFFFFFFF3
:10DD4000FFFFFFFFFFFFFFFFFFFFFFFFFFFFFFFFE3
:10DD5000FFFFFFFFFFFFFFFFFFFFFFFFFFFFFFFFD3
:10DD6000FFFFFFFFFFFFFFFFFFFFFFFFFFFFFFFFC3
:10DD7000FFFFFFFFFFFFFFFFFFFFFFFFFFFFFFFFB3
:10DD8000FFFFFFFFFFFFFFFFFFFFFFFFFFFFFFFFA3
:10DD9000FFFFFFFFFFFFFFFFFFFFFFFFFFFFFFFF93
:10DDA000FFFFFFFFFFFFFFFFFFFFFFFFFFFFFFFF83
:10DDB000FFFFFFFFFFFFFFFFFFFFFFFFFFFFFFFF73
:10DDC000FFFFFFFFFFFFFFFFFFFFFFFFFFFFFFFF63
:10DDD000FFFFFFFFFFFFFFFFFFFFFFFFFFFFFFFF53
:10DDE000FFFFFFFFFFFFFFFFFFFFFFFFFFFFFFFF43
:10DDF000FFFFFFFFFFFFFFFFFFFFFFFFFFFFFFFF33
:10DE000014141414141414141414141414141414D2
:10DE10001414141414151616171819191A1B1C1C8F
:10DE20001D1E1E1F1F1F1F202020202021212121F9
:10DE300021222222222323232323232323232323B8
:10DE400023232323232323232323232323232323A2
:10DE50002323232323232323232323232323232392
:10DE60002323232323232323232323232323232382
:10DE70002323232323232323232323232323232372
:10DE8000FFFFFFFFFFFFFFFFFFFFFFFFFFFFFFFFA2
:10DE9000FFFFFFFFFFFFFFFFFFFFFFFFFFFFFFFF92
:10DEA000FFFFFFFFFFFFFFFFFFFFFFFFFFFFFFFF82
:10DEB000FFFFFFFFFFFFFFFFFFFFFFFFFFFFFFFF72
:10DEC000FFFFFFFFFFFFFFFFFFFFFFFFFFFFFFFF62
:10DED000FFFFFFFFFFFFFFFFFFFFFFFFFFFFFFFF52
:10DEE000FFFFFFFFFFFFFFFFFFFFFFFFFFFFFFFF42
:10DEF000FFFFFFFFFFFFFFFFFFFFFFFFFFFFFFFF32
:10DF0000FFFFFFFFFFFFFFFFFFFFFFFFFFFFFFFF21
:10DF1000FFFFFFFFFFFFFFFFFFFFFFFFFFFFFFFF11
:10DF2000FFFFFFFFFFFFFFFFFFFFFFFFFFFFFFFF01
:10DF3000FFFFFFFFFFFFFFFFFFFFFFFFFFFFFFFFF1
:10DF4000FFFFFFFFFFFFFFFFFFFFFFFFFFFFFFFFE1
:10DF5000FFFFFFFFFFFFFFFFFFFFFFFFFFFFFFFFD1
:10DF6000FFFFFFFFFFFFFFFFFFFFFFFFFFFFFFFFC1
:10DF7000FFFFFFFFFFFFFFFFFFFFFFFFFFFFFFFFB1
:10DF8000FFFFFFFFFFFFFFFFFFFFFFFFFFFFFFFFA1
:10DF9000FFFFFFFFFFFFFFFFFFFFFFFFFFFFFFFF91
:10DFA000FFFFFFFFFFFFFFFFFFFFFFFFFFFFFFFF81
:10DFB000FFFFFFFFFFFFFFFFFFFFFFFFFFFFFFFF71
:10DFC000FFFFFFFFFFFFFFFFFFFFFFFFFFFFFFFF61
:10DFD000FFFFFFFFFFFFFFFFFFFFFFFFFFFFFFFF51
:10DFE000FFFFFFFFFFFFFFFFFFFFFFFFFFFFFFFF41
:10DFF000FFFFFFFFFFFFFFFFFFFFFFFFFFFFFFFF31
:10E000004A4A4A4A4A4A4A4A4A4A4A4A4A4A4A4A70
:10E010004A4A4A4A4A4B4C4D4F5051525354565714
:10E020005859595959595959595959595959595961
:10E030005959595959595959595959595959595950
:10E040005959595959595959595959595959595940
:10E050005959595959595959595959595959595930
:10E060005959595959595959595959595959595920
:10E070005959595959595959595959595959595910
:10E08000FFFFFFFFFFFFFFFFFFFFFFFFFFFFFFFFA0
:10E09000FFFFFFFFFFFFFFFFFFFFFFFFFFFFFFFF90
:10E0A000FFFFFFFFFFFFFFFFFFFFFFFFFFFFFFFF80
:10E0B000FFFFFFFFFFFFFFFFFFFFFFFFFFFFFFFF70
:10E0C000FFFFFFFFFFFFFFFFFFFFFFFFFFFFFFFF60
:10E0D000FFFFFFFFFFFFFFFFFFFFFFFFFFFFFFFF50
:10E0E000FFFFFFFFFFFFFFFFFFFFFFFFFFFFFFFF40
:10E0F000FFFFFFFFFFFFFFFFFFFFFFFFFFFFFFFF30
:10E10000FFFFFFFFFFFFFFFFFFFFFFFFFFFFFFFF1F
:10E11000FFFFFFFFFFFFFFFFFFFFFFFFFFFFFFFF0F
:10E12000FFFFFFFFFFFFFFFFFFFFFFFFFFFFFFFFFF
:10E13000FFFFFFFFFFFFFFFFFFFFFFFFFFFFFFFFEF
:10E14000FFFFFFFFFFFFFFFFFFFFFFFFFFFFFFFFDF
:10E15000FFFFFFFFFFFFFFFFFFFFFFFFFFFFFFFFCF
:10E16000FFFFFFFFFFFFFFFFFFFFFFFFFFFFFFFFBF
:10E17000FFFFFFFFFFFFFFFFFFFFFFFFFFFFFFFFAF
:10E18000FFFFFFFFFFFFFFFFFFFFFFFFFFFFFFFF9F
:10E19000FFFFFFFFFFFFFFFFFFFFFFFFFFFFFFFF8F
:10E1A000FFFFFFFFFFFFFFFFFFFFFFFFFFFFFFFF7F
:10E1B000FFFFFFFFFFFFFFFFFFFFFFFFFFFFFFFF6F
:10E1C000FFFFFFFFFFFFFFFFFFFFFFFFFFFFFFFF5F
:10E1D000FFFFFFFFFFFFFFFFFFFFFFFFFFFFFFFF4F
:10E1E000FFFFFFFFFFFFFFFFFFFFFFFFFFFFFFFF3F
:10E1F000FFFFFFFFFFFFFFFFFFFFFFFFFFFFFFFF2F
:10E200004A4A4A4A4A4A4A4A4A4A4A4A4A4A4A4A6E
:10E210004A4A4A4A4A4B4C4D4F5051525354565712
:10E22000585959595959595959595959595959595F
:10E23000595959595959595959595959595959594E
:10E24000595959595959595959595959595959593E
:10E25000595959595959595959595959595959592E
:10E26000595959595959595959595959595959591E
:10E27000595959595959595959595959595959590E
:10E28000FFFFFFFFFFFFFFFFFFFFFFFFFFFFFFFF9E
:10E29000FFFFFFFFFFFFFFFFFFFFFFFFFFFFFFFF8E
:10E2A000FFFFFFFFFFFFFFFFFFFFFFFFFFFFFFFF7E
:10E2B000FFFFFFFFFFFFFFFFFFFFFFFFFFFFFFFF6E
:10E2C000FFFFFFFFFFFFFFFFFFFFFFFFFFFFFFFF5E
:10E2D000FFFFFFFFFFFFFFFFFFFFFFFFFFFFFFFF4E
:10E2E000FFFFFFFFFFFFFFFFFFFFFFFFFFFFFFFF3E
:10E2F000FFFFFFFFFFFFFFFFFFFFFFFFFFFFFFFF2E
:10E30000FFFFFFFFFFFFFFFFFFFFFFFFFFFFFFFF1D
:10E31000FFFFFFFFFFFFFFFFFFFFFFFFFFFFFFFF0D
:10E32000FFFFFFFFFFFFFFFFFFFFFFFFFFFFFFFFFD
:10E33000FFFFFFFFFFFFFFFFFFFFFFFFFFFFFFFFED
:10E34000FFFFFFFFFFFFFFFFFFFFFFFFFFFFFFFFDD
:10E35000FFFFFFFFFFFFFFFFFFFFFFFFFFFFFFFFCD
:10E36000FFFFFFFFFFFFFFFFFFFFFFFFFFFFFFFFBD
:10E37000FFFFFFFFFFFFFFFFFFFFFFFFFFFFFFFFAD
:10E38000FFFFFFFFFFFFFFFFFFFFFFFFFFFFFFFF9D
:10E39000FFFFFFFFFFFFFFFFFFFFFFFFFFFFFFFF8D
:10E3A000FFFFFFFFFFFFFFFFFFFFFFFFFFFFFFFF7D
:10E3B000FFFFFFFFFFFFFFFFFFFFFFFFFFFFFFFF6D
:10E3C000FFFFFFFFFFFFFFFFFFFFFFFFFFFFFFFF5D
:10E3D000FFFFFFFFFFFFFFFFFFFFFFFFFFFFFFFF4D
:10E3E000FFFFFFFFFFFFFFFFFFFFFFFFFFFFFFFF3D
:10E3F000FFFFFFFFFFFFFFFFFFFFFFFFFFFFFFFF2D
:10E400004A4A4A4A4A4A4A4A4A4A4A4A4A4A4A4A6C
:10E410004A4A4A4A4A4B4C4D4F5051525354565710
:10E42000585959595959595959595959595959595D
:10E43000595959595959595959595959595959594C
:10E44000595959595959595959595959595959593C
:10E45000595959595959595959595959595959592C
:10E46000595959595959595959595959595959591C
:10E47000595959595959595959595959595959590C
:10E48000FFFFFFFFFFFFFFFFFFFFFFFFFFFFFFFF9C
:10E49000FFFFFFFFFFFFFFFFFFFFFFFFFFFFFFFF8C
:10E4A000FFFFFFFFFFFFFFFFFFFFFFFFFFFFFFFF7C
:10E4B000FFFFFFFFFFFFFFFFFFFFFFFFFFFFFFFF6C
:10E4C000FFFFFFFFFFFFFFFFFFFFFFFFFFFFFFFF5C
:10E4D000FFFFFFFFFFFFFFFFFFFFFFFFFFFFFFFF4C
:10E4E000FFFFFFFFFFFFFFFFFFFFFFFFFFFFFFFF3C
:10E4F000FFFFFFFFFFFFFFFFFFFFFFFFFFFFFFFF2C
:10E50000FFFFFFFFFFFFFFFFFFFFFFFFFFFFFFFF1B
:10E51000FFFFFFFFFFFFFFFFFFFFFFFFFFFFFFFF0B
:10E52000FFFFFFFFFFFFFFFFFFFFFFFFFFFFFFFFFB
:10E53000FFFFFFFFFFFFFFFFFFFFFFFFFFFFFFFFEB
:10E54000FFFFFFFFFFFFFFFFFFFFFFFFFFFFFFFFDB
:10E55000FFFFFFFFFFFFFFFFFFFFFFFFFFFFFFFFCB
:10E56000FFFFFFFFFFFFFFFFFFFFFFFFFFFFFFFFBB
:10E57000FFFFFFFFFFFFFFFFFFFFFFFFFFFFFFFFAB
:10E58000FFFFFFFFFFFFFFFFFFFFFFFFFFFFFFFF9B
:10E59000FFFFFFFFFFFFFFFFFFFFFFFFFFFFFFFF8B
:10E5A000FFFFFFFFFFFFFFFFFFFFFFFFFFFFFFFF7B
:10E5B000FFFFFFFFFFFFFFFFFFFFFFFFFFFFFFFF6B
:10E5C000FFFFFFFFFFFFFFFFFFFFFFFFFFFFFFFF5B
:10E5D000FFFFFFFFFFFFFFFFFFFFFFFFFFFFFFFF4B
:10E5E000FFFFFFFFFFFFFFFFFFFFFFFFFFFFFFFF3B
:10E5F000FFFFFFFFFFFFFFFFFFFFFFFFFFFFFFFF2B
:10E600004A4A4A4A4A4A4A4A4A4A4A4A4A4A4A4A6A
:10E610004A4A4A4A4A4B4C4D4F505152535456570E
:10E62000585959595959595959595959595959595B
:10E63000595959595959595959595959595959594A
:10E64000595959595959595959595959595959593A
:10E65000595959595959595959595959595959592A
:10E66000595959595959595959595959595959591A
:10F800000100000000000000FFFFFFFFFFFFFFFFFF
:10F81000FFFFFFFFFFFFFFFFFFFFFFFFFFFFFFFFF8
:10F82000FFFFFFFFFFFFFFFFFFFFFFFFFFFFFFFFE8
:10F83000FFFFFFFFFFFFFFFFFFFFFFFFFFFFFFFFD8
:10F84000FFFFFFFFFFFFFFFFFFFFFFFFFFFFFFFFC8
:10F85000FFFFFFFFFFFFFFFFFFFFFFFFFFFFFFFFB8
:10F86000FFFFFFFFFFFFFFFFFFFFFFFFFFFFFFFFA8
:10F87000FFFFFFFFFFFFFFFFFFFFFFFFFFFFFFFF98
:10F88000FFFFFFFFFFFFFFFFFFFFFFFFFFFFFFFF88
:10F89000FFFFFFFFFFFFFFFFFFFFFFFFFFFFFFFF78
:10F8A000FFFFFFFFFFFFFFFFFFFFFFFFFFFFFFFF68
:10F8B000FFFFFFFFFFFFFFFFFFFFFFFFFFFFFFFF58
:10F8C000FFFFFFFFFFFFFFFFFFFFFFFFFFFFFFFF48
:10F8D000FFFFFFFFFFFFFFFFFFFFFFFFFFFFFFFF38
:10F8E000FFFFFFFFFFFFFFFFFFFFFFFFFFFFFFFF28
:10F8F000FFFFFFFFFFFFFFFFFFFFFFFFFFFFFFFF18
:10F90000FFFFFFFFFFFFFFFFFFFFFFFFFFFFFFFF07
:10F91000FFFFFFFFFFFFFFFFFFFFFFFFFFFFFFFFF7
:10F92000FFFFFFFFFFFFFFFFFFFFFFFFFFFFFFFFE7
:10F93000FFFFFFFFFFFFFFFFFFFFFFFFFFFFFFFFD7
:10F94000FFFFFFFFFFFFFFFFFFFFFFFFFFFFFFFFC7
:10F95000FFFFFFFFFFFFFFFFFFFFFFFFFFFFFFFFB7
:10F96000FFFFFFFFFFFFFFFFFFFFFFFFFFFFFFFFA7
:10F97000FFFFFFFFFFFFFFFFFFFFFFFFFFFFFFFF97
:10F98000FFFFFFFFFFFFFFFFFFFFFFFFFFFFFFFF87
:10F99000FFFFFFFFFFFFFFFFFFFFFFFFFFFFFFFF77
:10F9A000FFFFFFFFFFFFFFFFFFFFFFFFFFFFFFFF67
:10F9B000FFFFFFFFFFFFFFFFFFFFFFFFFFFFFFFF57
:10F9C000FFFFFFFFFFFFFFFFFFFFFFFFFFFFFFFF47
:10F9D000FFFFFFFFFFFFFFFFFFFFFFFFFFFFFFFF37
:10F9E000FFFFFFFFFFFFFFFFFFFFFFFFFFFFFFFF27
:10F9F000FFFFFFFFFFFFFFFFFFFFFFFFFFFFFFFF17
:00000001FF
