:100000000274A7EF14602214602314602414602586
:1000100024047026128417127B787F0D128751EF0B
:1000200025E0FFEE33FE028B44E4FF800A7F01806F
:10003000067F0280027F0312787122024604ACA779
:10004000A2AF9200C2AFE4F5A775FF8075EF028FF3
:10005000828E83BD550975B7A575B7F1438F0375BA
:10006000FF8075EF02E4F0538FFCA20092AF8CA7E3
:1000700022FFFF028BFAEF1470030202DA147003FE
:1000800002052414700302076E240360030209BEF4
:100090007F20128C3490065AE0FB7D087F18128670
:1000A000DE90065BE0FB7D107F181286DE90065C1A
:1000B000E0FB7D117F181286DE90065DE0FB7D146B
:1000C0007F181286DE90065EE0FB7DB37F181286F5
:1000D000DE90065FE0FB7D467F181286DE900660AC
:1000E000E0FB7D477F181286DE900661E0FB7D48CD
:1000F0007F181286DE900662E0FB7DDA7F1812869A
:10010000DE900663E0FB7DDB7F181286DE900664DE
:10011000E0FB7DDC7F181286DE900665E0FB7DDD6E
:100120007F181286DE900666E0FB7DE27F1812865D
:10013000DE900667E0FB7DE37F181286DE900666A0
:10014000E0FB7DE47F181286DE900667E0FB7DE52C
:100150007F181286DE900666E0FB7DE67F18128629
:10016000DE900667E0FB7DE77F181286DE9006686A
:10017000E0FB7DE87F181286DE900669E0FB7DE9F2
:100180007F181286DE90066AE0FB7DF37F181286E8
:10019000DE90066BE0FB7DF47F181286DE90066C25
:1001A000E0FB7DF57F181286DE90066DE0FB7DF6A4
:1001B0007F181286DE90066EE0FB7DF77F181286B0
:1001C000DE90066FE0FB7DF87F181286DE7F40121E
:1001D0008C349006BAE0FB7D087F181286DE90060C
:1001E000B9E0FB7D077F181286DE9006B8E0FB7D44
:1001F000067F181286DE9006C6E0FB7D1D7F181272
:1002000086DE9006C5E0FB7D1C7F181286DE900618
:10021000C4E0FB7D1B7F181286DE7BE57D167F1810
:100220001286DE7B2F7D197F181286DE9006B7E0DE
:10023000FB7D057F181286DE9006B4E0FB7D027F11
:10024000181286DE9006B6E0FB7D047F181286DE6B
:100250009006B3E0FB7D017F181286DE9006B5E0C4
:10026000FB7D037F181286DE9006B2E0FBE4FD7F83
:10027000181286DE9006BDE0FB7D0B7F181286DE2D
:100280009006C3E0FB7D117F181286DE9006BCE06D
:10029000FB7D0A7F181286DE9006C2E0FB7D107F90
:1002A000181286DE9006BBE0FB7D097F181286DE01
:1002B0009006C1E0FB7D0F7F181286DE9006C0E03D
:1002C000FB7D0E7F181286DE9006BFE0FB7D0D7F62
:1002D000181286DE9006BE0209B57F21128C34907A
:1002E0000670E0FB7D087F181286DE900671E0FB49
:1002F0007D107F181286DE900672E0FB7D117F185C
:100300001286DE900673E0FB7D147F181286DE9065
:100310000674E0FB7DB37F181286DE900675E0FB65
:100320007D467F181286DE900676E0FB7D477F18BB
:100330001286DE900677E0FB7D487F181286DE90FD
:100340000678E0FB7DDA7F181286DE900679E0FB06
:100350007DDB7F181286DE90067AE0FB7DDC7F185D
:100360001286DE90067BE0FB7DDD7F181286DE9034
:10037000067CE0FB7DE27F181286DE90067DE0FBC6
:100380007DE37F181286DE90067CE0FB7DE47F181B
:100390001286DE90067DE0FB7DE57F181286DE90FA
:1003A000067CE0FB7DE67F181286DE90067DE0FB92
:1003B0007DE77F181286DE90067EE0FB7DE87F18E1
:1003C0001286DE90067FE0FB7DE97F181286DE90C4
:1003D0000680E0FB7DF37F181286DE900681E0FB4D
:1003E0007DF47F181286DE900682E0FB7DF57F1893
:1003F0001286DE900683E0FB7DF67F181286DE9083
:100400000684E0FB7DF77F181286DE900685E0FB10
:100410007DF87F181286DE7F41128C349006DFE073
:10042000FB7D087F181286DE9006DEE0FB7D077FED
:10043000181286DE9006DDE0FB7D067F181286DE50
:100440009006EBE0FB7D1D7F181286DE9006EAE049
:10045000FB7D1C7F181286DE9006E9E0FB7D1B7F8A
:10046000181286DE7BE57D167F181286DE7B2F7DD7
:10047000197F181286DE9006DCE0FB7D057F1812DE
:1004800086DE9006D9E0FB7D027F181286DE90069C
:10049000DBE0FB7D047F181286DE9006D8E0FB7D52
:1004A000017F181286DE9006DAE0FB7D037F1812CA
:1004B00086DE9006D7E0FBE4FD7F181286DE90060C
:1004C000E2E0FB7D0B7F181286DE9006E8E0FB7D04
:1004D000117F181286DE9006E1E0FB7D0A7F18127C
:1004E00086DE9006E7E0FB7D107F181286DE900620
:1004F000E0E0FB7D097F181286DE9006E6E0FB7DDA
:100500000F7F181286DE9006E5E0FB7D0E7F181245
:1005100086DE9006E4E0FB7D0D7F181286DE9006F5
:10052000E30209B57F22128C34900686E0FB7D0839
:100530007F181286DE900687E0FB7D107F181286FA
:10054000DE900688E0FB7D117F181286DE9006891A
:10055000E0FB7D147F181286DE90068AE0FB7DB3F7
:100560007F181286DE90068BE0FB7D467F18128690
:10057000DE90068CE0FB7D477F181286DE90068DAC
:10058000E0FB7D487F181286DE90068EE0FB7DDA68
:100590007F181286DE90068FE0FB7DDB7F181286C7
:1005A000DE900690E0FB7DDC7F181286DE900691DF
:1005B000E0FB7DDD7F181286DE900692E0FB7DE297
:1005C0007F181286DE900693E0FB7DE37F1812868B
:1005D000DE900692E0FB7DE47F181286DE900693A3
:1005E000E0FB7DE57F181286DE900692E0FB7DE65B
:1005F0007F181286DE900693E0FB7DE77F18128657
:10060000DE900694E0FB7DE87F181286DE9006956A
:10061000E0FB7DE97F181286DE900696E0FB7DF315
:100620007F181286DE900697E0FB7DF47F18128615
:10063000DE900698E0FB7DF57F181286DE90069925
:10064000E0FB7DF67F181286DE90069AE0FB7DF7D0
:100650007F181286DE90069BE0FB7DF87F181286DD
:10066000DE7F42128C349006F4E0FB7D087F181286
:1006700086DE9006F3E0FB7D077F181286DE90068B
:10068000F2E0FB7D067F181286DE900700E0FB7D1E
:100690001D7F181286DE9006FFE0FB7D1C7F18127E
:1006A00086DE9006FEE0FB7D1B7F181286DE7BE572
:1006B0007D167F181286DE7B2F7D197F181286DE4D
:1006C0009006F1E0FB7D057F181286DE9006EEE0D5
:1006D000FB7D027F181286DE9006F0E0FB7D047F32
:1006E000181286DE9006EDE0FB7D017F181286DE93
:1006F0009006EFE0FB7D037F181286DE9006ECE0AB
:10070000FBE4FD7F181286DE9006F7E0FB7D0B7F91
:10071000181286DE9006FDE0FB7D117F181286DE42
:100720009006F6E0FB7D0A7F181286DE9006FCE05C
:10073000FB7D107F181286DE9006F5E0FB7D097FB9
:10074000181286DE9006FBE0FB7D0F7F181286DE16
:100750009006FAE0FB7D0E7F181286DE9006F9E027
:10076000FB7D0D7F181286DE9006F80209B57F2307
:10077000128C3490069CE0FB7D087F181286DE9078
:10078000069DE0FB7D107F181286DE90069EE0FB42
:100790007D117F181286DE90069FE0FB7D147F1886
:1007A0001286DE9006A0E0FB7DB37F181286DE90F5
:1007B00006A1E0FB7D467F181286DE9006A2E0FBD4
:1007C0007D477F181286DE9006A3E0FB7D487F18E8
:1007D0001286DE9006A4E0FB7DDA7F181286DE909A
:1007E00006A5E0FB7DDB7F181286DE9006A6E0FB07
:1007F0007DDC7F181286DE9006A7E0FB7DDD7F188A
:100800001286DE9006A8E0FB7DE27F181286DE905D
:1008100006A9E0FB7DE37F181286DE9006A8E0FBC8
:100820007DE47F181286DE9006A9E0FB7DE57F1847
:100830001286DE9006A8E0FB7DE67F181286DE9029
:1008400006A9E0FB7DE77F181286DE9006AAE0FB92
:100850007DE87F181286DE9006ABE0FB7DE97F180D
:100860001286DE9006ACE0FB7DF37F181286DE90E8
:1008700006ADE0FB7DF47F181286DE9006AEE0FB4D
:100880007DF57F181286DE9006AFE0FB7DF67F18BF
:100890001286DE9006B0E0FB7DF77F181286DE90B0
:1008A00006B1E0FB7DF87F181286DE7F43128C34A0
:1008B000900709E0FB7D087F181286DE900708E0AC
:1008C000FB7D077F181286DE900707E0FB7D067F21
:1008D000181286DE900715E0FB7D1D7F181286DE5C
:1008E000900714E0FB7D1C7F181286DE900713E052
:1008F000FB7D1B7F181286DE7BE57D167F18128636
:10090000DE7B2F7D197F181286DE900706E0FB7DC7
:10091000057F181286DE900703E0FB7D027F181228
:1009200086DE900705E0FB7D047F181286DE9007C7
:1009300002E0FB7D017F181286DE900704E0FB7D5C
:10094000037F181286DE900701E0FBE4FD7F18129A
:1009500086DE90070CE0FB7D0B7F181286DE900789
:1009600012E0FB7D117F181286DE90070BE0FB7D05
:100970000A7F181286DE900711E0FB7D107F1812A7
:1009800086DE90070AE0FB7D097F181286DE90075D
:1009900010E0FB7D0F7F181286DE90070FE0FB7DD5
:1009A0000E7F181286DE90070EE0FB7D0D7F181279
:1009B00086DE90070DE0FB7D0C7F181286DE22EFAD
:1009C000147003020BE8147003020DF71470030295
:1009D0001006240360030212147F20128C2B7D0862
:1009E0007F1612897E90055AEFF07D107F161289CE
:1009F0007E90055BEFF07D117F1612897E90055C7D
:100A0000EFF07D147F1612897E90055DEFF07DB3C7
:100A10007F1612897E90055EEFF07D467F16128963
:100A20007E90055FEFF07D477F1612897E9005600E
:100A3000EFF07D487F1612897E900561EFF07DDA38
:100A40007F1612897E900562EFF07DDB7F1612899A
:100A50007E900563EFF07DDC7F1612897E90056441
:100A6000EFF07DDD7F1612897E900565EFF07DE267
:100A70007F1612897E900566EFF07DE37F1612895E
:100A80007E900567EFF07DE87F1612897E900568FD
:100A9000EFF07DE97F1612897E900569EFF07DF316
:100AA0007F1612897E90056AEFF07DF47F16128919
:100AB0007E90056BEFF07DF57F1612897E90056CB8
:100AC000EFF07DF67F1612897E90056DEFF07DF7D1
:100AD0007F1612897E90056EEFF07DF87F161289E1
:100AE0007E90056FEFF07F40128C2BE4FD7F161295
:100AF000897E9005B2EFF07D017F1612897E900508
:100B0000B3EFF07D027F1612897E9005B4EFF07D81
:100B1000037F1612897E9005B5EFF07D047F1612D3
:100B2000897E9005B6EFF07D057F1612897E9005CF
:100B3000B7EFF07D067F1612897E9005B8EFF07D45
:100B4000077F1612897E9005B9EFF07D087F161297
:100B5000897E9005BAEFF07D097F1612897E900597
:100B6000BBEFF07D0A7F1612897E9005BCEFF07D09
:100B70000B7F1612897E9005BDEFF07D0C7F16125B
:100B8000897E9005BEEFF07D0D7F1612897E90055F
:100B9000BFEFF07D0E7F1612897E9005C0EFF07DCD
:100BA0000F7F1612897E9005C1EFF07D107F16121F
:100BB000897E9005C2EFF07D117F1612897E900527
:100BC000C3EFF07D1B7F1612897E9005C4EFF07D88
:100BD0001C7F1612897E9005C5EFF07D1D7F1612D1
:100BE000897E9005C6EFF0227F21128C2B7D087F35
:100BF0001612897E900570EFF07D107F1612897EA7
:100C0000900571EFF07D117F1612897E900572EFCD
:100C1000F07D147F1612897E900573EFF07DB37F0F
:100C20001612897E900574EFF07D467F1612897E3C
:100C3000900575EFF07D477F1612897E900576EF5F
:100C4000F07D487F1612897E900577EFF07DDA7F80
:100C50001612897E900578EFF07DDB7F1612897E73
:100C6000900579EFF07DDC7F1612897E90057AEF92
:100C7000F07DDD7F1612897E90057BEFF07DE27FAF
:100C80001612897E90057CEFF07DE37F1612897E37
:100C900090057DEFF07DE87F1612897E90057EEF4E
:100CA000F07DE97F1612897E90057FEFF07DF37F5E
:100CB0001612897E900580EFF07DF47F1612897EF2
:100CC000900581EFF07DF57F1612897E900582EF09
:100CD000F07DF67F1612897E900583EFF07DF77F19
:100CE0001612897E900584EFF07DF87F1612897EBA
:100CF000900585EFF07F41128C2BE4FD7F16128961
:100D00007E9005D7EFF07D017F1612897E9005D881
:100D1000EFF07D027F1612897E9005D9EFF07D03FA
:100D20007F1612897E9005DAEFF07D047F16128916
:100D30007E9005DBEFF07D057F1612897E9005DC45
:100D4000EFF07D067F1612897E9005DDEFF07D07BE
:100D50007F1612897E9005DEEFF07D087F161289DE
:100D60007E9005DFEFF07D097F1612897E9005E009
:100D7000EFF07D0A7F1612897E9005E1EFF07D0B82
:100D80007F1612897E9005E2EFF07D0C7F161289A6
:100D90007E9005E3EFF07D0D7F1612897E9005E4CD
:100DA000EFF07D0E7F1612897E9005E5EFF07D0F46
:100DB0007F1612897E9005E6EFF07D107F1612896E
:100DC0007E9005E7EFF07D117F1612897E9005E891
:100DD000EFF07D1B7F1612897E9005E9EFF07D1CF8
:100DE0007F1612897E9005EAEFF07D1D7F1612892D
:100DF0007E9005EBEFF0227F22128C2B7D087F1670
:100E000012897E900586EFF07D107F1612897E9004
:100E10000587EFF07D117F1612897E900588EFF02F
:100E20007D147F1612897E900589EFF07DB37F16C1
:100E300012897E90058AEFF07D467F1612897E909A
:100E4000058BEFF07D477F1612897E90058CEFF0C1
:100E50007D487F1612897E90058DEFF07DDA7F1632
:100E600012897E90058EEFF07DDB7F1612897E90D1
:100E7000058FEFF07DDC7F1612897E900590EFF0F4
:100E80007DDD7F1612897E900591EFF07DE27F1661
:100E900012897E900592EFF07DE37F1612897E9095
:100EA0000593EFF07DE87F1612897E900594EFF0B0
:100EB0007DE97F1612897E900595EFF07DF37F1610
:100EC00012897E900596EFF07DF47F1612897E9050
:100ED0000597EFF07DF57F1612897E900598EFF06B
:100EE0007DF67F1612897E900599EFF07DF77F16CB
:100EF00012897E90059AEFF07DF87F1612897E9018
:100F0000059BEFF07F42128C2BE4FD7F1612897E49
:100F10009005ECEFF07D017F1612897E9005EDEFD4
:100F2000F07D027F1612897E9005EEEFF07D037F43
:100F30001612897E9005EFEFF07D047F1612897EF0
:100F40009005F0EFF07D057F1612897E9005F1EF98
:100F5000F07D067F1612897E9005F2EFF07D077F07
:100F60001612897E9005F3EFF07D087F1612897EB8
:100F70009005F4EFF07D097F1612897E9005F5EF5C
:100F8000F07D0A7F1612897E9005F6EFF07D0B7FCB
:100F90001612897E9005F7EFF07D0C7F1612897E80
:100FA0009005F8EFF07D0D7F1612897E9005F9EF20
:100FB000F07D0E7F1612897E9005FAEFF07D0F7F8F
:100FC0001612897E9005FBEFF07D107F1612897E48
:100FD0009005FCEFF07D117F1612897E9005FDEFE4
:100FE000F07D1B7F1612897E9005FEEFF07D1C7F41
:100FF0001612897E9005FFEFF07D1D7F1612897E07
:10100000900600EFF0227F23128C2B7D087F1612B2
:10101000897E90059CEFF07D107F1612897E9005E9
:101020009DEFF07D117F1612897E90059EEFF07D79
:10103000147F1612897E90059FEFF07DB37F161204
:10104000897E9005A0EFF07D467F1612897E90057F
:10105000A1EFF07D477F1612897E9005A2EFF07D0B
:10106000487F1612897E9005A3EFF07DDA7F161275
:10107000897E9005A4EFF07DDB7F1612897E9005B6
:10108000A5EFF07DDC7F1612897E9005A6EFF07D3E
:10109000DD7F1612897E9005A7EFF07DE27F1612A4
:1010A000897E9005A8EFF07DE37F1612897E90057A
:1010B000A9EFF07DE87F1612897E9005AAEFF07DFA
:1010C000E97F1612897E9005ABEFF07DF37F161253
:1010D000897E9005ACEFF07DF47F1612897E900535
:1010E000ADEFF07DF57F1612897E9005AEEFF07DB5
:1010F000F67F1612897E9005AFEFF07DF77F16120E
:10110000897E9005B0EFF07DF87F1612897E9005FC
:10111000B1EFF07F43128C2BE4FD7F1612897E9095
:101120000601EFF07D017F1612897E900602EFF036
:101130007D027F1612897E900603EFF07D037F16F5
:1011400012897E900604EFF07D047F1612897E904E
:101150000605EFF07D057F1612897E900606EFF0FA
:101160007D067F1612897E900607EFF07D077F16B9
:1011700012897E900608EFF07D087F1612897E9016
:101180000609EFF07D097F1612897E90060AEFF0BE
:101190007D0A7F1612897E90060BEFF07D0B7F167D
:1011A00012897E90060CEFF07D0C7F1612897E90DE
:1011B000060DEFF07D0D7F1612897E90060EEFF082
:1011C0007D0E7F1612897E90060FEFF07D0F7F1641
:1011D00012897E900610EFF07D107F1612897E90A6
:1011E0000611EFF07D117F1612897E900612EFF046
:1011F0007D1B7F1612897E900613EFF07D1C7F16F3
:1012000012897E900614EFF07D1D7F1612897E9064
:101210000615EFF022EF14700302143E147003025F
:10122000164D14700302185C24036003021A6A7FCF
:1012300020128C347D087F1812897E90065AEFF0B8
:101240007D107F1812897E90065BEFF07D117F186C
:1012500012897E90065CEFF07D147F1812897E90D3
:10126000065DEFF07DB37F1812897E90065EEFF089
:101270007D467F1812897E90065FEFF07D477F18CC
:1012800012897E900660EFF07D487F1812897E906B
:101290000661EFF07DDA7F1812897E900662EFF02A
:1012A0007DDB7F1812897E900663EFF07DDC7F186E
:1012B00012897E900664EFF07DDD7F1812897E90A2
:1012C0000665EFF07DE27F1812897E900666EFF0EA
:1012D0007DE37F1812897E900667EFF07DE87F1826
:1012E00012897E900668EFF07DE97F1812897E9062
:1012F0000669EFF07DF37F1812897E90066AEFF0A1
:101300007DF47F1812897E90066BEFF07DF57F18D3
:1013100012897E90066CEFF07DF67F1812897E9020
:10132000066DEFF07DF77F1812897E90066EEFF064
:101330007DF87F1812897E90066FEFF07F40128C47
:1013400034E4FD7F1812897E9006B2EFF07D017FB4
:101350001812897E9006B3EFF07D027F1812897E05
:101360009006B4EFF07D037F1812897E9006B5EFEA
:10137000F07D047F1812897E9006B6EFF07D057F20
:101380001812897E9006B7EFF07D067F1812897ECD
:101390009006B8EFF07D077F1812897E9006B9EFAE
:1013A000F07D087F1812897E9006BAEFF07D097FE4
:1013B0001812897E9006BBEFF07D0A7F1812897E95
:1013C0009006BCEFF07D0B7F1812897E9006BDEF72
:1013D000F07D0C7F1812897E9006BEEFF07D0D7FA8
:1013E0001812897E9006BFEFF07D0E7F1812897E5D
:1013F0009006C0EFF07D0F7F1812897E9006C1EF36
:10140000F07D107F1812897E9006C2EFF07D117F6B
:101410001812897E9006C3EFF07D1B7F1812897E1B
:101420009006C4EFF07D1C7F1812897E9006C5EFF0
:10143000F07D1D7F1812897E9006C6EFF0227F2175
:10144000128C347D087F1812897E900670EFF07D33
:10145000107F1812897E900671EFF07D117F1812AF
:10146000897E900672EFF07D147F1812897E9006B7
:1014700073EFF07DB37F1812897E900674EFF07DD4
:10148000467F1812897E900675EFF07D477F18120F
:10149000897E900676EFF07D487F1812897E90064F
:1014A00077EFF07DDA7F1812897E900678EFF07D75
:1014B000DB7F1812897E900679EFF07DDC7F1812B1
:1014C000897E90067AEFF07DDD7F1812897E900686
:1014D0007BEFF07DE27F1812897E90067CEFF07D35
:1014E000E37F1812897E90067DEFF07DE87F181269
:1014F000897E90067EEFF07DE97F1812897E900646
:101500007FEFF07DF37F1812897E900680EFF07DEB
:10151000F47F1812897E900681EFF07DF57F181216
:10152000897E900682EFF07DF67F1812897E900604
:1015300083EFF07DF77F1812897E900684EFF07DAF
:10154000F87F1812897E900685EFF07F41128C3467
:10155000E4FD7F1812897E9006D7EFF07D017F1899
:1015600012897E9006D8EFF07D027F1812897E9056
:1015700006D9EFF07D037F1812897E9006DAEFF02E
:101580007D047F1812897E9006DBEFF07D057F18C1
:1015900012897E9006DCEFF07D067F1812897E901E
:1015A00006DDEFF07D077F1812897E9006DEEFF0F2
:1015B0007D087F1812897E9006DFEFF07D097F1885
:1015C00012897E9006E0EFF07D0A7F1812897E90E6
:1015D00006E1EFF07D0B7F1812897E9006E2EFF0B6
:1015E0007D0C7F1812897E9006E3EFF07D0D7F1849
:1015F00012897E9006E4EFF07D0E7F1812897E90AE
:1016000006E5EFF07D0F7F1812897E9006E6EFF079
:101610007D107F1812897E9006E7EFF07D117F180C
:1016200012897E9006E8EFF07D1B7F1812897E906C
:1016300006E9EFF07D1C7F1812897E9006EAEFF034
:101640007D1D7F1812897E9006EBEFF0227F22121B
:101650008C347D087F1812897E900686EFF07D100D
:101660007F1812897E900687EFF07D117F1812890E
:101670007E900688EFF07D147F1812897E9006898F
:10168000EFF07DB37F1812897E90068AEFF07D46D9
:101690007F1812897E90068BEFF07D477F181289A4
:1016A0007E90068CEFF07D487F1812897E90068D23
:1016B000EFF07DDA7F1812897E90068EEFF07DDBE9
:1016C0007F1812897E90068FEFF07DDC7F181289DB
:1016D0007E900690EFF07DDD7F1812897E90069156
:1016E000EFF07DE27F1812897E900692EFF07DE3A5
:1016F0007F1812897E900693EFF07DE87F1812899B
:101700007E900694EFF07DE97F1812897E90069511
:10171000EFF07DF37F1812897E900696EFF07DF44E
:101720007F1812897E900697EFF07DF57F18128959
:101730007E900698EFF07DF67F1812897E900699CC
:10174000EFF07DF77F1812897E90069AEFF07DF812
:101750007F1812897E90069BEFF07F42128C34E452
:10176000FD7F1812897E9006ECEFF07D017F181244
:10177000897E9006EDEFF07D027F1812897E90063B
:10178000EEEFF07D037F1812897E9006EFEFF07D7B
:10179000047F1812897E9006F0EFF07D057F181205
:1017A000897E9006F1EFF07D067F1812897E900603
:1017B000F2EFF07D077F1812897E9006F3EFF07D3F
:1017C000087F1812897E9006F4EFF07D097F1812C9
:1017D000897E9006F5EFF07D0A7F1812897E9006CB
:1017E000F6EFF07D0B7F1812897E9006F7EFF07D03
:1017F0000C7F1812897E9006F8EFF07D0D7F18128D
:10180000897E9006F9EFF07D0E7F1812897E900692
:10181000FAEFF07D0F7F1812897E9006FBEFF07DC6
:10182000107F1812897E9006FCEFF07D117F181250
:10183000897E9006FDEFF07D1B7F1812897E900651
:10184000FEEFF07D1C7F1812897E9006FFEFF07D81
:101850001D7F1812897E900700EFF0227F23128CE3
:10186000347D087F1812897E90069CEFF07D107FF2
:101870001812897E90069DEFF07D117F1812897EE7
:1018800090069EEFF07D147F1812897E90069FEFE0
:10189000F07DB37F1812897E9006A0EFF07D467F21
:1018A0001812897E9006A1EFF07D477F1812897E7D
:1018B0009006A2EFF07D487F1812897E9006A3EF74
:1018C000F07DDA7F1812897E9006A4EFF07DDB7F31
:1018D0001812897E9006A5EFF07DDC7F1812897EB4
:1018E0009006A6EFF07DDD7F1812897E9006A7EFA7
:1018F000F07DE27F1812897E9006A8EFF07DE37FED
:101900001812897E9006A9EFF07DE87F1812897E73
:101910009006AAEFF07DE97F1812897E9006ABEF62
:10192000F07DF37F1812897E9006ACEFF07DF47F96
:101930001812897E9006ADEFF07DF57F1812897E32
:101940009006AEEFF07DF67F1812897E9006AFEF1D
:10195000F07DF77F1812897E9006B0EFF07DF87F5A
:101960001812897E9006B1EFF07F43128C34E4FDAB
:101970007F1812897E900701EFF07D017F18128990
:101980007E900702EFF07D027F1812897E90070398
:10199000EFF07D037F1812897E900704EFF07D043D
:1019A0007F1812897E900705EFF07D057F18128958
:1019B0007E900706EFF07D067F1812897E9007075C
:1019C000EFF07D077F1812897E900708EFF07D0801
:1019D0007F1812897E900709EFF07D097F18128920
:1019E0007E90070AEFF07D0A7F1812897E90070B20
:1019F000EFF07D0B7F1812897E90070CEFF07D0CC5
:101A00007F1812897E90070DEFF07D0D7F181289E7
:101A10007E90070EEFF07D0E7F1812897E90070FE3
:101A2000EFF07D0F7F1812897E900710EFF07D1088
:101A30007F1812897E900711EFF07D117F181289AF
:101A40007E900712EFF07D1B7F1812897E9007139E
:101A5000EFF07D1C7F1812897E900714EFF07D1D3A
:101A60007F1812897E900715EFF022EF14700302A1
:101A70001C8D147003021E9514700302209D240314
:101A800060030222AB7F20128C2B90055AE0FB7D75
:101A9000087F161286DE90055BE0FB7D107F161234
:101AA00086DE90055CE0FB7D117F161286DE9005D8
:101AB0005DE0FB7D147F161286DE90055EE0FB7D07
:101AC000B37F161286DE90055FE0FB7D467F16121F
:101AD00086DE900560E0FB7D477F161286DE90056E
:101AE00061E0FB7D487F161286DE900562E0FB7D9B
:101AF000DA7F161286DE900563E0FB7DDB7F16122F
:101B000086DE900564E0FB7DDC7F161286DE9005A4
:101B100065E0FB7DDD7F161286DE900566E0FB7DCD
:101B2000E27F161286DE900567E0FB7DE37F1612EA
:101B300086DE900568E0FB7DE87F161286DE900564
:101B400069E0FB7DE97F161286DE90056AE0FB7D89
:101B5000F37F161286DE90056BE0FB7DF47F161294
:101B600086DE90056CE0FB7DF57F161286DE900523
:101B70006DE0FB7DF67F161286DE90056EE0FB7D44
:101B8000F77F161286DE90056FE0FB7DF87F161258
:101B900086DE7F40128C2B9005B2E0FBE4FD7F16C1
:101BA0001286DE9005B3E0FB7D017F161286DE9083
:101BB00005B4E0FB7D027F161286DE9005B5E0FBE2
:101BC0007D037F161286DE9005B6E0FB7D047F164E
:101BD0001286DE9005B7E0FB7D057F161286DE904B
:101BE00005B8E0FB7D067F161286DE9005B9E0FBA6
:101BF0007D077F161286DE9005BAE0FB7D087F1612
:101C00001286DE9005BBE0FB7D097F161286DE9012
:101C100005BCE0FB7D0A7F161286DE9005BDE0FB69
:101C20007D0B7F161286DE9005BEE0FB7D0C7F16D5
:101C30001286DE9005BFE0FB7D0D7F161286DE90DA
:101C400005C0E0FB7D0E7F161286DE9005C1E0FB2D
:101C50007D0F7F161286DE9005C2E0FB7D107F1699
:101C60001286DE9005C3E0FB7D117F161286DE90A2
:101C700005C4E0FB7D1B7F161286DE9005C5E0FBE8
:101C80007D1C7F161286DE9005C60222A27F2112DD
:101C90008C2B900570E0FB7D087F161286DE900588
:101CA00071E0FB7D107F161286DE900572E0FB7DF1
:101CB000117F161286DE900573E0FB7D147F1612ED
:101CC00086DE900574E0FB7DB37F161286DE9005FC
:101CD00075E0FB7D467F161286DE900576E0FB7D83
:101CE000477F161286DE900577E0FB7D487F16124F
:101CF00086DE900578E0FB7DDA7F161286DE9005A1
:101D000079E0FB7DDB7F161286DE90057AE0FB7DB5
:101D1000DC7F161286DE90057BE0FB7DDD7F1612F0
:101D200086DE90057CE0FB7DE27F161286DE900564
:101D30007DE0FB7DE37F161286DE90057EE0FB7D75
:101D4000E87F161286DE90057FE0FB7DE97F1612A4
:101D500086DE900580E0FB7DF37F161286DE90051F
:101D600081E0FB7DF47F161286DE900582E0FB7D2C
:101D7000F57F161286DE900583E0FB7DF67F161256
:101D800086DE900584E0FB7DF77F161286DE9005E7
:101D900085E0FB7DF87F161286DE7F41128C2B904A
:101DA00005D7E0FBE4FD7F161286DE9005D8E0FB48
:101DB0007D017F161286DE9005D9E0FB7D027F163D
:101DC0001286DE9005DAE0FB7D037F161286DE9038
:101DD00005DBE0FB7D047F161286DE9005DCE0FB70
:101DE0007D057F161286DE9005DDE0FB7D067F1601
:101DF0001286DE9005DEE0FB7D077F161286DE9000
:101E000005DFE0FB7D087F161286DE9005E0E0FB33
:101E10007D097F161286DE9005E1E0FB7D0A7F16C4
:101E20001286DE9005E2E0FB7D0B7F161286DE90C7
:101E300005E3E0FB7D0C7F161286DE9005E4E0FBF7
:101E40007D0D7F161286DE9005E5E0FB7D0E7F1688
:101E50001286DE9005E6E0FB7D0F7F161286DE908F
:101E600005E7E0FB7D107F161286DE9005E8E0FBBB
:101E70007D117F161286DE9005E9E0FB7D1B7F1643
:101E80001286DE9005EAE0FB7D1C7F161286DE904E
:101E900005EB0222A27F22128C2B900586E0FB7DAF
:101EA000087F161286DE900587E0FB7D107F1612F4
:101EB00086DE900588E0FB7D117F161286DE900598
:101EC00089E0FB7D147F161286DE90058AE0FB7D9B
:101ED000B37F161286DE90058BE0FB7D467F1612DF
:101EE00086DE90058CE0FB7D477F161286DE90052E
:101EF0008DE0FB7D487F161286DE90058EE0FB7D2F
:101F0000DA7F161286DE90058FE0FB7DDB7F1612EE
:101F100086DE900590E0FB7DDC7F161286DE900564
:101F200091E0FB7DDD7F161286DE900592E0FB7D61
:101F3000E27F161286DE900593E0FB7DE37F1612AA
:101F400086DE900594E0FB7DE87F161286DE900524
:101F500095E0FB7DE97F161286DE900596E0FB7D1D
:101F6000F37F161286DE900597E0FB7DF47F161254
:101F700086DE900598E0FB7DF57F161286DE9005E3
:101F800099E0FB7DF67F161286DE90059AE0FB7DD8
:101F9000F77F161286DE90059BE0FB7DF87F161218
:101FA00086DE7F42128C2B9005ECE0FBE4FD7F1671
:101FB0001286DE9005EDE0FB7D017F161286DE9035
:101FC00005EEE0FB7D027F161286DE9005EFE0FB5A
:101FD0007D037F161286DE9005F0E0FB7D047F1600
:101FE0001286DE9005F1E0FB7D057F161286DE90FD
:101FF00005F2E0FB7D067F161286DE9005F3E0FB1E
:102000007D077F161286DE9005F4E0FB7D087F16C3
:102010001286DE9005F5E0FB7D097F161286DE90C4
:1020200005F6E0FB7D0A7F161286DE9005F7E0FBE1
:102030007D0B7F161286DE9005F8E0FB7D0C7F1687
:102040001286DE9005F9E0FB7D0D7F161286DE908C
:1020500005FAE0FB7D0E7F161286DE9005FBE0FBA5
:102060007D0F7F161286DE9005FCE0FB7D107F164B
:102070001286DE9005FDE0FB7D117F161286DE9054
:1020800005FEE0FB7D1B7F161286DE9005FFE0FB60
:102090007D1C7F161286DE9006000222A27F23128C
:1020A0008C2B90059CE0FB7D087F161286DE900548
:1020B0009DE0FB7D107F161286DE90059EE0FB7D85
:1020C000117F161286DE90059FE0FB7D147F1612AD
:1020D00086DE9005A0E0FB7DB37F161286DE9005BC
:1020E000A1E0FB7D467F161286DE9005A2E0FB7D17
:1020F000477F161286DE9005A3E0FB7D487F16120F
:1021000086DE9005A4E0FB7DDA7F161286DE900560
:10211000A5E0FB7DDB7F161286DE9005A6E0FB7D49
:10212000DC7F161286DE9005A7E0FB7DDD7F1612B0
:1021300086DE9005A8E0FB7DE27F161286DE900524
:10214000A9E0FB7DE37F161286DE9005AAE0FB7D09
:10215000E87F161286DE9005ABE0FB7DE97F161264
:1021600086DE9005ACE0FB7DF37F161286DE9005DF
:10217000ADE0FB7DF47F161286DE9005AEE0FB7DC0
:10218000F57F161286DE9005AFE0FB7DF67F161216
:1021900086DE9005B0E0FB7DF77F161286DE9005A7
:1021A000B1E0FB7DF87F161286DE7F43128C2B9008
:1021B0000601E0FBE4FD7F161286DE900602E0FBDE
:1021C0007D017F161286DE900603E0FB7D027F16FE
:1021D0001286DE900604E0FB7D037F161286DE90F9
:1021E0000605E0FB7D047F161286DE900606E0FB06
:1021F0007D057F161286DE900607E0FB7D067F16C2
:102200001286DE900608E0FB7D077F161286DE90C0
:102210000609E0FB7D087F161286DE90060AE0FBC9
:102220007D097F161286DE90060BE0FB7D0A7F1685
:102230001286DE90060CE0FB7D0B7F161286DE9088
:10224000060DE0FB7D0C7F161286DE90060EE0FB8D
:102250007D0D7F161286DE90060FE0FB7D0E7F1649
:102260001286DE900610E0FB7D0F7F161286DE9050
:102270000611E0FB7D107F161286DE900612E0FB51
:102280007D117F161286DE900613E0FB7D1B7F1604
:102290001286DE900614E0FB7D1C7F161286DE900F
:1022A0000615E0FB7D1D7F161286DE22EC4D6011C7
:1022B000E8497017ED33EC3304600DE4FCFFFEFDDC
:1022C00022E933E8330470F802245C12242758040E
:1022D0006009E4CC24815006285009022466284075
:1022E00003022463C0E0EB4A7044B98006D0E0FBEF
:1022F000022452EF4E701CBD8008EBFFEAFEE9FDA0
:1023000080EBE98DF0A4FEE5F0022395E9CDF9EA32
:10231000FEEBFFEF89F0A4FCE5F0CE89F0A42EFFE0
:10232000E435F0CD89F0A42DFEE435F08067EF4E62
:102330007005BD80D780C3EF8BF0A4ACF0EE8BF0BE
:10234000A42CFCE435F0F8EF8AF0A42CE5F038FC7E
:10235000E433CB8DF0A42CFCE5F03BF8EE8AF0A43E
:102360002CFCE5F038F8E433CF89F0A42CFCE5F040
:1023700038CF3400CE89F0A42FFFE5F03EFEE433E1
:10238000C98DF0A42EFEE5F039CD8AF0A42FFFE52B
:10239000F03EFEE43DFD33D0E0FB50070BBB000FE9
:1023A000022466EC2CFCEF33FFEE33FEED33FD022E
:1023B000243E75F020800E75F010800575F0087DC4
:1023C000007E007F003392D530D5031227E6EC3330
:1023D0004010EF33FFEE33FEED33FDEC33FCD5F070
:1023E000ED22E5F0247EA2D513CC92E7CDCEFF22DC
:1023F000EDD2E7CD33EC3392D524814006E4FFFEE5
:10240000FDFC22FCE4CFCECDCC24E0501174FF8043
:10241000EDC3CC13CCCD13CDCE13CECF13CF0470E0
:10242000F030D5DE0227E6E9D2E7C933E833F89287
:10243000D5EDD2E7CD33EC33FC5002B2D522EC30EF
:10244000E7100FBF000C0EBE00080DBD00040BEB23
:102450006014A2D5EB13FCED92E7FD2274FFFCFDA6
:10246000FEFF22E480F8A2D574FF13FC7D80E48097
:10247000EFE709F608DFFA8046E709F208DFFA809D
:102480003E88828C83E709F0A3DFFA8032E309F605
:1024900008DFFA8078E309F208DFFA807088828C1E
:1024A00083E309F0A3DFFA806489828A83E0A3F6DC
:1024B00008DFFA805889828A83E0A3F208DFFA8075
:1024C0004C80D280FA80C680D4806980F2803380CC
:1024D0001080A680EA809A80A880DA80E280CA8094
:1024E0003389828A83ECFAE493A3C8C582C8CCC539
:1024F00083CCF0A3C8C582C8CCC583CCDFE9DEE7B6
:10250000800D89828A83E493A3F608DFF9ECFAA9A7
:10251000F0EDFB2289828A83ECFAE0A3C8C582C869
:10252000CCC583CCF0A3C8C582C8CCC583CCDFEAB8
:10253000DEE880DB89828A83E493A3F208DFF980F6
:10254000CC88F0EF60010E4E60C388F0ED2402B439
:10255000040050B9F582EB2402B4040050AF2323E9
:102560004582239024C173BB010689828A83E022BD
:102570005002E722BBFE02E32289828A83E493228F
:10258000BB010689828A83F0225002F722BBFE013A
:10259000F322EF8DF0A4A8F0CF8CF0A428CE8DF01C
:1025A000A42EFE22BC000BBE0029EF8DF084FFADEF
:1025B000F022E4CCF875F008EF2FFFEE33FEEC3399
:1025C000FCEE9DEC984005FCEE9DFE0FD5F0E9E495
:1025D000CEFD22EDF8F5F0EE8420D21CFEADF075B4
:1025E000F008EF2FFFED33FD4007985006D5F0F2CD
:1025F00022C398FD0FD5F0EA22C2D5EC30E709B22C
:10260000D5E4C39DFDE49CFCEE30E715B2D5E4C3F0
:102610009FFFE49EFE1225A4C3E49DFDE49CFC8084
:10262000031225A430D507C3E49FFFE49EFE22A336
:10263000F8E0C5F025F0F0E582158270021583E020
:10264000C838F0E822BB0110E58229F582E5833A1B
:10265000F583E0F5F0A3E0225009E92582F886F041
:1026600008E622BBFE0AE92582F8E2F5F008E2223C
:10267000E5832AF583E993F5F0A3E99322BB010AE8
:1026800089828A83F0E5F0A3F0225006F709A7F0CB
:102690001922BBFE06F3E5F009F31922F8BB01117C
:1026A000E58229F582E5833AF583E8F0E5F0A3F0C9
:1026B000225009E92582C8F608A6F022BBFE09E9E6
:1026C0002582C8F2E5F008F222E88FF0A4CC8BF066
:1026D000A42CFCE98EF0A42CFC8AF0EDA42CFCEADE
:1026E0008EF0A4CDA8F08BF0A42DCC3825F0FDE918
:1026F0008FF0A42CCD35F0FCEB8EF0A4FEA9F0EB0E
:102700008FF0A4CFC5F02ECD39FEE43CFCEAA42D19
:10271000CE35F0FDE43CFC2275F008758200EF2F09
:10272000FFEE33FECD33CDCC33CCC58233C5829B97
:10273000ED9AEC99E58298400CF582EE9BFEED9ABD
:10274000FDEC99FC0FD5F0D6E4CEFBE4CDFAE4CC59
:10275000F9A88222B800C1B90059BA002DEC8BF05B
:1027600084CFCECDFCE5F0CBF97818EF2FFFEE3318
:10277000FEED33FDEC33FCEB33FB10D70399400443
:10278000EB99FB0FD8E5E4F9FA227818EF2FFFEE6A
:1027900033FEED33FDEC33FCC933C910D7059BE99B
:1027A0009A4007EC9BFCE99AF90FD8E0E4C9FAE4F7
:1027B000CCFB2275F010EF2FFFEE33FEED33FDCC96
:1027C00033CCC833C810D7079BEC9AE899400AED80
:1027D0009BFDEC9AFCE899F80FD5F0DAE4CDFBE428
:1027E000CCFAE4C8F922C3E49FFFE49EFEE49DFD19
:1027F000E49CFC22EB9FF5F0EA9E42F0E99D42F05A
:10280000EC6480C864809845F022EB9FF5F0EA9E66
:1028100042F0E99D42F0E89C45F022E86010ECA20D
:10282000E713FCED13FDEE13FEEF13FFD8F022BB10
:10283000010789828A830228695005E9F80229483C
:10284000BBFE05E9F802295422BB010789828A836D
:1028500002291F5005E9F8022912BBFE05E9F8021A
:10286000292B89828A83022938ECF0A3EDF0A3EEAC
:10287000F0A3EFF022A8828583F0D083D0821228C3
:102880008C12288C12288C12288CE473E493A3C534
:1028900083C5F0C583C8C582C8F0A3C583C5F0C58C
:1028A00083C8C582C822BB010789828A8302287532
:1028B0005005E9F8022960BBFE05E9F802297922F2
:1028C000D083D082F8E4937012740193700DA3A3A7
:1028D00093F8740193F5828883E4737402936860BB
:1028E000EFA3A3A380DFEF4E6012EF60010EEDBBFC
:1028F000010B89828A83F0A3DFFCDEFA2289F05083
:1029000007F709DFFCA9F022BBFEFCF309DFFCA9F5
:10291000F022E6FB08E6F908E6FA08E6CBF822E042
:10292000F8A3E0F9A3E0FAA3E0FB22E2FB08E2F956
:1029300008E2FA08E2CBF822E493F8740193F97400
:102940000293FA740393FB22ECF608EDF608EEF618
:1029500008EFF622ECF208EDF208EEF208EFF222B0
:10296000D083D082E493F608740193F6087402933E
:10297000F608740393F6740473D083D082E493F260
:1029800008740193F208740293F208740393F274CA
:1029900004738D458B428A438944E4900A0BF0A36B
:1029A000F0A3F0A3F0A3F0A3F0A3F0A3F0A3F0A38F
:1029B000F0A3F0A3F0754B01754C03754D8F754E68
:1029C00001754F0A75500BF5517D64FC124DEC906A
:1029D0000A0BE0FCA3E0FD754B01754C03754D8FB0
:1029E000754E01754F0A75500FE4F5517B017A035E
:1029F000798F124DEC900A3D12287500000000E41A
:102A0000900A3BF0A3F0900A0FE0FEA3E0FFC39012
:102A10000A3CE09F900A3BE09E504F900A3DE0F850
:102A2000A3E0F9A3E0FAA3E0FB900A3CE025E0FF75
:102A3000900A3BE033FE748F2FF58274033EF583DA
:102A4000E0FEA3E0FFE4FCFDEB2FFFEA3EFEED39E4
:102A5000FDEC38FC900A3D122869900A3CE004F035
:102A600070A4900A3BE004F0809C900A0FE0FEA363
:102A7000E0FBAA06E4F9F8900A3DE0FCA3E0FDA320
:102A8000E0FEA3E0FF127DFB900A17EEF0A3EFF04B
:102A9000900A0F125E9D900A1F125815900A1FEEA1
:102AA000F0A3EFF0754B01754C03754D8F754E011A
:102AB000754F0A75500BE4F551AB42AA43A9447D0A
:102AC00064FC124DEC900A0BE0FCA3E0FD754B0199
:102AD000754C03754D8F754E01754F0A7550117504
:102AE00051017B017A03798F124DEC900A3D122837
:102AF0007500000000E4900A3BF0A3F0900A11E09A
:102B0000FEA3E0FFC3900A3CE09F900A3BE09E508A
:102B10004F900A3DE0F8A3E0F9A3E0FAA3E0FB90B0
:102B20000A3CE025E0FF900A3BE033FE748F2FF56E
:102B30008274033EF583E0FEA3E0FFE4FCFDEB2F8F
:102B4000FFEA3EFEED39FDEC38FC900A3D122869A3
:102B5000900A3CE004F070A4900A3BE004F0809CF2
:102B6000900A11E0FEA3E0FBAA06E4F9F8900A3D02
:102B7000E0FCA3E0FDA3E0FEA3E0FF127DFB900AD2
:102B800019EEF0A3EFF0900A11125E9D900A211247
:102B90005815900A21124DC8900A0DE0FCA3E0FDE3
:102BA000754B01754C03754D8F754E01754F0A7548
:102BB0005013E4F5517B017A03798F124DEC900AA2
:102BC0003D12287500000000E4900A3BF0A3F0904D
:102BD0000A13E0FEA3E0FFC3900A3CE09F900A3B8B
:102BE000E09E504F900A3DE0F8A3E0F9A3E0FAA37D
:102BF000E0FB900A3CE025E0FF900A3BE033FE74E6
:102C00008F2FF58274033EF583E0FEA3E0FFE4FC22
:102C1000FDEB2FFFEA3EFEED39FDEC38FC900A3D5E
:102C2000122869900A3CE004F070A4900A3BE0048A
:102C3000F0809C900A13E0FEA3E0FBAA06E4F9F8FA
:102C4000900A3DE0FCA3E0FDA3E0FEA3E0FF127DBF
:102C5000FB900A1BEEF0A3EFF07B017A03798F90D3
:102C60000A13125EA3900A23125815900A23124DDC
:102C7000C8900A0DE0FCA3E0FD754B01754C03758F
:102C80004D8F754E01754F0A7550157551017B01B9
:102C90007A03798F124DEC900A3D122875000000DE
:102CA00000E4900A3BF0A3F0900A15E0FEA3E0FFD9
:102CB000C3900A3CE09F900A3BE09E504F900A3D33
:102CC000E0F8A3E0F9A3E0FAA3E0FB900A3CE025DA
:102CD000E0FF900A3BE033FE748F2FF58274033ED1
:102CE000F583E0FEA3E0FFE4FCFDEB2FFFEA3EFEF0
:102CF000ED39FDEC38FC900A3D122869900A3CE061
:102D000004F070A4900A3BE004F0809C900A15E067
:102D1000FEA3E0FBAA06E4F9F8900A3DE0FCA3E07C
:102D2000FDA3E0FEA3E0FF127DFB900A1DEEF0A3E1
:102D3000EFF07B017A03798F900A15125EA3900A57
:102D400025EEF0A3EFF0900A25E0FEA3E0FFE4FCFF
:102D5000FD12581D900A25EEF0A3EFF0E545FB901B
:102D60000A1FE0FCA3E0FDAF037E00122592900A4B
:102D700018E02FFF900A17E03E900A27F0A3EFF02B
:102D8000900A21E0FCA3E0FDAF037E0012259290A3
:102D90000A19E0FCA3E0FDD39FEC9E4008ED9FFFE5
:102DA000EC9EFE80047E007F00900A29EEF0A3EFE7
:102DB000F0E545FB900A21E0FCA3E0FDAF037E00B7
:102DC000122592900A1AE02FFF900A19E03E900A0D
:102DD0002BF0A3EFF0900A23E0FCA3E0FDAF037E0D
:102DE00000122592900A1BE0FCA3E0FDD39FEC9E0D
:102DF0004008ED9FFFEC9EFE80047E007F00900A5D
:102E00002DEEF0A3EFF0E545FB900A23E0FCA3E0F4
:102E1000FDAF037E00122592900A1CE02FFF900A5E
:102E20001BE03E900A2FF0A3EFF0900A25E0FCA3F0
:102E3000E0FDAF037E00122592900A1DE0FCA3E0A6
:102E4000FDD39FEC9E4008ED9FFFEC9EFE80047E2C
:102E5000007F00900A31EEF0A3EFF0900A27E0FE29
:102E6000A3E0FFA3E0FCA3E0FDD39FEC9E4008EDB0
:102E70009FFFEC9EFE80047E007F00900A33EEF000
:102E8000A3EFF0900A2BE0FEA3E0FFA3E0FCA3E099
:102E9000FDD39FEC9E4008ED9FFFEC9EFE80047EDC
:102EA000007F00900A35EEF0A3EFF0900A2FE0FECD
:102EB000A3E0FFA3E0FCA3E0FDD39FEC9E4008ED60
:102EC0009FFFEC9EFE80047E007F00900A37EEF0AC
:102ED000A3EFF0900A35E0FAA3E0FB900A34E02B70
:102EE000FF900A33E03AFE900A37E0FCA3E0FD2FA2
:102EF000FFEC3EA3F0A3EFF0900815ECF0A3EDF08B
:102F0000A3EAF0A3EBF0900A33E0FFA3E0900819E6
:102F1000CFF0A3EFF0900A39E0FEA3E0FF2290008B
:102F20007FE01228C02F5C002F8E012FAD022FCC26
:102F300003300230301982310E8531A98631DE8BA3
:102F400032798C33178D334C9033919130B898305F
:102F5000D79933ACB033C8D00000340E90083AE0B3
:102F6000C39401500302340E7B017A00790075335B
:102F7000007534807F007EC8127C127B017A007954
:102F8000807531007532787F807EC8027E8290081D
:102F90003AE0C39401500302340E7B017A00798039
:102FA0007533007534807F007ECA0233C590083ABD
:102FB000E0C39401500302340E7B017A00798075DE
:102FC00033007534807F007ECC0233C590083AE030
:102FD000C39401401A7B017A0079807533007534FF
:102FE000807F007ECE127C1278177C020230C87877
:102FF000817C027D017B017A0079EA7E007F0802F4
:1030000030D490083B7401F078007C01FDFB7A001D
:1030100079807E007F800230D490083AE0C394012A
:10302000500302340E90084AE094F840629000FF8A
:10303000E06401600302340E9000F8E09004CFF0E9
:103040009000F9E09004D0F09000FEE0FF9004D5ED
:10305000F0BF011A9000FAE0FF1276C69004CFE0AC
:10306000FD7FB81289949004D0EFF00232E890040A
:10307000D5E060030232E89000FAE0FF1276C690D5
:1030800004CFE0FDA3E0FB7FB81286FB0232E87BB1
:10309000017A0079807533007534807F007ED41208
:1030A0007C1278577C047D017B017A0079807E0058
:1030B0007F801225410287BF90083AE0C3940150F7
:1030C0000302340E78577C077D017B017A007980FA
:1030D0007E007F8002254190083AE0C394015003AE
:1030E00002340E78D77C077D017B017A0079807EDF
:1030F000007F801225419007F8E0B45503128A281A
:103100009007F8E064AA600302340E028C3D900838
:103110003AE0C39401500302340E90084AE094F858
:10312000405E9000FFE06401600302340E9000F8FE
:10313000E09006CFF09000F9E09006D0F09000FE0D
:10314000E0FF9006D5F0BF01199000FAE0FF128C65
:10315000349006CFE0FD7F1812897E9006D0EFF004
:10316000801B9006D5E070159000FAE0FF128C34B9
:103170009006CFE0FDA3E0FB7F181286DE0232E866
:103180007B017A0079807533007534807F007ED6AC
:10319000127C1278577C067D017B017A0079807E53
:1031A000007F8012254102880D90083AE0C3940107
:1031B000500302340E7B017A007980753300753438
:1031C000807F007ED8127C1278D77C067D017B013F
:1031D0007A0079807E007F801225410289679008FD
:1031E0003AE0C39401500302340E90084AE094F888
:1031F000405E9000FFE06401600302340E9000F82E
:10320000E09009C7F09000F9E09009C8F09000FE46
:10321000E0FF9009CDF0BF01199000FAE0FF128C99
:10322000229009C7E0FD7F201289949009C8EFF031
:10323000801B9009CDE070159000FAE0FF128C22FF
:103240009009C7E0FDA3E0FB7F201286FB0232E875
:103250007B017A0079807533007534807F007EDAD7
:10326000127C12784F7C097D017B017A0079807E87
:10327000007F8012254102890B90083AE0C3940137
:10328000500302340E90084AE094F840619000FF29
:10329000E06401600302340E9000F8E09005CFF086
:1032A0009000F9E09005D0F09000FEE0FF9005D589
:1032B000F0BF01199000FAE0FF128C2B9005CFE0CF
:1032C000FD7F1612897E9005D0EFF0801B9005D50A
:1032D000E070159000FAE0FF128C2B9005CFE0FD16
:1032E000A3E0FB7F161286DEE49000FFF0227B0154
:1032F0007A0079807533007534807F007EDC127C23
:103300001278577C057D017B017A0079807E007FF1
:10331000801225410287D990083AE0C394015003F6
:1033200002340E7B017A0079807533007534807F1A
:10333000007EDE127C1278D77C057D017B017A004D
:1033400079807E007F8012254102895090083AE002
:10335000D39401500302340E78F87C007D017B0188
:103360007A02790B7E007F081225417B017A007971
:10337000807533007534807F007ED0127C127B0113
:103380007A0179937531007532807F007ED0027C9E
:103390005A90083AE0D3940140747B017A00798016
:1033A0007533007534807F007ED2801990083AE032
:1033B000D3940140597B017A0079807533007534CC
:1033C000807F007EF6027C1290083AE0D3940140A0
:1033D0003D90084AE06424703590084DE064117017
:1033E0002DA3E064227027A3E064337021A3E0B42E
:1033F000551CA3E0B46617A3E0B455127B557D01BC
:103400007F007EF81280C2780076A575EF1222EF59
:103410001470030235181470030236071470030287
:1034200036F6240360030237E87F20128C229009CD
:1034300052E0FBE4FD7F201286FB900953E0FB7D08
:10344000027F201286FB900954E0FB7D037F20124F
:1034500086FB900955E0FB7D047F201286FB9009D6
:1034600056E0FB7D057F201286FB900957E0FB7D2F
:103470000A7F201286FB900958E0FB7D0D7F201209
:1034800086FB900959E0FB7D197F201286FB90098D
:103490005AE0FB7D1A7F201286FB90095DE0FB7DE0
:1034A000C27F201286FB900960E0FB7DE27F201244
:1034B00086FB900963E0FB7DD27F201286FB90099A
:1034C0005DE020E01890095BE0FB7DC07F20128664
:1034D000FB90095CE0FB7DC17F201286FB900960B8
:1034E000E020E01890095EE0FB7DE07F201286FB83
:1034F00090095FE0FB7DE17F201286FB900963E08D
:1035000030E0030237E8900961E0FB7DD07F2012B4
:1035100086FB9009620237DF7F21128C22900968B6
:10352000E0FBE4FD7F201286FB900969E0FB7D0251
:103530007F201286FB90096AE0FB7D037F201286C4
:10354000FB90096BE0FB7D047F201286FB90096CE9
:10355000E0FB7D057F201286FB90096DE0FB7D0A74
:103560007F201286FB90096EE0FB7D0D7F20128686
:10357000FB90096FE0FB7D197F201286FB9009709C
:10358000E0FB7D1A7F201286FB900973E0FB7DC271
:103590007F201286FB900976E0FB7DE27F20128679
:1035A000FB900979E0FB7DD27F201286FB900973A6
:1035B000E020E018900971E0FB7DC07F201286FBBF
:1035C000900972E0FB7DC17F201286FB900976E0B6
:1035D00020E018900974E0FB7DE07F201286FB90CC
:1035E0000975E0FB7DE17F201286FB900979E030D0
:1035F000E0030237E8900977E0FB7DD07F20128658
:10360000FB9009780237DF7F22128C2290097EE03E
:10361000FBE4FD7F201286FB90097FE0FB7D027FAB
:10362000201286FB900980E0FB7D037F201286FB41
:10363000900981E0FB7D047F201286FB900982E0E7
:10364000FB7D057F201286FB900983E0FB7D0A7FCE
:10365000201286FB900984E0FB7D0D7F201286FB03
:10366000900985E0FB7D197F201286FB900986E09A
:10367000FB7D1A7F201286FB900989E0FB7DC27FCB
:10368000201286FB90098CE0FB7DE27F201286FBF6
:1036900090098FE0FB7DD27F201286FB900989E0A4
:1036A00020E018900987E0FB7DC07F201286FB9008
:1036B0000988E0FB7DC17F201286FB90098CE02009
:1036C000E01890098AE0FB7DE07F201286FB9009DC
:1036D0008BE0FB7DE17F201286FB90098FE030E0DC
:1036E000030237E890098DE0FB7DD07F201286FB36
:1036F00090098E0237DF7F23128C22900994E0FB21
:10370000E4FD7F201286FB900995E0FB7D027F207F
:103710001286FB900996E0FB7D037F201286FB90CA
:103720000997E0FB7D047F201286FB900998E0FB5F
:103730007D057F201286FB900999E0FB7D0A7F20A2
:103740001286FB90099AE0FB7D0D7F201286FB908C
:10375000099BE0FB7D197F201286FB90099CE0FB12
:103760007D1A7F201286FB90099FE0FB7DC27F209F
:103770001286FB9009A2E0FB7DE27F201286FB907F
:1037800009A5E0FB7DD27F201286FB90099FE020F7
:10379000E01890099DE0FB7DC07F201286FB900918
:1037A0009EE0FB7DC17F201286FB9009A2E020E015
:1037B000189009A0E0FB7DE07F201286FB9009A114
:1037C000E0FB7DE17F201286FB9009A5E020E01858
:1037D0009009A3E0FB7DD07F201286FB9009A4E036
:1037E000FB7DD17F201286FB229007D574FFF0E489
:1037F000A3F09008CDE0FF12888F9007C9E0FEA3E8
:10380000E0FF900795E0FCA3E0FD756A00756B0092
:10381000756C418E6D8F6E8C6FF570757101757260
:103820003B7B007A00793F127E3F900797E075431B
:1038300000F5449007C7E0FEA3E0FF90079BE0FC83
:10384000A3E0FD756A00756B00756C398E6D8F6E27
:103850008C6FF57075710175723B7B007A0079375A
:10386000127E3F90079DE0753B00F53C756A007540
:103870006B00756C309007C1E0F56D900791E0F535
:103880006E756F3F7B007A00792F127F4790079209
:10389000E0F531E4754E01F54DF54CF54BC3E53AD5
:1038A0009538FFE5399537FEAC3BAD3C1225A4EFCA
:1038B0002401FFE43EFEE4FCFDAB4EAA4DA94CA85A
:1038C0004B1226C9C004A905AA06AB07C3E530956B
:1038D0002FFFE49400FEAD317C001225A4EF2401FB
:1038E000FFE43EFEE4FCFDD0001226C9C004A90599
:1038F000AA06AB07C3E5429540FFE541953FFEAC04
:1039000043AD441225A4EF2401FFE43EFEE4FCFD98
:10391000D0001226C98F4E8E4D8D4C8C4BE4F55243
:10392000F551F550F54F128B668E478F48128B6616
:103930008E498F4AE4F556F555F554F553F55EF585
:103940005DF55CF55BF55AF559F558F557F562F5F7
:1039500061F560F55F852F2EE52ED395304003028B
:103960003ACD7B3FAD2E7F14127A85853F3385405B
:1039700034D3E5349542E53395414003023ABD7BAB
:10398000FF7A03AD34AC337FE812878985373585FC
:103990003836D3E536953AE53595394003023AA7EE
:1039A0007BFF7A03AD36AC357FDC12878912831337
:1039B000127415C3EF9548EE954750048E478F4813
:1039C000C3E54A9FFFE5499EFEE48F668E65F56478
:1039D000F563E5562566F556E5553565F555E55427
:1039E0003564F554E5533563F553AE33AF34E4FC39
:1039F000FDAB66AA65A964A8631226C9E55E2FF52A
:103A00005EE55D3EF55DE55C3DF55CE55B3CF55BEB
:103A1000AF2EE4FCFDFEAB66AA65A964A86312267E
:103A2000C9E55A2FF55AE5593EF559E5583DF5587F
:103A3000E5573CF557AE35AF36E4FCFDAB66AA65FD
:103A4000A964A8631226C9E5622FF562E5613EF517
:103A500061E5603DF560E55F3CF55FE5522401F509
:103A600052E43551F551E43550F550E4354FF54FFA
:103A7000E47F64FEFDFCAB52AA51A950A84F122668
:103A8000C9AB4EAA4DA94CA84B1227549007D6EFAC
:103A9000F0900757E030E70FE53C2536F536E53B7B
:103AA0003535F535023992900757E030E70FE54498
:103AB0002534F534E5433533F53302397190075732
:103AC000E030E709E531252EF52E023958E4FFFEF6
:103AD000FDFCAB56AA55A954A853C312280A70037B
:103AE000023B6CA853AF5AAE59AD58AC571227548D
:103AF0008F32AB56AA55A954A853AF5EAE5DAD5CEC
:103B0000AC5B1227548E458F46AB56AA55A954A8D4
:103B100053AF62AE61AD60AC5F1227548E3D8F3EF5
:103B20007B3FAD327F14127A857BFF7A03AD46ACC2
:103B3000457FE81287897BFF7A03AD3EAC3D7FDC91
:103B40001287899007C1E532F09007C7E53DF0A3E1
:103B5000E53EF0A3E545F0A3E546F090075DE547B7
:103B6000F0A3E548F0E49007D5F0800C9007D574F9
:103B700003F09007D2E004F09007D67464F022EFCF
:103B8000147003023C77147003023D551470030255
:103B90003E3324036003023F107F20128C22E4FD99
:103BA0007F20128994900952EFF07D027F201289C4
:103BB00094900953EFF07D037F201289949009546B
:103BC000EFF07D047F20128994900955EFF07D0578
:103BD0007F20128994900956EFF07D0A7F20128988
:103BE00094900957EFF07D0D7F2012899490095829
:103BF000EFF07D197F20128994900959EFF07D1A1A
:103C00007F2012899490095AEFF07DC07F2012899D
:103C10009490095BEFF07DC17F2012899490095C3C
:103C2000EFF07DC27F2012899490095DEFF07DE076
:103C30007F2012899490095EEFF07DE17F20128948
:103C40009490095FEFF07DE27F20128994900960E3
:103C5000EFF07DD07F20128994900961EFF07DD143
:103C60007F20128994900962EFF07DD27F20128923
:103C700094900963EFF0227F21128C22E4FD7F20D3
:103C8000128994900968EFF07D027F201289949048
:103C90000969EFF07D037F2012899490096AEFF0A3
:103CA0007D047F2012899490096BEFF07D057F20C1
:103CB00012899490096CEFF07D0A7F20128994900C
:103CC000096DEFF07D0D7F2012899490096EEFF061
:103CD0007D197F2012899490096FEFF07D1A7F2063
:103CE000128994900970EFF07DC07F201289949022
:103CF0000971EFF07DC17F20128994900972EFF075
:103D00007DC27F20128994900973EFF07DE07F20BF
:103D1000128994900974EFF07DE17F2012899490CC
:103D20000975EFF07DE27F20128994900976EFF01B
:103D30007DD07F20128994900977EFF07DD17F208C
:103D4000128994900978EFF07DD27F2012899490A7
:103D50000979EFF0227F22128C22E4FD7F20128964
:103D60009490097EEFF07D027F2012899490097F64
:103D7000EFF07D037F20128994900980EFF07D049D
:103D80007F20128994900981EFF07D057F201289B0
:103D900094900982EFF07D0A7F2012899490098324
:103DA000EFF07D0D7F20128994900984EFF07D194A
:103DB0007F20128994900985EFF07D1A7F20128967
:103DC00094900986EFF07DC07F2012899490098736
:103DD000EFF07DC17F20128994900988EFF07DC2B9
:103DE0007F20128994900989EFF07DE07F2012896D
:103DF0009490098AEFF07DE17F2012899490098BDD
:103E0000EFF07DE27F2012899490098CEFF07DD055
:103E10007F2012899490098DEFF07DD17F20128947
:103E20009490098EEFF07DD27F2012899490098FB3
:103E3000EFF0227F23128C22E4FD7F2012899490E0
:103E40000994EFF07D027F20128994900995EFF09C
:103E50007D037F20128994900996EFF07D047F20E6
:103E6000128994900997EFF07D057F201289949034
:103E70000998EFF07D0A7F20128994900999EFF05C
:103E80007D0D7F2012899490099AEFF07D197F2093
:103E900012899490099BEFF07D1A7F2012899490EB
:103EA000099CEFF07DC07F2012899490099DEFF06E
:103EB0007DC17F2012899490099EEFF07DC27F2002
:103EC00012899490099FEFF07DE07F2012899490F1
:103ED00009A0EFF07DE17F201289949009A1EFF015
:103EE0007DE27F201289949009A2EFF07DD07F209F
:103EF0001289949009A3EFF07DD17F2012899490CC
:103F000009A4EFF07DD27F201289949009A5EFF0EB
:103F1000229007D574FFF0E4A3F09008CDE0FF12E3
:103F2000888F900785E0FEA3E0FFA3E0FCA3E0FDFF
:103F3000756A00756B00756C418E6D8F6E8C6FF5B8
:103F40007075710175723B7B007A00793F127E3F7C
:103F5000900789E0754300F54490078BE0FEA3E0ED
:103F6000FFA3E0FCA3E0FD756A00756B00756C397A
:103F70008E6D8F6E8C6FF57075710175723B7B0065
:103F80007A007937127E3F90078FE0753B00F53C51
:103F9000756A00756B00756C309007C1E0F56D9027
:103FA0000782E0F56E756F3F7B007A00792F127FF4
:103FB00047900783E0F531E4754E01F54DF54CF57A
:103FC0004BC3E53A9538FFE5399537FEAC3BAD3C40
:103FD0001225A4EF2401FFE43EFEE4FCFDAB4EAA53
:103FE0004DA94CA84B1226C9C004A905AA06AB07C7
:103FF000C3E530952FFFE49400FEAD317C0012251F
:10400000A4EF2401FFE43EFEE4FCFDD0001226C92B
:10401000C004A905AA06AB07C3E5429540FFE541E8
:10402000953FFEAC43AD441225A4EF2401FFE43ECE
:10403000FEE4FCFDD0001226C98F4E8E4D8D4C8CB7
:104040004BE4F552F551F550F54F128B668E498FC2
:104050004A854947854A48E4F556F555F554F553E0
:10406000F55EF55DF55CF55BF55AF559F558F557D4
:10407000F562F561F560F55F852F2EE52ED395305D
:1040800040030241F07B3FAD2E7F14127A85853FBD
:1040900033854034D3E5349542E5339541400302FE
:1040A00041E07BFF7A03AD34AC337FE8128789852A
:1040B0003735853836D3E536953AE53595394003B9
:1040C0000241CA7BFF7A03AD36AC357FDC128789AB
:1040D000128313127415C3EF9548EE954750048E62
:1040E000478F48C3E54A9FFFE5499EFEE48F668EF1
:1040F00065F564F563E5562566F556E5553565F5D0
:1041000055E5543564F554E5533563F553AE33AF97
:1041100034E4FCFDAB66AA65A964A8631226C9E570
:104120005E2FF55EE55D3EF55DE55C3DF55CE55BCE
:104130003CF55BAF2EE4FCFDFEAB66AA65A964A866
:10414000631226C9E55A2FF55AE5593EF559E55847
:104150003DF558E5573CF557AE35AF36E4FCFDABC1
:1041600066AA65A964A8631226C9E5622FF562E50F
:10417000613EF561E5603DF560E55F3CF55FE55268
:104180002401F552E43551F551E43550F550E4354C
:104190004FF54FE47F64FEFDFCAB52AA51A950A835
:1041A0004F1226C9AB4EAA4DA94CA84B12275490CA
:1041B00007D6EFF0900757E030E70FE53C2536F5DE
:1041C00036E53B3535F5350240B5900757E030E729
:1041D0000FE5442534F534E5433533F53302409497
:1041E000900757E030E709E531252EF52E02407B98
:1041F000E4FFFEFDFCAB56AA55A954A853C31228F0
:104200000A700302428FA853AF5AAE59AD58AC574B
:104210001227548F32AB56AA55A954A853AF5EAE9D
:104220005DAD5CAC5B1227548E458F46AB56AA55EC
:10423000A954A853AF62AE61AD60AC5F1227548E33
:104240003D8F3E7B3FAD327F14127A857BFF7A0330
:10425000AD46AC457FE81287897BFF7A03AD3EAC63
:104260003D7FDC1287899007C1E532F09007C7E5F2
:104270003DF0A3E53EF0A3E545F0A3E546F0900749
:104280005DE547F0A3E548F0E49007D5F0800C9099
:1042900007D57402F09007D2E004F09007D674645A
:1042A000F0229007D574FFF0E4A3F09008CDE0FF72
:1042B00012888F756A00756B00756C2F900760E02F
:1042C000F56DA3E0F56E756F1F7B007A00792E12F5
:1042D0007F47900762E0F530756A00756B00756C7A
:1042E00034A3E0F56DA3E0F56E756F3F7B007A00B7
:1042F0007933127F47900765E0F535900767E0FE58
:10430000A3E0FFA3E0FCA3E0756A00756B00756C89
:104310003A8E6D8F6E8C6FF57075710075727E7B45
:10432000007A007938127E3F90076BE0753C00F50B
:104330003DE4755D01F55CF55BF55AC3E52F952EFF
:10434000FFE49400FEAD307C001225A4EF2401FFB1
:10435000E43EFEE4FCFDAB5DAA5CA95BA85A122614
:10436000C9C004A905AA06AB07C3E5349533FFE429
:104370009400FEAD357C001225A4EF2401FFE43E3D
:10438000FEE4FCFDD0001226C9C004A905AA06ABB4
:1043900007C3E53B9539FFE53A9538FEAC3CAD3DAA
:1043A0001225A4EF2401FFE43EFEE4FCFDD0001240
:1043B00026C98F5D8E5C8D5B8C5AE4F561F560F5E6
:1043C0005FF55E128B668E428F43128B668E448F32
:1043D00045E4F549F548F547F546F551F550F54FF3
:1043E000F54EF54DF54CF54BF54AF555F554F553AD
:1043F000F552852E32E532D3952F400302455AE51A
:1044000032FD7B3F7FB3127A85853337E537D3950D
:1044100034400302454AE537FD7B3F7F14127A851D
:10442000853840853941D3E541953BE540953A4093
:104430000302453A7BFF7A03AD41AC407FE212872D
:1044400089128313127415C3EF9543EE95425004FD
:104450008E428F43C3E5459FFFE5449EFEE48F599E
:104460008E58F557F556E5492559F549E54835582B
:10447000F548E5473557F547E5463556F546AF3239
:10448000E4FCFDFEAB59AA58A957A8561226C9E567
:10449000512FF551E5503EF550E54F3DF54FE54EB6
:1044A0003CF54EAF37E4FCFDFEAB59AA58A957A81E
:1044B000561226C9E54D2FF54DE54C3EF54CE54B22
:1044C0003DF54BE54A3CF54AAE40AF41E4FCFDAB5F
:1044D00059AA58A957A8561226C9E5552FF555E5EA
:1044E000543EF554E5533DF553E5523CF552E56134
:1044F0002401F561E43560F560E4355FF55FE4358E
:104500005EF55EE47F64FEFDFCAB61AA60A95FA876
:104510005E1226C9AB5DAA5CA95BA85A122754900B
:1045200007D6EFF0900757E030E70FE53D2541F55E
:1045300041E53C3540F540024426900757E030E71E
:1045400009E5352537F53702440C900757E030E789
:1045500009E5302532F5320243F5E4FFFEFDFCAB00
:1045600049AA48A947A846C312280A70030245F180
:10457000A846AF4DAE4CAD4BAC4A1227548F36AB6C
:1045800049AA48A947A846AF51AE50AD4FAC4E120C
:1045900027548F31AB49AA48A947A846AF55AE5416
:1045A000AD53AC521227548E3E8F3F7B3FAD317FCF
:1045B000B3127A859007C0E531F07B3FAD367F14AA
:1045C000127A859007C1E536F07BFF7A03AD3FACE8
:1045D0003E7FE21287899007CBE53EF0A3E53FF0EE
:1045E00090075DE542F0A3E543F0E49007D5F08045
:1045F0000C9007D57401F09007D2E004F09007D634
:104600007464F022C0E0C0F0C083C082C0D075D016
:1046100000C000C001C002C003C004C005C006C085
:104620000775210075220030C2030248AFE5C0546F
:10463000F0700302471E24F0700302474124D0703B
:10464000030247F824F070030248A32430600302F9
:1046500048A7C2C5900839E5C2F0900849E4F09037
:104660000839E0FF54FE64A06003024719EF20E020
:104670000302471490084AE0FFC394805075EF94FA
:1046800015402FEF943A502AEF20E0102401F582D4
:10469000E43400F583E0900847F08032900847E06A
:1046A000FF90084AE02400F582E43400F583EFF03F
:1046B000801C90084AE0FFD394764012EF947F501C
:1046C0000D74002FF582E43400F58374FFF0900838
:1046D0004AE0FF2400F582E43400F583E0F5C2EF00
:1046E000D39402402F90084AE0FF940F50261259AD
:1046F0009A802190007FE090084AB4030AE0249752
:10470000F582E434018008E02400F582E43400F509
:1047100083E0F5C2D2C10248B5C2C10248B59008D3
:1047200049E0244CF582E43408F583E5C2F09008B2
:104730004CE090084AF0900849E004F0D2C10248E9
:10474000B5C2C4900849E0FFC3940250030247F089
:104750009008467401F0EF1490084BF090084AE07E
:10476000FFB47F17900849E0B4021090084DE09024
:10477000007FF090083C7401F08075EFB4560F9004
:104780000849E0B4020890083C7402F08062900886
:104790004AE0B45D0F900849E0B4020890083C7408
:1047A00003F0804C90084AE0FFB4620F900849E0A3
:1047B000B4020890083C7404F08035EFC3947B4049
:1047C0001190084AE0D3947E500890083C7405F09C
:1047D000801E90084AE0FFC39477400EEFD3947A8E
:1047E000500890083C7406F0800690083C7407F06E
:1047F000900849E4F00248B520C1030248B590088A
:104800004AE004F0E0FFC394805075EF9415402F08
:10481000EF943A502AEF20E0102401F582E43400AE
:10482000F583E0900847F08032900847E0FF900859
:104830004AE02400F582E43400F583EFF0801C9018
:10484000084AE0FFD394764012EF947F500D740035
:104850002FF582E43400F58374FFF090084AE0FFFE
:104860002400F582E43400F583E0F5C2EFD394022E
:10487000404390084AE0FF940F503A12599A80350D
:1048800090007FE090084AB4030AE02497F582E4A0
:1048900034018008E02400F582E43400F583E0F57B
:1048A000C28012C2C4800E53C17F43C1808000C247
:1048B000C5C2C4C2C1C2C0D007D006D005D004D082
:1048C00003D002D001D000D0D0D082D083D0F0D09D
:1048D000E0328F2C8D2DE49009D3F0A3F090075A8D
:1048E000E09009D5F0E4A3F09009DB7402F0E4A3B2
:1048F000F0A3F09009E212287500000000E490098E
:10490000E8F0A3F0A3122875000000009009EE1251
:10491000287500000000E49009F2F09009F5F0A37A
:10492000F0A3F0A3F0A3F09007D574FFF0E4900794
:10493000E1F070069009D67404F09009DBE0700392
:104940007404F01276491276499008CDE0FF12887F
:104950008F7D027F6312851E7D027F6312851E900C
:1049600009D7E4F0A3E52CF09009D7E0FCA3E0FD23
:10497000C3952DEC94004003024ADB9009D1ECF082
:10498000A3EDF07B3F7F14127A85125AE89009E676
:10499000EEF0A3EFF04E7003024AC69009F2E0C3B6
:1049A000940150269009D6E0FF75310175320075EB
:1049B00033647534017535097536DE753701753820
:1049C000097539DC7B1F7D0180749009DDE024FAD4
:1049D0009009DCE034FFC39400500CA3E02420F0E5
:1049E0009009DCE03400F09009DDE02407FF900935
:1049F000DCE03400FED3EF943FEE9400400CA3E0E3
:104A000024E0F09009DCE034FFF09009DCA3E0FF43
:104A100024FAFE9009F3F0FDEF2407A3F0FB9009C0
:104A2000D6E0FF7531017532007533647534017558
:104A300035097536DE7537017538097539DC127040
:104A4000BDE4FFFEFDFC9009DEE0F8A3E0F9A3E081
:104A5000FAA3E0FBD31227F440069009F27401F0A8
:104A60009009DEE0FCA3E0FDA3E0FEA3E0FFA3E0ED
:104A7000F8A3E0F9A3E0FAA3E0FBC31227F4504641
:104A80009009DEE0FCA3E0FDA3E0FEA3E0FFA3129B
:104A900028699009D1E0FEA3E0FF9009D9EEF0A3C8
:104AA000EFF09009E6E0FDA3E0A3CDF0A3EDF090D8
:104AB00009DCE0FDA3E09009F5CDF0A3EDF090094D
:104AC000D3EEF0A3EFF09009DBE0FF9009D8E02FE0
:104AD000F09009D7E03400F00249689009F2E070E4
:104AE0000A90081D04F0E0FF7E00229009E8E0FC37
:104AF000A3E0FDEC9009CFF0AF05A3EFF09009E83B
:104B0000E0FE900811EEF0A3EFF07FE212851E9018
:104B100009CFE0FD7B037FE3127A85AF2D7E00D3C2
:104B20009009D4E09F9009D3E09E4005EEF0A3EFFA
:104B3000F0AF2C7E00C39009D4E09F9009D3E09E93
:104B40005005EEF0A3EFF09009D3A3E0FD7B3F7F8B
:104B500014127A859007E17409F09009D3E0FFA35D
:104B6000E090081BCFF0A3EFF01280049009D3E08F
:104B7000FEA3E0FF2290007FE01228C04BB6004B5E
:104B8000EA014BFD024C10034C1F304C2E824C4C62
:104B9000834C85854CA3864C678B4CC18C4CDF8D38
:104BA0004CFC904D6C914D1C924D36984D50994D4A
:104BB00089B000004DC77B017A007980753100759E
:104BC00032787F807EC8127C5A900191E0FCA3E08D
:104BD000FDEC9000F8F0A3EDF0A37403F0A304F053
:104BE000E4A3F0A3F0A3F0A3F0227B017A00798084
:104BF0007531007532807F007ECA024DB57B017A27
:104C00000079807531007532807F007ECC024DB511
:104C100078807C007D017B017A027917024D6578EE
:104C2000807C007D017B017A017900024D6590084E
:104C30003AE0C394015003024DC712868778807C06
:104C4000007D017B017A047957024D6590083AE0B6
:104C5000C394015003024DC778807C007D017B0125
:104C60007A0479D7024D6590083AE0C39401500365
:104C7000024DC712893978807C007D017B017A0959
:104C8000794F024D6590083AE0C394015003024DFC
:104C9000C71286C178807C007D017B017A06795736
:104CA000024D6590083AE0C394015003024DC712CB
:104CB000882778807C007D017B017A0679D7024DB8
:104CC0006590083AE0C394015003024DC71286A4D0
:104CD00078807C007D017B017A057957024D6590D3
:104CE000083AE0C394015003024DC71287F378805D
:104CF0007C007D017B017A0579D7806990083AE0D4
:104D0000D39401402E90020D7403F0A304F0788038
:104D10007C007D017B017A017993804990083AE01B
:104D2000D39401400E78807C007D017B017A087964
:104D3000CE8032024DB890083AE0C394015003028D
:104D40004DC778807C007D017B017A0779578015FB
:104D500090083AE0C39401406E78807C007D017B2E
:104D6000017A0779D77E007F8002254190083AE0DA
:104D7000D3940140127B017A00798075310075323D
:104D8000807F007ED2802E802F90083AE0D394015D
:104D9000402678807C007D017B017A08793D7E0089
:104DA0007F091225417B017A0079897531007532BE
:104DB000777F097EF6027C5A7E007F807DFF7B0133
:104DC0007A0079801228E622EEF0A3EFF0754B010D
:104DD000754C03754D8F754E01754F0A75500D75E5
:104DE0005101AB42AA43A9447D647C008B468A47AB
:104DF00089488C498D4A900A4112287500000000AC
:104E0000E4900A49F0A3F0900A47F0A3F0C3900A97
:104E100048E0954A900A47E09549505E900A41E083
:104E2000F8A3E0F9A3E0FAA3E0FBC000C001C002D0
:104E3000C003900A48E025E0FF900A47E033AB4604
:104E4000AA47A9488F82F583122645FFE4FCFDD0CE
:104E500003D002D001D000EB2FFFEA35F0FEED3990
:104E6000FDEC38FC900A41122869900A48E004F0F1
:104E7000709B900A47E004F08093AE49AF4AAB07BD
:104E8000AA06E4F9F8900A41E0FCA3E0FDA3E0FEE5
:104E9000A3E0FF127DFB900A45EEF0A3EFF0E55191
:104EA0006003024F26A3F0A3F0900A47E0FEA3E0C0
:104EB000FFC3954AEE95494003024FAFEF25E0FF4F
:104EC000EE33AB46AA47A9488F82F583122645FFE9
:104ED000D3900A46E09F900A45E095F04038900A4A
:104EE00048E025E0FF900A47E0338F82F5831226E1
:104EF00045FDACF0900A49E475F00112262FFEE55D
:104F0000F025E0FFEE33AB4BAA4CA94D8F82F58321
:104F1000EC8DF012269C900A48E004F0708B900A09
:104F200047E004F08083E55164016003024FAF90D5
:104F30000A47F0A3F0900A47E0FEA3E0FFC3954ABA
:104F4000EE9549506AEF25E0FFEE33AB46AA47A93C
:104F5000488F82F583122645FFD3900A46E09F9042
:104F60000A45E095F05038900A48E025E0FF900AA5
:104F700047E0338F82F583122645FDACF0900A4955
:104F8000E475F00112262FFEE5F025E0FFEE33ABCD
:104F90004BAA4CA94D8F82F583EC8DF012269C9084
:104FA0000A48E004F0708E900A47E004F080869092
:104FB0000A49E0FFA3E0AB4EAA4FA950CF8FF00201
:104FC000267D753903753AFFE4F53B8E308F318CC1
:104FD000328D338A348B359007D574FFF0E4A3F01B
:104FE000755801128B668E3C8F3D9008CDE0FF1204
:104FF000888F756A00756B00756C4485306D8531DE
:105000006E85326F8533708536718537727B007A95
:10501000007942127E3F853446853547E4F54FF5E9
:105020004EF54DF54CF553F552F551F550F559F552
:1050300040F541854248854349D3E5499545E548D2
:105040009544400302510CE549AE48A83B08800551
:10505000C333CE33CED8F9FDAC06AB3AAA39AF385C
:10506000128789128313127415E55914601714609E
:105070002424027032C3EF9541EE95404002802314
:10508000755901801ED3EF9541EE95405002800383
:10509000755902800EC3EF9541EE954040028003A2
:1050A0007559038E408F41C3E53D9FFFE53C9EFE51
:1050B000E48F578E56F555F554AE48AF49FCFDAB1D
:1050C00057AA56A955A8541226C9E54F2FF54FE502
:1050D0004E3EF54EE54D3DF54DE54C3CF54CE5536A
:1050E0002557F553E5523556F552E5513555F551ED
:1050F000E5503554F550900757E030E70FE5472568
:1051000049F549E5463548F548025039E4FFFEFDCA
:10511000FCAB53AA52A951A850C312280A6013A885
:1051200050AF4FAE4EAD4DAC4C1227548E4A8F4B04
:1051300080169007D1E0753E00F53F753E0085383A
:105140003FA3E004F0E4F558E558B4011CE54BAE8C
:105150004AA83B088005C333CE33CED8F9FDAC0650
:10516000AB3AAA39AF38128789E5414540600CE572
:105170005964036006753E0085593FE558B4010740
:10518000E49007D5F080069007D57401F09007D61B
:105190007464F0AE4AAF4B229007D574FFF0E4A3DD
:1051A000F09008CDE0FF12888F7B1C7D1C7F4012A1
:1051B0007A857B3F7D107F60127A857BC07D807F02
:1051C00067127A857B3F7D207F6E127A857B1C7DFE
:1051D000107FC1127A857BFF7D077FC2127A857BA3
:1051E000FFE4FD7FC3127A857BFFE4FD7FC4127A62
:1051F000857BFFE4FD7FC5127A857B07E4FD7FC6D2
:10520000127A857B077D027F66127A857534087570
:105210003500E53524C0F537E53434FFF536E5359E
:105220002440F539E43534F538E4F53EF53AF53BFC
:10523000F53CF53DF53F7B3FAD3F7F68127A8575C4
:105240004700754800754930AC38126873753200F4
:10525000853F33C3E52F9531FFE52E9530FED3EF23
:10526000953BEE953A4018853F3E8E3A8F3BE52FB1
:105270002531FFE52E3530C313F53CEF13F53D0521
:105280003FE53FC3942040AE9007D67432F07B3F99
:10529000AD3E7F68127A85E53DFD7BFF7FF5127A92
:1052A00085E53CFD7B037FF6127A859007D7E53EC6
:1052B000F0E53DA3F0E53CA3F0753200853E337B7D
:1052C000077D047F66127A8575340412684FE52FD6
:1052D0002531FFE52E3530C313F53CEF13F53DFDC9
:1052E0007BFF7FF7127A85E53CFD7B037FF8127A1E
:1052F00085E53D9007DAF0E53CA3F07B077D017F73
:1053000066127A8575340C12684FE52F2531FFE55A
:105310002E3530C313F53CEF13F53DFD7BFF7FF3D6
:10532000127A85E53CFD7B037FF4127A85E53D909A
:1053300007DCF0E53CA3F07B3F7D3F7F60127A8580
:10534000E49007D5F0A37464F02275350FE4F536C8
:105350008F308D318B329007D574FFF0E4A3F012BB
:105360008B668E3D8F3E753801E4F53C9008CDE0AC
:10537000FF12888F756A00756B00756C3A85306D09
:1053800085316E85336F7B007A007939127F4785CE
:10539000323BE4F546F545F544F543F54AF549F564
:1053A00048F547F54FF541F542853937E537D3954F
:1053B0003A400302546DAF36E537A807088002C3B0
:1053C00033D8FCFDAB35AF34127A851283131274D7
:1053D00015E54F14601714602424027032C3EF9552
:1053E00042EE954140028023754F01801ED3EF9518
:1053F00042EE954150028003754F02800EC3EF9537
:1054000042EE954140028003754F038E418F42C3A7
:10541000E53E9FFFE53D9EFEE48F4E8E4DF54CF53B
:105420004BAF37FCFDFEAB4EAA4DA94CA84B122644
:10543000C9E5462FF546E5453EF545E5443DF544CD
:10544000E5433CF543E54A254EF54AE549354DF53A
:1054500049E548354CF548E547354BF54790075742
:10546000E030E709E53B2537F5370253ACE4FFFEB2
:10547000FDFCAB4AAA49A948A847C312280A6011F3
:10548000A847AF46AE45AD44AC431227548F3C808D
:10549000169007D1E0753F00F540753F0085344018
:1054A000A3E004F0E4F538E538B40115AF36E53C87
:1054B000A807088002C333D8FCFDAB35AF34127A9D
:1054C00085E5424541600CE54F64036006753F0089
:1054D000854F40E538B40107E49007D5F080069089
:1054E00007D57401F09007D67464F0AF3C229007A2
:1054F000577480F0E4A3F0A37402F0A304F0E4A3D3
:10550000F0A3F0A3F0A3F0A3F0A37410F0A3F0A312
:105510007404F0A37428F0A3F0A37402F0A314F0B1
:10552000A3E4F0A3743FF0A3E4F0A3743FF0A374EA
:1055300004F0A37410F0A3F0A37401F0A37410F0AE
:10554000A3F0A37401F0A3F0A3E4F0A37410F0A3FC
:10555000E4F0A37420F0A37401F0A37406F0A3F0A8
:10556000A37401F0A37406F0A3F0A37401F0A37474
:1055700006F0A3F0A37401F0A37428F0A37418F04C
:10558000A37402F0E4A3F0A3F0A374FAF0A3E4F090
:10559000A37464F0A37405F0A37401F0A3E4F0A372
:1055A0007496F0A3E4F0A37464F0A37405F0A374FC
:1055B00028F0A37404F0A37401F0A3E4F0A374C86A
:1055C000F0A3E4F0A37404F0A37401F0E4A3F0A347
:1055D000F0A37450F0A3E4F0A37404F0A37401F0FA
:1055E000A37450F0A37406F0A37401F0A37450F0F8
:1055F000A37406F0A37401F0E4A3F0A3F0A3745025
:10560000F0A3E4F0A37406F0A37401F0E4A3F0A304
:10561000F0A37450F0A3E4F0A37406F0A37401F0B7
:10562000E4A3F0A3F0A37450F0A3E4F0A37406F095
:10563000A37401F0E4A3F0A37408F0A37406F0A32C
:105640007401F0A37408F0A37406F0A37401F0A32E
:105650007450F0A37406F0A37401F0E4A3F0A3F077
:10566000A3F0A3F0A3F0A3F0A3F0A3F0A3F0A3F0A2
:10567000A3F0A3F0A3F0A3F0A3F0A3F0A3F0A3F092
:10568000A3F0A3F0A3F0A374FFF0E4A3F0226080E2
:1056900004D700000000000000000000000000002F
:1056A00000000000000000000000000000000000FA
:1056B00000000000000000000000000000000000EA
:1056C00000000000000000000000000000000000DA
:1056D00000000000000000000000000000000000CA
:1056E00000000000000000000000000000000000BA
:1056F00000000000000000000000000000000000AA
:105700000000000000000000000000000000000099
:10571000000049083D534C424636345133326081D3
:10572000084C000000000000000000000000000025
:105730000000000000000000000000000000000069
:105740000000000000000000000000000000000059
:105750000000000000000000000000000000000049
:105760000000000000000000000000000000000039
:105770000000000000000000000000000000000029
:105780000000000000000000000000000000000019
:105790000000000000000000000000000000000009
:1057A00000000041084A0041083900410849004111
:1057B000083A00410846004108480041083B0041C2
:1057C00008CD2041094E40010E00420191000041E8
:1057D000019002410A7000410A6A00410A6E0041CC
:1057E0000A7300410A6B00410A6500410A680041E2
:1057F0000A6C00410A6F00410A6700410A690042D1
:105800000A710000410A6D00410A6601410A7500F3
:10581000410A740000EEF0A3EFF0E4FCFD900A41B1
:10582000122869900A4512287500000000900A4964
:1058300012287540000000900A41E0FCA3E0FDA39F
:10584000E0FEA3E0FF900A49E0F8A3E0F9A3E0FA44
:10585000A3E0FBD31227F4401B900A49E0FCA3E02D
:10586000FDA3E0FEA3E0FF780212281B900A491274
:10587000286980C3900A49E0FCA3E0FDA3E0FEA3F1
:10588000E0FFEC4D4E4F700302598B900A45E0F853
:10589000A3E0F9A3E0FAA3E02FFFEA3EFEE93DFD15
:1058A000E83CFC900A41E0F8A3E0F9A3E0FAA3E0A9
:1058B000FBC31227F45003025956900A41E0FCA39F
:1058C000E0FDA3E0FEA3E0FFC004C005C006C007E2
:1058D000900A49E0FCA3E0FDA3E0FEA3E0FF900AEC
:1058E00045E0F8A3E0F9A3E0FAA3E02FFBEA3EFAD3
:1058F000E93DF9E83CF8D007D006D005D004C3EF65
:105900009BFFEE9AFEED99FDEC98FC900A4112285F
:1059100069900A45E0F8A3E0F9A3E0FAA3E0FBC030
:1059200000C001C002C003E47F02FEFDFCA3E0F85A
:10593000A3E0F9A3E0FAA3E0FB1226C9D003D0024A
:10594000D001D000EB2FFFEA3EFEE93DFDE83CFC34
:10595000900A45122869900A45E0FCA3E0FDA3E007
:10596000FEA3E0FF780112281B900A4512286990D7
:105970000A49E0FCA3E0FDA3E0FEA3E0FF780212E9
:10598000281B900A49122869025874900A45E0FCC5
:10599000A3E0FDA3E0FEA3E0FF22EF24FDB40C0092
:1059A0004003025AD49059B375F003A4C58325F07F
:1059B000C583730259D70259EE0259F9025A0F02F0
:1059C0005A1E025AD4025A39025A54025A6E025AC4
:1059D00088025AA2025ABC900003E0FF900A70E0CD
:1059E000F4FEEF5E900003F0900A72025A82E49097
:1059F0000004F0900A72025A9C900005E0FF900AA1
:105A00006EE0F4FEEF5E900005F0900A718008E40D
:105A1000900006F0900A72E054FBF0025AD4900015
:105A200007E0FF900A6BE0F4FEEF5E900007F09055
:105A30000A72E054F7F0025AD4900009E0FF900A8D
:105A400065E0F4FEEF5E900009F0900A72E054EF1A
:105A5000F0025AD490000AE0FF900A68E0F4FEEFEA
:105A60005E90000AF0900A72E054DFF080669000C9
:105A70000BE0FF900A6CE0F4FEEF5E90000BF090FC
:105A80000A71E054FEF0804C90000CE0FF900A6F29
:105A9000E0F4FEEF5E90000CF0900A71E054FDF02F
:105AA000803290000DE0FF900A67E0F4FEEF5E9018
:105AB000000DF0900A72E054BFF0801890000EE0E4
:105AC000FF900A69E0F4FEEF5E90000EF0900A721B
:105AD000E0547FF0900A71E07002A3E0700990003A
:105AE00002E04402F0D28222E49009FAF074FFA3AB
:105AF000F0A3F0A3F0A3F0E49009FAF09009FFF00E
:105B0000A3741EF0C3900A00E0945A9009FFE09439
:105B1000004003025BBAE0FCA3E0FDECFF900A0347
:105B2000E4F0A3EFF0E0FEC3ED9400FFEC9E900ADA
:105B300001F0A3EFF0FD7FE212851E900A03A3E0BF
:105B4000FD7B037FE3127A85E4900A09F0A3F090CD
:105B50000A0AE004F07006900A09E004F0900A09CD
:105B6000E07004A3E0646470E67F0812858A7E001A
:105B7000900A05EEF0A3EFF06480602D9009FAE042
:105B8000C3940150159009FFE0FFA3E09009FBCFFB
:105B9000F0A3EFF09009FA7401F09009FFE0FFA381
:105BA000E09009FDCFF0A3EFF0900A00E02404F0AC
:105BB0009009FFE03400F0025B049009FDE0FEA3D1
:105BC000E0FFC3EE648094805009E4900A07F0A3DC
:105BD000F080509009FCE02FFF9009FBE03EFE7C36
:105BE000007D021225F9900A07EEF0A3EFF0900A6B
:105BF00007E0FCA3E0FDECFF900A03E4F0A3EFF064
:105C0000E0FEC3ED9400FFEC9E900A01F0A3EFF0DC
:105C1000FD7FE212851E900A03A3E0FD7B037FE374
:105C2000127A85900A07E0FEA3E0FF22E4FF1276D5
:105C3000C67D047FB8128994900457EFF07D117FE0
:105C4000B8128994900458EFF07D227FB81289949D
:105C5000900459EFF07D267FB812899490045AEF92
:105C6000F07D277FB812899490045BEFF07D287F48
:105C7000B812899490045CEFF07D297FB812899462
:105C800090045DEFF07D2A7FB812899490045EEF56
:105C9000F07D2B7FB812899490045FEFF07D2C7F0C
:105CA000B8128994900460EFF07D2D7FB81289942A
:105CB000900461EFF07D2E7FB8128994900462EF1A
:105CC000F07D2F7FB8128994900463EFF07D307FD0
:105CD000B8128994900464EFF07D317FB8128994F2
:105CE000900465EFF07D327FB8128994900466EFDE
:105CF000F07D337FB8128994900467EFF07D347F94
:105D0000B8128994900468EFF07D357FB8128994B9
:105D1000900469EFF07D367FB812899490046AEFA1
:105D2000F07D377FB812899490046BEFF07D387F57
:105D3000B812899490046CEFF07D397FB812899481
:105D400090046DEFF07D517FB812899490046EEF4E
:105D5000F07D537FB812899490046FEFF07D5B7FE4
:105D6000B8128994900470EFF0228F368D378B38FB
:105D70009007D574FFF0E4A3F0753E01F53D128B5A
:105D8000668E418F429008CDE0FF12888FE4F5487F
:105D9000F547F546F545F54CF54BF54AF549853699
:105DA0003CE53CD395375077AF3BE53CA8070880EE
:105DB00002C333D8FCFDAB3AAF39127A8512831394
:105DC0001274158E3F8F40C3E5429540FFE5419523
:105DD0003FFEE48F508E4FF54EF54DAF3CFCFDFE7F
:105DE000AB50AA4FA94EA84D1226C9E5482FF54839
:105DF000E5473EF547E5463DF546E5453CF545E5D5
:105E00004C2550F54CE54B354FF54BE54A354EF5F5
:105E10004AE549354DF549E538253CF53C8082E4B5
:105E2000FFFEFDFCAB4CAA4BA94AA849C312280AA5
:105E30006011A849AF48AE47AD46AC451227548F14
:105E40003D8003E4F53EE53DD3941F400674E12513
:105E50003DF53DE53EB4011DAF3BE53DA80708809B
:105E600002C333D8FCFDAB3AAF39127A859007C034
:105E7000E53DF0800D9007D1E0754300F544A3E0C7
:105E800004F0E53EB40107E49007D5F080069007E2
:105E9000D57401F09007D67464F0AF3D227B017A8F
:105EA00003798FE0FCA3E0FD8B468A4789488C4943
:105EB0008D4AE4F54EF54DF54CF54BF552F551F59F
:105EC00050F54FE54A45497005FFFEFDFC22E4F51B
:105ED0005BF55CC3E55C954AE55B95495066E55C1E
:105EE00025E0FFE55B33AB46AA47A9488F82F583DF
:105EF000122645FFAEF0E48F568E55F554F553E566
:105F00004E2556F54EE54D3555F54DE54C3554F5D8
:105F10004CE54B3553F54BAD54AC53A804A905AA39
:105F200006AB071226C9E5522FF552E5513EF55151
:105F3000E5503DF550E54F3CF54F055CE55C709351
:105F4000055B808FE4854A5A854959F558F557AF66
:105F50004EAE4DAD4CAC4BA804A905AA06AB07123A
:105F600026C9C004C005C006C007AF52AE51AD502F
:105F7000AC4FAB5AAA59A958A8571226C9D003D07A
:105F800002D001D000C3EF9BFFEE9AFEED99FDEC2D
:105F900098FCC004C005C006C007AF5AAE59AD5842
:105FA000AC57AB5AAA59A958A8571226C9A804A990
:105FB00005AA06AB07D007D006D005D004127DFB9A
:105FC00022E4FF128C2B7BAA7D027F161286DE7FD5
:105FD0003F128C2B7BE57D167F161286DE7B2F7D94
:105FE000197F161286DE7F1F128C2B7B3F7D457F2B
:105FF000161286DEE4FB7DC07F161286DE7F647E8D
:106000000012862CE4FF128C2B7B017DF77F161289
:1060100086DE7F1F128C2B7BF07D107F161286DEB2
:106020007B187DCE7F161286DE7B027DD27F161214
:1060300086DE7B287D427F161286DE7F20128C2B27
:106040009005C7E0FB7D417F161286DE7F21128C12
:106050002B9005C8E0FB7D417F161286DE7F221261
:106060008C2B9005C9E0FB7D417F161286DE7F23D5
:10607000128C2B9005CAE0FB7D417F161286DE7FD5
:106080001F128C2B7B2D7DEF7F161286DE7B077D0A
:10609000EE7F161286DE7F3F128C2B7B117D0F7FE9
:1060A000161286DE7B117D107F161286DE7B117D37
:1060B000117F161286DE7B087D1B7F161286DE7B23
:1060C000087D1C7F161286DE7B087D1D7F161286DA
:1060D000DE7F1F128C2B7B027D637F160286DEE43F
:1060E000FF128C347BAA7D027F181286DE7F3F125E
:1060F0008C347BE57D167F181286DE7B2F7D197F21
:10610000181286DE7F1F128C347B3F7D457F18126C
:1061100086DEE4FB7DC07F181286DE7F647E00127F
:10612000862CE4FF128C347B017DF77F181286DE0B
:106130007F1F128C347BF07D107F181286DE7B1857
:106140007DCE7F181286DE7B027DD27F181286DE1E
:106150007B287D427F181286DE7F20128C349006C9
:10616000C7E0FB7D417F181286DE7F21128C3490C0
:1061700006C8E0FB7D417F181286DE7F22128C3438
:106180009006C9E0FB7D417F181286DE7F23128CCA
:10619000349006CAE0FB7D417F181286DE7F1F1215
:1061A0008C347B2D7DEF7F181286DE7B077DEE7FA2
:1061B000181286DE7F3F128C347B117D0F7F181200
:1061C00086DE7B117D107F181286DE7B117D117FAC
:1061D000181286DE7B087D1B7F181286DE7B087D09
:1061E0001C7F181286DE7B087D1D7F181286DE7FDD
:1061F0001F128C347B027D637F180286DE900117AC
:10620000E0FEA3E0FDEE540F24A7F582E43402F58E
:1062100083E0444090060AF0A3F0A3F0EE54F0C4EB
:10622000540F24A7F582E43402F583E0444090053E
:10623000F5F0A3F0A3F0ED540F24A7F582E43402A7
:10624000F583E044409005E0F0A3F0A3F0ED54F0B6
:10625000FEC4540FFC24A7F582E43402F583E04425
:10626000409005BBF0A3F0A3F0EF6401600302636C
:10627000157F43128C2B90060AE0FB7D097F1612D6
:1062800086DE90060BE0FB7D0A7F161286DE900606
:106290000CE0FB7D0B7F161286DE7F42128C2B906A
:1062A00005F5E0FB7D097F161286DE9005F6E0FB22
:1062B0007D0A7F161286DE9005F7E0FB7D0B7F16C8
:1062C0001286DE7F41128C2B9005E0E0FB7D097F7A
:1062D000161286DE9005E1E0FB7D0A7F161286DE4F
:1062E0009005E2E0FB7D0B7F161286DE7F40128C6C
:1062F0002B9005BBE0FB7D097F161286DE9005BC66
:10630000E0FB7D0A7F161286DE9005BDE0FB7D0B6B
:106310007F161286DE22900119E0FEA3E0FDEE5406
:106320000F2497F582E43402F583E0444090060D93
:10633000F0A3F0A3F0EE54F0C4540F2497F582E4D8
:106340003402F583E044409005F8F0A3F0A3F0EDAB
:10635000540F2497F582E43402F583E0444090051D
:10636000E3F0A3F0A3F0ED54F0FEC4540FFC249727
:10637000F582E43402F583E044409005BEF0A3F0DA
:10638000A3F0EF6401600302642E7F43128C2B9014
:10639000060DE0FB7D0C7F161286DE90060EE0FBFC
:1063A0007D0D7F161286DE90060FE0FB7D0E7F16B8
:1063B0001286DE7F42128C2B9005F8E0FB7D0C7F6D
:1063C000161286DE9005F9E0FB7D0D7F161286DE43
:1063D0009005FAE0FB7D0E7F161286DE7F41128C5F
:1063E0002B9005E3E0FB7D0C7F161286DE9005E422
:1063F000E0FB7D0D7F161286DE9005E5E0FB7D0E4D
:106400007F161286DE7F40128C2B9005BEE0FB7D4E
:106410000C7F161286DE9005BFE0FB7D0D7F161205
:1064200086DE9005C0E0FB7D0E7F161286DE229090
:10643000011BE0FEA3E0FDEE540F2480F582E4345E
:1064400001F583E04440900601F0A3F0A3F0EE5480
:10645000F0C4540F2480F582E43401F583E0444015
:106460009005ECF0A3F0A3F0ED540F2480F582E446
:106470003401F583E044409005D7F0A3F0A3F0ED9C
:1064800054F0FEC4540FFC2480F582E43401F583FB
:10649000E044409005B2F0A3F0A3F0EF6401600384
:1064A0000265477F43128C2B900601E0FBE4FD7FE1
:1064B000161286DE900602E0FB7D017F161286DE54
:1064C000900603E0FB7D027F161286DE7F42128C6F
:1064D0002B9005ECE0FBE4FD7F161286DE9005EDC7
:1064E000E0FB7D017F161286DE9005EEE0FB7D026B
:1064F0007F161286DE7F41128C2B9005D7E0FBE4DD
:10650000FD7F161286DE9005D8E0FB7D017F161216
:1065100086DE9005D9E0FB7D027F161286DE7F4085
:10652000128C2B9005B2E0FBE4FD7F161286DE9004
:1065300005B3E0FB7D017F161286DE9005B4E0FB1B
:106540007D027F161286DE22E49007D1F09007E1EB
:106550007455F0E4FF127AD69007D1E004F090076A
:1065600084E0FF1287A49007D1E004F01277AD9089
:1065700007D1E004F07F011285429007E17401F039
:106580001242A29007D5E0600302665F9007D1E057
:1065900004F09007E17402F01277409007D1E00414
:1065A000F09007CBE0F52CA3E0F52D900775E0FE09
:1065B000A3E0FDAC06A3E0FB7A00AF2DAE2C128960
:1065C000AA9007D1E004F09007C1E0FF900770E0C7
:1065D000FDA3E0FB1289BF9007D1E004F090077E95
:1065E000E0FFA3E0FDA3E0FB9007E17403F0128A53
:1065F000139007D1E004F09007E17404F0E4FF1277
:1066000085429007D1E004F09007E17405F0123F55
:10661000119007D5E070489007D1E004F09007E1B1
:106620007406F01237E99007D5E070339007D1E097
:1066300004F09007E17407F012717B9007D1E00439
:10664000F09007E17408F0126B059007D1E004F0B8
:106650009007E17409F01251989007D1E004F022FC
:106660007F011276C67D847FB8128994900491EFE1
:10667000F07D857FB8128994900492EFF07D867F3B
:10668000B8128994900493EFF07D877FB8128994B3
:10669000900494EFF07D887FB8128994900495EF70
:1066A000F07D4C7FB8128994900496EFF07D4D7F79
:1066B000B8128994900497EFF07D4E7FB8128994B8
:1066C000900498EFF07D4F7FB8128994900499EF71
:1066D000F07D507FB812899490049AEFF07D517F3D
:1066E000B812899490049BEFF07D527FB812899480
:1066F00090049CEFF07D537FB812899490049DEF35
:10670000F07DAE7FB812899490049EEFF07DAF7F4C
:10671000B812899490049FEFF07DB07FB8128994ED
:106720009004A0EFF07DB17FB81289949004A1EF9E
:10673000F07DB27FB81289949004A2EFF07DB37F10
:10674000B81289949004A3EFF07DB47FB8128994B5
:106750009004A4EFF07DB57FB81289949004A5EF62
:10676000F022EF24FD60461460791470030268196A
:106770002403600302684E7F021276C67D067FB84E
:106780001289949004A6EFF07D077FB81289949047
:1067900004A7EFF07D087FB81289949004A8EFF069
:1067A0007D097FB81289949004A9EFF0227F03122B
:1067B00076C67D067FB81289949004AAEFF07D0713
:1067C0007FB81289949004ABEFF07D087FB81289EE
:1067D000949004ACEFF07D097FB81289949004ADD9
:1067E000EFF0227F041276C67D067FB8128994905E
:1067F00004AEEFF07D077FB81289949004AFEFF0FC
:106800007D087FB81289949004B0EFF07D097FB8BD
:106810001289949004B1EFF0227F051276C67D06AE
:106820007FB81289949004B2EFF07D077FB8128987
:10683000949004B3EFF07D087FB81289949004B46B
:10684000EFF07D097FB81289949004B5EFF02275BE
:106850003500E53524C0F537E53434FFF536E53548
:106860002440F539E43534F538754700754800752E
:106870004930FC7B007A00792EAD39AF37AE368EC9
:10688000408F418C428D438B448A458946E4F54EC6
:10689000F54FF550F5519008CDE0FF12888FE4F5E3
:1068A0004AE541FD7BFF7FC4127A85E540FD7BFF11
:1068B0007FC5127A851282E57FC812858A8F4B7F49
:1068C000C912858AEFFEE54B254FF54FEE354EF5A3
:1068D0004EE543FD7BFF7FC4127A85E542FD7BFFD9
:1068E0007FC5127A851282E57FC812858A8F4C7F18
:1068F000C912858A8F4DE54DFEE54C2551F551EEC7
:106900003550F550054AE54AC3940A4094AE4EAF5F
:106910004F7C007D0A1225A4AB44AA45A946EE8F00
:10692000F012267DAE50AF517C007D0A1225A4AB3B
:1069300047AA48A949EE8FF002267DE4F523F52405
:10694000F525F526F52AF529F528F527F52B1282E8
:106950001043C18012871812836C1284D412792DCF
:10696000127A34128398128C7612860D1283407F2D
:1069700039128B769001DCE0700612807E12807EE8
:10698000128A4E9001DCE07038126D8FD3E52494AA
:1069900058E52394024020AF261200030526E52681
:1069A00070020525C39406E52594004005E4F5250D
:1069B000F526E4F523F5240524E524704705238016
:1069C000439001DEE0B40136D3E5249458E52394E6
:1069D00002402312737AAF261278710526E52670DD
:1069E000020525C39404E52594004005E4F525F54A
:1069F00026E4F523F5240524E52470020523127C02
:106A0000A212753690083BE0FFB40108128566E4D7
:106A100090083BF090017FE0B4AA0375EF12128A50
:106A20004E126BE00269838F3A8A3D8B3EAF059030
:106A30000A00EFF0FB900A0712287500000000AD75
:106A4000037B3F7F68127A85E4900A01F0900A0187
:106A5000E0C3953EE4953D4003026AE67D0C7FC1AC
:106A600012851E7D0F7FC112851E7D0C7FC1128590
:106A70001E7FC812858A900A02EFF07FC912858AAC
:106A8000EF541FFE900A02E07C002400FFEC3EFE63
:106A9000A3F0A3EFF0900A01E0FD25E024C7F58202
:106AA000E43402F583EEF0A3EFF0900A07E0F8A3D8
:106AB000E0F9A3E0FAA3E0FBED25E024C7F582E4CA
:106AC0003402F583E0FEA3E0FFE4FDEB2FFFEA3E96
:106AD000FEED39FDEC38FC900A07122869900A0196
:106AE000E004F0026A4D7B017A0279C7AD3A1229BF
:106AF00092900A05EEF0A3EFF0AB3FAA40A941EE59
:106B00008FF002267DE4F52EF52FF5309007D57431
:106B1000FFF0E4A3F09008CDE0FF12888F7B1C7D8E
:106B20001C7F40127A857B3F7D207F60127A857BB7
:106B300007E4FD7F66127A857BC0E4FD7F67127AE9
:106B4000857BFF7D207F6E127A857BFF7D0C7FC168
:106B5000127A857BFFE4FD7FC2127A857BFFE4FD1C
:106B60007FC3127A857BFFE4FD7FC4127A857BFFA9
:106B7000E4FD7FC5127A857BFF7D077FC6127A858B
:106B8000E4F5317B0FAD317F63127A851282E57FA8
:106B9000C87E00128735753200853133C3EF9530DA
:106BA000EE952F40078E2F8F3085312E0531E53140
:106BB000C3940D40CEE52EC3940C5002052E7B0FDE
:106BC000AD2E7F63127A85753200852E337B3F7D33
:106BD0003F7F60127A85E49007D5F0A37464F022B9
:106BE000900846E064016003026CB890083CE02421
:106BF000FE602214602A14603214603924FE607230
:106C000024066003026CB390084DE090007FF01200
:106C10004B75026CB390084DE0900056F0026CB3D7
:106C200090084DE090005DF0026CB390084DE0904C
:106C30000062F0807EE4FFFE90084BE0FDC3EF9D14
:106C4000EE94005028744D2FF58274083EF583E0D1
:106C5000FD90084AE02FFBE43EFA74002BF58274A5
:106C6000003AF583EDF00FBF00010E80CB1279875B
:106C7000804190084BE0FF90084AE0FD2FFFE4338D
:106C8000FED3EF9400EE648094814005EDF404A3FC
:106C9000F090084BE0FF7E0090084AE02400F9E401
:106CA0003400A801FC7D017B017A08794D12254151
:106CB000122F1EE4900846F022EF24FD603F14607E
:106CC0006A147003026D5924036003026D8E7F0203
:106CD0001276C69004A6E0FB7D067FB81286FB9074
:106CE00004A7E0FB7D077FB81286FB9004A8E0FBB9
:106CF0007D087FB81286FB9004A9026D857F031280
:106D000076C69004AAE0FB7D067FB81286FB90044D
:106D1000ABE0FB7D077FB81286FB9004ACE0FB7D07
:106D2000087FB81286FB9004AD805A7F041276C6A5
:106D30009004AEE0FB7D067FB81286FB9004AFE0C6
:106D4000FB7D077FB81286FB9004B0E0FB7D087FD7
:106D5000B81286FB9004B1802C7F051276C6900491
:106D6000B2E0FB7D067FB81286FB9004B3E0FB7DAA
:106D7000077FB81286FB9004B4E0FB7D087FB81251
:106D800086FB9004B5E0FB7D097FB81286FB22905C
:106D9000010BE0D394005003026E6453C17FE4FF03
:106DA0001285EE1283C390010BE030E02290075968
:106DB0007401F09008CD7423F090094E7443F07D77
:106DC0003A7F101248D290081BA3E0900171F09016
:106DD000010BE030E1229007597401F09008CD7466
:106DE00022F090094E7442F07D3A7F101248D29002
:106DF000081BA3E0900172F090010BE030E22290BA
:106E000007597401F09008CD7421F090094E744137
:106E1000F07D3A7F101248D290081BA3E0900173D6
:106E2000F090010BE030E3229007597401F09008D4
:106E3000CD7420F090094E7440F07D3A7F101248D6
:106E4000D290081BA3E0900174F012807E12807E25
:106E5000750E01E490010BF090083BF07F01128564
:106E6000EE43C18022E4FF1276C67D027FB812890C
:106E70009490047FEFF07D067FB81289949004808F
:106E8000EFF07D097FB8128994900481EFF07D0ABC
:106E90007FB8128994900482EFF07D0F7FB8128939
:106EA00094900483EFF07D107FB81289949004844D
:106EB000EFF07D187FB8128994900485EFF07D1A69
:106EC0007FB8128994900486EFF07D207FB81289F4
:106ED00094900487EFF07D217FB812899490048804
:106EE000EFF07D557FB812899490048AEFF07D57BA
:106EF0007FB812899490048BEFF07D597FB8128986
:106F00009490048CEFF07D727FB812899490048D78
:106F1000EFF07DBD7FB812899490048EEFF07DBEB6
:106F20007FB812899490048FEFF07DD17FB81289D9
:106F300094900490EFF022E4FF1276C690047FE074
:106F4000FB7D027FB81286FB900480E0FB7D067F0C
:106F5000B81286FB900481E0FB7D097FB81286FBA6
:106F6000900482E0FB7D0A7FB81286FB900483E0E8
:106F7000FB7D0F7FB81286FB900484E0FB7D107FC1
:106F8000B81286FB900485E0FB7D187FB81286FB63
:106F9000900486E0FB7D1A7FB81286FB900487E0A0
:106FA000FB7D207FB81286FB900488E0FB7D217F6B
:106FB000B81286FB90048AE0FB7D557FB81286FBF1
:106FC00090048BE0FB7D577FB81286FB90048CE029
:106FD000FB7D597FB81286FB90048DE0FB7D727FAC
:106FE000B81286FB90048EE0FB7DBD7FB81286FB55
:106FF00090048FE0FB7DBE7FB80286FB7F01127696
:10700000C6900491E0FB7D847FB81286FB900492C9
:10701000E0FB7D857FB81286FB900493E0FB7D86C4
:107020007FB81286FB900494E0FB7D877FB81286C0
:10703000FB900495E0FB7D887FB81286FB90049E50
:10704000E0FBA3E0F52F7DAE7FB81284F99004A099
:10705000E0FBA3E0F52F7DB07FB81284F99004A285
:10706000E0FBA3E0F52F7DB27FB81284F99004A471
:10707000E0FBA3E0F52F7DB47FB81284F99004966D
:10708000E0FBA3E0F52F7D4C7FB81284F9900498C3
:10709000E0FBA3E0F52F7D4E7FB81284F990049AAF
:1070A000E0FBA3E0F52F7D507FB81284F990049C9B
:1070B000E0FBA3E0F52F7D527FB80284F98F2E8B81
:1070C00030E49009FCF0A3F0AB37AA38A93975F089
:1070D0001F12267DAB34AA35A9361228A60000005F
:1070E00000AF059009FEE4F0A3EFF09009FEE0FC8C
:1070F000A3E0FDC39530EC9400507F753F017540CF
:10710000097541FAAB33AA32AF2E126A279009FCF7
:10711000E0FEA3E0FF9009FAE0FCA3E0FDD39FECC2
:107120009E4017A3ECF0A3EDF0A3E0FFA3E0AB3784
:10713000AA38A939CF8FF012267DAB34AA35A936EB
:10714000C003C002C0011228499009FAE0FEA3E082
:10715000FFE4FCFDEB2FFFEA3EFEED39FDEC38FCD1
:10716000D001D002D00312282F9009FFE02531F082
:107170009009FEE03400F00270EB22127740900795
:10718000CBE0F52EA3E0F52F9007B3E0FEA3E0FFE0
:10719000A3E0FB7A00AD07AC06AF2FAE2E1289AA92
:1071A0009007C1E0FF9007A2E0FEA3E0FCAD06FB64
:1071B0001289BF9007B7E0FFA3E0FEA3E0FCAD0695
:1071C000FB1289FE9007BAE0FFA3E0FEA3E0FCAD4E
:1071D00006FB128BA69007C5E0FF9007BEE0FEA35A
:1071E000E0AD06FB128A139007C9E0F52EA3E0F587
:1071F0002F9007A7E0FEA3E0FFA3E07A00FBAD0716
:10720000AC06AF2FAE2E1289D49007C7E0F52EA39F
:10721000E0F52F9007ADE0FEA3E0FFA3E07A00FBCE
:10722000AD07AC06AF2FAE2E1289E9227F0212768F
:10723000C6900521E0540FC454F04407FB7D047F41
:10724000B81286FB900520E054F0FF9004A6E04FB2
:10725000FB7D067FB81286FB7F031276C690052D54
:10726000E0540FC454F04407FB7D047FB81286FB42
:1072700090052CE054F0FF9004AAE04FFB7D067FC0
:10728000B81286FB7F041276C6900539E0540FC40D
:1072900054F04407FB7D047FB81286FB900538E06C
:1072A00054F0FF9004AEE04FFB7D067FB81286FBE2
:1072B0007F051276C6900545E0540FC454F044078C
:1072C000FB7D047FB81286FB900544E054F0FF90EC
:1072D00004B2E04FFB7D067FB80286FB90010DE013
:1072E000FEA3E0FDEE540F24B7F582E43402F583EB
:1072F000E090069FF0EE54F0C4540F24B7F582E4FA
:107300003402F583E0900689F0ED540F24B7F5823E
:10731000E43402F583E0900673F0ED54F0FEC454BB
:107320000FFC24B7F582E43402F583E090065DF0AB
:10733000EF640170447F23128C3490069FE0FB7D44
:10734000147F181286DE7F22128C34900689E0FBAF
:107350007D147F181286DE7F21128C34900673E034
:10736000FB7D147F181286DE7F20128C3490065D20
:10737000E0FB7D147F181286DE227F10128751EF0A
:1073800025E0FFEE3390091FF0A3EFF07F11128785
:1073900051EF25E0FFEE3390091DF0A3EFF07F0DD4
:1073A000128751EF25E0FFEE33900919F0A3EFF0BB
:1073B0007F0F128751EF25E0FFEE3390091BF0A3FA
:1073C000EFF07F13128751900915EEF0A3EFF07FD5
:1073D0000C128751EF7802C333CE33CED8F9FF9029
:1073E0000917EEF0A3EFF0128417900921EEF0A335
:1073F000EFF0900921E0FCA3E0FDECFF900016EF18
:10740000F0A3EDF0900919E0FCA3E0FDEC90001A68
:10741000F0A3EDF022E4F56AF56B9008CDE0FF12E1
:10742000888F7FB012858A8F677FB412858A8F68B4
:107430007FB612858AE56730E408756A00756BFFD0
:107440008007E568756A00F56BE56730E60474FF50
:107450008001EF256BF56BE4356AF56A7FB512851F
:107460008A8F697FB712858AE56730E50474FF80EB
:1074700002E569256BF56BE4356AF56AE56730E787
:107480000474FF8001EF256BF56BE4356AF56A90B3
:10749000075DE56AF0A3E56BF0E49007D5F0A3740F
:1074A00064F0AE6AAF6B22128C80787FE4F6D8FD70
:1074B0007581720274F102693BE493A3F8E493A32B
:1074C0004003F68001F208DFF48029E493A3F85426
:1074D00007240CC8C333C4540F4420C8834004F4A9
:1074E00056800146F6DFE4800B01020408102040BC
:1074F0008090568EE47E019360BCA3FF543F30E53C
:1075000009541FFEE493A360010ECF54C025E06030
:10751000A840B8E493A3FAE493A3F8E493A3C8C5FE
:1075200082C8CAC583CAF0A3C8C582C8CAC583CAEF
:10753000DFE9DEE780BE9007E7E0B4AA0EE4F0538F
:10754000C17F126548128BD1128BB59007E8E0B469
:10755000AA28E4F09007E0E0FF900759F09007DEDA
:10756000E0FE9008CDF09007DFE0FD90094EF0902E
:1075700007E2EFF0A3EEF0A3EDF09007E6E0B4AA87
:107580001CE4F09007E0E0B4030612848A125FC1A5
:107590009007E0E0B401061284AF1260DF9007E6C6
:1075A000E0B4BB02E4F090080FE0B4AA16E4F09057
:1075B00007E0E0B4010312807E9007E0E0B403032B
:1075C000128042227B017A0479577531007532802E
:1075D0007F007ED4127C5A7B017A06795775310080
:1075E0007532807F007ED6127C5A7B017A0679D76D
:1075F0007531007532807F007ED8127C5A7B017A0B
:1076000009794F7531007532807F007EDA127C5A1D
:107610007B017A0579577531007532807F007EDCF9
:10762000127C5A7B017A0579D77531007532807FDB
:10763000007EDE127C5A7B017A01799375310075E8
:1076400032807F007ED0027C5A9008CDE0FF128805
:107650008FE4FD7FC012851E7D3C7F4012851EE4B5
:10766000FD7FC112851EE4FD7FC212851EE4FD7FF1
:10767000C312851EE4FD7FC412851EE4FD7FC51282
:10768000851EE4FD7FC612851E7DC07F6712851EA4
:107690007B3F7D1F7F60127A857B3F7D0F7F60126D
:1076A0007A857B3F7D077F60127A857B3F7D037FF4
:1076B00060127A857B3F7D017F60127A857B3FE493
:1076C000FD7F60027A85EFB4070050739076D3F89F
:1076D0002828730276E80276EC0276F90277060231
:1076E000771302772002772DE4FB80027B807DDE1A
:1076F0007FB81286FBE4FB803FE4FB7DDE7FB8129F
:1077000086FB7B018032E4FB7DDE7FB81286FB7B4B
:10771000028025E4FB7DDE7FB81286FB7B048018A7
:10772000E4FB7DDE7FB81286FB7B08800BE4FB7DEB
:10773000DE7FB81286FB7B107DDF7FB81286FB22CE
:10774000128B668E328F33E4F534F535F531F53032
:107750007B3FAD307FB3127A85128313127415D339
:10776000EF9535EE953440078E348F35853031EF07
:1077700065337003EE653260090530E530D3941F40
:1077800040CEE530D3941F4003853130E530241FCF
:10779000FD7539B3753A3FE4F53B7B01AF30125DBF
:1077A0006A8F31E49007D5F0A37464F02290094EFB
:1077B000E0FF12888F7B117D117F0F127A857B117C
:1077C0007D117F10127A857B117D117F11127A85D0
:1077D0007B087D087F1B127A857B0A7D0A7F1C123D
:1077E0007A857B087D087F1D127A859008CDE0FFA1
:1077F00012888F7B207D207F40127A857B017D015E
:107800007FB0127A85E49007D5F0A37464F022ABC0
:1078100005A907E4F530F52FF52EF52D85A72CF5F4
:10782000A7FAEAC39B503789BBE4FFFE0FBF0001F4
:107830000EEF640A4E70F5D2EC30EDFDAFBDAEBE7A
:10784000E4FCFDE5302FF530E52F3EF52FED352E2C
:10785000F52EEC352DF52DC2ECC2ED0A80C4E4FA0C
:10786000F9F8AF30AE2FAD2EAC2D127DFB852CA7D5
:1078700022EF14601C14602D14603E240370517FAD
:10788000031285CE9001BA127EC4AC06900022800D
:107890003A7F021285CEAC069001BE127EC6AC06BF
:1078A00090002480267F011285CEAC069001C21282
:1078B0007EC6AC069000268012E4FF1285CEAC0690
:1078C0009001C6127EC6AC06900028ECF0A3EFF043
:1078D000229008CDE0FF12888FE4FD7FC012851E44
:1078E0007D1C7F4012851E7D0C7FC112851EE4FD2C
:1078F0007FC212851EE4FD7FC312851EE4FD7FC496
:1079000012851EE4FD7FC512851EE4FD7FC612852B
:107910001E7D207F6012851EE4FD7F6612851E7D20
:10792000C07F6712851EE4FD7F6802851E1254EE3B
:107930007E007F807D007B017A0779D71228E6E4FC
:107940009007E7F09007E9F0A3F09007EC74FFF0E0
:10795000A37480F0A374FFF0A37480F0A3F0A3F0ED
:10796000A3F0A374FFF0A37480F0A3F0A3F0A3F03E
:107970009007E07401F09008CDE09007DEF09009E8
:107980004EE09007DFF022900213E0FF90007BE0D2
:10799000FE6F702B900214E0FF90007CE0B5071F93
:1079A000900215E0FF90007DE0B50713900216E00D
:1079B000FF90007EE0B5070790083A7401F022EED0
:1079C000B43A1890007CE0B41811A3E0B4B60CA34C
:1079D000E0B46F0790083A7402F022E490083AF09D
:1079E000229008CDE0FF12888FE4FD7FC012851E33
:1079F0007D1C7F4012851E7D8B7F4612851E7D0279
:107A00007F6312851E7D207F6E12851E7D3F7FEF76
:107A100012851E7D077FEE12851E7D807FFC1285FC
:107A20001E7D807FFE12851EE4FF12888F7D047FFD
:107A3000F802851EE4FB7DDE7FB81286FBE4FB7D49
:107A4000DF7FB81286FB7BFA7DD17FB81286FB7B85
:107A5000017D737FB81286FB7B407D727FB81286F2
:107A6000FB752C40E52C24C0FD7FFA12899474D755
:107A7000252CF582E43404F583EFF0052CE52CC3C6
:107A8000948040E0228F6C8D6D8B6E900759E0647E
:107A900001701DAD6C7F1812897E8F6FE56EF455F5
:107AA0006FFFE56D556E4FF570FBAD6C7F18802252
:107AB000900759E0B4031EAD6C7F1612897E8F6F5C
:107AC000E56EF4556FFFE56D556E4FF570FBAD6CCF
:107AD0007F161286DE22EF701E9008CDE0FF12881E
:107AE0008F7B01E4FD7FC0127A85E4FF12888F7BD3
:107AF000017D017FF7801CE4FF12888F7B01E4FD8C
:107B00007FF7127A859008CDE0FF12888F7B037D86
:107B1000037FC0127A857FD07E0712862CE49007FF
:107B2000D5F0A37464F022E4900191F0A3F0F52C59
:107B3000F52DAF2DAE2C1288F37E00900192E02F30
:107B4000F0900191E03EF0052DE52D7002052CC36B
:107B5000E52C94C840DC900191E0FFA3E090020B7B
:107B6000CFF0A3EFF07B017A017993753300753480
:107B7000807F007ED0027C12900197E0FDA3E0FBA5
:107B8000A3E0F5823395E0F53085823112827DAD38
:107B900007AC06ECFF3395E0900016EFF0AF05A3BD
:107BA000EFF0900016E0FBFF3395E0FEEF2428FF96
:107BB000E43EFE7C007D021225F9900A75EFF0D3B9
:107BC000EB648094C0227B017A0279B7753100752D
:107BD00032107F007ED2127C5A7B017A0279A7751F
:107BE00031007532107F107ED2127C5A7B017A01EF
:107BF00079807531007532107F207ED2127C5A7BDD
:107C0000017A0279977531007532107F407ED20279
:107C10007C5A8E2E8F2F8B308A318932E4F535F5E0
:107C2000367D5512003EE4F535F536C3E53695341C
:107C3000E53595335023E52F2536FFE52E3535FE06
:107C4000AB300532E532AA31700205311280BA0537
:107C500036E53670D6053580D2228E2C8F2D8B2EB0
:107C60008A2F8930E4F533F534F533F534C3E53440
:107C70009532E53395315029E52D2534FFE52C3536
:107C800033FE1288F3AB2E0530E530AA2F700205C3
:107C90002F14F9EF1225800534E53470D0053380B8
:107CA000CC22900028E0B4AA08E4F01279E112781E
:107CB000D1900028E0B4BB08E4F0A3E0FF128AEF03
:107CC000900028E0B4CC15E4F01280F590080DE0A7
:107CD00090002AF090080EE090002BF0900028E031
:107CE000B4DD05E4F0128004227F20128C2B7D414C
:107CF0007F1612897E9005C7EFF07F21128C2B7DB5
:107D0000417F1612897E9005C8EFF07F22128C2BDE
:107D10007D417F1612897E9005C9EFF07F23128C7A
:107D20002B7D417F1612897E9005CAEFF0227F20BD
:107D3000128C347D417F1812897E9006C7EFF07F48
:107D400021128C347D417F1812897E9006C8EFF095
:107D50007F22128C347D417F1812897E9006C9EFF4
:107D6000F07F23128C347D417F1812897E9006CAE1
:107D7000EFF0227F20128C2B9005C7E0FB7D417F26
:107D8000161286DE7F21128C2B9005C8E0FB7D4108
:107D90007F161286DE7F22128C2B9005C9E0FB7DB8
:107DA000417F161286DE7F23128C2B9005CAE0FBE2
:107DB0007D417F160286DE7F20128C349006C7E05C
:107DC000FB7D417F181286DE7F21128C349006C81D
:107DD000E0FB7D417F181286DE7F22128C349006F4
:107DE000C9E0FB7D417F181286DE7F23128C349020
:107DF00006CAE0FB7D417F180286DEC2D5E830E787
:107E00000FB2D5E4C39BFBE49AFAE499F9E498F83D
:107E1000EC30E717B2D5127E31122754E4C39BFB36
:107E2000E49AFAE499F9E498F8800312275430D5DB
:107E30000DE4C39FFFE49EFEE49DFDE49CFC22AFA5
:107E400070AE6FD3E56E9FE56D9E400BE56E9FFDB6
:107E5000E56D9E8DF08003E4F5F012267DE56E2F32
:107E6000FDE56D3EFCC3ED9572EC9571AB6AAA6BB6
:107E7000A96C5005EC8DF08005E5718572F0122635
:107E80007D228E2C8F2D8B2E8A2F8930E4F533F5B1
:107E900034F533F534C3E5349532E5339531502369
:107EA000E52D2534FFE52C3533FEAB2E0530E530CE
:107EB000AA2F7002052F1280BA0534E53470D6055A
:107EC0003380D222AC06E0FDA3E0FBA3E0F530A3B3
:107ED000E0F5318D2E8B2FAB07AA06E4F9F8AF2E13
:107EE000FCFDFE1226C98F358E348D338C32A92FBE
:107EF000A80112281B8F358E348D338C32E5312F3B
:107F0000FFE5303EFE22A907128B2A128B3AAF0101
:107F1000AD07AC05C2B21288437B07EDA803088009
:107F200002C313D8FC5401FC6004D2B18002C2B178
:107F3000D2B212884C12884CC2B212884C1BC3EBCE
:107F40006480948050D522856E70E56DD395704025
:107F500006E56D95708001E4122580E56D2570FFC2
:107F6000E433FEC3EF956F7480F86E98500CE56DA6
:107F70002570AB6AAA6BA96C8008AB6AAA6BA96C66
:107F8000E56F12258022A907128B08128B18AF010A
:107F9000AD07AC051288417B07EDA803088002C33A
:107FA00013D8FC5401FC6004D2908002C290D2919C
:107FB00012884C12884CC29112884C1BC3EB64800F
:107FC000948050D5227F007EF81288F3BF010E12F4
:107FD0007B277D557F007EF812003E800F90020BBC
:107FE000E0FFA3E0900191CFF0A3EFF0900191E0CA
:107FF000FCA3E0FDEC9000F8F0A3EDF0A37403F017
:10800000A304F0229008CDE0FF12888F7B3F7D0112
:108010007F60127A857B3F7D037F60127A857B3F8C
:108020007D077F60127A857B3F7D0F7F60127A85A6
:108030007B3F7D1F7F60127A857B3F7D3F7F6002A3
:108040007A857F1F128C2B7B1C7D407F161286DE6B
:10805000E4FF128C2B7B047DF87F161286DEE4FB96
:108060007DF77F161286DE7F1F128C2B7B017DC071
:108070007F161286DE7B207D6E7F160286DE7F1FD6
:10808000128C347B1C7D407F181286DEE4FF128C3C
:10809000347B047DF87F181286DEE4FB7DF77F18C1
:1080A0001286DE7F1F128C347B017DC07F18128602
:1080B000DE7B207D6E7F180286DE14F9122567FDB7
:1080C0007B55ACA7A2AF9200E4F5A7C2AF75FF80C5
:1080D00075EF028F828E83BB550975B7A575B7F111
:1080E000438F0175FF8075EF02EDF0538FFEA20004
:1080F00092AF8CA7229008CDE0FF12888F7D0F7F72
:10810000C112851E7FC11285AC8F2C7D0C7FC112E0
:10811000851E7FC11285AC8F2C7FC81285AC90085C
:108120000EEFF07FC91285AC90080DEFF022E4FD50
:10813000C2B21288437C0712884CD2B212884C1209
:10814000884CA2B19200A200E433FFA80408800288
:10815000C333D8FC4205C2B212884C1CC3EC648005
:10816000948050D3AF0522127F9012817ED291125B
:10817000884C128B08128B18E904FF127F9012882A
:108180004CD29112884C12884C309009C2911288BE
:108190004CC2908007C29112884CD29012884C2217
:1081A000127F101281B7D2B212884C128B2A128B16
:1081B0003AE904FF127F1012884CD2B212884C1296
:1081C000884C30B109C2B212884CC2B18007C2B229
:1081D00012884CD2B112884C22E4FD1288417C07EF
:1081E00012884CD29112884C12884CA2909200A214
:1081F00000E433FFA804088002C333D8FC4205C260
:108200009112884C1CC3EC6480948050D3AF05223B
:1082100085A72C128C04128BED128C45128C0E1239
:108220008C6F128C18128A61128C7C128C4C128CFE
:1082300053128B55128A74128B96128C5A128C61BF
:10824000128C68852CA7227E007F807D007B017ABE
:108250000179001228E6900100740FF0E490010B00
:10826000F090010D7466F0A3F09001177433F0A341
:10827000F0E4A3F0A3F0A37477F0A3F0228D2E8B8B
:108280002FAB07AA06E4F9F8AF2EFCFDFE1226C9B3
:108290008F358E348D338C32A92FA80112281B8F75
:1082A000358E348D338C32E531FEE42535FFEE35E5
:1082B00034FE227E007F807D007B017A00790012EF
:1082C00028E6900080E0900000F0A37408F0A3E09E
:1082D0004402F090006274FFF090006E7428F0E4A5
:1082E000900071F022E4F5529008CDE0FF12888FE3
:1082F0007B017D017FC1127A857B01E4FD7FC11284
:108300007A85E552700C7FC112858AEF5402F552CE
:1083100080F0229008CDE0FF12888F7D057BFD7FE5
:10832000B0127A857D017B0D7FB0127A857D097B45
:108330000D7FB0127A85E49007D5F0A37464F02223
:108340001260DFE4FF1200767F011200767F0212D6
:1083500000767F03120076E4FF120076128ADE12A6
:108360008BDF9001DCE0700312807E2212843F12CA
:1083700075C41282B3127FC5900191E0FCA3E0FDA9
:10838000EC9000F8F0A3EDF0A37403F0A304F01256
:108390007BC6128A3B028247128AABE4FF1276C682
:1083A0007B217D067FB81286FB126FFC7F02126C68
:1083B000B97F03126CB97F04126CB97F05126CB9D6
:1083C00002722C9007597401F09008CD741FF0FFD1
:1083D00012888FE4FD7FC012851E7F647E001286A6
:1083E0002CE4FF12888F7D017FF702851EE4FF12C7
:1083F0008C22E4FD7F2012899490094FEFF07D01DB
:108400007F20128994900950EFF07D037F2012891C
:1084100094900951EFF0227D047F1412780FC3EF7E
:10842000950DFFEE950CFE3395E0FDFCE4FB7A0123
:10843000F9F81226C9E47B13FAF9F8127DFB227BC6
:10844000017A0079807531007532807F807EC81294
:108450007C5A7B017A0279177531007532807F0072
:108460007ECE027C5AE4FF128C227BAA7D027F2002
:108470001286FB7F0A7E0012862CE4FB7D027F20A1
:108480001286FB7F0A7E0002862CE4FF128C2B7B77
:10849000AA7D027F161286DE7F0A7E0012862CE4F9
:1084A000FB7D027F161286DE7F0A7E0002862CE4A8
:1084B000FF128C347BAA7D027F181286DE7F0A7E33
:1084C0000012862CE4FB7D027F181286DE7F0A7E76
:1084D0000002862C90FFD5E493FE90FFD4E493FD38
:1084E000EEFCE41223B77BD77AA37930783F1222CF
:1084F000AC1223F08E0C8F0D228D2D128B33AF0416
:10850000127F101281B7AF2D127F101281B7AF0109
:10851000127F101281B7AF2F1288DA028B2A8F4296
:108520008D43900759E0B40108AB43AD427F1880FA
:108530000D900759E0B40309AB43AD427F16128694
:10854000DE228F2E9008CDE0FF12888FE52EC433F7
:1085500033335480FD7B807FA2127A85E49007D567
:10856000F0A37464F0228F2CE50EB4010B90010B84
:10857000E070051272DC8003E4F50EAF2C1261FD91
:10858000AF2C126316AF2C02642F8F6C900759E04A
:10859000B40106AD6C7F18800B900759E0B4030955
:1085A000AD6C7F1612897E8F6DAF6D228F2D900777
:1085B00059E0B40106AD2D7F18800B900759E0B447
:1085C0000309AD2D7F1612897E8F2EAF2E22EFC4A8
:1085D000335460900951F0E4FF128C22900951E06D
:1085E000FB7D037F201286FB7F13128751229004AC
:1085F00093BF010574F0F0800374FFF07F011276E1
:10860000C6900493E0FB7D867FB80286FB125FC1B3
:10861000E4FF121A6B7F01121A6B7F02121A6B7F32
:1086200003121A6BE4FF121A6B028BC3AD07AC0680
:10863000E4FBFAC3EB9DEC6480F8EA648098500A8E
:10864000128B860BBB00010A80E922E4FF128C2BFF
:10865000E4FD7F1612897E900557EFF07D017F16AD
:1086600012897E900558EFF022E4FF128C34E4FD6D
:108670007F1812897E900657EFF07D017F181289CE
:108680007E900658EFF0227F021267627F03126726
:10869000627F041267627F05126762126E6512665E
:1086A00060025C2C12864B128A87E4FF1209BF7F9E
:1086B000011209BF7F021209BF7F031209BF027CAA
:1086C000E9E4FF1212157F011212157F0212121532
:1086D0007F03121215128669128A99027D2E8D71FE
:1086E000128B11AF04127F9012817EAF71127F90B6
:1086F00012817EAF011288C1028B088D2D128B333F
:10870000AF04127F101281B7AF2D127F101281B704
:10871000AF011288DA028B2AE4F52CF52D7F0AFED0
:1087200012862CD2B17F017E0012862CD2B07F64DB
:108730007E0002862C8E348F3512858A8F36E53581
:1087400004FF12858AEF7F00FEEF2536FFE43EFE30
:10875000227D0412780FAD07AC06E41223B77B48E4
:108760007AE179BA783F1222AC1223F022AD07E405
:10877000FBFAEDFFC3EB9F7480F86A98500A1288E9
:108780004C0BBB00010A80EA228F678C688D698AD6
:108790006A8B6B127A85E568FDE56AFBE56704FF85
:1087A000127A85228F2E9008CDE0FF12888FAD2E91
:1087B0007FB112851EE49007D5F0A37464F02212F5
:1087C0006F37126FFC7F02126CB97F03126CB97F96
:1087D00004126CB97F05026CB9E4FF121A6B7F01B9
:1087E000121A6B7F02121A6B7F03121A6B128ACD58
:1087F000027D7312864B128A87E4FF1209BF7F0144
:108800001209BF7F021209BF7F030209BFE4FF12F2
:1088100000767F011200767F021200767F0312003D
:1088200076128ADE027DB7E4FF1212157F01121262
:10883000157F021212157F03121215128669028A21
:1088400099C29112884C12884C12884CE4FFFE0F9A
:10885000BF00010EEF64044E70F52212884CD290D6
:1088600012884CD29112884C12884CC29112884CBA
:10887000C29002884C12884CD2B112884CD2B212EB
:10888000884C12884CC2B212884CC2B102884C8FFC
:108890006C900759E0B40103028C34900759E0B49E
:1088A0000305AF6C128C2B229008CDE0FF12888F4D
:1088B0007FA212858A530780EFC41313135401FF5C
:1088C00022127F9012817EC2907F0212876DD29118
:1088D0007F0212876DD29002884C127F101281B7EE
:1088E000C2B17F0212876DD2B27F0212876DD2B100
:1088F00002884CADA7A2AF9200C2AFE4F5A78F8269
:108900008E8393FFA20092AF8DA722128ABCE4FF50
:1089100012340F7F0112340F7F0212340F7F0302D3
:10892000340F128ABCE4FF12340F7F0112340F7F20
:108930000212340F7F0302340F1283EDE4FF123B67
:108940007F7F01123B7F7F02123B7F7F03023B7FD1
:10895000E4FF121A6B7F01121A6B7F02121A6B7FEF
:1089600003121A6B028ACDE4FF1200767F01120017
:10897000767F021200767F03120076028ADE8D7106
:10898000127F8612817EAF711281671281D9128B9C
:1089900000AF04228D2D127F061281B7AF2D1281F8
:1089A000A012812E128B22AF042275360075377EFD
:1089B0007538E2124FC29007CBEEF0A3EFF02275AC
:1089C000333F75341475353FE4F536125350900734
:1089D000C1EFF02275360175373B7538E8124FC28A
:1089E0009007C9EEF0A3EFF02275360175373B759D
:1089F00038DC124FC29007C7EEF0A3EFF0227533B8
:108A00000F7534477535F07536041253509007C210
:108A1000EFF02275330F7534487535F07536041252
:108A200053509007C5EFF0229008CDE0FF12888FD9
:108A30007F081285AC90080CEFF0227B017A027956
:108A4000137531007532047F307ED2027C5AAFA795
:108A5000E4F5A720860543C180800353C17F8FA71B
:108A60002275B28075BB1475DF1F75BC1875B9040B
:108A700043E88122AF885388AF758CF1EF5440FEF4
:108A8000EF54104E428822E4FF128C2B7D037F1698
:108A900012897E900559EFF022E4FF128C347D0399
:108AA0007F1812897E900659EFF0227F061276C653
:108AB000900517E0FB7D027FB80286FBE4FF128C75
:108AC00022900951E0FB7D037F200286FBE4FF1228
:108AD0008C2B900559E0FB7D037F160286DEE4FFB8
:108AE000128C34900659E0FB7D037F180286DE8FDE
:108AF0002C9008CDE0FF12888FAD2C7F6802851E78
:108B0000AC0712885B1288C7D291D2907F0102878E
:108B10006DAC07A903128B0812884CC2907F020229
:108B2000876DAC071288751288E0D2B2D2B17F018E
:108B300002876DAC07A903128B2A12884CC2B17F41
:108B40000202876D900193127EC4AC0690001AEC6D
:108B5000F0A3EFF022E4F5A9E5A930E7FB75A9033E
:108B6000E5A930E7FB221288A8BF01057E017FFE40
:108B7000227E037FFC228F2C7F1F128C34AB2C7D36
:108B8000097F180286DEE4FFFE000FBF00010EBE63
:108B900017F7BF70F422E59154045391FB759315B8
:108BA0007592A042912275330F75344712534A9043
:108BB00007C3EFF0227F1F128C2BE4FB7DB07F16E2
:108BC0000286DE7F1F128C2B7BC27D4B7F160286B6
:108BD000DE7F1F128C34E4FB7DB07F180286DE7FBF
:108BE0001F128C347BC27D4B7F180286DE75F1FC30
:108BF00075D4FF75FE1075FDEF2253C17F43C18010
:108C000053917F32E4F5A77597DE7597AD2275A76E
:108C10002075F32375CC0C22E4F5A775E34075E1CC
:108C20000422AB077DFF7F200286FBAB077DFF7F21
:108C3000160286DEAB077DFF7F180286DE9008CD28
:108C4000E0FF02888F75F23F75D5FF2275A710757A
:108C5000C12022E4F5A775EF0622758E0175890201
:108C60002275D7A043C11C2275E68175A8802275A4
:108C70009C0375F49F2212846502892275D180229B
:108C8000028C04FFFFFFFFFFFFFFFFFFFFFFFFFF5F
:108C9000FFFFFFFFFFFFFFFFFFFFFFFFFFFFFFFFE4
:108CA000FFFFFFFFFFFFFFFFFFFFFFFFFFFFFFFFD4
:108CB000FFFFFFFFFFFFFFFFFFFFFFFFFFFFFFFFC4
:108CC000FFFFFFFFFFFFFFFFFFFFFFFFFFFFFFFFB4
:10C800001100000000000000000000000000000017
:10C810000000000000000000000000000000000018
:10C820000000000000000000000000000000000008
:10C8300000000000000000000000000000000000F8
:10C8400000000000000000000000000000000000E8
:10C8500000000000000000000000000000000000D8
:10C860000000FF00000000000000000000000000C9
:10C8700000000000000000FFFFFFFFFFFFFFFF00C0
:10C88000118C23000000004000020205FF000000A0
:10C89000000000004C555853484152452D4943541F
:10C8A000202020201F3C18A00000000000000000F5
:10C8B0000000000000000000000000000000000078
:10C8C0000000000000000000000000000000000068
:10C8D0000000000000000000000000000000000058
:10C8E000FFFFFFFFFFFFFFFFFFFFFFFFFFFFFFFF58
:10CE000080000000000000000000000000000000A2
:10CE10000000000000000000000000000000000012
:10CE20000000000000000000000000000000000002
:10CE300000000000000000000000000000000000F2
:10CE400000000000000000000000000000000000E2
:10CE500000000000000000000000000000000000D2
:10CE600000000000000000000000666600002222B2
:10CE700000000000000000000000000000000000B2
:10CE8000FFFFFFFFFFFFFFFFFFFFFFFFFFFFFFFFB2
:10CE9000FFFFFFFFFFFFFFFFFFFFFFFFFFFFFFFFA2
:10CEA000FFFFFFFFFFFFFFFFFFFFFFFFFFFFFFFF92
:10CEB000FFFFFFFFFFFFFFFFFFFFFFFFFFFFFFFF82
:10CEC000FFFFFFFFFFFFFFFFFFFFFFFFFFFFFFFF72
:10CED000FFFFFFFFFFFFFFFFFFFFFFFFFFFFFFFF62
:10CEE000FFFFFFFFFFFFFFFFFFFFFFFFFFFFFFFF52
:10CEF000FFFFFFFFFFFFFFFFFFFFFFFFFFFFFFFF42
:10CF0000FFFFFFFFFFFFFFFFFFFFFFFFFFFFFFFF31
:10CF1000FFFFFFFFFFFFFFFFFFFFFFFFFFFFFFFF21
:10CF2000FFFFFFFFFFFFFFFFFFFFFFFFFFFFFFFF11
:10CF3000FFFFFFFFFFFFFFFFFFFFFFFFFFFFFFFF01
:10CF4000FFFFFFFFFFFFFFFFFFFFFFFFFFFFFFFFF1
:10CF5000FFFFFFFFFFFFFFFFFFFFFFFFFFFFFFFFE1
:10CF6000FFFFFFFFFFFFFFFFFFFFFFFFFFFFFFFFD1
:10CF7000FFFFFFFFFFFFFFFFFFFFFFFFFFFFFFFFC1
:10CF8000FFFFFFFFFFFFFFFFFFFFFFFFFFFFFFFFB1
:10CF9000FFFFFFFFFFFFFFFFFFFFFFFFFFFFFFFFA1
:10CFA000FFFFFFFFFFFFFFFFFFFFFFFFFFFFFFFF91
:10CFB000FFFFFFFFFFFFFFFFFFFFFFFFFFFFFFFF81
:10CFC000FFFFFFFFFFFFFFFFFFFFFFFFFFFFFFFF71
:10CFD000FFFFFFFFFFFFFFFFFFFFFFFFFFFFFFFF61
:10CFE000FFFFFFFFFFFFFFFFFFFFFFFFFFFFFFFF51
:10CFF000FFFFFFFFFFFFFFFFFFFFFFFFFFFFFFFF41
:10D00000010000000100000100000001000000011B
:10D01000000000010000000100000001000000010C
:10D0200000000001000000010000000100000001FC
:10D0300000000001000000008001000080010000ED
:10D040008001000080010046000100000000000097
:10D05000FFFFFFFFFFFFFFFFFFFFFFFFFFFFFFFFE0
:10D06000FFFFFFFFFFFFFFFFFFFFFFFFFFFFFFFFD0
:10D07000FFFFFFFFFFFFFFFF8188FFFFFFFFFFFFB5
:10D08000FFFFFFFFFFFFFFFFFFFFFFFFFFFFFFFFB0
:10D09000FFFFFFFFFFFFFFFFFFFFFFFFFFFFFFFFA0
:10D0A000FFFFFFFFFFFFFFFFFFFFFFFFFFFFFFFF90
:10D0B000FFFFFFFFFFFFFFFFFFFFFFFFFFFFFFFF80
:10D0C000FFFFFFFFFFFFFFFFFFFFFFFFFFFFFFFF70
:10D0D000FFFFFFFFFFFFFFFFFFFFFFFFFFFFFFFF60
:10D0E000FFFFFFFFFFFFFFFFFFFFFFFFFFFFFFFF50
:10D0F000FFFFFFFFFFFFFFFFFFFFFFFFFFFFFFFF40
:10D10000FFFFFFFFFFFFFFFFFFFFFFFFFFFFFFFF2F
:10D11000FFFFFFFFFFFFFFFFFFFFFFFFFFFFFFFF1F
:10D12000FFFFFFFFFFFFFFFFFFFFFFFFFFFFFFFF0F
:10D13000FFFFFFFFFFFFFFFFFFFFFFFFFFFFFFFFFF
:10D14000FFFFFFFFFFFFFFFFFFFFFFFFFFFFFFFFEF
:10D15000FFFFFFFFFFFFFFFFFFFFFFFFFFFFFFFFDF
:10D16000FFFFFFFFFFFFFFFFFFFFFFFFFFFFFFFFCF
:10D17000FFFFFFFFFFFFFFFFFFFFFFFFFFFFFFFFBF
:10D18000FFFFFFFFFFFFFFFFFFFFFFFFFFFFFFFFAF
:10D19000FFFFFFFFFFFFFFFFFFFFFFFFFFFFFFFF9F
:10D1A000FFFFFFFFFFFFFFFFFFFFFFFFFFFFFFFF8F
:10D1B000FFFFFFFFFFFFFFFFFFFFFFFFFFFFFFFF7F
:10D1C000FFFFFFFFFFFFFFFFFFFFFFFFFFFFFFFF6F
:10D1D000FFFFFFFFFFFFFFFFFFFFFFFFFFFFFFFF5F
:10D1E000FFFFFFFFFFFFFFFFFFFFFFFFFFFFFFFF4F
:10D1F000FFFFFFFFFFFFFFFFFFFFFFFFFFFFFFFF3F
:10D200000C1316191C1F2326292C2F3236393C3FAC
:10D2100003070B0F13171B1F23272B2F33373B3FFE
:10D220000003060A0E141A1E23282D32373C3E3FF7
:10D230009378CCAE00000000000000000000000069
:10D2400003070B0F13171B1F23272B2F33373B3FCE
:10D25000FFFFFFFFFFFFFFFFFFFFFFFFFFFFFFFFDE
:10D26000FFFFFFFFFFFFFFFFFFFFFFFFFFFFFFFFCE
:10D27000FFFFFFFFFFFFFFFFFFFFFFFFFFFFFFFFBE
:10D28000FFFFFFFFFFFFFFFFFFFFFFFFFFFFFFFFAE
:10D29000FFFFFFFFFFFFFFFFFFFFFFFFFFFFFFFF9E
:10D2A000FFFFFFFFFFFFFFFFFFFFFFFFFFFFFFFF8E
:10D2B000FFFFFFFFFFFFFFFFFFFFFFFFFFFFFFFF7E
:10D2C000FFFFFFFFFFFFFFFFFFFFFFFFFFFFFFFF6E
:10D2D000FFFFFFFFFFFFFFFFFFFFFFFFFFFFFFFF5E
:10D2E000FFFFFFFFFFFFFFFFFFFFFFFFFFFFFFFF4E
:10D2F000FFFFFFFFFFFFFFFFFFFFFFFFFFFFFFFF3E
:10D30000FFFFFFFFFFFFFFFFFFFFFFFFFFFFFFFF2D
:10D31000FFFFFFFFFFFFFFFFFFFFFFFFFFFFFFFF1D
:10D32000FFFFFFFFFFFFFFFFFFFFFFFFFFFFFFFF0D
:10D33000FFFFFFFFFFFFFFFFFFFFFFFFFFFFFFFFFD
:10D34000FFFFFFFFFFFFFFFFFFFFFFFFFFFFFFFFED
:10D35000FFFFFFFFFFFFFFFFFFFFFFFFFFFFFFFFDD
:10D36000FFFFFFFFFFFFFFFFFFFFFFFFFFFFFFFFCD
:10D37000FFFFFFFFFFFFFFFFFFFFFFFFFFFFFFFFBD
:10D38000FFFFFFFFFFFFFFFFFFFFFFFFFFFFFFFFAD
:10D39000FFFFFFFFFFFFFFFFFFFFFFFFFFFFFFFF9D
:10D3A000FFFFFFFFFFFFFFFFFFFFFFFFFFFFFFFF8D
:10D3B000FFFFFFFFFFFFFFFFFFFFFFFFFFFFFFFF7D
:10D3C000FFFFFFFFFFFFFFFFFFFFFFFFFFFFFFFF6D
:10D3D000FFFFFFFFFFFFFFFFFFFFFFFFFFFFFFFF5D
:10D3E000FFFFFFFFFFFFFFFFFFFFFFFFFFFFFFFF4D
:10D3F000FFFFFFFFFFFFFFFFFFFFFFFFFFFFFFFF3D
:10D40000000000000000000000000000000000001C
:10D41000000000000000000000000000000000000C
:10D4200000000000000000000000000000000000FC
:10D43000070000FF0F0F000000002840F040F0013F
:10D4400024012401240124035003500350035000FD
:10D45000000F8800000F8800000F8800000F880070
:10D4600000000000000000000000000000000000BC
:10D4700000000000000000000000000000000000AC
:10D48000FFFFFFFFFFFFFFFFFFFFFFFFFFFFFFFFAC
:10D49000FFFFFFFFFFFFFFFFFFFFFFFFFFFFFFFF9C
:10D4A000FFFFFFFFFFFFFFFFFFFFFFFFFFFFFFFF8C
:10D4B000FFFFFFFFFFFFFFFFFFFFFFFFFFFFFFFF7C
:10D4C000FFFFFFFFFFFFFFFFFFFFFFFFFFFFFFFF6C
:10D4D000FFFFFFFFFFFFFFFFFFFFFFFFFFFFFFFF5C
:10D4E000FFFFFFFFFFFFFFFFFFFFFFFFFFFFFFFF4C
:10D4F000FFFFFFFFFFFFFFFFFFFFFFFFFFFFFFFF3C
:10D50000FFFFFFFFFFFFFFFFFFFFFFFFFFFFFFFF2B
:10D51000FFFFFFFFFFFFFFFFFFFFFFFFFFFFFFFF1B
:10D52000FFFFFFFFFFFFFFFFFFFFFFFFFFFFFFFF0B
:10D53000FFFFFFFFFFFFFFFFFFFFFFFFFFFFFFFFFB
:10D54000FFFFFFFFFFFFFFFFFFFFFFFFFFFFFFFFEB
:10D55000FFFFFFFFFFFFFFFFFFFFFFFFFFFFFFFFDB
:10D56000FFFFFFFFFFFFFFFFFFFFFFFFFFFFFFFFCB
:10D57000FFFFFFFFFFFFFFFFFFFFFFFFFFFFFFFFBB
:10D58000FFFFFFFFFFFFFFFFFFFFFFFFFFFFFFFFAB
:10D59000FFFFFFFFFFFFFFFFFFFFFFFFFFFFFFFF9B
:10D5A000FFFFFFFFFFFFFFFFFFFFFFFFFFFFFFFF8B
:10D5B000FFFFFFFFFFFFFFFFFFFFFFFFFFFFFFFF7B
:10D5C000FFFFFFFFFFFFFFFFFFFFFFFFFFFFFFFF6B
:10D5D000FFFFFFFFFFFFFFFFFFFFFFFFFFFFFFFF5B
:10D5E000FFFFFFFFFFFFFFFFFFFFFFFFFFFFFFFF4B
:10D5F000FFFFFFFFFFFFFFFFFFFFFFFFFFFFFFFF3B
:10D6000000000000F0051F098B895800027D0038DA
:10D6100000BE00EF01E701CE0100F0051F098B8974
:10D620005800027D003800BE00EF01E701CE010086
:10D63000F0051F098B895800027D003800BE00EFFD
:10D6400001E701CE0100F0091F098B895800027D16
:10D65000003800BE00EF01E701CE01545254080823
:10D6600008212121464646404040777777080A083E
:10D670005656565600000000000000000000000052
:10D68000FFFFFFFFFFFFFFFFFFFFFFFFFFFFFFFFAA
:10D69000FFFFFFFFFFFFFFFFFFFFFFFFFFFFFFFF9A
:10D6A000FFFFFFFFFFFFFFFFFFFFFFFFFFFFFFFF8A
:10D6B000FFFFFFFFFFFFFFFFFFFFFFFFFFFFFFFF7A
:10D6C000FFFFFFFFFFFFFFFFFFFFFFFFFFFFFFFF6A
:10D6D000FFFFFFFFFFFFFFFFFFFFFFFFFFFFFFFF5A
:10D6E000FFFFFFFFFFFFFFFFFFFFFFFFFFFFFFFF4A
:10D6F000FFFFFFFFFFFFFFFFFFFFFFFFFFFFFFFF3A
:10D70000FFFFFFFFFFFFFFFFFFFFFFFFFFFFFFFF29
:10D71000FFFFFFFFFFFFFFFFFFFFFFFFFFFFFFFF19
:10D72000FFFFFFFFFFFFFFFFFFFFFFFFFFFFFFFF09
:10D73000FFFFFFFFFFFFFFFFFFFFFFFFFFFFFFFFF9
:10D74000FFFFFFFFFFFFFFFFFFFFFFFFFFFFFFFFE9
:10D75000FFFFFFFFFFFFFFFFFFFFFFFFFFFFFFFFD9
:10D76000FFFFFFFFFFFFFFFFFFFFFFFFFFFFFFFFC9
:10D77000FFFFFFFFFFFFFFFFFFFFFFFFFFFFFFFFB9
:10D78000FFFFFFFFFFFFFFFFFFFFFFFFFFFFFFFFA9
:10D79000FFFFFFFFFFFFFFFFFFFFFFFFFFFFFFFF99
:10D7A000FFFFFFFFFFFFFFFFFFFFFFFFFFFFFFFF89
:10D7B000FFFFFFFFFFFFFFFFFFFFFFFFFFFFFFFF79
:10D7C000FFFFFFFFFFFFFFFFFFFFFFFFFFFFFFFF69
:10D7D000FFFFFFFFFFFFFFFFFFFFFFFFFFFFFFFF59
:10D7E000FFFFFFFFFFFFFFFFFFFFFFFFFFFFFFFF49
:10D7F000FFFFFFFFFFFFFFFFFFFFFFFFFFFFFFFF39
:10D80000545254080808212121464646404040779A
:10D810007777080A085452540808082121214646FF
:10D8200046404040777777080A0854525408080861
:10D83000212121464646404040777777080A085420
:10D840005254080808212121464646404040777737
:10D8500077080A08545254080808212121464646F0
:10D86000404040777777080A085452540808082146
:10D870002121464646404040777777080A08000055
:10D88000FFFFFFFFFFFFFFFFFFFFFFFFFFFFFFFFA8
:10D89000FFFFFFFFFFFFFFFFFFFFFFFFFFFFFFFF98
:10D8A000FFFFFFFFFFFFFFFFFFFFFFFFFFFFFFFF88
:10D8B000FFFFFFFFFFFFFFFFFFFFFFFFFFFFFFFF78
:10D8C000FFFFFFFFFFFFFFFFFFFFFFFFFFFFFFFF68
:10D8D000FFFFFFFFFFFFFFFFFFFFFFFFFFFFFFFF58
:10D8E000FFFFFFFFFFFFFFFFFFFFFFFFFFFFFFFF48
:10D8F000FFFFFFFFFFFFFFFFFFFFFFFFFFFFFFFF38
:10D90000FFFFFFFFFFFFFFFFFFFFFFFFFFFFFFFF27
:10D91000FFFFFFFFFFFFFFFFFFFFFFFFFFFFFFFF17
:10D92000FFFFFFFFFFFFFFFFFFFFFFFFFFFFFFFF07
:10D93000FFFFFFFFFFFFFFFFFFFFFFFFFFFFFFFFF7
:10D94000FFFFFFFFFFFFFFFFFFFFFFFFFFFFFFFFE7
:10D95000FFFFFFFFFFFFFFFFFFFFFFFFFFFFFFFFD7
:10D96000FFFFFFFFFFFFFFFFFFFFFFFFFFFFFFFFC7
:10D97000FFFFFFFFFFFFFFFFFFFFFFFFFFFFFFFFB7
:10D98000FFFFFFFFFFFFFFFFFFFFFFFFFFFFFFFFA7
:10D99000FFFFFFFFFFFFFFFFFFFFFFFFFFFFFFFF97
:10D9A000FFFFFFFFFFFFFFFFFFFFFFFFFFFFFFFF87
:10D9B000FFFFFFFFFFFFFFFFFFFFFFFFFFFFFFFF77
:10D9C000FFFFFFFFFFFFFFFFFFFFFFFFFFFFFFFF67
:10D9D000FFFFFFFFFFFFFFFFFFFFFFFFFFFFFFFF57
:10D9E000FFFFFFFFFFFFFFFFFFFFFFFFFFFFFFFF47
:10D9F000FFFFFFFFFFFFFFFFFFFFFFFFFFFFFFFF37
:10DA000000000000070000000020380D0000350075
:10DA1000002500001D00000000000700000000209D
:10DA2000380D00003500002500001D00000000003A
:10DA3000070000000020380D000035000025000020
:10DA40001D0000000000070000000020380D00004D
:10DA50003500002500001D0000000000000000004F
:10DA600000000000000000000000000000000000B6
:10DA7000565656560000000000000000000000004E
:10DA8000FFFFFFFFFFFFFFFFFFFFFFFFFFFFFFFFA6
:10DA9000FFFFFFFFFFFFFFFFFFFFFFFFFFFFFFFF96
:10DAA000FFFFFFFFFFFFFFFFFFFFFFFFFFFFFFFF86
:10DAB000FFFFFFFFFFFFFFFFFFFFFFFFFFFFFFFF76
:10DAC000FFFFFFFFFFFFFFFFFFFFFFFFFFFFFFFF66
:10DAD000FFFFFFFFFFFFFFFFFFFFFFFFFFFFFFFF56
:10DAE000FFFFFFFFFFFFFFFFFFFFFFFFFFFFFFFF46
:10DAF000FFFFFFFFFFFFFFFFFFFFFFFFFFFFFFFF36
:10DB0000FFFFFFFFFFFFFFFFFFFFFFFFFFFFFFFF25
:10DB1000FFFFFFFFFFFFFFFFFFFFFFFFFFFFFFFF15
:10DB2000FFFFFFFFFFFFFFFFFFFFFFFFFFFFFFFF05
:10DB3000FFFFFFFFFFFFFFFFFFFFFFFFFFFFFFFFF5
:10DB4000FFFFFFFFFFFFFFFFFFFFFFFFFFFFFFFFE5
:10DB5000FFFFFFFFFFFFFFFFFFFFFFFFFFFFFFFFD5
:10DB6000FFFFFFFFFFFFFFFFFFFFFFFFFFFFFFFFC5
:10DB7000FFFFFFFFFFFFFFFFFFFFFFFFFFFFFFFFB5
:10DB8000FFFFFFFFFFFFFFFFFFFFFFFFFFFFFFFFA5
:10DB9000FFFFFFFFFFFFFFFFFFFFFFFFFFFFFFFF95
:10DBA000FFFFFFFFFFFFFFFFFFFFFFFFFFFFFFFF85
:10DBB000FFFFFFFFFFFFFFFFFFFFFFFFFFFFFFFF75
:10DBC000FFFFFFFFFFFFFFFFFFFFFFFFFFFFFFFF65
:10DBD000FFFFFFFFFFFFFFFFFFFFFFFFFFFFFFFF55
:10DBE000FFFFFFFFFFFFFFFFFFFFFFFFFFFFFFFF45
:10DBF000FFFFFFFFFFFFFFFFFFFFFFFFFFFFFFFF35
:10DC000000000000D0051F098B895800027D0038F4
:10DC100000BE00EF01E701CE0100D0051F098B898E
:10DC20005800027D003800BE00EF01E701CE010080
:10DC3000D0051F098B895800027D003800BE00EF17
:10DC400001E701CE0100D0091F098B895800027D30
:10DC5000003800BE00EF01E701CE0154525408081D
:10DC600008212121464646404040777777080A0838
:10DC7000565656560000000000000000000000004C
:10DC8000FFFFFFFFFFFFFFFFFFFFFFFFFFFFFFFFA4
:10DC9000FFFFFFFFFFFFFFFFFFFFFFFFFFFFFFFF94
:10DCA000FFFFFFFFFFFFFFFFFFFFFFFFFFFFFFFF84
:10DCB000FFFFFFFFFFFFFFFFFFFFFFFFFFFFFFFF74
:10DCC000FFFFFFFFFFFFFFFFFFFFFFFFFFFFFFFF64
:10DCD000FFFFFFFFFFFFFFFFFFFFFFFFFFFFFFFF54
:10DCE000FFFFFFFFFFFFFFFFFFFFFFFFFFFFFFFF44
:10DCF000FFFFFFFFFFFFFFFFFFFFFFFFFFFFFFFF34
:10DD0000FFFFFFFFFFFFFFFFFFFFFFFFFFFFFFFF23
:10DD1000FFFFFFFFFFFFFFFFFFFFFFFFFFFFFFFF13
:10DD2000FFFFFFFFFFFFFFFFFFFFFFFFFFFFFFFF03
:10DD3000FFFFFFFFFFFFFFFFFFFFFFFFFFFFFFFFF3
:10DD4000FFFFFFFFFFFFFFFFFFFFFFFFFFFFFFFFE3
:10DD5000FFFFFFFFFFFFFFFFFFFFFFFFFFFFFFFFD3
:10DD6000FFFFFFFFFFFFFFFFFFFFFFFFFFFFFFFFC3
:10DD7000FFFFFFFFFFFFFFFFFFFFFFFFFFFFFFFFB3
:10DD8000FFFFFFFFFFFFFFFFFFFFFFFFFFFFFFFFA3
:10DD9000FFFFFFFFFFFFFFFFFFFFFFFFFFFFFFFF93
:10DDA000FFFFFFFFFFFFFFFFFFFFFFFFFFFFFFFF83
:10DDB000FFFFFFFFFFFFFFFFFFFFFFFFFFFFFFFF73
:10DDC000FFFFFFFFFFFFFFFFFFFFFFFFFFFFFFFF63
:10DDD000FFFFFFFFFFFFFFFFFFFFFFFFFFFFFFFF53
:10DDE000FFFFFFFFFFFFFFFFFFFFFFFFFFFFFFFF43
:10DDF000FFFFFFFFFFFFFFFFFFFFFFFFFFFFFFFF33
:10DE00005452540808082121214646464040407794
:10DE10007777080A085452540808082121214646F9
:10DE200046404040777777080A085452540808085B
:10DE3000212121464646404040777777080A08541A
:10DE40005254080808212121464646404040777731
:10DE500077080A08545254080808212121464646EA
:10DE6000404040777777080A085452540808082140
:10DE70002121464646404040777777080A0800004F
:10DE8000FFFFFFFFFFFFFFFFFFFFFFFFFFFFFFFFA2
:10DE9000FFFFFFFFFFFFFFFFFFFFFFFFFFFFFFFF92
:10DEA000FFFFFFFFFFFFFFFFFFFFFFFFFFFFFFFF82
:10DEB000FFFFFFFFFFFFFFFFFFFFFFFFFFFFFFFF72
:00000001FF
