:1000000002B1A0E4FE7574057B107D607F1C12BFF9
:10001000F2757405E4FB7D917F1C12BFF2757405C7
:100020007B017D927F1C12BFF27F017E0012C6749D
:100030007B057D687F1C12B073222202860875D171
:100040008022FF02CABD900AC7E0FF12C2F67D05FA
:100050007BFD7FB012AF217D017B0D7FB012AF2100
:100060007D097B0D7FB012AF21E49006C1F0A3742F
:1000700064F02202CBE4EF14700302036A147003ED
:1000800002064414700302091E24036003020C01DB
:100090007F2012CBA9900546E0FB7574037D087F95
:1000A0001612BFF2900547E0FB7574037D107F16B2
:1000B00012BFF2900548E0FB7574037D117F1612A4
:1000C000BFF2900549E0FB7574037D147F1612BFE3
:1000D000F290054AE0FB7574037DB37F1612BFF200
:1000E00090054BE0FB7574037D467F1612BFF290BE
:1000F000054CE0FB7574037D477F1612BFF2900537
:100100004DE0FB7574037D487F1612BFF290054EDB
:10011000E0FB7574037DDA7F1612BFF290054FE0A5
:10012000FB7574037DDB7F1612BFF2900550E0FB78
:100130007574037DDC7F1612BFF2900551E0FB75EC
:1001400074037DDD7F1612BFF2900552E0FB7574DB
:10015000037DE27F1612BFF2900553E0FB75740336
:100160007DE37F1612BFF2900552E0FB7574037DAC
:10017000E47F1612BFF2900553E0FB7574037DE532
:100180007F1612BFF2900552E0FB7574037DE67F87
:100190001612BFF2900553E0FB7574037DE77F16DE
:1001A00012BFF2900554E0FB7574037DE87F1612D0
:1001B000BFF2900555E0FB7574037DE97F1612BF11
:1001C000F2900556E0FB7574037DF37F1612BFF2C3
:1001D000900557E0FB7574037DF47F1612BFF29013
:1001E0000558E0FB7574037DF57F1612BFF290058C
:1001F00059E0FB7574037DF67F1612BFF290055A25
:10020000E0FB7574037DF77F1612BFF290055BE08B
:10021000FB7574037DF87F1612BFF27F4012CBA9E5
:100220009005A6E0FB7574037D087F1612BFF2905F
:1002300005A5E0FB7574037D077F1612BFF29005DC
:10024000A4E0FB7574037D067F1612BFF29005B221
:10025000E0FB7574037D1D7F1612BFF29005B1E0BF
:10026000FB7574037D1C7F1612BFF29005B0E0FB96
:100270007574037D1B7F1612BFF27574037BE57DD9
:10028000167F1612BFF27574037B2F7D197F16122D
:10029000BFF29005A3E0FB7574037D057F1612BFC6
:1002A000F29005A0E0FB7574037D027F1612BFF289
:1002B0009005A2E0FB7574037D047F1612BFF290D7
:1002C000059FE0FB7574037D017F1612BFF2900558
:1002D000A1E0FB7574037D037F1612BFF290059EAB
:1002E000E0FB757403E4FD7F1612BFF29005A9E0F0
:1002F000FB7574037D0B7F1612BFF29005AFE0FB18
:100300007574037D117F1612BFF29005A8E0FB758E
:1003100074037D0A7F1612BFF29005AEE0FB757480
:10032000037D107F1612BFF29005A7E0FB757403E2
:100330007D097F1612BFF29005ADE0FB7574037D59
:100340000F7F1612BFF29005ACE0FB7574037D0EB3
:100350007F1612BFF29005ABE0FB7574037D0D7F35
:100360001612BFF29005AA020BF57F2112CBA990BD
:10037000055CE0FB7574037D087F1612BFF29005E3
:100380005DE0FB7574037D107F1612BFF290055E71
:10039000E0FB7574037D117F1612BFF290055FE0DC
:1003A000FB7574037D147F1612BFF2900560E0FBAD
:1003B0007574037DB37F1612BFF2900561E0FB7583
:1003C00074037D467F1612BFF2900562E0FB7574E0
:1003D000037D477F1612BFF2900563E0FB7574033F
:1003E0007D487F1612BFF2900564E0FB7574037DB3
:1003F000DA7F1612BFF2900565E0FB7574037DDBB2
:100400007F1612BFF2900566E0FB7574037DDC7FFA
:100410001612BFF2900567E0FB7574037DDD7F1651
:1004200012BFF2900568E0FB7574037DE27F16123F
:10043000BFF2900569E0FB7574037DE37F1612BF80
:10044000F2900568E0FB7574037DE47F1612BFF23D
:10045000900569E0FB7574037DE57F1612BFF2908D
:100460000568E0FB7574037DE67F1612BFF2900508
:1004700069E0FB7574037DE77F1612BFF290056A91
:10048000E0FB7574037DE87F1612BFF290056BE008
:10049000FB7574037DE97F1612BFF290056CE0FBDB
:1004A0007574037DF37F1612BFF290056DE0FB7546
:1004B00074037DF47F1612BFF290056EE0FB757435
:1004C000037DF57F1612BFF290056FE0FB75740394
:1004D0007DF67F1612BFF2900570E0FB7574037D08
:1004E000F77F1612BFF2900571E0FB7574037DF87B
:1004F0007F1612BFF27F4112CBA99005CBE0FB75AE
:1005000074037D087F1612BFF29005CAE0FB757474
:10051000037D077F1612BFF29005C9E0FB757403D7
:100520007D067F1612BFF29005D7E0FB7574037D40
:100530001D7F1612BFF29005D6E0FB7574037D1C7B
:100540007F1612BFF29005D5E0FB7574037D1B7F0B
:100550001612BFF27574037BE57D167F1612BFF28B
:100560007574037B2F7D197F1612BFF29005C8E0CA
:10057000FB7574037D057F1612BFF29005C5E0FB85
:100580007574037D027F1612BFF29005C7E0FB75FC
:1005900074037D047F1612BFF29005C4E0FB7574EE
:1005A000037D017F1612BFF29005C6E0FB75740350
:1005B0007D037F1612BFF29005C3E0FB757403E460
:1005C000FD7F1612BFF29005CEE0FB7574037D0B24
:1005D0007F1612BFF29005D4E0FB7574037D117F86
:1005E0001612BFF29005CDE0FB7574037D0A7F16ED
:1005F00012BFF29005D3E0FB7574037D107F1612D5
:10060000BFF29005CCE0FB7574037D097F1612BF25
:10061000F29005D2E0FB7574037D0F7F1612BFF2D6
:100620009005D1E0FB7574037D0E7F1612BFF2902A
:1006300005D0E0FB7574037D0D7F1612BFF29005A7
:10064000CF020BF57F2212CBA9900572E0FB7574E7
:10065000037D087F1612BFF2900573E0FB757403EB
:100660007D107F1612BFF2900574E0FB7574037D58
:10067000117F1612BFF2900575E0FB7574037D14AF
:100680007F1612BFF2900576E0FB7574037DB37F91
:100690001612BFF2900577E0FB7574037D467F1656
:1006A00012BFF2900578E0FB7574037D477F161248
:1006B000BFF2900579E0FB7574037D487F1612BF89
:1006C000F290057AE0FB7574037DDA7F1612BFF2B3
:1006D00090057BE0FB7574037DDB7F1612BFF29003
:1006E000057CE0FB7574037DDC7F1612BFF290057C
:1006F0007DE0FB7574037DDD7F1612BFF290057EF1
:10070000E0FB7574037DE27F1612BFF290057FE077
:10071000FB7574037DE37F1612BFF290057EE0FB4C
:100720007574037DE47F1612BFF290057FE0FB75C0
:1007300074037DE57F1612BFF290057EE0FB7574B1
:10074000037DE67F1612BFF290057FE0FB75740310
:100750007DE77F1612BFF2900580E0FB7574037D84
:10076000E87F1612BFF2900581E0FB7574037DE906
:100770007F1612BFF2900582E0FB7574037DF37F54
:100780001612BFF2900583E0FB7574037DF47F16AB
:1007900012BFF2900584E0FB7574037DF57F16129D
:1007A000BFF2900585E0FB7574037DF67F1612BFDE
:1007B000F2900586E0FB7574037DF77F1612BFF299
:1007C000900587E0FB7574037DF87F1612BFF27FFA
:1007D0004212CBA99005E0E0FB7574037D087F16FB
:1007E00012BFF29005DFE0FB7574037D077F1612E0
:1007F000BFF29005DEE0FB7574037D067F1612BF25
:10080000F29005ECE0FB7574037D1D7F1612BFF2BC
:100810009005EBE0FB7574037D1C7F1612BFF29010
:1008200005EAE0FB7574037D1B7F1612BFF2757439
:10083000037BE57D167F1612BFF27574037B2F7D57
:10084000197F1612BFF29005DDE0FB7574037D057C
:100850007F1612BFF29005DAE0FB7574037D027F0C
:100860001612BFF29005DCE0FB7574037D047F1661
:1008700012BFF29005D9E0FB7574037D017F16125B
:10088000BFF29005DBE0FB7574037D037F1612BF9A
:10089000F29005D8E0FB757403E4FD7F1612BFF2F9
:1008A0009005E3E0FB7574037D0B7F1612BFF29099
:1008B00005E9E0FB7574037D117F1612BFF2900508
:1008C000E2E0FB7574037D0A7F1612BFF29005E823
:1008D000E0FB7574037D107F1612BFF29005E1E016
:1008E000FB7574037D097F1612BFF29005E7E0FBEC
:1008F0007574037D0F7F1612BFF29005E6E0FB755D
:1009000074037D0E7F1612BFF29005E5E0FB75744F
:10091000037D0D7F1612BFF29005E4020BF57F23D5
:1009200012CBA9900588E0FB7574037D087F161231
:10093000BFF2900589E0FB7574037D107F1612BF2E
:10094000F290058AE0FB7574037D117F1612BFF2E9
:1009500090058BE0FB7574037D147F1612BFF29037
:10096000058CE0FB7574037DB37F1612BFF2900512
:100970008DE0FB7574037D467F1612BFF290058EE5
:10098000E0FB7574037D477F1612BFF290058FE080
:10099000FB7574037D487F1612BFF2900590E0FB53
:1009A0007574037DDA7F1612BFF2900591E0FB7536
:1009B00074037DDB7F1612BFF2900592E0FB757425
:1009C000037DDC7F1612BFF2900593E0FB75740384
:1009D0007DDD7F1612BFF2900594E0FB7574037DF8
:1009E000E27F1612BFF2900595E0FB7574037DE37C
:1009F0007F1612BFF2900594E0FB7574037DE47FCF
:100A00001612BFF2900595E0FB7574037DE57F1625
:100A100012BFF2900594E0FB7574037DE67F161219
:100A2000BFF2900595E0FB7574037DE77F1612BF5A
:100A3000F2900596E0FB7574037DE87F1612BFF215
:100A4000900597E0FB7574037DE97F1612BFF29065
:100A50000598E0FB7574037DF37F1612BFF29005D5
:100A600099E0FB7574037DF47F1612BFF290059A2E
:100A7000E0FB7574037DF57F1612BFF290059BE0D5
:100A8000FB7574037DF67F1612BFF290059CE0FBA8
:100A90007574037DF77F1612BFF290059DE0FB751C
:100AA00074037DF87F1612BFF27F4312CBA9900525
:100AB000F5E0FB7574037D087F1612BFF29005F414
:100AC000E0FB7574037D077F1612BFF29005F3E01B
:100AD000FB7574037D067F1612BFF2900601E0FBE2
:100AE0007574037D1D7F1612BFF2900600E0FB7542
:100AF00074037D1C7F1612BFF29005FFE0FB757436
:100B0000037D1B7F1612BFF27574037BE57D167F94
:100B10001612BFF27574037B2F7D197F1612BFF278
:100B20009005F2E0FB7574037D057F1612BFF2900D
:100B300005EFE0FB7574037D027F1612BFF290058E
:100B4000F1E0FB7574037D047F1612BFF29005EE91
:100B5000E0FB7574037D017F1612BFF29005F0E093
:100B6000FB7574037D037F1612BFF29005EDE0FB69
:100B7000757403E4FD7F1612BFF29005F8E0FB7573
:100B800074037D0B7F1612BFF29005FEE0FB7574B7
:100B9000037D117F1612BFF29005F7E0FB75740319
:100BA0007D0A7F1612BFF29005FDE0FB7574037D90
:100BB000107F1612BFF29005F6E0FB7574037D09F5
:100BC0007F1612BFF29005FCE0FB7574037D0F7F6A
:100BD0001612BFF29005FBE0FB7574037D0E7F16C5
:100BE00012BFF29005FAE0FB7574037D0D7F1612BB
:100BF000BFF29005F9E0FB7574037D0C7F1612BF00
:100C0000F222EF147003020EF61470030211D014D6
:100C100070030214AA2403600302178D7F2012CBF5
:100C2000B5900833E0FB7574027D087F1612BFF2A1
:100C3000900834E0FB7574027D107F1612BFF290AD
:100C40000835E0FB7574027D117F1612BFF2900823
:100C500036E0FB7574027D147F1612BFF2900837E0
:100C6000E0FB7574027DB37F1612BFF2900838E086
:100C7000FB7574027D467F1612BFF2900839E0FBC7
:100C80007574027D477F1612BFF290083AE0FB753B
:100C900074027D487F1612BFF290083BE0FB75742A
:100CA000027DDA7F1612BFF290083CE0FB757402F9
:100CB0007DDB7F1612BFF290083DE0FB7574027D6C
:100CC000DC7F1612BFF290083EE0FB7574027DDDFA
:100CD0007F1612BFF290083FE0FB7574027DE27F41
:100CE0001612BFF2900840E0FB7574027DE37F1698
:100CF00012BFF290083FE0FB7574027DE47F16128C
:100D0000BFF2900840E0FB7574027DE57F1612BFCC
:100D1000F290083FE0FB7574027DE67F1612BFF289
:100D2000900840E0FB7574027DE77F1612BFF290D9
:100D30000841E0FB7574027DE87F1612BFF290084F
:100D400042E0FB7574027DE97F1612BFF290084302
:100D5000E0FB7574027DF37F1612BFF2900844E049
:100D6000FB7574027DF47F1612BFF2900845E0FB1C
:100D70007574027DF57F1612BFF2900846E0FB7590
:100D800074027DF67F1612BFF2900847E0FB75747F
:100D9000027DF77F1612BFF2900848E0FB757402DF
:100DA0007DF87F1612BFF27F4012CBB5900893E01A
:100DB000FB7574027D087F1612BFF2900892E0FB6B
:100DC0007574027D077F1612BFF2900891E0FB75E3
:100DD00074027D067F1612BFF290089FE0FB7574C7
:100DE000027D1D7F1612BFF290089EE0FB75740213
:100DF0007D1C7F1612BFF290089DE0FB7574027D8A
:100E00001B7F1612BFF27574027BE57D167F1612EA
:100E1000BFF27574027B2F7D197F1612BFF2900806
:100E200090E0FB7574027D057F1612BFF290088D6D
:100E3000E0FB7574027D027F1612BFF290088FE00E
:100E4000FB7574027D047F1612BFF290088CE0FBE4
:100E50007574027D017F1612BFF290088EE0FB755B
:100E600074027D037F1612BFF290088BE0FB75744D
:100E700002E4FD7F1612BFF2900896E0FB75740243
:100E80007D0B7F1612BFF290089CE0FB7574027D0B
:100E9000117F1612BFF2900895E0FB7574027D0A6F
:100EA0007F1612BFF290089BE0FB7574027D107FE5
:100EB0001612BFF2900894E0FB7574027D097F164C
:100EC00012BFF290089AE0FB7574027D0F7F161234
:100ED000BFF2900899E0FB7574027D0E7F1612BF79
:100EE000F2900898E0FB7574027D0D7F1612BFF238
:100EF0009008970217817F2112CBB5900849E0FB3B
:100F00007574027D087F1612BFF290084AE0FB75E7
:100F100074027D107F1612BFF290084BE0FB7574CF
:100F2000027D117F1612BFF290084CE0FB7574022F
:100F30007D147F1612BFF290084DE0FB7574027DA0
:100F4000B37F1612BFF290084EE0FB7574027D4627
:100F50007F1612BFF290084FE0FB7574027D477F49
:100F60001612BFF2900850E0FB7574027D487F16A0
:100F700012BFF2900851E0FB7574027DDA7F161201
:100F8000BFF2900852E0FB7574027DDB7F1612BF42
:100F9000F2900853E0FB7574027DDC7F1612BFF2FD
:100FA000900854E0FB7574027DDD7F1612BFF2904D
:100FB0000855E0FB7574027DE27F1612BFF29008BF
:100FC00056E0FB7574027DE37F1612BFF290085560
:100FD000E0FB7574027DE47F1612BFF2900856E0C4
:100FE000FB7574027DE57F1612BFF2900855E0FB99
:100FF0007574027DE67F1612BFF2900856E0FB750D
:1010000074027DE77F1612BFF2900857E0FB7574FB
:10101000027DE87F1612BFF2900858E0FB7574025B
:101020007DE97F1612BFF2900859E0FB7574027DCE
:10103000F37F1612BFF290085AE0FB7574027DF43C
:101040007F1612BFF290085BE0FB7574027DF57F9E
:101050001612BFF290085CE0FB7574027DF67F16F5
:1010600012BFF290085DE0FB7574027DF77F1612E7
:10107000BFF290085EE0FB7574027DF87F1612BF28
:10108000F27F4112CBB590060AE0FB7574027D0831
:101090007F1612BFF2900609E0FB7574027D077F90
:1010A0001612BFF2900608E0FB7574027D067F16EB
:1010B00012BFF2900616E0FB7574027D1D7F1612BA
:1010C000BFF2900615E0FB7574027D1C7F1612BFFF
:1010D000F2900614E0FB7574027D1B7F1612BFF2BE
:1010E0007574027BE57D167F1612BFF27574027B64
:1010F0002F7D197F1612BFF2900607E0FB75740270
:101100007D057F1612BFF2900604E0FB7574027D28
:10111000027F1612BFF2900606E0FB7574027D0492
:101120007F1612BFF2900603E0FB7574027D017F0B
:101130001612BFF2900605E0FB7574027D037F1660
:1011400012BFF2900602E0FB757402E4FD7F1612F6
:10115000BFF290060DE0FB7574027D0B7F1612BF87
:10116000F2900613E0FB7574027D117F1612BFF238
:1011700090060CE0FB7574027D0A7F1612BFF29098
:101180000612E0FB7574027D107F1612BFF2900606
:101190000BE0FB7574027D097F1612BFF2900611F9
:1011A000E0FB7574027D0F7F1612BFF2900610E00F
:1011B000FB7574027D0E7F1612BFF290060FE0FBE6
:1011C0007574027D0D7F1612BFF290060E02178114
:1011D0007F2212CBB590085FE0FB7574027D087F1B
:1011E0001612BFF2900860E0FB7574027D107F1646
:1011F00012BFF2900861E0FB7574027D117F161238
:10120000BFF2900862E0FB7574027D147F1612BF76
:10121000F2900863E0FB7574027DB37F1612BFF293
:10122000900864E0FB7574027D467F1612BFF29051
:101230000865E0FB7574027D477F1612BFF29008C7
:1012400066E0FB7574027D487F1612BFF290086756
:10125000E0FB7574027DDA7F1612BFF2900868E039
:10126000FB7574027DDB7F1612BFF2900869E0FB0C
:101270007574027DDC7F1612BFF290086AE0FB7580
:1012800074027DDD7F1612BFF290086BE0FB75746F
:10129000027DE27F1612BFF290086CE0FB757402CB
:1012A0007DE37F1612BFF290086BE0FB7574027D40
:1012B000E47F1612BFF290086CE0FB7574027DE5C6
:1012C0007F1612BFF290086BE0FB7574027DE67F1B
:1012D0001612BFF290086CE0FB7574027DE77F1672
:1012E00012BFF290086DE0FB7574027DE87F161264
:1012F000BFF290086EE0FB7574027DE97F1612BFA5
:10130000F290086FE0FB7574027DF37F1612BFF256
:10131000900870E0FB7574027DF47F1612BFF290A6
:101320000871E0FB7574027DF57F1612BFF290081C
:1013300072E0FB7574027DF67F1612BFF29008739F
:10134000E0FB7574027DF77F1612BFF2900874E01F
:10135000FB7574027DF87F1612BFF27F4212CBB587
:1013600090061FE0FB7574027D087F1612BFF29095
:10137000061EE0FB7574027D077F1612BFF2900611
:101380001DE0FB7574027D067F1612BFF290062BDE
:10139000E0FB7574027D1D7F1612BFF290062AE0F5
:1013A000FB7574027D1C7F1612BFF2900629E0FBCC
:1013B0007574027D1B7F1612BFF27574027BE57D8A
:1013C000167F1612BFF27574027B2F7D197F1612DD
:1013D000BFF290061CE0FB7574027D057F1612BFFC
:1013E000F2900619E0FB7574027D027F1612BFF2BF
:1013F00090061BE0FB7574027D047F1612BFF2900D
:101400000618E0FB7574027D017F1612BFF290068C
:101410001AE0FB7574027D037F1612BFF290061767
:10142000E0FB757402E4FD7F1612BFF2900622E025
:10143000FB7574027D0B7F1612BFF2900628E0FB4D
:101440007574027D117F1612BFF2900621E0FB75C4
:1014500074027D0A7F1612BFF2900627E0FB7574B6
:10146000027D107F1612BFF2900620E0FB75740219
:101470007D097F1612BFF2900626E0FB7574027D8F
:101480000F7F1612BFF2900625E0FB7574027D0EE9
:101490007F1612BFF2900624E0FB7574027D0D7F6B
:1014A0001612BFF29006230217817F2312CBB5904C
:1014B0000875E0FB7574027D087F1612BFF2900874
:1014C00076E0FB7574027D107F1612BFF2900877EC
:1014D000E0FB7574027D117F1612BFF2900878E070
:1014E000FB7574027D147F1612BFF2900879E0FB41
:1014F0007574027DB37F1612BFF290087AE0FB7517
:1015000074027D467F1612BFF290087BE0FB757473
:10151000027D477F1612BFF290087CE0FB757402D3
:101520007D487F1612BFF290087DE0FB7574027D46
:10153000DA7F1612BFF290087EE0FB7574027DDB45
:101540007F1612BFF290087FE0FB7574027DDC7F8E
:101550001612BFF2900880E0FB7574027DDD7F16E5
:1015600012BFF2900881E0FB7574027DE27F1612D3
:10157000BFF2900882E0FB7574027DE37F1612BF14
:10158000F2900881E0FB7574027DE47F1612BFF2D1
:10159000900882E0FB7574027DE57F1612BFF29021
:1015A0000881E0FB7574027DE67F1612BFF2900899
:1015B00082E0FB7574027DE77F1612BFF29008830C
:1015C000E0FB7574027DE87F1612BFF2900884E09C
:1015D000FB7574027DE97F1612BFF2900885E0FB6F
:1015E0007574027DF37F1612BFF2900886E0FB75DA
:1015F00074027DF47F1612BFF2900887E0FB7574C9
:10160000027DF57F1612BFF2900888E0FB75740228
:101610007DF67F1612BFF2900889E0FB7574027D9B
:10162000F77F1612BFF290088AE0FB7574027DF80E
:101630007F1612BFF27F4312CBB5900634E0FB75E4
:1016400074027D087F1612BFF2900633E0FB7574BA
:10165000027D077F1612BFF2900632E0FB7574021E
:101660007D067F1612BFF2900640E0FB7574027D86
:101670001D7F1612BFF290063FE0FB7574027D1CC1
:101680007F1612BFF290063EE0FB7574027D1B7F51
:101690001612BFF27574027BE57D167F1612BFF23B
:1016A0007574027B2F7D197F1612BFF2900631E010
:1016B000FB7574027D057F1612BFF290062EE0FBCB
:1016C0007574027D027F1612BFF2900630E0FB7542
:1016D00074027D047F1612BFF290062DE0FB757434
:1016E000027D017F1612BFF290062FE0FB75740297
:1016F0007D037F1612BFF290062CE0FB757402E4A6
:10170000FD7F1612BFF2900637E0FB7574027D0B69
:101710007F1612BFF290063DE0FB7574027D117FCB
:101720001612BFF2900636E0FB7574027D0A7F1632
:1017300012BFF290063CE0FB7574027D107F16121A
:10174000BFF2900635E0FB7574027D097F1612BF6B
:10175000F290063BE0FB7574027D0F7F1612BFF21C
:1017600090063AE0FB7574027D0E7F1612BFF29070
:101770000639E0FB7574027D0D7F1612BFF29006EC
:1017800038E0FB7574027D0C7F1612BFF222EF1455
:101790007003021A6A147003021D2C147003021FD6
:1017A000EE240360030222B97F2012CB9D9007B381
:1017B000E0FB7574017D087F1812BFF29007B4E05A
:1017C000FB7574017D107F1812BFF29007B5E0FB26
:1017D0007574017D117F1812BFF29007B6E0FB759A
:1017E00074017D147F1812BFF29007B7E0FB757487
:1017F000017DB37F1812BFF29007B8E0FB7574014A
:101800007D467F1812BFF29007B9E0FB7574017D29
:10181000477F1812BFF29007BAE0FB7574017D484C
:101820007F1812BFF29007BBE0FB7574017DDA7F71
:101830001812BFF29007BCE0FB7574017DDB7F18C6
:1018400012BFF29007BDE0FB7574017DDC7F1812BA
:10185000BFF29007BEE0FB7574017DDD7F1812BFFB
:10186000F29007BFE0FB7574017DE27F1812BFF2B2
:101870009007C0E0FB7574017DE37F1812BFF29002
:1018800007BFE0FB7574017DE47F1812BFF290077B
:10189000C0E0FB7574017DE57F1812BFF29007BFB1
:1018A000E0FB7574017DE67F1812BFF29007C0E07F
:1018B000FB7574017DE77F1812BFF29007C1E0FB52
:1018C0007574017DE87F1812BFF29007C2E0FB75C6
:1018D00074017DE97F1812BFF29007C3E0FB7574B5
:1018E000017DF37F1812BFF29007C4E0FB7574010D
:1018F0007DF47F1812BFF29007C5E0FB7574017D7F
:10190000F57F1812BFF29007C6E0FB7574017DF6F3
:101910007F1812BFF29007C7E0FB7574017DF77F57
:101920001812BFF29007C8E0FB7574017DF87F18AC
:1019300012BFF27F4012CB9D90080BE0FB75740143
:10194000E4FD7F1812BFF290080CE0FB7574017D76
:10195000017F1812BFF290080DE0FB7574017D0243
:101960007F1812BFF290080EE0FB7574017D037FB3
:101970001812BFF290080FE0FB7574017D047F1808
:1019800012BFF2900810E0FB7574017D057F1812FC
:10199000BFF2900811E0FB7574017D067F1812BF3D
:1019A000F2900812E0FB7574017D077F1812BFF2F8
:1019B000900813E0FB7574017D087F1812BFF29048
:1019C0000814E0FB7574017D097F1812BFF29008BE
:1019D00015E0FB7574017D0A7F1812BFF29008169E
:1019E000E0FB7574017D0B7F1812BFF2900817E0C1
:1019F000FB7574017D0C7F1812BFF2900818E0FB94
:101A00007574017D0D7F1812BFF2900819E0FB7507
:101A100074017D0E7F1812BFF290081AE0FB7574F6
:101A2000017D0F7F1812BFF290081BE0FB75740157
:101A30007D107F1812BFF290081CE0FB7574017DC9
:101A4000117F1812BFF290081DE0FB7574017D1B19
:101A50007F1812BFF290081EE0FB7574017D1C7F99
:101A60001812BFF290081F0222AD7F2112CB9D9069
:101A700007C9E0FB7574017D087F1812BFF290075B
:101A8000CAE0FB7574017D107F1812BFF29007CB7E
:101A9000E0FB7574017D117F1812BFF29007CCE056
:101AA000FB7574017D147F1812BFF29007CDE0FB27
:101AB0007574017DB37F1812BFF29007CEE0FB75FD
:101AC00074017D467F1812BFF29007CFE0FB75745A
:101AD000017D477F1812BFF29007D0E0FB757401BB
:101AE0007D487F1812BFF29007D1E0FB7574017D2D
:101AF000DA7F1812BFF29007D2E0FB7574017DDB2C
:101B00007F1812BFF29007D3E0FB7574017DDC7F74
:101B10001812BFF29007D4E0FB7574017DDD7F18C9
:101B200012BFF29007D5E0FB7574017DE27F1812B9
:101B3000BFF29007D6E0FB7574017DE37F1812BFFA
:101B4000F29007D5E0FB7574017DE47F1812BFF2B7
:101B50009007D6E0FB7574017DE57F1812BFF29007
:101B600007D5E0FB7574017DE67F1812BFF2900780
:101B7000D6E0FB7574017DE77F1812BFF29007D79E
:101B8000E0FB7574017DE87F1812BFF29007D8E082
:101B9000FB7574017DE97F1812BFF29007D9E0FB55
:101BA0007574017DF37F1812BFF29007DAE0FB75C0
:101BB00074017DF47F1812BFF29007DBE0FB7574AF
:101BC000017DF57F1812BFF29007DCE0FB75740110
:101BD0007DF67F1812BFF29007DDE0FB7574017D82
:101BE000F77F1812BFF29007DEE0FB7574017DF8F5
:101BF0007F1812BFF27F4112CB9D900502E0FB756A
:101C00007401E4FD7F1812BFF2900503E0FB7574C8
:101C1000017D017F1812BFF2900504E0FB7574018D
:101C20007D027F1812BFF2900505E0FB7574017DFF
:101C3000037F1812BFF2900506E0FB7574017D0466
:101C40007F1812BFF2900507E0FB7574017D057FD8
:101C50001812BFF2900508E0FB7574017D067F182D
:101C600012BFF2900509E0FB7574017D077F181221
:101C7000BFF290050AE0FB7574017D087F1812BF62
:101C8000F290050BE0FB7574017D097F1812BFF21D
:101C900090050CE0FB7574017D0A7F1812BFF2906D
:101CA000050DE0FB7574017D0B7F1812BFF29005E6
:101CB0000EE0FB7574017D0C7F1812BFF290050FCA
:101CC000E0FB7574017D0D7F1812BFF2900510E0E6
:101CD000FB7574017D0E7F1812BFF2900511E0FBB9
:101CE0007574017D0F7F1812BFF2900512E0FB752D
:101CF00074017D107F1812BFF2900513E0FB75741C
:101D0000017D117F1812BFF2900514E0FB7574017C
:101D10007D1B7F1812BFF2900515E0FB7574017DE5
:101D20001C7F1812BFF29005160222AD7F2212CB43
:101D30009D9007DFE0FB7574017D087F1812BFF2EC
:101D40009007E0E0FB7574017D107F1812BFF290E0
:101D500007E1E0FB7574017D117F1812BFF2900757
:101D6000E2E0FB7574017D147F1812BFF29007E367
:101D7000E0FB7574017DB37F1812BFF29007E4E0B9
:101D8000FB7574017D467F1812BFF29007E5E0FBFA
:101D90007574017D477F1812BFF29007E6E0FB756E
:101DA00074017D487F1812BFF29007E7E0FB75745D
:101DB000017DDA7F1812BFF29007E8E0FB7574012D
:101DC0007DDB7F1812BFF29007E9E0FB7574017D9F
:101DD000DC7F1812BFF29007EAE0FB7574017DDD2D
:101DE0007F1812BFF29007EBE0FB7574017DE27F74
:101DF0001812BFF29007ECE0FB7574017DE37F18C9
:101E000012BFF29007EBE0FB7574017DE47F1812BE
:101E1000BFF29007ECE0FB7574017DE57F1812BFFF
:101E2000F29007EBE0FB7574017DE67F1812BFF2BC
:101E30009007ECE0FB7574017DE77F1812BFF2900C
:101E400007EDE0FB7574017DE87F1812BFF2900783
:101E5000EEE0FB7574017DE97F1812BFF29007EF89
:101E6000E0FB7574017DF37F1812BFF29007F0E07C
:101E7000FB7574017DF47F1812BFF29007F1E0FB4F
:101E80007574017DF57F1812BFF29007F2E0FB75C3
:101E900074017DF67F1812BFF29007F3E0FB7574B2
:101EA000017DF77F1812BFF29007F4E0FB75740113
:101EB0007DF87F1812BFF27F4212CB9D900517E08C
:101EC000FB757401E4FD7F1812BFF2900518E0FB6A
:101ED0007574017D017F1812BFF2900519E0FB7542
:101EE00074017D027F1812BFF290051AE0FB757431
:101EF000017D037F1812BFF290051BE0FB75740192
:101F00007D047F1812BFF290051CE0FB7574017D03
:101F1000057F1812BFF290051DE0FB7574017D0668
:101F20007F1812BFF290051EE0FB7574017D077FDC
:101F30001812BFF290051FE0FB7574017D087F1831
:101F400012BFF2900520E0FB7574017D097F181225
:101F5000BFF2900521E0FB7574017D0A7F1812BF66
:101F6000F2900522E0FB7574017D0B7F1812BFF221
:101F7000900523E0FB7574017D0C7F1812BFF29071
:101F80000524E0FB7574017D0D7F1812BFF29005EA
:101F900025E0FB7574017D0E7F1812BFF2900526B7
:101FA000E0FB7574017D0F7F1812BFF2900527E0EA
:101FB000FB7574017D107F1812BFF2900528E0FBBD
:101FC0007574017D117F1812BFF2900529E0FB7531
:101FD00074017D1B7F1812BFF290052AE0FB757417
:101FE000017D1C7F1812BFF290052B0222AD7F23CA
:101FF00012CB9D9007F5E0FB7574017D087F1812E8
:10200000BFF29007F6E0FB7574017D107F1812BFD8
:10201000F29007F7E0FB7574017D117F1812BFF293
:102020009007F8E0FB7574017D147F1812BFF290E1
:1020300007F9E0FB7574017DB37F1812BFF29007BA
:10204000FAE0FB7574017D467F1812BFF29007FB22
:10205000E0FB7574017D477F1812BFF29007FCE02A
:10206000FB7574017D487F1812BFF29007FDE0FBFD
:102070007574017DDA7F1812BFF29007FEE0FB75E0
:1020800074017DDB7F1812BFF29007FFE0FB7574CF
:10209000017DDC7F1812BFF2900800E0FB7574012F
:1020A0007DDD7F1812BFF2900801E0FB7574017DA1
:1020B000E27F1812BFF2900802E0FB7574017DE325
:1020C0007F1812BFF2900801E0FB7574017DE47F78
:1020D0001812BFF2900802E0FB7574017DE57F18CD
:1020E00012BFF2900801E0FB7574017DE67F1812C3
:1020F000BFF2900802E0FB7574017DE77F1812BF04
:10210000F2900803E0FB7574017DE87F1812BFF2BE
:10211000900804E0FB7574017DE97F1812BFF2900E
:102120000805E0FB7574017DF37F1812BFF290087B
:1021300006E0FB7574017DF47F1812BFF29008076A
:10214000E0FB7574017DF57F1812BFF2900808E07E
:10215000FB7574017DF67F1812BFF2900809E0FB51
:102160007574017DF77F1812BFF290080AE0FB75C5
:1021700074017DF87F1812BFF27F4312CB9D90054A
:102180002CE0FB757401E4FD7F1812BFF290052D61
:10219000E0FB7574017D017F1812BFF290052EE0FF
:1021A000FB7574017D027F1812BFF290052FE0FBD2
:1021B0007574017D037F1812BFF2900530E0FB7546
:1021C00074017D047F1812BFF2900531E0FB757435
:1021D000017D057F1812BFF2900532E0FB75740196
:1021E0007D067F1812BFF2900533E0FB7574017D08
:1021F000077F1812BFF2900534E0FB7574017D086B
:102200007F1812BFF2900535E0FB7574017D097FE0
:102210001812BFF2900536E0FB7574017D0A7F1835
:1022200012BFF2900537E0FB7574017D0B7F181229
:10223000BFF2900538E0FB7574017D0C7F1812BF6A
:10224000F2900539E0FB7574017D0D7F1812BFF225
:1022500090053AE0FB7574017D0E7F1812BFF29075
:10226000053BE0FB7574017D0F7F1812BFF29005EE
:102270003CE0FB7574017D107F1812BFF290053DA4
:10228000E0FB7574017D117F1812BFF290053EE0EE
:10229000FB7574017D1B7F1812BFF290053FE0FBB8
:1022A0007574017D1C7F1812BFF2900540E0FB752C
:1022B00074017D1D7F1812BFF222EF1470030225F6
:1022C00095147003022856147003022B1724036020
:1022D00003022DE17F2012CB91900446E0FBE4F550
:1022E000747D087F1812BFF2900447E0FBE4F57498
:1022F0007D107F1812BFF2900448E0FBE4F5747D76
:10230000117F1812BFF2900449E0FBE4F5747D14CC
:102310007F1812BFF290044AE0FBE4F5747DB37FAE
:102320001812BFF290044BE0FBE4F5747D467F1871
:1023300012BFF290044CE0FBE4F5747D477F181265
:10234000BFF290044DE0FBE4F5747D487F1812BFA6
:10235000F290044EE0FBE4F5747DDA7F1812BFF2D0
:1023600090044FE0FBE4F5747DDB7F1812BFF29020
:102370000450E0FBE4F5747DDC7F1812BFF290049A
:1023800051E0FBE4F5747DDD7F1812BFF29004523A
:10239000E0FBE4F5747DE27F1812BFF2900453E095
:1023A000FBE4F5747DE37F1812BFF2900452E0FB6A
:1023B000E4F5747DE47F1812BFF2900453E0FBE46F
:1023C000F5747DE57F1812BFF2900452E0FBE4F54E
:1023D000747DE67F1812BFF2900453E0FBE4F574BD
:1023E0007DE77F1812BFF2900454E0FBE4F5747DA2
:1023F000E87F1812BFF2900455E0FBE4F5747DE924
:102400007F1812BFF2900456E0FBE4F5747DF37F71
:102410001812BFF2900457E0FBE4F5747DF47F18C6
:1024200012BFF2900458E0FBE4F5747DF57F1812BA
:10243000BFF2900459E0FBE4F5747DF67F1812BFFB
:10244000F290045AE0FBE4F5747DF77F1812BFF2B6
:1024500090045BE0FBE4F5747DF87F1812BFF27F17
:102460004012CB9190049EE0FBE4F574FD7F1812BE
:10247000BFF290049FE0FBE4F5747D017F1812BF6A
:10248000F29004A0E0FBE4F5747D027F1812BFF225
:102490009004A1E0FBE4F5747D037F1812BFF29075
:1024A00004A2E0FBE4F5747D047F1812BFF29004EF
:1024B000A3E0FBE4F5747D057F1812BFF29004A43D
:1024C000E0FBE4F5747D067F1812BFF29004A5E0EE
:1024D000FBE4F5747D077F1812BFF29004A6E0FBC1
:1024E000E4F5747D087F1812BFF29004A7E0FBE4C6
:1024F000F5747D097F1812BFF29004A8E0FBE4F5A3
:10250000747D0A7F1812BFF29004A9E0FBE4F57411
:102510007D0B7F1812BFF29004AAE0FBE4F5747DF6
:102520000C7F1812BFF29004ABE0FBE4F5747D0D54
:102530007F1812BFF29004ACE0FBE4F5747D0E7FCF
:102540001812BFF29004ADE0FBE4F5747D0F7F1824
:1025500012BFF29004AEE0FBE4F5747D107F181218
:10256000BFF29004AFE0FBE4F5747D117F1812BF59
:10257000F29004B0E0FBE4F5747D1B7F1812BFF20B
:102580009004B1E0FBE4F5747D1C7F1812BFF2905B
:1025900004B2022DD57F2112CB9190045CE0FBE4C4
:1025A000F5747D087F1812BFF290045DE0FBE4F53E
:1025B000747D107F1812BFF290045EE0FBE4F574A6
:1025C0007D117F1812BFF290045FE0FBE4F5747D8B
:1025D000147F1812BFF2900460E0FBE4F5747DB341
:1025E0007F1812BFF2900461E0FBE4F5747D467F32
:1025F0001812BFF2900462E0FBE4F5747D477F1887
:1026000012BFF2900463E0FBE4F5747D487F18127A
:10261000BFF2900464E0FBE4F5747DDA7F1812BF2A
:10262000F2900465E0FBE4F5747DDB7F1812BFF2E5
:10263000900466E0FBE4F5747DDC7F1812BFF29035
:102640000467E0FBE4F5747DDD7F1812BFF29004AF
:1026500068E0FBE4F5747DE27F1812BFF290046934
:10266000E0FBE4F5747DE37F1812BFF2900468E0AC
:10267000FBE4F5747DE47F1812BFF2900469E0FB7F
:10268000E4F5747DE57F1812BFF2900468E0FBE486
:10269000F5747DE67F1812BFF2900469E0FBE4F563
:1026A000747DE77F1812BFF290046AE0FBE4F574D2
:1026B0007DE87F1812BFF290046BE0FBE4F5747DB7
:1026C000E97F1812BFF290046CE0FBE4F5747DF32F
:1026D0007F1812BFF290046DE0FBE4F5747DF47F87
:1026E0001812BFF290046EE0FBE4F5747DF57F18DC
:1026F00012BFF290046FE0FBE4F5747DF67F1812D0
:10270000BFF2900470E0FBE4F5747DF77F1812BF10
:10271000F2900471E0FBE4F5747DF87F1812BFF2CB
:102720007F4112CB919004C3E0FBE4F574FD7F1868
:1027300012BFF29004C4E0FBE4F5747D017F18122F
:10274000BFF29004C5E0FBE4F5747D027F1812BF70
:10275000F29004C6E0FBE4F5747D037F1812BFF22B
:102760009004C7E0FBE4F5747D047F1812BFF2907B
:1027700004C8E0FBE4F5747D057F1812BFF29004F5
:10278000C9E0FBE4F5747D067F1812BFF29004CA1D
:10279000E0FBE4F5747D077F1812BFF29004CBE0F4
:1027A000FBE4F5747D087F1812BFF29004CCE0FBC7
:1027B000E4F5747D097F1812BFF29004CDE0FBE4CC
:1027C000F5747D0A7F1812BFF29004CEE0FBE4F5A9
:1027D000747D0B7F1812BFF29004CFE0FBE4F57418
:1027E0007D0C7F1812BFF29004D0E0FBE4F5747DFD
:1027F0000D7F1812BFF29004D1E0FBE4F5747D0E5A
:102800007F1812BFF29004D2E0FBE4F5747D0F7FD5
:102810001812BFF29004D3E0FBE4F5747D107F182A
:1028200012BFF29004D4E0FBE4F5747D117F18121E
:10283000BFF29004D5E0FBE4F5747D1B7F1812BF56
:10284000F29004D6E0FBE4F5747D1C7F1812BFF211
:102850009004D7022DD57F2212CB91900472E0FB19
:10286000E4F5747D087F1812BFF2900473E0FBE476
:10287000F5747D107F1812BFF2900474E0FBE4F54C
:10288000747D117F1812BFF2900475E0FBE4F574BB
:102890007D147F1812BFF2900476E0FBE4F5747D9E
:1028A000B37F1812BFF2900477E0FBE4F5747D4625
:1028B0007F1812BFF2900478E0FBE4F5747D477F47
:1028C0001812BFF2900479E0FBE4F5747D487F189C
:1028D00012BFF290047AE0FBE4F5747DDA7F1812FF
:1028E000BFF290047BE0FBE4F5747DDB7F1812BF40
:1028F000F290047CE0FBE4F5747DDC7F1812BFF2FB
:1029000090047DE0FBE4F5747DDD7F1812BFF2904A
:10291000047EE0FBE4F5747DE27F1812BFF29004C0
:102920007FE0FBE4F5747DE37F1812BFF290047E34
:10293000E0FBE4F5747DE47F1812BFF290047FE0C1
:10294000FBE4F5747DE57F1812BFF290047EE0FB96
:10295000E4F5747DE67F1812BFF290047FE0FBE49B
:10296000F5747DE77F1812BFF2900480E0FBE4F578
:10297000747DE87F1812BFF2900481E0FBE4F574E7
:102980007DE97F1812BFF2900482E0FBE4F5747DCC
:10299000F37F1812BFF2900483E0FBE4F5747DF43A
:1029A0007F1812BFF2900484E0FBE4F5747DF57F9C
:1029B0001812BFF2900485E0FBE4F5747DF67F18F1
:1029C00012BFF2900486E0FBE4F5747DF77F1812E5
:1029D000BFF2900487E0FBE4F5747DF87F1812BF26
:1029E000F27F4212CB919004D8E0FBE4F574FD7FB6
:1029F0001812BFF29004D9E0FBE4F5747D017F1852
:102A000012BFF29004DAE0FBE4F5747D027F181245
:102A1000BFF29004DBE0FBE4F5747D037F1812BF86
:102A2000F29004DCE0FBE4F5747D047F1812BFF241
:102A30009004DDE0FBE4F5747D057F1812BFF29091
:102A400004DEE0FBE4F5747D067F1812BFF290040B
:102A5000DFE0FBE4F5747D077F1812BFF29004E01D
:102A6000E0FBE4F5747D087F1812BFF29004E1E00A
:102A7000FBE4F5747D097F1812BFF29004E2E0FBDD
:102A8000E4F5747D0A7F1812BFF29004E3E0FBE4E2
:102A9000F5747D0B7F1812BFF29004E4E0FBE4F5BF
:102AA000747D0C7F1812BFF29004E5E0FBE4F5742E
:102AB0007D0D7F1812BFF29004E6E0FBE4F5747D13
:102AC0000E7F1812BFF29004E7E0FBE4F5747D0F6F
:102AD0007F1812BFF29004E8E0FBE4F5747D107FEC
:102AE0001812BFF29004E9E0FBE4F5747D117F1841
:102AF00012BFF29004EAE0FBE4F5747D1B7F18122C
:102B0000BFF29004EBE0FBE4F5747D1C7F1812BF6C
:102B1000F29004EC022DD57F2312CB91900488E033
:102B2000FBE4F5747D087F1812BFF2900489E0FB86
:102B3000E4F5747D107F1812BFF290048AE0FBE484
:102B4000F5747D117F1812BFF290048BE0FBE4F561
:102B5000747D147F1812BFF290048CE0FBE4F574CE
:102B60007DB37F1812BFF290048DE0FBE4F5747D15
:102B7000467F1812BFF290048EE0FBE4F5747D47A7
:102B80007F1812BFF290048FE0FBE4F5747D487F5C
:102B90001812BFF2900490E0FBE4F5747DDA7F1820
:102BA00012BFF2900491E0FBE4F5747DDB7F181214
:102BB000BFF2900492E0FBE4F5747DDC7F1812BF55
:102BC000F2900493E0FBE4F5747DDD7F1812BFF210
:102BD000900494E0FBE4F5747DE27F1812BFF2905C
:102BE0000495E0FBE4F5747DE37F1812BFF29004D6
:102BF00094E0FBE4F5747DE47F1812BFF290049535
:102C0000E0FBE4F5747DE57F1812BFF2900494E0D8
:102C1000FBE4F5747DE67F1812BFF2900495E0FBAB
:102C2000E4F5747DE77F1812BFF2900496E0FBE4B0
:102C3000F5747DE87F1812BFF2900497E0FBE4F58D
:102C4000747DE97F1812BFF2900498E0FBE4F574FC
:102C50007DF37F1812BFF2900499E0FBE4F5747DD8
:102C6000F47F1812BFF290049AE0FBE4F5747DF54E
:102C70007F1812BFF290049BE0FBE4F5747DF67FB1
:102C80001812BFF290049CE0FBE4F5747DF77F1806
:102C900012BFF290049DE0FBE4F5747DF87F1812FA
:102CA000BFF27F4312CB919004EDE0FBE4F574FD9D
:102CB0007F1812BFF29004EEE0FBE4F5747D017F13
:102CC0001812BFF29004EFE0FBE4F5747D027F1868
:102CD00012BFF29004F0E0FBE4F5747D037F18125C
:102CE000BFF29004F1E0FBE4F5747D047F1812BF9D
:102CF000F29004F2E0FBE4F5747D057F1812BFF258
:102D00009004F3E0FBE4F5747D067F1812BFF290A7
:102D100004F4E0FBE4F5747D077F1812BFF2900421
:102D2000F5E0FBE4F5747D087F1812BFF29004F61D
:102D3000E0FBE4F5747D097F1812BFF29004F7E020
:102D4000FBE4F5747D0A7F1812BFF29004F8E0FBF3
:102D5000E4F5747D0B7F1812BFF29004F9E0FBE4F8
:102D6000F5747D0C7F1812BFF29004FAE0FBE4F5D5
:102D7000747D0D7F1812BFF29004FBE0FBE4F57444
:102D80007D0E7F1812BFF29004FCE0FBE4F5747D29
:102D90000F7F1812BFF29004FDE0FBE4F5747D1084
:102DA0007F1812BFF29004FEE0FBE4F5747D117F02
:102DB0001812BFF29004FFE0FBE4F5747D1B7F184E
:102DC00012BFF2900500E0FBE4F5747D1C7F181241
:102DD000BFF2900501E0FBE4F5747D1D7F1812BF82
:102DE000F222EF1470030230611470030232C61431
:102DF000700302352B2403600302378F7F2012CB30
:102E00009D7B017D087F1812BF359007B3EFF07BE3
:102E1000017D107F1812BF359007B4EFF07B017D64
:102E2000117F1812BF359007B5EFF07B017D147F3D
:102E30001812BF359007B6EFF07B017DB37F1812F3
:102E4000BF359007B7EFF07B017D467F1812BF3585
:102E50009007B8EFF07B017D477F1812BF359007D0
:102E6000B9EFF07B017D487F1812BF359007BAEFAC
:102E7000F07B017DDA7F1812BF359007BBEFF07B46
:102E8000017DDB7F1812BF359007BCEFF07B017D21
:102E9000DC7F1812BF359007BDEFF07B017DDD7F31
:102EA0001812BF359007BEEFF07B017DE27F18124C
:102EB000BF359007BFEFF07B017DE37F1812BF3570
:102EC0009007C0EFF07B017DE87F1812BF359007B7
:102ED000C1EFF07B017DE97F1812BF359007C2EF8B
:102EE000F07B017DF37F1812BF359007C3EFF07BB5
:102EF000017DF47F1812BF359007C4EFF07B017D90
:102F0000F57F1812BF359007C5EFF07B017DF67F86
:102F10001812BF359007C6EFF07B017DF77F1812BE
:102F2000BF359007C7EFF07B017DF87F1812BF35E2
:102F30009007C8EFF07F4012CB9D7B01E4FD7F1826
:102F400012BF3590080BEFF07B017D017F1812BF97
:102F50003590080CEFF07B017D027F1812BF359091
:102F6000080DEFF07B017D037F1812BF3590080E2E
:102F7000EFF07B017D047F1812BF3590080FEFF052
:102F80007B017D057F1812BF35900810EFF07B01A3
:102F90007D067F1812BF35900811EFF07B017D0789
:102FA0007F1812BF35900812EFF07B017D087F1863
:102FB00012BF35900813EFF07B017D097F1812BF17
:102FC00035900814EFF07B017D0A7F1812BF359011
:102FD0000815EFF07B017D0B7F1812BF35900816A6
:102FE000EFF07B017D0C7F1812BF35900817EFF0D2
:102FF0007B017D0D7F1812BF35900818EFF07B0123
:103000007D0E7F1812BF35900819EFF07B017D0F00
:103010007F1812BF3590081AEFF07B017D107F18E2
:1030200012BF3590081BEFF07B017D117F1812BF96
:103030003590081CEFF07B017D1B7F1812BF359087
:10304000081DEFF07B017D1C7F1812BF3590081E14
:10305000EFF07B017D1D7F1812BF3590081FEFF048
:10306000227F2112CB9D7B017D087F1812BF3590F6
:1030700007C9EFF07B017D107F1812BF359007CA9A
:10308000EFF07B017D117F1812BF359007CBEFF079
:103090007B017D147F1812BF359007CCEFF07B01C8
:1030A0007DB37F1812BF359007CDEFF07B017D46D1
:1030B0007F1812BF359007CEEFF07B017D477F1858
:1030C00012BF359007CFEFF07B017D487F1812BF0C
:1030D000359007D0EFF07B017DDA7F1812BF359075
:1030E00007D1EFF07B017DDB7F1812BF359007D24F
:1030F000EFF07B017DDC7F1812BF359007D3EFF036
:103100007B017DDD7F1812BF359007D4EFF07B0186
:103110007DE27F1812BF359007D5EFF07B017DE38C
:103120007F1812BF359007D6EFF07B017DE87F183E
:1031300012BF359007D7EFF07B017DE97F1812BFF2
:10314000359007D8EFF07B017DF37F1812BF3590E3
:1031500007D9EFF07B017DF47F1812BF359007DAB5
:10316000EFF07B017DF57F1812BF359007DBEFF0A4
:103170007B017DF67F1812BF359007DCEFF07B01F5
:103180007DF77F1812BF359007DDEFF07B017DF8EA
:103190007F1812BF359007DEEFF07F4112CB9D7B89
:1031A00001E4FD7F1812BF35900502EFF07B017D31
:1031B000017F1812BF35900503EFF07B017D027F80
:1031C0001812BF35900504EFF07B017D037F1812C4
:1031D000BF35900505EFF07B017D047F1812BF35E8
:1031E000900506EFF07B017D057F1812BF35900535
:1031F00007EFF07B017D067F1812BF35900508EFC1
:10320000F07B017D077F1812BF35900509EFF07B39
:10321000017D087F1812BF3590050AEFF07B017D14
:10322000097F1812BF3590050BEFF07B017D0A7FF7
:103230001812BF3590050CEFF07B017D0B7F181243
:10324000BF3590050DEFF07B017D0C7F1812BF3567
:1032500090050EEFF07B017D0D7F1812BF359005B4
:103260000FEFF07B017D0E7F1812BF35900510EF38
:10327000F07B017D0F7F1812BF35900511EFF07BB9
:10328000017D107F1812BF35900512EFF07B017D94
:10329000117F1812BF35900513EFF07B017D1B7F66
:1032A0001812BF35900514EFF07B017D1C7F1812BA
:1032B000BF35900515EFF07B017D1D7F1812BF35DE
:1032C000900516EFF0227F2212CB9D7B017D087FB7
:1032D0001812BF359007DFEFF07B017D107F1812C9
:1032E000BF359007E0EFF07B017D117F1812BF35ED
:1032F0009007E1EFF07B017D147F1812BF35900736
:10330000E2EFF07B017DB37F1812BF359007E3EF4A
:10331000F07B017D467F1812BF359007E4EFF07B0C
:10332000017D477F1812BF359007E5EFF07B017DE7
:10333000487F1812BF359007E6EFF07B017DDA7FFA
:103340001812BF359007E7EFF07B017DDB7F181285
:10335000BF359007E8EFF07B017DDC7F1812BF35A9
:103360009007E9EFF07B017DDD7F1812BF359007F4
:10337000EAEFF07B017DE27F1812BF359007EBEF9B
:10338000F07B017DE37F1812BF359007ECEFF07BF7
:10339000017DE87F1812BF359007EDEFF07B017DCE
:1033A000E97F1812BF359007EEEFF07B017DF37FC8
:1033B0001812BF359007EFEFF07B017DF47F1812F4
:1033C000BF359007F0EFF07B017DF57F1812BF3518
:1033D0009007F1EFF07B017DF67F1812BF35900763
:1033E000F2EFF07B017DF77F1812BF359007F3EF06
:1033F000F07B017DF87F1812BF359007F4EFF07F66
:103400004212CB9D7B01E4FD7F1812BF359005175A
:10341000EFF07B017D017F1812BF35900518EFF0AA
:103420007B017D027F1812BF35900519EFF07B01FB
:103430007D037F1812BF3590051AEFF07B017D04E4
:103440007F1812BF3590051BEFF07B017D057F18BB
:1034500012BF3590051CEFF07B017D067F1812BF6F
:103460003590051DEFF07B017D077F1812BF359069
:10347000051EEFF07B017D087F1812BF3590051FF8
:10348000EFF07B017D097F1812BF35900520EFF02A
:103490007B017D0A7F1812BF35900521EFF07B017B
:1034A0007D0B7F1812BF35900522EFF07B017D0C5C
:1034B0007F1812BF35900523EFF07B017D0D7F183B
:1034C00012BF35900524EFF07B017D0E7F1812BFEF
:1034D00035900525EFF07B017D0F7F1812BF3590E9
:1034E0000526EFF07B017D107F1812BF3590052770
:1034F000EFF07B017D117F1812BF35900528EFF0AA
:103500007B017D1B7F1812BF35900529EFF07B01F1
:103510007D1C7F1812BF3590052AEFF07B017D1DC1
:103520007F1812BF3590052BEFF0227F2312CB9D21
:103530007B017D087F1812BF359007F5EFF07B0106
:103540007D107F1812BF359007F6EFF07B017D11DB
:103550007F1812BF359007F7EFF07B017D147F18BD
:1035600012BF359007F8EFF07B017DB37F1812BFD3
:10357000359007F9EFF07B017D467F1812BF35903B
:1035800007FAEFF07B017D477F1812BF359007FBEC
:10359000EFF07B017D487F1812BF359007FCEFF0FC
:1035A0007B017DDA7F1812BF359007FDEFF07B01BC
:1035B0007DDB7F1812BF359007FEEFF07B017DDCCD
:1035C0007F1812BF359007FFEFF07B017DDD7F187C
:1035D00012BF35900800EFF07B017DE27F1812BF2B
:1035E00035900801EFF07B017DE37F1812BF359025
:1035F0000802EFF07B017DE87F1812BF35900803C9
:10360000EFF07B017DE97F1812BF35900804EFF0E1
:103610007B017DF37F1812BF35900805EFF07B0129
:103620007DF47F1812BF35900806EFF07B017DF521
:103630007F1812BF35900807EFF07B017DF67F18E9
:1036400012BF35900808EFF07B017DF77F1812BF9D
:1036500035900809EFF07B017DF87F1812BF359097
:10366000080AEFF07F4312CB9D7B01E4FD7F181227
:10367000BF3590052CEFF07B017D017F1812BF351F
:1036800090052DEFF07B017D027F1812BF3590056C
:103690002EEFF07B017D037F1812BF3590052FEFD1
:1036A000F07B017D047F1812BF35900530EFF07B71
:1036B000017D057F1812BF35900531EFF07B017D4C
:1036C000067F1812BF35900532EFF07B017D077F32
:1036D0001812BF35900533EFF07B017D087F18127B
:1036E000BF35900534EFF07B017D097F1812BF359F
:1036F000900535EFF07B017D0A7F1812BF359005EC
:1037000036EFF07B017D0B7F1812BF35900537EF48
:10371000F07B017D0C7F1812BF35900538EFF07BF0
:10372000017D0D7F1812BF35900539EFF07B017DCB
:103730000E7F1812BF3590053AEFF07B017D0F7FA9
:103740001812BF3590053BEFF07B017D107F1812FA
:10375000BF3590053CEFF07B017D117F1812BF351E
:1037600090053DEFF07B017D1B7F1812BF35900562
:103770003EEFF07B017D1C7F1812BF3590053FEFB7
:10378000F07B017D1D7F1812BF35900540EFF022C0
:10379000EF147003023A0F147003023C74147003A8
:1037A000023ED92403600302413D7F2012CBA97B56
:1037B000037D087F1612BF35900546EFF07B037D31
:1037C000107F1612BF35900547EFF07B037D117F08
:1037D0001612BF35900548EFF07B037D147F16125B
:1037E000BF35900549EFF07B037DB37F1612BF35DF
:1037F00090054AEFF07B037D467F1612BF3590059A
:103800004BEFF07B037D477F1612BF3590054CEFE1
:10381000F07B037D487F1612BF3590054DEFF07B9E
:10382000037DDA7F1612BF3590054EEFF07B037DE6
:10383000DB7F1612BF3590054FEFF07B037DDC7FF9
:103840001612BF35900550EFF07B037DDD7F161219
:10385000BF35900551EFF07B037DE27F1612BF3537
:10386000900552EFF07B037DE37F1612BF35900584
:1038700053EFF07B037DE87F1612BF35900554EFC0
:10388000F07B037DE97F1612BF35900555EFF07B85
:10389000037DF37F1612BF35900556EFF07B037D55
:1038A000F47F1612BF35900557EFF07B037DF57F4F
:1038B0001612BF35900558EFF07B037DF67F161288
:1038C000BF35900559EFF07B037DF77F1612BF35AA
:1038D00090055AEFF07B037DF87F1612BF359005F7
:1038E0005BEFF07F4012CBA97B03E4FD7F1612BF94
:1038F0003590059EEFF07B037D017F1612BF35905A
:10390000059FEFF07B037D027F1612BF359005A067
:10391000EFF07B037D037F1612BF359005A1EFF01A
:103920007B037D047F1612BF359005A2EFF07B0369
:103930007D057F1612BF359005A3EFF07B037D0652
:103940007F1612BF359005A4EFF07B037D077F162D
:1039500012BF359005A5EFF07B037D087F1612BFDF
:10396000359005A6EFF07B037D097F1612BF3590D9
:1039700005A7EFF07B037D0A7F1612BF359005A8DF
:10398000EFF07B037D0B7F1612BF359005A9EFF09A
:103990007B037D0C7F1612BF359005AAEFF07B03E9
:1039A0007D0D7F1612BF359005ABEFF07B037D0ECA
:1039B0007F1612BF359005ACEFF07B037D0F7F16AD
:1039C00012BF359005ADEFF07B037D107F1612BF5F
:1039D000359005AEEFF07B037D117F1612BF359059
:1039E00005AFEFF07B037D1B7F1612BF359005B04E
:1039F000EFF07B037D1C7F1612BF359005B1EFF011
:103A00007B037D1D7F1612BF359005B2EFF0227F3C
:103A10002112CBA97B037D087F1612BF3590055C70
:103A2000EFF07B037D107F1612BF3590055DEFF040
:103A30007B037D117F1612BF3590055EEFF07B038F
:103A40007D147F1612BF3590055FEFF07B037DB3C9
:103A50007F1612BF35900560EFF07B037D467F1621
:103A600012BF35900561EFF07B037D477F1612BFD3
:103A700035900562EFF07B037D487F1612BF3590CD
:103A80000563EFF07B037DDA7F1612BF3590056486
:103A9000EFF07B037DDB7F1612BF35900565EFF0FD
:103AA0007B037DDC7F1612BF35900566EFF07B034C
:103AB0007DDD7F1612BF35900567EFF07B037DE259
:103AC0007F1612BF35900568EFF07B037DE37F160C
:103AD00012BF35900569EFF07B037DE87F1612BFBA
:103AE0003590056AEFF07B037DE97F1612BF3590B4
:103AF000056BEFF07B037DF37F1612BF3590056CED
:103B0000EFF07B037DF47F1612BF3590056DEFF06B
:103B10007B037DF57F1612BF3590056EEFF07B03BA
:103B20007DF67F1612BF3590056FEFF07B037DF7B2
:103B30007F1612BF35900570EFF07B037DF87F167E
:103B400012BF35900571EFF07F4112CBA97B03E4E2
:103B5000FD7F1612BF359005C3EFF07B037D017F1B
:103B60001612BF359005C4EFF07B037D027F16125D
:103B7000BF359005C5EFF07B037D037F1612BF357F
:103B80009005C6EFF07B037D047F1612BF359005CC
:103B9000C7EFF07B037D057F1612BF359005C8EF98
:103BA000F07B037D067F1612BF359005C9EFF07BD1
:103BB000037D077F1612BF359005CAEFF07B037DAA
:103BC000087F1612BF359005CBEFF07B037D097F90
:103BD0001612BF359005CCEFF07B037D0A7F1612DD
:103BE000BF359005CDEFF07B037D0B7F1612BF35FF
:103BF0009005CEEFF07B037D0C7F1612BF3590054C
:103C0000CFEFF07B037D0D7F1612BF359005D0EF0F
:103C1000F07B037D0E7F1612BF359005D1EFF07B50
:103C2000037D0F7F1612BF359005D2EFF07B037D29
:103C3000107F1612BF359005D3EFF07B037D117F07
:103C40001612BF359005D4EFF07B037D1B7F161253
:103C5000BF359005D5EFF07B037D1C7F1612BF3575
:103C60009005D6EFF07B037D1D7F1612BF359005C2
:103C7000D7EFF0227F2212CBA97B037D087F16129B
:103C8000BF35900572EFF07B037D107F1612BF35B4
:103C9000900573EFF07B037D117F1612BF35900501
:103CA00074EFF07B037D147F1612BF35900575EF1E
:103CB000F07B037DB37F1612BF35900576EFF07B66
:103CC000037D467F1612BF35900577EFF07B037DAD
:103CD000477F1612BF35900578EFF07B037D487F54
:103CE0001612BF35900579EFF07B037DDA7F16124F
:103CF000BF3590057AEFF07B037DDB7F1612BF3571
:103D000090057BEFF07B037DDC7F1612BF359005BD
:103D10007CEFF07B037DDD7F1612BF3590057DEFD4
:103D2000F07B037DE27F1612BF3590057EEFF07BBE
:103D3000037DE37F1612BF3590057FEFF07B037D97
:103D4000E87F1612BF35900580EFF07B037DE97F99
:103D50001612BF35900581EFF07B037DF37F1612BD
:103D6000BF35900582EFF07B037DF47F1612BF35DF
:103D7000900583EFF07B037DF57F1612BF3590052C
:103D800084EFF07B037DF67F1612BF35900585EF3B
:103D9000F07B037DF77F1612BF35900586EFF07B31
:103DA000037DF87F1612BF35900587EFF07F421232
:103DB000CBA97B03E4FD7F1612BF359005D8EFF049
:103DC0007B037D017F1612BF359005D9EFF07B0391
:103DD0007D027F1612BF359005DAEFF07B037D037D
:103DE0007F1612BF359005DBEFF07B037D047F1655
:103DF00012BF359005DCEFF07B037D057F1612BF07
:103E0000359005DDEFF07B037D067F1612BF359000
:103E100005DEEFF07B037D077F1612BF359005DFCF
:103E2000EFF07B037D087F1612BF359005E0EFF0C1
:103E30007B037D097F1612BF359005E1EFF07B0310
:103E40007D0A7F1612BF359005E2EFF07B037D0BF4
:103E50007F1612BF359005E3EFF07B037D0C7F16D4
:103E600012BF359005E4EFF07B037D0D7F1612BF86
:103E7000359005E5EFF07B037D0E7F1612BF359080
:103E800005E6EFF07B037D0F7F1612BF359005E747
:103E9000EFF07B037D107F1612BF359005E8EFF041
:103EA0007B037D117F1612BF359005E9EFF07B0390
:103EB0007D1B7F1612BF359005EAEFF07B037D1C5A
:103EC0007F1612BF359005EBEFF07B037D1D7F164B
:103ED00012BF359005ECEFF0227F2312CBA97B03B4
:103EE0007D087F1612BF35900588EFF07B037D10AB
:103EF0007F1612BF35900589EFF07B037D117F1689
:103F000012BF3590058AEFF07B037D147F1612BF38
:103F10003590058BEFF07B037DB37F1612BF359094
:103F2000058CEFF07B037D467F1612BF3590058D23
:103F3000EFF07B037D477F1612BF3590058EEFF0C3
:103F40007B037D487F1612BF3590058FEFF07B0312
:103F50007DDA7F1612BF35900590EFF07B037DDB95
:103F60007F1612BF35900591EFF07B037DDC7F1645
:103F700012BF35900592EFF07B037DDD7F1612BFF7
:103F800035900593EFF07B037DE27F1612BF3590ED
:103F90000594EFF07B037DE37F1612BF3590059506
:103FA000EFF07B037DE87F1612BF35900596EFF0AA
:103FB0007B037DE97F1612BF35900597EFF07B03F9
:103FC0007DF37F1612BF35900598EFF07B037DF4EB
:103FD0007F1612BF35900599EFF07B037DF57F16B4
:103FE00012BF3590059AEFF07B037DF67F1612BF66
:103FF0003590059BEFF07B037DF77F1612BF359060
:10400000059CEFF07B037DF87F1612BF3590059D70
:10401000EFF07F4312CBA97B03E4FD7F1612BF357F
:104020009005EDEFF07B037D017F1612BF35900503
:10403000EEEFF07B037D027F1612BF359005EFEFA8
:10404000F07B037D037F1612BF359005F0EFF07B08
:10405000037D047F1612BF359005F1EFF07B037DE1
:10406000057F1612BF359005F2EFF07B037D067FCA
:104070001612BF359005F3EFF07B037D077F161214
:10408000BF359005F4EFF07B037D087F1612BF3536
:104090009005F5EFF07B037D097F1612BF35900583
:1040A000F6EFF07B037D0A7F1612BF359005F7EF20
:1040B000F07B037D0B7F1612BF359005F8EFF07B88
:1040C000037D0C7F1612BF359005F9EFF07B037D61
:1040D0000D7F1612BF359005FAEFF07B037D0E7F42
:1040E0001612BF359005FBEFF07B037D0F7F161294
:1040F000BF359005FCEFF07B037D107F1612BF35B6
:104100009005FDEFF07B037D117F1612BF35900502
:10411000FEEFF07B037D1B7F1612BF359005FFEF8E
:10412000F07B037D1C7F1612BF35900600EFF07BFD
:10413000037D1D7F1612BF35900601EFF022EF14AC
:1041400070030243BD147003024622147003024838
:104150008724036003024AEB7F2012CBB57B027DEC
:10416000087F1612BF35900833EFF07B027D107F79
:104170001612BF35900834EFF07B027D117F1612C6
:10418000BF35900835EFF07B027D147F1612BF35E6
:10419000900836EFF07B027DB37F1612BF35900892
:1041A00037EFF07B027D467F1612BF35900838EF5F
:1041B000F07B027D477F1612BF35900839EFF07B08
:1041C000027D487F1612BF3590083AEFF07B027DE2
:1041D000DA7F1612BF3590083BEFF07B027DDB7F64
:1041E0001612BF3590083CEFF07B027DDC7F161283
:1041F000BF3590083DEFF07B027DDD7F1612BF35A5
:1042000090083EEFF07B027DE27F1612BF359008EA
:104210003FEFF07B027DE37F1612BF35900840EF41
:10422000F07B027DE87F1612BF35900841EFF07BEE
:10423000027DE97F1612BF35900842EFF07B027DC8
:10424000F37F1612BF35900843EFF07B027DF47FB9
:104250001612BF35900844EFF07B027DF57F1612F1
:10426000BF35900845EFF07B027DF67F1612BF3513
:10427000900846EFF07B027DF77F1612BF3590085D
:1042800047EFF07B027DF87F1612BF35900848EFAC
:10429000F07F4012CBB57B02E4FD7F1612BF359054
:1042A000088BEFF07B027D017F1612BF3590088CE2
:1042B000EFF07B027D027F1612BF3590088DEFF084
:1042C0007B027D037F1612BF3590088EEFF07B02D4
:1042D0007D047F1612BF3590088FEFF07B027D05BD
:1042E0007F1612BF35900890EFF07B027D067F1697
:1042F00012BF35900891EFF07B027D077F1612BF49
:1043000035900892EFF07B027D087F1612BF359042
:104310000893EFF07B027D097F1612BF3590089459
:10432000EFF07B027D0A7F1612BF35900895EFF003
:104330007B027D0B7F1612BF35900896EFF07B0253
:104340007D0C7F1612BF35900897EFF07B027D0D34
:104350007F1612BF35900898EFF07B027D0E7F1616
:1043600012BF35900899EFF07B027D0F7F1612BFC8
:104370003590089AEFF07B027D107F1612BF3590C2
:10438000089BEFF07B027D117F1612BF3590089CD1
:10439000EFF07B027D1B7F1612BF3590089DEFF07A
:1043A0007B027D1C7F1612BF3590089EEFF07B02CA
:1043B0007D1D7F1612BF3590089FEFF0227F2112DE
:1043C000CBB57B027D087F1612BF35900849EFF010
:1043D0007B027D107F1612BF3590084AEFF07B02FA
:1043E0007D117F1612BF3590084BEFF07B027D14D4
:1043F0007F1612BF3590084CEFF07B027DB37F161D
:1044000012BF3590084DEFF07B027D467F1612BF3C
:104410003590084EEFF07B027D477F1612BF359036
:10442000084FEFF07B027D487F1612BF3590085091
:10443000EFF07B027DDA7F1612BF35900851EFF066
:104440007B027DDB7F1612BF35900852EFF07B02B6
:104450007DDC7F1612BF35900853EFF07B027DDDC7
:104460007F1612BF35900854EFF07B027DE27F1675
:1044700012BF35900855EFF07B027DE37F1612BF27
:1044800035900856EFF07B027DE87F1612BF35901D
:104490000857EFF07B027DE97F1612BF3590085870
:1044A000EFF07B027DF37F1612BF35900859EFF0D5
:1044B0007B027DF47F1612BF3590085AEFF07B0225
:1044C0007DF57F1612BF3590085BEFF07B027DF61D
:1044D0007F1612BF3590085CEFF07B027DF77F16E8
:1044E00012BF3590085DEFF07B027DF87F1612BF9A
:1044F0003590085EEFF07F4112CBB57B02E4FD7F83
:104500001612BF35900602EFF07B027D017F161276
:10451000BF35900603EFF07B027D027F1612BF3598
:10452000900604EFF07B027D037F1612BF359006E4
:1045300005EFF07B027D047F1612BF35900606EF73
:10454000F07B027D057F1612BF35900607EFF07BEA
:10455000027D067F1612BF35900608EFF07B027DC4
:10456000077F1612BF35900609EFF07B027D087FAA
:104570001612BF3590060AEFF07B027D097F1612F6
:10458000BF3590060BEFF07B027D0A7F1612BF3518
:1045900090060CEFF07B027D0B7F1612BF35900664
:1045A0000DEFF07B027D0C7F1612BF3590060EEFEB
:1045B000F07B027D0D7F1612BF3590060FEFF07B6A
:1045C000027D0E7F1612BF35900610EFF07B027D44
:1045D0000F7F1612BF35900611EFF07B027D107F22
:1045E0001612BF35900612EFF07B027D117F161276
:1045F000BF35900613EFF07B027D1B7F1612BF358F
:10460000900614EFF07B027D1C7F1612BF359006DA
:1046100015EFF07B027D1D7F1612BF35900616EF59
:10462000F0227F2212CBB57B027D087F1612BF35A8
:1046300090085FEFF07B027D107F1612BF35900867
:1046400060EFF07B027D117F1612BF35900861EF9D
:10465000F07B027D147F1612BF35900862EFF07B6D
:10466000027DB37F1612BF35900863EFF07B027DA9
:10467000467F1612BF35900864EFF07B027D477FBE
:104680001612BF35900865EFF07B027D487F161249
:10469000BF35900866EFF07B027DDA7F1612BF35DA
:1046A000900867EFF07B027DDB7F1612BF35900824
:1046B00068EFF07B027DDC7F1612BF35900869EF52
:1046C000F07B027DDD7F1612BF3590086AEFF07B2C
:1046D000027DE27F1612BF3590086BEFF07B027D02
:1046E000E37F1612BF3590086CEFF07B027DE87F08
:1046F0001612BF3590086DEFF07B027DE97F161230
:10470000BF3590086EEFF07B027DF37F1612BF3548
:1047100090086FEFF07B027DF47F1612BF35900892
:1047200070EFF07B027DF57F1612BF35900871EFB8
:10473000F07B027DF67F1612BF35900872EFF07B9A
:10474000027DF77F1612BF35900873EFF07B027D74
:10475000F87F1612BF35900874EFF07F4212CBB588
:104760007B02E4FD7F1612BF35900617EFF07B0247
:104770007D017F1612BF35900618EFF07B027D0297
:104780007F1612BF35900619EFF07B027D037F166E
:1047900012BF3590061AEFF07B027D047F1612BF20
:1047A0003590061BEFF07B027D057F1612BF35901A
:1047B000061CEFF07B027D067F1612BF3590061DAA
:1047C000EFF07B027D077F1612BF3590061EEFF0DB
:1047D0007B027D087F1612BF3590061FEFF07B022B
:1047E0007D097F1612BF35900620EFF07B027D0A0F
:1047F0007F1612BF35900621EFF07B027D0B7F16EE
:1048000012BF35900622EFF07B027D0C7F1612BF9F
:1048100035900623EFF07B027D0D7F1612BF359099
:104820000624EFF07B027D0E7F1612BF3590062521
:10483000EFF07B027D0F7F1612BF35900626EFF05A
:104840007B027D107F1612BF35900627EFF07B02AA
:104850007D117F1612BF35900628EFF07B027D1B7D
:104860007F1612BF35900629EFF07B027D1C7F1664
:1048700012BF3590062AEFF07B027D1D7F1612BF16
:104880003590062BEFF0227F2312CBB57B027D08FB
:104890007F1612BF35900875EFF07B027D107F16F2
:1048A00012BF35900876EFF07B027D117F1612BFA4
:1048B00035900877EFF07B027D147F1612BF35909C
:1048C0000878EFF07B027DB37F1612BF3590087930
:1048D000EFF07B027D467F1612BF3590087AEFF02D
:1048E0007B027D477F1612BF3590087BEFF07B027D
:1048F0007D487F1612BF3590087CEFF07B027DDA91
:104900007F1612BF3590087DEFF07B027DDB7F16AE
:1049100012BF3590087EEFF07B027DDC7F1612BF60
:104920003590087FEFF07B027DDD7F1612BF35905A
:104930000880EFF07B027DE27F1612BF3590088180
:10494000EFF07B027DE37F1612BF35900882EFF017
:104950007B027DE87F1612BF35900883EFF07B0263
:104960007DE97F1612BF35900884EFF07B027DF35E
:104970007F1612BF35900885EFF07B027DF47F161D
:1049800012BF35900886EFF07B027DF57F1612BFCF
:1049900035900887EFF07B027DF67F1612BF3590C9
:1049A0000888EFF07B027DF77F1612BF35900889EB
:1049B000EFF07B027DF87F1612BF3590088AEFF08A
:1049C0007F4312CBB57B02E4FD7F1612BF35900604
:1049D0002CEFF07B027D017F1612BF3590062DEF84
:1049E000F07B027D027F1612BF3590062EEFF07B22
:1049F000027D037F1612BF3590062FEFF07B027DFC
:104A0000047F1612BF35900630EFF07B027D057FE4
:104A10001612BF35900631EFF07B027D067F16122D
:104A2000BF35900632EFF07B027D077F1612BF354F
:104A3000900633EFF07B027D087F1612BF3590069B
:104A400034EFF07B027D097F1612BF35900635EFFB
:104A5000F07B027D0A7F1612BF35900636EFF07BA1
:104A6000027D0B7F1612BF35900637EFF07B027D7B
:104A70000C7F1612BF35900638EFF07B027D0D7F5C
:104A80001612BF35900639EFF07B027D0E7F1612AD
:104A9000BF3590063AEFF07B027D0F7F1612BF35CF
:104AA00090063BEFF07B027D107F1612BF3590061B
:104AB0003CEFF07B027D117F1612BF3590063DEF73
:104AC000F07B027D1B7F1612BF3590063EEFF07B18
:104AD000027D1C7F1612BF3590063FEFF07B027DF2
:104AE0001D7F1612BF35900640EFF022EF147003C1
:104AF000024D6A147003024FCE1470030252322426
:104B00000360030254957F2012CB91E4FB7D087F64
:104B10001812BF35900446EFF0E4FB7D107F1812A9
:104B2000BF35900447EFF0E4FB7D117F1812BF35CD
:104B3000900448EFF0E4FB7D147F1812BF35900419
:104B400049EFF0E4FB7DB37F1812BF3590044AEFC4
:104B5000F0E4FB7D467F1812BF3590044BEFF0E484
:104B6000FB7D477F1812BF3590044CEFF0E4FB7DCE
:104B7000487F1812BF3590044DEFF0E4FB7DDA7FDB
:104B80001812BF3590044EEFF0E4FB7DDB7F181266
:104B9000BF3590044FEFF0E4FB7DDC7F1812BF358A
:104BA000900450EFF0E4FB7DDD7F1812BF359004D8
:104BB00051EFF0E4FB7DE27F1812BF35900452EF15
:104BC000F0E4FB7DE37F1812BF35900453EFF0E46F
:104BD000FB7DE87F1812BF35900454EFF0E4FB7DB5
:104BE000E97F1812BF35900455EFF0E4FB7DF37FA9
:104BF0001812BF35900456EFF0E4FB7DF47F1812D5
:104C0000BF35900457EFF0E4FB7DF57F1812BF35F8
:104C1000900458EFF0E4FB7DF67F1812BF35900446
:104C200059EFF0E4FB7DF77F1812BF3590045AEF7F
:104C3000F0E4FB7DF87F1812BF3590045BEFF07F46
:104C40004012CB91E4FBFD7F1812BF3590049EEF1C
:104C5000F0E4FB7D017F1812BF3590049FEFF0E474
:104C6000FB7D027F1812BF359004A0EFF0E4FB7DBE
:104C7000037F1812BF359004A1EFF0E4FB7D047FA1
:104C80001812BF359004A2EFF0E4FB7D057F1812E7
:104C9000BF359004A3EFF0E4FB7D067F1812BF350B
:104CA0009004A4EFF0E4FB7D077F1812BF35900459
:104CB000A5EFF0E4FB7D087F1812BF359004A6EF46
:104CC000F0E4FB7D097F1812BF359004A7EFF0E4F4
:104CD000FB7D0A7F1812BF359004A8EFF0E4FB7D3E
:104CE0000B7F1812BF359004A9EFF0E4FB7D0C7F19
:104CF0001812BF359004AAEFF0E4FB7D0D7F181267
:104D0000BF359004ABEFF0E4FB7D0E7F1812BF358A
:104D10009004ACEFF0E4FB7D0F7F1812BF359004D8
:104D2000ADEFF0E4FB7D107F1812BF359004AEEFBD
:104D3000F0E4FB7D117F1812BF359004AFEFF0E473
:104D4000FB7D1B7F1812BF359004B0EFF0E4FB7DB4
:104D50001C7F1812BF359004B1EFF0E4FB7D1D7F7E
:104D60001812BF359004B2EFF0227F2112CB91E4EC
:104D7000FB7D087F1812BF3590045CEFF0E4FB7DEB
:104D8000107F1812BF3590045DEFF0E4FB7D117FBA
:104D90001812BF3590045EEFF0E4FB7D147F18120B
:104DA000BF3590045FEFF0E4FB7DB37F1812BF3591
:104DB000900460EFF0E4FB7D467F1812BF3590044D
:104DC00061EFF0E4FB7D477F1812BF35900462EF7E
:104DD000F0E4FB7D487F1812BF35900463EFF0E4E8
:104DE000FB7DDA7F1812BF35900464EFF0E4FB7DA1
:104DF000DB7F1812BF35900465EFF0E4FB7DDC7FAC
:104E00001812BF35900466EFF0E4FB7DDD7F1812C9
:104E1000BF35900467EFF0E4FB7DE27F1812BF35E9
:104E2000900468EFF0E4FB7DE37F1812BF35900437
:104E300069EFF0E4FB7DE87F1812BF3590046AEF5C
:104E4000F0E4FB7DE97F1812BF3590046BEFF0E4CE
:104E5000FB7DF37F1812BF3590046CEFF0E4FB7D0F
:104E6000F47F1812BF3590046DEFF0E4FB7DF57F01
:104E70001812BF3590046EEFF0E4FB7DF67F181238
:104E8000BF3590046FEFF0E4FB7DF77F1812BF355C
:104E9000900470EFF0E4FB7DF87F1812BF359004AA
:104EA00071EFF07F4112CB91E4FBFD7F1812BF350B
:104EB0009004C3EFF0E4FB7D017F1812BF3590042E
:104EC000C4EFF0E4FB7D027F1812BF359004C5EFFC
:104ED000F0E4FB7D037F1812BF359004C6EFF0E4C9
:104EE000FB7D047F1812BF359004C7EFF0E4FB7D13
:104EF000057F1812BF359004C8EFF0E4FB7D067FF4
:104F00001812BF359004C9EFF0E4FB7D077F18123B
:104F1000BF359004CAEFF0E4FB7D087F1812BF355F
:104F20009004CBEFF0E4FB7D097F1812BF359004AD
:104F3000CCEFF0E4FB7D0A7F1812BF359004CDEF73
:104F4000F0E4FB7D0B7F1812BF359004CEEFF0E448
:104F5000FB7D0C7F1812BF359004CFEFF0E4FB7D92
:104F60000D7F1812BF359004D0EFF0E4FB7D0E7F6B
:104F70001812BF359004D1EFF0E4FB7D0F7F1812BB
:104F8000BF359004D2EFF0E4FB7D107F1812BF35DF
:104F90009004D3EFF0E4FB7D117F1812BF3590042D
:104FA000D4EFF0E4FB7D1B7F1812BF359004D5EFE2
:104FB000F0E4FB7D1C7F1812BF359004D6EFF0E4BF
:104FC000FB7D1D7F1812BF359004D7EFF0227F22A2
:104FD00012CB91E4FB7D087F1812BF35900472EF6D
:104FE000F0E4FB7D107F1812BF35900473EFF0E4FE
:104FF000FB7D117F1812BF35900474EFF0E4FB7D48
:10500000147F1812BF35900475EFF0E4FB7DB37F79
:105010001812BF35900476EFF0E4FB7D467F18123E
:10502000BF35900477EFF0E4FB7D477F1812BF3562
:10503000900478EFF0E4FB7D487F1812BF359004B0
:1050400079EFF0E4FB7DDA7F1812BF3590047AEF38
:10505000F0E4FB7DDB7F1812BF3590047BEFF0E4BA
:10506000FB7DDC7F1812BF3590047CEFF0E4FB7D04
:10507000DD7F1812BF3590047DEFF0E4FB7DE27F09
:105080001812BF3590047EEFF0E4FB7DE37F181229
:10509000BF3590047FEFF0E4FB7DE87F1812BF3549
:1050A000900480EFF0E4FB7DE97F1812BF35900497
:1050B00081EFF0E4FB7DF37F1812BF35900482EF9F
:1050C000F0E4FB7DF47F1812BF35900483EFF0E429
:1050D000FB7DF57F1812BF35900484EFF0E4FB7D73
:1050E000F67F1812BF35900485EFF0E4FB7DF77F63
:1050F0001812BF35900486EFF0E4FB7DF87F18129C
:10510000BF35900487EFF07F4212CB91E4FBFD7F27
:105110001812BF359004D8EFF0E4FB7D017F181220
:10512000BF359004D9EFF0E4FB7D027F1812BF3544
:105130009004DAEFF0E4FB7D037F1812BF35900492
:10514000DBEFF0E4FB7D047F1812BF359004DCEF49
:10515000F0E4FB7D057F1812BF359004DDEFF0E42D
:10516000FB7D067F1812BF359004DEEFF0E4FB7D77
:10517000077F1812BF359004DFEFF0E4FB7D087F56
:105180001812BF359004E0EFF0E4FB7D097F1812A0
:10519000BF359004E1EFF0E4FB7D0A7F1812BF35C4
:1051A0009004E2EFF0E4FB7D0B7F1812BF35900412
:1051B000E3EFF0E4FB7D0C7F1812BF359004E4EFC1
:1051C000F0E4FB7D0D7F1812BF359004E5EFF0E4AD
:1051D000FB7D0E7F1812BF359004E6EFF0E4FB7DF7
:1051E0000F7F1812BF359004E7EFF0E4FB7D107FCE
:1051F0001812BF359004E8EFF0E4FB7D117F181220
:10520000BF359004E9EFF0E4FB7D1B7F1812BF353A
:105210009004EAEFF0E4FB7D1C7F1812BF35900488
:10522000EBEFF0E4FB7D1D7F1812BF359004ECEF2F
:10523000F0227F2312CB91E4FB7D087F1812BF354B
:10524000900488EFF0E4FB7D107F1812BF359004C6
:1052500089EFF0E4FB7D117F1812BF3590048AEFCF
:10526000F0E4FB7D147F1812BF3590048BEFF0E45F
:10527000FB7DB37F1812BF3590048CEFF0E4FB7D0B
:10528000467F1812BF3590048DEFF0E4FB7D477F19
:105290001812BF3590048EEFF0E4FB7D487F1812A2
:1052A000BF3590048FEFF0E4FB7DDA7F1812BF3535
:1052B000900490EFF0E4FB7DDB7F1812BF35900483
:1052C00091EFF0E4FB7DDC7F1812BF35900492EF84
:1052D000F0E4FB7DDD7F1812BF35900493EFF0E41E
:1052E000FB7DE27F1812BF35900494EFF0E4FB7D64
:1052F000E37F1812BF35900495EFF0E4FB7DE87F63
:105300001812BF35900496EFF0E4FB7DE97F181288
:10531000BF35900497EFF0E4FB7DF37F1812BF35A3
:10532000900498EFF0E4FB7DF47F1812BF359004F1
:1053300099EFF0E4FB7DF57F1812BF3590049AEFEA
:10534000F0E4FB7DF67F1812BF3590049BEFF0E48C
:10535000FB7DF77F1812BF3590049CEFF0E4FB7DD6
:10536000F87F1812BF3590049DEFF07F4312CB9168
:10537000E4FBFD7F1812BF359004EDEFF0E4FB7DF8
:10538000017F1812BF359004EEEFF0E4FB7D027F41
:105390001812BF359004EFEFF0E4FB7D037F181285
:1053A000BF359004F0EFF0E4FB7D047F1812BF35A9
:1053B0009004F1EFF0E4FB7D057F1812BF359004F7
:1053C000F2EFF0E4FB7D067F1812BF359004F3EF97
:1053D000F0E4FB7D077F1812BF359004F4EFF0E492
:1053E000FB7D087F1812BF359004F5EFF0E4FB7DDC
:1053F000097F1812BF359004F6EFF0E4FB7D0A7FB9
:105400001812BF359004F7EFF0E4FB7D0B7F181204
:10541000BF359004F8EFF0E4FB7D0C7F1812BF3528
:105420009004F9EFF0E4FB7D0D7F1812BF35900476
:10543000FAEFF0E4FB7D0E7F1812BF359004FBEF0E
:10544000F0E4FB7D0F7F1812BF359004FCEFF0E411
:10545000FB7D107F1812BF359004FDEFF0E4FB7D5B
:10546000117F1812BF359004FEEFF0E4FB7D1B7F27
:105470001812BF359004FFEFF0E4FB7D1C7F18127B
:10548000BF35900500EFF0E4FB7D1D7F1812BF359E
:10549000900501EFF02290017FE012625454E00089
:1054A000551101555602558F10559E825645845709
:1054B000168557DC86583A8759008A59B38B5A6645
:1054C0008C5B2C8D5B8A8E5C53905CF0915CAB9214
:1054D00056E89856FF995D0BB05D27D000005D61DE
:1054E000900727E0C394015003025D617B017A01BC
:1054F00079007533007534807F007EE812BC0D7B27
:10550000017A0179807533007534807F807EE88070
:1055100042900727E0C394015003025D617B017A4A
:105520000179807533007534807F007EEA12BC0DEE
:1055300078117C027D017B017A0179807E007F8079
:10554000125FF77B017A0279937533007534807F9F
:10555000807EEA02BDAF900727E0C39401500302AA
:105560005D617B017A0279117533007534807F00AB
:105570007EEA12BC0D7B017A0179807533007534A7
:10558000807F807EEA12BDAF78937C020256F8904D
:1055900007287401F078007C00FDFB025CE59007B1
:1055A00027E0D394015003025D6190072DE094F849
:1055B00040579001FFE064016003025D619001F8D3
:1055C000E0900928F09001F9E0900929F09001FE9F
:1055D000E0FF90092EF0BF0114900928E0FD7B0543
:1055E0007F1C12BF35900929EFF0025BFE90092E57
:1055F000E06003025BFE900928E0FDA3E0FB757408
:10560000057F1C12BFF2025BFE7B017A0179807577
:1056100033007534807F007EF012BC0D78B07C08BA
:105620007D017B017A0179807E007F80125FF77BAC
:10563000017A0979307533007534807F807EF012ED
:10564000BDAF02CC58900727E0D394015003025D10
:105650006190072DE094F840539001FFE0640160F1
:1056600003025D619001F8E09009A8F09001F9E073
:105670009009A9F09001FEE0FF9009AEF0BF011380
:105680009009A8E0FD7B057F1C12BF359009A9EFAA
:10569000F080169009AEE070109009A8E0FDA3E03C
:1056A000FB7574057F1C12BFF2025BFE7B017A085A
:1056B00079B07533007534807F007EF012BC0D7BAD
:1056C000017A0179807533007534807F807EF01215
:1056D000BDAF78307C097D017B017A0179807E0045
:1056E0007F80125FF702CC5B900727E0D3940150D4
:1056F00003025D6178437C067D017B01025CE590DD
:105700000727E0D394015003025D6178C37C067DD6
:10571000017B01025CE5900727E0D394015003026E
:105720005D6190072DE094F840639001FFE0640113
:105730006003025D619001F8E09004BBF09001F914
:10574000E09004BCF09001FEE0FF9004C1F0BF01C6
:105750001B9001FAE0FF12CB919004BBE0FDE4FB4B
:105760007F1812BF359004BCEFF0801E9004C1E09A
:1057700070189001FAE0FF12CB919004BBE0FDA3FA
:10578000E0FBE4F5747F1812BFF2025BFE7B017A46
:105790000179807533007534807F007EF212BC0D74
:1057A00078437C047D017B017A0179807E007F80D3
:1057B000125FF77B017A0479C37533007534807FFB
:1057C000807EF212BDAF7B017A0779B07533007528
:1057D00034807F007EF312BDAF02C7E8900727E058
:1057E000D394015003025D617B017A0479437533E0
:1057F000007534807F007EF212BC0D7B017A017946
:10580000807533007534807F807EF212BDAF78C31F
:105810007C047D017B017A0179807E007F80125FAC
:10582000F77B017A0779B07533007534807F007E8D
:10583000F312BDAF12CC3D02CC43900727E0D394C6
:10584000015003025D6190072DE094F840639001E0
:10585000FFE064016003025D619001F8E0900828B8
:10586000F09001F9E0900829F09001FEE0FF900827
:105870002EF0BF011B9001FAE0FF12CB9D9008288B
:10588000E0FD7B017F1812BF35900829EFF0801EE4
:1058900090082EE070189001FAE0FF12CB9D90085E
:1058A00028E0FDA3E0FB7574017F1812BFF2025BD4
:1058B000FE7B017A0479437533007534807F007E66
:1058C000F212BC0D7B017A0479C375330075348004
:1058D0007F807EF212BDAF7B017A01798075330043
:1058E0007534807F007EF312BDAF78B07C077D01F8
:1058F0007B017A0179807E007F80125FF702C80207
:10590000900727E0D394015003025D6190072DE0DA
:1059100094F840639001FFE064016003025D6190D0
:1059200001F8E0900A28F09001F9E0900A29F0903F
:1059300001FEE0FF900A2EF0BF011B9001FAE0FF8C
:1059400012CBC1900A28E0FD7B047F2012BF359066
:105950000A29EFF0801E900A2EE070189001FAE0FC
:10596000FF12CBC1900A28E0FDA3E0FB7574047F11
:105970002012BFF2025BFE7B017A01798075330051
:105980007534807F007EF412BC0D78B07C097D01F7
:105990007B017A0179807E007F80125FF77B017A3C
:1059A0000A79307533007534807F807EF412BDAF84
:1059B00002C8B1900727E0D394015003025D6190C3
:1059C000072DE094F840639001FFE064016003025A
:1059D0005D619001F8E0900AA8F09001F9E0900A6A
:1059E000A9F09001FEE0FF900AAEF0BF011B90010C
:1059F000FAE0FF12CBCD900AA8E0FD7B057F2012D4
:105A0000BF35900AA9EFF0801E900AAEE0701890A2
:105A100001FAE0FF12CBCD900AA8E0FDA3E0FB75F0
:105A200074057F2012BFF2025BFE7B017A0979B018
:105A30007533007534807F007EF412BC0D7B017AD3
:105A40000179807533007534807F807EF412BDAF9C
:105A500078307C0A7D017B017A0179807E007F802D
:105A6000125FF702C8DF900727E0D39401500302CA
:105A70005D6190072DE094F840639001FFE06401C0
:105A80006003025D619001F8E09005BBF09001F9C0
:105A9000E09005BCF09001FEE0FF9005C1F0BF0171
:105AA0001B9001FAE0FF12CBA99005BBE0FD7B0340
:105AB0007F1612BF359005BCEFF0801E9005C1E047
:105AC00070189001FAE0FF12CBA99005BBE0FDA38E
:105AD000E0FB7574037F1612BFF2025BFE7B017A56
:105AE0000179807533007534807F007EF812BC0D1B
:105AF00078437C057D017B017A0179807E007F807F
:105B0000125FF77B017A0579C37533007534807FA6
:105B1000807EF812BDAF7B017A087930753300754D
:105B200034807F007EF912BDAF02C81C900727E0C9
:105B3000D394015003025D617B017A05794375338B
:105B4000007534807F007EF812BC0D7B017A0179EC
:105B5000807533007534807F807EF812BDAF78C3C6
:105B60007C057D017B017A0179807E007F80125F58
:105B7000F77B017A0879307533007534807F007EB9
:105B8000F912BDAF12CC4902CC4F900727E0D39455
:105B9000015003025D6190072DE094F8406690018A
:105BA000FFE064016003025D619001F8E09008A8E5
:105BB000F09001F9E09008A9F09001FEE0FF900854
:105BC000AEF0BF011B9001FAE0FF12CBB59008A820
:105BD000E0FD7B027F1612BF359008A9EFF0801E12
:105BE0009008AEE070189001FAE0FF12CBB5900873
:105BF000A8E0FDA3E0FB7574027F1612BFF2E490EB
:105C000001FFF0227B017A057943753300753480FA
:105C10007F007EF812BC0D7B017A0579C3753300D5
:105C20007534807F807EF812BDAF7B017A01798068
:105C30007533007534807F007EF912BDAF78307CFB
:105C4000087D017B017A0179807E007F80125FF7F9
:105C500002C836900727E0D394015003025D6178B3
:105C6000F87C017D017B017A03798B7E007F08122D
:105C70005FF77B017A0179807533007534807F008E
:105C80007EEC12BC0D7B017A037993753300753479
:105C9000807F807EEC12BDAF7B017A037913753172
:105CA000007532807F007EEC02BC55900727E0D360
:105CB00094015003025D617B017A0379137533000F
:105CC0007534807F007EEC12BC0D7B017A017980F7
:105CD0007533007534807F807EEC12BDAF78937C85
:105CE000037D017B017A0179807E007F80025FF76E
:105CF000900727E0D3940140687B017A0179807591
:105D000033007534807F007EEE8019900727E0D342
:105D10009401404D7B017A017980753300753480A0
:105D20007F007EF602BC0D900727E0D3940140313E
:105D300090072DE064247029900730E064117021F1
:105D4000A3E06422701BA3E0B43316A3E0B45511A2
:105D5000A3E0B4660CA3E0B45507780076A575EF10
:105D60001222EC4D6011E8497017ED33EC330460FA
:105D70000DE4FCFFFEFD22E933E8330470F8025F16
:105D800012125EDD58046009E4CC248150062850CC
:105D900009025F1C284003025F19C0E0EB4A70440F
:105DA000B98006D0E0FB025F08EF4E701CBD800892
:105DB000EBFFEAFEE9FD80EBE98DF0A4FEE5F002E1
:105DC0005E4BE9CDF9EAFEEBFFEF89F0A4FCE5F0CC
:105DD000CE89F0A42EFFE435F0CD89F0A42DFEE4A9
:105DE00035F08067EF4E7005BD80D780C3EF8BF034
:105DF000A4ACF0EE8BF0A42CFCE435F0F8EF8AF0C4
:105E0000A42CE5F038FCE433CB8DF0A42CFCE5F0B9
:105E10003BF8EE8AF0A42CFCE5F038F8E433CF89A7
:105E2000F0A42CFCE5F038CF3400CE89F0A42FFF8D
:105E3000E5F03EFEE433C98DF0A42EFEE5F039CD49
:105E40008AF0A42FFFE5F03EFEE43DFD33D0E0FBF9
:105E500050070BBB000F025F1CEC2CFCEF33FFEE76
:105E600033FEED33FD025EF475F020800E75F01008
:105E7000800575F0087D007E007F003392D530D517
:105E800003126221EC334010EF33FFEE33FEED33AB
:105E9000FDEC33FCD5F0ED22E5F0247EA2D513CC49
:105EA00092E7CDCEFF22EDD2E7CD33EC3392D5246D
:105EB000814006E4FFFEFDFC22FCE4CFCECDCC24E5
:105EC000E0501174FF80EDC3CC13CCCD13CDCE13B5
:105ED000CECF13CF0470F030D5DE026221E9D2E7D5
:105EE000C933E833F892D5EDD2E7CD33EC33FC502B
:105EF00002B2D522EC30E7100FBF000C0EBE000836
:105F00000DBD00040BEB6014A2D5EB13FCED92E782
:105F1000FD2274FFFCFDFEFF22E480F8A2D574FF91
:105F200013FC7D80E480EFE709F608DFFA8046E79E
:105F300009F208DFFA803E88828C83E709F0A3DF4C
:105F4000FA8032E309F608DFFA8078E309F208DF25
:105F5000FA807088828C83E309F0A3DFFA80648979
:105F6000828A83E0A3F608DFFA805889828A83E078
:105F7000A3F208DFFA804C80D280FA80C680D480F9
:105F80006980F28033801080A680EA809A80A880A1
:105F9000DA80E280CA803389828A83ECFAE493A3B0
:105FA000C8C582C8CCC583CCF0A3C8C582C8CCC53F
:105FB00083CCDFE9DEE7800D89828A83E493A3F650
:105FC00008DFF9ECFAA9F0EDFB2289828A83ECFA6A
:105FD000E0A3C8C582C8CCC583CCF0A3C8C582C81D
:105FE000CCC583CCDFEADEE880DB89828A83E49358
:105FF000A3F208DFF980CC88F0EF60010E4E60C399
:1060000088F0ED2402B4040050B9F582EB2402B408
:10601000040050AF2323458223905F7773BB0106B2
:1060200089828A83E0225002E722BBFE02E32289B2
:10603000828A83E49322BB010689828A83F02250FC
:1060400002F722BBFE01F322EF8DF0A4A8F0CF8C63
:10605000F0A428CE8DF0A42EFE22BC000BBE002999
:10606000EF8DF084FFADF022E4CCF875F008EF2F4F
:10607000FFEE33FEEC33FCEE9DEC984005FCEE9D0C
:10608000FE0FD5F0E9E4CEFD22EDF8F5F0EE842028
:10609000D21CFEADF075F008EF2FFFED33FD400789
:1060A000985006D5F0F222C398FD0FD5F0EA22C22F
:1060B000D5EC30E709B2D5E4C39DFDE49CFCEE309D
:1060C000E715B2D5E4C39FFFE49EFE12605AC3E415
:1060D0009DFDE49CFC800312605A30D507C3E49F09
:1060E000FFE49EFE22BB010A89828A83F0E5F0A3C9
:1060F000F0225006F709A7F01922BBFE06F3E5F0DF
:1061000009F31922E88FF0A4CC8BF0A42CFCE98EC3
:10611000F0A42CFC8AF0EDA42CFCEA8EF0A4CDA80F
:10612000F08BF0A42DCC3825F0FDE98FF0A42CCD18
:1061300035F0FCEB8EF0A4FEA9F0EB8FF0A4CFC5F8
:10614000F02ECD39FEE43CFCEAA42DCE35F0FDE482
:106150003CFC2275F008758200EF2FFFEE33FECD78
:1061600033CDCC33CCC58233C5829BED9AEC99E517
:106170008298400CF582EE9BFEED9AFDEC99FC0FA7
:10618000D5F0D6E4CEFBE4CDFAE4CCF9A88222B86F
:1061900000C1B90059BA002DEC8BF084CFCECDFCF4
:1061A000E5F0CBF97818EF2FFFEE33FEED33FDEC81
:1061B00033FCEB33FB10D703994004EB99FB0FD86A
:1061C000E5E4F9FA227818EF2FFFEE33FEED33FD08
:1061D000EC33FCC933C910D7059BE99A4007EC9B07
:1061E000FCE99AF90FD8E0E4C9FAE4CCFB2275F097
:1061F00010EF2FFFEE33FEED33FDCC33CCC833C8A8
:1062000010D7079BEC9AE899400AED9BFDEC9AFCAD
:10621000E899F80FD5F0DAE4CDFBE4CCFAE4C8F95C
:1062200022C3E49FFFE49EFEE49DFDE49CFC22EB80
:106230009FF5F0EA9E42F0E99D42F0E89C45F0228D
:10624000E86010ECA2E713FCED13FDEE13FEEF1374
:10625000FFD8F022D083D082F8E4937012740193B7
:10626000700DA3A393F8740193F5828883E473748B
:1062700002936860EFA3A3A380DFEF4E6012EF608C
:10628000010EEDBB010B89828A83F0A3DFFCDEFAED
:106290002289F05007F709DFFCA9F022BBFEFCF3CE
:1062A00009DFFCA9F022EF1470030263E21470030B
:1062B0000265041470030266262403600302674E1D
:1062C0007F2012CBC19009B3E0FB757404E4FD7F1D
:1062D0002012BFF29009B4E0FB7574047D027F20A8
:1062E00012BFF29009B5E0FB7574047D037F2012A4
:1062F000BFF29009B6E0FB7574047D047F2012BFE5
:10630000F29009B7E0FB7574047D057F2012BFF29F
:106310009009B8E0FB7574047D0A7F2012BFF290EB
:1063200009B9E0FB7574047D0D7F2012BFF290095E
:10633000BAE0FB7574047D197F2012BFF29009BB8F
:10634000E0FB7574047D1A7F2012BFF29009BEE055
:10635000FB7574047DC27F2012BFF29009C1E0FB7F
:106360007574047DE27F2012BFF29009C4E0FB75D2
:1063700074047DD27F2012BFF29009BEE020E01E9F
:106380009009BCE0FB7574047DC07F2012BFF290C1
:1063900009BDE0FB7574047DC17F2012BFF2900936
:1063A000C1E020E01E9009BFE0FB7574047DE07F32
:1063B0002012BFF29009C0E0FB7574047DE17F20DC
:1063C00012BFF29009C4E030E00302674E9009C2A8
:1063D000E0FB7574047DD07F2012BFF29009C302E8
:1063E00067427F2112CBC19009C9E0FB757404E4B8
:1063F000FD7F2012BFF29009CAE0FB7574047D0294
:106400007F2012BFF29009CBE0FB7574047D037FFF
:106410002012BFF29009CCE0FB7574047D047F204C
:1064200012BFF29009CDE0FB7574047D057F201248
:10643000BFF29009CEE0FB7574047D0A7F2012BF85
:10644000F29009CFE0FB7574047D0D7F2012BFF23E
:106450009009D0E0FB7574047D197F2012BFF29083
:1064600009D1E0FB7574047D1A7F2012BFF29009F8
:10647000D4E0FB7574047DC27F2012BFF29009D76F
:10648000E0FB7574047DE27F2012BFF29009DAE030
:10649000FB7574047DD27F2012BFF29009D4E020F6
:1064A000E01E9009D2E0FB7574047DC07F2012BF0E
:1064B000F29009D3E0FB7574047DC17F2012BFF216
:1064C0009009D7E020E01E9009D5E0FB7574047DAB
:1064D000E07F2012BFF29009D6E0FB7574047DE1E5
:1064E0007F2012BFF29009DAE030E00302674E909D
:1064F00009D8E0FB7574047DD07F2012BFF29009AB
:10650000D90267427F2212CBC19009DFE0FB75748C
:1065100004E4FD7F2012BFF29009E0E0FB757404F3
:106520007D027F2012BFF29009E1E0FB7574047DCB
:10653000037F2012BFF29009E2E0FB7574047D0432
:106540007F2012BFF29009E3E0FB7574047D057FA4
:106550002012BFF29009E4E0FB7574047D0A7F20ED
:1065600012BFF29009E5E0FB7574047D0D7F2012E7
:10657000BFF29009E6E0FB7574047D197F2012BF1D
:10658000F29009E7E0FB7574047D1A7F2012BFF2D8
:106590009009EAE0FB7574047DC27F2012BFF2907F
:1065A00009EDE0FB7574047DE27F2012BFF29009D3
:1065B000F0E0FB7574047DD27F2012BFF29009EAEF
:1065C000E020E01E9009E8E0FB7574047DC07F20A8
:1065D00012BFF29009E9E0FB7574047DC17F2012BF
:1065E000BFF29009EDE020E01E9009EBE0FB75742E
:1065F000047DE07F2012BFF29009ECE0FB7574048B
:106600007DE17F2012BFF29009F0E030E0030267E5
:106610004E9009EEE0FB7574047DD07F2012BFF22E
:106620009009EF0267427F2312CBC19009F5E0FB8E
:10663000757404E4FD7F2012BFF29009F6E0FB754B
:1066400074047D027F2012BFF29009F7E0FB75749D
:10665000047D037F2012BFF29009F8E0FB757404FB
:106660007D047F2012BFF29009F9E0FB7574047D70
:10667000057F2012BFF29009FAE0FB7574047D0AD1
:106680007F2012BFF29009FBE0FB7574047D0D7F43
:106690002012BFF29009FCE0FB7574047D197F2085
:1066A00012BFF29009FDE0FB7574047D1A7F201281
:1066B000BFF2900A00E0FB7574047DC27F2012BF18
:1066C000F2900A03E0FB7574047DE27F2012BFF2B2
:1066D000900A06E0FB7574047DD27F2012BFF29011
:1066E0000A00E020E01E9009FEE0FB7574047DC006
:1066F0007F2012BFF29009FFE0FB7574047DC17F1B
:106700002012BFF2900A03E020E01E900A01E0FB95
:106710007574047DE07F2012BFF2900A02E0FB75E1
:1067200074047DE17F2012BFF2900A06E020E01E93
:10673000900A04E0FB7574047DD07F2012BFF290B4
:106740000A05E0FB7574047DD17F2012BFF222EFB1
:1067500014700302688B1470030269AD1470030295
:106760006ACF24036003026BF77F2012CBCD900A1F
:1067700033E0FB757405E4FD7F2012BFF2900A340C
:10678000E0FB7574057D027F2012BFF2900A35E0B0
:10679000FB7574057D037F2012BFF2900A36E0FB83
:1067A0007574057D047F2012BFF2900A37E0FB75F7
:1067B00074057D057F2012BFF2900A38E0FB7574E6
:1067C000057D0A7F2012BFF2900A39E0FB7574053F
:1067D0007D0D7F2012BFF2900A3AE0FB7574057DB3
:1067E000197F2012BFF2900A3BE0FB7574057D1AF9
:1067F0007F2012BFF2900A3EE0FB7574057DC27FD8
:106800002012BFF2900A41E0FB7574057DE27F2003
:1068100012BFF2900A44E0FB7574057DD27F20120E
:10682000BFF2900A3EE020E01E900A3CE0FB757447
:10683000057DC07F2012BFF2900A3DE0FB75740514
:106840007DC17F2012BFF2900A41E020E01E900A35
:106850003FE0FB7574057DE07F2012BFF2900A4097
:10686000E0FB7574057DE17F2012BFF2900A44E0E1
:1068700030E003026BF7900A42E0FB7574057DD0AF
:106880007F2012BFF2900A43026BEB7F2112CBCD27
:10689000900A49E0FB757405E4FD7F2012BFF29079
:1068A0000A4AE0FB7574057D027F2012BFF2900A50
:1068B0004BE0FB7574057D037F2012BFF2900A4CFC
:1068C000E0FB7574057D047F2012BFF2900A4DE055
:1068D000FB7574057D057F2012BFF2900A4EE0FB28
:1068E0007574057D0A7F2012BFF2900A4FE0FB7598
:1068F00074057D0D7F2012BFF2900A50E0FB757485
:10690000057D197F2012BFF2900A51E0FB757405D6
:106910007D1A7F2012BFF2900A54E0FB7574057D4A
:10692000C27F2012BFF2900A57E0FB7574057DE22A
:106930007F2012BFF2900A5AE0FB7574057DD27F6A
:106940002012BFF2900A54E020E01E900A52E0FBB1
:106950007574057DC07F2012BFF2900A53E0FB756D
:1069600074057DC17F2012BFF2900A57E020E01E1F
:10697000900A55E0FB7574057DE07F2012BFF29010
:106980000A56E0FB7574057DE17F2012BFF2900A84
:106990005AE030E003026BF7900A58E0FB7574058B
:1069A0007DD07F2012BFF2900A59026BEB7F22123A
:1069B000CBCD900A5FE0FB757405E4FD7F2012BF2C
:1069C000F2900A60E0FB7574057D027F2012BFF231
:1069D000900A61E0FB7574057D037F2012BFF29081
:1069E0000A62E0FB7574057D047F2012BFF2900AF5
:1069F00063E0FB7574057D057F2012BFF2900A6489
:106A0000E0FB7574057D0A7F2012BFF2900A65E0F5
:106A1000FB7574057D0D7F2012BFF2900A66E0FBC6
:106A20007574057D197F2012BFF2900A67E0FB752F
:106A300074057D1A7F2012BFF2900A6AE0FB75741C
:106A4000057DC27F2012BFF2900A6DE0FB757405D0
:106A50007DE27F2012BFF2900A70E0FB7574057D25
:106A6000D27F2012BFF2900A6AE020E01E900A68EE
:106A7000E0FB7574057DC07F2012BFF2900A69E0CB
:106A8000FB7574057DC17F2012BFF2900A6DE02076
:106A9000E01E900A6BE0FB7574057DE07F2012BF5D
:106AA000F2900A6CE0FB7574057DE17F2012BFF265
:106AB000900A70E030E003026BF7900A6EE0FB751D
:106AC00074057DD07F2012BFF2900A6F026BEB7FBE
:106AD0002312CBCD900A75E0FB757405E4FD7F2091
:106AE00012BFF2900A76E0FB7574057D027F2012DA
:106AF000BFF2900A77E0FB7574057D037F2012BF1B
:106B0000F2900A78E0FB7574057D047F2012BFF2D5
:106B1000900A79E0FB7574057D057F2012BFF29025
:106B20000A7AE0FB7574057D0A7F2012BFF2900A95
:106B30007BE0FB7574057D0D7F2012BFF2900A7C0F
:106B4000E0FB7574057D197F2012BFF2900A7DE08D
:106B5000FB7574057D1A7F2012BFF2900A80E0FB5E
:106B60007574057DC27F2012BFF2900A83E0FB7529
:106B700074057DE27F2012BFF2900A86E0FB7574F7
:106B8000057DD27F2012BFF2900A80E020E01E90A7
:106B90000A7EE0FB7574057DC07F2012BFF2900A6B
:106BA0007FE0FB7574057DC17F2012BFF2900A83E0
:106BB000E020E01E900A81E0FB7574057DE07F20F7
:106BC00012BFF2900A82E0FB7574057DE17F20120E
:106BD000BFF2900A86E020E01E900A84E0FB757404
:106BE000057DD07F2012BFF2900A85E0FB75740509
:106BF0007DD17F2012BFF222EF147003026D1414B6
:106C00007003026E16147003026F182403600302EF
:106C100070197F2012CBC17B04E4FD7F2012BF35A9
:106C20009009B3EFF07B047D027F2012BF359009FD
:106C3000B4EFF07B047D037F2012BF359009B5EFE0
:106C4000F07B047D047F2012BF359009B6EFF07B06
:106C5000047D057F2012BF359009B7EFF07B047DDE
:106C60000A7F2012BF359009B8EFF07B047D0D7FBD
:106C70002012BF359009B9EFF07B047D197F2012F7
:106C8000BF359009BAEFF07B047D1A7F2012BF3523
:106C90009009BBEFF07B047DC07F2012BF359009C7
:106CA000BCEFF07B047DC17F2012BF359009BDEFA2
:106CB000F07B047DC27F2012BF359009BEEFF07BD0
:106CC000047DE07F2012BF359009BFEFF07B047D8B
:106CD000E17F2012BF359009C0EFF07B047DE27F99
:106CE0002012BF359009C1EFF07B047DD07F2012C8
:106CF000BF359009C2EFF07B047DD17F2012BF35F4
:106D00009009C3EFF07B047DD27F2012BF3590093C
:106D1000C4EFF0227F2112CBC17B04E4FD7F20125F
:106D2000BF359009C9EFF07B047D027F2012BF358B
:106D30009009CAEFF07B047D037F2012BF359009D4
:106D4000CBEFF07B047D047F2012BF359009CCEFA0
:106D5000F07B047D057F2012BF359009CDEFF07BDD
:106D6000047D0A7F2012BF359009CEEFF07B047DB1
:106D70000D7F2012BF359009CFEFF07B047D197F86
:106D80002012BF359009D0EFF07B047D1A7F2012CE
:106D9000BF359009D1EFF07B047DC07F2012BF3555
:106DA0009009D2EFF07B047DC17F2012BF3590099E
:106DB000D3EFF07B047DC27F2012BF359009D4EF62
:106DC000F07B047DE07F2012BF359009D5EFF07B8A
:106DD000047DE17F2012BF359009D6EFF07B047D62
:106DE000E27F2012BF359009D7EFF07B047DD07F82
:106DF0002012BF359009D8EFF07B047DD17F20129F
:106E0000BF359009D9EFF07B047DD27F2012BF35CA
:106E10009009DAEFF0227F2212CBC17B04E4FD7FE0
:106E20002012BF359009DFEFF07B047D027F201236
:106E3000BF359009E0EFF07B047D037F2012BF3562
:106E40009009E1EFF07B047D047F2012BF359009AB
:106E5000E2EFF07B047D057F2012BF359009E3EF60
:106E6000F07B047D0A7F2012BF359009E4EFF07BB0
:106E7000047D0D7F2012BF359009E5EFF07B047D86
:106E8000197F2012BF359009E6EFF07B047D1A7F51
:106E90002012BF359009E7EFF07B047DC07F201200
:106EA000BF359009E8EFF07B047DC17F2012BF352C
:106EB0009009E9EFF07B047DC27F2012BF35900975
:106EC000EAEFF07B047DE07F2012BF359009EBEF05
:106ED000F07B047DE17F2012BF359009ECEFF07B61
:106EE000047DE27F2012BF359009EDEFF07B047D39
:106EF000D07F2012BF359009EEEFF07B047DD17F6B
:106F00002012BF359009EFEFF07B047DD27F201275
:106F1000BF359009F0EFF0227F2312CBC17B04E450
:106F2000FD7F2012BF359009F5EFF07B047D027FD5
:106F30002012BF359009F6EFF07B047D037F20120D
:106F4000BF359009F7EFF07B047D047F2012BF3539
:106F50009009F8EFF07B047D057F2012BF35900982
:106F6000F9EFF07B047D0A7F2012BF359009FAEF1C
:106F7000F07B047D0D7F2012BF359009FBEFF07B85
:106F8000047D197F2012BF359009FCEFF07B047D52
:106F90001A7F2012BF359009FDEFF07B047DC07F82
:106FA0002012BF359009FEEFF07B047DC17F2012D7
:106FB000BF359009FFEFF07B047DC27F2012BF3503
:106FC000900A00EFF07B047DE07F2012BF35900A2D
:106FD00001EFF07B047DE17F2012BF35900A02EFC4
:106FE000F07B047DE27F2012BF35900A03EFF07B37
:106FF000047DD07F2012BF35900A04EFF07B047D22
:10700000D17F2012BF35900A05EFF07B047DD27F3F
:107010002012BF35900A06EFF022EF1470030271C0
:107020003614700302723814700302733A2403603A
:107030000302743B7F2012CBCD7B05E4FD7F201241
:10704000BF35900A33EFF07B057D027F2012BF35FC
:10705000900A34EFF07B057D037F2012BF35900A44
:1070600035EFF07B057D047F2012BF35900A36EFA7
:10707000F07B057D057F2012BF35900A37EFF07B4E
:10708000057D0A7F2012BF35900A38EFF07B057D21
:107090000D7F2012BF35900A39EFF07B057D197FF7
:1070A0002012BF35900A3AEFF07B057D1A7F20123F
:1070B000BF35900A3BEFF07B057DC07F2012BF35C6
:1070C000900A3CEFF07B057DC17F2012BF35900A0E
:1070D0003DEFF07B057DC27F2012BF35900A3EEF69
:1070E000F07B057DE07F2012BF35900A3FEFF07BFB
:1070F000057DE17F2012BF35900A40EFF07B057DD2
:10710000E27F2012BF35900A41EFF07B057DD07FF2
:107110002012BF35900A42EFF07B057DD17F20120F
:10712000BF35900A43EFF07B057DD27F2012BF353B
:10713000900A44EFF0227F2112CBCD7B05E4FD7F46
:107140002012BF35900A49EFF07B057D027F2012A7
:10715000BF35900A4AEFF07B057D037F2012BF35D3
:10716000900A4BEFF07B057D047F2012BF35900A1B
:107170004CEFF07B057D057F2012BF35900A4DEF67
:10718000F07B057D0A7F2012BF35900A4EEFF07B21
:10719000057D0D7F2012BF35900A4FEFF07B057DF6
:1071A000197F2012BF35900A50EFF07B057D1A7FC2
:1071B0002012BF35900A51EFF07B057DC07F201271
:1071C000BF35900A52EFF07B057DC17F2012BF359D
:1071D000900A53EFF07B057DC27F2012BF35900AE5
:1071E00054EFF07B057DE07F2012BF35900A55EF0C
:1071F000F07B057DE17F2012BF35900A56EFF07BD2
:10720000057DE27F2012BF35900A57EFF07B057DA8
:10721000D07F2012BF35900A58EFF07B057DD17FDB
:107220002012BF35900A59EFF07B057DD27F2012E6
:10723000BF35900A5AEFF0227F2212CBCD7B05E4B6
:10724000FD7F2012BF35900A5FEFF07B057D027F46
:107250002012BF35900A60EFF07B057D037F20127E
:10726000BF35900A61EFF07B057D047F2012BF35AA
:10727000900A62EFF07B057D057F2012BF35900AF2
:1072800063EFF07B057D0A7F2012BF35900A64EF23
:10729000F07B057D0D7F2012BF35900A65EFF07BF6
:1072A000057D197F2012BF35900A66EFF07B057DC2
:1072B0001A7F2012BF35900A67EFF07B057DC07FF3
:1072C0002012BF35900A68EFF07B057DC17F201248
:1072D000BF35900A69EFF07B057DC27F2012BF3574
:1072E000900A6AEFF07B057DE07F2012BF35900A9F
:1072F0006BEFF07B057DE17F2012BF35900A6CEFCC
:10730000F07B057DE27F2012BF35900A6DEFF07BA8
:10731000057DD07F2012BF35900A6EEFF07B057D92
:10732000D17F2012BF35900A6FEFF07B057DD27FB1
:107330002012BF35900A70EFF0227F2312CBCD7B55
:1073400005E4FD7F2012BF35900A75EFF07B057DC7
:10735000027F2012BF35900A76EFF07B057D037F18
:107360002012BF35900A77EFF07B057D047F201255
:10737000BF35900A78EFF07B057D057F2012BF3581
:10738000900A79EFF07B057D0A7F2012BF35900AC5
:107390007AEFF07B057D0D7F2012BF35900A7BEFE1
:1073A000F07B057D197F2012BF35900A7CEFF07BC2
:1073B000057D1A7F2012BF35900A7DEFF07B057D99
:1073C000C07F2012BF35900A7EEFF07B057DC17F24
:1073D0002012BF35900A7FEFF07B057DC27F20121F
:1073E000BF35900A80EFF07B057DE07F2012BF352E
:1073F000900A81EFF07B057DE17F2012BF35900A76
:1074000082EFF07B057DE27F2012BF35900A83EF8B
:10741000F07B057DD07F2012BF35900A84EFF07B92
:10742000057DD17F2012BF35900A85EFF07B057D69
:10743000D27F2012BF35900A86EFF022410AC72082
:10744000410AC8400914534C424636345133326025
:1074500081072F0000000000000000000000000075
:10746000000000000000000000000000000000001C
:10747000000000000000000000000000000000000C
:1074800000000000000000000000000000000000FC
:1074900000000000000000000000000000000000EC
:1074A00000000000000000000000000000000000DC
:1074B00000000000000000000000000000000000CC
:1074C00000000000000000000000000000000000BC
:1074D0000000000041072D004107250041072C0056
:1074E0004107270041072A004107280041072600DD
:1074F000610001000000000000000000000000002A
:10750000000000000000000000000000000000007B
:10751000000000000000000000000000000000006B
:10752000000000000000000000000000000000005B
:10753000000000000000000000000000000000004B
:10754000000000000000000000000000000000003B
:10755000000000000000000000000000000000002B
:10756000000000000000000000000000000000001B
:10757000000000000000000000000000000000000B
:1075800000000000000000000000000000000000FB
:1075900000000000000000000000000000000000EB
:1075A00000000000000000000000000000000000DB
:1075B00000000000000000000000000000000000CB
:1075C00000000000000000000000000000000000BB
:1075D00000000000000000000000000000000000AB
:1075E000000000000000000000000000000000009B
:1075F000000000006080008000000000000000002B
:10760000000000000000000000000000000000007A
:10761000000000000000000000000000000000006A
:10762000000000000000000000000000000000005A
:10763000000000000000000000000000000000004A
:10764000000000000000000000000000000000003A
:10765000000000000000000000000000000000002A
:10766000000000000000000000000000000000001A
:107670000000000000000000608002110000000017
:1076800000000000000000000000000000000000FA
:1076900000000000000000000000000000000000EA
:1076A00000000000000000000000000000000000DA
:1076B00000000000000000000000000000000000CA
:1076C00000000000000000000000000000000000BA
:1076D00000000000000000000000000000000000AA
:1076E000000000000000000000000000000000009A
:1076F0000000000000000000000000006080029315
:107700000000000000000000000000000000000079
:107710000000000000000000000000000000000069
:107720000000000000000000000000000000000059
:107730000000000000000000000000000000000049
:107740000000000000000000000000000000000039
:107750000000000000000000000000000000000029
:107760000000000000000000000000000000000019
:107770000000000000000000000000000000000009
:107780006080000000000000000000000000000019
:1077900000000000000000000000000000000000E9
:1077A00000000000000000000000000000000000D9
:1077B00000000000000000000000000000000000C9
:1077C00000000000000000000000000000000000B9
:1077D00000000000000000000000000000000000A9
:1077E0000000000000000000000000000000000099
:1077F0000000000000000000000000000000000089
:1078000000000000420291000041021002410AB053
:1078100000410AB100410AB200011100010D00024D
:10782000090000010B00010F00010E00010800011A
:1078300013FF010C00011200011000009006C1743A
:10784000FFF0E4A3F0900AC7E0FF12C2F69006B57D
:10785000E0FEA3E0FF900681E0FCA3E0FD756A0076
:10786000756B00756C418E6D8F6E8C6FF5707571D8
:107870000175723B7B007A00793F12BD6C900683E4
:10788000E0754300F5449006B3E0FEA3E0FF9006E8
:1078900087E0FCA3E0FD756A00756B00756C398E9E
:1078A0006D8F6E8C6FF57075710175723B7B007A10
:1078B00000793712BD6C900689E0753B00F53C7588
:1078C0006A00756B00756C309006ADE0F56D900642
:1078D0007DE0F56E756F3F7B007A00792F12BF75E2
:1078E00090067EE0F531E4754E01F54DF54CF54B13
:1078F000C3E53A9538FFE5399537FEAC3BAD3C1210
:10790000605AEF2401FFE43EFEE4FCFDAB4EAA4DBD
:10791000A94CA84B126104C004A905AA06AB07C371
:10792000E530952FFFE49400FEAD317C0012605AE3
:10793000EF2401FFE43EFEE4FCFDD000126104C030
:1079400004A905AA06AB07C3E5429540FFE54195AA
:107950003FFEAC43AD4412605AEF2401FFE43EFE0B
:10796000E4FCFDD0001261048F4E8E4D8D4C8C4B8B
:10797000E4F552F551F550F54F12CB298E478F485B
:1079800012CB298E498F4AE4F556F555F554F55337
:10799000F55EF55DF55CF55BF55AF559F558F5576B
:1079A000F562F561F560F55F852F2EE52ED39530F4
:1079B0004003027B207B3FAD2E7F1412AF21853F19
:1079C00033854034D3E5349542E533954140030295
:1079D0007B107BFF7A03AD34AC337FE812C7B285EE
:1079E0003735853836D3E536953AE5359539400350
:1079F000027AFA7BFF7A03AD36AC357FDC12C7B270
:107A000012004612B10EC3EF9548EE954750048E12
:107A1000478F48C3E54A9FFFE5499EFEE48F668E87
:107A200065F564F563E5562566F556E5553565F566
:107A300055E5543564F554E5533563F553AE33AF2E
:107A400034E4FCFDAB66AA65A964A863126104E591
:107A50005E2FF55EE55D3EF55DE55C3DF55CE55B65
:107A60003CF55BAF2EE4FCFDFEAB66AA65A964A8FD
:107A700063126104E55A2FF55AE5593EF559E55868
:107A80003DF558E5573CF557AE35AF36E4FCFDAB58
:107A900066AA65A964A863126104E5622FF562E530
:107AA000613EF561E5603DF560E55F3CF55FE552FF
:107AB0002401F552E43551F551E43550F550E435E3
:107AC0004FF54FE47F64FEFDFCAB52AA51A950A8CC
:107AD0004F126104AB4EAA4DA94CA84B12618F9076
:107AE00006C2EFF0900643E030E70FE53C2536F59F
:107AF00036E53B3535F5350279E5900643E030E76C
:107B00000FE5442534F534E5433533F5330279C4C4
:107B1000900643E030E709E531252EF52E0279ABDA
:107B2000E4FFFEFDFCAB56AA55A954A853C312624C
:107B30002F7003027BBFA853AF5AAE59AD58AC5754
:107B400012618F8F32AB56AA55A954A853AF5EAEBF
:107B50005DAD5CAC5B12618F8E458F46AB56AA550E
:107B6000A954A853AF62AE61AD60AC5F12618F8E55
:107B70003D8F3E7B3FAD327F1412AF217BFF7A03F6
:107B8000AD46AC457FE812C7B27BFF7A03AD3EAC91
:107B90003D7FDC12C7B29006ADE532F09006B3E54A
:107BA0003DF0A3E53EF0A3E545F0A3E546F09006E1
:107BB00049E547F0A3E548F0E49006C1F0800C9059
:107BC00006C17403F09006BEE004F09006C274642F
:107BD000F0229006C174FFF0E4A3F0900AC7E0FF22
:107BE00012C2F6900671E0FEA3E0FFA3E0FCA3E062
:107BF000FD756A00756B00756C418E6D8F6E8C6FB4
:107C0000F57075710175723B7B007A00793F12BD8A
:107C10006C900675E0754300F544900677E0FEA38E
:107C2000E0FFA3E0FCA3E0FD756A00756B00756CD6
:107C3000398E6D8F6E8C6FF57075710175723B7B2F
:107C4000007A00793712BD6C90067BE0753B00F539
:107C50003C756A00756B00756C309006ADE0F56D93
:107C600090066EE0F56E756F3F7B007A00792F12FB
:107C7000BF7590066FE0F531E4754E01F54DF54C9A
:107C8000F54BC3E53A9538FFE5399537FEAC3BAD8A
:107C90003C12605AEF2401FFE43EFEE4FCFDAB4ED3
:107CA000AA4DA94CA84B126104C004A905AA06ABB1
:107CB00007C3E530952FFFE49400FEAD317C001240
:107CC000605AEF2401FFE43EFEE4FCFDD0001261A7
:107CD00004C004A905AA06AB07C3E5429540FFE529
:107CE00041953FFEAC43AD4412605AEF2401FFE4DE
:107CF0003EFEE4FCFDD0001261048F4E8E4D8D4C93
:107D00008C4BE4F552F551F550F54F12CB298E49C5
:107D10008F4A854947854A48E4F556F555F554F5A7
:107D200053F55EF55DF55CF55BF55AF559F558F5DB
:107D300057F562F561F560F55F852F2EE52ED39539
:107D4000304003027EB17B3FAD2E7F1412AF218500
:107D50003F33854034D3E5349542E53395414003C4
:107D6000027EA17BFF7A03AD34AC337FE812C7B249
:107D7000853735853836D3E536953AE5359539403A
:107D800003027E8B7BFF7A03AD36AC357FDC12C7F6
:107D9000B212004612B10EC3EF9548EE954750045B
:107DA0008E478F48C3E54A9FFFE5499EFEE48F66F4
:107DB0008E65F564F563E5562566F556E55535653A
:107DC000F555E5543564F554E5533563F553AE3355
:107DD000AF34E4FCFDAB66AA65A964A86312610434
:107DE000E55E2FF55EE55D3EF55DE55C3DF55CE548
:107DF0005B3CF55BAF2EE4FCFDFEAB66AA65A964B7
:107E0000A863126104E55A2FF55AE5593EF559E584
:107E1000583DF558E5573CF557AE35AF36E4FCFD17
:107E2000AB66AA65A964A863126104E5622FF562D6
:107E3000E5613EF561E5603DF560E55F3CF55FE5D8
:107E4000522401F552E43551F551E43550F550E432
:107E5000354FF54FE47F64FEFDFCAB52AA51A950AB
:107E6000A84F126104AB4EAA4DA94CA84B12618FCA
:107E70009006C2EFF0900643E030E70FE53C253670
:107E8000F536E53B3535F535027D76900643E03035
:107E9000E70FE5442534F534E5433533F533027D0A
:107EA00055900643E030E709E531252EF52E027D99
:107EB0003CE4FFFEFDFCAB56AA55A954A853C312DF
:107EC000622F7003027F50A853AF5AAE59AD58AC21
:107ED0005712618F8F32AB56AA55A954A853AF5E83
:107EE000AE5DAD5CAC5B12618F8E458F46AB56AA22
:107EF00055A954A853AF62AE61AD60AC5F12618FFB
:107F00008E3D8F3E7B3FAD327F1412AF217BFF7AD7
:107F100003AD46AC457FE812C7B27BFF7A03AD3EA6
:107F2000AC3D7FDC12C7B29006ADE532F09006B3EF
:107F3000E53DF0A3E53EF0A3E545F0A3E546F0906E
:107F40000649E547F0A3E548F0E49006C1F0800C4F
:107F50009006C17402F09006BEE004F09006C27470
:107F600064F0229006C174FFF0E4A3F0900AC7E029
:107F7000FF12C2F6756A00756B00756C2F90064C87
:107F8000E0F56DA3E0F56E756F1F7B007A00792E2A
:107F900012BF7590064EE0F530756A00756B00757E
:107FA0006C34A3E0F56DA3E0F56E756F3F7B007A4E
:107FB00000793312BF75900651E0F535900653E015
:107FC000FEA3E0FFA3E0FCA3E0756A00756B0075FB
:107FD0006C3A8E6D8F6E8C6FF57075710075727E58
:107FE0007B007A00793812BD6C900657E0753C0032
:107FF000F53DE4755D01F55CF55BF55AC3E52F953C
:108000002EFFE49400FEAD307C0012605AEF240194
:10801000FFE43EFEE4FCFDAB5DAA5CA95BA85A123E
:108020006104C004A905AA06AB07C3E5349533FF74
:10803000E49400FEAD357C0012605AEF2401FFE4A9
:108040003EFEE4FCFDD000126104C004A905AA06AE
:10805000AB07C3E53B9539FFE53A9538FEAC3CAD3F
:108060003D12605AEF2401FFE43EFEE4FCFDD00027
:108070001261048F5D8E5C8D5B8C5AE4F561F56056
:10808000F55FF55E12CB298E428F4312CB298E44C9
:108090008F45E4F549F548F547F546F551F550F5B6
:1080A0004FF54EF54DF54CF54BF54AF555F554F5B4
:1080B00053F552852E32E532D3952F400302821BB1
:1080C000E532FD7B3F7FB312AF21853337E537D3F0
:1080D0009534400302820BE537FD7B3F7F1412AFDE
:1080E00021853840853941D3E541953BE540953AB6
:1080F00040030281FB7BFF7A03AD41AC407FE2127B
:10810000C7B212004612B10EC3EF9543EE9542502E
:10811000048E428F43C3E5459FFFE5449EFEE48FF6
:10812000598E58F557F556E5492559F549E548352D
:1081300058F548E5473557F547E5463556F546AF16
:1081400032E4FCFDFEAB59AA58A957A856126104A7
:10815000E5512FF551E5503EF550E54F3DF54FE522
:108160004E3CF54EAF37E4FCFDFEAB59AA58A9577B
:10817000A856126104E54D2FF54DE54C3EF54CE552
:108180004B3DF54BE54A3CF54AAE40AF41E4FCFDC2
:10819000AB59AA58A957A856126104E5552FF555B1
:1081A000E5543EF554E5533DF553E5523CF552E5B3
:1081B000612401F561E43560F560E4355FF55FE465
:1081C000355EF55EE47F64FEFDFCAB61AA60A95FED
:1081D000A85E126104AB5DAA5CA95BA85A12618F0C
:1081E0009006C2EFF0900643E030E70FE53D2541F1
:1081F000F541E53C3540F5400280E7900643E0302C
:10820000E709E5352537F5370280CD900643E030A4
:10821000E709E5302532F5320280B6E4FFFEFDFCC9
:10822000AB49AA48A947A846C312622F700302822D
:10823000B2A846AF4DAE4CAD4BAC4A12618F8F36F3
:10824000AB49AA48A947A846AF51AE50AD4FAC4E76
:1082500012618F8F31AB49AA48A947A846AF55AEE6
:1082600054AD53AC5212618F8E3E8F3F7B3FAD3188
:108270007FB312AF219006ACE531F07B3FAD367F86
:108280001412AF219006ADE536F07BFF7A03AD3FC7
:10829000AC3E7FE212C7B29006B7E53EF0A3E53FE1
:1082A000F0900649E542F0A3E543F0E49006C1F002
:1082B000800C9006C17401F09006BEE004F09006B8
:1082C000C27464F022E4F52CF52DF52EF52FEFB4F1
:1082D000080040030286079082DEF8282873028295
:1082E000F60283580283BA02841C02847E0284E070
:1082F0000285420285A2E4FF12B46E900AB3EEF04A
:10830000A3EFF08E2EF52F90031AE0FDA3E0FBA360
:10831000E0F538A3E0F53912BCF5900AB3EEF0A30E
:10832000EFF090032A12BCE48E2E8F2F900002E013
:1083300030E00DE49000AAF0A3F090009A0285E9E5
:10834000900AB3E0FCA3E0FDEC9000AAF0A3EDF0EE
:10835000E52E90009A0286027F2012B46E900AB534
:10836000EEF0A3EFF08E2EF52F90031EE0FDA3E0BC
:10837000FBA3E0F538A3E0F53912BCF5900AB5EEA1
:10838000F0A3EFF090032E12BCE48E2E8F2F9000FE
:1083900002E030E10DE49000ACF0A3F090009C020C
:1083A00085E9900AB5E0FCA3E0FDEC9000ACF0A3F9
:1083B000EDF0E52E90009C0286027F4012B46E9094
:1083C0000AB7EEF0A3EFF08E2EF52F900322E0FD1A
:1083D000A3E0FBA3E0F538A3E0F53912BCF5900A61
:1083E000B7EEF0A3EFF090033212BCE48E2E8F2F85
:1083F000900002E030E20DE49000AEF0A3F09000B7
:108400009E0285E9900AB7E0FCA3E0FDEC9000AE87
:10841000F0A3EDF0E52E90009E0286027F6012B47C
:108420006E900AB9EEF0A3EFF08E2EF52F90032692
:10843000E0FDA3E0FBA3E0F538A3E0F53912BCF5BD
:10844000900AB9EEF0A3EFF090033612BCE48E2E42
:108450008F2F900002E030E30DE49000B0F0A3F025
:108460009000A00285E9900AB9E0FCA3E0FDEC9041
:1084700000B0F0A3EDF0E52E9000A0028602E4FF2C
:1084800012B4D7900ABBEEF0A3EFF08E2EF52F902A
:10849000039AE0FDA3E0FBA3E0F538A3E0F5391271
:1084A000BCF5900ABBEEF0A3EFF09003AA12BCE477
:1084B0008E2E8F2F900002E030E40DE49000B2F099
:1084C000A3F09000A20285E9900ABBE0FCA3E0FDC6
:1084D000EC9000B2F0A3EDF0E52E9000A20286022F
:1084E0007F2012B4D7900ABDEEF0A3EFF08E2EF5E8
:1084F0002F90039EE0FDA3E0FBA3E0F538A3E0F599
:108500003912BCF5900ABDEEF0A3EFF09003AE1265
:10851000BCE48E2E8F2F900002E030E50DE4900039
:10852000B4F0A3F09000A40285E9900ABDE0FCA39A
:10853000E0FDEC9000B4F0A3EDF0E52E9000A40275
:1085400086027F4012B4D7900ABFEEF0A3EFF08E00
:108550002EF52F9003A2E0FDA3E0FBA3E0F538A3E6
:10856000E0F53912BCF5900ABFEEF0A3EFF09003EE
:10857000B212BCE48E2E8F2F900002E030E60CE4A5
:108580009000B6F0A3F09000A6805E900ABFE0FCD9
:10859000A3E0FDEC9000B6F0A3EDF0E52E9000A670
:1085A00080607F6012B4D7900AC1EEF0A3EFF08E26
:1085B0002EF52F9003A6E0FDA3E0FBA3E0F538A382
:1085C000E0F53912BCF5900AC1EEF0A3EFF090038C
:1085D000B612BCE48E2E8F2F900002E030E70EE43E
:1085E0009000B8F0A3F09000A8F0A3F022900AC188
:1085F000E0FCA3E0FDEC9000B8F0A3EDF0E52E90D8
:1086000000A8F0A3E52FF022C0E0C0F0C083C08234
:10861000C0D075D000C000C001C002C003C004C0FB
:1086200005C006C00775210075220030C20302880C
:10863000B9E5C054F0700302870024F0700302878C
:108640002324D0700302881E24F070030288AD2416
:108650003060030288B1C2C5900725E5C2F0E0FF93
:1086600054FE64A060030286FBA3F0EF20E0030247
:1086700086F690072DE0FFC394805021EF9476405A
:1086800012EF947F500D74002FF582E43401F583CE
:1086900074FFF074002FF582E43401805490017F60
:1086A000E0FFB4010D90072DE02491F582E4340140
:1086B000803FEFB4020D90072DE02413F582E434DF
:1086C00002802E90017FE0FFB4100D90072DE02472
:1086D00080F582E434FF8019EF90072DB4110AE091
:1086E0002400F582E434008008E02400F582E434BC
:1086F00001F583E0F5C2D2C10288BFC2C10288BFC2
:1087000090072CE0242FF582E43407F583E5C2F0CE
:1087100090072FE090072DF090072CE004F0D2C1D5
:108720000288BFC2C4900726E06003028816900743
:108730002CE0FFC39402500302881690072A7401AC
:10874000F0EF1490072EF090072DE0647F60030295
:1087500087F890072CE0640260030287F8900730E6
:10876000E090017FF070147B017A017980F531751A
:1087700032807F807EE812BC55806E90017FE0B42D
:10878000011578807C017D017B017A0279117E00E0
:108790007F80125FF7805290017FE0B402157880ED
:1087A0007C017D017B017A0279937E007F80125FDC
:1087B000F7803690017FE0B4101578807C017D0150
:1087C0007B017A0079007E007F80125FF7801A902B
:1087D000017FE0B4111A78807C017D017B017A0071
:1087E00079807E007F80125FF7900729E4F0802671
:1087F0009007297401F0801E90072DE0FFC3947A42
:10880000400EEFD3947D50089007297405F0800640
:108810009007297407F090072CE4F00288BF20C16C
:10882000030288BF90072DE004F0E0FFC39480505E
:1088300021EF94764012EF947F500D74002FF58253
:10884000E43401F58374FFF074002FF582E4340101
:10885000805490017FE0FFB4010D90072DE024913A
:10886000F582E43401803FEFB4020D90072DE0243F
:1088700013F582E43402802E90017FE0FFB4100DE6
:1088800090072DE02480F582E434FF8019EF9007F3
:108890002DB4110AE02400F582E434008008E024BD
:1088A00000F582E43401F583E0F5C28012C2C48091
:1088B0000E53C17F43C1808000C2C5C2C4C2C1C2C1
:1088C000C0D007D006D005D004D003D002D001D04C
:1088D00000D0D0D082D083D0F0D0E032A907900071
:1088E00022E0FFA3E0FEA3E0FDA3E0FCEF540FFBBA
:1088F000C3940840027B0774332BF582E43404F5FB
:1089000083E044409005F6F0A3F0A3F0EF54F0C4E8
:10891000540FFBC3940840027B0774332BF582E4A9
:108920003404F583E044409005E1F0A3F0A3F0EEB9
:10893000540FFBC3940840027B0774332BF582E489
:108940003404F583E044409005CCF0A3F0A3F0EEAE
:1089500054F0C4540FFBC3940840027B0774332BBC
:10896000F582E43404F583E044409005A7F0A3F0D9
:10897000A3F0ED540FFBC3940840027B0774332B24
:10898000F582E43404F583E04440900635F0A3F02A
:10899000A3F0ED54F0C4540FFBC3940840027B07CE
:1089A00074332BF582E43404F583E04440900620D0
:1089B000F0A3F0A3F0EC540FFBC3940840027B0734
:1089C00074332BF582E43404F583E0444090060BC5
:1089D000F0A3F0A3F0EC54F0C4540FFBC394084090
:1089E000027B0774332BF582E43404F583E04440C2
:1089F000900894F0A3F0A3F0E964016003028B9067
:108A00007F4312CBA99005F6E0FB7574037D097FC7
:108A10001612BFF29005F7E0FB7574037D0A7F160E
:108A200012BFF29005F8E0FB7574037D0B7F161200
:108A3000BFF27F4212CBA99005E1E0FB7574037D84
:108A4000097F1612BFF29005E2E0FB7574037D0A00
:108A50007F1612BFF29005E3E0FB7574037D0B7F78
:108A60001612BFF27F4112CBA99005CCE0FB7574C2
:108A7000037D097F1612BFF29005CDE0FB757403EC
:108A80007D0A7F1612BFF29005CEE0FB7574037D60
:108A90000B7F1612BFF27F4012CBA99005A7E0FB17
:108AA0007574037D097F1612BFF29005A8E0FB756F
:108AB00074037D0A7F1612BFF29005A9E0FB75745E
:108AC000037D0B7F1612BFF27F4312CBB5900635A4
:108AD000E0FB7574027D097F1612BFF2900636E046
:108AE000FB7574027D0A7F1612BFF2900637E0FB19
:108AF0007574027D0B7F1612BFF27F4212CBB590C8
:108B00000620E0FB7574027D097F1612BFF2900605
:108B100021E0FB7574027D0A7F1612BFF2900622D7
:108B2000E0FB7574027D0B7F1612BFF27F4112CB02
:108B3000B590060BE0FB7574027D097F1612BFF23B
:108B400090060CE0FB7574027D0A7F1612BFF2904E
:108B5000060DE0FB7574027D0B7F1612BFF27F409D
:108B600012CBB5900894E0FB7574027D097F161254
:108B7000BFF2900895E0FB7574027D0A7F1612BF64
:108B8000F2900896E0FB7574027D0B7F1612BFF21F
:108B900022A907900026E0FFA3E0FEA3E0FDA3E0EA
:108BA000FCEF540FFBC3940840027B0774132BF5B2
:108BB00082E43404F583E044409005F9F0A3F0A387
:108BC000F0EF54F0C4540FFBC3940840027B0774C9
:108BD000132BF582E43404F583E044409005E4F07F
:108BE000A3F0A3F0EE540FFBC3940840027B07747C
:108BF000132BF582E43404F583E044409005CFF074
:108C0000A3F0A3F0EE54F0C4540FFBC39408400249
:108C10007B0774132BF582E43404F583E044409021
:108C200005AAF0A3F0A3F0ED540FFBC39408400293
:108C30007B0774132BF582E43404F583E044409001
:108C40000638F0A3F0A3F0ED54F0C4540FFBC39426
:108C50000840027B0774132BF582E43404F583E0AB
:108C60004440900623F0A3F0A3F0EC540FFBC39410
:108C70000840027B0774132BF582E43404F583E08B
:108C8000444090060EF0A3F0A3F0EC54F0C4540F4F
:108C9000FBC3940840027B0774132BF582E4340471
:108CA000F583E04440900897F0A3F0A3F0E9640155
:108CB0006003028E457F4312CBA99005F9E0FB7556
:108CC00074037D0C7F1612BFF29005FAE0FB7574F9
:108CD000037D0D7F1612BFF29005FBE0FB75740358
:108CE0007D0E7F1612BFF27F4212CBA99005E4E001
:108CF000FB7574037D0C7F1612BFF29005E5E0FB57
:108D00007574037D0D7F1612BFF29005E6E0FB75CA
:108D100074037D0E7F1612BFF27F4112CBA990051E
:108D2000CFE0FB7574037D0C7F1612BFF29005D067
:108D3000E0FB7574037D0D7F1612BFF29005D1E044
:108D4000FB7574037D0E7F1612BFF27F4012CBA914
:108D50009005AAE0FB7574037D0C7F1612BFF2909C
:108D600005ABE0FB7574037D0D7F1612BFF2900515
:108D7000ACE0FB7574037D0E7F1612BFF27F4312C9
:108D8000CBB5900638E0FB7574027D0C7F1612BFE0
:108D9000F2900639E0FB7574027D0D7F1612BFF26A
:108DA00090063AE0FB7574027D0E7F1612BFF27FCB
:108DB0004212CBB5900623E0FB7574027D0C7F1642
:108DC00012BFF2900624E0FB7574027D0D7F16122F
:108DD000BFF2900625E0FB7574027D0E7F1612BF70
:108DE000F27F4112CBB590060EE0FB7574027D0C4C
:108DF0007F1612BFF290060FE0FB7574027D0D7FA7
:108E00001612BFF2900610E0FB7574027D0E7F16FD
:108E100012BFF27F4012CBB5900897E0FB75740249
:108E20007D0C7F1612BFF2900898E0FB7574027DEE
:108E30000D7F1612BFF2900899E0FB7574027D0E4B
:108E40007F1612BFF222A90790002AE0FFA3E0FEDE
:108E5000A3E0FDA3E0FCEF540FFBC3940440027BAE
:108E60000374002BF582E43402F583E044C09005DE
:108E7000EDF0A3F0A3F0EF54F0C4540FFBC394043F
:108E800040027B0374002BF582E43402F583E04456
:108E9000C09005D8F0A3F0A3F0EE540FFBC39404E8
:108EA00040027B0374002BF582E43402F583E04436
:108EB000C09005C3F0A3F0A3F0EE54F0C4540FFB30
:108EC000C3940440027B0374002BF582E43402F562
:108ED00083E044C090059EF0A3F0A3F0ED540FFB97
:108EE000C3940440027B0374002BF582E43402F542
:108EF00083E0444090062CF0A3F0A3F07B00EBC38A
:108F0000940440027B0374002BF582E43402F58361
:108F1000E04440900617F0A3F0A3F0EC540FFBC31D
:108F2000940440027B0374002BF582E43402F58341
:108F3000E04440900602F0A3F0A3F07B00EBC39462
:108F40000440027B0374002BF582E43402F583E0D5
:108F5000444090088BF0A3F0A3F0E96401600302A1
:108F600090F27F4312CBA99005EDE0FB757403E40A
:108F7000FD7F1612BFF29005EEE0FB7574037D01D4
:108F80007F1612BFF29005EFE0FB7574037D027F40
:108F90001612BFF27F4212CBA99005D8E0FB757480
:108FA00003E4FD7F1612BFF29005D9E0FB75740350
:108FB0007D017F1612BFF29005DAE0FB7574037D28
:108FC000027F1612BFF27F4112CBA99005C3E0FBCE
:108FD000757403E4FD7F1612BFF29005C4E0FB75C3
:108FE00074037D017F1612BFF29005C5E0FB757416
:108FF000037D027F1612BFF27F4012CBA990059E1F
:10900000E0FB757403E4FD7F1612BFF290059FE04C
:10901000FB7574037D017F1612BFF29005A0E0FB83
:109020007574037D027F1612BFF27F4312CBB59099
:10903000062CE0FB757402E4FD7F1612BFF2900669
:109040002DE0FB7574027D017F1612BFF290062E93
:10905000E0FB7574027D027F1612BFF27F4212CBD5
:10906000B5900617E0FB757402E4FD7F1612BFF29F
:10907000900618E0FB7574027D017F1612BFF29016
:109080000619E0FB7574027D027F1612BFF27F4164
:1090900012CBB5900602E0FB757402E4FD7F161258
:1090A000BFF2900603E0FB7574027D017F1612BFCC
:1090B000F2900604E0FB7574027D027F1612BFF287
:1090C0007F4012CBB590088BE0FB757402E4FD7F06
:1090D0001612BFF290088CE0FB7574027D017F16BA
:1090E00012BFF290088DE0FB7574027D027F1612AC
:1090F000BFF2227B05E4FD7F1C12BF359008B0EF64
:10910000F07B057D017F1C12BF359008B1EFF07B2D
:10911000057D177F1C12BF359008B2EFF07B057DEF
:10912000187F1C12BF359008B3EFF07B057D1A7FC6
:109130001C12BF359008B4EFF07B057D037F1C1235
:10914000BF359008BCEFF07B057D057F1C12BF3555
:109150009008BEEFF07B057D107F1C12BF35900894
:10916000BFEFF07B057D167F1C12BF359008C0EF66
:10917000F07B057D197F1C12BF359008C1EFF07B95
:10918000057D1B7F1C12BF359008C2EFF07B057D6B
:109190001C7F1C12BF359008C3EFF07B057D1D7F3F
:1091A0001C12BF359008C4EFF07B057D217F1C1297
:1091B000BF359008C6EFF07B057D227F1C12BF35BE
:1091C0009008C7EFF07B057D257F1C12BF35900806
:1091D000C8EFF07B057D267F1C12BF359008C9EFD4
:1091E000F07B057D277F1C12BF359008CAEFF07B0E
:1091F000057D287F1C12BF359008CBEFF07B057DE5
:10920000407F1C12BF359008CDEFF07B057D417F7C
:109210001C12BF359008CEEFF07B057D427F1C12FB
:10922000BF359008CFEFF07B057D437F1C12BF3523
:109230009008D0EFF07B057D447F1C12BF3590086D
:10924000D1EFF07B057D457F1C12BF359008D2EF32
:10925000F07B057D467F1C12BF359008D3EFF07B75
:10926000057D477F1C12BF359008D4EFF07B057D4C
:10927000487F1C12BF359008D5EFF07B057D497FF4
:109280001C12BF359008D6EFF07B057D4A7F1C127B
:10929000BF359008D7EFF07B057D4B7F1C12BF35A3
:1092A0009008D8EFF07B057D4C7F1C12BF359008ED
:1092B000D9EFF07B057D4D7F1C12BF359008DAEFAA
:1092C000F07B057D4F7F1C12BF359008DBEFF07BF4
:1092D000057D507F1C12BF359008DCEFF07B057DCB
:1092E000517F1C12BF359008DDEFF07B057D527F6A
:1092F0001C12BF359008DEEFF07B057D5E7F1C12EF
:10930000BF359008E0EFF07B057D5F7F1C12BF3515
:109310009008E1EFF07B057D607F1C12BF3590085F
:10932000E2EFF07B057D627F1C12BF359008E3EF12
:10933000F07B057D917F1C12BF359008E5EFF07B37
:10934000057D927F1C12BF359008E6EFF0227B046A
:10935000E4FD7F1C12BF35900930EFF07B047D01E6
:109360007F1C12BF35900931EFF07B047D177F1C05
:1093700012BF35900932EFF07B047D187F1C12BFBD
:1093800035900933EFF07B047D1A7F1C12BF3590B6
:109390000934EFF07B047D037F1C12BF3590093C3C
:1093A000EFF07B047D057F1C12BF3590093EEFF086
:1093B0007B047D107F1C12BF3590093FEFF07B04CA
:1093C0007D167F1C12BF35900940EFF07B047D199C
:1093D0007F1C12BF35900941EFF07B047D1B7F1C81
:1093E00012BF35900942EFF07B047D1C7F1C12BF39
:1093F00035900943EFF07B047D1D7F1C12BF359033
:109400000944EFF07B047D217F1C12BF3590094693
:10941000EFF07B047D227F1C12BF35900947EFF0EF
:109420007B047D257F1C12BF35900948EFF07B043B
:109430007D267F1C12BF35900949EFF07B047D2704
:109440007F1C12BF3590094AEFF07B047D287F1CFA
:1094500012BF3590094BEFF07B047D407F1C12BF9B
:109460003590094DEFF07B047D417F1C12BF359094
:10947000094EEFF07B047D427F1C12BF3590094FEF
:10948000EFF07B047D437F1C12BF35900950EFF055
:109490007B047D447F1C12BF35900951EFF07B04A3
:1094A0007D457F1C12BF35900952EFF07B047D464D
:1094B0007F1C12BF35900953EFF07B047D477F1C62
:1094C00012BF35900954EFF07B047D487F1C12BF1A
:1094D00035900955EFF07B047D497F1C12BF359014
:1094E0000956EFF07B047D4A7F1C12BF3590095767
:1094F000EFF07B047D4B7F1C12BF35900958EFF0D5
:109500007B047D4C7F1C12BF35900959EFF07B0422
:109510007D4D7F1C12BF3590095AEFF07B047D4FC3
:109520007F1C12BF3590095BEFF07B047D507F1CE0
:1095300012BF3590095CEFF07B047D517F1C12BF98
:109540003590095DEFF07B047D527F1C12BF359092
:10955000095EEFF07B047D5E7F1C12BF35900960D1
:10956000EFF07B047D5F7F1C12BF35900961EFF047
:109570007B047D607F1C12BF35900962EFF07B0495
:109580007D627F1C12BF35900963EFF07B047D91F3
:109590007F1C12BF35900965EFF07B047D927F1C24
:1095A00012BF35900966EFF02290017FE0126254FD
:1095B000961A8296388496568596748696958796DE
:1095C000B38A96D18B96EF8C970C8D972C8E9749FA
:1095D00090978891976A9295E49895FF9997A4B08F
:1095E000000097E8900727E0D3940150030297E822
:1095F00078807C017D017B017A06794302977F9018
:109600000727E0D3940150030297E878807C017D1E
:10961000017B017A0679C302977F900727E0D394F4
:109620000150030297E812BB3178807C017D017BF9
:10963000017A0879B002977F900727E0D394015010
:10964000030297E812BB7B78807C017D017B017A65
:1096500009793002977F900727E0D39401500302E5
:1096600097E812C6B278807C017D017B017A04798B
:109670004302977F900727E0D3940150030297E8B5
:1096800012CC4012CC4678807C017D017B017A04AB
:1096900079C302977F900727E0D394015003029784
:1096A000E812C6CF78807C017D017B017A0779B012
:1096B00002977F900727E0D3940150030297E812A6
:1096C000C8C878807C017D017B017A0979B0029756
:1096D0007F900727E0D3940150030297E812C8F661
:1096E00078807C017D017B017A0A793002977F9036
:1096F0000727E0C3940150030297E812C6EC788074
:109700007C017D017B017A0579438073900727E016
:10971000C3940150030297E812CC4C12CC527880CB
:109720007C017D017B017A0579C38053900727E096
:10973000C3940150030297E812C70978807C017D29
:10974000017B017A0879308036900727E0D39401B5
:10975000403490038D7403F0A3E4F078807C017DA5
:10976000017B017A037913FE8017900727E0D394D9
:1097700001401378807C017D017B017A0379937E1F
:10978000007F80025FF78051900727E0D39401406B
:10979000577B017A0179807531007532807F007EB8
:1097A000EE02BC55900727E0D39401402C78807CD2
:1097B000017D017B007A0079147E007F09125FF73A
:1097C0007B017A0179897531007532777F097EF6E0
:1097D00012BC55900727E0F0227E007F807DFF7B42
:1097E000017A01798012627A229008BCE0FB7574DC
:1097F000057D037F1C12BFF29008BEE0FB75740567
:109800007D057F1C12BFF29008BFE0FB7574057DDB
:10981000107F1C12BFF29008C0E0FB7574057D1626
:109820007F1C12BFF29008C1E0FB7574057D197FA3
:109830001C12BFF29008C2E0FB7574057D1B7F1CF3
:1098400012BFF29008C3E0FB7574057D1C7F1C12EB
:10985000BFF29008C4E0FB7574057D1D7F1C12BF2C
:10986000F29008C6E0FB7574057D217F1C12BFF2E3
:109870009008C7E0FB7574057D227F1C12BFF29033
:1098800008C8E0FB7574057D257F1C12BFF29008A7
:10989000C9E0FB7574057D267F1C12BFF29008CAD3
:1098A000E0FB7574057D277F1C12BFF29008CBE0AA
:1098B000FB7574057D287F1C12BFF29008CDE0FB7C
:1098C0007574057D407F1C12BFF29008CEE0FB75D9
:1098D00074057D417F1C12BFF29008D7E0FB7574C0
:1098E000057D4A7F1C12BFF29008D8E0FB75740515
:1098F0007D4B7F1C12BFF29008D9E0FB7574057D8B
:109900004C7F1C12BFF29008DAE0FB7574057D4DA8
:109910007F1C12BFF29008DBE0FB7574057D4F7F62
:109920001C12BFF29008DCE0FB7574057D507F1CB3
:1099300012BFF29008DDE0FB7574057D517F1C12AB
:10994000BFF29008DEE0FB7574057D527F1C12BFEC
:10995000F29008E0E0FB7574057D5E7F1C12BFF29B
:109960009008E1E0FB7574057D5F7F1C12BFF290EB
:1099700008CFE0FB7574057D427F1C12BFF2900892
:10998000D0E0FB7574057D437F1C12BFF29008D1B7
:10999000E0FB7574057D447F1C12BFF29008D2E095
:1099A000FB7574057D457F1C12BFF29008D3E0FB68
:1099B0007574057D467F1C12BFF29008D4E0FB75DC
:1099C00074057D477F1C12BFF29008D5E0FB7574CB
:1099D000057D487F1C12BFF29008D6E0FB75740528
:1099E0007D497F1C02BFF290093CE0FB7574047D49
:1099F000037F1C12BFF290093EE0FB7574047D05E5
:109A00007F1C12BFF290093FE0FB7574047D107F4C
:109A10001C12BFF2900940E0FB7574047D167F1C98
:109A200012BFF2900941E0FB7574047D197F1C128E
:109A3000BFF2900942E0FB7574047D1B7F1C12BFCE
:109A4000F2900943E0FB7574047D1C7F1C12BFF289
:109A5000900944E0FB7574047D1D7F1C12BFF290D9
:109A60000946E0FB7574047D217F1C12BFF290094A
:109A700047E0FB7574047D227F1C12BFF2900948F9
:109A8000E0FB7574047D257F1C12BFF2900949E04C
:109A9000FB7574047D267F1C12BFF290094AE0FB1F
:109AA0007574047D277F1C12BFF290094BE0FB7593
:109AB00074047D287F1C12BFF290094DE0FB757481
:109AC000047D407F1C12BFF290094EE0FB757404C8
:109AD0007D417F1C12BFF2900957E0FB7574047D35
:109AE0004A7F1C12BFF2900958E0FB7574047D4B4D
:109AF0007F1C12BFF2900959E0FB7574047D4C7F06
:109B00001C12BFF290095AE0FB7574047D4D7F1C56
:109B100012BFF290095BE0FB7574047D4F7F1C124D
:109B2000BFF290095CE0FB7574047D507F1C12BF8E
:109B3000F290095DE0FB7574047D517F1C12BFF249
:109B400090095EE0FB7574047D527F1C12BFF29099
:109B50000960E0FB7574047D5E7F1C12BFF2900902
:109B600061E0FB7574047D5F7F1C12BFF290094FAA
:109B7000E0FB7574047D427F1C12BFF2900950E037
:109B8000FB7574047D437F1C12BFF2900951E0FB0A
:109B90007574047D447F1C12BFF2900952E0FB757E
:109BA00074047D457F1C12BFF2900953E0FB75746D
:109BB000047D467F1C12BFF2900954E0FB757404CB
:109BC0007D477F1C12BFF2900955E0FB7574047D40
:109BD000487F1C12BFF2900956E0FB7574047D4962
:109BE0007F1C02BFF2753903753AFFE4F53B8E30F6
:109BF0008F318C328D338A348B359006C174FFF0EF
:109C0000E4A3F075580112CB298E3C8F3D900AC712
:109C1000E0FF12C2F6756A00756B00756C44853002
:109C20006D85316E85326F853370853671853772FB
:109C30007B007A00794212BD6C853446853547E455
:109C4000F54FF54EF54DF54CF553F552F551F550F0
:109C5000F559F540F541854248854349D3E5499595
:109C600045E54895444003029D2FE549AE48A83B91
:109C7000088005C333CE33CED8F9FDAC06AB3AAA83
:109C800039AF3812C7B212004612B10EE55914604E
:109C90001714602424027032C3EF9541EE954040C2
:109CA000028023755901801ED3EF9541EE954050F7
:109CB000028003755902800EC3EF9541EE95404036
:109CC0000280037559038E408F41C3E53D9FFFE538
:109CD0003C9EFEE48F578E56F555F554AE48AF497D
:109CE000FCFDAB57AA56A955A854126104E54F2FA5
:109CF000F54FE54E3EF54EE54D3DF54DE54C3CF559
:109D00004CE5532557F553E5523556F552E5513597
:109D100055F551E5503554F550900643E030E70FC6
:109D2000E5472549F549E5463548F548029C5CE498
:109D3000FFFEFDFCAB53AA52A951A850C312622FDB
:109D40006013A850AF4FAE4EAD4DAC4C12618F8E2C
:109D50004A8F4B80169006BDE0753E00F53F753E7C
:109D60000085383FA3E004F0E4F558E558B4011C41
:109D7000E54BAE4AA83B088005C333CE33CED8F9B5
:109D8000FDAC06AB3AAA39AF3812C7B2E54145403F
:109D9000600CE55964036006753E0085593FE5583F
:109DA000B40107E49006C1F080069006C17401F08A
:109DB0009006C27464F0AE4AAF4B229006C174FFA5
:109DC000F0E4A3F0900AC7E0FF12C2F67B1C7D1CF2
:109DD0007F4012AF217B3F7D107F6012AF217BC09F
:109DE0007D807F6712AF217B3F7D207F6E12AF2188
:109DF0007B1C7D107FC112AF217BFF7D077FC212CC
:109E0000AF217BFFE4FD7FC312AF217BFFE4FD7F29
:109E1000C412AF217BFFE4FD7FC512AF217B07E4B5
:109E2000FD7FC612AF217B077D027F6612AF2175D1
:109E30003408753500E53524C0F537E53434FFF5D1
:109E400036E5352440F539E43534F538E4F53EF5AA
:109E50003AF53BF53CF53DF53F7B3FAD3F7F681262
:109E6000AF21754700754800754930AC3812AA54C7
:109E7000753200853F33C3E52F9531FFE52E9530D0
:109E8000FED3EF953BEE953A4018853F3E8E3A8FD4
:109E90003BE52F2531FFE52E3530C313F53CEF139D
:109EA000F53D053FE53FC3942040AE9006C27432B5
:109EB000F07B3FAD3E7F6812AF21E53DFD7BFF7F2C
:109EC000F512AF21E53CFD7B037FF612AF21900632
:109ED000C3E53EF0E53DA3F0E53CA3F07532008517
:109EE0003E337B077D047F6612AF2175340412AACE
:109EF00030E52F2531FFE52E3530C313F53CEF1348
:109F0000F53DFD7BFF7FF712AF21E53CFD7B037F35
:109F1000F812AF21E53D9006C6F0E53CA3F07B07C3
:109F20007D017F6612AF2175340C12AA30E52F2512
:109F300031FFE52E3530C313F53CEF13F53DFD7BC6
:109F4000FF7FF312AF21E53CFD7B037FF412AF21CD
:109F5000E53D9006C8F0E53CA3F07B3F7D3F7F6088
:109F600012AF21E49006C1F0A37464F02275350F9E
:109F7000E4F5368F308D318B329006C174FFF0E4FA
:109F8000A3F012CB298E3D8F3E753801E4F53C904D
:109F90000AC7E0FF12C2F6756A00756B00756C3A6D
:109FA00085306D85316E85336F7B007A007939128B
:109FB000BF7585323BE4F546F545F544F543F54A72
:109FC000F549F548F547F54FF541F542853937E54F
:109FD00037D3953A400302A090AF36E537A807087B
:109FE0008002C333D8FCFDAB35AF3412AF21120071
:109FF0004612B10EE54F146017146024240270322B
:10A00000C3EF9542EE954140028023754F01801EBB
:10A01000D3EF9542EE954150028003754F02800EBA
:10A02000C3EF9542EE954140028003754F038E4188
:10A030008F42C3E53E9FFFE53D9EFEE48F4E8E4D71
:10A04000F54CF54BAF37FCFDFEAB4EAA4DA94CA825
:10A050004B126104E5462FF546E5453EF545E544DE
:10A060003DF544E5433CF543E54A254EF54AE549CF
:10A07000354DF549E548354CF548E547354BF5474D
:10A08000900643E030E709E53B2537F537029FCFDF
:10A09000E4FFFEFDFCAB4AAA49A948A847C31262E7
:10A0A0002F6011A847AF46AE45AD44AC4312618F57
:10A0B0008F3C80169006BDE0753F00F540753F006F
:10A0C000853440A3E004F0E4F538E538B40115AF79
:10A0D00036E53CA807088002C333D8FCFDAB35AF9A
:10A0E0003412AF21E5424541600CE54F6403600640
:10A0F000753F00854F40E538B40107E49006C1F094
:10A1000080069006C17401F09006C27464F0AF3C02
:10A11000229006437480F0E4A3F0A37402F0A30439
:10A12000F0E4A3F0A3F0A3F0A3F0A3F0A37410F065
:10A13000A3F0A37404F0A3742CF0A3740CF0A37424
:10A1400002F0A314F0A3E4F0A3743FF0A3E4F0A39F
:10A15000743FF0A37404F0A37410F0A3F0A374018F
:10A16000F0A37410F0A3F0A37401F0A3F0A3E4F043
:10A17000A37410F0A3E4F0A37420F0A37401F0A37F
:10A180007406F0A3F0A37401F0A37406F0A3F0A387
:10A190007401F0A37406F0A3F0A37401F0A3742C6F
:10A1A000F0A37404F0A37402F0E4A3F0A3F0A3748A
:10A1B000FAF0A3E4F0A374FAF0A37405F0A3740119
:10A1C000F0A3E4F0A374FAF0A3E4F0A374FAF0A30C
:10A1D0007405F0A37428F0A37404F0A37401F0A331
:10A1E000E4F0A374C8F0A3E4F0A37404F0A3740132
:10A1F000F0E4A3F0A3F0A37450F0A3E4F0A374047C
:10A20000F0A37401F0A37450F0A37406F0A37401DA
:10A21000F0A37450F0A37406F0A37401F0E4A3F06B
:10A22000A3F0A37450F0A3E4F0A37406F0A37401A8
:10A23000F0E4A3F0A3F0A37450F0A3E4F0A3740639
:10A24000F0A37401F0E4A3F0A3F0A37450F0A3E42E
:10A25000F0A37406F0A37401F0E4A3F0A37408F073
:10A26000A37406F0A37401F0A37408F0A37406F0BD
:10A27000A37401F0A37450F0A37406F0A37401F06A
:10A28000E4A3F0A3F0A3F0A3F0A3F0A3F0A3F0A342
:10A29000F0A3F0A3F0A3F0A3F0A3F0A3F0A3F0A326
:10A2A000F0A3F0A3F0A3F0A3F0A3F0A374FFF0E4F5
:10A2B000A3F02290001CE0FEA3E0F9FDA3E0FCA3C4
:10A2C000E0FB90001CE09000D9F0A3E9F090001EA4
:10A2D000E09000DBF090001FE09000DCF0EE540F07
:10A2E0002423F582E43404F583E090048BF0EE54EB
:10A2F000F0C4540F2423F582E43404F583E0900481
:10A3000075F0ED540F2423F582E43404F583E090D6
:10A31000045FF0ED54F0C4540F2423F582E43404B8
:10A32000F583E0900449F0EC540F2423F582E434E3
:10A3300004F583E09007F8F0EC54F0C4540F2423A4
:10A34000F582E43404F583E09007E2F0EB540F2447
:10A3500023F582E43404F583E09007CCF0EB54F06D
:10A36000FEC4540FFA2423F582E43404F583E0900C
:10A3700007B6F0EF6401600302A41B7F2312CB91A8
:10A3800090048BE0FBE4F5747D147F1812BFF27F1C
:10A390002212CB91900475E0FBE4F5747D147F18D4
:10A3A00012BFF27F2112CB9190045FE0FBE4F574C1
:10A3B0007D147F1812BFF27F2012CB91900449E0E8
:10A3C000FBE4F5747D147F1812BFF27F2312CB9D3E
:10A3D0009007F8E0FB7574017D147F1812BFF27FBF
:10A3E0002212CB9D9007E2E0FB7574017D147F186B
:10A3F00012BFF27F2112CB9D9007CCE0FB75740158
:10A400007D147F1812BFF27F2012CB9D9007B6E01B
:10A41000FB7574017D147F1812BFF2227F0312C5F1
:10A42000478E2C8F2D7F0212C5478E2E8F2F7F01D6
:10A4300012C5478E308F31E4FF12C5478E328F33FD
:10A44000D39003CBE0952D9003CAE0952C4008E40F
:10A450009000C2F0A304F0D39003CDE0952D9003BB
:10A46000CCE0952C50249003BAE0FDA3E0FBA3E0E0
:10A47000F538A3E0F539AF2DAE2C12BCF58E2C8F3C
:10A480002DE52C9000C2F0A3EFF0D39003CFE09520
:10A490002F9003CEE0952E400FE49000C4F0A3046B
:10A4A000F0900088E04420F0D39003D1E0952F9005
:10A4B00003D0E0952E50249003BEE0FDA3E0FBA363
:10A4C000E0F538A3E0F539AF2FAE2E12BCF58E2E95
:10A4D0008F2FE52E9000C4F0A3EFF0D39003D3E0CC
:10A4E00095319003D2E09530400FE49000C6F0A380
:10A4F00004F0900088E04440F0D39003D5E095311B
:10A500009003D4E0953050249003C2E0FDA3E0FB1B
:10A51000A3E0F538A3E0F539AF31AE3012BCF58ECB
:10A52000308F31E5309000C6F0A3EFF09003D8E013
:10A53000FCA3E0FDD39533EC9532400FE49000C8C6
:10A54000F0A304F0900088E04480F0D3ED9533EC64
:10A55000953250249003C6E0FDA3E0FBA3E0F5385C
:10A56000A3E0F539AF33AE3212BCF58E328F33E54E
:10A57000329000C8F0A3EFF0227F0312C5248E2C86
:10A580008F2D7F0212C5248E2E8F2F7F0112C5249E
:10A590008E308F31E4FF12C5248E328F33D3900377
:10A5A0004BE0952D90034AE0952C4008E49000BACA
:10A5B000F0A304F0D390034DE0952D90034CE0956B
:10A5C0002C502490033AE0FDA3E0FBA3E0F538A370
:10A5D000E0F539AF2DAE2C12BCF58E2C8F2DE52C6D
:10A5E0009000BAF0A3EFF0D390034FE0952F9003C3
:10A5F0004EE0952E4008E49000BCF0A304F0D39008
:10A600000351E0952F900350E0952E502490033E87
:10A61000E0FDA3E0FBA3E0F538A3E0F539AF2FAEF2
:10A620002E12BCF58E2E8F2FE52E9000BCF0A3EFDE
:10A63000F0D3900353E09531900352E095304008F9
:10A64000E49000BEF0A304F0D3900355E095319060
:10A650000354E095305024900342E0FDA3E0FBA3B7
:10A66000E0F538A3E0F539AF31AE3012BCF58E30ED
:10A670008F31E5309000BEF0A3EFF0D3900357E0A8
:10A680009533900356E095324008E49000C0F0A363
:10A6900004F0D3900359E09533900358E09532507D
:10A6A00024900346E0FDA3E0FBA3E0F538A3E0F52A
:10A6B00039AF33AE3212BCF58E328F33E5329000B3
:10A6C000C0F0A3EFF0228F368D378B389006C1741F
:10A6D000FFF0E4A3F0753E01F53D12CB298E418FCA
:10A6E00042900AC7E0FF12C2F6E4F548F547F54686
:10A6F000F545F54CF54BF54AF54985363CE53CD337
:10A7000095375077AF3BE53CA807088002C333D8A4
:10A71000FCFDAB3AAF3912AF2112004612B10E8EDA
:10A720003F8F40C3E5429540FFE541953FFEE48FF2
:10A73000508E4FF54EF54DAF3CFCFDFEAB50AA4F91
:10A74000A94EA84D126104E5482FF548E5473EF5AE
:10A7500047E5463DF546E5453CF545E54C2550F5D4
:10A760004CE54B354FF54BE54A354EF54AE5493555
:10A770004DF549E538253CF53C8082E4FFFEFDFCC3
:10A78000AB4CAA4BA94AA849C312622F6011A84931
:10A79000AF48AE47AD46AC4512618F8F3D8003E4B4
:10A7A000F53EE53DD3941F400674E1253DF53DE5BA
:10A7B0003EB4011DAF3BE53DA807088002C333D876
:10A7C000FCFDAB3AAF3912AF219006ACE53DF0800D
:10A7D0000D9006BDE0754300F544A3E004F0E53EAE
:10A7E000B40107E49006C1F080069006C17401F040
:10A7F0009006C27464F0AF3D22E4FC9000CAF0A35E
:10A80000F0A3F0A3F0A3F0A3F0A3F0A3F0A3F0A3B0
:10A81000F0A3F0A3F0900011E0B4100D9000CEF082
:10A820009000CAE04401F080079000CAE04403F0C1
:10A83000900012E0B4100D9000CFF09000CAE044F8
:10A8400010F080079000CAE04430F0900013E0B4AC
:10A85000100D9000D0F09000CBE04401F080079004
:10A8600000CBE04403F0900014E0B4100D9000D150
:10A87000F09000CBE04410F080079000CBE0443033
:10A88000F0900015E0B4100D9000D2F09000CCE0F4
:10A890004401F080079000CCE04403F0900016E003
:10A8A000B4100D9000D3F09000CCE04410F080077D
:10A8B0009000CCE04430F0900017E0B4100D900010
:10A8C000D4F09000CDE04401F080079000CDE0444A
:10A8D00003F0900018E0B4100D9000D5F09000CD7A
:10A8E000E04410F080079000CDE04430F07E017429
:10A8F000CE2EF582E43400F583E0FF9000CEE0B583
:10A9000007010C0EBE08E8BC070D9000CEE0B410A5
:10A9100003750E1075080122E49006BDF09006CD77
:10A920007455F0E4FF12B7D29006BDE004F0900633
:10A9300070E0FF12C7CD9006BDE004F012B5A49000
:10A9400006BDE004F07F0112C4DD9006CD7401F075
:10A95000127F639006C1E0600302AA2F9006BDE05B
:10A9600004F09006CD7402F012B3289006BDE00406
:10A97000F09006B7E0F52CA3E0F52D900661E0FE1F
:10A98000A3E0FDAC06A3E0FB7A00AF2DAE2C12C90C
:10A990004F9006BDE004F09006ADE0FF90065CE04D
:10A9A000FDA3E0FB12C9649006BDE004F090066AC6
:10A9B000E0FFA3E0FDA3E0FB9006CD7403F012C915
:10A9C000B89006BDE004F09006CD7404F0E4FF12E8
:10A9D000C4DD9006BDE004F09006CD7405F0127B56
:10A9E000D29006C1E070489006BDE004F09006CD1C
:10A9F0007406F012783C9006C1E070339006BDE01A
:10AA000004F09006CD7407F012ADC19006BDE004CD
:10AA1000F09006CD7408F012ACE69006BDE004F0AC
:10AA20009006CD7409F0129DBB9006BDE004F022A3
:10AA3000753500E53524C0F537E53434FFF536E5E6
:10AA4000352440F539E43534F5387547007548004C
:10AA5000754930FC7B007A00792EAD39AF37AE36C0
:10AA60008E408F418C428D438B448A458946E4F564
:10AA70004EF54FF550F551900AC7E0FF12C2F6E4CB
:10AA8000F54AE541FD7BFF7FC412AF21E540FD7B28
:10AA9000FF7FC512AF2112C3B77FC812BE758F4B9F
:10AAA0007FC912BE75EFFEE54B254FF54FEE354ED3
:10AAB000F54EE543FD7BFF7FC412AF21E542FD7BF0
:10AAC000FF7FC512AF2112C3B77FC812BE758F4C6E
:10AAD0007FC912BE758F4DE54DFEE54C2551F551F0
:10AAE000EE3550F550054AE54AC3940A4094AE4EFF
:10AAF000AF4F7C007D0A12605AAB44AA45A946EECE
:10AB00008FF01260E5AE50AF517C007D0A12605AA2
:10AB1000AB47AA48A949EE8FF00260E5E51124FE93
:10AB2000601524FE604A24FE60742406600302ABB4
:10AB3000C712C22902ABC7E50D6401701F90000F58
:10AB4000E0B4FF0812A7F9E490000FF0900000E0D5
:10AB5000F47074751104C281F5088005751104C282
:10AB6000819001037404F0900108E04401F08057E3
:10AB7000751106C281900103E511F0900108E044CF
:10AB800001F090000074FFF0E50D7004900002F0F9
:10AB90009000807444F0A3F0A3F0A3F08029D3E5E3
:10ABA0000A9420E50994034016AF0B12B2B7050BC7
:10ABB000E50BC3940D4003E4F50BE4F509F50A0534
:10ABC0000AE50A70020509E511640660157F0D1299
:10ABD000C742EF25E0FFEE33FE12C65412C49012B6
:10ABE000B963E51164066005E511B4041490072803
:10ABF000E0B4010D7F0112CA8112C2C3E49007289C
:10AC0000F0227B017A0879B07531007532807F00BF
:10AC10007EF012BC557B017A0979307531007532AE
:10AC2000807F807EF012BC557B017A0479437531B8
:10AC3000007532807F007EF212BC557B017A047968
:10AC4000C37531007532807F807EF212BC557B0166
:10AC50007A0779B07531007532807F007EF312BCBF
:10AC6000557B017A0979B07531007532807F007E9D
:10AC7000F412BC557B017A0A793075310075328047
:10AC80007F807EF412BC557B017A057943753100D3
:10AC90007532807F007EF812BC557B017A0579C33E
:10ACA0007531007532807F807EF812BC557B017A49
:10ACB0000879307531007532807F007EF912BC55FD
:10ACC0007B017A0379137531007532807F007EEC49
:10ACD00012BC557B017A0379937531007532807F00
:10ACE000807EEC02BC55E4F52EF52FF5309006C1C0
:10ACF00074FFF0E4A3F0900AC7E0FF12C2F67B1CD9
:10AD00007D1C7F4012AF217B3F7D207F6012AF21F1
:10AD10007B07E4FD7F6612AF217BC0E4FD7F6712F5
:10AD2000AF217BFF7D207F6E12AF217BFF7D0C7FEB
:10AD3000C112AF217BFFE4FD7FC212AF217BFFE494
:10AD4000FD7FC312AF217BFFE4FD7FC412AF217BE7
:10AD5000FFE4FD7FC512AF217BFF7D077FC612AFE9
:10AD600021E4F5317B0FAD317F6312AF2112C3B700
:10AD70007FC87E0012C726753200853133C3EF9538
:10AD800030EE952F40078E2F8F3085312E0531E51F
:10AD900031C3940D40CEE52EC3940C5002052E7B9A
:10ADA0000FAD2E7F6312AF21753200852E337B3FAE
:10ADB0007D3F7F6012AF21E49006C1F0A37464F080
:10ADC0002212B3289006B7E0F52EA3E0F52F9006E7
:10ADD0009FE0FEA3E0FFA3E0FB7A00AD07AC06AF67
:10ADE0002FAE2E12C94F9006ADE0FF90068EE0FE0A
:10ADF000A3E0FCAD06FB12C9649006A3E0FFA3E04C
:10AE0000FEA3E0FCAD06FB12C9A39006A6E0FFA3DB
:10AE1000E0FEA3E0FCAD06FB12CB599006B1E0FFCB
:10AE20009006AAE0FEA3E0AD06FB12C9B89006B5F5
:10AE3000E0F52EA3E0F52F900693E0FEA3E0FFA33C
:10AE4000E07A00FBAD07AC06AF2FAE2E12C97990A9
:10AE500006B3E0F52EA3E0F52F900699E0FEA3E0FF
:10AE6000FFA3E07A00FBAD07AC06AF2FAE2E12C9F0
:10AE70008E2290072AE06401600302AF2090072928
:10AE8000E024FB601824FE60512406600302AF1B1F
:10AE9000900730E090017FF01295A9807EE4FFFEDC
:10AEA00090072EE0FDC3EF9DEE9400502874302FE4
:10AEB000F58274073EF583E0FD90072DE02FFBE45B
:10AEC0003EFA74002BF58274013AF583EDF00FBF62
:10AED00000010E80CB12BEF5804190072EE0FF905E
:10AEE000072DE0FD2FFFE433FED3EF9400EE6480E6
:10AEF00094814005EDF404A3F090072EE0FF7E005E
:10AF000090072DE02400F9E43401A801FC7D017BC9
:10AF1000017A077930125FF7125496E490072AF00D
:10AF2000228F6C8D6D8B6E900645E06401701EFB68
:10AF3000AD6C7F1812BF358F6FE56EF4556FFFE56E
:10AF40006D556E4FF570E4F574AB70802490064536
:10AF5000E0640270227B01AD6C7F1812BF358F6FE9
:10AF6000E56EF4556FFFE56D556E4FF57075740124
:10AF7000FBAD6C7F188052900645E0640370227B25
:10AF800003AD6C7F1612BF358F6FE56EF4556FFF02
:10AF9000E56D556E4FF570757403FBAD6C7F1680D3
:10AFA00028900645E0640470237B02AD6C7F161286
:10AFB000BF358F6FE56EF4556FFFE56D556E4FF53C
:10AFC00070757402FBAD6C7F1612BFF222900011F7
:10AFD0007410F0A3F0A3F0A3F0A3F0A3F0A3F0A3E8
:10AFE000F0E4A3F0900011E09000CEF0900012E0A9
:10AFF0009000CFF0900013E09000D0F0900014E0AB
:10B000009000D1F0900015E09000D2F0900016E092
:10B010009000D3F0900017E09000D4F0900018E07A
:10B020009000D5F090002074FFF09000DDF09000CB
:10B0300021F09000DEF09000807411F0A3F0A3F0F6
:10B04000A3F0E4900000F0A3F0A374FFF0E49000FC
:10B050001CF0A3F0A3F0A3F0900022F0A3F0A3F063
:10B06000A3F0A3F0A3F0A3F0A3F0A3F0A3F0A3F048
:10B07000A3F0228F338D348B35E4900AC3F0A3F014
:10B08000A3F0A3F0AF3512CBEEAF3512C914AD3536
:10B09000AF3312BE33AF3512C297AD35AF3412BEE7
:10B0A00033AF3512C297AD357F0112C1BF12C76BE6
:10B0B000AF3512CBEEAF3512C914E53304FFAD3511
:10B0C00012BE33AF3512C297AF3512B395900AC393
:10B0D000EFF0AF3512C923AF3512B395A3EFF0AF40
:10B0E0003512C634900AC3E075F010A4FFA3E07CCB
:10B0F000002FFEEC35F0A3F0A3CEF0AF3512C693CF
:10B10000AF3512CBEE900AC5E0FEA3E0FF22E4F5D6
:10B110006AF56B900AC7E0FF12C2F67FB012BE75E7
:10B120008F677FB412BE758F687FB612BE75E567F4
:10B1300030E408756A00756BFF8007E568756A0082
:10B14000F56BE56730E60474FF8001EF256BF56B66
:10B15000E4356AF56A7FB512BE758F697FB712BE96
:10B1600075E56730E50474FF8002E569256BF56BD2
:10B17000E4356AF56AE56730E70474FF8001EF257E
:10B180006BF56BE4356AF56A900649E56AF0A3E56C
:10B190006BF0E49006C1F0A37464F0AE6AAF6B226A
:10B1A00012003A787FE4F6D8FD75817A02B1EA029E
:10B1B000C1F5E493A3F8E493A34003F68001F208F9
:10B1C000DFF48029E493A3F85407240CC8C333C4E4
:10B1D000540F4420C8834004F456800146F6DFE44F
:10B1E000800B010204081020408090743CE47E0132
:10B1F0009360BCA3FF543F30E509541FFEE493A3C2
:10B2000060010ECF54C025E060A840B8E493A3FAD3
:10B21000E493A3F8E493A3C8C582C8CAC583CAF05F
:10B22000A3C8C582C8CAC583CADFE9DEE780BE906D
:10B2300006D3E0B4AA11E4F053C17F12A91812C5D5
:10B24000F212C56A43C1809006D4E0B4AA28E4F0A3
:10B250009006CCE0FF900645F09006CAE0FE900A0A
:10B26000C7F09006CBE0FD900AC8F09006CEEFF054
:10B27000A3EEF0A3EDF09006D2E064AA702FF09058
:10B2800006CCE0B4010512C46680229006CCE0B47E
:10B29000020512C3E580169006CCE0B4030512C483
:10B2A00010800A9006CCE0B4040312C43B9006FB65
:10B2B000E0B4AA02E4F022EFB40C00506A90B2C4E9
:10B2C000F828287302B2E802B2FD02B30002B30309
:10B2D00002B30702B30B02B30F02B31302B3170298
:10B2E000B31B02B31F02B32412C49012B9637F0DC3
:10B2F00012C742EF25E0FFEE33FE02C65402A579E5
:10B3000002A41CE4FF801A7F0180167F0280127F56
:10B3100003800E7F04800A7F0580067F0680027FFF
:10B32000070282C512B4022212CB298E328F33E477
:10B33000F534F535F531F5307B3FAD307FB312AFE5
:10B340002112004612B10ED3EF9535EE9534400729
:10B350008E348F35853031EF65337003EE653260A2
:10B36000090530E530D3941F40CEE530D3941F401B
:10B3700003853130E530241FFD7539B3753A3FE45C
:10B38000F53B7B01AF3012A6C68F31E49006C1F0C9
:10B39000A37464F022AC07E4FBFF12C76312C76B0F
:10B3A00012C76B7A0712C75EEC7006A28492018006
:10B3B0002BBC0106A28692018022BC0206A29292B8
:10B3C000018019BC0306A29092018010BC0406A261
:10B3D000B292018007BC0504A2B49201A201E43339
:10B3E000FFA802088002C333D8FC4203AD04E4FF87
:10B3F00012C1BF12C76B1AC3EA6480948050A6AF13
:10B4000003227F1112C742EF25E0FFEE339003E4E1
:10B41000F0A3EFF07F1012C742EF25E0FFEE33906C
:10B4200003E2F0A3EFF07F0D12C742EF25E0FFEE3D
:10B43000339003DEF0A3EFF07F0F12C742EF25E059
:10B44000FFEE339003E0F0A3EFF07F0C12C742EF62
:10B450007802C333CE33CED8F9FF9003DCEEF0A3ED
:10B46000EFF012C4909003E6EEF0A3EFF0228F30DD
:10B47000E4FE7574057B107D607F1C12BFF275744D
:10B4800005AB307D917F1C12BFF27574057B087D82
:10B49000927F1C12BFF27F017E0012C6747B057D75
:10B4A000687F1C12B0738E318F327574057B047DFA
:10B4B000927F1C12BFF27F017E0012C6747B057D55
:10B4C000687F1C12B073C3EF9532FFEE9531FE7C9E
:10B4D000007D14126048228F30E4FE7574047B10E6
:10B4E0007D607F1C12BFF2757404AB307D917F1CB0
:10B4F00012BFF27574047B087D927F1C12BFF27F2D
:10B50000017E0012C6747B047D687F1C12B0738EAE
:10B51000318F327574047B047D927F1C12BFF27FE1
:10B52000017E0012C6747B047D687F1C12B073C359
:10B53000EF9532FFEE9531FE7C007D1412604822BB
:10B54000E4900291F0A3F0F52CF52DAF2DAE2C1266
:10B55000C8697E00900292E02FF0900291E03EF0E8
:10B56000052DE52D7002052CC3E52C94E840DC90F8
:10B570000291E0FFA3E090038BCFF0A3EFF07B01FB
:10B580007A0379137533007534807F007EEC12BC2A
:10B590000D7B017A0379937533007534807F807E4B
:10B5A000EC02BDAF900AC8E0FF12C2F67B117D111C
:10B5B0007F0F12AF217B117D117F1012AF217B1104
:10B5C0007D117F1112AF217B087D087F1B12AF21F7
:10B5D0007B0A7D0A7F1C12AF217B087D087F1D122C
:10B5E000AF21900AC7E0FF12C2F67B207D207F408A
:10B5F00012AF217B017D017FB012AF21E49006C123
:10B60000F0A37464F022AB05A907E4F538F537F52B
:10B6100036F53585A734F5A7FAEAC39B503789BBC1
:10B62000E4FFFE0FBF00010EEF640A4E70F5D2EC8E
:10B6300030EDFDAFBDAEBEE4FCFDE5382FF538E5DD
:10B64000373EF537ED3536F536EC3535F535C2ECA8
:10B65000C2ED0A80C4E4FAF9F8AF38AE37AD36ACC3
:10B660003512BD288534A722900388E0B4AA0812B9
:10B67000CC55E4900388F09003EAE0B4AA0AE4F021
:10B680009003E9E0FF12CA6D90096BE0B4AA1912A9
:10B69000C899900967EEF0A3EFF012C151900969C3
:10B6A000EEF0A3EFF0E4A3F09008EBE0B4AA1912D7
:10B6B000C8819008E7EEF0A3EFF01200039008E9CC
:10B6C000EEF0A3EFF0E4A3F022900AC7E0FF12C26D
:10B6D000F6E4FD7FC012BBC57D1C7F4012BBC57D5B
:10B6E0000C7FC112BBC5E4FD7FC212BBC5E4FD7F68
:10B6F000C312BBC5E4FD7FC412BBC5E4FD7FC51208
:10B70000BBC5E4FD7FC612BBC57D207F6012BBC5F3
:10B71000E4FD7F6612BBC57DC07F6712BBC5E4FD3B
:10B720007F6802BBC512A1117E007F807D007B0176
:10B730007A0679C312627AE49006D3F09006D5F0C7
:10B74000A3F09006D874FFF0A37480F0A374FFF008
:10B75000A37480F0A3F0A3F0A3F0A374FFF0A3748C
:10B7600080F0A3F0A3F0A3F09006CC7401F0900A4F
:10B77000C7E09006CAF0900AC8E09006CBF022908D
:10B780000AC7E0FF12C2F6E4FD7FC012BBC57D1CF4
:10B790007F4012BBC57D8B7F4612BBC57D027F6398
:10B7A00012BBC57D207F6E12BBC57D3F7FEF12BBF4
:10B7B000C57D077FEE12BBC57D807FFC12BBC57DBA
:10B7C000807FFE12BBC5E4FF12C2F67D047FF80243
:10B7D000BBC5EF701E900AC7E0FF12C2F67B01E402
:10B7E000FD7FC012AF21E4FF12C2F67B017D017F15
:10B7F000F7801CE4FF12C2F67B01E4FD7FF712AF75
:10B8000021900AC7E0FF12C2F67B037D037FC012BE
:10B81000AF217FD07E0712C674E49006C1F0A374F6
:10B8200064F0227F2012CB919004B3E0FBE4F57426
:10B830007D417F1812BFF27F2112CB919004B4E0BA
:10B84000FBE4F5747D417F1812BFF27F2212CB9189
:10B850009004B5E0FBE4F5747D417F1812BFF27FE0
:10B860002312CB919004B6E0FBE4F5747D417F1880
:10B8700002BFF27F2012CB9D900820E0FB7574017F
:10B880007D417F1812BFF27F2112CB9D900821E0ED
:10B89000FB7574017D417F1812BFF27F2212CB9D90
:10B8A000900822E0FB7574017D417F1812BFF27F82
:10B8B0002312CB9D900823E0FB7574017D417F1816
:10B8C00002BFF27F2012CBA99005B3E0FB75740391
:10B8D0007D417F1612BFF27F2112CBA99005B4E003
:10B8E000FB7574037D417F1612BFF27F2212CBA934
:10B8F0009005B5E0FB7574037D417F1612BFF27FA2
:10B900002312CBA99005B6E0FB7574037D417F1629
:10B9100002BFF27F2012CBB59008A0E0FB75740245
:10B920007D417F1612BFF27F2112CBB59008A1E0B6
:10B93000FB7574027D417F1612BFF27F2212CBB5D8
:10B940009008A2E0FB7574027D417F1612BFF27F62
:10B950002312CBB59008A3E0FB7574027D417F16DE
:10B9600002BFF2900317E0FDA3E0FBA3E0F58233F2
:10B9700095E0F53085823112C0A5AD07AC06ECFF2D
:10B980003395E090010EEFF0AF05A3EFF090010EBC
:10B99000E0FBFF3395E0FEEF2428FFE43EFE7C0051
:10B9A0007D021260AF900AB0EFF0D3EB648094C0D8
:10B9B000227F2012CB91E4FB7D417F1812BF35908E
:10B9C00004B3EFF07F2112CB91E4FB7D417F18128D
:10B9D000BF359004B4EFF07F2212CB91E4FB7D41A0
:10B9E0007F1812BF359004B5EFF07F2312CB91E49E
:10B9F000FB7D417F1812BF359004B6EFF0227F2007
:10BA000012CB9D7B017D417F1812BF35900820EF3E
:10BA1000F07F2112CB9D7B017D417F1812BF3590B5
:10BA20000821EFF07F2212CB9D7B017D417F181210
:10BA3000BF35900822EFF07F2312CB9D7B017D4123
:10BA40007F1812BF35900823EFF0227F2012CBA978
:10BA50007B037D417F1612BF359005B3EFF07F2148
:10BA600012CBA97B037D417F1612BF359005B4EF41
:10BA7000F07F2212CBA97B037D417F1612BF359048
:10BA800005B5EFF07F2312CBA97B037D417F161212
:10BA9000BF359005B6EFF0227F2012CBB57B027D3B
:10BAA000417F1612BF359008A0EFF07F2112CBB571
:10BAB0007B027D417F1612BF359008A1EFF07F22F7
:10BAC00012CBB57B027D417F1612BF359008A2EFE5
:10BAD000F07F2312CBB57B027D417F1612BF3590DC
:10BAE00008A3EFF0227B017A0479237531007532C7
:10BAF000107F007EEE12BC557B017A0479337531DC
:10BB0000007532107F107EEE12BC557B017A0279EF
:10BB1000007531007532107F207EEE12BC557B011E
:10BB20007A0479137531007532107F407EEE02BCC5
:10BB3000551290F37B057D047F1C12BF359008BD24
:10BB4000EFF07B057D1E7F1C12BF359008C5EFF01E
:10BB50007B057D297F1C12BF359008CCEFF07B055B
:10BB60007D5A7F1C12BF359008DFEFF07B057D64A6
:10BB70007F1C12BF359008E4EFF02212934E7B0435
:10BB80007D047F1C12BF3590093DEFF07B047D1EC4
:10BB90007F1C12BF35900945EFF07B047D297F1C87
:10BBA00012BF3590094CEFF07B047D5A7F1C12BF09
:10BBB0003590095FEFF07B047D647F1C12BF3590E8
:10BBC0000964EFF0228F2F8D30900645E0B4010517
:10BBD000E4F574800A900645E0B4020B757401AB7D
:10BBE00030AD2F7F188022900645E0B4030B7574AA
:10BBF00003AB30AD2F7F168010900645E0B4040CE7
:10BC0000757402AB30AD2F7F1612BFF2228E2E8FCD
:10BC10002F8B308A318932E4F535F5367D5512C2E5
:10BC20005DE4F535F536C3E5369534E535953350A5
:10BC300023E52F2536FFE52E3535FEAB300532E501
:10BC400032AA317002053112C0300536E53670D6A1
:10BC5000053580D2228E2C8F2D8B2E8A2F8930E4B1
:10BC6000F533F534F533F534C3E5349532E53395E2
:10BC7000315029E52D2534FFE52C3533FE12C869F6
:10BC8000AB2E0530E530AA2F7002052F14F9EF1204
:10BC900060360534E53470D0053380CC229001281D
:10BCA000E0B4AA08E4F012B77F12B6C9900128E008
:10BCB000B4BB08E4F0A3E0FF12CAF6900128E0B498
:10BCC000CC15E4F012C0DF9006F9E090012AF09064
:10BCD00006FAE090012BF0900128E0B4DD05E4F0D5
:10BCE00012BFB422E0FDA3E0FBA3E0F538A3E0F52A
:10BCF00039AF2FAE2E8D368B37AB07AA06E4F9F895
:10BD0000AF36FCFDFE1261048F3D8E3C8D3B8C3ABC
:10BD1000A937A8011262408F3D8E3C8D3B8C3AE5DD
:10BD2000392FFFE5383EFE22C2D5E830E70FB2D505
:10BD3000E4C39BFBE49AFAE499F9E498F8EC30E761
:10BD400017B2D512BD5E12618FE4C39BFBE49AFA71
:10BD5000E499F9E498F8800312618F30D50DE4C3BB
:10BD60009FFFE49EFEE49DFDE49CFC22AF70AE6F5D
:10BD7000D3E56E9FE56D9E400BE56E9FFDE56D9EE4
:10BD80008DF08003E4F5F01260E5E56E2FFDE56DC2
:10BD90003EFCC3ED9572EC9571AB6AAA6BA96C5031
:10BDA00005EC8DF08005E5718572F01260E5228E5C
:10BDB0002E8F2F8B308A318932E4F535F536F53503
:10BDC000F536C3E5369534E53595335023E52F2513
:10BDD00036FFE52E3535FEAB300532E532AA31703F
:10BDE00002053112C0300536E53670D6053580D2F1
:10BDF00022ED7008EF24FF9285928422BD0108EFA6
:10BE000024FF9287928622BD0208EF24FF9293922C
:10BE10009222BD0308EF24FF9291929022BD040864
:10BE2000EF24FF92B192B222BD0507EF24FF92B337
:10BE300092B422AC05AB07A903E4FF12C76512C791
:10BE40006B12C76B7A07EBA802088002C313D8FCF9
:10BE50005401F9AD0460047F018002E4FF12C06F59
:10BE600012C761E4FF12C1BF12C76B1AC3EA648034
:10BE7000948050D2228F6C900645E0B40104E4FB1C
:10BE80008009900645E0B402087B01AD6C7F188004
:10BE90001C900645E0B403087B03AD6C7F16800D53
:10BEA000900645E0B4040B7B02AD6C7F1612BF35E3
:10BEB0008F6DAF6D228F2D900645E0B40104E4FB39
:10BEC0008009900645E0B402087B01AD2D7F188003
:10BED0001C900645E0B403087B03AD2D7F16800D52
:10BEE000900645E0B4040B7B02AD2D7F1612BF35E2
:10BEF0008F2EAF2E2290017AE0FFB49316A3E0B408
:10BF00007811A3E0B4CC0CA3E0B4AE07900727747B
:10BF100001F022EFB43A1890017BE0B41811A3E0CD
:10BF2000B4B60CA3E0B46F079007277402F022E4C4
:10BF3000900727F0228F718D728B7312C90DAF712C
:10BF400012C290AF7212C290AD737F0112C1BF12C4
:10BF5000C76B12C90DE57104FF12C290AF7312B323
:10BF600095A907AF7312C634AF7312C693AF73129D
:10BF7000CBEEAF0122856E70E56DD395704006E57E
:10BF80006D95708001E4126036E56D2570FFE43335
:10BF9000FEC3EF956F7480F86E98500CE56D2570B8
:10BFA000AB6AAA6BA96C8008AB6AAA6BA96CE56F37
:10BFB00012603622900AC7E0FF12C2F67B3F7D0175
:10BFC0007F6012AF217B3F7D037F6012AF217B3FFB
:10BFD0007D077F6012AF217B3F7D0F7F6012AF2115
:10BFE0007B3F7D1F7F6012AF217B3F7D3F7F6002E3
:10BFF000AF218D728B73AC07AF7412CBEEAF74129E
:10C00000C914AF04AD7412BE33AF7412C297AD74CD
:10C01000AF7212BE33AF7412C297AD74AF7312BE5B
:10C0200033AF7412C297AF7412C693AF7402CBEEE3
:10C0300014F912601DFD7B55ACA7A2AF9201E4F587
:10C04000A7C2AF75FF8075EF028F828E83BB550943
:10C0500075B7A575B7F1438F0175FF8075EF02EDD8
:10C06000F0538FFEA20192AF8CA722AD047F01EDA9
:10C070007006EF24FF928422BD0106EF24FF928612
:10C0800022BD0206EF24FF929222BD0306EF24FF99
:10C09000929022BD0406EF24FF92B222BD0505EF67
:10C0A00024FF92B4228D2E8B2FAB07AA06EA33957C
:10C0B000E0F9F8AF2EE4FCFDFE1261048F358E34FA
:10C0C0008D338C32A92FA8011262408F358E348DAA
:10C0D000338C32E531FEE42535FFEE3534FE229017
:10C0E0000AC7E0FF12C2F67D0F7FC112BBC57FC138
:10C0F00012BEB58F2C7D0C7FC112BBC57FC112BE95
:10C10000B58F2C7FC812BEB59006FAEFF07FC9122A
:10C11000BEB59006F9EFF0227B017A017900753106
:10C12000017532007F007EE812BC557B017A0279EE
:10C13000117531007532807F007EEA12BC557B019B
:10C140007A0279937531007532807F807EEA02BC75
:10C1500055E4FE7574047B107D607F1C12BFF27580
:10C160007404E4FB7D917F1C12BFF27574047B01A3
:10C170007D927F1C12BFF27F017E0012C6747B0489
:10C180007D687F1C12B0732285A72C12CBF812CBCE
:10C190007712CC0212CB8412CC1612CC0C12CAD05D
:10C1A00012003E12CC1D12CC2412CB1812CAE3127C
:10C1B000CB4912CC2B12CC3212CC39852CA722EDD4
:10C1C0007006EF24FF928522BD0106EF24FF9287BF
:10C1D00022BD0206EF24FF929322BD0306EF24FF47
:10C1E000929122BD0406EF24FF92B122BD0505EF16
:10C1F00024FF92B32212C18812C79612CB6812C4D0
:10C20000B812B72575A88012CBD912C93990035C32
:10C21000E0700512AB1C800912AB1C12BC9D12B25F
:10C220002F12B66812AE7280E4900360E064017071
:10C2300013308208750D01750E10800E750E10E416
:10C24000F50D8006750E10E4F50D751102C2819092
:10C250000103E511F0900108E04401F022ACA7A22F
:10C26000AF9201C2AFE4F5A775FF8075EF028F8230
:10C270008E83BD550975B7A575B7F1438F0375FF5B
:10C280008075EF02E4F0538FFCA20192AF8CA722DD
:10C29000AD7312BE33AF73AC0712C75EAF0412C3E7
:10C2A00027EF600CE4FF12C1BF12C76BE4FF800CE4
:10C2B000AD04E4FF12C1BF12C76B7F0112C06F1241
:10C2C000C76B2290011AE0FF65126023EF30E30391
:10C2D00075EF12EF30E409C2819001037402800708
:10C2E000C2819001037406F0900108E04401F090CF
:10C2F000011AE0F512228F6C900645E0B4010302AA
:10C30000CB91900645E0B40205AF6C02CB9D900640
:10C3100045E0B40305AF6C02CBA9900645E0B40438
:10C3200005AF6C12CBB522EF7006A28433FE8024D9
:10C33000BF0104A286801ABF0204A2928013BF0329
:10C3400004A290800CBF0404A2B28005BF0505A220
:10C35000B4E433FEAF0622E4FF12CBC17B04E4FD5C
:10C360007F2012BF359009B0EFF07B047D017F2064
:10C3700012BF359009B1EFF07B047D037F2012BF1F
:10C38000359009B2EFF022E4FF12CBCD7B05E4FD3E
:10C390007F2012BF35900A30EFF07B057D017F20B2
:10C3A00012BF35900A31EFF07B057D037F2012BF6D
:10C3B00035900A32EFF022E4F552900AC7E0FF12FE
:10C3C000C2F67B017D017FC112AF217B01E4FD7FBD
:10C3D000C112AF21E552700C7FC112BE75EF54023D
:10C3E000F55280F022E4FF12CB9D7574017BAA7D8B
:10C3F000027F1812BFF27F0A7E0012C674757401A4
:10C40000E4FB7D027F1812BFF27F0A7E0002C67431
:10C41000E4FF12CBA97574037BAA7D027F1612BFBD
:10C42000F27F0A7E0012C674757403E4FB7D027FFE
:10C430001612BFF27F0A7E0002C674E4FF12CBB56B
:10C440007574027BAA7D027F1612BFF27F0A7E00FE
:10C4500012C674757402E4FB7D027F1612BFF27F70
:10C460000A7E0002C674E4FF12CB91E4F5747BAA45
:10C470007D027F1812BFF27F0A7E0012C674E4F5B7
:10C4800074FB7D027F1812BFF27F0A7E0002C67421
:10C490007D047F1412B606C3EF957AFFEE9579FE00
:10C4A0003395E0FDFCE4FB7A01F9F8126104E47BCA
:10C4B00013FAF9F812BD282290FFD5E493FE90FFFD
:10C4C000D4E493FDEEFCE4125E6D7BD77AA3793061
:10C4D000783F125D62125EA68E798F7A228F2E903F
:10C4E0000AC7E0FF12C2F6E52EC43333335480FD91
:10C4F0007B807FA212AF21E49006C1F0A37464F0A8
:10C50000227E007F547D007B017A01790012627ADD
:10C51000900180E0900100F0A37430F0E4A3F0A358
:10C520007407F022EFC43354609009B2F0E4FF12B4
:10C53000CBC19009B2E0FB7574047D037F2012BF6C
:10C54000F27F0B12C74222EFC4335460900A32F0DC
:10C55000E4FF12CBCD900A32E0FB7574057D037FBA
:10C560002012BFF27F1312C742227F1F12CBA97580
:10C570007403E4FB7DB07F1612BFF27F1F12CBB5B0
:10C58000757402E4FB7DB07F1602BFF2E4FF12CBAC
:10C590009D7B01E4FD7F1812BF359007B0EFF07B63
:10C5A000017D017F1812BF359007B1EFF022E4FF43
:10C5B00012CBA97B03E4FD7F1612BF35900543EF34
:10C5C000F07B037D017F1612BF35900544EFF0220A
:10C5D000E4FF12CBB57B02E4FD7F1612BF35900855
:10C5E00030EFF07B027D017F1612BF35900831EFEE
:10C5F000F0227F1F12CB91E4F574FB7DB07F1812FF
:10C60000BFF27F1F12CB9D757401E4FB7DB07F18D4
:10C6100002BFF2E4FF12CB91E4FBFD7F1812BF359D
:10C62000900443EFF0E4FB7D017F1812BF359004C6
:10C6300044EFF022AC0712C76B12C06B12C76B7FBE
:10C640000112C765E4FF12C1BF12C76BE4FF12C03D
:10C650006F02C76BAC06900313E0FDA3E0FBA3E001
:10C66000F538A3E0F53912BCF5AC06900110ECF0FA
:10C67000A3EFF022AD07AC06E4FBFAC3EB9DEC643C
:10C6800080F8EA648098500A12CB390BBB00010A8B
:10C6900080E922AC07AD04E4FF12C06F7F0212C72D
:10C6A0007AAD047F0112C1BF0F12C77A12C06B02AC
:10C6B000C76BE4FF124AEC7F01124AEC7F02124A78
:10C6C000EC7F03124AEC12C61312C9E102B9B1E4BD
:10C6D000FF122DE27F01122DE27F02122DE27F0375
:10C6E000122DE212C58C12CA0902B9FE12C5AE1291
:10C6F000CA31E4FF1237907F011237907F02123760
:10C70000907F0312379002BA4B12C5D012CA59E477
:10C71000FF12413E7F0112413E7F0212413E7F03E4
:10C7200012413E02BA988E348F3512BE758F36E5AF
:10C730003504FF12BE75EF7F00FEEF2536FFE43EA5
:10C74000FE227D0412B606AD07AC06E4125E6D7BD8
:10C75000487AE179BA783F125D62125EA62212C76A
:10C760006B7F01AD0412C1BF12C76BE4FFFE0FBFA8
:10C7700000010EEF64024E70F522AD07E4FBFAED06
:10C78000FFC3EB9F7480F86A98500A12C76B0BBB0B
:10C7900000010A80EA22C294C2A57F327E0012C63E
:10C7A0007412CB077F327E0012C6747F327E000285
:10C7B000C6748F678C688D698A6A8B6B12AF21E5AE
:10C7C00068FDE56AFBE56704FF12AF21228F2E901A
:10C7D0000AC7E0FF12C2F6AD2E7FB112BBC5E490CE
:10C7E00006C1F0A37464F022E4FF1222BA7F0112A2
:10C7F00022BA7F021222BA7F031222BA12C9CD02D4
:10C80000B823E4FF12178E7F0112178E7F021217D2
:10C810008E7F0312178E12C9F502B873E4FF12005F
:10C82000767F011200767F021200767F0312007677
:10C8300012CA1D02B8C3E4FF120C027F01120C02DF
:10C840007F02120C027F03120C0212CA4502B913B6
:10C85000900AC7E0FF12C2F67FA212BE755307808E
:10C86000EFC41313135401FF22ADA7A2AF9201C26C
:10C87000AFE4F5A78F828E8393FFA20192AF8DA7BD
:10C8800022E4FE7574057B117D607F1C12BFF27B74
:10C89000057D687F1C12B07322E4FE7574047B1161
:10C8A0007D607F1C12BFF27B047D687F1C12B07319
:10C8B0002212CA95E4FF1262A67F011262A67F02CD
:10C8C0001262A67F030262A612C357E4FF126BF83E
:10C8D0007F01126BF87F02126BF87F03026BF81274
:10C8E000CAA9E4FF12674F7F0112674F7F021267E8
:10C8F0004F7F0302674F12C387E4FF12701A7F0154
:10C9000012701A7F0212701A7F0302701AAF73122C
:10C91000CBEEAF73AD0712C76BE4FF12C06F7F029F
:10C9200002C77AAC07AD04E4FF12C06F0F12C765EF
:10C93000E4FF12C1BF0F02C06FAFA7E4F5A72083C9
:10C940000543C180800353C17F12CBD98FA72275C5
:10C95000360075377E7538E2129BE59006B7EEF02B
:10C96000A3EFF02275333F75341475353FE4F53687
:10C97000129F739006ADEFF02275360175373B7547
:10C9800038E8129BE59006B5EEF0A3EFF02275367D
:10C990000175373B7538DC129BE59006B3EEF0A3CA
:10C9A000EFF02275330F7534477535F07536041284
:10C9B0009F739006AEEFF02275330F7534487535CE
:10C9C000F0753604129F739006B1EFF022E4FF1267
:10C9D000CB91900445E0FBE4F5747D037F1802BF22
:10C9E000F2E4FF12CB91E4FB7D037F1812BF359078
:10C9F0000445EFF022E4FF12CB9D9007B2E0FB75F7
:10CA000074017D037F1802BFF2E4FF12CB9D7B010E
:10CA10007D037F1812BF359007B2EFF022E4FF12BA
:10CA2000CBA9900545E0FB7574037D037F1602BF1B
:10CA3000F2E4FF12CBA97B037D037F1612BF359072
:10CA40000545EFF022E4FF12CBB5900832E0FB750C
:10CA500074027D037F1602BFF2E4FF12CBB57B02A6
:10CA60007D037F1612BF35900832EFF022EF30E0E1
:10CA700004D2948002C294EF30E103D2A522C2A571
:10CA8000228F2C12A2B3AF2C1288DCAF2C128B9108
:10CA9000AF2C028E46E4FF12CBC19009B2E0FB75C9
:10CAA00074047D037F2002BFF2E4FF12CBCD900A15
:10CAB00032E0FB7574057D037F2002BFF2C0E0C049
:10CAC000D075D000C00712C939D007D0D0D0E0321D
:10CAD00075B28075BB1475DF1F75BC1875B904433A
:10CAE000E88122AF885388AF758CF1EF5440FEEF98
:10CAF00054104E4288228F2C900AC7E0FF12C2F6D3
:10CB0000AD2C7F6802BBC5D286D287D284D285D2B3
:10CB100090D291D292D29322E4F5A9E5A930E7FB15
:10CB200075A903E5A930E7FB2212C850BF01057EB5
:10CB3000017FFE227E037FFC22E4FFFE000FBF0088
:10CB4000010EBE17F7BF70F422E59154045391FB18
:10CB50007593157592A042912275330F7534471263
:10CB60009F6D9006AFEFF02212C11812AC0212C5F1
:10CB70000112AFCD02BAE575F1FE75D4FF75FE085E
:10CB800075FDF72275A62075A72075F32375CC0CCB
:10CB900022AB07E4F5747DFF7F1802BFF2AB077587
:10CBA00074017DFF7F1802BFF2AB077574037DFF30
:10CBB0007F1602BFF2AB077574027DFF7F1602BFBE
:10CBC000F2AB077574047DFF7F2002BFF2AB0775DF
:10CBD00074057DFF7F2002BFF230830475FDFF22C4
:10CBE00075FDF72253C17F43C18053917F32AD075A
:10CBF0007F0112BDF102C77AE4F5A77597DE75973C
:10CC0000AD2275A51075F21F75D5FF22E4F5A77545
:10CC1000E34075E10422759C0175F49F2275A7100D
:10CC200075C12022E4F5A775EF0622758E0175897E
:10CC3000022275D7A043C11C2275E6832202C7E8F1
:10CC400002C6B202C80202C6CF02C81C02C6EC026B
:10CC5000C83602C70902B5400297E90299E7FFFF0B
:10CC6000FFFFFFFFFFFFFFFFFFFFFFFFFFFFFFFFD4
:10CC7000FFFFFFFFFFFFFFFFFFFFFFFFFFFFFFFFC4
:10CC8000FFFFFFFFFFFFFFFFFFFFFFFFFFFFFFFFB4
:10CC9000FFFFFFFFFFFFFFFFFFFFFFFFFFFFFFFFA4
:10E8000018000000000000000000000000000000F0
:10E8100000000000000000000000000000000000F8
:10E8200000000000000000000000000000000000E8
:10E8300000000000000000000000000000000000D8
:10E8400000000000000000000000000000000000C8
:10E8500000000000000100000000000000000000B7
:10E8600000000000000000000000000000000000A8
:10E87000000000000000FFFFFFFFFFFFFFFF0000A0
:10E88000184C555853484152452D49435420202097
:10E89000203C18A000000000000000000000000064
:10E8A0000000000000000000000000000000000068
:10E8B0000000000000000000000000000000000058
:10E8C0000000000000000000000000000000000048
:10E8D0000000000000000000000000000000000038
:10E8E000FFFFFFFFFFFFFFFFFFFFFFFFFFFFFFFF38
:10E8F000FFFFFFFFFFFFFFFFFFFFFFFFFFFFFFFF28
:10E90000FFFFFFFFFFFFFFFFFFFFFFFFFFFFFFFF17
:10E91000FFFFFFFFFFFFFFFFFFFFFFFFFFFFFFFF07
:10E92000FFFFFFFFFFFFFFFFFFFFFFFFFFFFFFFFF7
:10E93000FFFFFFFFFFFFFFFFFFFFFFFFFFFFFFFFE7
:10E94000FFFFFFFFFFFFFFFFFFFFFFFFFFFFFFFFD7
:10E95000FFFFFFFFFFFFFFFFFFFFFFFFFFFFFFFFC7
:10E96000FFFFFFFFFFFFFFFFFFFFFFFFFFFFFFFFB7
:10E97000FFFFFFFFFFFFFFFFFFFFFFFFFFFFFFFFA7
:10E98000FFFFFFFFFFFFFFFFFFFFFFFFFFFFFFFF97
:10E99000FFFFFFFFFFFFFFFFFFFFFFFFFFFFFFFF87
:10E9A000FFFFFFFFFFFFFFFFFFFFFFFFFFFFFFFF77
:10E9B000FFFFFFFFFFFFFFFFFFFFFFFFFFFFFFFF67
:10E9C000FFFFFFFFFFFFFFFFFFFFFFFFFFFFFFFF57
:10E9D000FFFFFFFFFFFFFFFFFFFFFFFFFFFFFFFF47
:10E9E000FFFFFFFFFFFFFFFFFFFFFFFFFFFFFFFF37
:10E9F000FFFFFFFFFFFFFFFFFFFFFFFFFFFFFFFF27
:10EA000002150200000032230000426807D0040A09
:10EA100088604600000000000000000000000000C8
:10EA200000000000000000000000000000000000E6
:10EA30000111FF0111FF00000000000000000000B4
:10EA400000000000000000000000000000000000C6
:10EA500000000000000000000000000000000000B6
:10EA600000000000000000000000000000000000A6
:10EA70000000000000000000000000000000001185
:10EA80008000000000000000000000000000000006
:10EA90000000000000000000000000000000000076
:10EAA0000000000000000000000000000000000066
:10EAB0000000000000000000000000000000000056
:10EAC0000000000000000000000000000000000046
:10EAD0000000000000000000000000000000000036
:10EAE0000000000000000000000000000000000026
:10EAF0000000000000000000000000000000000016
:10EB0000FFFFFFFFFFFFFFFFFFFFFFFFFFFFFFFF15
:10EB1000FFFFFFFFFFFFFFFFFFFFFFFFFFFFFFFF05
:10EB2000FFFFFFFFFFFFFFFFFFFFFFFFFFFFFFFFF5
:10EB3000FFFFFFFFFFFFFFFFFFFFFFFFFFFFFFFFE5
:10EB4000FFFFFFFFFFFFFFFFFFFFFFFFFFFFFFFFD5
:10EB5000FFFFFFFFFFFFFFFFFFFFFFFFFFFFFFFFC5
:10EB6000FFFFFFFFFFFFFFFFFFFFFFFFFFFFFFFFB5
:10EB7000FFFFFFFFFFFFFFFFFFFFFFFFFFFFFFFFA5
:10EB8000FFFFFFFFFFFFFFFFFFFFFFFFFFFFFFFF95
:10EB9000FFFFFFFFFFFFFFFFFFFFFFFFFFFFFFFF85
:10EBA000FFFFFFFFFFFFFFFFFFFFFFFFFFFFFFFF75
:10EBB000FFFFFFFFFFFFFFFFFFFFFFFFFFFFFFFF65
:10EBC000FFFFFFFFFFFFFFFFFFFFFFFFFFFFFFFF55
:10EBD000FFFFFFFFFFFFFFFFFFFFFFFFFFFFFFFF45
:10EBE000FFFFFFFFFFFFFFFFFFFFFFFFFFFFFFFF35
:10EBF000FFFFFFFFFFFFFFFFFFFFFFFFFFFFFFFF25
:10EC000001000000010000010000000100000001FF
:10EC100000000001000000010000000100000001F0
:10EC200000000001000000010000000100000001E0
:10EC300000000001000000008001000080010000D1
:10EC4000800100008001004600010001000000007A
:10EC500000000000000000000000000000000000B4
:10EC600000000000000000000000000000000000A4
:10EC70000000000000000000000000000000000094
:10EC8000010000000100000100000001000000017F
:10EC90000000000100000001000000010000000170
:10ECA0000000000100000001000000010000000160
:10ECB0000000000100000000800100008001000051
:10ECC0008001000080010000000000000000000042
:10ECD0000000000000000000000000000000000034
:10ECE0000000000000000000000000000000000024
:10ECF0000000000000000000000000000000000014
:10ED0000FFFFFFFFFFFFFFFFFFFFFFFFFFFFFFFF13
:10ED1000FFFFFFFFFFFFFFFFFFFFFFFFFFFFFFFF03
:10ED2000FFFFFFFFFFFFFFFFFFFFFFFFFFFFFFFFF3
:10ED3000FFFFFFFFFFFFFFFFFFFFFFFFFFFFFFFFE3
:10ED4000FFFFFFFFFFFFFFFFFFFFFFFFFFFFFFFFD3
:10ED5000FFFFFFFFFFFFFFFFFFFFFFFFFFFFFFFFC3
:10ED6000FFFFFFFFFFFFFFFFFFFFFFFFFFFFFFFFB3
:10ED7000FFFFFFFFFFFFFFFFFFFFFFFFFFFFFFFFA3
:10ED8000FFFFFFFFFFFFFFFFFFFFFFFFFFFFFFFF93
:10ED9000FFFFFFFFFFFFFFFFFFFFFFFFFFFFFFFF83
:10EDA000FFFFFFFFFFFFFFFFFFFFFFFFFFFFFFFF73
:10EDB000FFFFFFFFFFFFFFFFFFFFFFFFFFFFFFFF63
:10EDC000FFFFFFFFFFFFFFFFFFFFFFFFFFFFFFFF53
:10EDD000FFFFFFFFFFFFFFFFFFFFFFFFFFFFFFFF43
:10EDE000FFFFFFFFFFFFFFFFFFFFFFFFFFFFFFFF33
:10EDF000FFFFFFFFFFFFFFFFFFFFFFFFFFFFFFFF23
:10EE0000060D13192026293239393939393939395A
:10EE100000070A131B1F272A000000000000000043
:10EE2000191E243600000000000000000000000051
:10EE30009378CCAE0000000000000000000000004D
:10EE400000070F1B2F373A3F0000000000000000B2
:10EE5000FFFFFFFFFFFFFFFFFFFFFFFFFFFFFFFFC2
:10EE6000FFFFFFFFFFFFFFFFFFFFFFFFFFFFFFFFB2
:10EE7000FFFFFFFFFFFFFFFFFFFFFFFFFFFFFFFFA2
:10EE8000FFFFFFFFFFFFFFFFFFFFFFFFFFFFFFFF92
:10EE9000FFFFFFFFFFFFFFFFFFFFFFFFFFFFFFFF82
:10EEA000FFFFFFFFFFFFFFFFFFFFFFFFFFFFFFFF72
:10EEB000FFFFFFFFFFFFFFFFFFFFFFFFFFFFFFFF62
:10EEC000FFFFFFFFFFFFFFFFFFFFFFFFFFFFFFFF52
:10EED000FFFFFFFFFFFFFFFFFFFFFFFFFFFFFFFF42
:10EEE000FFFFFFFFFFFFFFFFFFFFFFFFFFFFFFFF32
:10EEF000FFFFFFFFFFFFFFFFFFFFFFFFFFFFFFFF22
:10EF0000FFFFFFFFFFFFFFFFFFFFFFFFFFFFFFFF11
:10EF1000FFFFFFFFFFFFFFFFFFFFFFFFFFFFFFFF01
:10EF2000FFFFFFFFFFFFFFFFFFFFFFFFFFFFFFFFF1
:10EF3000FFFFFFFFFFFFFFFFFFFFFFFFFFFFFFFFE1
:10EF4000FFFFFFFFFFFFFFFFFFFFFFFFFFFFFFFFD1
:10EF5000FFFFFFFFFFFFFFFFFFFFFFFFFFFFFFFFC1
:10EF6000FFFFFFFFFFFFFFFFFFFFFFFFFFFFFFFFB1
:10EF7000FFFFFFFFFFFFFFFFFFFFFFFFFFFFFFFFA1
:10EF8000FFFFFFFFFFFFFFFFFFFFFFFFFFFFFFFF91
:10EF9000FFFFFFFFFFFFFFFFFFFFFFFFFFFFFFFF81
:10EFA000FFFFFFFFFFFFFFFFFFFFFFFFFFFFFFFF71
:10EFB000FFFFFFFFFFFFFFFFFFFFFFFFFFFFFFFF61
:10EFC000FFFFFFFFFFFFFFFFFFFFFFFFFFFFFFFF51
:10EFD000FFFFFFFFFFFFFFFFFFFFFFFFFFFFFFFF41
:10EFE000FFFFFFFFFFFFFFFFFFFFFFFFFFFFFFFF31
:10EFF000FFFFFFFFFFFFFFFFFFFFFFFFFFFFFFFF21
:10F000005C000000000000000000000000040000A0
:10F01000FF00FF007F080000070707070FF000232D
:10F020002323234A4A4A4A0000000000000000044B
:10F0300000001000080000000000000000000000B8
:10F0400000000000000000000000000000000000C0
:10F0500000000000000000000000000000000000B0
:10F0600000000000000000000000000000000000A0
:10F070000000000000000000000000000000000090
:10F080005C00000000000000000000000004000020
:10F09000FF00FF0070080000070707070FF00023BC
:10F0A0002323234A4A4A4A000000000000000004CB
:10F0B0000000100008000000000000000000000038
:10F0C0000000000000000000000000000000000040
:10F0D0000000000000000000000000000000000030
:10F0E0000000000000000000000000000000000020
:10F0F0000000000000000000000000000000000010
:10F10000FFFFFFFFFFFFFFFFFFFFFFFFFFFFFFFF0F
:10F11000FFFFFFFFFFFFFFFFFFFFFFFFFFFFFFFFFF
:10F12000FFFFFFFFFFFFFFFFFFFFFFFFFFFFFFFFEF
:10F13000FFFFFFFFFFFFFFFFFFFFFFFFFFFFFFFFDF
:10F14000FFFFFFFFFFFFFFFFFFFFFFFFFFFFFFFFCF
:10F15000FFFFFFFFFFFFFFFFFFFFFFFFFFFFFFFFBF
:10F16000FFFFFFFFFFFFFFFFFFFFFFFFFFFFFFFFAF
:10F17000FFFFFFFFFFFFFFFFFFFFFFFFFFFFFFFF9F
:10F18000FFFFFFFFFFFFFFFFFFFFFFFFFFFFFFFF8F
:10F19000FFFFFFFFFFFFFFFFFFFFFFFFFFFFFFFF7F
:10F1A000FFFFFFFFFFFFFFFFFFFFFFFFFFFFFFFF6F
:10F1B000FFFFFFFFFFFFFFFFFFFFFFFFFFFFFFFF5F
:10F1C000FFFFFFFFFFFFFFFFFFFFFFFFFFFFFFFF4F
:10F1D000FFFFFFFFFFFFFFFFFFFFFFFFFFFFFFFF3F
:10F1E000FFFFFFFFFFFFFFFFFFFFFFFFFFFFFFFF2F
:10F1F000FFFFFFFFFFFFFFFFFFFFFFFFFFFFFFFF1F
:10F2000000000000D005000088888800029E003FB2
:10F21000009E0000020002000200D0050000888865
:10F220008800029E003F009E0000020002000200D3
:10F23000D005000088888800029E003F009E0000E4
:10F24000020002000200D005000088888800029EAB
:10F25000003F009E000002000200025452540808C1
:10F2600008202020454545404040777777080A0828
:10F27000555555550000000000000000000000003A
:10F280005452540808082121214545454040407703
:10F290007777080A08545254080808212121454567
:10F2A00045404040777777080A08545254080808C8
:10F2B000212121454545404040777777080A085489
:10F2C00052540808082121214545454040407777A0
:10F2D00077080A0854525408080821212145454559
:10F2E000404040777777080A0854525408080821AC
:10F2F0002121454545404040777777080A080000BE
:10F3000000000000D005000088888800029E003FB1
:10F31000009E0000020002000200D0050000888864
:10F320008800029E003F009E0000020002000200D2
:10F33000D005000088888800029E003F009E0000E3
:10F34000020002000200D005000088888800029EAA
:10F35000003F009E000002000200025452540808C0
:10F3600008212121454545404040777777080A0824
:10F370005555555500000000000000000000000039
:10F38000FFFFFFFFFFFFFFFFFFFFFFFFFFFFFFFF8D
:10F39000FFFFFFFFFFFFFFFFFFFFFFFFFFFFFFFF7D
:10F3A000FFFFFFFFFFFFFFFFFFFFFFFFFFFFFFFF6D
:10F3B000FFFFFFFFFFFFFFFFFFFFFFFFFFFFFFFF5D
:10F3C000FFFFFFFFFFFFFFFFFFFFFFFFFFFFFFFF4D
:10F3D000FFFFFFFFFFFFFFFFFFFFFFFFFFFFFFFF3D
:10F3E000FFFFFFFFFFFFFFFFFFFFFFFFFFFFFFFF2D
:10F3F000FFFFFFFFFFFFFFFFFFFFFFFFFFFFFFFF1D
:10F4000000000098080000000020380D00003500C2
:10F41000002500001D0000000098080000000020EA
:10F42000380D00003500002500001D000000009888
:10F43000080000000020380D000035000025000005
:10F440001D0000000098080000000020380D00009A
:10F450003500002500001D00000000000000000035
:10F46000000000000000000000000000000000009C
:10F47000000000000000000000000000000000008C
:10F4800000000098080000000020380D0000350042
:10F49000002500001D00000000980800000000206A
:10F4A000380D00003500002500001D000000009808
:10F4B000080000000020380D000035000025000085
:10F4C0001D0000000098080000000020380D00001A
:10F4D0003500002500001D000000000000000000B5
:10F4E000000000000000000000000000000000001C
:10F4F000000000000000000000000000000000000C
:10F50000FFFFFFFFFFFFFFFFFFFFFFFFFFFFFFFF0B
:10F51000FFFFFFFFFFFFFFFFFFFFFFFFFFFFFFFFFB
:10F8000000000000D005000088888800029E003FAC
:10F81000009E0000020002000200D005000088885F
:10F820008800029E003F009E0000020002000200CD
:10F83000D005000088888800029E003F009E0000DE
:10F84000020002000200D005000088888800029EA5
:10F85000003F009E0000020002000263636308088C
:10F86000080000004F4F4F414141777777080A0861
:10F870005555555500000000000000000000000034
:10F880006363630808080000004F4F4F4141417710
:10F890007777080A086363630808080000004F4F81
:10F8A0004F414141777777080A0863636308080886
:10F8B0000000004F4F4F414141777777080A0863B6
:10F8C00063630808080000004F4F4F4141417777BC
:10F8D00077080A086363630808080000004F4F4F69
:10F8E000414141777777080A086363630808080095
:10F8F00000004F4F4F414141777777080A080000D9
:10F9000000000000D005000088888800029E003FAB
:10F91000009E0000020002000200D005000088885E
:10F920008800029E003F009E0000020002000200CC
:10F93000D005000088888800029E003F009E0000DD
:10F94000020002000200D005000088888800009EA6
:10F95000003F009E0000020002000263636308088B
:10F96000080000004F4F4F414141777777080A0860
:10F970005555555500000000000000000000000033
:10F98000FFFFFFFFFFFFFFFFFFFFFFFFFFFFFFFF87
:10F99000FFFFFFFFFFFFFFFFFFFFFFFFFFFFFFFF77
:10F9A000FFFFFFFFFFFFFFFFFFFFFFFFFFFFFFFF67
:10F9B000FFFFFFFFFFFFFFFFFFFFFFFFFFFFFFFF57
:10F9C000FFFFFFFFFFFFFFFFFFFFFFFFFFFFFFFF47
:10F9D000FFFFFFFFFFFFFFFFFFFFFFFFFFFFFFFF37
:10F9E000FFFFFFFFFFFFFFFFFFFFFFFFFFFFFFFF27
:10F9F000FFFFFFFFFFFFFFFFFFFFFFFFFFFFFFFF17
:00000001FF
