:100000000249E385A72E1258B61258C01258CA12D8
:1000100058D41258FB1258DE12579912003E12594A
:100020000212590912585912582212587A125910AC
:100030001259171258E8852EA7222202199475D159
:100040004022FF0257FCE4FF1258967538047BAA41
:100050007D027F201251DA7F0A7E0012559C75388E
:1000600004E4FB7D027F201251DA7F0A7E000255F4
:100070009CFFFF0258A2752F10753000E4F531EF98
:100080006005752E428003752E40753705E4FBFA36
:100090007D12FCAF2E12528F7537057B017A007DE1
:1000A000257C00AF2E12528F7537057B017A307D8B
:1000B000007C01AF2E12528F7537057B1E7A007DB2
:1000C000027C01AF2E12528F7537057B087A007DB6
:1000D000047C01AF2E12528F7537057BF87A007DB4
:1000E000067C01AF2E12528F7537057B087A027D90
:1000F000077C01AF2E12528F7537057B4A7A8A7DB5
:10010000087C01AF2E12528F7537057B807A307DC7
:100110000D7C01AF2E12528F7537057B407AFD7D25
:10012000147C01AF2E12528F7537057B687A4C7D97
:10013000167C01AF2E12528F7537057B887A8C7D25
:10014000177C01AF2E12528F7537057BC37A907DD5
:10015000187C01AF2E12528F7537057BA07A007D77
:100160001D7C01AF2E12528F7537057BE07A017D21
:10017000217C01AF2E12528F7537057B0F7A007DDF
:10018000227C01AF2E12528F7537057BD07A307DDD
:10019000247C01AF2E12528F7537057B047A917D36
:1001A000287C01AF2E12528F7537057B387A077D78
:1001B000297C01AF2E12528F7537057B407AC07DA6
:1001C0002A7C01AF2E12528F7537057BC77A437D8B
:1001D0002C7C01AF2E12528F7537057B007ACD7DB6
:1001E0002D7C01AF2E12528FE4F531AF317E00AC81
:1001F0002FAD30121766E42FFDEE3480FC75370505
:100200007B2F7A00AF2E12528FAF317E00AC2FAD14
:1002100030121766EF2401FDEE3480FC7537057B44
:10022000007A01AF2E12528FAF317E00AC2FAD306D
:10023000121766EF2403FDEE3480FC7537057B133F
:100240007A00AF2E12528FAF317E00AC2FAD30123C
:100250001766EF2405FDEE3480FC753705E4FBFAE4
:10026000AF2E12528FAF317E00AC2FAD3012176619
:10027000EF2406FDEE3480FC7537057B1B7A00AF5A
:100280002E12528FAF317E00AC2FAD30121766EFB9
:100290002407FDEE3480FC753705E4FBFAAF2E121F
:1002A000528FAF317E00AC2FAD30121766EF2408AD
:1002B000FDEE3480FC7537057B047AC7AF2E1252F1
:1002C0008FAF317E00AC2FAD30121766EF240BFDDF
:1002D000EE3480FC7537057B017A00AF2E12528F09
:1002E000AF317E00AC2FAD30121766EF2411FDEE5A
:1002F0003480FC7537057B7E7A7FAF2E12528FAF2C
:10030000317E00AC2FAD30121766EF2421FDEE34A4
:1003100080FC7537057B807A68AF2E12528FAF3123
:100320007E00AC2FAD30121766EF2425FDEE348031
:10033000FC7537057BE47A5CAF2E12528FAF317EAD
:1003400000AC2FAD30121766EF243BFDEE3480FC7D
:100350007537057B007A61AF2E12528FAF317E0068
:10036000AC2FAD30121766EF243DFDEE3480FC75E6
:1003700037057B007AA6AF2E12528FAF317E00ACCC
:100380002FAD30121766EF2442FDEE3480FC753736
:10039000057B107A0FAF2E12528FAF317E00AC2F3B
:1003A000AD30121766EF2443FDEE3480FC7537053F
:1003B0007B417A30AF2E12528FAF317E00AC2FAD21
:1003C00030121766EF2449FDEE3480FC7537057B4B
:1003D000117AC2AF2E12528FAF317E00AC2FAD30EA
:1003E000121766EF244FFDEE3480FC7537057B2134
:1003F0007A00AF2E12528FAF317E00AC2FAD30128B
:100400001766EF2452FDEE3480FC7537057B207AA9
:1004100000AF2E12528FAF317E00AC2FAD301217CD
:1004200066EF2455FDEE3480FC7537057B4C7A036E
:10043000AF2E12528FAF317E00AC2FAD3012176647
:10044000EF2456FDEE3480FC7537057B007A03AF50
:100450002E12528FAF317E00AC2FAD30121766EFE7
:10046000245BFDEE3480FC7537057B047AFCAF2EEF
:1004700012528FAF317E00AC2FAD30121766EF24D1
:100480005CFDEE3480FC7537057B807AAAAF2E12B6
:10049000528FAF317E00AC2FAD30121766EF245D66
:1004A000FDEE3480FC7537057B007AA0AF2E12522A
:1004B0008FAF317E00AC2FAD30121766EF245EFD9A
:1004C000EE3480FC7537057B997A83AF2E12528FFC
:1004D000AF317E00AC2FAD30121766EF245FFDEE1A
:1004E0003480FC7537057B237A06AF2E12528FAF0E
:1004F000317E00AC2FAD30121766EF2460FDEE3474
:1005000080FC7537057B007A57AF2E12528FAF31C2
:100510007E00AC2FAD30121766EF2470FDEE3480F4
:10052000FC7537057B027A00AF2E12528FAF317EF9
:1005300000AC2FAD30121766EF2471FDEE3480FC55
:100540007537057B6F7A23AF2E12528FAF317E0045
:10055000AC2FAD30121766EF2472FDEE3480FC75BF
:1005600037057B057A00AF2E12528FAF317E00AC7B
:100570002FAD30121766EF2474FDEE3480FC753712
:10058000057B417A7CAF2E12528FAF317E00AC2FAB
:10059000AD30121766EF2475FDEE3480FC7537051B
:1005A0007B0C7A01AF2E12528FAF317E00AC2FAD93
:1005B00030121766EF2476FDEE3480FC7537057B2C
:1005C000107A08AF2E12528FAF317E00AC2FAD30B3
:1005D000121766EF2479FDEE3480FC7537057B0039
:1005E0007A10AF2E12528FAF317E00AC2FAD301289
:1005F0001766EF247BFDEE3480FC7537057B197A96
:100600001FAF2E12528FAF317E00AC2FAD301217BC
:1006100066EF2492FDEE3480FC7537057B047A5535
:10062000AF2E12528FAF317E00AC2FAD3012176655
:10063000EF2493FDEE3480FC7537057B047A66AFBA
:100640002E12528FAF317E00AC2FAD30121766EFF5
:100650002494FDEE3480FC7537057B457A04AF2E7B
:1006600012528FAF317E00AC2FAD30121766EF24DF
:1006700095FDEE3480FC7537057B0F7A44AF2E1262
:10068000528FAF317E00AC2FAD30121766EF24963B
:10069000FDEE3480FC7537057B107A01AF2E1252C7
:1006A0008FAF317E00AC2FAD30121766EF2497FD6F
:1006B000EE3480FC7537057B887A10AF2E12528F8E
:1006C000AF317E00AC2FAD30121766EF249AFDEEED
:1006D0003480FC7537057B8E7A0CAF2E12528FAFAB
:1006E000317E00AC2FAD30121766EF249CFDEE3446
:1006F00080FC7537057BD07A05AF2E12528FAF3153
:100700007E00AC2FAD30121766EF24A0FDEE3480D2
:10071000FC7537057B7F7A23AF2E12528FAF317E67
:1007200000AC2FAD30121766EF24A1FDEE3480FC33
:100730007537057B7F7A13AF2E12528FAF317E0053
:10074000AC2FAD30121766EF24ACFDEE3480FC7593
:1007500037057B007A14AF2E12528FAF317E00AC7A
:100760002FAD30121766EF2401FDEE3481FC753792
:10077000057B067A04AF2E12528FAF317E00AC2F6C
:10078000AD30121766EF2403FDEE3481FC7537059A
:100790007B127A0AAF2E12528FAF317E00AC2FAD92
:1007A00030121766EF2409FDEE3481FC7537057BA6
:1007B000807A02AF2E12528FAF317E00AC2FAD3057
:1007C000121766EF240AFDEE3481FC7537057BB401
:1007D0007A5AAF2E12528FAF317E00AC2FAD30124D
:1007E0001766EF240BFDEE3481FC7537057B177A15
:1007F00067AF2E12528FAF317E00AC2FAD30121783
:1008000066EF240CFDEE3481FC7537057B7A7A03A4
:10081000AF2E12528FAF317E00AC2FAD3012176663
:10082000EF2404FDEE3482FC7537057B447A00AF7B
:100830002E12528FAF317E00AC2FAD30121766EF03
:100840002405FDEE3482FC7537057B447A00AF2E1B
:1008500012528FAF317E00AC2FAD30121766EF24ED
:1008600007FDEE3482FC7537057B007AA0AF2E12AF
:10087000528FAF317E00AC2FAD30121766EF2415CA
:10088000FDEE3482FC7537057B607A00AF2E125284
:100890008FAF317E00AC2FAD30121766EF2418FDFC
:1008A000EE3482FC7537057B477A01AF2E12528FEA
:1008B000AF317E00AC2FAD30121766EF2419FDEE7C
:1008C0003482FC7537057B287A0FAF2E12528FAF1A
:1008D000317E00AC2FAD30121766EF241AFDEE34D6
:1008E00082FC7537057B207A00AF2E12528FAF3114
:1008F0007E00AC2FAD30121766EF241DFDEE348262
:10090000FC7537057B307AA0AF2E12528FAF317E47
:1009100000AC2FAD30121766E42FFDEE3483FC756A
:1009200037057B8F7A81AF2E12528FAF317E00ACAC
:100930002FAD30121766EF2401FDEE3483FC7537BE
:10094000057B007A29AF2E12528FAF317E00AC2F7B
:10095000AD30121766EF2402FDEE3483FC753705C7
:100960007B007A2FAF2E12528FAF317E00AC2FADAD
:1009700030121766EF2421FDEE3483FC7537057BBA
:10098000CF7A0AAF2E12528FAF317E00AC2FAD302E
:10099000121766EF2422FDEE3483FC7537057B9435
:1009A0007A05AF2E12528FAF317E00AC2FAD3012D0
:1009B0001766EF2423FDEE3483FC7537057B037A3D
:1009C0000CAF2E12528FAF317E00AC2FAD3012170C
:1009D00066EF246CFDEE3483FC7537057B087A00E6
:1009E000AF2E12528F0531E531C39404500302013A
:1009F000EB224906D7534C4246363451333260819C
:100A000006E50000000000000000000000000000FB
:100A100000000000000000000000000000000000D6
:100A200000000000000000000000000000000000C6
:100A300000000000000000000000000000000000B6
:100A400000000000000000000000000000000000A6
:100A50000000000000000000000000000000000096
:100A60000000000000000000000000000000000086
:100A70000000000000000000000000000000000076
:100A80000000004106E3004106D3004106E20041B8
:100A900006D4004106E0004106D5006100020000D6
:100AA0000000000000000000000000000000000046
:100AB0000000000000000000000000000000000036
:100AC0000000000000000000000000000000000026
:100AD0000000000000000000000000000000000016
:100AE0000000000000000000000000000000000006
:100AF00000000000000000000000000000000000F6
:100B000000000000000000000000000000000000E5
:100B100000000000000000000000000000000000D5
:100B200000000000000000000000000000000000C5
:100B300000000000000000000000000000000000B5
:100B400000000000000000000000000000000000A5
:100B50000000000000000000000000000000000095
:100B60000000000000000000000000000000000085
:100B70000000000000000000000000000000000075
:100B80000000000000000000000000000000000065
:100B900000000000000000000000000000000060F5
:100BA0008000800000000000000000000000000045
:100BB0000000000000000000000000000000000035
:100BC0000000000000000000000000000000000025
:100BD0000000000000000000000000000000000015
:100BE0000000000000000000000000000000000005
:100BF00000000000000000000000000000000000F5
:100C000000000000000000000000000000000000E4
:100C100000000000000000000000000000000000D4
:100C200000000060800315000000000000000000CC
:100C300000000000000000000000000000000000B4
:100C400000000000000000000000000000000000A4
:100C50000000000000000000000000000000000094
:100C60000000000000000000000000000000000084
:100C70000000000000000000000000000000000074
:100C80000000000000000000000000000000000064
:100C90000000000000000000000000000000000054
:100CA00000000000000000608003990000000000C8
:100CB0000000000000000000000000000000000034
:100CC0000000000000000000000000000000000024
:100CD0000000000000000000000000000000000014
:100CE0000000000000000000000000000000000004
:100CF00000000000000000000000000000000000F4
:100D000000000000000000000000000000000000E3
:100D100000000000000000000000000000000000D3
:100D200000000000000000000000006080000000E3
:100D300000000000000000000000000000000000B3
:100D400000000000000000000000000000000000A3
:100D50000000000000000000000000000000000093
:100D60000000000000000000000000000000000083
:100D70000000000000000000000000000000000073
:100D80000000000000000000000000000000000063
:100D90000000000000000000000000000000000053
:100DA00000000000000000000000000000000060E3
:100DB00080010000000000000000000000000000B2
:100DC0000000000000000000000000000000000023
:100DD0000000000000000000000000000000000013
:100DE0000000000000000000000000000000000003
:100DF00000000000000000000000000000000000F3
:100E000000000000000000000000000000000000E2
:100E100000000000000000000000000000000000D2
:100E200000000000000000000000000000000000C2
:100E30000000006080018000000000000000000051
:100E400000000000000000000000000000000000A2
:100E50000000000000000000000000000000000092
:100E60000000000000000000000000000000000082
:100E70000000000000000000000000000000000072
:100E80000000000000000000000000000000000062
:100E90000000000000000000000000000000000052
:100EA0000000000000000000000000000000000042
:100EB00000000000000000420397000041031202FE
:100EC0004107E60141090600410905004108FE000D
:100ED00041090000410903004109080041090F00D0
:100EE000410902004109040041090E0041091000B6
:100EF0004108FF00410901004109070041090B00B9
:100F000042090C000042090900004108EB004108B9
:100F1000E7014108E8014108E9014108EA01410807
:100F2000EC004108ED00011200010D00010F00026C
:100F3000090000010B00010E00011400010800016E
:100F400015FF010C000113000110000111004109FF
:100F5000140041091100410912004109130000EF7A
:100F60001470030210B91470030211F91470030213
:100F700013392403600302147F7F201258969007D0
:100F8000EAE0FB753804E4FD7F201251DA9007FC9B
:100F9000E0FB7538047D017F201251DA9007EBE009
:100FA000FB7538047D027F201251DA9007ECE0FBDC
:100FB0007538047D037F201251DA9007EDE0FB7550
:100FC00038047D047F201251DA9007EEE0FB75387B
:100FD000047D057F201251DA9007EFE0FB7538049D
:100FE0007D0A7F201251DA9007FDE0FB7538047D01
:100FF0000C7F201251DA9007F0E0FB7538047D0D6C
:101000007F201251DA9007F1E0FB7538047D197FDB
:10101000201251DA9007F2E0FB7538047D1A7F2028
:101020001251DA9007F5E0FB7538047DC27F20127B
:1010300051DA9007F8E0FB7538047DE27F20125109
:10104000DA9007FBE0FB7538047DD27F201251DA7D
:101050009007F5E020E01E9007F3E0FB7538047D73
:10106000C07F201251DA9007F4E0FB7538047DC18F
:101070007F201251DA9007F8E020E01E9007F6E09A
:10108000FB7538047DE07F201251DA9007F7E0FB12
:101090007538047DE17F201251DA9007FBE030E0E3
:1010A0000302147F9007F9E0FB7538047DD07F20A0
:1010B0001251DA9007FA0214737F211258969008A1
:1010C00000E0FB753804E4FD7F201251DA9008122D
:1010D000E0FB7538047D017F201251DA900801E0B1
:1010E000FB7538047D027F201251DA900802E0FB84
:1010F0007538047D037F201251DA900803E0FB75F8
:1011000038047D047F201251DA900804E0FB753822
:10111000047D057F201251DA900805E0FB75380444
:101120007D0A7F201251DA900813E0FB7538047DA8
:101130000C7F201251DA900806E0FB7538047D0D13
:101140007F201251DA900807E0FB7538047D197F83
:10115000201251DA900808E0FB7538047D1A7F20D0
:101160001251DA90080BE0FB7538047DC27F201223
:1011700051DA90080EE0FB7538047DE27F201251B1
:10118000DA900811E0FB7538047DD27F201251DA25
:1011900090080BE020E01E900809E0FB7538047D04
:1011A000C07F201251DA90080AE0FB7538047DC137
:1011B0007F201251DA90080EE020E01E90080CE02B
:1011C000FB7538047DE07F201251DA90080DE0FBBA
:1011D0007538047DE17F201251DA900811E030E08B
:1011E0000302147F90080FE0FB7538047DD07F2048
:1011F0001251DA9008100214737F22125896900848
:1012000016E0FB753804E4FD7F201251DA900828BF
:10121000E0FB7538047D017F201251DA900817E059
:10122000FB7538047D027F201251DA900818E0FB2C
:101230007538047D037F201251DA900819E0FB75A0
:1012400038047D047F201251DA90081AE0FB7538CB
:10125000047D057F201251DA90081BE0FB753804ED
:101260007D0A7F201251DA900829E0FB7538047D51
:101270000C7F201251DA90081CE0FB7538047D0DBC
:101280007F201251DA90081DE0FB7538047D197F2C
:10129000201251DA90081EE0FB7538047D1A7F2079
:1012A0001251DA900821E0FB7538047DC27F2012CC
:1012B00051DA900824E0FB7538047DE27F2012515A
:1012C000DA900827E0FB7538047DD27F201251DACE
:1012D000900821E020E01E90081FE0FB7538047D97
:1012E000C07F201251DA900820E0FB7538047DC1E0
:1012F0007F201251DA900824E020E01E900822E0BE
:10130000FB7538047DE07F201251DA900823E0FB62
:101310007538047DE17F201251DA900827E030E033
:101320000302147F900825E0FB7538047DD07F20F0
:101330001251DA9008260214737F231258969008EF
:101340002CE0FB753804E4FD7F201251DA90083E52
:10135000E0FB7538047D017F201251DA90082DE002
:10136000FB7538047D027F201251DA90082EE0FBD5
:101370007538047D037F201251DA90082FE0FB7549
:1013800038047D047F201251DA900830E0FB753874
:10139000047D057F201251DA900831E0FB75380496
:1013A0007D0A7F201251DA90083FE0FB7538047DFA
:1013B0000C7F201251DA900832E0FB7538047D0D65
:1013C0007F201251DA900833E0FB7538047D197FD5
:1013D000201251DA900834E0FB7538047D1A7F2022
:1013E0001251DA900837E0FB7538047DC27F201275
:1013F00051DA90083AE0FB7538047DE27F20125103
:10140000DA90083DE0FB7538047DD27F201251DA76
:10141000900837E020E01E900835E0FB7538047D29
:10142000C07F201251DA900836E0FB7538047DC188
:101430007F201251DA90083AE020E01E900838E050
:10144000FB7538047DE07F201251DA900839E0FB0B
:101450007538047DE17F201251DA90083DE020E0EC
:101460001E90083BE0FB7538047DD07F201251DAD6
:1014700090083CE0FB7538047DD17F201251DA22C0
:10148000EC4D6011E8497017ED33EC3304600DE466
:10149000FCFFFEFD22E933E8330470F80216301237
:1014A00015FB58046009E4CC248150062850090239
:1014B000163A284003021637C0E0EB4A7044B98060
:1014C00006D0E0FB021626EF4E701CBD8008EBFF35
:1014D000EAFEE9FD80EBE98DF0A4FEE5F002156976
:1014E000E9CDF9EAFEEBFFEF89F0A4FCE5F0CE8947
:1014F000F0A42EFFE435F0CD89F0A42DFEE435F004
:101500008067EF4E7005BD80D780C3EF8BF0A4AC31
:10151000F0EE8BF0A42CFCE435F0F8EF8AF0A42C6C
:10152000E5F038FCE433CB8DF0A42CFCE5F03BF87F
:10153000EE8AF0A42CFCE5F038F8E433CF89F0A46F
:101540002CFCE5F038CF3400CE89F0A42FFFE5F075
:101550003EFEE433C98DF0A42EFEE5F039CD8AF0CD
:10156000A42FFFE5F03EFEE43DFD33D0E0FB500745
:101570000BBB000F02163AEC2CFCEF33FFEE33FEF0
:10158000ED33FD02161275F020800E75F010800507
:1015900075F0087D007E007F003392D530D50312B0
:1015A00017FDEC334010EF33FFEE33FEED33FDEC6F
:1015B00033FCD5F0ED22E5F0247EA2D513CC92E7E2
:1015C000CDCEFF22EDD2E7CD33EC3392D52481404E
:1015D00006E4FFFEFDFC22FCE4CFCECDCC24E0509F
:1015E0001174FF80EDC3CC13CCCD13CDCE13CECF71
:1015F00013CF0470F030D5DE0217FDE9D2E7C9330E
:10160000E833F892D5EDD2E7CD33EC33FC5002B29B
:10161000D522EC30E7100FBF000C0EBE00080DBD48
:1016200000040BEB6014A2D5EB13FCED92E7FD2256
:1016300074FFFCFDFEFF22E480F8A2D574FF13FCCA
:101640007D80E480EFE709F608DFFA8046E709F2DB
:1016500008DFFA803E88828C83E709F0A3DFFA80F6
:1016600032E309F608DFFA8078E309F208DFFA804E
:101670007088828C83E309F0A3DFFA806489828A10
:1016800083E0A3F608DFFA805889828A83E0A3F218
:1016900008DFFA804C80D280FA80C680D4806980CE
:1016A000F28033801080A680EA809A80A880DA8059
:1016B000E280CA803389828A83ECFAE493A3C8C5A6
:1016C00082C8CCC583CCF0A3C8C582C8CCC583CCA6
:1016D000DFE9DEE7800D89828A83E493A3F608DFE1
:1016E000F9ECFAA9F0EDFB2289828A83ECFAE0A3F7
:1016F000C8C582C8CCC583CCF0A3C8C582C8CCC538
:1017000083CCDFEADEE880DB89828A83E493A3F27C
:1017100008DFF980CC88F0EF60010E4E60C388F0DE
:10172000ED2402B4040050B9F582EB2402B40400A5
:1017300050AF232345822390169573BB01068982FF
:101740008A83E0225002E722BBFE02E32289828ADA
:1017500083E49322BB010689828A83F0225002F738
:1017600022BBFE01F322EF8DF0A4A8F0CF8CF0A4F1
:1017700028CE8DF0A42EFE22C2D5EC30E709B2D5DA
:10178000E4C39DFDE49CFCEE30E715B2D5E4C39FB5
:10179000FFE49EFE121871C3E49DFDE49CFC8003EF
:1017A00012187130D507C3E49FFFE49EFE22E88F34
:1017B000F0A4CC8BF0A42CFCE98EF0A42CFC8AF0D5
:1017C000EDA42CFCEA8EF0A4CDA8F08BF0A42DCCD7
:1017D0003825F0FDE98FF0A42CCD35F0FCEB8EF030
:1017E000A4FEA9F0EB8FF0A4CFC5F02ECD39FEE416
:1017F0003CFCEAA42DCE35F0FDE43CFC22C3E49F82
:10180000FFE49EFEE49DFDE49CFC22E86010ECA257
:10181000E713FCED13FDEE13FEEF13FFD8F022D01B
:1018200083D082F8E4937012740193700DA3A39394
:10183000F8740193F5828883E4737402936860EF0F
:10184000A3A3A380DFEF4E6012EF60010EEDBB019A
:101850000B89828A83F0A3DFFCDEFA2289F050072D
:10186000F709DFFCA9F022BBFEFCF309DFFCA9F0BD
:1018700022BC000BBE0029EF8DF084FFADF022E406
:10188000CCF875F008EF2FFFEE33FEEC33FCEE9D45
:10189000EC984005FCEE9DFE0FD5F0E9E4CEFD226C
:1018A000EDF8F5F0EE8420D21CFEADF075F008EFF7
:1018B0002FFFED33FD4007985006D5F0F222C39874
:1018C000FD0FD5F0EA2275F008758200EF2FFFEECC
:1018D00033FECD33CDCC33CCC58233C5829BED9A5C
:1018E000EC99E58298400CF582EE9BFEED9AFDECBA
:1018F00099FC0FD5F0D6E4CEFBE4CDFAE4CCF9A800
:101900008222B800C1B90059BA002DEC8BF084CF07
:10191000CECDFCE5F0CBF97818EF2FFFEE33FEEDDE
:1019200033FDEC33FCEB33FB10D703994004EB9908
:10193000FB0FD8E5E4F9FA227818EF2FFFEE33FE1B
:10194000ED33FDEC33FCC933C910D7059BE99A4050
:1019500007EC9BFCE99AF90FD8E0E4C9FAE4CCFB68
:101960002275F010EF2FFFEE33FEED33FDCC33CCBC
:10197000C833C810D7079BEC9AE899400AED9BFD45
:10198000EC9AFCE899F80FD5F0DAE4CDFBE4CCFA58
:10199000E4C8F922C0E0C0F0C083C082C0D075D0D6
:1019A00000C000C001C002C003C004C005C006C022
:1019B0000775210075220030C203021E45E5C054A0
:1019C000F07003021AEF24F07003021B1224D0708F
:1019D00003021D4524F07003021E39243060030207
:1019E0001E3DC2C59006D3E5C2F0E0FF54FE64A0E0
:1019F0006003021AEAEF20E003021AE59006E3E032
:101A0000FFC394805042EF94754011EF947F500CC7
:101A100074002FF582E43402F583E4F09006E3E0ED
:101A2000FF2400F582E43402F583E0F5C2EFB40848
:101A300006125515021AE59006E3E06409600302F8
:101A40001AE512533D021AE590027FE0FFB4010E41
:101A50009006E3E02495F582E43402021AE0EFB444
:101A6000020D9006E3E02419F582E43403807190BE
:101A7000027FE0FFB4100D9006E3E02480F582E4DD
:101A800034FF805CEFB4112A9006E3E0FF2400F5F8
:101A900082E43400F583E0F5C2EFC39486404690BB
:101AA00006E3E0FFD39498503CEF2480FF123E926F
:101AB000803390027FE0FFB4130D9006E3E02480B2
:101AC000F582E434008019EF9006E3B4140AE024B0
:101AD00000F582E434018008E02400F582E4340259
:101AE000F583E0F5C2D2C1021E4BC2C1021E4B906B
:101AF00006E2E024E5F582E43406F583E5C2F090E1
:101B000006E5E09006E3F09006E2E004F0D2C102C0
:101B10001E4BC2C49006E2E0FFC394025003021DB4
:101B20003D9006E07401F0EF149006E4F09006E3B7
:101B3000E0647F6003021C1A9006E2E06402600326
:101B4000021C1A9006E6E090027FF070157B017A85
:101B5000027980F5347535807F807EC81250480246
:101B60001C0990027FE0B4011678807C027D017B25
:101B7000017A0379157E007F80121715021C0990E7
:101B8000027FE0B4021578807C027D017B017A033C
:101B900079997E007F80121715806E90027FE0B4E5
:101BA000101578807C027D017B017A0079007E002F
:101BB0007F80121715805290027FE0B41115788053
:101BC0007C027D017B017A0079807E007F80121784
:101BD00015803690027FE0B4131578807C027D0179
:101BE0007B017A0179007E007F80121715801A90A0
:101BF000027FE0B4141B78807C027D017B017A01B6
:101C000079807E007F801217159006D6E4F0021DC1
:101C10003D9006D67401F0021D3D9006E3E0FFC33F
:101C2000947A400FEFD3947D50099006D67405F056
:101C3000021D3D9006D4E0C3940140219006E4E0EB
:101C4000FF7E009006E3E02400F9E43402A801FCE2
:101C50007D017B017A0679E6121715804F9006E325
:101C6000E0FFB41A0280189006E3E0FFB41F08906A
:101C700006E6E0540180289006E3E0FFB4200690D9
:101C800006E6E0801A9006E3E0FFB421069006E63F
:101C9000E0800C9006E3E0FFB422119006E6E0FE3F
:101CA00074002FF582E43402F583EEF090027FE0B9
:101CB0006410703C9006E3E0FFD3947F407FA3E084
:101CC000F58275830074002FF9E43402A801FC7DCD
:101CD000017B017A0679E67E00AF82121715780043
:101CE0007C007D017B017A0279807E007F808042CA
:101CF00090027FE06413703F9006E3E0FFD3948F7F
:101D0000403BA3E0F58275830074002FF9E43402B0
:101D1000A801FC7D017B017A0679E67E00AF821284
:101D2000171578107C017D017B017A0279907E0085
:101D30007F6F12171580069006D67407F09006E2A2
:101D4000E4F0021E4B20C103021E4B9006E3E004A8
:101D5000F0E0FFC394805042EF94754011EF947F00
:101D6000500C74002FF582E43402F583E4F0900601
:101D7000E3E0FF2400F582E43402F583E0F5C2EFEE
:101D8000B40806125515021E4B9006E3E064096084
:101D900003021E4B12533D021E4B90027FE0FFB424
:101DA000010E9006E3E02495F582E43402021E322F
:101DB000EFB4020D9006E3E02419F582E4340380C9
:101DC0007190027FE0FFB4100D9006E3E02480F5EF
:101DD00082E434FF805CEFB4112A9006E3E0FF2434
:101DE00000F582E43400F583E0F5C2EFC394864049
:101DF0005A9006E3E0FFD394985050EF2480FF12EE
:101E00003E92804790027FE0FFB4130D9006E3E01E
:101E10002480F582E434008019EF9006E3B4140ABC
:101E2000E02400F582E434018008E02400F582E437
:101E30003402F583E0F5C28012C2C4800E53C17F24
:101E400043C1808000C2C5C2C4C2C1C2C0D007D0D5
:101E500006D005D004D003D002D001D000D0D0D01D
:101E600082D083D0F0D0E032EF147003021FA014B0
:101E700070030220BE1470030221DC2403600302FD
:101E800022F97F201258967B04E4FD7F20124DD961
:101E90009007EAEFF07B047D017F20124DD9900777
:101EA000FCEFF07B047D027F20124DD99007EBEF11
:101EB000F07B047D037F20124DD99007ECEFF07B7F
:101EC000047D047F20124DD99007EDEFF07B047D57
:101ED000057F20124DD99007EEEFF07B047D0A7F3D
:101EE00020124DD99007EFEFF07B047D0C7F20127C
:101EF0004DD99007FDEFF07B047D0D7F20124DD969
:101F00009007F0EFF07B047D197F20124DD99007E8
:101F1000F1EFF07B047D1A7F20124DD99007F2EF8C
:101F2000F07B047DC07F20124DD99007F3EFF07B4A
:101F3000047DC17F20124DD99007F4EFF07B047D22
:101F4000C27F20124DD99007F5EFF07B047DE07F32
:101F500020124DD99007F6EFF07B047DE17F20122F
:101F60004DD99007F7EFF07B047DE27F20124DD929
:101F70009007F8EFF07B047DD07F20124DD99007B9
:101F8000F9EFF07B047DD17F20124DD99007FAEF55
:101F9000F07B047DD27F20124DD99007FBEFF02219
:101FA0007F211258967B04E4FD7F20124DD99008C2
:101FB00000EFF07B047D017F20124DD9900812EFD5
:101FC000F07B047D027F20124DD9900801EFF07B59
:101FD000047D037F20124DD9900802EFF07B047D31
:101FE000047F20124DD9900803EFF07B047D057F1C
:101FF00020124DD9900804EFF07B047D0A7F201257
:102000004DD9900805EFF07B047D0C7F20124DD94F
:10201000900813EFF07B047D0D7F20124DD99008BE
:1020200006EFF07B047D197F20124DD9900807EF51
:10203000F07B047D1A7F20124DD9900808EFF07BC9
:10204000047DC07F20124DD9900809EFF07B047DFC
:10205000C17F20124DD990080AEFF07B047DC27F2A
:1020600020124DD990080BEFF07B047DE07F201209
:102070004DD990080CEFF07B047DE17F20124DD903
:1020800090080DEFF07B047DE27F20124DD990087F
:102090000EEFF07B047DD07F20124DD990080FEF1A
:1020A000F07B047DD17F20124DD9900810EFF07B9A
:1020B000047DD27F20124DD9900811EFF0227F22AB
:1020C0001258967B04E4FD7F20124DD9900816EF3C
:1020D000F07B047D017F20124DD9900828EFF07B22
:1020E000047D027F20124DD9900817EFF07B047D0C
:1020F000037F20124DD9900818EFF07B047D047FF8
:1021000020124DD9900819EFF07B047D057F201235
:102110004DD990081AEFF07B047D0A7F20124DD92B
:1021200090081BEFF07B047D0C7F20124DD99008A6
:1021300029EFF07B047D0D7F20124DD990081CEF14
:10214000F07B047D197F20124DD990081DEFF07BA4
:10215000047D1A7F20124DD990081EEFF07B047D7C
:10216000C07F20124DD990081FEFF07B047DC17F06
:1021700020124DD9900820EFF07B047DC27F201201
:102180004DD9900821EFF07B047DE07F20124DD9DE
:10219000900822EFF07B047DE17F20124DD990085A
:1021A00023EFF07B047DE27F20124DD9900824EFCD
:1021B000F07B047DD07F20124DD9900825EFF07B75
:1021C000047DD17F20124DD9900826EFF07B047D4D
:1021D000D27F20124DD9900827EFF0227F2312588A
:1021E000967B04E4FD7F20124DD990082CEFF07B04
:1021F000047D017F20124DD990083EEFF07B047DD5
:10220000027F20124DD990082DEFF07B047D037FD3
:1022100020124DD990082EEFF07B047D047F201210
:102220004DD990082FEFF07B047D057F20124DD90A
:10223000900830EFF07B047D0A7F20124DD9900882
:1022400031EFF07B047D0C7F20124DD990083FEFD9
:10225000F07B047D0D7F20124DD9900832EFF07B8A
:10226000047D197F20124DD9900833EFF07B047D57
:102270001A7F20124DD9900834EFF07B047DC07F87
:1022800020124DD9900835EFF07B047DC17F2012DC
:102290004DD9900836EFF07B047DC27F20124DD9D6
:1022A000900837EFF07B047DE07F20124DD9900835
:1022B00038EFF07B047DE17F20124DD9900839EF93
:1022C000F07B047DE27F20124DD990083AEFF07B3D
:1022D000047DD07F20124DD990083BEFF07B047D28
:1022E000D17F20124DD990083CEFF07B047DD27F46
:1022F00020124DD990083DEFF02285A72E90027F45
:10230000E012181F233500236701238D0223B31029
:1023100023BA1323C182245585246886249D8724EB
:10232000D28A25759025D99125BA9225F4B0261028
:10233000D0000026519006D4E0C394015003022639
:10234000517B017A0279007535007536807F007EF9
:10235000C81250007B017A0279807534007535808F
:102360007F807EC80250D49006D4E0C3940150030D
:102370000226517B017A0279807535007536807F9F
:10238000007ECA12500078157C030225CA9006D43C
:10239000E0C3940150030226517B017A02798075D3
:1023A00035007536807F007ECC12500078997C0312
:1023B0000225CA78007C000225CA78007C0102252B
:1023C000CA9006D4E0D3940150030226519006E34C
:1023D000E094F840579002FFE06401600302265148
:1023E0009002F8E09007DEF09002F9E09007DFF04D
:1023F0009002FEE0FF9007E4F0BF01149007DEE0DA
:10240000FD7B047F1C124DD99007DFEFF0022546BB
:102410009007E4E060030225469007DEE0FDA3E0BC
:10242000FB7538047F1C1251DA0225467B017A02C3
:1024300079807535007536807F007ED41250007823
:10244000667C077D017B017A0279807E007F8012A5
:1024500017150259219006D4E0D3940150030226A7
:102460005178537C060225CA9006D4E0D3940150DB
:10247000030226517B017A0279807535007536801A
:102480007F007ED812500078D37C057D017B017AD5
:102490000279807E007F801217150256B49006D410
:1024A000E0D3940150030226517B017A02798075B2
:1024B00035007536807F007EDA12500078537C0537
:1024C0007D017B017A0279807E007F8012171502E0
:1024D00056CD9006D4E0D3940150030226519006C5
:1024E000E3E094F840669002FFE064016003022696
:1024F000519002F8E090085FF09002F9E0900860D7
:10250000F09002FEE0FF900865F0BF011B9002FA18
:10251000E0FF12589690085FE0FD7B047F20124D8B
:10252000D9900860EFF0801E900865E07018900266
:10253000FAE0FF12589690085FE0FDA3E0FB7538C3
:10254000047F201251DAE49002FFF0227B017A022C
:1025500079807535007536807F007ED61250007800
:10256000E77C077D017B017A0279807E007F801203
:1025700017150256689006D4E0D394015003022642
:102580005178F87C027D017B017A0479957E007F89
:10259000081217157B017A0279807535007536802F
:1025A0007F007ED01250007B017A04791D753400C3
:1025B0007535807F007ED00250489006D4E0D394D9
:1025C00001500302265178A37C047D017B017A022D
:1025D00079807E007F800217159006D4E0D39401A5
:1025E000406F7B017A0279807535007536807F00F7
:1025F0007ED280199006D4E0D3940140547B017AB6
:102600000279807535007536807F007EF6025000B5
:102610009006D4E0D3940140389006E3E06424703F
:10262000309006E6E064117028A3E064227022A3D3
:10263000E06433701CA3E0B45517A3E0B46612A3A2
:10264000E0B4550D780076A5E4F5A775EF12852E58
:10265000A722EF1470030227101470030227AE1490
:10266000700302284C1470030228EA240460030259
:102670002976900561E0FAA3E0FB7537057D037CC0
:10268000807F4012528F900563E0FAA3E0FB75371C
:10269000057D027C817F4012528F900565E0FAA390
:1026A000E0FB7537057D037C817F4012528F9005DA
:1026B00067E0FAA3E0FB7537057D1B7C817F401244
:1026C000528F900569E0FAA3E0FB7537057D037C26
:1026D000837F4012528F90056BE0FAA3E0FB7537C1
:1026E000057D217C837F4012528F90056DE0FAA317
:1026F000E0FB7537057D227C837F4012528F900569
:102700006FE0FAA3E0FB7537057D237C8302297116
:10271000900571E0FAA3E0FB7537057D037C907F9F
:102720004012528F900573E0FAA3E0FB7537057DE8
:10273000027C917F4012528F900575E0FAA3E0FB76
:102740007537057D037C917F4012528F900577E0AD
:10275000FAA3E0FB7537057D1B7C917F4012528FF9
:10276000900579E0FAA3E0FB7537057D037C937F44
:102770004012528F90057BE0FAA3E0FB7537057D90
:10278000217C937F4012528F90057DE0FAA3E0FBFD
:102790007537057D227C937F4012528F90057FE034
:1027A000FAA3E0FB7537057D237C93022971900520
:1027B00081E0FAA3E0FB7537057D037CA07F401222
:1027C000528F900583E0FAA3E0FB7537057D027C0C
:1027D000A17F4012528F900585E0FAA3E0FB753788
:1027E000057D037CA17F4012528F900587E0FAA3FC
:1027F000E0FB7537057D1B7CA17F4012528F900551
:1028000089E0FAA3E0FB7537057D037CA37F4012C6
:10281000528F90058BE0FAA3E0FB7537057D217C94
:10282000A37F4012528F90058DE0FAA3E0FB75372D
:10283000057D227CA37F4012528F90058FE0FAA382
:10284000E0FB7537057D237CA3022971900591E09B
:10285000FAA3E0FB7537057D037CB07F4012528FF1
:10286000900593E0FAA3E0FB7537057D027CB17F0C
:102870004012528F900595E0FAA3E0FB7537057D75
:10288000037CB17F4012528F900597E0FAA3E0FBE2
:102890007537057D1B7CB17F4012528F900599E002
:1028A000FAA3E0FB7537057D037CB37F4012528F9E
:1028B00090059BE0FAA3E0FB7537057D217CB37F93
:1028C0004012528F90059DE0FAA3E0FB7537057D1D
:1028D000227CB37F4012528F90059FE0FAA3E0FB69
:1028E0007537057D237CB3022971900553E0FAA367
:1028F000E0FB7537057D0E7CFF7F4012528F9005FF
:1029000055E0FAA3E0FB7537057D0F7CFF7F401291
:10291000528F900557E0FAA3E0FB7537057D107CD8
:10292000FF7F4012528F900559E0FAA3E0FB753704
:10293000057D117CFF7F4012528F90055BE0FAA36A
:10294000E0FB7537057D147CFF7F4012528F9005A8
:102950005DE0FAA3E0FB7537057D1E7CFF7F40122A
:10296000528F90055FE0FAA3E0FB7537057D1F7C71
:10297000FF7F4012528F22EF147003022A35147029
:1029800003022AD3147003022B71147003022C0F5C
:1029900024046003022C9B9005E1E0FAA3E0FB75A0
:1029A00037057D037C807F4212528F9005E3E0FA69
:1029B000A3E0FB7537057D027C817F4212528F9028
:1029C00005E5E0FAA3E0FB7537057D037C817F42D6
:1029D00012528F9005E7E0FAA3E0FB7537057D1BE7
:1029E0007C817F4212528F9005E9E0FAA3E0FB75EB
:1029F00037057D037C837F4212528F9005EBE0FA0E
:102A0000A3E0FB7537057D217C837F4212528F90B6
:102A100005EDE0FAA3E0FB7537057D227C837F425C
:102A200012528F9005EFE0FAA3E0FB7537057D2386
:102A30007C83022C969005F1E0FAA3E0FB75370544
:102A40007D037C907F4212528F9005F3E0FAA3E061
:102A5000FB7537057D027C917F4212528F9005F500
:102A6000E0FAA3E0FB7537057D037C917F421252AB
:102A70008F9005F7E0FAA3E0FB7537057D1B7C918D
:102A80007F4212528F9005F9E0FAA3E0FB753705FB
:102A90007D037C937F4212528F9005FBE0FAA3E006
:102AA000FB7537057D217C937F4212528F9005FD87
:102AB000E0FAA3E0FB7537057D227C937F4212523A
:102AC0008F9005FFE0FAA3E0FB7537057D237C932B
:102AD000022C96900601E0FAA3E0FB7537057D0312
:102AE0007CA07F4212528F900603E0FAA3E0FB75B0
:102AF00037057D027CA17F4212528F900605E0FAD5
:102B0000A3E0FB7537057D037CA17F4212528F90B5
:102B10000607E0FAA3E0FB7537057D1B7CA17F4229
:102B200012528F900609E0FAA3E0FB7537057D038A
:102B30007CA37F4212528F90060BE0FAA3E0FB7554
:102B400037057D217CA37F4212528F90060DE0FA5B
:102B5000A3E0FB7537057D227CA37F4212528F9044
:102B6000060FE0FAA3E0FB7537057D237CA3022C5A
:102B700096900611E0FAA3E0FB7537057D037CB063
:102B80007F4212528F900613E0FAA3E0FB753705DF
:102B90007D027CB17F4212528F900615E0FAA3E0CD
:102BA000FB7537057D037CB17F4212528F9006176B
:102BB000E0FAA3E0FB7537057D1B7CB17F42125222
:102BC0008F900619E0FAA3E0FB7537057D037CB30F
:102BD0007F4212528F90061BE0FAA3E0FB75370587
:102BE0007D217CB37F4212528F90061DE0FAA3E054
:102BF000FB7537057D227CB37F4212528F90061FF2
:102C0000E0FAA3E0FB7537057D237CB3022C969098
:102C100005D3E0FAA3E0FB7537057D0E7CFF7F420C
:102C200012528F9005D5E0FAA3E0FB7537057D0FB2
:102C30007CFF7F4212528F9005D7E0FAA3E0FB752C
:102C400037057D107CFF7F4212528F9005D9E0FA44
:102C5000A3E0FB7537057D117CFF7F4212528F90F8
:102C600005DBE0FAA3E0FB7537057D147CFF7F42AE
:102C700012528F9005DDE0FAA3E0FB7537057D1E4B
:102C80007CFF7F4212528F9005DFE0FAA3E0FB75D4
:102C900037057D1F7CFF7F4212528F22EF14700395
:102CA000022D52147003022DE8147003022E7E14BC
:102CB0007003022F1424046003022F997B057D0307
:102CC0007C807F40124A72900561EEF0A3EFF07BAA
:102CD000057D027C817F40124A72900563EEF0A36D
:102CE000EFF07B057D037C817F40124A7290056581
:102CF000EEF0A3EFF07B057D1B7C817F40124A72D2
:102D0000900567EEF0A3EFF07B057D037C837F40A9
:102D1000124A72900569EEF0A3EFF07B057D217CED
:102D2000837F40124A7290056BEEF0A3EFF07B05B3
:102D30007D227C837F40124A7290056DEEF0A3EFF6
:102D4000F07B057D237C837F40124A7290056F02E1
:102D50002F947B057D037C907F40124A7290057111
:102D6000EEF0A3EFF07B057D027C917F40124A726A
:102D7000900573EEF0A3EFF07B057D037C917F401F
:102D8000124A72900575EEF0A3EFF07B057D1B7C77
:102D9000917F40124A72900577EEF0A3EFF07B0529
:102DA0007D037C937F40124A72900579EEF0A3EF89
:102DB000F07B057D217C937F40124A7290057BEE6B
:102DC000F0A3EFF07B057D227C937F40124A729046
:102DD000057DEEF0A3EFF07B057D237C937F401211
:102DE0004A7290057F022F947B057D037CA07F4073
:102DF000124A72900581EEF0A3EFF07B057D027C14
:102E0000A17F40124A72900583EEF0A3EFF07B059C
:102E10007D037CA17F40124A72900585EEF0A3EFFE
:102E2000F07B057D1B7CA17F40124A72900587EEE6
:102E3000F0A3EFF07B057D037CA37F40124A7290E4
:102E40000589EEF0A3EFF07B057D217CA37F401286
:102E50004A7290058BEEF0A3EFF07B057D227CA3F8
:102E60007F40124A7290058DEEF0A3EFF07B057D56
:102E7000237CA37F40124A7290058F022F947B051A
:102E80007D037CB07F40124A72900591EEF0A3EF73
:102E9000F07B057D027CB17F40124A72900593EE73
:102EA000F0A3EFF07B057D037CB17F40124A729066
:102EB0000595EEF0A3EFF07B057D1B7CB17F401202
:102EC0004A72900597EEF0A3EFF07B057D037CB38B
:102ED0007F40124A72900599EEF0A3EFF07B057DDA
:102EE000217CB37F40124A7290059BEEF0A3EFF075
:102EF0007B057D227CB37F40124A7290059DEEF0E7
:102F0000A3EFF07B057D237CB37F40124A729005CE
:102F10009F022F947B057D0E7CFF7F40124A7290AA
:102F20000553EEF0A3EFF07B057D0F7CFF7F401291
:102F30004A72900555EEF0A3EFF07B057D107CFF03
:102F40007F40124A72900557EEF0A3EFF07B057DAB
:102F5000117CFF7F40124A72900559EEF0A3EFF00A
:102F60007B057D147CFF7F40124A7290055BEEF07A
:102F7000A3EFF07B057D1E7CFF7F40124A72900517
:102F80005DEEF0A3EFF07B057D1F7CFF7F40124AD2
:102F90007290055FEEF0A3EFF022EF1470030230A1
:102FA000501470030230E614700302317C14700375
:102FB000023212240460030232977B057D037C8079
:102FC0007F42124A729005E1EEF0A3EFF07B057D9F
:102FD000027C817F42124A729005E3EEF0A3EFF08B
:102FE0007B057D037C817F42124A729005E5EEF0FD
:102FF000A3EFF07B057D1B7C817F42124A72900516
:10300000E7EEF0A3EFF07B057D037C837F42124A5D
:10301000729005E9EEF0A3EFF07B057D217C837FC4
:1030200042124A729005EBEEF0A3EFF07B057D2291
:103030007C837F42124A729005EDEEF0A3EFF07BA5
:10304000057D237C837F42124A729005EF02329203
:103050007B057D037C907F42124A729005F1EEF071
:10306000A3EFF07B057D027C917F42124A729005AE
:10307000F3EEF0A3EFF07B057D037C917F42124AD3
:10308000729005F5EEF0A3EFF07B057D1B7C917F40
:1030900042124A729005F7EEF0A3EFF07B057D0334
:1030A0007C937F42124A729005F9EEF0A3EFF07B19
:1030B000057D217C937F42124A729005FBEEF0A3BE
:1030C000EFF07B057D227C937F42124A729005FDD2
:1030D000EEF0A3EFF07B057D237C937F42124A72D2
:1030E0009005FF0232927B057D037CA07F42124A4D
:1030F00072900601EEF0A3EFF07B057D027CA17FCC
:1031000042124A72900603EEF0A3EFF07B057D03B6
:103110007CA17F42124A72900605EEF0A3EFF07B8D
:10312000057D1B7CA17F42124A72900607EEF0A338
:10313000EFF07B057D037CA37F42124A7290060963
:10314000EEF0A3EFF07B057D217CA37F42124A7253
:1031500090060BEEF0A3EFF07B057D227CA37F426F
:10316000124A7290060DEEF0A3EFF07B057D237CF2
:10317000A37F42124A7290060F0232927B057D03B2
:103180007CB07F42124A72900611EEF0A3EFF07B02
:10319000057D027CB17F42124A72900613EEF0A3C5
:1031A000EFF07B057D037CB17F42124A72900615D9
:1031B000EEF0A3EFF07B057D1B7CB17F42124A72DB
:1031C000900617EEF0A3EFF07B057D037CB37F4202
:1031D000124A72900619EEF0A3EFF07B057D217C78
:1031E000B37F42124A7290061BEEF0A3EFF07B050C
:1031F0007D227CB37F42124A7290061DEEF0A3EF4F
:10320000F07B057D237CB37F42124A7290061F0239
:1032100032927B057D0E7CFF7F42124A729005D36D
:10322000EEF0A3EFF07B057D0F7CFF7F42124A7228
:103230009005D5EEF0A3EFF07B057D107CFF7F427B
:10324000124A729005D7EEF0A3EFF07B057D117C5A
:10325000FF7F42124A729005D9EEF0A3EFF07B0592
:103260007D147CFF7F42124A729005DBEEF0A3EFE3
:10327000F07B057D1E7CFF7F42124A729005DDEED9
:10328000F0A3EFF07B057D1F7CFF7F42124A729016
:1032900005DFEEF0A3EFF0227B04E4FD7F1C124D6E
:1032A000D9900766EFF07B047D017F1C124DD99009
:1032B0000767EFF07B047D177F1C124DD9900768DC
:1032C000EFF07B047D187F1C124DD9900769EFF059
:1032D0007B047D1A7F1C124DD990076AEFF07B04A6
:1032E0007D037F1C124DD9900772EFF07B047D05A2
:1032F0007F1C124DD9900774EFF07B047D107F1C6A
:10330000124DD9900775EFF07B047D167F1C124D8E
:10331000D9900776EFF07B047D197F1C124DD99070
:103320000777EFF07B047D1B7F1C124DD990077847
:10333000EFF07B047D1C7F1C124DD9900779EFF0D4
:103340007B047D1D7F1C124DD990077AEFF07B0422
:103350007D217F1C124DD990077CEFF07B047D22EC
:103360007F1C124DD990077DEFF07B047D257F1CDB
:10337000124DD990077EEFF07B047D267F1C124D05
:10338000D990077FEFF07B047D277F1C124DD990E9
:103390000780EFF07B047D287F1C124DD9900781B8
:1033A000EFF07B047D407F1C124DD9900783EFF036
:1033B0007B047D417F1C124DD9900784EFF07B0484
:1033C0007D427F1C124DD9900785EFF07B047D4331
:1033D0007F1C124DD9900786EFF07B047D447F1C43
:1033E000124DD9900787EFF07B047D457F1C124D6D
:1033F000D9900788EFF07B047D467F1C124DD99051
:103400000789EFF07B047D477F1C124DD990078A16
:10341000EFF07B047D487F1C124DD990078BEFF0B5
:103420007B047D497F1C124DD990078CEFF07B0403
:103430007D4A7F1C124DD990078DEFF07B047D4BA8
:103440007F1C124DD990078EEFF07B047D4C7F1CC2
:10345000124DD990078FEFF07B047D4D7F1C124DEC
:10346000D9900790EFF07B047D4F7F1C124DD990CF
:103470000791EFF07B047D507F1C124DD99007928D
:10348000EFF07B047D517F1C124DD9900793EFF034
:103490007B047D527F1C124DD9900794EFF07B0482
:1034A0007D5E7F1C124DD9900796EFF07B047D5F07
:1034B0007F1C124DD9900797EFF07B047D607F1C35
:1034C000124DD9900798EFF07B047D627F1C124D5E
:1034D000D9900799EFF07B047D917F1C124DD99014
:1034E000079BEFF07B047D927F1C124DD990079CC7
:1034F000EFF022E4F52EF52FF530F531EF147003DF
:1035000002359914700302361C14700302369F248E
:10351000036003023724E4FF124BED9008EEEEF057
:10352000A3EFF08E30F53190042412515A9008EE3A
:10353000EEF0A3EFF0900434E0FDA3E0FBA3E0F590
:1035400036A3E0F537AF31AE301251678E308F3190
:10355000900002E030E02AE49000AAF0A3F090008E
:103560009AF0A3F090008CE04401F090008EE044CB
:1035700001F0900090E04401F0900092E04401F0EE
:10358000229008EEE0FCA3E0FDEC9000AAF0A3ED91
:10359000F0E53090009A02371F7F20124BED900823
:1035A000F0EEF0A3EFF08E30F53190042812515A6E
:1035B0009008F0EEF0A3EFF0900438E0FDA3E0FBFC
:1035C000A3E0F536A3E0F537AF31AE301251678E88
:1035D000308F31900002E030E12AE49000ACF0A39B
:1035E000F090009CF0A3F090008CE04402F090007A
:1035F0008EE04402F0900090E04402F0900092E0EF
:103600004402F0229008F0E0FCA3E0FDEC9000AC56
:10361000F0A3EDF0E53090009C02371F7F40124B85
:10362000ED9008F2EEF0A3EFF08E30F53190042C1F
:1036300012515A9008F2EEF0A3EFF090043CE0FD36
:10364000A3E0FBA3E0F536A3E0F537AF31AE3012CF
:1036500051678E308F31900002E030E22AE4900012
:10366000AEF0A3F090009EF0A3F090008CE0440434
:10367000F090008EE04404F0900090E04404F0905C
:103680000092E04404F0229008F2E0FCA3E0FDEC9C
:103690009000AEF0A3EDF0E53090009E02371F7F62
:1036A00060124BED9008F4EEF0A3EFF08E30F531A0
:1036B00090043012515A9008F4EEF0A3EFF0900409
:1036C00040E0FDA3E0FBA3E0F536A3E0F537AF3122
:1036D000AE301251678E308F31900002E030E32A15
:1036E000E49000B0F0A3F09000A0F0A3F090008C64
:1036F000E04408F090008EE04408F0900090E04430
:1037000008F0900092E04408F0229008F4E0FCA356
:10371000E0FDEC9000B0F0A3EDF0E5309000A0F0FB
:10372000A3E531F022900772E0FB7538047D037F3A
:103730001C1251DA900774E0FB7538047D057F1C7C
:103740001251DA900775E0FB7538047D107F1C126A
:1037500051DA900776E0FB7538047D167F1C125114
:10376000DA900777E0FB7538047D197F1C1251DA77
:10377000900778E0FB7538047D1B7F1C1251DA90AE
:103780000779E0FB7538047D1C7F1C1251DA900725
:103790007AE0FB7538047D1D7F1C1251DA90077C9E
:1037A000E0FB7538047D217F1C1251DA90077DE023
:1037B000FB7538047D227F1C1251DA90077EE0FBF6
:1037C0007538047D257F1C1251DA90077FE0FB7568
:1037D00038047D267F1C1251DA900780E0FB753893
:1037E000047D277F1C1251DA900781E0FB753804B5
:1037F0007D287F1C1251DA900783E0FB7538047D29
:10380000407F1C1251DA9007E6E0700F900784E0C9
:10381000FB7538047D417F1C1251DA90078DE0FB67
:103820007538047D4A7F1C1251DA90078EE0FB75D3
:1038300038047D4B7F1C1251DA90078FE0FB7538FE
:10384000047D4C7F1C1251DA900790E0FB75380420
:103850007D4D7F1C1251DA900791E0FB7538047D95
:103860004F7F1C1251DA900792E0FB7538047D50AF
:103870007F1C1251DA900793E0FB7538047D517F6D
:103880001C1251DA900794E0FB7538047D527F1CBE
:103890001251DA900796E0FB7538047D5E7F1C12AA
:1038A00051DA900797E0FB7538047D5F7F1C125159
:1038B000DA900785E0FB7538047D427F1C1251DAEF
:1038C000900786E0FB7538047D437F1C1251DA9027
:1038D0000787E0FB7538047D447F1C1251DA90079E
:1038E00088E0FB7538047D457F1C1251DA9007890A
:1038F000E0FB7538047D467F1C1251DA90078AE0A0
:10390000FB7538047D477F1C1251DA90078BE0FB72
:103910007538047D487F1C1251DA90078CE0FB75E6
:1039200038047D497F1C1251DAE49007E6F022E466
:10393000F544F9FDFC9000AAE0FEA3E0FBEEF52EB5
:10394000EBF52FA3E0FEA3E0FBEEF530EBF531A3A2
:10395000E0FEA3E0FBEEF532EBF533A3E0FEA3E0DF
:10396000FBEEF534EBF5359003D1E0FEA3E0FBEE82
:10397000F53EEBF53FA3E0FEA3E0FBEEF540EBF5F3
:1039800041A3E0FEA3E0FBEEF542EBF543A3E0FE2E
:10399000A3E0FBEBFFE4FBEB25E0242EF8E6F58348
:1039A00008E6D3953FE583953E400D7401A80308D2
:1039B0008002C333D8FC4201EB25E0242EF8E6F563
:1039C0008308E6C39541E5839540500D7401A80333
:1039D000088002C333D8FC4244EB25E0242EF8E6ED
:1039E000F58308E6D39543E5839542400D7401A81D
:1039F00003088002C333D8FC4204EB25E0242EF8F0
:103A0000E6F58308E6C39FE5839E500D7401A80385
:103A1000088002C333D8FC42050BEB640460030248
:103A2000399790008FE0FFD394004005E97002A918
:103A300007900090E0FFD394004006E54470028FA9
:103A400044900091E0FFD394004005EC7002AC0775
:103A5000900092E0FFD394004005ED7002AD079016
:103A60000902E9F0900904E544F090090EECF090A9
:103A70000910EDF090008FE9F0A3E544F0A3ECF01D
:103A8000A3EDF090005EE0F4FF900902E05F6013A8
:103A9000C282900203E054FEF090090CE04401F071
:103AA000A3E0F090005FE0F4FF900904E05F601392
:103AB000C282900203E054FEF090090CE04402F050
:103AC000A3E0F0900060E0F4FF90090EE05F601367
:103AD000C282900203E054FEF090090CE04404F02E
:103AE000A3E0F0900061E0F4FF900910E05F601344
:103AF000C282900203E054FEF090090CE04408F00A
:103B0000A3E0F022E4F544F9FDFC90009AE0FEA366
:103B1000E0FBEEF52EEBF52FA3E0FEA3E0FBEEF5C8
:103B200030EBF531A3E0FEA3E0FBEEF532EBF5332D
:103B3000A3E0FEA3E0FBEEF534EBF5359003C9E01E
:103B4000FEA3E0FBEEF53EEBF53FA3E0FEA3E0FBBA
:103B5000EEF540EBF541A3E0FEA3E0FBEEF542EB12
:103B6000F543A3E0FEA3E0FBEBFFE4FBEB25E02441
:103B70002EF8E6F58308E6D3953FE583953E400DA4
:103B80007401A803088002C333D8FC4201EB25E08E
:103B9000242EF8E6F58308E6C39541E58395405069
:103BA0000D7401A803088002C333D8FC4244EB25FE
:103BB000E0242EF8E6F58308E6D39543E5839542A5
:103BC000400D7401A803088002C333D8FC4204EB03
:103BD00025E0242EF8E6F58308E6C39FE5839E5092
:103BE0000D7401A803088002C333D8FC42050BEB17
:103BF00064046003023B6C90008BE0FFD3940040B0
:103C000005E97002A90790008CE0FFD394004006FC
:103C1000E54470028F4490008DE0FFD3940040058E
:103C2000EC7002AC0790008EE0FFD394004005EDED
:103C30007002AD07900900E9F0900903E544F090A7
:103C40000908ECF090090FEDF090008BE9F0A3E586
:103C500044F0A3ECF0A3EDF090005AE0F4FF9009DB
:103C600000E05F6010C282900203E054FEF0900911
:103C70000DE04410F090005BE0F4FF900903E05F7A
:103C80006010C282900203E054FEF090090DE044FF
:103C900020F090005CE0F4FF900908E05F6010C243
:103CA00082900203E054FEF090090DE04440F09051
:103CB000005DE0F4FF90090FE05F6010C2829002A7
:103CC00003E054FEF090090DE04480F022E4F54456
:103CD000F9FDFC9000BAE0FEA3E0FBEEF52EEBF55B
:103CE0002FA3E0FEA3E0FBEEF530EBF531A3E0FE01
:103CF000A3E0FBEEF532EBF533A3E0FEA3E0FBEE31
:103D0000F534EBF5359003D9E0FEA3E0FBEEF53E8C
:103D1000EBF53FA3E0FEA3E0FBEEF540EBF541A39E
:103D2000E0FEA3E0FBEEF542EBF543A3E0FEA3E0EB
:103D3000FBEBFFE4FBEB25E0242EF8E6F58308E639
:103D4000D3953FE583953E400D7401A8030880029A
:103D5000C333D8FC4244EB25E0242EF8E6F5830873
:103D6000E6C39541E5839540500D7401A803088092
:103D700002C333D8FC4201EB25E0242EF8E6F5839C
:103D800008E6D39543E5839542400D7401A80308E6
:103D90008002C333D8FC4205EB25E0242EF8E6F57B
:103DA0008308E6C39FE5839E500D7401A803088035
:103DB00002C333D8FC42040BEB64046003023D35BC
:103DC000900095E0FFD394004006E54470028F44D4
:103DD000900096E0FFD394004005E97002A9079097
:103DE0000097E0FFD394004005ED7002AD0790000E
:103DF00098E0FFD394004005EC7002AC079008FFF8
:103E0000E544F0900901E9F0900907EDF090090B05
:103E1000ECF0900095E544F0A3E9F0A3EDF0A3ECFD
:103E2000F0900064E0F455446010C282900203E018
:103E300054FEF090090AE04404F0900065E0F4FFBD
:103E4000900901E05F6010C282900203E054FEF02E
:103E500090090AE04408F0900066E0F4FF9009073A
:103E6000E05F6010C282900203E054FEF090090A05
:103E7000E04410F0900067E0F4FF90090BE05F6011
:103E800010C282900203E054FEF090090AE0442040
:103E9000F022EF24FAB413004003024012903EAB2C
:103EA00075F003A4C58325F0C58373023EE4023E8A
:103EB000EC023EF4023EFF023F0A023F12023F299B
:103EC000023F31023F4C023F54023F6A023F7202FE
:103ED0003F88023F90023F9E023FAC023FC6023F36
:103EE000E0023FFAE4900086F0024012E49000877E
:103EF000F0024012E4900088F090090D023FA6E421
:103F0000900089F090090D023FC0E490008AF00211
:103F1000401290008BE0FF900900E0F4FEEF5E900D
:103F2000008BF090090D023FF4E490008CF0024009
:103F30001290008DE0FF900908E0F4FEEF5E900023
:103F40008DF090090DE054BFF0024012E490008E15
:103F5000F002401290008FE0FF900902E0F4FEEFC3
:103F60005E90008FF090090C802EE4900090F0029B
:103F70004012900091E0FF90090EE0F4FEEF5E9099
:103F80000091F090090C8038E4900092F002401209
:103F9000E4900093F090090AE054FEF08074E490FD
:103FA0000094F090090AE054FDF08066900095E0DE
:103FB000FF9008FFE0F4FEEF5E900095F090090A94
:103FC000E054FBF0804C900096E0FF900901E0F493
:103FD000FEEF5E900096F090090AE054F7F0803210
:103FE000900097E0FF900907E0F4FEEF5E900097E5
:103FF000F090090AE054EFF08018900098E0FF90EC
:10400000090BE0F4FEEF5E900098F090090AE0548E
:10401000DFF090090CE07002A3E07013900909E052
:104020007002A3E07009900203E04401F0D2822202
:10403000EF1460671470030240F1147003024145ED
:104040002403600302419F7F0312553890044412F9
:104050005158AC06AD07D3ED9400EC94F04003E466
:10406000FCFDD3900455E09D900454E09C4005E491
:104070009008E7F0D3900457E09D900456E09C50E0
:10408000069008E77401F09008E7E0B4010690009C
:10409000BA024191E49000BA02419B7F0212553866
:1040A000AC0690044812515AAC06AD07D3ED94000B
:1040B000EC94F04003E4FCFDD3900459E09D90049F
:1040C00058E09C4005E49008E8F0D390045BE09D44
:1040D00090045AE09C50069008E87401F09008E8BB
:1040E000E0B401069000BC024191E49000BC0241A2
:1040F0009B7F01125538AC0690044C12515AAC0605
:10410000AD07D3ED9400EC94F04003E4FCFDD390B4
:10411000045DE09D90045CE09C4005E49008E9F0BB
:10412000D390045FE09D90045EE09C50069008E907
:104130007401F09008E9E0B401059000BE8052E4FB
:104140009000BE8056E4FF125538AC069004501221
:10415000515AAC06AD07D3ED9400EC94F04003E463
:10416000FCFDD3900461E09D900460E09C4005E478
:104170009008EAF0D3900463E09D900462E09C50C4
:10418000069008EA7401F09008EAE0B40109900092
:10419000C0ECF0A3EDF022E49000C0F0A304F02204
:1041A00090027FE012181F41C68241E48541FF86DC
:1041B000421C8742398A42569042959142779242F8
:1041C000B0B0000042EE9006D4E0C3940150030268
:1041D00042EE124F6D78807C027D017B017A077977
:1041E0006602428C9006D4E0D3940150030242EE62
:1041F00078807C027D017B017A06795302428C90A3
:1042000006D4E0C3940150030242EE125682788035
:104210007C027D017B017A0579D380709006D4E021
:10422000C3940150030242EE12569B78807C027DBB
:10423000017B017A05795380539006D4E0C3940141
:1042400050030242EE1256FE78807C027D017B0113
:104250007A0779E780369006D4E0D3940140349011
:1042600004977401F0A37404F078807C027D017BD4
:10427000017A04791D80159006D4E0D3940140138F
:1042800078807C027D017B017A0479A37E007F80A7
:10429000021715804A9006D4E0D3940140507B0168
:1042A0007A0279807534007535807F007ED2802C4B
:1042B0009006D4E0D39401402678807C027D017B77
:1042C000017A0679D77E007F091217157B017A02E1
:1042D00079897534007535777F097EF60250487EFE
:1042E000007F807DFF7B017A02798012184522E5EC
:1042F0001224FE601C24FE604C24FE606E24B1700B
:10430000030243C22455600302441D125373024446
:104310001DE50DB4010C90021AE030E60302441DC5
:104320008014900912E07008751204AF12FE800D1F
:1043300030860302441D751204AF127E0012581518
:10434000C28202441D751206AF127E00125815C2B9
:1043500082E4900912F0A3F0900000E0B4FF06752B
:10436000140102441DE4F51402441DE51470061204
:104370004C5602441D90000FE0540F700BE4900067
:10438000CEF0A3F0A3F0A3F0900000E0600302449D
:104390001D90000FF0E508B4010DC282E4F514127F
:1043A0004C56E4F5088076751255750F01E4FF123E
:1043B0004C5DC2829000CE7411F0A3F0A3F0A3F084
:1043C000805BE50D701530865412580FC2827FFF56
:1043D000124C5D9009127401F08042900000E0F4EC
:1043E0007024900913E070057FFF124C5D90091353
:1043F0007401F090021AE030E60C751202AF127EE2
:1044000000125815C282900000E07011900913E06C
:10441000B4010AE4FF124C5DE4900913F0E5126464
:104420000660061254A2124E7FE50F6003124F1F62
:10443000025783E4FD90020EE0FEA3E0FBEEF52EB2
:10444000EBF52F900399E0FEA3E0FBEEF530EBF5E2
:1044500031A3E0FEA3E0FBEEF532EBF533A3E0FE83
:10446000A3E0FBEEF534EBF535A3E0FEA3E0FBEEB5
:10447000F536EBF537900210E0FEA3E0FBEEF538E1
:10448000EBF5399003A1E0FEA3E0FBEEF53AEBF586
:104490003BA3E0FEA3E0FBEEF53CEBF53DA3E0FE25
:1044A000A3E0FBEEF53EEBF53FA3E0FEA3E0FBEB64
:1044B000FF900220E0FCC3E52F9537E5366480F8D5
:1044C000E52E64809850027D08D3E52F9535E534BC
:1044D0006480F8E52E6480984003430504C3E52F0B
:1044E0009533E5326480F8E52E64809850034305E7
:1044F00002D3E52F9531E5306480F8E52E6480988D
:104500004003430501C3E5399FE5389E5003430549
:1045100080D3E539953FE538953E4003430540C3D8
:10452000E539953DE538953C5003430520D3E53901
:10453000953BE538953A4003430510900209E0FFAA
:10454000D394004005ED7002AD079008FEEDF090A9
:104550000209F0ECF45D6010C282900203E054FEA8
:10456000F090090AE04440F0227F1F12589690080C
:1045700042E0FB7538047DF87F201251DA90084341
:10458000E0FB7538047DF07F201251DA900844E09A
:10459000FB7538047D3A7F201251DA900845E0FB24
:1045A0007538047D3B7F201251DA900846E0FB7598
:1045B00038047DF17F201251DA900847E0FB75380E
:1045C000047D427F201251DA900848E0FB753804E0
:1045D0007D437F201251DA900849E0FB7538047D55
:1045E000F47F201251DA90084BE0FB7538047D57B8
:1045F0007F201251DA90084AE0FB7538047D567F1F
:10460000201251DA900855E0FB7538047D177F20A1
:104610001251DA90084CE0FB7538047DC57F2012FA
:1046200051DA90084DE0FB7538047DC67F201251A9
:10463000DA90084EE0FB7538047DC77F201251DA0E
:1046400090084FE0FB7538047DD57F201251DA9039
:104650000850E0FB7538047DD67F201251DA9008AF
:1046600051E0FB7538047DD77F201251DA90085253
:10467000E0FB7538047DE57F201251DA900853E0A5
:10468000FB7538047DE67F201251DA900854E0FB78
:104690007538047DE77F200251DAE490086AF0A3C0
:1046A000F0A3F0A37405F0EF90086760057442F082
:1046B00080037440F0900867E0FF7537057B017A4E
:1046C000007D127CFF12528F900867E0FF7B057D12
:1046D000107CFF124A72900868EEF0A3EFF020E120
:1046E0007090086CE0FEA3E0FF90086AE06E700333
:1046F000A3E06F7044900867E0FF7B057D177CFFA7
:10470000124A72900868EEF0FCA3EFF0FD90086783
:10471000E0FFEC4401FAAB057537057D177CFF120D
:10472000528F900867E0FFA3E054FEFAA3E0FB7508
:1047300037057D177CFF12528F90086BE004F070F4
:104740000690086AE004F07F0A7E0012559C02463B
:10475000C8900867E0FF7537057B017A007D0E7C05
:10476000FF12528FE490086AF0A3F0900867E0FF10
:104770007B057D107CFF124A72900868EEF0A3EF73
:10478000F0EE54C0FEE47003EE64C0602B90086C41
:10479000E0FEA3E0FF90086AE06E7003A3E06F60A4
:1047A0001790086BE004F0700690086AE004F07F50
:1047B0000A7E0012559C80B3227E007F807D007BA4
:1047C000017A0079001218457E007F807D007B0110
:1047D0007A0079801218459000117411F0A3F0A3AB
:1047E000F0A3F0E4A3F0A3F0A3F0A3F0A3F09000F3
:1047F00011E09000CEF0900012E09000CFF0900019
:1048000013E09000D0F0900014E09000D1F0900000
:1048100015E09000D2F0900016E09000D3F09000E8
:1048200017E09000D4F0900018E09000D5F09000D0
:104830002074FFF09000DDF0900021F09000DEF099
:104840009000807411F0A3F0A3F0A3F0E4900000B6
:10485000F0A3F0A3F090001CF0A3F0A3F0A3F0905D
:1048600000F07411F0A37422F0A37433F0A3744425
:10487000F0A37455F0A37466F0A37477F0A3748862
:10488000F0A37411F0A37422F0A37433F0A3744462
:10489000F0A37455F0A37466F0A37477F0A3748842
:1048A000F02290065AE064017078A3E06401703150
:1048B000900659E07015900653E0FCA3E0FDA3E0DC
:1048C000FAA3E0FB7537057F42802F900659E0641C
:1048D00001704A900653E0FCA3E0FD7B057F428017
:1048E00031900659E07018900653E0FCA3E0FDA358
:1048F000E0FAA3E0FB7537057F4012528F801E90CF
:104900000659E0B40117900653E0FCA3E0FD7B05D7
:104910007F40124A72900657EEF0A3EFF0E4900643
:104920005AF090065AE0B4AA0812576DE490065A5D
:10493000F090065AE0B4BB0FE4FF12469A7F0112D2
:10494000469AE490065AF0228F358D368B37E490E4
:104950000867F0A3F0A3F0A3F0AF371258ACAF375D
:10496000125748AD37AF35125116AF371253E2AD7B
:1049700037AF36125116AF371253E2AD377F0112FF
:10498000583512563DAF371258ACAF37125748E57D
:104990003504FFAD37125116AF371253E2AF37125D
:1049A0004FB7900867EFF0AF37125757AF37124F36
:1049B000B7A3EFF0AF3712557C900867E075F010A1
:1049C000A4FFA3E07C002FFEEC35F0A3F0A3CEF013
:1049D000AF371255BBAF371258AC900869E0FEA351
:1049E000E0FF2212003A787FE4F6D8FD7581440298
:1049F0004A2D025218E493A3F8E493A34003F680EF
:104A000001F208DFF48029E493A3F85407240CC8CA
:104A1000C333C4540F4420C8834004F45680014675
:104A2000F6DFE4800B01020408102040809009F2B8
:104A3000E47E019360BCA3FF543F30E509541FFEA0
:104A4000E493A360010ECF54C025E060A840B8E411
:104A500093A3FAE493A3F8E493A3C8C582C8CAC594
:104A600083CAF0A3C8C582C8CAC583CADFE9DEE726
:104A700080BE8F2E8B2F8D318C30AF2F1258ACAF64
:104A80002F125748AD2FAF2E125116AF2F1253E2EF
:104A9000AD2FAF30125116AF2F1253E2AD2FAF3101
:104AA000125116AF2F1253E2AD2F7F01125835125B
:104AB000563DAF2F1258ACAF2F125748E52E04FFCA
:104AC000AD2F125116AF2F1253E2AF2F124FB7A9CD
:104AD00007AF2F125757AF2F124FB7AB07AF2F1299
:104AE000557CE9FE7C00E42BF582EC3EF583AF2F8C
:104AF0001255BBAF2F1258ACAE83AF82227B017A26
:104B00000779667534007535807F007ED412504871
:104B10007B017A0779E77534007535807F007ED692
:104B20001250487B017A0879677534007535807FAB
:104B3000007ED812504878D37C057D017B017A082D
:104B400079677E007F801217157B017A0879677577
:104B500034007535807F007EDA12504878537C052A
:104B60007D017B017A0879677E007F801217157BB3
:104B7000017A04791D7534007535807F007ED0027E
:104B800050489006E0E0640170629006D6E024FB95
:104B9000601524FE604E2406704D9006E6E09002FB
:104BA0007FF01241A08040E4FFFE9006E4E0FDC3E8
:104BB000EF9DEE9400502874E62FF58274063EF5C2
:104BC00083E0FD9006E3E02FFBE43EFA74002BF552
:104BD0008274023AF583EDF00FBF00010E80CB1214
:104BE0004D7F80031222FAE49006E0F0228F32E437
:104BF000FE7538047B107D607F1C1251DA75380415
:104C0000AB327D917F1C1251DA7538047B087D929E
:104C10007F1C1251DA7F017E0012559C7B047D6857
:104C20007F1C1249488E338F347538047B047D9283
:104C30007F1C1251DA7F017E0012559C7B047D6837
:104C40007F1C124948C3EF9534FFEE9533FE7C007C
:104C50007D1412176622751255750F01FFAD07ED11
:104C600090078430E006E04401F08004E054FEF058
:104C7000ED90078430E106E04402F08004E054FD4A
:104C8000F0ED90078430E206E04404F08004E05444
:104C9000FBF0ED90078430E306E04408F08004E088
:104CA00054F7F07538047B7F7D1D7F1C1251DA901C
:104CB0000784E0FB7538047D417F1C0251DAAB05A7
:104CC000A907E4F532F531F530F52F85A72EF5A7C4
:104CD000FAEAC39B503789BBE4FFFE0FBF00010E09
:104CE000EF640A4E70F5D2EC30EDFDAFBDAEBEE420
:104CF000FCFDE5322FF532E5313EF531ED3530F58D
:104D000030EC352FF52FC2ECC2ED0A80C4E4FAF97D
:104D1000F8AF32AE31AD30AC2F125090852EA722B5
:104D20007B017A0579437534007535107F007ED29A
:104D30001250487B017A0579337534007535107F40
:104D4000107ED21250487B017A04799F7534007529
:104D500035047F307ED21250487B017A037900758A
:104D600034007535107F207ED21250487B017A05C1
:104D700079237534007535107F407ED202504890FB
:104D8000049FE0FF90027AE0FE6F702B9004A0E099
:104D9000FF90027BE0B5071F9004A1E0FF90027C2A
:104DA000E0B507139004A2E0FF90027DE0B507078D
:104DB0009006D47401F022EEB43A1890027BE0B46D
:104DC0001811A3E0B4B60CA3E0B46F079006D47436
:104DD00002F022E49006D4F0228F2F8D308B311216
:104DE0005741AD31AF2F125116AF311253E2AD31F1
:104DF000AF30125116AF311253E2AD317F0112586C
:104E00003512563D125741E52F04FFAD31125116B0
:104E1000AF311253E2AF31124FB7A907AF3112557C
:104E20007CAF311255BBAF311258ACAF0122E490C8
:104E30000397F0A3F0F52EF52FAF2FAE2E1256E606
:104E40007E00900398E02FF0900397E03EF0052F4E
:104E5000E52F7002052EC3E52E94C840DC90039721
:104E6000E0FFA3E0900495CFF0A3EFF07B017A047C
:104E7000791D7535007536807F007ED0025000ACFC
:104E800006900421E0FDA3E0FBA3E0F5823395E06A
:104E9000F5328582331252CAAC06AD07ECFF33956A
:104EA000E090020EEFF0AF05A3EFF090020EE0FBF2
:104EB000FF3395E0FEEF2428FFE43EFE7C007D02F8
:104EC0001217789008EBEFF0D3EB648094C022EFD8
:104ED00014601714602814602E14603524FD603BA4
:104EE0002407703A1254A2024E7FE4FF1240307F32
:104EF000011240307F021240307F03024030E4FF55
:104F00001234F37F0180077F021234F37F030234EF
:104F1000F3900914E0B4010602588A12540E22D309
:104F2000E50A94C8E5099400403A90046DE0B401A4
:104F3000051258F28029AF0B124ECF050BE50BC3BB
:104F40009407401BE4F50B900914E07012900911CE
:104F5000E004F0E0D3940240069009147401F0E4F8
:104F6000F509F50A050AE50A7002050922123298C8
:104F70007B047D047F1C124DD9900773EFF07B04F6
:104F80007D1E7F1C124DD990077BEFF07B047D299D
:104F90007F1C124DD9900782EFF07B047D5A7F1C55
:104FA000124DD9900795EFF07B047D647F1C124D64
:104FB000D990079AEFF022AC07E4FBFF12563512A6
:104FC000563D12563D7A07125630BC0406A2B392E3
:104FD000018007BC0504A2929201A201E433FFA85C
:104FE00002088002C333D8FC4203AD04E4FF125828
:104FF0003512563D1AC3EA6480948050CAAF03222A
:105000008E308F318B328A338934E4F537F5387D31
:10501000551253A8E4F537F538C3E5389536E5372A
:1050200095355023E5312538FFE5303537FEAB3275
:105030000534E534AA33700205331252540538E5BD
:105040003870D6053780D2228E2F8F308B318A323E
:105050008933E4F536F537F536F537C3E537953559
:10506000E53695345029E5302537FFE52F3536FEF6
:105070001256E6AB310533E533AA3270020532141D
:10508000F9EF1217540537E53770D0053680CC227A
:10509000C2D5E830E70FB2D5E4C39BFBE49AFAE44B
:1050A00099F9E498F8EC30E717B2D51250C6121906
:1050B00002E4C39BFBE49AFAE499F9E498F88003CC
:1050C00012190230D50DE4C39FFFE49EFEE49DFD5E
:1050D000E49CFC228E2F8F308B318A328933E4F5A9
:1050E00036F537F536F537C3E5379535E53695347A
:1050F0005023E5302537FFE52F3536FEAB3105333C
:10510000E533AA32700205321252540537E5377082
:10511000D6053680D222AC05AB07A903E4FF1256B0
:105120003712563D12563D7A07EBA802088002C39B
:1051300013D8FC5401F9AD0460047F018002E4FF40
:1051400012572F125633E4FF12583512563D1AC328
:10515000EA6480948050D222AC06E0FDA3E0FBA379
:10516000E0F536A3E0F5378D348B35AB07AA06E4BE
:10517000F9F8AF34FCFDFE1217AE8F3B8E3A8D3935
:105180008C38A935A80112180B8F3B8E3A8D398CBB
:1051900038E5372FFFE5363EFE227E007F807D001A
:1051A0007B017A01790012184590010074FFF0E448
:1051B000A3F0A3F0A37488F0A374FFF0A3740FF01E
:1051C000A374FFF0A3740FF0E4A3F0A3F0A3F0A383
:1051D000F0A3F0A3F0A3F0A3F0228D368B37AC0739
:1051E000AF381258ACAF38125748AF04AD3812512F
:1051F00016AF381253E2AD38AF36125116AF38122F
:1052000053E2AD38AF37125116AF381253E2AF3810
:105210001255BBAF380258AC85A72CE4F52D12000F
:105220000312555B1255DA1254F01254CA12372584
:1052300012004612566875A8801255F7E490046D66
:10524000F07F011257E91242EF1257C312540E12A7
:105250004B8280F214F912173BFD7B55ACA7A2AF2D
:105260009201E4F5A7C2AF75FF8075EF028F828EC1
:1052700083BB550975B7A575B7F1438F0175FF80DD
:1052800075EF02EDF0538FFEA20192AF8CA722A919
:10529000078D398C388B3B8A3AAF371258ACAF3711
:1052A000125748AF011253DBAF381253DBAF39123C
:1052B00053DBAD37AF3A1253DDAD37AF3B1253DDA1
:1052C000AF371255BBAF370258AC8D308B31AB07BF
:1052D000AA06EA3395E0F9F8AF30E4FCFDFE1217B8
:1052E000AE8F378E368D358C34A931A80112180B4C
:1052F0008F378E368D358C34E533FEE42537FFEE5F
:105300003536FE227B017A0279007534017535004D
:105310007F007EC81250487B017A037915753400EE
:105320007535807F007ECA1250487B017A037999D7
:105330007534007535807F007ECC0250489002099C
:10534000E0FF9008FEE0F4FEEF5E900209F09009A5
:105350000AE054BFF090090CE07002A3E0701390D3
:105360000909E07002A3E07009900203E04401F033
:10537000D282227FFF124C5DD28490046AE0B40195
:105380001330840B750D0190008674FFF08008E4E3
:10539000F50D8003750D0290021A7440F0E4900040
:1053A00000F012580FC28222ACA7A2AF9201C2AF86
:1053B000E4F5A775FF8075EF028F828E83BD5509D6
:1053C00075B7A575B7F1438F0375FF8075EF02E4DC
:1053D000F0538FFCA20192AF8CA722AD3712511669
:1053E000AF37AC07125630AF04125847EF600CE4E9
:1053F000FF12583512563DE4FF800CAD04E4FF1255
:10540000583512563D7F0112572F12563D227F13F9
:105410001256149004F4EEF0A3EFF07F0C12561421
:105420009004EEEEF0A3EFF07F0D1256149004EC12
:10543000EEF0A3EFF01254A29004F6EEF0A3EFF01A
:10544000227E007F547D007B017A0279001218458C
:10545000900280E0900200F0A37440F0E4A3F0A377
:10546000F090021A7450F090032E74F0F0A3747749
:10547000F022E4FF1258967B04E4FD7F20124DD900
:105480009007E7EFF07B047D017F20124DD9900754
:10549000E8EFF07B047D037F20124DD99007E9EF00
:1054A000F0227D047F14124CBEC3EF951BFFEE95D6
:1054B0001AFE3395E0FDFCE4FB7A01F9F81217AE11
:1054C000E47B13FAF9F8125090227538047BAA7D18
:1054D000027F1C1251DA7F0A7E0012559C75380437
:1054E000E4FB7D027F1C1251DA7F0A7E0002559C8C
:1054F00090FFD5E493FE90FFD4E493FDEEFCE4121C
:10550000158B7BD77AA37930783F1214801215C49B
:105510008E1A8F1B22E4900208F090090CE07002B2
:10552000A3E07013900909E07002A3E070099002F3
:1055300003E04401F0D28222EFC43354609007E9C3
:10554000F0E4FF1258969007E9E0FB7538047D03FC
:105550007F201251DA7F0B12561422125304124A82
:10556000FD1254411247B912519A124D207E007F0C
:10557000807D007B017A0479A3021845AC0712569E
:105580003D12572B12563D7F01125637E4FF125839
:105590003512563DE4FF12572F02563DAD07AC06BB
:1055A000E4FBFAC3EB9DEC6480F8EA648098500A4F
:1055B00012586A0BBB00010A80E922AC07AD04E473
:1055C000FF12572F7F0212564CAD047F011258353F
:1055D0000F12564C12572B02563DC281C2B07F3279
:1055E0007E0012559CD2817F057E0012559CD2B060
:1055F0007F057E0002559C12576DE4FF12469A7F8C
:105600000112469A7F01120076E4FF1200761256CC
:105610008202569B7D04124CBEAD07AC06E4121507
:105620008B7B487AE179BA783F1214801215C42234
:1056300012563D7F01AD0412583512563DE4FFFE6F
:105640000FBF00010EEF64024E70F522AD07E4FBC0
:10565000FAEDFFC3EB9F7480F86A98500A12563D2A
:105660000BBB00010A80EA221257AFE4FF120F5F62
:105670007F01120F5F7F02120F5F7F03120F5F0225
:1056800045697F04122F9AE4FF122F9A7F01122F8F
:105690009A7F02122F9A7F03022F9A7F04122C9C6A
:1056A000E4FF122C9C7F01122C9C7F02122C9C7F09
:1056B00003022C9C7F04122977E4FF1229777F01D3
:1056C0001229777F021229777F030229777F04123C
:1056D0002652E4FF1226527F011226527F02122622
:1056E000527F03022652ADA7A2AF9201C2AFE4F5EA
:1056F000A78F828E8393FFA20192AF8DA7221254AF
:1057000072E4FF121E687F01121E687F02121E687B
:105710007F03021E68BD0408EF24FF92B492B322F7
:10572000BD0507EF24FF9293929222AD047F01BD45
:105730000406EF24FF92B322BD0505EF24FF9292E9
:1057400022AF311258ACAF31AD0712563DE4FF1213
:10575000572F7F0202564CAC07AD04E4FF12572FBF
:105760000F125637E4FF1258350F02572FC285C269
:10577000907F0F7E0012559CD285D2907F0F7E00C5
:1057800002559C90021AE0FF6513600AEF30E306B1
:10579000E4F5A775EF128F132275B28075BB1475EF
:1057A000DF1F75BC1875B90453E8F943E88522E496
:1057B000FF1258969007E9E0FB7538047D037F20BF
:1057C0000251DA1248A2900492E0B4AA0812591EBB
:1057D000E4900492F022AFA7E4F5A720860543C128
:1057E00080800353C17F8FA722AEA7E4F5A7EF60A7
:1057F0000543C180800353C17F8EA722C0E0C0D083
:1058000075D000C0071257D6D007D0D0D0E032757F
:105810001202AF12FE900203EFF0900208E0440182
:10582000F022AF885388AF758CF1EF5440FEEF54EF
:10583000104E428822BD0406EF24FF92B422BD051B
:1058400005EF24FF929322BF0404A2B38005BF0595
:1058500005A292E433FEAF0622E4F5A9E5A930E7FC
:10586000FB75A903E5A930E7FB22E4FFFE000FBFAB
:1058700000010EBE17F7BF70F422E5915404539156
:10588000FB7593157592A0429122124433123CCDC0
:1058900012392F023B04AB077538047DFF7F2002CD
:1058A00051DA53C17F43C18053917F32AD077F01ED
:1058B00012571502564CE4F5A77597DE7597AD2281
:1058C00075A42275F1F675D4FF2275A50375F21F34
:1058D00075D5FF2275A72075F30375CC0C22E4F56E
:1058E000A775E34075E1042275E68175A71075EE92
:1058F00001221254A2124E7F02540E759C0375F4BD
:105900009F2275A71075C12022E4F5A775EF062226
:10591000758E017589022275D7A043C11C22024EE3
:105920002E023725FFFFFFFFFFFFFFFFFFFFFFFFF7
:10593000FFFFFFFFFFFFFFFFFFFFFFFFFFFFFFFF77
:10594000FFFFFFFFFFFFFFFFFFFFFFFFFFFFFFFF67
:10595000FFFFFFFFFFFFFFFFFFFFFFFFFFFFFFFF57
:10596000FFFFFFFFFFFFFFFFFFFFFFFFFFFFFFFF47
:10C800001E0000000000000000000000000000000A
:10C810000000000000000000000000000000000018
:10C820000000000000000000000000000000000008
:10C8300000000000000000000000000000000000F8
:10C8400000000000000000000000000000000000E8
:10C8500000000000000000000000000000000000D8
:10C860000000FF00000000000000000000000000C9
:10C8700000000000000000FFFFFFFFFFFFFFFF00C0
:10C880001E8C23000000004000020205FF00000093
:10C89000000000004C555853484152452D4943541F
:10C8A000202020201F3C18A00000000000000000F5
:10C8B0000000000000000000000000000000000078
:10C8C0004100000000000000000000000000000027
:10C8D0000000000000000000000000000000000058
:10C8E000FFFFFFFFFFFFFFFFFFFFFFFFFFFFFFFF58
:10C8F000FFFFFFFFFFFFFFFFFFFFFFFFFFFFFFFF48
:10C90000FFFFFFFFFFFFFFFFFFFFFFFFFFFFFFFF37
:10CE000080000000000000000000000000000000A2
:10CE10000000000000000000000000000000000012
:10CE20000000000000000000000000000000000002
:10CE300000000000000000000000000000000000F2
:10CE400000000000000000000000000000000000E2
:10CE500000000000000000000000000000000000D2
:10CE600000000000000000000000666600002222B2
:10CE700000000000000000000000000000000000B2
:10CE8000FFFFFFFFFFFFFFFFFFFFFFFFFFFFFFFFB2
:10CE9000FFFFFFFFFFFFFFFFFFFFFFFFFFFFFFFFA2
:10CEA000FFFFFFFFFFFFFFFFFFFFFFFFFFFFFFFF92
:10CEB000FFFFFFFFFFFFFFFFFFFFFFFFFFFFFFFF82
:10CEC000FFFFFFFFFFFFFFFFFFFFFFFFFFFFFFFF72
:10CED000FFFFFFFFFFFFFFFFFFFFFFFFFFFFFFFF62
:10CEE000FFFFFFFFFFFFFFFFFFFFFFFFFFFFFFFF52
:10CEF000FFFFFFFFFFFFFFFFFFFFFFFFFFFFFFFF42
:10CF0000FFFFFFFFFFFFFFFFFFFFFFFFFFFFFFFF31
:10CF1000FFFFFFFFFFFFFFFFFFFFFFFFFFFFFFFF21
:10CF2000FFFFFFFFFFFFFFFFFFFFFFFFFFFFFFFF11
:10CF3000FFFFFFFFFFFFFFFFFFFFFFFFFFFFFFFF01
:10CF4000FFFFFFFFFFFFFFFFFFFFFFFFFFFFFFFFF1
:10CF5000FFFFFFFFFFFFFFFFFFFFFFFFFFFFFFFFE1
:10CF6000FFFFFFFFFFFFFFFFFFFFFFFFFFFFFFFFD1
:10CF7000FFFFFFFFFFFFFFFFFFFFFFFFFFFFFFFFC1
:10CF8000FFFFFFFFFFFFFFFFFFFFFFFFFFFFFFFFB1
:10CF9000FFFFFFFFFFFFFFFFFFFFFFFFFFFFFFFFA1
:10CFA000FFFFFFFFFFFFFFFFFFFFFFFFFFFFFFFF91
:10CFB000FFFFFFFFFFFFFFFFFFFFFFFFFFFFFFFF81
:10CFC000FFFFFFFFFFFFFFFFFFFFFFFFFFFFFFFF71
:10CFD000FFFFFFFFFFFFFFFFFFFFFFFFFFFFFFFF61
:10CFE000FFFFFFFFFFFFFFFFFFFFFFFFFFFFFFFF51
:10CFF000FFFFFFFFFFFFFFFFFFFFFFFFFFFFFFFF41
:10D00000010000000100000100000001000000011B
:10D01000000000010000000100000001000000010C
:10D0200000000001000000010000000100000001FC
:10D0300000000001000000008001000080010000ED
:10D040008001000080010046000100000000000097
:10D0500000000000000000000000000000000000D0
:10D0600000000000000000000000000000000000C0
:10D0700000000000000000000000000000000000B0
:10D08000FFFFFFFFFFFFFFFFFFFFFFFFFFFFFFFFB0
:10D09000FFFFFFFFFFFFFFFFFFFFFFFFFFFFFFFFA0
:10D0A000FFFFFFFFFFFFFFFFFFFFFFFFFFFFFFFF90
:10D0B000FFFFFFFFFFFFFFFFFFFFFFFFFFFFFFFF80
:10D0C000FFFFFFFFFFFFFFFFFFFFFFFFFFFFFFFF70
:10D0D000FFFFFFFFFFFFFFFFFFFFFFFFFFFFFFFF60
:10D0E000FFFFFFFFFFFFFFFFFFFFFFFFFFFFFFFF50
:10D0F000FFFFFFFFFFFFFFFFFFFFFFFFFFFFFFFF40
:10D10000FFFFFFFFFFFFFFFFFFFFFFFFFFFFFFFF2F
:10D11000FFFFFFFFFFFFFFFFFFFFFFFFFFFFFFFF1F
:10D12000FFFFFFFFFFFFFFFFFFFFFFFFFFFFFFFF0F
:10D13000FFFFFFFFFFFFFFFFFFFFFFFFFFFFFFFFFF
:10D14000FFFFFFFFFFFFFFFFFFFFFFFFFFFFFFFFEF
:10D15000FFFFFFFFFFFFFFFFFFFFFFFFFFFFFFFFDF
:10D16000FFFFFFFFFFFFFFFFFFFFFFFFFFFFFFFFCF
:10D17000FFFFFFFFFFFFFFFFFFFFFFFFFFFFFFFFBF
:10D18000FFFFFFFFFFFFFFFFFFFFFFFFFFFFFFFFAF
:10D19000FFFFFFFFFFFFFFFFFFFFFFFFFFFFFFFF9F
:10D1A000FFFFFFFFFFFFFFFFFFFFFFFFFFFFFFFF8F
:10D1B000FFFFFFFFFFFFFFFFFFFFFFFFFFFFFFFF7F
:10D1C000FFFFFFFFFFFFFFFFFFFFFFFFFFFFFFFF6F
:10D1D000FFFFFFFFFFFFFFFFFFFFFFFFFFFFFFFF5F
:10D1E000FFFFFFFFFFFFFFFFFFFFFFFFFFFFFFFF4F
:10D1F000FFFFFFFFFFFFFFFFFFFFFFFFFFFFFFFF3F
:10D2000000000102030406080A0B0E0000000000E3
:10D2100002030507090B0D0F0000000000000000CD
:10D22000001E323C00000000000000000000000072
:10D230009378CCAE00000000000000000000000069
:10D2400000000000000000000000000000000000DE
:10D2500000000000000000000000000000000000CE
:10D2600000000000000000000000000000000000BE
:10D2700000000000000000000000000000000000AE
:10D28000FFFFFFFFFFFFFFFFFFFFFFFFFFFFFFFFAE
:10D29000FFFFFFFFFFFFFFFFFFFFFFFFFFFFFFFF9E
:10D2A000FFFFFFFFFFFFFFFFFFFFFFFFFFFFFFFF8E
:10D2B000FFFFFFFFFFFFFFFFFFFFFFFFFFFFFFFF7E
:10D2C000FFFFFFFFFFFFFFFFFFFFFFFFFFFFFFFF6E
:10D2D000FFFFFFFFFFFFFFFFFFFFFFFFFFFFFFFF5E
:10D2E000FFFFFFFFFFFFFFFFFFFFFFFFFFFFFFFF4E
:10D2F000FFFFFFFFFFFFFFFFFFFFFFFFFFFFFFFF3E
:10D30000FFFFFFFFFFFFFFFFFFFFFFFFFFFFFFFF2D
:10D31000FFFFFFFFFFFFFFFFFFFFFFFFFFFFFFFF1D
:10D32000FFFFFFFFFFFFFFFFFFFFFFFFFFFFFFFF0D
:10D33000FFFFFFFFFFFFFFFFFFFFFFFFFFFFFFFFFD
:10D34000FFFFFFFFFFFFFFFFFFFFFFFFFFFFFFFFED
:10D35000FFFFFFFFFFFFFFFFFFFFFFFFFFFFFFFFDD
:10D36000FFFFFFFFFFFFFFFFFFFFFFFFFFFFFFFFCD
:10D37000FFFFFFFFFFFFFFFFFFFFFFFFFFFFFFFFBD
:10D38000FFFFFFFFFFFFFFFFFFFFFFFFFFFFFFFFAD
:10D39000FFFFFFFFFFFFFFFFFFFFFFFFFFFFFFFF9D
:10D3A000FFFFFFFFFFFFFFFFFFFFFFFFFFFFFFFF8D
:10D3B000FFFFFFFFFFFFFFFFFFFFFFFFFFFFFFFF7D
:10D3C000FFFFFFFFFFFFFFFFFFFFFFFFFFFFFFFF6D
:10D3D000FFFFFFFFFFFFFFFFFFFFFFFFFFFFFFFF5D
:10D3E000FFFFFFFFFFFFFFFFFFFFFFFFFFFFFFFF4D
:10D3F000FFFFFFFFFFFFFFFFFFFFFFFFFFFFFFFF3D
:10D400000000000000000000000000000004000018
:10D41000FF00FF0070080000070707070FF0002358
:10D420002323234A4A4A4A00000000000000000467
:10D4300000001000080000000000000000000000D4
:10D4400000000000000000000000000000000000DC
:10D4500000000000000000000000000000000000CC
:10D4600000000000000000000000000000000000BC
:10D4700000000000000000000000000000000000AC
:10D48000FFFFFFFFFFFFFFFFFFFFFFFFFFFFFFFFAC
:10D49000FFFFFFFFFFFFFFFFFFFFFFFFFFFFFFFF9C
:10D4A000FFFFFFFFFFFFFFFFFFFFFFFFFFFFFFFF8C
:10D4B000FFFFFFFFFFFFFFFFFFFFFFFFFFFFFFFF7C
:10D4C000FFFFFFFFFFFFFFFFFFFFFFFFFFFFFFFF6C
:10D4D000FFFFFFFFFFFFFFFFFFFFFFFFFFFFFFFF5C
:10D4E000FFFFFFFFFFFFFFFFFFFFFFFFFFFFFFFF4C
:10D4F000FFFFFFFFFFFFFFFFFFFFFFFFFFFFFFFF3C
:10D50000FFFFFFFFFFFFFFFFFFFFFFFFFFFFFFFF2B
:10D51000FFFFFFFFFFFFFFFFFFFFFFFFFFFFFFFF1B
:10D52000FFFFFFFFFFFFFFFFFFFFFFFFFFFFFFFF0B
:10D53000FFFFFFFFFFFFFFFFFFFFFFFFFFFFFFFFFB
:10D54000FFFFFFFFFFFFFFFFFFFFFFFFFFFFFFFFEB
:10D55000FFFFFFFFFFFFFFFFFFFFFFFFFFFFFFFFDB
:10D56000FFFFFFFFFFFFFFFFFFFFFFFFFFFFFFFFCB
:10D57000FFFFFFFFFFFFFFFFFFFFFFFFFFFFFFFFBB
:10D58000FFFFFFFFFFFFFFFFFFFFFFFFFFFFFFFFAB
:10D59000FFFFFFFFFFFFFFFFFFFFFFFFFFFFFFFF9B
:10D5A000FFFFFFFFFFFFFFFFFFFFFFFFFFFFFFFF8B
:10D5B000FFFFFFFFFFFFFFFFFFFFFFFFFFFFFFFF7B
:10D5C000FFFFFFFFFFFFFFFFFFFFFFFFFFFFFFFF6B
:10D5D000FFFFFFFFFFFFFFFFFFFFFFFFFFFFFFFF5B
:10D5E000FFFFFFFFFFFFFFFFFFFFFFFFFFFFFFFF4B
:10D5F000FFFFFFFFFFFFFFFFFFFFFFFFFFFFFFFF3B
:10D60000000000640A0000000020380D0000350012
:10D61000002500001D04E40000640A000000002052
:10D62000380D00003500002500001D04E4000064F2
:10D630000A0000000020380D000035000025000021
:10D640001D04E40000640A0000000020380D000002
:10D650003500002500001D04E40000003F00003FED
:10D660000000F3000003000C03000C03000C00009A
:10D6700000000000000000000000000000000000AA
:10D68000FFFFFFFFFFFFFFFFFFFFFFFFFFFFFFFFAA
:10D69000FFFFFFFFFFFFFFFFFFFFFFFFFFFFFFFF9A
:10D6A000FFFFFFFFFFFFFFFFFFFFFFFFFFFFFFFF8A
:10DA00000000000000000000000000000000001303
:10DA100000000A12000000000000000000000000EA
:10DA200000000000000000000000000000000000F6
:10DA300000000000000000000000000000000000E6
:10DA400000000000000000000000000000000000D6
:10DA500000000000000000000000000000000000C6
:10F800000100000000000000FFFFFFFFFFFFFFFFFF
:00000001FF
