:10000000020CBBAC07E4FB120FAA4020AF05121094
:100010001D120FB040161210D812107BEC04FF1204
:10002000101D120FB0400512003EAB0712109412C3
:1000300010D8AF032275F23B22FFFF020076E4FFE7
:100040007E80EE6022C2870000000000000000D227
:100050008700000030860242070000000000000018
:1000600000EEC313FE80DB2253C17F43C180539156
:100070007F32FF020068C0E0C0F0C083C082C0D001
:1000800075D000C000C001C002C003C004C005C0DC
:1000900006C00730C2030204BEE5C054F07003027C
:1000A00001CE24F070030201E824D07003020402A0
:1000B00024F070030204B2243060030204B6C2C507
:1000C000752100E5C254FE64A0702C752401D2C1D4
:1000D000E5C220E0030204C4E527C394675010740E
:1000E000002527F582E43400F583E0F5C28003752E
:1000F000C2FF05270204C4E5C254FE64A2600302E5
:10010000018DD2C1752402E5C220E0030204C4E5DA
:1001100027C39477500B74672527F582E434008059
:1001200053E527B4770575C202805DE527B47805ED
:1001300075C2008053E527B47906E515F5C28048FD
:10014000E527B47A058516C2803EE527C3947B4037
:100150000BE527947F500575C2FF802CE527B47FFF
:10016000058523C28022E523B48010745E2527F51F
:1001700082E43400F583E0F5C2800DE523B4B008D5
:1001800074E92527F8E6F5C205270204C4E5C25440
:10019000FEFFBFD213D2C1752403E5C220E00302E3
:1001A00004C4AD277FD28019E5C254FEFFBFB01949
:1001B000D2C1752404E5C220E0030204C4AD277F48
:1001C000B01200038FC20204C4C2C10204C4E521FC
:1001D000C39401500585C227800774272521F8A6FE
:1001E000C20521D2C10204C4C2C4E521C394025095
:1001F000030204C4E52114F526E52464017039E501
:1002000068940150030204C4E52794674003020484
:10021000C4750800E508C3952640030204C4742889
:100220002508F8E6FFE52725082400F582E43400D8
:10023000F583EFF0050880DCE52464026003020327
:10024000CEE527B47F21E521B4021C852823E523D0
:1002500064D060030204C4E568D39401500302042F
:10026000C47525010204C4E527D3947F500302021C
:10027000F4E5272480F522E523B4B02BE568D39478
:100280000150030204C4750800E508C39526400325
:100290000204C474282508F8E6FFE522250824692D
:1002A000F8A607050880E2E523648060030204C421
:1002B000E568D3940150030204C4750800E508C33F
:1002C000952640030204C4E5222508FFE433FEC35B
:1002D000EF9419EE64809480501674282508F8E68F
:1002E000FFE522250824DEF582E43400F583EFF0F3
:1002F000050880C9E527D3947A4056E527647B60DA
:10030000030204C4E521640560030204C4E528B4C3
:100310009315E529B47810E52AB4CC0BE52BB4AEDF
:10032000067568010204C4E528643A60030204C447
:10033000E529641860030204C4E52A64B660030278
:1003400004C4E52B646F60030204C47568020204F0
:10035000C4E5257031E527C3947740030204C475D2
:100360000800E508C3952640030204C47428250844
:10037000F8E6FFE52725082467F582E43400F583D5
:10038000EFF0050880DCE527642460030204C4E57F
:1003900028641160030204C4E52964226003020496
:1003A000C4E52A643360030204C4E52B645560038A
:1003B0000204C4E52C646660030204C4E52D6455A0
:1003C00060030204C4F876A575EF120204C4E524A4
:1003D000B40311E521640260030204C4AB28AD2715
:1003E0007F1E8018E524640460030204C4E52164D0
:1003F0000260030204C4AB28AD277F1C12105D020B
:1004000004C420C1030204C4E524B4011FE527C3CA
:100410009467501074002527F582E43400F583E0DA
:10042000F5C2800375C2FF05270204C4E5246402F7
:1004300060030204C4E527C39477500B7467252733
:10044000F582E434008053E527B4770575C2028055
:100450005DE527B4780575C2008053E527B47906B9
:10046000E515F5C28048E527B47A058516C2803EB9
:10047000E527C3947B400BE527947F500575C2FFA9
:10048000802CE527B47F058523C28022E523B48034
:1004900010745E2527F582E43400F583E0F5C28010
:1004A0000DE523B4B00874E92527F8E6F5C2052761
:1004B0008012C2C4800E53C17F43C1808000C2C578
:1004C000C2C4C2C1C2C0D007D006D005D004D00378
:1004D000D002D001D000D0D0D082D083D0F0D0E0F4
:1004E00032EC4D6011E8497017ED33EC3304600DC8
:1004F000E4FCFFFEFD22E933E8330470F802073123
:100500001206FC58046009E4CC24815006285009E6
:1005100002073B284003020738C0E0EB4A7044B9A9
:100520008006D0E0FB020727EF4E701CBD8008EB71
:10053000FFEAFEE9FD80EBE98DF0A4FEE5F002059F
:10054000CAE9CDF9EAFEEBFFEF89F0A4FCE5F0CEB5
:1005500089F0A42EFFE435F0CD89F0A42DFEE4351A
:10056000F08067EF4E7005BD80D780C3EF8BF0A49D
:10057000ACF0EE8BF0A42CFCE435F0F8EF8AF0A49C
:100580002CE5F038FCE433CB8DF0A42CFCE5F03BFB
:10059000F8EE8AF0A42CFCE5F038F8E433CF89F0CB
:1005A000A42CFCE5F038CF3400CE89F0A42FFFE571
:1005B000F03EFEE433C98DF0A42EFEE5F039CD8A7D
:1005C000F0A42FFFE5F03EFEE43DFD33D0E0FB500C
:1005D000070BBB000F02073BEC2CFCEF33FFEE33A5
:1005E000FEED33FD02071302073BEC5D046005E8F6
:1005F000590470030207311206FC580460F6EC48F7
:1006000060F2EC7004FDFEFF22C860DB2481C8505C
:1006100009C398600250060207389850CAF582E96B
:10062000294B4A7005AB8202072775F0007C1A78C7
:1006300080C3EF9BEE9AED99400DC3EF9BFFEE9ABE
:10064000FEED99FDE842F0DC23ACF0D0E0FFD0E015
:10065000FED0E0FDAB8220E7101BEB60BAEC2CFC77
:10066000EF33FFEE33FEED33FD020713E803F830FE
:10067000E705C0F075F000EF2FFFEE33FEED33FD20
:1006800040B830E7C280AA75F020800E75F0108067
:100690000575F0087D007E007F003392D530D503CC
:1006A000120783EC334010EF33FFEE33FEED33FDE2
:1006B000EC33FCD5F0ED22E5F0247EA2D513CC92EC
:1006C000E7CDCEFF22EDD2E7CD33EC3392D52481B6
:1006D0004006E4FFFEFDFC22FCE4CFCECDCC24E0BE
:1006E000501174FF80EDC3CC13CCCD13CDCE13CEFF
:1006F000CF13CF0470F030D5DE020783E9D2E7C90B
:1007000033E833F892D5EDD2E7CD33EC33FC500229
:10071000B2D522EC30E7100FBF000C0EBE00080D62
:10072000BD00040BEB6014A2D5EB13FCED92E7FDCA
:100730002274FFFCFDFEFF22E480F8A2D574FF13B3
:10074000FC7D80E480EFBB010689828A83E0225031
:1007500002E722BBFE02E32289828A83E49322BB62
:10076000010689828A83F0225002F722BBFE01F340
:1007700022EF8DF0A4A8F0CF8CF0A428CE8DF0A4A9
:100780002EFE22C3E49FFFE49EFEE49DFDE49CFC5C
:1007900022E86010ECA2E713FCED13FDEE13FEEF70
:1007A00013FFD8F02275F008758200EF2FFFEE33AB
:1007B000FECD33CDCC33CCC58233C5829BED9AECD4
:1007C00099E58298400CF582EE9BFEED9AFDEC993E
:1007D000FC0FD5F0D6E4CEFBE4CDFAE4CCF9A88248
:1007E00022B800C1B90059BA002DEC8BF084CFCEED
:1007F000CDFCE5F0CBF97818EF2FFFEE33FEED33AB
:10080000FDEC33FCEB33FB10D703994004EB99FB71
:100810000FD8E5E4F9FA227818EF2FFFEE33FEED5A
:1008200033FDEC33FCC933C910D7059BE99A400767
:10083000EC9BFCE99AF90FD8E0E4C9FAE4CCFB227E
:1008400075F010EF2FFFEE33FEED33FDCC33CCC847
:1008500033C810D7079BEC9AE899400AED9BFDEC52
:100860009AFCE899F80FD5F0DAE4CDFBE4CCFAE491
:10087000C8F922204028000000000000000000000D
:100880000000000000000000000000000000000068
:100890000000000000000000000000000000000058
:1008A0000000000000000000000000000000000048
:1008B00000000000000001210001270001220001CA
:1008C0006800012500012400012300012600021513
:1008D0000000606700000000000000000000000051
:1008E0000000000000000000000000000000000008
:1008F00000000000000000000000000000000000F8
:1009000000000000000000000000000000000000E7
:1009100000000000000000000000000000000000D7
:1009200000000000000000000000000000000000C7
:1009300000000000000000000000000000607700E0
:100940006700000000000000000000000000000040
:100950000000000000000000000000000000000097
:100960000000000000000000000000000000000087
:100970000000000000000000000000000000000077
:100980000000000000000000000000000000000067
:100990000000000000000000000000000000000057
:1009A0000000000000000000000000000000000047
:1009B000000000000000000020806900000000002E
:1009C0000000000000000000000000000000000027
:1009D0000000000000000000000000000000000017
:1009E0000000000000000000000000000000000007
:1009F00000000000000000000000000000000000F7
:100A000000000000000000000000000000000000E6
:100A100000000000000000000000000000000000D6
:100A200000000000000000000000000000000000C6
:100A30000000000000000000000000007D047F10A6
:100A4000120D4A8E0B8F0CE50C246EFDE50B34E283
:100A5000FCE412068CE4FBFA79E478411205EAE43E
:100A6000FBFA798078431204E11206C58E0B8F0CD5
:100A70009000F6E0FF7E00AC0BAD0C120771AC06E7
:100A8000AD07A3E07F00FEEF2DF50CEC3EF50B90DB
:100A900000C7F0A3E50CF07D047F12120D4A8E0B07
:100AA0008F0CE50B9000C9F0A3EFF07D047F0E12D0
:100AB0000D4A8E0B8F0C9000F4E0FF7E00AC0BAD66
:100AC0000C120771E48F108E0FF50EF50DAD0EAC04
:100AD0000DA3E0F9F81207918F108E0F8D0E8C0D7B
:100AE0008E0B8F0CD3E50C9400E50B940140197F1D
:100AF000011210AB9000D5E054FDF0C285E50B90DB
:100B000000CFF0A3E50CF022E4FF1210AB9000D56B
:100B1000E04402F0D285E49000CFF0A304F02290EC
:100B200000EDE0FB7D107FB012105D9000EEE0FB69
:100B30007D227FB012105D9000EFE0FB7D237FB03F
:100B400012105D9000DEE0FB7D217FD212105D90DF
:100B500000DFE0FB7D237FD212105D9000E0E0FB20
:100B60007D247FD212105D9000E1E0FB7D257FD2D5
:100B700012105D9000E2E0FB7D267FD212105D90A6
:100B800000E3E0FB7D277FD212105D9000E4E0FBE4
:100B90007D287FD212105D9000E5E0FB7D297FD299
:100BA00012105D9000E6E0FB7D2A7FD212105D906E
:100BB00000E7E0FB7D407FD212105D9000E8E0FB93
:100BC0007D417FD212105D9000E9E0FB7D427FD233
:100BD00012105D9000EAE0FB7D437FD212105D9021
:100BE00000EBE0FB7D447FD212105D020BEE7D1026
:100BF0007FB01200039000EDEFF07D227FB0120075
:100C0000039000EEEFF07D237FB01200039000EF21
:100C1000EFF07D217FD21200039000DEEFF07D2304
:100C20007FD21200039000DFEFF07D247FD212000C
:100C3000039000E0EFF07D257FD21200039000E1E9
:100C4000EFF07D267FD21200039000E2EFF07D27C7
:100C50007FD21200039000E3EFF07D287FD21200D4
:100C6000039000E4EFF07D297FD21200039000E5AD
:100C7000EFF07D2A7FD21200039000E6EFF07D4076
:100C80007FD21200039000E7EFF07D417FD2120087
:100C9000039000E8EFF07D427FD21200039000E95C
:100CA000EFF07D437FD21200039000EAEFF07D4425
:100CB0007FD21200039000EBEFF022121150787FE8
:100CC000E4F6D8FD7581E8020D05020DB6E493A3A4
:100CD000F8E493A34003F68001F208DFF48029E4EE
:100CE00093A3F85407240CC8C333C4540F4420C83A
:100CF000834004F456800146F6DFE4800B010204D1
:100D00000810204080900873E47E019360BCA3FF2C
:100D1000543F30E509541FFEE493A360010ECF5405
:100D2000C025E060A840B8E493A3FAE493A3F8E4F4
:100D300093A3C8C582C8CAC583CAF0A3C8C582C860
:100D4000CAC583CADFE9DEE780BEAB05A907E4F5C3
:100D500014F513F512F511FAEAC39B503789BBE479
:100D6000FFFE0FBF00010EEF640A4E70F5D2EC30AB
:100D7000EDFDAFBDAEBEE4FCFDE5142FF514E513AB
:100D80003EF513ED3512F512EC3511F511C2ECC23A
:100D9000ED0A80C4E4FAF9F8AF14AE13AD12AC1149
:100DA000120E5AEC1206877B337A33793B78421263
:100DB00004E11206C522E4F509F50A120FF9121131
:100DC00053120B1FD3E50A94B0E5099404400B12AB
:100DD0000A3C12103FE4F509F50A050AE50A70021B
:100DE00005099000D6E0B4AA07E4F0120FD380D42E
:100DF0009000D6E0B4BB0AE4F0120E0F120E9E80F3
:100E0000C39000D6E0B4CCBCE4F0120B1F80B57BDD
:100E1000017A0079007510677511017F007E1C1240
:100E20000EDE7B017A007967751077E4F5117F801B
:100E30007E1C120EDE7B017A0079DE75101AE4F555
:100E400011FF7E1D120EDE7B007A0079697510801D
:100E5000E4F5117F807E1D020EDEC2D5E830E70F7B
:100E6000B2D5E4C39BFBE49AFAE499F9E498F8EC70
:100E700030E717B2D5120E901207E1E4C39BFBE4F2
:100E80009AFAE499F9E498F880031207E130D50D55
:100E9000E4C39FFFE49EFEE49DFDE49CFC227B01F5
:100EA0007A0079007510677F007E1C120F1B7B0192
:100EB0007A0079677510807F807E1C120F1B7B0182
:100EC0007A0079DE75101A7F007E1D120F1B7B00E1
:100ED0007A0079697510807F807E1D020F1B8E0B52
:100EE0008F0C8B0D8A0E890FE511B40103120F814F
:100EF000E4FCECC395105022EC7E00250CFFEE358F
:100F00000BFEAB0D050FE50FAA0E7002050E14F9CE
:100F1000120746FD120F580C80D8228E0B8F0C8BB7
:100F20000D8A0E890FE4FDFCC3ED9510EC94005082
:100F300024E50C2DFFE50B3CFE1210FFAB0D050F59
:100F4000E50FAA0E7002050E14F9EF12075F0DBD32
:100F500000010C80D3AF0F22A2AF9201C2AF75FF88
:100F60008075EF028F828E8375B7A575B7F1438FB9
:100F70000175FF8075EF02EDF0538FFEA20192AF75
:100F800022A2AF9201C2AF75FF8075EF028F828EF1
:100F90008375B7A575B7F1438F0375FF8075EF02B1
:100FA000E4F0538FFCA20192AF2212107B12101DAD
:100FB000C287D2860000000000000000D287000037
:100FC00000A2869201000000000000C2870000001D
:100FD000A20122E4F50BF50CAF0CAE0B1210FFEFE3
:100FE0002516F516E43515F515050CE50C7002050A
:100FF0000BC3E50B941A40E02212112512111112B5
:10100000003512112C12113312114812114C12100A
:10101000C21210EC12111B12113A021141C2877E4A
:1010200080EE6017000000C2875FC36001D3928624
:10103000000000D287EEC313FE80E600000022907D
:1010400000D5E03091054410F0800354EFF090009B
:10105000D5E03090044420F02254DFF022AE07ACFB
:1010600003120FAA4012AF0512101D120FB0400854
:10107000AF0412101D120FB00210D8D287D2860012
:1010800000000000000000C2860000000000000018
:1010900000C28722D2860000000000000000D28734
:1010A0000000000000000000C287229000EFE0BFB7
:1010B0000104440180025401F0FB7D247FB0121032
:1010C0005D22AF885388AF758CFB758DFBEF544064
:1010D000FEEF54104E428822C287C286D28700009B
:1010E000000000000000000000D28622E5915404B8
:1010F0005391FB75933875929E439104429122A2BD
:10110000AF9201C2AF8F828E83E493FFA20192AFB0
:101110002275A43075F1FE75D40322758E01758990
:1011200022438840227597DE7597AD2275E340759E
:10113000E1042275BB1043E8802253C1FC43C19DEA
:101140002275E68175A8802275D19C22E4F5A9223A
:10115000021125020E9EFFFFFFFFFFFFFFFFFFFFB3
:10116000FFFFFFFFFFFFFFFFFFFFFFFFFFFFFFFF8F
:10117000FFFFFFFFFFFFFFFFFFFFFFFFFFFFFFFF7F
:10118000FFFFFFFFFFFFFFFFFFFFFFFFFFFFFFFF6F
:10119000FFFFFFFFFFFFFFFFFFFFFFFFFFFFFFFF5F
:101C0000030423000000000000000005FF000000A6
:101C1000000000004C555853484152452D4943544B
:101C200020202020013C18A000000000000000003F
:101C300000000000000000000000000000000000A4
:101C40000000000000000000000000000000000094
:101C50000000000000000000000000000000000084
:101C6000FFFFFFFFFFFFFFFFFFFFFFFFFFFFFFFF84
:101C7000FFFFFFFFFFFFFFFFFFFFFFFFFFFFFFFF74
:101C80000000000000000000000000000000000054
:101C90000000000000000000000000000000000044
:101CA0000000000000000000000000000000000034
:101CB0000000000000000000000000000000000024
:101CC0000000000000000001000000000001000012
:101CD0000001000000010000000100000000000001
:101CE00000000000000000000000000000000000F4
:101CF000000066000000000000000000000000007E
:101D000010D40AD568200420163900000B07850A74
:101D1000D855000000000100010000000000000094
:101D200000000000000000000000000000000000B3
:101D300000000000000000000000000000000000A3
:101D40000000000000000000000000000000000093
:101D50000000000000000000000000000000000083
:101D60000000000000000000000000000000000073
:101D7000000000000000000000000000000000FF64
:101D800042423151464E3230204D333736343520C1
:101D900020204D333736343420202000000000004E
:101DA0000000000000000000000000000000000033
:101DB0000000000000000000000000000000000023
:101DC0000000000000000000000000000000000013
:101DD0000000000000000000000000000000000003
:101DE00000000000000000000000000000000000F3
:101DF000000000000000000000000000000000FFE4
:00000001FF
