:10000000024E8CE4FD1259377C07125942D2B312CA
:100010005942125942A2B29201A201E433FFA8044C
:10002000088002C333D8FC4205C2B31259421CC334
:10003000EC6480948050D3AF05222202235CACA7ED
:10004000A2AF9201C2AFE4F5A775FF8075EF028FF2
:10005000828E83BD550975B7A575B7F1438F0375BA
:10006000FF8075EF02E4F0538FFCA20192AF8CA7E2
:1000700022FFFF025B8F90017FE0120A3800B70079
:1000800000E901012E020167100176820228840234
:10009000D68502ED8603458703958A04438B04F4D5
:1000A0008C054C8E059C9006399105F4920654B04F
:1000B0000670D0000006AA9008C9E0C3940150035E
:1000C0000206AA7B017A0179007537007538807FB6
:1000D000007EE81252087B017A017980753500753F
:1000E00036787F807EE80205F19008C9E0C394016C
:1000F00050030206AA7B017A0179807537007538B2
:10010000807F007EEA12520878117C027D017B011B
:100110007A0179807E007F801209407B017A027922
:10012000937535007536807F807EEA0205F1900870
:10013000C9E0C3940150030206AA7B017A02791137
:100140007537007538807F007EEA1252087B017A8D
:100150000179807535007536807F807EEA125322E2
:1001600078937C020202E69008CA7401F078007C61
:1001700000FDFB02062E9008C9E0D3940150030253
:1001800006AA9008D8E094F840629001FFE064016C
:1001900060030206AA9001F8E09006C1F09001F910
:1001A000E09006C2F09001FEE0FF9006C7F0BF01AC
:1001B0001A9001FAE0FF124F959006C1E0FD7FB85A
:1001C000125A759006C2EFF00204B29006C7E060C2
:1001D000030204B29001FAE0FF124F959006C1E0CD
:1001E000FDA3E0FB7FB81258A80204B27B017A019C
:1001F00079807537007538807F007EF0125208785C
:10020000497C067D017B017A0179807E007F801226
:1002100009407B017A0679C97535007536807F8083
:100220007EF01253220259859008C9E0D394015000
:10023000030206AA9008D8E094F8405E9001FFE01F
:10024000640160030206AA9001F8E0900740F09074
:1002500001F9E0900741F09001FEE0FF900746F0C1
:10026000BF01199001FAE0FF124F1B900740E0FD1B
:100270007FBE125A5F900741EFF0801B900746E067
:1002800070159001FAE0FF124F1B900740E0FDA3AC
:10029000E0FB7FBE12588B0204B27B017A067949DB
:1002A0007537007538807F007EF01252087B017A26
:1002B0000179807535007536807F807EF01253227B
:1002C00078C97C067D017B017A0179807E007F8080
:1002D00012094002599F9008C9E0D39401500302CB
:1002E00006AA785B7C097D017B0102062E9008C975
:1002F000E0D3940150030206AA7B017A017980754C
:1003000037007538807F007EF212520878437C04F3
:100310007D017B017A0179807E007F80120940781F
:10032000DB7C097D017B017A0579497E007F8012A3
:1003300009407B017A0979DB7535007536807F804D
:100340007EF20205F19008C9E0D394015003020641
:10035000AA78DB7C097D017B017A0479437E007FEA
:10036000801209407B017A0979DB75370075388086
:100370007F007EF21252087B017A01798075350088
:100380007536807F807EF212532278497C057D018C
:100390007B0102062E9008C9E0D3940150030206A7
:1003A000AA9008D8E094F8405E9001FFE0640160F4
:1003B000030206AA9001F8E09008C0F09001F9E06D
:1003C0009008C1F09001FEE0FF9008C6F0BF01194F
:1003D0009001FAE0FF125BC19008C0E0FD7F20129F
:1003E0005A5F9008C1EFF0801B9008C6E07015902E
:1003F00001FAE0FF125BC19008C0E0FDA3E0FB7FC3
:100400002012588B0204B27B017A01798075370083
:100410007538807F007EF412520878487C087D0190
:100420007B017A0179807E007F801209407B017A0E
:100430000779C87535007536807F807EF4125322A7
:10044000025A039008C9E0D3940150030206AA900F
:1004500008D8E094F840619001FFE0640160030275
:1004600006AA9001F8E0900840F09001F9E09008A9
:1004700041F09001FEE0FF900846F0BF01199001A5
:10048000FAE0FF125BCA900840E0FD7F20125A7527
:10049000900841EFF0801B900846E070159001FA3B
:1004A000E0FF125BCA900840E0FDA3E0FB7F201252
:1004B00058A8E49001FFF0227B017A08794875374B
:1004C000007538807F007EF41252087B017A017932
:1004D000807535007536807F807EF412532278C88F
:1004E0007C077D017B017A0179807E007F80120983
:1004F00040025A1A9008C9E0D3940150030206AA98
:100500007B017A0179807537007538807F007EF82D
:1005100012520878C17C047D017B017A0179807ECA
:10052000007F8012094078DB7C097D017B017A0520
:1005300079C97E007F801209407B017A0979DB75D9
:1005400035007536807F807EF80205F19008C9E09D
:10055000D3940150030206AA78DB7C097D017B015C
:100560007A0479C17E007F801209407B017A097983
:10057000DB7537007538807F007EF81252087B01EA
:100580007A0179807535007536807F807EF8125348
:100590002278C97C057D017B0102062E9008C9E006
:1005A000D3940150030206AA78F87C017D017B01F7
:1005B0007A03798B7E007F081209407B017A0179EA
:1005C000807537007538807F007EEC1252087B0101
:1005D0007A0379137535007536807F007EEC1252F0
:1005E000507B017A0379937535007536807F807E64
:1005F000EC0253229008C9E0D3940150030206AAEA
:100600007B017A0379137537007538807F007EECA3
:100610001252087B017A0179807535007536807F2A
:10062000807EEC12532278937C037D017B017A015A
:1006300079807E007F800209409008C9E0D3940150
:1006400040687B017A0179807537007538807F00BA
:100650007EEE80199008C9E0D39401404D7B017A69
:100660000179807537007538807F007EF602520868
:100670009008C9E0D3940140319008D8E064247018
:10068000299008DBE064117021A3E06422701BA3B1
:10069000E0B43316A3E0B45511A3E0B4660CA3E0B4
:1006A000B45507780076A575EF1222EC4D6011E87D
:1006B000497017ED33EC3304600DE4FCFFFEFD22BE
:1006C000E933E8330470F802085B12082658046026
:1006D00009E4CC248150062850090208652840030B
:1006E000020862C0E0EB4A7044B98006D0E0FB0229
:1006F0000851EF4E701CBD8008EBFFEAFEE9FD805B
:10070000EBE98DF0A4FEE5F0020794E9CDF9EAFEED
:10071000EBFFEF89F0A4FCE5F0CE89F0A42EFFE416
:1007200035F0CD89F0A42DFEE435F08067EF4E70F2
:1007300005BD80D780C3EF8BF0A4ACF0EE8BF0A4A6
:100740002CFCE435F0F8EF8AF0A42CE5F038FCE45A
:1007500033CB8DF0A42CFCE5F03BF8EE8AF0A42C12
:10076000FCE5F038F8E433CF89F0A42CFCE5F03850
:10077000CF3400CE89F0A42FFFE5F03EFEE433C96C
:100780008DF0A42EFEE5F039CD8AF0A42FFFE5F020
:100790003EFEE43DFD33D0E0FB50070BBB000F02F3
:1007A0000865EC2CFCEF33FFEE33FEED33FD020861
:1007B0003D75F020800E75F010800575F0087D0005
:1007C0007E007F003392D530D503120A16EC3340F9
:1007D00010EF33FFEE33FEED33FDEC33FCD5F0EDDF
:1007E00022E5F0247EA2D513CC92E7CDCEFF22EDF8
:1007F000D2E7CD33EC3392D524814006E4FFFEFDF1
:10080000FC22FCE4CFCECDCC24E0501174FF80ED6F
:10081000C3CC13CCCD13CDCE13CECF13CF0470F0F9
:1008200030D5DE020A16E9D2E7C933E833F892D5AB
:10083000EDD2E7CD33EC33FC5002B2D522EC30E7F9
:10084000100FBF000C0EBE00080DBD00040BEB60C6
:1008500014A2D5EB13FCED92E7FD2274FFFCFDFE24
:10086000FF22E480F8A2D574FF13FC7D80E480EFC2
:10087000E709F608DFFA8046E709F208DFFA803E6A
:1008800088828C83E709F0A3DFFA8032E309F60857
:10089000DFFA8078E309F208DFFA807088828C83BF
:1008A000E309F0A3DFFA806489828A83E0A3F60873
:1008B000DFFA805889828A83E0A3F208DFFA804C4D
:1008C00080D280FA80C680D4806980F28033801024
:1008D00080A680EA809A80A880DA80E280CA80338D
:1008E00089828A83ECFAE493A3C8C582C8CCC58305
:1008F000CCF0A3C8C582C8CCC583CCDFE9DEE780D5
:100900000D89828A83E493A3F608DFF9ECFAA9F053
:10091000EDFB2289828A83ECFAE0A3C8C582C8CCA9
:10092000C583CCF0A3C8C582C8CCC583CCDFEADEC2
:10093000E880DB89828A83E493A3F208DFF980CC24
:1009400088F0EF60010E4E60C388F0ED2402B4041D
:100950000050B9F582EB2402B4040050AF232345C4
:1009600082239008C073BB010689828A83E02250EB
:1009700002E722BBFE02E32289828A83E49322BB40
:10098000010689828A83F0225002F722BBFE01F31E
:1009900022C2D5EC30E709B2D5E4C39DFDE49CFC4E
:1009A000EE30E715B2D5E4C39FFFE49EFE120A8A3B
:1009B000C3E49DFDE49CFC8003120A8A30D507C382
:1009C000E49FFFE49EFE22E88FF0A4CC8BF0A42CE1
:1009D000FCE98EF0A42CFC8AF0EDA42CFCEA8EF04D
:1009E000A4CDA8F08BF0A42DCC3825F0FDE98FF034
:1009F000A42CCD35F0FCEB8EF0A4FEA9F0EB8FF02B
:100A0000A4CFC5F02ECD39FEE43CFCEAA42DCE35B2
:100A1000F0FDE43CFC22C3E49FFFE49EFEE49DFD68
:100A2000E49CFC22E86010ECA2E713FCED13FDEE61
:100A300013FEEF13FFD8F022D083D082F8E4937036
:100A400012740193700DA3A393F8740193F5828837
:100A500083E4737402936860EFA3A3A380DFEF4E77
:100A60006012EF60010EEDBB010B89828A83F0A357
:100A7000DFFCDEFA2289F05007F709DFFCA9F0223B
:100A8000BBFEFCF309DFFCA9F022BC000BBE002971
:100A9000EF8DF084FFADF022E4CCF875F008EF2F75
:100AA000FFEE33FEEC33FCEE9DEC984005FCEE9D32
:100AB000FE0FD5F0E9E4CEFD22EDF8F5F0EE84204E
:100AC000D21CFEADF075F008EF2FFFED33FD4007AF
:100AD000985006D5F0F222C398FD0FD5F0EA2275A2
:100AE000F008758200EF2FFFEE33FECD33CDCC330F
:100AF000CCC58233C5829BED9AEC99E58298400C77
:100B0000F582EE9BFEED9AFDEC99FC0FD5F0D6E454
:100B1000CEFBE4CDFAE4CCF9A88222B800C1B9003A
:100B200059BA002DEC8BF084CFCECDFCE5F0CBF99B
:100B30007818EF2FFFEE33FEED33FDEC33FCEB3393
:100B4000FB10D703994004EB99FB0FD8E5E4F9FAC1
:100B5000227818EF2FFFEE33FEED33FDEC33FCC9A6
:100B600033C910D7059BE99A4007EC9BFCE99AF939
:100B70000FD8E0E4C9FAE4CCFB2275F010EF2FFFA8
:100B8000EE33FEED33FDCC33CCC833C810D7079B12
:100B9000EC9AE899400AED9BFDEC9AFCE899F80F75
:100BA000D5F0DAE4CDFBE4CCFAE4C8F9228F33E5E2
:100BB0003364016003020C40900487E0F539A3E040
:100BC000F53A753B00753C04E4F53DFD124779901C
:100BD0000487E0F539A3E0F53A753B00753C04E481
:100BE000F53D7F287E18FD7C5812477F900487E0F2
:100BF000F539A3E0F53A753B00753C04E4F53D7F1B
:100C0000287E18FD7C5812477F900489E0F539A3AF
:100C1000E0F53A753B00753C04E4F53D7F2C7E1809
:100C2000FD7C5812477F900489E0F539A3E0F53A3E
:100C3000753B00753C04E4F53D7F2C7E18020E02E6
:100C4000E53364026003020CD790048BE0F539A30E
:100C5000E0F53A753B00753C04E4F53D7F287E588D
:100C6000FD7C5812477F90048BE0F539A3E0F53AFC
:100C7000753B00753C04E4F53D7F287E58FD7C58AB
:100C800012477F90048BE0F539A3E0F53A753B00FD
:100C9000753C04E4F53D7F287E58FD7C5812477F63
:100CA00090048DE0F539A3E0F53A753B00753C04FE
:100CB000E4F53D7F2C7E58FD7C5812477F90048DD3
:100CC000E0F539A3E0F53A753B00753C04E4F53DE9
:100CD0007F2C7E58020E02E53364036003020D6E22
:100CE00090048FE0F539A3E0F53A753B00753C04BC
:100CF000E4F53D7F287E98FD7C5812477F90048F55
:100D0000E0F539A3E0F53A753B00753C04E4F53DA8
:100D10007F287E98FD7C5812477F90048FE0F5393C
:100D2000A3E0F53A753B00753C04E4F53D7F287E71
:100D300098FD7C5812477F900491E0F539A3E0F5C7
:100D40003A753B00753C04E4F53D7F2C7E98FD7CB4
:100D50005812477F900491E0F539A3E0F53A753BCE
:100D600000753C04E4F53D7F2C7E98020E02E533CD
:100D700064046003020E06900493E0F539A3E0F5E5
:100D80003A753B00753C04E4F53D7F287ED8FD7C38
:100D90005812477F900493E0F539A3E0F53A753B8C
:100DA00000753C04E4F53D7F287ED8FD7C58124751
:100DB0007F900493E0F539A3E0F53A753B00753C6C
:100DC00004E4F53D7F287ED8FD7C5812477F9004CF
:100DD00095E0F539A3E0F53A753B00753C04E4F580
:100DE0003D7F2C7ED8FD7C5812477F900495E0F51E
:100DF00039A3E0F53A753B00753C04E4F53D7F2CE2
:100E00007ED8FD021023E533640570431247641257
:100E10004764124764900507E0F539A3E0F53A7599
:100E20003B00753C04753D017F2C7E187D007C588D
:100E300012477F900507E0F539A3E0F53A753B00CE
:100E4000753C04753D017F2C7E187D00021023E562
:100E50003364066003020EEC900509E0F539A3E067
:100E6000F53A753B00753C04753D017F287E587D41
:100E7000007C5812477F900509E0F539A3E0F53A68
:100E8000753B00753C04753D017F287E587D007CD4
:100E90005812477F900509E0F539A3E0F53A753B14
:100EA00000753C04753D017F287E587D007C5812FA
:100EB000477F90050BE0F539A3E0F53A753B0075E7
:100EC0003C04753D017F2C7E587D007C5812477F85
:100ED00090050BE0F539A3E0F53A753B00753C044D
:100EE000753D017F2C7E587D00021023E533640799
:100EF0006003020F8990050DE0F539A3E0F53A751E
:100F00003B00753C04753D017F287E987D007C5830
:100F100012477F90050DE0F539A3E0F53A753B00E7
:100F2000753C04753D017F287E987D007C581247F2
:100F30007F90050DE0F539A3E0F53A753B00753C6F
:100F400004753D017F287E987D007C5812477F9074
:100F5000050FE0F539A3E0F53A753B00753C0475E3
:100F60003D017F2C7E987D007C5812477F90050FB5
:100F7000E0F539A3E0F53A753B00753C04753D0199
:100F80007F2C7E987D00021023E533640860030205
:100F90001028900511E0F539A3E0F53A753B00758E
:100FA0003C04753D017F287ED87D007C5812477F28
:100FB000900511E0F539A3E0F53A753B00753C0466
:100FC000753D017F287ED87D007C5812477F9005B3
:100FD00011E0F539A3E0F53A753B00753C04753D29
:100FE000017F287ED87D007C5812477F900513E052
:100FF000F539A3E0F53A753B00753C04753D017F7A
:101000002C7ED87D007C5812477F900513E0F5397F
:10101000A3E0F53A753B00753C04753D017F2C7EDD
:10102000D87D007C5812477F224908CC534C424659
:101030003634513332608108DA00000000000000CD
:1010400000000000000000000000000000000000A0
:101050000000000000000000000000000000000090
:101060000000000000000000000000000000000080
:101070000000000000000000000000000000000070
:101080000000000000000000000000000000000060
:101090000000000000000000000000000000000050
:1010A0000000000000000000000000000000000040
:1010B000000000000000000000004108D8004108C6
:1010C000C8004108D7004108C9004108D5004108BF
:1010D000CA006100010000000000000000000000E4
:1010E0000000000000000000000000000000000000
:1010F00000000000000000000000000000000000F0
:1011000000000000000000000000000000000000DF
:1011100000000000000000000000000000000000CF
:1011200000000000000000000000000000000000BF
:1011300000000000000000000000000000000000AF
:10114000000000000000000000000000000000009F
:10115000000000000000000000000000000000008F
:10116000000000000000000000000000000000007F
:10117000000000000000000000000000000000006F
:10118000000000000000000000000000000000005F
:10119000000000000000000000000000000000004F
:1011A000000000000000000000000000000000003F
:1011B000000000000000000000000000000000002F
:1011C000000000000000000000000000000000001F
:1011D00000000000000060800080000000000000AF
:1011E00000000000000000000000000000000000FF
:1011F00000000000000000000000000000000000EF
:1012000000000000000000000000000000000000DE
:1012100000000000000000000000000000000000CE
:1012200000000000000000000000000000000000BE
:1012300000000000000000000000000000000000AE
:10124000000000000000000000000000000000009E
:10125000000000000000000000006080021100009B
:10126000000000000000000000000000000000007E
:10127000000000000000000000000000000000006E
:10128000000000000000000000000000000000005E
:10129000000000000000000000000000000000004E
:1012A000000000000000000000000000000000003E
:1012B000000000000000000000000000000000002E
:1012C000000000000000000000000000000000001E
:1012D000000000000000000000000000000060802E
:1012E0000293000000000000000000000000000069
:1012F00000000000000000000000000000000000EE
:1013000000000000000000000000000000000000DD
:1013100000000000000000000000000000000000CD
:1013200000000000000000000000000000000000BD
:1013300000000000000000000000000000000000AD
:10134000000000000000000000000000000000009D
:10135000000000000000000000000000000000008D
:10136000000060800000000000000000000000009D
:10137000000000000000000000000000000000006D
:10138000000000000000000000000000000000005D
:10139000000000000000000000000000000000004D
:1013A000000000000000000000000000000000003D
:1013B000000000000000000000000000000000002D
:1013C000000000000000000000000000000000001D
:1013D000000000000000000000000000000000000D
:1013E0000000000000004202910000410210024192
:1013F0000A5B00410A5C00410A5D0060800748000A
:1014000000000000000000000000000000000000DC
:1014100000000000000000000000000000000000CC
:1014200000000000000000000000000000000000BC
:1014300000000000000000000000000000000000AC
:10144000000000000000000000000000000000009C
:10145000000000000000000000000000000000008C
:10146000000000000000000000000000000000007C
:10147000000000000000000000000000000000412B
:1014800009DAA000EF14700302158D147003021620
:101490007C14700302176B2403600302185D7F2025
:1014A000125BC190084BE0FBE4FD7F2012588B904B
:1014B000084CE0FB7D027F2012588B90084DE0FB2A
:1014C0007D037F2012588B90084EE0FB7D047F2027
:1014D00012588B90084FE0FB7D057F2012588B90AF
:1014E0000850E0FB7D0A7F2012588B900851E0FBEA
:1014F0007D0D7F2012588B900852E0FB7D197F20D4
:1015000012588B900853E0FB7D1A7F2012588B9065
:101510000856E0FB7DC27F2012588B900859E0FBF3
:101520007DE27F2012588B90085CE0FB7DD27F200B
:1015300012588B900856E020E018900854E0FB7D8C
:10154000C07F2012588B900855E0FB7DC17F201290
:10155000588B900859E020E018900857E0FB7DE098
:101560007F2012588B900858E0FB7DE17F201258B5
:101570008B90085CE030E00302185D90085AE0FBB5
:101580007DD07F2012588B90085B0218547F211267
:101590005BC1900861E0FBE4FD7F2012588B90084E
:1015A00062E0FB7D027F2012588B900863E0FB7D98
:1015B000037F2012588B900864E0FB7D047F20128B
:1015C000588B900865E0FB7D057F2012588B9008B2
:1015D00066E0FB7D0A7F2012588B900867E0FB7D58
:1015E0000D7F2012588B900868E0FB7D197F201238
:1015F000588B900869E0FB7D1A7F2012588B900869
:101600006CE0FB7DC27F2012588B90086FE0FB7D61
:10161000E27F2012588B900872E0FB7DD27F20126F
:10162000588B90086CE020E01890086AE0FB7DC0C1
:101630007F2012588B90086BE0FB7DC17F201258F1
:101640008B90086FE020E01890086DE0FB7DE07F54
:101650002012588B90086EE0FB7DE17F2012588BA2
:10166000900872E030E00302185D900870E0FB7DA6
:10167000D07F2012588B9008710218547F22125B81
:10168000C1900877E0FBE4FD7F2012588B9008782A
:10169000E0FB7D027F2012588B900879E0FB7D03F0
:1016A0007F2012588B90087AE0FB7D047F2012582F
:1016B0008B90087BE0FB7D057F2012588B90087C87
:1016C000E0FB7D0A7F2012588B90087DE0FB7D0DAA
:1016D0007F2012588B90087EE0FB7D197F201258E6
:1016E0008B90087FE0FB7D1A7F2012588B90088238
:1016F000E0FB7DC27F2012588B900885E0FB7DE2E5
:101700007F2012588B900888E0FB7DD27F201258F2
:101710008B900882E020E018900880E0FB7DC07F7D
:101720002012588B900881E0FB7DC17F2012588BDE
:10173000900885E020E018900883E0FB7DE07F20A2
:1017400012588B900884E0FB7DE17F2012588B902B
:101750000888E030E00302185D900886E0FB7DD049
:101760007F2012588B9008870218547F23125BC188
:1017700090088DE0FBE4FD7F2012588B90088EE0EE
:10178000FB7D027F2012588B90088FE0FB7D037F4A
:101790002012588B900890E0FB7D047F2012588B1C
:1017A000900891E0FB7D057F2012588B900892E015
:1017B000FB7D0A7F2012588B900893E0FB7D0D7F04
:1017C0002012588B900894E0FB7D197F2012588BD3
:1017D000900895E0FB7D1A7F2012588B900898E0C6
:1017E000FB7DC27F2012588B90089BE0FB7DE27F3F
:1017F0002012588B90089EE0FB7DD27F2012588BE0
:10180000900898E020E018900896E0FB7DC07F20CB
:1018100012588B900897E0FB7DC17F2012588B9067
:10182000089BE020E018900899E0FB7DE07F201203
:10183000588B90089AE0FB7DE17F2012588B90082E
:101840009EE020E01890089CE0FB7DD07F2012589D
:101850008B90089DE0FB7DD17F2012588B22EF14E6
:101860007003021967147003021A56147003021BE6
:101870004524036003021C377F20125BCA9007CB0C
:10188000E0FBE4FD7F201258A89007CCE0FB7D022E
:101890007F201258A89007CDE0FB7D037F201258CF
:1018A000A89007CEE0FB7D047F201258A89007CFB8
:1018B000E0FB7D057F201258A89007D0E0FB7D0A51
:1018C0007F201258A89007D1E0FB7D0D7F20125891
:1018D000A89007D2E0FB7D197F201258A89007D36B
:1018E000E0FB7D1A7F201258A89007D6E0FB7DC24E
:1018F0007F201258A89007D9E0FB7DE27F20125884
:10190000A89007DCE0FB7DD27F201258A89007D674
:10191000E020E0189007D4E0FB7DC07F201258A89B
:101920009007D5E0FB7DC17F201258A89007D9E031
:1019300020E0189007D7E0FB7DE07F201258A890A8
:1019400007D8E0FB7DE17F201258A89007DCE0304B
:10195000E003021C379007DAE0FB7DD07F201258AD
:10196000A89007DB021C2E7F21125BCA9007E1E0E2
:10197000FBE4FD7F201258A89007E2E0FB7D027F88
:10198000201258A89007E3E0FB7D037F201258A89F
:101990009007E4E0FB7D047F201258A89007E5E063
:1019A000FB7D057F201258A89007E6E0FB7D0A7FAB
:1019B000201258A89007E7E0FB7D0D7F201258A861
:1019C0009007E8E0FB7D197F201258A89007E9E016
:1019D000FB7D1A7F201258A89007ECE0FB7DC27FA8
:1019E000201258A89007EFE0FB7DE27F201258A854
:1019F0009007F2E0FB7DD27F201258A89007ECE020
:101A000020E0189007EAE0FB7DC07F201258A890E4
:101A100007EBE0FB7DC17F201258A89007EFE02084
:101A2000E0189007EDE0FB7DE07F201258A89007BA
:101A3000EEE0FB7DE17F201258A89007F2E030E055
:101A400003021C379007F0E0FB7DD07F201258A8DE
:101A50009007F1021C2E7F22125BCA9007F7E0FB71
:101A6000E4FD7F201258A89007F8E0FB7D027F205C
:101A70001258A89007F9E0FB7D037F201258A89028
:101A800007FAE0FB7D047F201258A89007FBE0FBDB
:101A90007D057F201258A89007FCE0FB7D0A7F207F
:101AA0001258A89007FDE0FB7D0D7F201258A890EA
:101AB00007FEE0FB7D197F201258A89007FFE0FB8E
:101AC0007D1A7F201258A8900802E0FB7DC27F207B
:101AD0001258A8900805E0FB7DE27F201258A890DC
:101AE0000808E0FB7DD27F201258A8900802E02071
:101AF000E018900800E0FB7DC07F201258A89008F5
:101B000001E0FB7DC17F201258A8900805E020E08D
:101B100018900803E0FB7DE07F201258A89008048D
:101B2000E0FB7DE17F201258A8900808E030E00338
:101B3000021C37900806E0FB7DD07F201258A89049
:101B40000807021C2E7F23125BCA90080DE0FBE4FD
:101B5000FD7F201258A890080EE0FB7D027F201226
:101B600058A890080FE0FB7D037F201258A890082A
:101B700010E0FB7D047F201258A8900811E0FB7D47
:101B8000057F201258A8900812E0FB7D0A7F2012E2
:101B900058A8900813E0FB7D0D7F201258A89008EC
:101BA00014E0FB7D197F201258A8900815E0FB7DFA
:101BB0001A7F201258A8900818E0FB7DC27F2012DF
:101BC00058A890081BE0FB7DE27F201258A89008DF
:101BD0001EE0FB7DD27F201258A8900818E020E07C
:101BE00018900816E0FB7DC07F201258A8900817B7
:101BF000E0FB7DC17F201258A890081BE020E01870
:101C0000900819E0FB7DE07F201258A890081AE0A8
:101C1000FB7DE17F201258A890081EE020E018907C
:101C2000081CE0FB7DD07F201258A890081DE0FB27
:101C30007DD17F201258A822EF147003021D3014AA
:101C40007003021E0E147003021EEC2403600302D4
:101C50001FC97F20125BC1E4FD7F20125A5F9008EC
:101C60004BEFF07D027F20125A5F90084CEFF07D21
:101C7000037F20125A5F90084DEFF07D047F201201
:101C80005A5F90084EEFF07D057F20125A5F900852
:101C90004FEFF07D0A7F20125A5F900850EFF07DE1
:101CA0000D7F20125A5F900851EFF07D197F2012AE
:101CB0005A5F900852EFF07D1A7F20125A5F900809
:101CC00053EFF07DC07F20125A5F900854EFF07DF3
:101CD000C17F20125A5F900855EFF07DC27F20121D
:101CE0005A5F900856EFF07DE07F20125A5F90080F
:101CF00057EFF07DE17F20125A5F900858EFF07D9A
:101D0000E27F20125A5F900859EFF07DD07F2012B9
:101D10005A5F90085AEFF07DD17F20125A5F9008E9
:101D20005BEFF07DD27F20125A5F90085CEFF022CB
:101D30007F21125BC1E4FD7F20125A5F900861EFA2
:101D4000F07D027F20125A5F900862EFF07D037FE2
:101D500020125A5F900863EFF07D047F20125A5FD3
:101D6000900864EFF07D057F20125A5F900865EFC0
:101D7000F07D0A7F20125A5F900866EFF07D0D7F9C
:101D800020125A5F900867EFF07D197F20125A5F8A
:101D9000900868EFF07D1A7F20125A5F900869EF73
:101DA000F07DC07F20125A5F90086AEFF07DC17FFE
:101DB00020125A5F90086BEFF07DC27F20125A5FAD
:101DC00090086CEFF07DE07F20125A5F90086DEF75
:101DD000F07DE17F20125A5F90086EEFF07DE27F88
:101DE00020125A5F90086FEFF07DD07F20125A5F6B
:101DF000900870EFF07DD17F20125A5F900871EF4C
:101E0000F07DD27F20125A5F900872EFF0227F227D
:101E1000125BC1E4FD7F20125A5F900877EFF07DDE
:101E2000027F20125A5F900878EFF07D037F201226
:101E30005A5F900879EFF07D047F20125A5F900876
:101E40007AEFF07D057F20125A5F90087BEFF07DDE
:101E50000A7F20125A5F90087CEFF07D0D7F2012E0
:101E60005A5F90087DEFF07D197F20125A5F90082D
:101E70007EEFF07D1A7F20125A5F90087FEFF07D91
:101E8000C07F20125A5F900880EFF07DC17F201242
:101E90005A5F900881EFF07DC27F20125A5F900850
:101EA00082EFF07DE07F20125A5F900883EFF07D93
:101EB000E17F20125A5F900884EFF07DE27F2012CC
:101EC0005A5F900885EFF07DD07F20125A5F90080E
:101ED00086EFF07DD17F20125A5F900887EFF07D6A
:101EE000D27F20125A5F900888EFF0227F23125B86
:101EF000C1E4FD7F20125A5F90088DEFF07D027FD4
:101F000020125A5F90088EEFF07D037F20125A5FF7
:101F100090088FEFF07D047F20125A5F900890EFB9
:101F2000F07D057F20125A5F900891EFF07D0A7FC7
:101F300020125A5F900892EFF07D0D7F20125A5FB9
:101F4000900893EFF07D197F20125A5F900894EF6C
:101F5000F07D1A7F20125A5F900895EFF07DC07FC8
:101F600020125A5F900896EFF07DC17F20125A5FD1
:101F7000900897EFF07DC27F20125A5F900898EF8B
:101F8000F07DE07F20125A5F900899EFF07DE17FAD
:101F900020125A5F90089AEFF07DE27F20125A5F7C
:101FA00090089BEFF07DD07F20125A5F90089CEF45
:101FB000F07DD17F20125A5F90089DEFF07DD27F97
:101FC00020125A5F90089EEFF022EF147003022057
:101FD000C21470030221A014700302227E24036045
:101FE0000302235B7F20125BCAE4FD7F20125A7537
:101FF0009007CBEFF07D027F20125A759007CCEF4F
:10200000F07D037F20125A759007CDEFF07D047F9D
:1020100020125A759007CEEFF07D057F20125A7579
:102020009007CFEFF07D0A7F20125A759007D0EF0E
:10203000F07D0D7F20125A759007D1EFF07D197F4A
:1020400020125A759007D2EFF07D1A7F20125A7530
:102050009007D3EFF07DC07F20125A759007D4EF20
:10206000F07DC17F20125A759007D5EFF07DC27FB9
:1020700020125A759007D6EFF07DE07F20125A7536
:102080009007D7EFF07DE17F20125A759007D8EFC7
:10209000F07DE27F20125A759007D9EFF07DD07F56
:1020A00020125A759007DAEFF07DD17F20125A7511
:1020B0009007DBEFF07DD27F20125A759007DCEF9E
:1020C000F0227F21125BCAE4FD7F20125A7590072F
:1020D000E1EFF07D027F20125A759007E2EFF07D6C
:1020E000037F20125A759007E3EFF07D047F2012E2
:1020F0005A759007E4EFF07D057F20125A7590071E
:10210000E5EFF07D0A7F20125A759007E6EFF07D2B
:102110000D7F20125A759007E7EFF07D197F20128E
:102120005A759007E8EFF07D1A7F20125A759007D4
:10213000E9EFF07DC07F20125A759007EAEFF07D3D
:10214000C17F20125A759007EBEFF07DC27F2012FD
:102150005A759007ECEFF07DE07F20125A759007DA
:10216000EDEFF07DE17F20125A759007EEEFF07DE4
:10217000E27F20125A759007EFEFF07DD07F20129A
:102180005A759007F0EFF07DD17F20125A759007B5
:10219000F1EFF07DD27F20125A759007F2EFF02216
:1021A0007F22125BCAE4FD7F20125A759007F7EF79
:1021B000F07D027F20125A759007F8EFF07D037FC3
:1021C00020125A759007F9EFF07D047F20125A759E
:1021D0009007FAEFF07D057F20125A759007FBEF0C
:1021E000F07D0A7F20125A759007FCEFF07D0D7F7D
:1021F00020125A759007FDEFF07D197F20125A7555
:102200009007FEEFF07D1A7F20125A759007FFEFBE
:10221000F07DC07F20125A75900800EFF07DC17FDD
:1022200020125A75900801EFF07DC27F20125A7576
:10223000900802EFF07DE07F20125A75900803EFBE
:10224000F07DE17F20125A75900804EFF07DE27F67
:1022500020125A75900805EFF07DD07F20125A7534
:10226000900806EFF07DD17F20125A75900807EF95
:10227000F07DD27F20125A75900808EFF0227F235C
:10228000125BCAE4FD7F20125A7590080DEFF07DB5
:10229000027F20125A7590080EEFF07D037F201206
:1022A0005A7590080FEFF07D047F20125A75900840
:1022B00010EFF07D057F20125A75900811EFF07D28
:1022C0000A7F20125A75900812EFF07D0D7F2012C0
:1022D0005A75900813EFF07D197F20125A759008F7
:1022E00014EFF07D1A7F20125A75900815EFF07DDB
:1022F000C07F20125A75900816EFF07DC17F201222
:102300005A75900817EFF07DC27F20125A75900819
:1023100018EFF07DE07F20125A75900819EFF07DDC
:10232000E17F20125A7590081AEFF07DE27F2012AB
:102330005A7590081BEFF07DD07F20125A759008D7
:102340001CEFF07DD17F20125A7590081DEFF07DB3
:10235000D27F20125A7590081EEFF022C0E0C0F024
:10236000C083C082C0D075D000C000C001C002C010
:1023700003C004C005C006C00775210075220030E7
:10238000C20302265FE5C054F0700302247424F0F7
:10239000700302249724D070030225A124F0700357
:1023A00002265324306003022657C2C59008C8E5B0
:1023B000C2F0E0FF54FE64A0600302246FEF20E04F
:1023C0000302246A9008D8E0FFC39480502DEF9454
:1023D000764012EF947F500D74002FF582E43401A3
:1023E000F58374FFF09008D8E0FF2400F582E43410
:1023F00001F583E0F5C2EF6409806F90017FE0FF93
:10240000B4010D9008D8E02491F582E434018055A0
:10241000EFB4020D9008D8E02413F582E434028072
:102420004490017FE0FFB4100D9008D8E02480F5BF
:1024300082E434FF802FEFB411209008D8E0FF240D
:1024400000F582E43400F583E0F5C2EFC3948740E1
:10245000199008D8E0D3949880109008D8E0240010
:10246000F582E43401F583E0F5C2D2C1022665C2EB
:10247000C10226659008D7E024DAF582E43408F535
:1024800083E5C2F09008DAE09008D8F09008D7E031
:1024900004F0D2C1022665C2C49008D7E0FFC394FD
:1024A0000250030225999008D57401F0EF149008AA
:1024B000D9F09008D8E0647F600302257B9008D7AC
:1024C000E06402600302257B9008DBE090017FF06E
:1024D000702C7B017A017980F5357536807F807E9E
:1024E000E8125250900291E0FCA3E0FDEC9001F85C
:1024F000F0A3EDF0A37402F0A37414F0806E9001C9
:102500007FE0B4011578807C017D017B017A02793E
:10251000117E007F80120940805290017FE0B4025A
:102520001578807C017D017B017A0279937E007FA2
:1025300080120940803690017FE0B4101578807CCD
:10254000017D017B017A0079007E007F80120940C5
:10255000801A90017FE0B4111A78807C017D017BA4
:10256000017A0079807E007F801209409008CBE4D8
:10257000F080269008CB7401F0801E9008D8E0FF10
:10258000C3947A400EEFD3947D50089008CB740525
:10259000F080069008CB7407F09008D7E4F002268C
:1025A0006520C1030226659008D8E004F0E0FFC36F
:1025B0009480502EEF94764012EF947F500D74006B
:1025C0002FF582E43401F58374FFF09008D8E0FF22
:1025D0002400F582E43401F583E0F5C2EF640902DA
:1025E000266590017FE0FFB4010D9008D8E02491AA
:1025F000F582E434018055EFB4020D9008D8E02450
:1026000013F582E43402804490017FE0FFB4100DA2
:102610009008D8E02480F582E434FF802FEFB411D5
:10262000209008D8E0FF2400F582E43400F583E030
:10263000F5C2EFC39487402D9008D8E0D3949880DA
:10264000249008D8E02400F582E43401F583E0F515
:10265000C28012C2C4800E53C17F43C1808000C2B9
:10266000C5C2C4C2C1C2C0D007D006D005D004D0F4
:1026700003D002D001D000D0D0D082D083D0F0D00F
:10268000E03290017FE024507003022849242EB4E8
:10269000110040030228879026A575F003A4C58386
:1026A00025F0C583730226F60227140226D80227D6
:1026B0002F02274A022765022887022887022780DF
:1026C00002279E0227BB0228870227D502288702FD
:1026D00027EF02282E0228109008C9E0C394015069
:1026E000030228871258E278807C017D017B017A01
:1026F0000679C90228259008C9E0C3940150030255
:1027000028871258C578807C017D017B017A067983
:10271000490228259008C9E0C39401500302288784
:1027200078807C017D017B017A0779480228259019
:1027300008C9E0D39401500302288778807C017D8A
:10274000017B017A09795B0228259008C9E0C394CE
:1027500001500302288778807C017D017B017A0487
:1027600079430228259008C9E0C394015003022848
:102770008778807C017D017B017A057949022825D3
:102780009008C9E0C394015003022887125A317897
:10279000807C017D017B017A087948022825900818
:1027A000C9E0C394015003022887125A4878807CFC
:1027B000017D017B017A0779C8806A9008C9E0C36E
:1027C0009401500302288778807C017D017B017A87
:1027D0000479C180509008C9E0C3940150030228D5
:1027E0008778807C017D017B017A0579C9803690EC
:1027F00008C9E0D39401403490038D7402F0A374AF
:1028000014F078807C017D017B017A0379138015B7
:102810009008C9E0D39401401378807C017D017B4E
:10282000017A0379937E007F80020940804A9008F4
:10283000C9E0D3940140507B017A0179807535005D
:102840007536807F007EEE802C9008C9E0D394011D
:10285000402678807C017D017B017A0879CC7E005E
:102860007F091209407B017A017989753500753637
:10287000777F097EF60252507E007F807DFF7B01CC
:102880007A017980120A5E228F33E533B4013390E6
:10289000047FE0F539A3E0F53A753B00753C04E4AC
:1028A000F53D7F0C7E11FD7C5812477F7539007510
:1028B0003A0F753B00753C04E4F53D7FDC7E100269
:1028C0002965E533B40232900481E0F539A3E0F5DF
:1028D0003A753B00753C04E4F53D7F0C7E51FD7C70
:1028E0005812477F753900753A0F753B00753C04E7
:1028F000E4F53D7FDC7E50806CE533B40332900418
:1029000083E0F539A3E0F53A753B00753C04E4F546
:102910003D7F0C7E91FD7C5812477F753900753ADA
:102920000F753B00753C04E4F53D7FDC7E908035FF
:10293000E533B40434900485E0F539A3E0F53A7545
:102940003B00753C04E4F53D7F0C7ED1FD7C5812C4
:10295000477F753900753A0F753B00753C04E4F507
:102960003D7FDC7ED0FD022A50E533B4053690046D
:10297000FDE0F539A3E0F53A753B00753C04753D83
:10298000017F0C7E117D007C5812477F75390075E0
:102990003A0F753B00753C04753D017FDC7E107D70
:1029A00000022A50E533B406359004FFE0F539A360
:1029B000E0F53A753B00753C04753D017F0C7E5196
:1029C0007D007C5812477F753900753A0F753B00C2
:1029D000753C04753D017FDC7E507D008072E533DF
:1029E000B40735900501E0F539A3E0F53A753B00F1
:1029F000753C04753D017F0C7E917D007C5812472B
:102A00007F753900753A0F753B00753C04753D01C3
:102A10007FDC7E907D008038E533B4083890050374
:102A2000E0F539A3E0F53A753B00753C04753D01CE
:102A30007F0C7ED17D007C5812477F753900753A36
:102A40000F753B00753C04753D017FDC7ED07D0039
:102A50007C5812477F227F02124F1B900752E0548E
:102A60000FC454F04407FB7D047FBE12588B9007BF
:102A700051E054F0FF900718E04FFB7D067FBE1237
:102A8000588B7F03124F1B90075EE0540FC454F025
:102A90004407FB7D047FBE12588B90075DE054F025
:102AA000FF90071CE04FFB7D067FBE12588B7F0412
:102AB000124F1B90076AE0540FC454F04407FB7D8B
:102AC000047FBE12588B900769E054F0FF900720F6
:102AD000E04FFB7D067FBE12588B7F05124F1B9087
:102AE0000776E0540FC454F04407FB7D047FBE1208
:102AF000588B900775E054F0FF900724E04FFB7D62
:102B0000067FBE12588B7F02124F95900792E054B9
:102B10000FC454F04407FB7D047FB81258A89007F7
:102B200091E054F0FF900698E04FFB7D067FB812CD
:102B300058A87F03124F9590079EE0540FC454F09D
:102B40004407FB7D047FB81258A890079DE054F01D
:102B5000FF90069CE04FFB7D067FB81258A87F04CB
:102B6000124F959007AAE0540FC454F04407FB7D20
:102B7000047FB81258A89007A9E054F0FF9006A06F
:102B8000E04FFB7D067FB81258A87F05124F959045
:102B900007B6E0540FC454F04407FB7D047FB8121D
:102BA00058A89007B5E054F0FF9006A4E04FFB7DD5
:102BB000067FB80258A8E4FF124F1B7D047FBE12A7
:102BC0005A5F9006C9EFF07D117FBE125A5F9006E2
:102BD000CAEFF07D227FBE125A5F9006CBEFF07DE8
:102BE000267FBE125A5F9006CCEFF07D277FBE1283
:102BF0005A5F9006CDEFF07D287FBE125A5F900697
:102C0000CEEFF07D297FBE125A5F9006CFEFF07DA8
:102C10002A7FBE125A5F9006D0EFF07D2B7FBE1246
:102C20005A5F9006D1EFF07D2C7FBE125A5F90065E
:102C3000D2EFF07D2D7FBE125A5F9006D3EFF07D6C
:102C40002E7FBE125A5F9006D4EFF07D2F7FBE120A
:102C50005A5F9006D5EFF07D307FBE125A5F900626
:102C6000D6EFF07D317FBE125A5F9006D7EFF07D30
:102C7000327FBE125A5F9006D8EFF07D337FBE12CE
:102C80005A5F9006D9EFF07D347FBE125A5F9006EE
:102C9000DAEFF07D357FBE125A5F9006DBEFF07DF4
:102CA000367FBE125A5F9006DCEFF07D377FBE1292
:102CB0005A5F9006DDEFF07D387FBE125A5F9006B6
:102CC000DEEFF07D397FBE125A5F9006DFEFF07DB8
:102CD000517FBE125A5F9006E0EFF07D537FBE1227
:102CE0005A5F9006E1EFF07D5B7FBE125A5F90065F
:102CF000E2EFF022E4FF124F957D047FB8125A757F
:102D0000900649EFF07D117FB8125A7590064AEF90
:102D1000F07D227FB8125A7590064BEFF07D267F2A
:102D2000B8125A7590064CEFF07D277FB8125A758D
:102D300090064DEFF07D287FB8125A7590064EEF41
:102D4000F07D297FB8125A7590064FEFF07D2A7FEB
:102D5000B8125A75900650EFF07D2B7FB8125A7555
:102D6000900651EFF07D2C7FB8125A75900652EF05
:102D7000F07D2D7FB8125A75900653EFF07D2E7FAF
:102D8000B8125A75900654EFF07D2F7FB8125A751D
:102D9000900655EFF07D307FB8125A75900656EFC9
:102DA000F07D317FB8125A75900657EFF07D327F73
:102DB000B8125A75900658EFF07D337FB8125A75E5
:102DC000900659EFF07D347FB8125A7590065AEF8D
:102DD000F07D357FB8125A7590065BEFF07D367F37
:102DE000B8125A7590065CEFF07D377FB8125A75AD
:102DF00090065DEFF07D387FB8125A7590065EEF51
:102E0000F07D397FB8125A7590065FEFF07D517FE3
:102E1000B8125A75900660EFF07D537FB8125A755C
:102E2000900661EFF07D5B7FB8125A75900662EFF5
:102E3000F0227B017A0679497535007536807F006E
:102E40007EF01252507B017A0679C97535007536CD
:102E5000807F807EF01252507B017A087948753568
:102E6000007536807F007EF41252507B017A07791C
:102E7000C87535007536807F807EF41252507B0114
:102E80007A0979DB7535007536807F007EF2125243
:102E90005078437C047D017B017A0979DB7E007FD9
:102EA000801209407B017A0979DB7535007536801F
:102EB0007F807EF212525078497C057D017B017A39
:102EC0000979DB7E007F801209407B017A0979DB7A
:102ED0007535007536807F007EF812525078C17CBF
:102EE000047D017B017A0979DB7E007F8012094035
:102EF0007B017A0979DB7535007536807F807EF835
:102F000012525078C97C057D017B017A0979DB7EFC
:102F1000007F801209407B017A03791375350075B3
:102F200036807F007EEC1252507B017A03799375D4
:102F300035007536807F807EEC0252507F01124F43
:102F40001B7D847FBE125A5F900703EFF07D857F63
:102F5000BE125A5F900704EFF07D867FBE125A5F63
:102F6000900705EFF07D877FBE125A5F900706EF4E
:102F7000F07D887FBE125A75900707EFF07D4C7F79
:102F8000BE125A5F900708EFF07D4D7FBE125A5F68
:102F9000900709EFF07D4E7FBE125A5F90070AEF4F
:102FA000F07D4F7FBE125A5F90070BEFF07D507F90
:102FB000BE125A5F90070CEFF07D517FBE125A5F30
:102FC00090070DEFF07D527FBE125A5F90070EEF13
:102FD000F07D537FBE125A5F90070FEFF07DAE7FFA
:102FE000BE125A5F900710EFF07DAF7FBE125A5F9E
:102FF000900711EFF07DB07FBE125A5F900712EF7D
:10300000F07DB17FBE125A5F900713EFF07DB27F63
:10301000BE125A5F900714EFF07DB37FBE125A5F65
:10302000900715EFF07DB47FBE125A5F900716EF40
:10303000F07DB57FBE125A5F900717EFF0227F0137
:10304000124F957D847FB8125A75900683EFF07DFC
:10305000857FB8125A75900684EFF07D867FB8128E
:103060005A75900685EFF07D877FB8125A759006E5
:1030700086EFF07D887FB8125A75900687EFF07D55
:103080004C7FB8125A75900688EFF07D4D7FB812CC
:103090005A75900689EFF07D4E7FB8125A759006EA
:1030A0008AEFF07D4F7FB8125A7590068BEFF07D56
:1030B000507FB8125A7590068CEFF07D517FB81290
:1030C0005A7590068DEFF07D527FB8125A759006B2
:1030D0008EEFF07D537FB8125A7590068FEFF07D1A
:1030E000AE7FB8125A75900690EFF07DAF7FB812A0
:1030F0005A75900691EFF07DB07FB8125A75900620
:1031000092EFF07DB17FB8125A75900693EFF07D83
:10311000B27FB8125A75900694EFF07DB37FB81263
:103120005A75900695EFF07DB47FB8125A759006E7
:1031300096EFF07DB57FB8125A75900697EFF022A2
:103140008F34E534B40119900447E0F539A3E0F574
:103150003A753B00753C04E4F53D7FD07E348058E1
:10316000E534B40219900449E0F539A3E0F53A7565
:103170003B00753C04E4F53D7FD07E74803AE53435
:10318000B4031990044BE0F539A3E0F53A753B0020
:10319000753C04E4F53D7FD07EB4801CE534B40476
:1031A0001A90044DE0F539A3E0F53A753B00753C03
:1031B00004E4F53D7FD07EF4FD807EE534B4051B4C
:1031C0009004C5E0F539A3E0F53A753B00753C0481
:1031D000753D017FD07E347D00805EE534B4061BF2
:1031E0009004C7E0F539A3E0F53A753B00753C045F
:1031F000753D017FD07E747D00803EE534B4071BB1
:103200009004C9E0F539A3E0F53A753B00753C043C
:10321000753D017FD07EB47D00801EE534B4081E6C
:103220009004CBE0F539A3E0F53A753B00753C041A
:10323000753D017FD07EF47D007C5812477F228F40
:1032400034E534B4011990044FE0F539A3E0F53AC0
:10325000753B00753C04E4F53D7FD47E348058E531
:1032600034B40219900451E0F539A3E0F53A753B06
:1032700000753C04E4F53D7FD47E74803AE534B4B7
:103280000319900453E0F539A3E0F53A753B007556
:103290003C04E4F53D7FD47EB4801CE534B4041ACC
:1032A000900455E0F539A3E0F53A753B00753C0410
:1032B000E4F53D7FD47EF4FD807EE534B4051B90BB
:1032C00004CDE0F539A3E0F53A753B00753C047593
:1032D0003D017FD47E347D00805EE534B4061B90D2
:1032E00004CFE0F539A3E0F53A753B00753C047571
:1032F0003D017FD47E747D00803EE534B4071B9091
:1033000004D1E0F539A3E0F53A753B00753C04754E
:103310003D017FD47EB47D00801EE534B4081E904C
:1033200004D3E0F539A3E0F53A753B00753C04752C
:103330003D017FD47EF47D007C5812477F228F347C
:10334000E534B40119900457E0F539A3E0F53A7576
:103350003B00753C04E4F53D7FD87E348058E5346D
:10336000B40219900459E0F539A3E0F53A753B0031
:10337000753C04E4F53D7FD87E74803AE534B403AF
:103380001990045BE0F539A3E0F53A753B00753C14
:1033900004E4F53D7FD87EB4801CE534B4041A9073
:1033A000045DE0F539A3E0F53A753B00753C04E4B3
:1033B000F53D7FD87EF4FD807EE534B4051B900496
:1033C000D5E0F539A3E0F53A753B00753C04753D51
:1033D000017FD87E347D00805EE534B4061B900406
:1033E000D7E0F539A3E0F53A753B00753C04753D2F
:1033F000017FD87E747D00803EE534B4071B9004C5
:10340000D9E0F539A3E0F53A753B00753C04753D0C
:10341000017FD87EB47D00801EE534B4081E900480
:10342000DBE0F539A3E0F53A753B00753C04753DEA
:10343000017FD87EF47D007C5812477F228F34E5CF
:1034400034B4011990045FE0F539A3E0F53A753B17
:1034500000753C04E4F53D7FDC7E348058E534B4EF
:103460000219900461E0F539A3E0F53A753B007567
:103470003C04E4F53D7FDC7E74803AE534B4031906
:10348000900463E0F539A3E0F53A753B00753C0420
:10349000E4F53D7FDC7EB4801CE534B4041A90046E
:1034A00065E0F539A3E0F53A753B00753C04E4F5B9
:1034B0003D7FDC7EF4FD807EE534B4051B9004DDA9
:1034C000E0F539A3E0F53A753B00753C04753D0124
:1034D0007FDC7E347D00805EE534B4061B9004DF23
:1034E000E0F539A3E0F53A753B00753C04753D0104
:1034F0007FDC7E747D00803EE534B4071B9004E1E0
:10350000E0F539A3E0F53A753B00753C04753D01E3
:103510007FDC7EB47D00801EE534B4081E9004E399
:10352000E0F539A3E0F53A753B00753C04753D01C3
:103530007FDC7EF47D007C5812477F228F34E53497
:10354000B40119900467E0F539A3E0F53A753B0042
:10355000753C04E4F53D7FE07E348058E534B402E8
:1035600019900469E0F539A3E0F53A753B00753C24
:1035700004E4F53D7FE07E74803AE534B4031990AD
:10358000046BE0F539A3E0F53A753B00753C04E4C3
:10359000F53D7FE07EB4801CE534B4041A90046DE0
:1035A000E0F539A3E0F53A753B00753C04E4F53DE0
:1035B0007FE07EF4FD807EE534B4051B9004E5E0F9
:1035C000F539A3E0F53A753B00753C04753D017F84
:1035D000E07E347D00805EE534B4061B9004E7E0B5
:1035E000F539A3E0F53A753B00753C04753D017F64
:1035F000E07E747D00803EE534B4071B9004E9E072
:10360000F539A3E0F53A753B00753C04753D017F43
:10361000E07EB47D00801EE534B4081E9004EBE02B
:10362000F539A3E0F53A753B00753C04753D017F23
:10363000E07EF47D007C5812477F228F34E534B45D
:10364000011990046FE0F539A3E0F53A753B007578
:103650003C04E4F53D7FCC7E348058E534B4021957
:10366000900471E0F539A3E0F53A753B00753C0430
:10367000E4F53D7FCC7E74803AE534B403199004C0
:1036800073E0F539A3E0F53A753B00753C04E4F5C9
:103690003D7FCC7EB4801CE534B4041A900475E000
:1036A000F539A3E0F53A753B00753C04E4F53D7F40
:1036B000CC7EF4FD807EE534B4051B9004EDE0F58E
:1036C00039A3E0F53A753B00753C04753D017FCCAC
:1036D0007E347D00805EE534B4061B9004EFE0F597
:1036E00039A3E0F53A753B00753C04753D017FCC8C
:1036F0007E747D00803EE534B4071B9004F1E0F554
:1037000039A3E0F53A753B00753C04753D017FCC6B
:103710007EB47D00801EE534B4081E9004F3E0F50D
:1037200039A3E0F53A753B00753C04753D017FCC4B
:103730007EF47D007C5812477F228F33E533B4013D
:1037400019900477E0F539A3E0F53A753B00753C34
:1037500004E4F53D7FCC7E358058E533B402199002
:103760000479E0F539A3E0F53A753B00753C04E4D3
:10377000F53D7FCC7E75803AE533B4031990047B28
:10378000E0F539A3E0F53A753B00753C04E4F53DFE
:103790007FCC7EB5801CE533B4041A90047DE0F53F
:1037A00039A3E0F53A753B00753C04E4F53D7FCC68
:1037B0007EF5FD807EE533B4051B9004F5E0F53918
:1037C000A3E0F53A753B00753C04753D017FCC7E66
:1037D000357D00805EE533B4061B9004F7E0F539D3
:1037E000A3E0F53A753B00753C04753D017FCC7E46
:1037F000757D00803EE533B4071B9004F9E0F53990
:10380000A3E0F53A753B00753C04753D017FCC7E25
:10381000B57D00801EE533B4081E9004FBE0F53949
:10382000A3E0F53A753B00753C04753D017FCC7E05
:10383000F57D007C5812477F228F34E534B40115A2
:10384000900549E0F539A3E0F53A753B00753C0475
:10385000E4F53D8066E534B4021590054BE0F5399A
:10386000A3E0F53A753B00753C04E4F53D806CE55A
:1038700034B4031590054DE0F539A3E0F53A753BF6
:1038800000753C04E4F53D8072E534B40415900500
:103890004FE0F539A3E0F53A753B00753C04E4F5DB
:1038A0003D8078E534B4051B9005C9E0F539A3E007
:1038B000F53A753B00753C04753D017FD07E447D33
:1038C00003805EE534B4061B9005CBE0F539A3E038
:1038D000F53A753B00753C04753D017FD07E447D13
:1038E00013803EE534B4071B9005CDE0F539A3E025
:1038F000F53A753B00753C04753D017FD07E447DF3
:1039000023801EE534B4081E9005CFE0F539A3E00E
:10391000F53A753B00753C04753D017FD07E447DD2
:10392000337C5012477F228F34E534B40115900563
:1039300051E0F539A3E0F53A753B00753C04E4F538
:103940003D8066E534B40215900553E0F539A3E0F7
:10395000F53A753B00753C04E4F53D806CE534B404
:103960000315900555E0F539A3E0F53A753B007570
:103970003C04E4F53D8072E534B40415900557E04D
:10398000F539A3E0F53A753B00753C04E4F53D805C
:1039900078E534B4051B9005D1E0F539A3E0F53A9C
:1039A000753B00753C04753D017FD47E447D0380EA
:1039B0005EE534B4061B9005D3E0F539A3E0F53A93
:1039C000753B00753C04753D017FD47E447D1380BA
:1039D0003EE534B4071B9005D5E0F539A3E0F53A90
:1039E000753B00753C04753D017FD47E447D23808A
:1039F0001EE534B4081E9005D7E0F539A3E0F53A8A
:103A0000753B00753C04753D017FD47E447D337C5D
:103A10005012477F228F34E534B40115900559E0E8
:103A2000F539A3E0F53A753B00753C04E4F53D80BB
:103A300066E534B4021590055BE0F539A3E0F53A8C
:103A4000753B00753C04E4F53D806CE534B403152A
:103A500090055DE0F539A3E0F53A753B00753C044F
:103A6000E4F53D8072E534B4041590055FE0F53966
:103A7000A3E0F53A753B00753C04E4F53D8078E53C
:103A800034B4051B9005D9E0F539A3E0F53A753B50
:103A900000753C04753D017FD87E447D03805EE562
:103AA00034B4061B9005DBE0F539A3E0F53A753B2D
:103AB00000753C04753D017FD87E447D13803EE552
:103AC00034B4071B9005DDE0F539A3E0F53A753B0A
:103AD00000753C04753D017FD87E447D23801EE542
:103AE00034B4081E9005DFE0F539A3E0F53A753BE4
:103AF00000753C04753D017FD87E447D337C5012B7
:103B0000477F228F34E534B40115900561E0F53923
:103B1000A3E0F53A753B00753C04E4F53D8066E5AD
:103B200034B40215900563E0F539A3E0F53A753B2E
:103B300000753C04E4F53D806CE534B40315900554
:103B400065E0F539A3E0F53A753B00753C04E4F512
:103B50003D8072E534B40415900567E0F539A3E0C3
:103B6000F53A753B00753C04E4F53D8078E534B4E6
:103B7000051B9005E1E0F539A3E0F53A753B0075CA
:103B80003C04753D017FDC7E447D03805EE534B4FA
:103B9000061B9005E3E0F539A3E0F53A753B0075A7
:103BA0003C04753D017FDC7E447D13803EE534B4EA
:103BB000071B9005E5E0F539A3E0F53A753B007584
:103BC0003C04753D017FDC7E447D23801EE534B4DA
:103BD000081E9005E7E0F539A3E0F53A753B00755E
:103BE0003C04753D017FDC7E447D337C5012477F71
:103BF000228F34E534B40115900569E0F539A3E06E
:103C0000F53A753B00753C04E4F53D8066E534B457
:103C1000021590056BE0F539A3E0F53A753B0075A8
:103C20003C04E4F53D806CE534B4031590056DE08B
:103C3000F539A3E0F53A753B00753C04E4F53D80A9
:103C400072E534B4041590056FE0F539A3E0F53A58
:103C5000753B00753C04E4F53D8078E534B4051B04
:103C60009005E9E0F539A3E0F53A753B00753C04B1
:103C7000753D017FE07E447D03805EE534B4061B24
:103C80009005EBE0F539A3E0F53A753B00753C048F
:103C9000753D017FE07E447D13803EE534B4071B13
:103CA0009005EDE0F539A3E0F53A753B00753C046D
:103CB000753D017FE07E447D23801EE534B4081EFF
:103CC0009005EFE0F539A3E0F53A753B00753C044B
:103CD000753D017FE07E447D337C5012477F228F0B
:103CE00034E534B40115900571E0F539A3E0F53AF7
:103CF000753B00753C04E4F53D8066E534B402157F
:103D0000900573E0F539A3E0F53A753B00753C0486
:103D1000E4F53D806CE534B40315900575E0F539A4
:103D2000A3E0F53A753B00753C04E4F53D8072E58F
:103D300034B40415900577E0F539A3E0F53A753B06
:103D400000753C04E4F53D8078E534B4051B90052E
:103D5000F1E0F539A3E0F53A753B00753C04753D9B
:103D6000017FCC7E447D03805EE534B4061B900564
:103D7000F3E0F539A3E0F53A753B00753C04753D79
:103D8000017FCC7E447D13803EE534B4071B900553
:103D9000F5E0F539A3E0F53A753B00753C04753D57
:103DA000017FCC7E447D23801EE534B4081E90053F
:103DB000F7E0F539A3E0F53A753B00753C04753D35
:103DC000017FCC7E447D337C5012477F228F33E5C8
:103DD00033B40115900579E0F539A3E0F53A753B68
:103DE00000753C04E4F53D8066E533B402159005AA
:103DF0007BE0F539A3E0F53A753B00753C04E4F54A
:103E00003D806CE533B4031590057DE0F539A3E002
:103E1000F53A753B00753C04E4F53D8072E533B43A
:103E2000041590057FE0F539A3E0F53A753B007580
:103E30003C04E4F53D8078E533B4051B9005F9E0DA
:103E4000F539A3E0F53A753B00753C04753D017FFB
:103E5000CC7E457D03805EE533B4061B9005FBE018
:103E6000F539A3E0F53A753B00753C04753D017FDB
:103E7000CC7E457D13803EE533B4071B9005FDE005
:103E8000F539A3E0F53A753B00753C04753D017FBB
:103E9000CC7E457D23801EE533B4081E9005FFE0EF
:103EA000F539A3E0F53A753B00753C04753D017F9B
:103EB000CC7E457D337C5012477F228F33E533B46F
:103EC0000115900581E0F539A3E0F53A753B0075E1
:103ED0003C04E4F53D8066E533B40215900583E0CB
:103EE000F539A3E0F53A753B00753C04E4F53D80F7
:103EF0006CE533B40315900585E0F539A3E0F53A98
:103F0000753B00753C04E4F53D8072E533B404155F
:103F1000900587E0F539A3E0F53A753B00753C0460
:103F2000E4F53D8078E533B4051B900601E0F539F2
:103F3000A3E0F53A753B00753C04753D017F8C7E2E
:103F4000457D03805EE533B4061B900603E0F5393A
:103F5000A3E0F53A753B00753C04753D017F8C7E0E
:103F6000457D13803EE533B4071B900605E0F53927
:103F7000A3E0F53A753B00753C04753D017F8C7EEE
:103F8000457D23801EE533B4081E900607E0F53911
:103F9000A3E0F53A753B00753C04753D017F8C7ECE
:103FA000457D337C5012477F22EF24FD604614602C
:103FB00079147003024060240360030240957F027D
:103FC000124F1B7D067FBE125A5F900718EFF07DDF
:103FD000077FBE125A5F900719EFF07D087FBE126F
:103FE0005A5F90071AEFF07D097FBE125A5F900763
:103FF0001BEFF0227F03124F1B7D067FBE125A5F1C
:1040000090071CEFF07D077FBE125A5F90071DEFEF
:10401000F07D087FBE125A5F90071EEFF07D097F8A
:10402000BE125A5F90071FEFF0227F04124F1B7DD4
:10403000067FBE125A5F900720EFF07D077FBE1209
:104040005A5F900721EFF07D087FBE125A5F9007FC
:1040500022EFF07D097FBE125A5F900723EFF02216
:104060007F05124F1B7D067FBE125A5F900724EF1B
:10407000F07D077FBE125A5F900725EFF07D087F25
:10408000BE125A5F900726EFF07D097FBE125A5F7D
:10409000900727EFF022EF24FD604614607914703A
:1040A0000302414D240360030241827F02124F95B7
:1040B0007D067FB8125A75900698EFF07D077FB89D
:1040C000125A75900699EFF07D087FB8125A7590D4
:1040D000069AEFF07D097FB8125A7590069BEFF0B3
:1040E000227F03124F957D067FB8125A7590069C69
:1040F000EFF07D077FB8125A7590069DEFF07D08AE
:104100007FB8125A7590069EEFF07D097FB8125A5B
:104110007590069FEFF0227F04124F957D067FB8C1
:10412000125A759006A0EFF07D077FB8125A75906D
:1041300006A1EFF07D087FB8125A759006A2EFF045
:104140007D097FB8125A759006A3EFF0227F051201
:104150004F957D067FB8125A759006A4EFF07D0743
:104160007FB8125A759006A5EFF07D087FB8125AF5
:10417000759006A6EFF07D097FB8125A759006A7D4
:10418000EFF0228B308A318932E4F53E0532E53298
:104190007002053114F9120966F5380532E532AAC4
:1041A000317002053114F9120966F5390532E5322C
:1041B000AA317002053114F9120966F53A0532E5A3
:1041C00032AA317002053114F9120966F53BE53760
:1041D000F53CE536F53D9009DAE0FF7BFF7D7F1287
:1041E000588B9009DAE0FFAB3B7D8012588B900929
:1041F000DAE0FFAB3A7D8112588B9009DAE0FFAB31
:10420000397D8212588B9009DAE0FFAB387D83123A
:10421000588B9009DAE0FFAB3C7D8412588B9009F3
:10422000DAE0FFAB3D7D8512588B9009DAE0FF7B29
:10423000017D8612588BE4F53EE53EC3953C502047
:104240009009DAE0FF7D90125A5FAB330535E53512
:10425000AA347002053414F9EF12097F053E80D9A3
:10426000228B308A3189320532E5327002053114F1
:10427000F9120966F5380532E532AA3170020531C6
:1042800014F9120966F5390532E532AA31700205D2
:104290003114F9120966F53A0532E532AA31700295
:1042A000053114F9120966F53BE537F53CE536F5BD
:1042B0003D9009DAE0FF7BFF7D7F12588B9009DA91
:1042C000E0FFAB3B7D8012588B9009DAE0FFAB3A00
:1042D0007D8112588B9009DAE0FFAB397D8212584C
:1042E0008B9009DAE0FFAB387D8312588B9009DAA6
:1042F000E0FFAB3C7D8412588B9009DAE0FFAB3DC8
:104300007D8512588B9009DAE0FF7B037D86125879
:104310008BE4F53EE53EC3953C50209009DAE0FF82
:10432000AB330535E535AA347002053414F91209AA
:1043300066FB7D8712588B053E80D922E4F530F567
:1043400031FFFEF532E4F530F5310531E53170022B
:104350000530B44CF5E530B404F00FBF00010EBEDB
:1043600027E3BF10E01249BFEF64034E70057532BA
:1043700001801C0531E53170020530C39464E530DD
:10438000940040E1E4F530F531F53290097DF0E438
:10439000F5377F207ECBFD7C521249CA900980EE12
:1043A000F0A3EFF01249BF90097EEEF0A3EFF0E525
:1043B0003264017040FF125364E4F5377F807EC899
:1043C000FD7C521249CAE4B50709EEB41A057532EC
:1043D0000280220531E53170020530C39488E53052
:1043E000941340D5900985E530F0A3E531F0E4F56C
:1043F00030F531F532E532B402137FF47E01125804
:104400003012511C12546612516C1254A290097D44
:10441000E532F022EF24FD603F14606A147003025D
:1044200044B4240360030244E97F02124F1B900747
:1044300018E0FB7D067FBE12588B900719E0FB7DCC
:10444000077FBE12588B90071AE0FB7D087FBE12D3
:10445000588B90071B0244E07F03124F1B90071CF0
:10446000E0FB7D067FBE12588B90071DE0FB7D07A9
:104470007FBE12588B90071EE0FB7D087FBE12584E
:104480008B90071F805A7F04124F1B900720E0FB80
:104490007D067FBE12588B900721E0FB7D077FBE13
:1044A00012588B900722E0FB7D087FBE12588B903C
:1044B0000723802C7F05124F1B900724E0FB7D060D
:1044C0007FBE12588B900725E0FB7D077FBE1258F8
:1044D0008B900726E0FB7D087FBE12588B90072744
:1044E000E0FB7D097FBE12588B22EF24FD603F1454
:1044F000606A14700302458A240360030245BF7F8B
:1045000002124F95900698E0FB7D067FB81258A8DE
:10451000900699E0FB7D077FB81258A890069AE0B4
:10452000FB7D087FB81258A890069B0245B67F0312
:10453000124F9590069CE0FB7D067FB81258A8901C
:10454000069DE0FB7D077FB81258A890069EE0FB11
:104550007D087FB81258A890069F805A7F04124F9A
:10456000959006A0E0FB7D067FB81258A89006A1A2
:10457000E0FB7D077FB81258A89006A2E0FB7D08FB
:104580007FB81258A89006A3802C7F05124F9590F3
:1045900006A4E0FB7D067FB81258A89006A5E0FBB4
:1045A0007D077FB81258A89006A6E0FB7D087FB86B
:1045B0001258A89006A7E0FB7D097FB81258A822E0
:1045C000E4FF124F1B7D027FBE125A5F9006F1EF8F
:1045D000F07D067FBE125A5F9006F2EFF07D097FF4
:1045E000BE125A5F9006F3EFF07D0A7FBE125A5F4B
:1045F0009006F4EFF07D0F7FBE125A5F9006F5EF44
:10460000F07D107FBE125A5F9006F6EFF07D187FA6
:10461000BE125A5F9006F7EFF07D1A7FBE125A5F06
:104620009006F8EFF07D207FBE125A5F9006F9EFFA
:10463000F07D217FBE125A5F9006FAEFF07D557F24
:10464000BE125A5F9006FCEFF07D577FBE125A5F94
:104650009006FDEFF07D597FBE125A5F9006FEEF87
:10466000F07D727FBE125A5F9006FFEFF07DBD7F36
:10467000BE125A5F900700EFF07DBE7FBE125A5FF8
:10468000900701EFF07DD17FBE125A5F900702EFD5
:10469000F022E4FF124F957D027FB8125A75900602
:1046A00071EFF07D067FB8125A75900672EFF07DBB
:1046B000097FB8125A75900673EFF07D0A7FB81221
:1046C0005A75900674EFF07D0F7FB8125A759006F8
:1046D00075EFF07D107FB8125A75900676EFF07D79
:1046E000187FB8125A75900677EFF07D1A7FB812CE
:1046F0005A75900678EFF07D207FB8125A759006B3
:1047000079EFF07D217FB8125A7590067AEFF07D2F
:10471000557FB8125A7590067CEFF07D577FB8121E
:104720005A7590067DEFF07D597FB8125A75900644
:104730007EEFF07D727FB8125A7590067FEFF07DA4
:10474000BD7FB8125A75900680EFF07DBE7FB8121B
:104750005A75900681EFF07DD17FB8125A75900698
:1047600082EFF022900505E0F539A3E0F53A753BBC
:1047700000753C04753D017D007F287E187C588FB4
:10478000388E378D368C358F417808120A248F4049
:10479000AF38AE37AD36AC357810120A248F3FAF44
:1047A00038AE37AD36AC357818120A248F3EE53C6A
:1047B000F545E53BF546853A42E539F543E53D707B
:1047C000057544A080037544A27BFF7D7FAF441232
:1047D000588BAB417D80AF4412588BAB407D81AF8D
:1047E0004412588BAB3F7D82AF4412588BAB3E7D59
:1047F00083AF4412588BAB457D84AF4412588BABCA
:10480000467D85AF4412588B7B037D86AF4412589A
:104810008BAB427D87AF4412588BAB437D87AF444F
:1048200012588BE4FB7D87AF4412588BE4FB7D87E5
:10483000AF4402588BE4FF124F1B9006F1E0FB7D62
:10484000027FBE12588B9006F2E0FB7D067FBE12FF
:10485000588B9006F3E0FB7D097FBE12588B9006C3
:10486000F4E0FB7D0A7FBE12588B9006F5E0FB7DDD
:104870000F7FBE12588B9006F6E0FB7D107FBE12B4
:10488000588B9006F7E0FB7D187FBE12588B900680
:10489000F8E0FB7D1A7FBE12588B9006F9E0FB7D95
:1048A000207FBE12588B9006FAE0FB7D217FBE125E
:1048B000588B9006FCE0FB7D557FBE12588B90060E
:1048C000FDE0FB7D577FBE12588B9006FEE0FB7D1E
:1048D000597FBE12588B9006FFE0FB7D727FBE129F
:1048E000588B900700E0FB7DBD7FBE12588B900770
:1048F00001E0FB7DBE7FBE02588BE4FF124F959016
:104900000671E0FB7D027FB81258A8900672E0FBAA
:104910007D067FB81258A8900673E0FB7D097FB82A
:104920001258A8900674E0FB7D0A7FB81258A89030
:104930000675E0FB7D0F7FB81258A8900676E0FB65
:104940007D107FB81258A8900677E0FB7D187FB8DD
:104950001258A8900678E0FB7D1A7FB81258A890EC
:104960000679E0FB7D207FB81258A890067AE0FB1C
:104970007D217FB81258A890067CE0FB7D557FB85A
:104980001258A890067DE0FB7D577FB81258A8907A
:10499000067EE0FB7D597FB81258A890067FE0FBA9
:1049A0007D727FB81258A8900680E0FB7DBD7FB86D
:1049B0001258A8900681E0FB7DBE7FB80258A8E49B
:1049C000F5377F047E447D037C508F368E358D34E1
:1049D0008C33E4F53D8F3B7808120A248F3AAF36CA
:1049E000AE35AD34AC337810120A248F39AF36AE01
:1049F00035AD34AC337818120A248F38E53770059A
:104A0000753CA08003753CA27BFF7D7FAF3C1258B4
:104A10008BAB3B7D80AF3C12588BAB3A7D81AF3C7A
:104A200012588BAB397D82AF3C12588BAB387D83EB
:104A3000AF3C12588B7B047D84AF3C12588BE4FB57
:104A40007D85AF3C12588B7B017D86AF3C12588B25
:104A50007D90AF3C125A5F8F3E7D90AF3C125A5F03
:104A60008F3F7D90AF3C125A5F8F407D90AF3C12DC
:104A70005A5F8F40E53F7F00FEEF253EFFE43EFE9C
:104A8000227F01124F1B900703E0FB7D847FBE1243
:104A9000588B900704E0FB7D857FBE12588B9007F2
:104AA00005E0FB7D867FBE12588B900706E0FB7DFC
:104AB000877FBE12588B900707E0FB7D887FBE1270
:104AC000588B900710E0FBA3E0F5337DAE7FBE125C
:104AD0005756900712E0FBA3E0F5337DB07FBE127E
:104AE0005756900714E0FBA3E0F5337DB27FBE126A
:104AF0005756900716E0FBA3E0F5337DB47FBE1256
:104B00005756900708E0FBA3E0F5337D4C7FBE12BB
:104B1000575690070AE0FBA3E0F5337D4E7FBE12A7
:104B2000575690070CE0FBA3E0F5337D507FBE1293
:104B3000575690070EE0FBA3E0F5337D527FBE028F
:104B400057567F01124F95900683E0FB7D847FB816
:104B50001258A8900684E0FB7D857FB81258A89073
:104B60000685E0FB7D867FB81258A8900686E0FB9C
:104B70007D877FB81258A8900687E0FB7D887FB8B4
:104B80001258A8900690E0FBA3E0F5337DAE7FB805
:104B900012577B900692E0FBA3E0F5337DB07FB81F
:104BA00012577B900694E0FBA3E0F5337DB27FB80B
:104BB00012577B900696E0FBA3E0F5337DB47FB8F7
:104BC00012577B900688E0FBA3E0F5337D4C7FB85D
:104BD00012577B90068AE0FBA3E0F5337D4E7FB849
:104BE00012577B90068CE0FBA3E0F5337D507FB835
:104BF00012577B90068EE0FBA3E0F5337D527FB821
:104C000002577B9008D5E064016003024CB1900824
:104C1000CBE024FB601824FE605124066003024CA4
:104C2000AC9008DBE090017FF0122682807EE4FFEA
:104C3000FE9008D9E0FDC3EF9DEE9400502874DB90
:104C40002FF58274083EF583E0FD9008D8E02FFB35
:104C5000E43EFA74002BF58274013AF583EDF00F0F
:104C6000BF00010E80CB1253E780419008D9E0FFCE
:104C70009008D8E0FD2FFFE433FED3EF9400EE64FC
:104C80008094814005EDF404A3F09008D9E0FF7E04
:104C9000009008D8E02400F9E43401A801FC7D016B
:104CA0007B017A0879DB120940120076E49008D57E
:104CB000F0229000117410F0A3F0A3F0A3F0A3F081
:104CC000A3F0A3F0A3F0E4A3F0900011E09000CED5
:104CD000F0900012E09000CFF0900013E09000D030
:104CE000F0900014E09000D1F0900015E09000D218
:104CF000F0900016E09000D3F0900017E09000D400
:104D0000F0900018E09000D5F090002074FFF09033
:104D100000DDF0900021F09000DEF09000807444FF
:104D2000F0A3F0A3F0A3F090000074FFF0E4A3F070
:104D300090001C7455F0A3F0A3F0A3F0900022742F
:104D400033F0A3F0A3F0A3F0E4A3F0A3F0A3F0A347
:104D5000F0A37477F0A3F0A3F0A3F022E4FB7DDED0
:104D60007FBE12588BE4FB7DDF7FBE12588B7BFA2F
:104D70007DD17FBE12588B7B017D737FBE12588B15
:104D80007B407D727FBE12588BE4F530AD307FFAE8
:104D9000125A5F74482530F582E43407F583EFF04A
:104DA0000530E530C3944040E3E4FB7DDE7FB8127C
:104DB00058A8E4FB7DDF7FB81258A87BFA7DD17F2D
:104DC000B81258A87B017D737FB81258A87B407D2C
:104DD000727FB81258A8753040E53024C0FD7FFAC4
:104DE000125A7574482530F582E43407F583EFF0E4
:104DF0000530E530C3948040E022E4F52CF52DF534
:104E00002EF52F1255FD1256E412570B1257311280
:104E10005B5B7E007F807D007B017A037993120AC1
:104E20005E124D5C125078125B8312433C125A8B17
:104E3000D3E52D9458E52C94024005E4F52CF52D8E
:104E4000052DE52D7002052C12500F9003EAE0B4F9
:104E5000AA0AE4F09003E9E0FF125298900388E078
:104E6000B4AA0812591BE4900388F0900983E0B4B7
:104E7000AA08125B77E4900983F090011AE0B40865
:104E80000375EF12125A8B124C0380A412003A7869
:104E90007FE4F6D8FD758147024ED6024DFAE493C1
:104EA000A3F8E493A34003F68001F208DFF480291D
:104EB000E493A3F85407240CC8C333C4540F44200C
:104EC000C8834004F456800146F6DFE4800B0102FB
:104ED000040810204080901029E47E019360BCA358
:104EE000FF543F30E509541FFEE493A360010ECF49
:104EF00054C025E060A840B8E493A3FAE493A3F873
:104F0000E493A3C8C582C8CAC583CAF0A3C8C58232
:104F1000C8CAC583CADFE9DEE780BEEFB407005028
:104F200073904F28F8282873024F3D024F41024FDB
:104F30004E024F5B024F68024F75024F82E4FB80C6
:104F4000027B807DDE7FBE12588BE4FB803FE4FB5A
:104F50007DDE7FBE12588B7B018032E4FB7DDE7FDD
:104F6000BE12588B7B028025E4FB7DDE7FBE12588B
:104F70008B7B048018E4FB7DDE7FBE12588B7B08A0
:104F8000800BE4FB7DDE7FBE12588B7B107DDF7FC4
:104F9000BE12588B22EFB407005073904FA2F8282E
:104FA0002873024FB7024FBB024FC8024FD5024FC2
:104FB000E2024FEF024FFCE4FB80027B807DDE7F4C
:104FC000B81258A8E4FB803FE4FB7DDE7FB812589E
:104FD000A87B018032E4FB7DDE7FB81258A87B02FB
:104FE0008025E4FB7DDE7FB81258A87B048018E49E
:104FF000FB7DDE7FB81258A87B08800BE4FB7DDECA
:105000007FB81258A87B107DDF7FB81258A8229075
:10501000096AE06401706090097BE09009DA70042D
:1050200074A0800274A2F090097CF0900969E0708D
:105030001E75330175340975355F900967E0F536E3
:10504000A3E0F5377B017A09795B124261802390F6
:105050000969E0B4011C7533017534097535639035
:105060000967E0F536A3E0F5377B017A09795B1231
:105070004183E490096AF02212580EE4FF124F1B9C
:105080007B217D067FBE1258A8124A811248357FC7
:10509000021244147F031244147F041244147F0547
:1050A000124414E4FF124F957B217D067FB81258FD
:1050B000A8124B427F021244EA7F031244EA7F04A3
:1050C0001244EA7F051244EA022A56E4900291F063
:1050D000A3F0F530F531AF31AE301259EB7E0090D0
:1050E0000292E02FF0900291E03EF00531E5317040
:1050F000020530C3E53094E840DC900291E0FFA364
:10510000E090038BCFF0A3EFF07B017A0379137566
:1051100037007538807F007EEC0252087F011258FC
:105120004F7F0212584F7F0312584F7F0412584F7F
:105130007F0112373A7F0212373A7F0312373A7FE4
:105140000412373A7F011228887F021228887F03D1
:105150001228887F041228887F01120BAD7F02126B
:105160000BAD7F03120BAD7F04020BAD7F05125810
:105170004F7F0612584F7F0712584F7F0812584F23
:105180007F0512373A7F0612373A7F0712373A7F88
:105190000812373A7F051228887F061228887F0771
:1051A0001228887F081228887F05120BAD7F06120F
:1051B0000BAD7F07120BAD7F08020BAD7B017A04AC
:1051C00079237535007536107F007EEE1252507BC4
:1051D000017A0479337535007536107F107EEE1232
:1051E00052507B017A0279007535007536107F20A8
:1051F0007EEE1252507B017A0479137535007536B4
:10520000107F407EEE0252508E328F338B348A35BF
:105210008936E4F539F53A7D5512003EE4F539F565
:105220003AC3E53A9538E53995375023E533253AC1
:10523000FFE5323539FEAB340536E536AA35700266
:1052400005351254DE053AE53A70D6053980D2228A
:105250008E308F318B328A338934E4F537F538F567
:1052600037F538C3E5389536E53795355029E531BA
:105270002538FFE5303537FE1259EBAB320534E502
:1052800034AA337002053314F9EF12097F0538E5AB
:105290003870D0053780CC22EF30E004D2968002FF
:1052A000C296EF30E104D2B18002C2B1EF30E20425
:1052B000D2818002C281EF30E304D2948002C29492
:1052C000EF30E404D2948002C294EF30E504D28639
:1052D0008002C286EF30E603D29522C29522C2D563
:1052E000E830E70FB2D5E4C39BFBE49AFAE499F9FE
:1052F000E498F8EC30E717B2D5125314120B1BE404
:10530000C39BFBE49AFAE499F9E498F88003120B42
:105310001B30D50DE4C39FFFE49EFEE49DFDE49C9D
:10532000FC228E308F318B328A338934E4F537F5A5
:1053300038F537F538C3E5389536E53795355023D8
:10534000E5312538FFE5303537FEAB320534E5343D
:10535000AA33700205331254DE0538E53870D605DD
:105360003780D222EF700C75391AF53AF53B753C4F
:1053700004800D75391A753A00753B00753C04E4DC
:10538000F53D7F7C7EC8FD7C5212477F75390075E4
:105390003A01753B00753C04E4F53D7F847EC8FD11
:1053A0007C5212477F22A907125AEE125AFEAF0111
:1053B000AD07AC05C2911259397B07EDA8030880EF
:1053C00002C313D8FC5401FC6004D2908002C29046
:1053D000D291125942125942C2911259421BC3EB47
:1053E0006480948050D52290017AE0FFB49316A394
:1053F000E0B47811A3E0B4CC0CA3E0B4AE079008FD
:10540000C97401F022EFB43A1890017BE0B418118E
:10541000A3E0B4B60CA3E0B46F079008C97402F01F
:1054200022E49008C9F022A907125ACC125ADCAF24
:1054300001AD07AC051259377B07EDA803088002C0
:10544000C313D8FC5401FC6004D2B28002C2B2D2B1
:10545000B3125942125942C2B31259421BC3EB64F0
:1054600080948050D5227F0112586D7F0212586DB2
:105470007F0312586D7F0412586D7F01123DCD7F5E
:1054800002123DCD7F03123DCD7F04123DCD7F0141
:10549000123EBB7F02123EBB7F03123EBB7F040263
:1054A0003EBB7F0512586D7F0612586D7F0712585C
:1054B0006D7F0812586D7F05123DCD7F06123DCDE0
:1054C0007F07123DCD7F08123DCD7F05123EBB7F89
:1054D00006123EBB7F07123EBB7F08023EBB14F99B
:1054E000120966FD7B55ACA7A2AF9201E4F5A7C2F5
:1054F000AF75FF8075EF028F828E83BB550975B73C
:10550000A575B7F1438F0175FF8075EF02EDF0537C
:105510008FFEA20192AF8CA722E4FDC291125939ED
:105520007C07125942D291125942125942A29092CA
:1055300001A201E433FFA804088002C333D8FC426F
:1055400005C2911259421CC3EC6480948050D3AFC1
:105550000522125431125569D2B3125942125ACC53
:10556000125ADCE904FF125431125942D2B31259D3
:105570004212594230B209C2B3125942C2B2800734
:10558000C2B3125942D2B2125942221253B012552A
:10559000A2D291125942125AEE125AFEE904FF1297
:1055A00053B0125942D291125942125942309009C5
:1055B000C291125942C2908007C291125942D290B0
:1055C000125942227B017A01790075350175360046
:1055D0007F007EE81252507B017A02791175350006
:1055E0007536807F007EEA1252507B017A027993F1
:1055F0007535007536807F807EEA02525085A7306F
:10560000125B99125BA3125BAD125B6A125BF6121E
:105610005BB7125A9E125BFD125BD3125BDA125B10
:105620002A125AB1125B4B125BE1125BE8125BEF7C
:105630008530A722125B08E4FF1214847F01121444
:10564000847F021214847F03121484125B19E4FF16
:1056500012185E7F0112185E7F0212185E7F03022D
:10566000185E125690E4FF121C387F01121C387F1E
:1056700002121C387F03121C381256BAE4FF121FA4
:10568000CA7F01121FCA7F02121FCA7F03021FCAEC
:10569000E4FF125BC1E4FD7F20125A5F900848EFDF
:1056A000F07D017F20125A5F900849EFF07D037F63
:1056B00020125A5F90084AEFF022E4FF125BCAE41E
:1056C000FD7F20125A759007C8EFF07D017F2012F0
:1056D0005A759007C9EFF07D037F20125A75900725
:1056E000CAEFF0221255C4122E3290038BE0FCA3B5
:1056F000E0FDEC9001F8F0A3EDF0A37402F0A374C8
:1057000014F01257EA124CB20251BC7F647E0012B0
:105710005830C292D2817F147E00125830D296D275
:10572000B1C294C286C2957F057E00125830D295D0
:105730002290FFD5E493FE90FFD4E493FDEEFCE4C9
:105740001207B67BD77AA37930783F1206AB1207DF
:10575000EF8E0C8F0D228D31125AD5AF04125431B9
:10576000125569AF31125431125569AF01125431DB
:10577000125569AF331259B9025ACC8D31125AF70A
:10578000AF041253B01255A2AF311253B01255A24A
:10579000AF011253B01255A2AF331259D2025AEED2
:1057A000E4FF125BC17BAA7D027F2012588B7F0A27
:1057B0007E00125830E4FB7D027F2012588B7F0A56
:1057C0007E00025830E4FF125BCA7BAA7D027F2074
:1057D0001258A87F0A7E00125830E4FB7D027F2019
:1057E0001258A87F0A7E000258307E007F547D0048
:1057F0007B017A017900120A5E900180E09001003D
:10580000F0A37427F0A37401F0A37407F0227F06BD
:10581000124F1B900748E0FB7D027FBE12588B7F22
:1058200006124F95900788E0FB7D027FB80258A8CA
:10583000AD07AC06E4FBFAC3EB9DEC6480F8EA64C8
:105840008098500A125B3B0BBB00010A80E9228F53
:1058500033123140AF3312323FAF3312333EAF33E6
:1058600012343DAF3312353CAF3302363B8F331227
:105870003839AF33123927AF33123A15AF33123BF1
:1058800003AF33123BF1AF33023CDF8D47125AD5E1
:10589000AF04125431125569AF4712543112556991
:1058A000AF011259B9025ACC8D31125AF7AF041216
:1058B00053B01255A2AF311253B01255A2AF01121C
:1058C00059D2025AEE7F021240967F031240967F11
:1058D000041240967F0512409612469212303E0204
:1058E0002CF47F02123FA97F03123FA97F04123FCD
:1058F000A97F05123FA91245C0122F3C022BB6AD5D
:1059000007E4FBFAEDFFC3EB9F7480F86A98500A36
:105910001259420BBB00010A80EA221250CB9003BD
:105920008BE0FCA3E0FDEC9001F8F0A3EDF0A37494
:1059300002F0A37414F022C2B31259421259421257
:105940005942E4FFFE0FBF00010EEF64044E70F5F4
:1059500022125942D2B2125942D2B31259421259AA
:1059600042C2B3125942C2B2025942125942D290B3
:10597000125942D291125942125942C291125942BD
:10598000C2900259421248FA124B427F021244EA74
:105990007F031244EA7F041244EA7F050244EA12BC
:1059A0004835124A817F021244147F031244147F47
:1059B000041244147F05024414125431125569C272
:1059C000B27F021258FFD2B37F021258FFD2B20246
:1059D00059421253B01255A2C2907F021258FFD200
:1059E000917F021258FFD290025942ADA7A2AF9206
:1059F00001C2AFE4F5A78F828E8393FFA20192AF1D
:105A00008DA722125B08E4FF1214847F0112148414
:105A10007F021214847F03021484125B19E4FF12C4
:105A2000185E7F0112185E7F0212185E7F03021853
:105A30005E125690E4FF121C387F01121C387F0260
:105A4000121C387F03021C381256BAE4FF121FCA18
:105A50007F01121FCA7F02121FCA7F03021FCA8D55
:105A600041125427125569AF4112555212000312C8
:105A70005AC4AF04228D311253A61255A2AF31126F
:105A8000558B125519125AE6AF0422AFA7E4F5A7B9
:105A900020870543C180800353C17F8FA72275B241
:105AA0008075BB1475DF1F75BC1875B90443E88198
:105AB00022AF885388AF758CF1EF5440FEEF54103D
:105AC0004E428822AC071259511259BFD2B3D2B2FA
:105AD0007F010258FFAC07A903125ACC125942C2E7
:105AE000B27F020258FFAC0712596B1259D8D291FB
:105AF000D2907F010258FFAC07A903125AEE125947
:105B000042C2907F020258FFE4FF125BC190084A34
:105B1000E0FB7D037F2002588BE4FF125BCA9007F5
:105B2000CAE0FB7D037F200258A8E4F5A9E5A9306F
:105B3000E7FB75A903E5A930E7FB22E4FFFE000FB0
:105B4000BF00010EBE17F7BF70F422E59154045355
:105B500091FB7593157592A04291227E007F807D06
:105B6000007B017A09795B020A5E75A60475A7209D
:105B700075F30775CC0C2212511C12546612516C2D
:105B80000254A21257A01257C5125634025662533D
:105B9000C17F43C18053917F32E4F5A77597DE75CD
:105BA00097AD2275A46275F1FE75D4FF2275A574B8
:105BB00075F27775D5FF22E4F5A775E34075E1042A
:105BC00022AB077DFF7F2002588BAB077DFF7F2034
:105BD0000258A875A71075C12022E4F5A775EF0635
:105BE00022758E017589022275D7A043C11C2275CA
:105BF000E68375A88022759C0275F49F2275D1807A
:105C000022FFFFFFFFFFFFFFFFFFFFFFFFFFFFFF81
:105C1000FFFFFFFFFFFFFFFFFFFFFFFFFFFFFFFF94
:105C2000FFFFFFFFFFFFFFFFFFFFFFFFFFFFFFFF84
:105C3000FFFFFFFFFFFFFFFFFFFFFFFFFFFFFFFF74
:105C4000FFFFFFFFFFFFFFFFFFFFFFFFFFFFFFFF64
:10E8000018000000000000000000000000000000F0
:10E8100000000000000000000000000000000000F8
:10E8200000000000000000000000000000000000E8
:10E8300000000000000000000000000000000000D8
:10E8400000000000000000000000000000000000C8
:10E8500000000000000100000000000000000000B7
:10E8600000000000000000000000000000000000A8
:10E87000000000000000FFFFFFFFFFFFFFFF0000A0
:10E88000184C555853484152452D49435420202097
:10E89000203C18A000000000000000000000000064
:10E8A0000000000000000000000000000000000068
:10E8B0000000000000000000000000000000000058
:10E8C0000000000000000000000000000000000048
:10E8D0000000000000000000000000000000000038
:10E8E000FFFFFFFFFFFFFFFFFFFFFFFFFFFFFFFF38
:10E8F000FFFFFFFFFFFFFFFFFFFFFFFFFFFFFFFF28
:10E90000FFFFFFFFFFFFFFFFFFFFFFFFFFFFFFFF17
:10E91000FFFFFFFFFFFFFFFFFFFFFFFFFFFFFFFF07
:10E92000FFFFFFFFFFFFFFFFFFFFFFFFFFFFFFFFF7
:10E93000FFFFFFFFFFFFFFFFFFFFFFFFFFFFFFFFE7
:10E94000FFFFFFFFFFFFFFFFFFFFFFFFFFFFFFFFD7
:10E95000FFFFFFFFFFFFFFFFFFFFFFFFFFFFFFFFC7
:10E96000FFFFFFFFFFFFFFFFFFFFFFFFFFFFFFFFB7
:10E97000FFFFFFFFFFFFFFFFFFFFFFFFFFFFFFFFA7
:10E98000FFFFFFFFFFFFFFFFFFFFFFFFFFFFFFFF97
:10E99000FFFFFFFFFFFFFFFFFFFFFFFFFFFFFFFF87
:10E9A000FFFFFFFFFFFFFFFFFFFFFFFFFFFFFFFF77
:10E9B000FFFFFFFFFFFFFFFFFFFFFFFFFFFFFFFF67
:10E9C000FFFFFFFFFFFFFFFFFFFFFFFFFFFFFFFF57
:10E9D000FFFFFFFFFFFFFFFFFFFFFFFFFFFFFFFF47
:10E9E000FFFFFFFFFFFFFFFFFFFFFFFFFFFFFFFF37
:10E9F000FFFFFFFFFFFFFFFFFFFFFFFFFFFFFFFF27
:10EA000002150200000032230000426807D0040A09
:10EA100088604600000000000000000000000000C8
:10EA200000000000000000000000000000000000E6
:10EA30000111FF0111FF00000000000000000000B4
:10EA400000000000000000000000000000000000C6
:10EA500000000000000000000000000000000000B6
:10EA600000000000000000000000000000000000A6
:10EA70000000000000000000000000000000001185
:10EA80008000000000000000000000000000000006
:10EA90000000000000000000000000000000000076
:10EAA0000000000000000000000000000000000066
:10EAB0000000000000000000000000000000000056
:10EAC0000000000000000000000000000000000046
:10EAD0000000000000000000000000000000000036
:10EAE0000000000000000000000000000000000026
:10EAF0000000000000000000000000000000000016
:10EB0000FFFFFFFFFFFFFFFFFFFFFFFFFFFFFFFF15
:10EB1000FFFFFFFFFFFFFFFFFFFFFFFFFFFFFFFF05
:10EB2000FFFFFFFFFFFFFFFFFFFFFFFFFFFFFFFFF5
:10EB3000FFFFFFFFFFFFFFFFFFFFFFFFFFFFFFFFE5
:10EB4000FFFFFFFFFFFFFFFFFFFFFFFFFFFFFFFFD5
:10EB5000FFFFFFFFFFFFFFFFFFFFFFFFFFFFFFFFC5
:10EB6000FFFFFFFFFFFFFFFFFFFFFFFFFFFFFFFFB5
:10EB7000FFFFFFFFFFFFFFFFFFFFFFFFFFFFFFFFA5
:10EB8000FFFFFFFFFFFFFFFFFFFFFFFFFFFFFFFF95
:10EB9000FFFFFFFFFFFFFFFFFFFFFFFFFFFFFFFF85
:10EBA000FFFFFFFFFFFFFFFFFFFFFFFFFFFFFFFF75
:10EBB000FFFFFFFFFFFFFFFFFFFFFFFFFFFFFFFF65
:10EBC000FFFFFFFFFFFFFFFFFFFFFFFFFFFFFFFF55
:10EBD000FFFFFFFFFFFFFFFFFFFFFFFFFFFFFFFF45
:10EBE000FFFFFFFFFFFFFFFFFFFFFFFFFFFFFFFF35
:10EBF000FFFFFFFFFFFFFFFFFFFFFFFFFFFFFFFF25
:10EC000001000000010000010000000100000001FF
:10EC100000000001000000010000000100000001F0
:10EC200000000001000000010000000100000001E0
:10EC300000000001000000008001000080010000D1
:10EC4000800100008001004600010001000000007A
:10EC500000000000000000000000000000000000B4
:10EC600000000000000000000000000000000000A4
:10EC70000000000000000000000000000000000094
:10EC8000010000000100000100000001000000017F
:10EC90000000000100000001000000010000000170
:10ECA0000000000100000001000000010000000160
:10ECB0000000000100000000800100008001000051
:10ECC0008001000080010000000000000000000042
:10ECD000FFFFFFFFFFFFFFFFFFFFFFFFFFFFFFFF44
:10ECE000FFFFFFFFFFFFFFFFFFFFFFFFFFFFFFFF34
:10ECF000FFFFFFFFFFFFFFFFFFFFFFFFFFFFFFFF24
:10ED0000FFFFFFFFFFFFFFFFFFFFFFFFFFFFFFFF13
:10ED1000FFFFFFFFFFFFFFFFFFFFFFFFFFFFFFFF03
:10ED2000FFFFFFFFFFFFFFFFFFFFFFFFFFFFFFFFF3
:10ED3000FFFFFFFFFFFFFFFFFFFFFFFFFFFFFFFFE3
:10ED4000FFFFFFFFFFFFFFFFFFFFFFFFFFFFFFFFD3
:10ED5000FFFFFFFFFFFFFFFFFFFFFFFFFFFFFFFFC3
:10ED6000FFFFFFFFFFFFFFFFFFFFFFFFFFFFFFFFB3
:10ED7000FFFFFFFFFFFFFFFFFFFFFFFFFFFFFFFFA3
:10ED8000FFFFFFFFFFFFFFFFFFFFFFFFFFFFFFFF93
:10ED9000FFFFFFFFFFFFFFFFFFFFFFFFFFFFFFFF83
:10EDA000FFFFFFFFFFFFFFFFFFFFFFFFFFFFFFFF73
:10EDB000FFFFFFFFFFFFFFFFFFFFFFFFFFFFFFFF63
:10EDC000FFFFFFFFFFFFFFFFFFFFFFFFFFFFFFFF53
:10EDD000FFFFFFFFFFFFFFFFFFFFFFFFFFFFFFFF43
:10EDE000FFFFFFFFFFFFFFFFFFFFFFFFFFFFFFFF33
:10EDF000FFFFFFFFFFFFFFFFFFFFFFFFFFFFFFFF23
:10EE00000C1316191C1F2326292C2F3236393C3F90
:10EE100003070B0F13171B1F23272B2F33373B3FE2
:10EE20000003060A0E141A1E23282D32373C3E3FDB
:10EE30009378CCAE0000000000000000000000004D
:10EE400003070B0F13171B1F23272B2F33373B3FB2
:10EE5000FFFFFFFFFFFFFFFFFFFFFFFFFFFFFFFFC2
:10EE6000FFFFFFFFFFFFFFFFFFFFFFFFFFFFFFFFB2
:10EE7000FFFFFFFFFFFFFFFFFFFFFFFFFFFFFFFFA2
:10EE8000FFFFFFFFFFFFFFFFFFFFFFFFFFFFFFFF92
:10EE9000FFFFFFFFFFFFFFFFFFFFFFFFFFFFFFFF82
:10EEA000FFFFFFFFFFFFFFFFFFFFFFFFFFFFFFFF72
:10EEB000FFFFFFFFFFFFFFFFFFFFFFFFFFFFFFFF62
:10EEC000FFFFFFFFFFFFFFFFFFFFFFFFFFFFFFFF52
:10EED000FFFFFFFFFFFFFFFFFFFFFFFFFFFFFFFF42
:10EEE000FFFFFFFFFFFFFFFFFFFFFFFFFFFFFFFF32
:10EEF000FFFFFFFFFFFFFFFFFFFFFFFFFFFFFFFF22
:10EF0000FFFFFFFFFFFFFFFFFFFFFFFFFFFFFFFF11
:10EF1000FFFFFFFFFFFFFFFFFFFFFFFFFFFFFFFF01
:10EF2000FFFFFFFFFFFFFFFFFFFFFFFFFFFFFFFFF1
:10EF3000FFFFFFFFFFFFFFFFFFFFFFFFFFFFFFFFE1
:10EF4000FFFFFFFFFFFFFFFFFFFFFFFFFFFFFFFFD1
:10EF5000FFFFFFFFFFFFFFFFFFFFFFFFFFFFFFFFC1
:10EF6000FFFFFFFFFFFFFFFFFFFFFFFFFFFFFFFFB1
:10EF7000FFFFFFFFFFFFFFFFFFFFFFFFFFFFFFFFA1
:10EF8000FFFFFFFFFFFFFFFFFFFFFFFFFFFFFFFF91
:10EF9000FFFFFFFFFFFFFFFFFFFFFFFFFFFFFFFF81
:10EFA000FFFFFFFFFFFFFFFFFFFFFFFFFFFFFFFF71
:10EFB000FFFFFFFFFFFFFFFFFFFFFFFFFFFFFFFF61
:10EFC000FFFFFFFFFFFFFFFFFFFFFFFFFFFFFFFF51
:10EFD000FFFFFFFFFFFFFFFFFFFFFFFFFFFFFFFF41
:10EFE000FFFFFFFFFFFFFFFFFFFFFFFFFFFFFFFF31
:10EFF000FFFFFFFFFFFFFFFFFFFFFFFFFFFFFFFF21
:10F000000000000000000000000000000000000000
:10F0100000000000000000000000000000000000F0
:10F0200000000000000000000000000000000000E0
:10F03000070000FF0F0F000000002840F040F00222
:10F040002B022B022B022B03700370037003700042
:10F050000003880000038800000388000003880084
:10F0600000000000000000000000000000000000A0
:10F070000000000000000000000000000000000090
:10F080000000000000000000000000000000000080
:10F090000000000000000000000000000000000070
:10F0A0000000000000000000000000000000000060
:10F0B000070000FF0F0F000000002840F040F002A2
:10F0C0002B022B022B022B037003700370037000C2
:10F0D0000003880000038800000388000003880004
:10F0E0000000000000000000000000000000000020
:10F0F0000000000000000000000000000000000010
:10F10000FFFFFFFFFFFFFFFFFFFFFFFFFFFFFFFF0F
:10F11000FFFFFFFFFFFFFFFFFFFFFFFFFFFFFFFFFF
:10F12000FFFFFFFFFFFFFFFFFFFFFFFFFFFFFFFFEF
:10F13000FFFFFFFFFFFFFFFFFFFFFFFFFFFFFFFFDF
:10F14000FFFFFFFFFFFFFFFFFFFFFFFFFFFFFFFFCF
:10F15000FFFFFFFFFFFFFFFFFFFFFFFFFFFFFFFFBF
:10F16000FFFFFFFFFFFFFFFFFFFFFFFFFFFFFFFFAF
:10F17000FFFFFFFFFFFFFFFFFFFFFFFFFFFFFFFF9F
:10F18000FFFFFFFFFFFFFFFFFFFFFFFFFFFFFFFF8F
:10F19000FFFFFFFFFFFFFFFFFFFFFFFFFFFFFFFF7F
:10F1A000FFFFFFFFFFFFFFFFFFFFFFFFFFFFFFFF6F
:10F1B000FFFFFFFFFFFFFFFFFFFFFFFFFFFFFFFF5F
:10F1C000FFFFFFFFFFFFFFFFFFFFFFFFFFFFFFFF4F
:10F1D000FFFFFFFFFFFFFFFFFFFFFFFFFFFFFFFF3F
:10F1E000FFFFFFFFFFFFFFFFFFFFFFFFFFFFFFFF2F
:10F1F000FFFFFFFFFFFFFFFFFFFFFFFFFFFFFFFF1F
:10F200004A000001FFF6FFF6FFF6FFF6005000503F
:10F21000005000500000000000000000000000004E
:10F22000000000000000000000000000300030007E
:10F23000300030000000000100000000000000006D
:10F24000000000008000000080000000800000003E
:10F25000800000000000000000000000000000002E
:10F26000000000000000000000000000000000009E
:10F27000000000000000000000000000000000008E
:10F28000FFECFFECFFECFFEC009400940094009482
:10F29000000000000000000000000000000000006E
:10F2A000000000000000000000000000000000005E
:10F2B000000000000000000000000000000000004E
:10F2C000000000000000000000000000000000003E
:10F2D000000000000000000000000000000000002E
:10F2E000000000000000000000000000000000001E
:10F2F0000000000000000000000000000000FFFF10
:10F30000FFFFFFFFFFFFFFFFFFFFFFFFFFFFFFFF0D
:10F31000FFFFFFFFFFFFFFFFFFFFFFFFFFFFFFFFFD
:10F32000FFFFFFFFFFFFFFFFFFFFFFFFFFFFFFFFED
:10F33000FFFFFFFFFFFFFFFFFFFFFFFFFFFFFFFFDD
:10F34000FFFFFFFFFFFFFFFFFFFFFFFFFFFFFFFFCD
:10F35000FFFFFFFFFFFFFFFFFFFFFFFFFFFFFFFFBD
:10F36000FFFFFFFFFFFFFFFFFFFFFFFFFFFFFFFFAD
:10F37000FFFFFFFFFFFFFFFFFFFFFFFFFFFFFFFF9D
:10F38000FFFFFFFFFFFFFFFFFFFFFFFFFFFFFFFF8D
:10F39000FFFFFFFFFFFFFFFFFFFFFFFFFFFFFFFF7D
:10F3A000FFFFFFFFFFFFFFFFFFFFFFFFFFFFFFFF6D
:10F3B000FFFFFFFFFFFFFFFFFFFFFFFFFFFFFFFF5D
:10F3C000FFFFFFFFFFFFFFFFFFFFFFFFFFFFFFFF4D
:10F3D000FFFFFFFFFFFFFFFFFFFFFFFFFFFFFFFF3D
:10F3E000FFFFFFFFFFFFFFFFFFFFFFFFFFFFFFFF2D
:10F3F000FFFFFFFFFFFFFFFFFFFFFFFFFFFFFFFF1D
:10F40000000000C8090000000020380D0000350091
:10F41000002500001D00000000C8090000000020B9
:10F42000380D00003500002500001D00000000C858
:10F43000090000000020380D000035000025000004
:10F440001D00000000C8090000000020380D000069
:10F450003500002500001D00000000000000000035
:10F46000000000000000000000000000000000009C
:10F47000000000000000000000000000000000008C
:10F48000000000C8090000000020380D0000350011
:10F49000002500001D00000000C809000000002039
:10F4A000380D00003500002500001D00000000C8D8
:10F4B000090000000020380D000035000025000084
:10F4C0001D00000000C8090000000020380D0000E9
:10F4D0003500002500001D000000000000000000B5
:10F4E000000000000000000000000000000000001C
:10F4F000000000000000000000000000000000000C
:10F50000FFFFFFFFFFFFFFFFFFFFFFFFFFFFFFFF0B
:10F51000FFFFFFFFFFFFFFFFFFFFFFFFFFFFFFFFFB
:10F800004A000001FFF6FFF6FFF6FFF60050005039
:10F810000050005000000000000000000000000048
:10F820000000000000000000000000003000300078
:10F830003000300000000001000100010000000065
:10F840000000000080000000800000008000000038
:10F850008000000000000000000000000000000028
:10F860000000000000000000000000000000000098
:10F870000000000000000000000000000000000088
:10F88000FFECFFECFFECFFEC00940094009400947C
:10F890000000000000000000000000000000000068
:10F8A0000000000000000000000000000000000058
:10F8B0000000000000000000000000000000000048
:10F8C0000000000000000000000000000000000038
:10F8D0000000000000000000000000000000000028
:10F8E0000000000000000000000000000000000018
:10F8F0000000000000000000000000000000FFFF0A
:10F90000FFFFFFFFFFFFFFFFFFFFFFFFFFFFFFFF07
:10F91000FFFFFFFFFFFFFFFFFFFFFFFFFFFFFFFFF7
:10F92000FFFFFFFFFFFFFFFFFFFFFFFFFFFFFFFFE7
:10F93000FFFFFFFFFFFFFFFFFFFFFFFFFFFFFFFFD7
:10F94000FFFFFFFFFFFFFFFFFFFFFFFFFFFFFFFFC7
:10F95000FFFFFFFFFFFFFFFFFFFFFFFFFFFFFFFFB7
:10F96000FFFFFFFFFFFFFFFFFFFFFFFFFFFFFFFFA7
:10F97000FFFFFFFFFFFFFFFFFFFFFFFFFFFFFFFF97
:10F98000FFFFFFFFFFFFFFFFFFFFFFFFFFFFFFFF87
:10F99000FFFFFFFFFFFFFFFFFFFFFFFFFFFFFFFF77
:10F9A000FFFFFFFFFFFFFFFFFFFFFFFFFFFFFFFF67
:10F9B000FFFFFFFFFFFFFFFFFFFFFFFFFFFFFFFF57
:10F9C000FFFFFFFFFFFFFFFFFFFFFFFFFFFFFFFF47
:10F9D000FFFFFFFFFFFFFFFFFFFFFFFFFFFFFFFF37
:10F9E000FFFFFFFFFFFFFFFFFFFFFFFFFFFFFFFF27
:10F9F000FFFFFFFFFFFFFFFFFFFFFFFFFFFFFFFF17
:00000001FF
