:1000000002582485A72E126DB1126DBB126DC51258
:100010006D62126DF5126DCF126CAE126DF9126D2C
:10002000D9126DE0126D31126CD8126D52126DE75B
:10003000126DEE126DFD852EA72222021329ACA7A8
:10004000A2AF9201C2AFE4F5A775FF8075EF028FF2
:10005000828E83BD550975B7A575B7F1438F0375BA
:10006000FF8075EF02E4F0538FFCA20192AF8CA7E2
:1000700022FFFF026D9DEC4D6011E8497017ED33D2
:10008000EC3304600DE4FCFFFEFD22E933E83304A9
:1000900070F80202261201F158046009E4CC2481B0
:1000A000500628500902023028400302022DC0E009
:1000B000EB4A7044B98006D0E0FB02021CEF4E70A0
:1000C0001CBD8008EBFFEAFEE9FD80EBE98DF0A4A2
:1000D000FEE5F002015FE9CDF9EAFEEBFFEF89F002
:1000E000A4FCE5F0CE89F0A42EFFE435F0CD89F034
:1000F000A42DFEE435F08067EF4E7005BD80D780FB
:10010000C3EF8BF0A4ACF0EE8BF0A42CFCE435F044
:10011000F8EF8AF0A42CE5F038FCE433CB8DF0A4A2
:100120002CFCE5F03BF8EE8AF0A42CFCE5F038F866
:10013000E433CF89F0A42CFCE5F038CF3400CE892D
:10014000F0A42FFFE5F03EFEE433C98DF0A42EFEAF
:10015000E5F039CD8AF0A42FFFE5F03EFEE43DFD49
:1001600033D0E0FB50070BBB000F020230EC2CFC3D
:10017000EF33FFEE33FEED33FD02020875F0208011
:100180000E75F010800575F0087D007E007F00334D
:1001900092D530D5031203F3EC334010EF33FFEE6A
:1001A00033FEED33FDEC33FCD5F0ED22E5F0247E9B
:1001B000A2D513CC92E7CDCEFF22EDD2E7CD33EC22
:1001C0003392D524814006E4FFFEFDFC22FCE4CFFF
:1001D000CECDCC24E0501174FF80EDC3CC13CCCD38
:1001E00013CDCE13CECF13CF0470F030D5DE020383
:1001F000F3E9D2E7C933E833F892D5EDD2E7CD334E
:10020000EC33FC5002B2D522EC30E7100FBF000CEB
:100210000EBE00080DBD00040BEB6014A2D5EB135D
:10022000FCED92E7FD2274FFFCFDFEFF22E480F866
:10023000A2D574FF13FC7D80E480EFE709F608DFA8
:10024000FA8046E709F208DFFA803E88828C83E76D
:1002500009F0A3DFFA8032E309F608DFFA8078E3D9
:1002600009F208DFFA807088828C83E309F0A3DF4B
:10027000FA806489828A83E0A3F608DFFA805889CD
:10028000828A83E0A3F208DFFA804C80D280FA8071
:10029000C680D4806980F28033801080A680EA8096
:1002A0009A80A880DA80E280CA803389828A83ECCF
:1002B000FAE493A3C8C582C8CCC583CCF0A3C8C553
:1002C00082C8CCC583CCDFE9DEE7800D89828A83D2
:1002D000E493A3F608DFF9ECFAA9F0EDFB2289829A
:1002E0008A83ECFAE0A3C8C582C8CCC583CCF0A34E
:1002F000C8C582C8CCC583CCDFEADEE880DB898252
:100300008A83E493A3F208DFF980CC88F0EF6001E0
:100310000E4E60C388F0ED2402B4040050B9F5829B
:10032000EB2402B4040050AF232345822390028BB8
:1003300073BB010689828A83E0225002E722BBFE5A
:1003400002E32289828A83E49322BB010689828A9E
:1003500083F0225002F722BBFE01F322EF8DF0A4BE
:10036000A8F0CF8CF0A428CE8DF0A42EFE22C2D50A
:10037000EC30E709B2D5E4C39DFDE49CFCEE30E728
:1003800015B2D5E4C39FFFE49EFE1204A4C3E49D0E
:10039000FDE49CFC80031204A430D507C3E49FFF56
:1003A000E49EFE22E88FF0A4CC8BF0A42CFCE98E16
:1003B000F0A42CFC8AF0EDA42CFCEA8EF0A4CDA8CD
:1003C000F08BF0A42DCC3825F0FDE98FF0A42CCDD6
:1003D00035F0FCEB8EF0A4FEA9F0EB8FF0A4CFC5B6
:1003E000F02ECD39FEE43CFCEAA42DCE35F0FDE440
:1003F0003CFC22C3E49FFFE49EFEE49DFDE49CFCE4
:1004000022E86010ECA2E713FCED13FDEE13FEEF03
:1004100013FFD8F022ECF0A3EDF0A3EEF0A3EFF081
:1004200022A8828583F0D083D08212043812043847
:10043000120438120438E473E493A3C583C5F0C5ED
:1004400083C8C582C8F0A3C583C5F0C583C8C5826B
:10045000C822D083D082F8E4937012740193700D97
:10046000A3A393F8740193F5828883E473740293D1
:100470006860EFA3A3A380DFEF4E6012EF60010E70
:10048000EDBB010B89828A83F0A3DFFCDEFA2289AF
:10049000F05007F709DFFCA9F022BBFEFCF309DFEF
:1004A000FCA9F022BC000BBE0029EF8DF084FFAD4B
:1004B000F022E4CCF875F008EF2FFFEE33FEEC33BA
:1004C000FCEE9DEC984005FCEE9DFE0FD5F0E9E4B6
:1004D000CEFD22EDF8F5F0EE8420D21CFEADF075D5
:1004E000F008EF2FFFED33FD4007985006D5F0F2EE
:1004F00022C398FD0FD5F0EA2275F008758200EF4F
:100500002FFFEE33FECD33CDCC33CCC58233C58245
:100510009BED9AEC99E58298400CF582EE9BFEEDFE
:100520009AFDEC99FC0FD5F0D6E4CEFBE4CDFAE4CD
:10053000CCF9A88222B800C1B90059BA002DEC8BC1
:10054000F084CFCECDFCE5F0CBF97818EF2FFFEE9D
:1005500033FEED33FDEC33FCEB33FB10D703994056
:1005600004EB99FB0FD8E5E4F9FA227818EF2FFF96
:10057000EE33FEED33FDEC33FCC933C910D7059BD8
:10058000E99A4007EC9BFCE99AF90FD8E0E4C9FA34
:10059000E4CCFB2275F010EF2FFFEE33FEED33FDC0
:1005A000CC33CCC833C810D7079BEC9AE899400AE3
:1005B000ED9BFDEC9AFCE899F80FD5F0DAE4CDFB61
:1005C000E4CCFAE4C8F922EF147003020721147096
:1005D000030208611470030209A124036003020AE4
:1005E000E77F20126D87900659E0FB756805E4FDF2
:1005F0007F2012676490066BE0FB7568057D017FC4
:100600002012676490065AE0FB7568057D027F2022
:1006100012676490065BE0FB7568057D037F20121E
:10062000676490065CE0FB7568057D047F201267B7
:100630006490065DE0FB7568057D057F20126764A8
:1006400090065EE0FB7568057D0A7F201267649066
:10065000066CE0FB7568057D0C7F201267649006D0
:100660005FE0FB7568057D0D7F2012676490066072
:10067000E0FB7568057D197F20126764900661E0D4
:10068000FB7568057D1A7F20126764900664E0FBA5
:100690007568057DC27F20126764900667E0FB7570
:1006A00068057DE27F2012676490066AE0FB75684A
:1006B000057DD27F20126764900664E020E01E90E2
:1006C0000662E0FB7568057DC07F201267649006B6
:1006D00063E0FB7568057DC17F2012676490066743
:1006E000E020E01E900665E0FB7568057DE07F2058
:1006F000126764900666E0FB7568057DE17F201255
:10070000676490066AE030E003020AE7900668E05A
:10071000FB7568057DD07F20126764900669020A28
:10072000DB7F21126D8790066FE0FB756805E4FDA5
:100730007F20126764900681E0FB7568057D017F6C
:1007400020126764900670E0FB7568057D027F20CB
:10075000126764900671E0FB7568057D037F2012C7
:100760006764900672E0FB7568057D047F20126760
:1007700064900673E0FB7568057D057F2012676451
:10078000900674E0FB7568057D0A7F20126764900F
:100790000682E0FB7568057D0C7F20126764900679
:1007A00075E0FB7568057D0D7F2012676490067605
:1007B000E0FB7568057D197F20126764900677E07D
:1007C000FB7568057D1A7F2012676490067AE0FB4E
:1007D0007568057DC27F2012676490067DE0FB7519
:1007E00068057DE27F20126764900680E0FB7568F3
:1007F000057DD27F2012676490067AE020E01E908B
:100800000678E0FB7568057DC07F2012676490065E
:1008100079E0FB7568057DC17F2012676490067DD5
:10082000E020E01E90067BE0FB7568057DE07F2000
:1008300012676490067CE0FB7568057DE17F2012FD
:100840006764900680E030E003020AE790067EE0ED
:10085000FB7568057DD07F2012676490067F020AD1
:10086000DB7F22126D87900685E0FB756805E4FD4D
:100870007F20126764900697E0FB7568057D017F15
:1008800020126764900686E0FB7568057D027F2074
:10089000126764900687E0FB7568057D037F201270
:1008A0006764900688E0FB7568057D047F20126709
:1008B00064900689E0FB7568057D057F20126764FA
:1008C00090068AE0FB7568057D0A7F2012676490B8
:1008D0000698E0FB7568057D0C7F20126764900622
:1008E0008BE0FB7568057D0D7F2012676490068C98
:1008F000E0FB7568057D197F2012676490068DE026
:10090000FB7568057D1A7F20126764900690E0FBF6
:100910007568057DC27F20126764900693E0FB75C1
:1009200068057DE27F20126764900696E0FB75689B
:10093000057DD27F20126764900690E020E01E9033
:10094000068EE0FB7568057DC07F20126764900607
:100950008FE0FB7568057DC17F2012676490069368
:10096000E020E01E900691E0FB7568057DE07F20A9
:10097000126764900692E0FB7568057DE17F2012A6
:100980006764900696E030E003020AE7900694E080
:10099000FB7568057DD07F20126764900695020A7A
:1009A000DB7F23126D8790069BE0FB756805E4FDF5
:1009B0007F201267649006ADE0FB7568057D017FBE
:1009C0002012676490069CE0FB7568057D027F201D
:1009D00012676490069DE0FB7568057D037F201219
:1009E000676490069EE0FB7568057D047F201267B2
:1009F0006490069FE0FB7568057D057F20126764A3
:100A00009006A0E0FB7568057D0A7F201267649060
:100A100006AEE0FB7568057D0C7F201267649006CA
:100A2000A1E0FB7568057D0D7F201267649006A22A
:100A3000E0FB7568057D197F201267649006A3E0CE
:100A4000FB7568057D1A7F201267649006A6E0FB9F
:100A50007568057DC27F201267649006A9E0FB756A
:100A600068057DE27F201267649006ACE0FB756844
:100A7000057DD27F201267649006A6E020E01E90DC
:100A800006A4E0FB7568057DC07F201267649006B0
:100A9000A5E0FB7568057DC17F201267649006A9FB
:100AA000E020E01E9006A7E0FB7568057DE07F2052
:100AB0001267649006A8E0FB7568057DE17F20124F
:100AC00067649006ACE020E01E9006AAE0FB756823
:100AD000057DD07F201267649006ABE0FB7568054A
:100AE0007DD17F2012676422EF147003020C201462
:100AF0007003020D3E147003020E5C2403600302B7
:100B00000F797F20126D877B05E4FD7F201266A49C
:100B1000900659EFF07B057D017F201266A49006B8
:100B20006BEFF07B057D027F201266A490065AEFE2
:100B3000F07B057D037F201266A490065BEFF07BBF
:100B4000057D047F201266A490065CEFF07B057D96
:100B5000057F201266A490065DEFF07B057D0A7F7D
:100B6000201266A490065EEFF07B057D0C7F2012BC
:100B700066A490066CEFF07B057D0D7F201266A4C5
:100B800090065FEFF07B057D197F201266A490062A
:100B900060EFF07B057D1A7F201266A4900661EF5E
:100BA000F07B057DC07F201266A4900662EFF07B8B
:100BB000057DC17F201266A4900663EFF07B057D62
:100BC000C27F201266A4900664EFF07B057DE07F73
:100BD000201266A4900665EFF07B057DE17F201270
:100BE00066A4900666EFF07B057DE27F201266A486
:100BF000900667EFF07B057DD07F201266A49006FB
:100C000068EFF07B057DD17F201266A4900669EF26
:100C1000F07B057DD27F201266A490066AEFF02259
:100C20007F21126D877B05E4FD7F201266A490066C
:100C30006FEFF07B057D017F201266A4900681EFA7
:100C4000F07B057D027F201266A4900670EFF07B9A
:100C5000057D037F201266A4900671EFF07B057D71
:100C6000047F201266A4900672EFF07B057D057F5D
:100C7000201266A4900673EFF07B057D0A7F201298
:100C800066A4900674EFF07B057D0C7F201266A4AD
:100C9000900682EFF07B057D0D7F201266A4900602
:100CA00075EFF07B057D197F201266A4900676EF24
:100CB000F07B057D1A7F201266A4900677EFF07B0B
:100CC000057DC07F201266A4900678EFF07B057D3D
:100CD000C17F201266A4900679EFF07B057DC27F6C
:100CE000201266A490067AEFF07B057DE07F20124B
:100CF00066A490067BEFF07B057DE17F201266A461
:100D000090067CEFF07B057DE27F201266A49006C2
:100D10007DEFF07B057DD07F201266A490067EEFEC
:100D2000F07B057DD17F201266A490067FEFF07BDB
:100D3000057DD27F201266A4900680EFF0227F22EC
:100D4000126D877B05E4FD7F201266A4900685EF77
:100D5000F07B057D017F201266A4900697EFF07B63
:100D6000057D027F201266A4900686EFF07B057D4C
:100D7000037F201266A4900687EFF07B057D047F39
:100D8000201266A4900688EFF07B057D057F201277
:100D900066A4900689EFF07B057D0A7F201266A489
:100DA00090068AEFF07B057D0C7F201266A49006EA
:100DB00098EFF07B057D0D7F201266A490068BEFE7
:100DC000F07B057D197F201266A490068CEFF07BE6
:100DD000057D1A7F201266A490068DEFF07B057DBD
:100DE000C07F201266A490068EEFF07B057DC17F48
:100DF000201266A490068FEFF07B057DC27F201243
:100E000066A4900690EFF07B057DE07F201266A43B
:100E1000900691EFF07B057DE17F201266A490069D
:100E200092EFF07B057DE27F201266A4900693EF9F
:100E3000F07B057DD07F201266A4900694EFF07BB6
:100E4000057DD17F201266A4900695EFF07B057D8D
:100E5000D27F201266A4900696EFF0227F23126DB7
:100E6000877B05E4FD7F201266A490069BEFF07B54
:100E7000057D017F201266A49006ADEFF07B057D15
:100E8000027F201266A490069CEFF07B057D037F15
:100E9000201266A490069DEFF07B057D047F201252
:100EA00066A490069EEFF07B057D057F201266A468
:100EB00090069FEFF07B057D0A7F201266A49006C6
:100EC000A0EFF07B057D0C7F201266A49006AEEFAC
:100ED000F07B057D0D7F201266A49006A1EFF07BCC
:100EE000057D197F201266A49006A2EFF07B057D98
:100EF0001A7F201266A49006A3EFF07B057DC07FC9
:100F0000201266A49006A4EFF07B057DC17F20121D
:100F100066A49006A5EFF07B057DC27F201266A433
:100F20009006A6EFF07B057DE07F201266A4900678
:100F3000A7EFF07B057DE17F201266A49006A8EF65
:100F4000F07B057DE27F201266A49006A9EFF07B7E
:100F5000057DD07F201266A49006AAEFF07B057D68
:100F6000D17F201266A49006ABEFF07B057DD27F87
:100F7000201266A49006ACEFF0220118004105D6BD
:100F8000A04904C5534C4246363451333260810483
:100F9000D40000000000000000000000000000007D
:100FA0000000000000000000000000000000000041
:100FB0000000000000000000000000000000000031
:100FC0000000000000000000000000000000000021
:100FD0000000000000000000000000000000000011
:100FE0000000000000000000000000000000000001
:100FF00000000000000000000000000000000000F1
:1010000000000000000000000000000000000000E0
:1010100000004104D2004104C1004104D100410458
:10102000C2004104CF004104C3004104CE0061006E
:10103000011000000000000000000000000000009F
:1010400000000000000000000000000000000000A0
:101050000000000000000000000000000000000090
:101060000000000000000000000000000000000080
:101070000000000000000000000000000000000070
:101080000000000000000000000000000000000060
:101090000000000000000000000000000000000050
:1010A0000000000000000000000000000000000040
:1010B0000000000000000000000000000000000030
:1010C0000000000000000000000000000000000020
:1010D0000000000000000000000000000000000010
:1010E0000000000000000000000000000000000000
:1010F00000000000000000000000000000000000F0
:1011000000000000000000000000000000000000DF
:1011100000000000000000000000000000000000CF
:1011200000000000000000000000000000000000BF
:1011300000006080031300000000000000000000B9
:10114000000000000000000000000000000000009F
:10115000000000000000000000000000000000008F
:10116000000000000000000000000000000000007F
:10117000000000000000000000000000000000006F
:10118000000000000000000000000000000000005F
:10119000000000000000000000000000000000004F
:1011A000000000000000000000000000000000003F
:1011B000000000000000608000000000000000004F
:1011C000000000000000000000000000000000001F
:1011D000000000000000000000000000000000000F
:1011E00000000000000000000000000000000000FF
:1011F00000000000000000000000000000000000EF
:1012000000000000000000000000000000000000DE
:1012100000000000000000000000000000000000CE
:1012200000000000000000000000000000000000BE
:10123000000000000000000000006080008000004E
:10124000000000000000000000000000000000009E
:10125000000000000000000000000000000000008E
:10126000000000000000000000000000000000007E
:10127000000000000000000000000000000000006E
:10128000000000000000000000000000000000005E
:10129000000000000000000000000000000000004E
:1012A000000000000000000000000000000000003E
:1012B00000000000000000000000000000004202EA
:1012C000110000410210024105D5014207690000EA
:1012D00041075D0041075E004107560241075A0081
:1012E00041075C004107570041075800410759007A
:1012F00041075B00010E0002080000010A00010B1B
:1013000000010D00010F00011000010C000111008F
:101310004107670041076300410766004107680015
:10132000410764004107650000C0E0C0F0C083C011
:1013300082C0D075D000C000C001C002C003C0048C
:10134000C005C006C00775210075220030C2030227
:101350001652E5C054F0700302142824F070030202
:10136000144B24D070030215AE24F070030216460D
:101370002430600302164AC2C59004C1E5C2F0E001
:10138000FF54FE64A06003021423EF20E003021464
:101390001E9004D2E0FFC39480503CEF947540113E
:1013A000EF947E500C74102FF582E43401F583E441
:1013B000F09004D2E0FF2410F582E43401F583E0DC
:1013C000F5C2EFC3940540569004D2E0FFD3940BCE
:1013D000504C125941804790018FE0FFB4010D90AD
:1013E00004D2E02493F582E43402802DEFB4130D8F
:1013F0009004D2E02480F582E434FF801C90018FB9
:10140000E09004D2B4140AE02400F582E4340080B1
:1014100008E02410F582E43401F583E0F5C2D2C17E
:10142000021658C2C10216589004D1E024D4F582A5
:10143000E43404F583E5C2F09004D4E09004D2F0E3
:101440009004D1E004F0D2C1021658C2C49004D175
:10145000E0FFC3940250030215A69004CF7401F07C
:10146000EF149004D3F09004D2E0647F6003021480
:10147000FD9004D1E0640260030214FD9004D5E005
:1014800090018FF070147B017A017990F5347535F5
:10149000807F807EC8126487805290018FE0B40103
:1014A0001578907C017D017B017A0379137E007FA2
:1014B0008012030B803690018FE0B4131578907C76
:1014C000017D017B017A0079007E007F8012030B91
:1014D000801A90018FE0B4141B78907C017D017B11
:1014E000017A0079807E007F8012030B9004C4E4AF
:1014F000F00215A69004C47401F00215A69004D25F
:10150000E0FFC3947A400FEFD3947D50099004C458
:101510007405F00215A69004C2E0C3940140219026
:1015200004D3E0FF7E009004D2E02410F9E43401FB
:10153000A801FC7D017B017A0479D512030B801987
:101540009004D2E0FFB41A119004D5E0FE74102F7D
:10155000F582E43401F583EEF090018FE0641370BE
:101560003F9004D2E0FFD3948F403BA3E0F5827517
:10157000830074102FF9E43401A801FC7D017B0184
:101580007A0479D57E00AF8212030B78107C007D3F
:10159000017B017A0179A07E007F6F12030B800628
:1015A0009004C47407F09004D1E4F002165820C1EE
:1015B000030216589004D2E004F0E0FFC394805078
:1015C0003CEF94754011EF947E500C74102FF5820F
:1015D000E43401F583E4F09004D2E0FF2410F582B6
:1015E000E43401F583E0F5C2EFC39406406A900449
:1015F000D2E0FFD3940B5060125941805B90018F71
:10160000E0FFB4010D9004D2E02493F582E43402AB
:10161000802DEFB4130D9004D2E02480F582E434E1
:10162000FF801C90018FE09004D2B4140AE02400E3
:10163000F582E434008008E02410F582E43401F5FA
:1016400083E0F5C28012C2C4800E53C17F43C180C3
:101650008000C2C5C2C4C2C1C2C0D007D006D00576
:10166000D004D003D002D001D000D0D0D082D0831B
:10167000D0F0D0E032E4FB7F018D328B33AA0790AB
:1016800006D6120421000000009006DA12042100A0
:101690000000009006DE120421000000009006E227
:1016A00012042100000000E49006E6F0A3F0E53209
:1016B000C4333354C0FEE42448FFEE3434FEE43334
:1016C000FDE43458FC9006D6120415E532C43333D9
:1016D00054C0FEE424A4FFEE3421FEE433FDE434E0
:1016E00058FC9006DA120415E532C4333354C0FEB8
:1016F000E42440FFEE3428FEE433FDE43458FC904B
:1017000006DE120415E532C4333354C0FEE42498D7
:10171000FFEE3421FEE433FDE43458FC9006E2127F
:101720000415EA700302189EE53370030217DF9078
:1017300006D6E0FCA3E0FDA3E0FEA3E0FFE4F5573E
:101740001251E09006E6EEF0FAA3EFF0FB9006D619
:10175000E0FCA3E0FDA3E0FEA3E0FF8A57EB54FD0D
:10176000F558755900755A04E4F55B124E2A900637
:10177000D6E0FCA3E0FDA3E0FEA3E0FFE4F55712F2
:1017800051E09006E6EEF0FAA3EFF0FB9006D6E00B
:10179000FCA3E0FDA3E0FEA3E0FF8A57EB54FEF5B7
:1017A00058755900755A04E4F55B124E2A9006DA12
:1017B000E0FCA3E0FDA3E0FEA3E0FFE4F557125137
:1017C000E09006E6EEF0FAA3EFF0FB9006DAE0FC1C
:1017D000A3E0FDA3E0FEA3E0FFEA54BF02191390CB
:1017E00006DAE0FCA3E0FDA3E0FEA3E0FFE4F5578A
:1017F0001251E09006E6EEF0FAA3EFF0FB9006DA65
:10180000E0FCA3E0FDA3E0FEA3E0FFEA4440F557BF
:101810008B58755900755A04E4F55B124E2A7B0407
:101820007A007D047C80AF321238DD9006D6E0FC71
:10183000A3E0FDA3E0FEA3E0FFE4F5571251E09022
:1018400006E6EEF0FAA3EFF0FB9006D6E0FCA3E08C
:10185000FDA3E0FEA3E0FF8A57EB4402F55875595B
:1018600000755A04E4F55B124E2A9006D6E0FCA3FC
:10187000E0FDA3E0FEA3E0FFE4F5571251E090067F
:10188000E6EEF0FAA3EFF0FB9006D6E0FCA3E0FD55
:10189000A3E0FEA3E0FF8A57EB44010219ADE53354
:1018A00070030219309006DEE0FCA3E0FDA3E0FE29
:1018B000A3E0FFE4F5571251E09006E6EEF0FAA33C
:1018C000EFF0FB9006DEE0FCA3E0FDA3E0FEA3E06A
:1018D000FF8A57EB4420F558755900755A04E4F512
:1018E0005B124E2A9006E2E0FCA3E0FDA3E0FEA31B
:1018F000E0FFE4F5571251E09006E6EEF0FAA3EFB0
:10190000F0FB9006E2E0FCA3E0FDA3E0FEA3E0FF15
:10191000EA547FF5578B58755900755A04E4F55B06
:10192000124E2A7B047A007D047C80AF320238DDBF
:101930009006E2E0FCA3E0FDA3E0FEA3E0FFE4F5F7
:10194000571251E09006E6EEF0FAA3EFF0FB900696
:10195000E2E0FCA3E0FDA3E0FEA3E0FFEA4480F5A3
:10196000578B58755900755A04E4F55B124E2A7B63
:10197000047A007D047C80AF321238DD9006DEE010
:10198000FCA3E0FDA3E0FEA3E0FFE4F5571251E065
:101990009006E6EEF0FAA3EFF0FB9006DEE0FCA383
:1019A000E0FDA3E0FEA3E0FF8A57EB54DFF5587596
:1019B0005900755A04E4F55B124E2A2285A72E9031
:1019C000018FE012045219EE001A20011A46821A01
:1019D000DA851AED861B13871B398A1BDC901C40A5
:1019E000911C21921C5BB01C77D000001CB49004A9
:1019F000C2E0C394015003021CB47B017A01791048
:101A00007535007536807F007EC812643F7B017A91
:101A10000179907534007535807F807EC802659E9F
:101A20009004C2E0C394015003021CB47B017A010C
:101A300079907535007536807F007ECA12643F78D4
:101A4000137C03021C319004C2E0D39401500302C2
:101A50001CB49004D2E094F8405790020FE0640167
:101A60006003021CB4900208E09005CDF0900209DA
:101A7000E09005CEF090020EE0FF9005D3F0BF019C
:101A8000149005CDE0FD7B057F1C1266A49005CE69
:101A9000EFF0021BAD9005D3E06003021BAD900593
:101AA000CDE0FDA3E0FB7568057F1C126764021B97
:101AB000AD7B017A0179907535007536807F007EA7
:101AC000D412643F78557C057D017B017A017990C1
:101AD0007E007F8012030B026E049004C2E0D39458
:101AE000015003021CB478D77C05021C319004C25B
:101AF000E0D394015003021CB47B017A0179907504
:101B000035007536807F007ED812643F78C37C0331
:101B1000021C319004C2E0D394015003021CB47B38
:101B2000017A0179907535007536807F007EDA1272
:101B3000643F78417C04021C319004C2E0D39401DC
:101B40005003021CB49004D2E094F8406690020F57
:101B5000E064016003021CB4900208E09006CEF03D
:101B6000900209E09006CFF090020EE0FF9006D4BC
:101B7000F0BF011B90020AE0FF126D879006CEE0D5
:101B8000FD7B047F201266A49006CFEFF0801E90AC
:101B900006D4E0701890020AE0FF126D879006CE1E
:101BA000E0FDA3E0FB7568047F20126764E4900207
:101BB0000FF0227B017A0179907535007536807FB0
:101BC000007ED612643F78567C067D017B017A0147
:101BD00079907E007F8012030B026BF59004C2E0C7
:101BE000D394015003021CB478087C027D017B0170
:101BF0007A02798B7E007F0812030B7B017A0179D0
:101C0000907535007536807F007ED012643F7B0171
:101C10007A0279137534007535807F007ED00264B6
:101C2000879004C2E0D394015003021CB478937CE3
:101C3000027D017B017A0179907E007F8002030B97
:101C40009004C2E0D39401406B7B017A01799075D6
:101C500035007536807F007ED280199004C2E0D3B3
:101C6000940140507B017A0179907535007536807A
:101C70007F007EF602643F9004C2E0D394014034BA
:101C80009004D2E06424702C9004D5E06411702498
:101C9000A3E06422701EA3E0B43319A3E0B455148A
:101CA000A3E0B4660FA3E0B4550A780076A5E4F586
:101CB000A775EF12228F2F8D30E4F534F533F5320E
:101CC000F531F538F537F536F535F53CF53BF53AB0
:101CD000F539F540F53FF53EF53DF544F543F54260
:101CE000F541F548F547F546F545F54CF54BF54A10
:101CF000F549F54DF54EFCFDFEFBFA7910F812039F
:101D0000A4EF2484F534EE3445F533ED3403F53295
:101D1000EC3450F531AF2FE4FCFDFEFBFA7910F8FE
:101D20001203A4EF2488F538EE3445F537ED34037B
:101D3000F536EC3450F535AF2FE4FCFDFEFBFA79B7
:101D400010F81203A4EF2458F53CEE3402F53BE4FE
:101D50003DF53AEC3450F539AF2FE4FCFDFEFBFACB
:101D60007910F81203A4E42FF540EE344AF53FED64
:101D70003403F53EEC3450F53DAF2FE4FCFDFEFBA3
:101D8000FA7910F81203A4EF24C4F544EE3444F5B4
:101D900043ED3403F542EC3450F541E52FC43333C1
:101DA00054C0FEE42480F548EE3436F547E433F5BC
:101DB00046E43458F545AF2FE4FCFDFEFBFA7910FC
:101DC000F81203A4EF24B0F54CEE3445F54BED3496
:101DD00003F54AEC3450F549E5307003021ED1AFEB
:101DE00034AE33AD32AC31E4F5571251E08E4D8F45
:101DF0004EAF34AE33AD32AC31854D57E54E4480F5
:101E0000F558755900755A04E4F55B124E2AAF383F
:101E1000AE37AD36AC35E4F5571251E08E4D8F4EEE
:101E2000AF38AE37AD36AC35854D57E54E4401F58C
:101E300058755900755A04E4F55B124E2AAF3CAE52
:101E40003BAD3AAC39E4F5571251E08E4D8F4EAFB1
:101E500040AE3FAD3EAC3DE4F5571251E08E4D8FA4
:101E60004EAF40AE3FAD3EAC3D854D57E54E54DFE5
:101E7000F558755900755A04E4F55B124E2AAF44C3
:101E8000AE43AD42AC41E4F5571251E08E4D8F4E5A
:101E9000AF44AE43AD42AC41854D57E54E54FEF5DF
:101EA00058755900755A04E4F55B124E2AAF48AED6
:101EB00047AD46AC45E4F5571251E08E4D8F4EAF1D
:101EC00048AE47AD46AC45854D57E54E4401021F2F
:101ED0006F7B247A007D247C80AF2F1238DDAF34F5
:101EE000AE33AD32AC31E4F5571251E08E4D8F4E2A
:101EF000AF34AE33AD32AC31854D57E54E547FF53E
:101F000058755900755A04E4F55B124E2AAF38AE85
:101F100037AD36AC35E4F5571251E08E4D8F4EAFEC
:101F200038AE37AD36AC35854D57E54E54FEF558D5
:101F3000755900755A04E4F55B124E2AAF4CAE4B4E
:101F4000AD4AAC49E4F5571251E08E4D8F4EAF4883
:101F5000AE47AD46AC45E4F5571251E08E4D8F4E7D
:101F6000AF48AE47AD46AC45854D57E54E54FEF5FE
:101F700058755900755A04E4F55B124E2A228F33C6
:101F8000E4F534F535E5336401707EF5577F0C7E5A
:101F900011FD7C581251E08E348F35E53530E42246
:101FA0009003FFE07002A3E06003022203F5577F75
:101FB000987E21FD7C581251E08E368F375337FEC4
:101FC00080219003FFE07002A3E07003022203E48B
:101FD000F5577F987E21FD7C581251E08E368F3761
:101FE000433701853657853758755900755A04E4CB
:101FF000F55B7F987E21FD7C58124E2A7B047A0087
:102000007D047C80E4FF022200E533640260030269
:1020100020B4F5577F0C7E51FD7C581251E08E3470
:102020008F35E53530E446900401E07002A3E060AE
:1020300003022203F5577F987E61FD7C581251E020
:102040008E368F3743370185365785375875590097
:10205000755A04E4F55B7F987E61FD7C58124E2A28
:102060007B047A007D047C807F01022200900401C1
:10207000E07002A3E07003022203E4F5577F987E2C
:1020800061FD7C581251E08E368F375337FE85360E
:1020900057853758755900755A04E4F55B7F987E6B
:1020A00061FD7C58124E2A7B047A007D047C807F7F
:1020B00001022200E5336403600302215FF5577FCC
:1020C0000C7E91FD7C581251E08E348F35E5353011
:1020D000E446900403E07002A3E06003022203F5EB
:1020E000577F987EA1FD7C581251E08E368F375372
:1020F00037FE853657853758755900755A04E4F50B
:102100005B7F987EA1FD7C58124E2A7B047A007D6D
:10211000047C807F02022200900403E07002A3E0AE
:102120007003022203E4F5577F987EA1FD7C5812CC
:1021300051E08E368F3743370185365785375875CE
:102140005900755A04E4F55B7F987EA1FD7C581216
:102150004E2A7B047A007D047C807F02022200E507
:102160003364046003022203F5577F0C7ED1FD7CAB
:10217000581251E08E348F35E53530E44290040535
:10218000E07002A3E0707CF5577F987EE1FD7C58FB
:102190001251E08E368F37433701853657853758D1
:1021A000755900755A04E4F55B7F987EE1FD7C5813
:1021B000124E2A7B047A007D047C807F038041904C
:1021C0000405E07002A3E0603AE4F5577F987EE1F1
:1021D000FD7C581251E08E368F375337FE853657C7
:1021E000853758755900755A04E4F55B7F987EE190
:1021F000FD7C58124E2A7B047A007D047C807F038C
:102200001238DD22E4FB7F018F328D338B34900650
:10221000D6120421000000009006DA12042100000A
:102220000000E49006DEF0A3F0AF33FCFDFEFBFA05
:102230007910F81203A4E42FFFEE344AFEED3403C4
:10224000FDEC3450FC9006D6120415E533C433334C
:1022500054C0FEE42490FFEE3421FEE433FDE43468
:1022600058FC9006DA120415E534700302236D90D1
:1022700006D6E0FCA3E0FDA3E0FEA3E0FFE4F557F3
:102280001251E09006DEEEF0A3EFF0E5326006E0DA
:1022900054EFF080079006DFE054DFF09006D6E0C0
:1022A000FCA3E0FDA3E0FEA3E0FF9006DEE0F5570F
:1022B000A3E0F558755900755A04E4F55B124E2AEF
:1022C0009006D6E0FCA3E0FDA3E0FEA3E0FFE4F56A
:1022D000571251E09006DEEEF0A3EFF0E532600613
:1022E000E04408F080079006DFE04404F09006D652
:1022F000E0FCA3E0FDA3E0FEA3E0FF9006DEE0F536
:1023000057A3E0F558755900755A04E4F55B124E71
:102310002A9006DAE0FCA3E0FDA3E0FEA3E0FFE4E0
:10232000F5571251E09006DEEEF0A3EFF0E53290A3
:1023300006DE6006E054BFF08004E0547FF09006B3
:10234000DAE0FCA3E0FDA3E0FEA3E0FFA3E0F55785
:10235000A3E0F558755900755A04E4F55B124E2A4E
:102360007B037A007D037C80AF330238DD9006DA90
:10237000E0FCA3E0FDA3E0FEA3E0FFE4F55712516B
:10238000E09006DEEEF0A3EFF0E5329006DE6005A9
:10239000E044408003E04480F0A3E0F09006DAE0FF
:1023A000FCA3E0FDA3E0FEA3E0FFA3E0F557A3E05C
:1023B000F558755900755A04E4F55B124E2A7B03F3
:1023C0007A007D037C80AF331238DD9006D6E0FCC6
:1023D000A3E0FDA3E0FEA3E0FFE4F5571251E09077
:1023E00006DEEEF0A3EFF0E5326006E054F7F08091
:1023F000079006DFE054FBF09006D6E0FCA3E0FD7A
:10240000A3E0FEA3E0FF9006DEE0F557A3E0F55859
:10241000755900755A04E4F55B124E2A9006D6E011
:10242000FCA3E0FDA3E0FEA3E0FFE4F5571251E0BA
:102430009006DEEEF0A3EFF0E5326006E04410F027
:1024400080079006DFE04420F09006D6E0FCA3E091
:10245000FDA3E0FEA3E0FF9006DEE0F557A3E0F564
:1024600058755900755A04E4F55B124E2A227B0513
:10247000E4FD7F1C1266A4900555EFF07B057D01FD
:102480007F1C1266A4900556EFF07B057D177F1C1C
:102490001266A4900557EFF07B057D187F1C12662D
:1024A000A4900558EFF07B057D1A7F1C1266A4905E
:1024B0000559EFF07B057D037F1C1266A490056132
:1024C000EFF07B057D057F1C1266A4900563EFF09D
:1024D0007B057D107F1C1266A4900564EFF07B05E0
:1024E0007D167F1C1266A4900565EFF07B057D19B3
:1024F0007F1C1266A4900566EFF07B057D1B7F1C98
:102500001266A4900567EFF07B057D1C7F1C1266A8
:10251000A4900568EFF07B057D1D7F1C1266A490DA
:102520000569EFF07B057D217F1C1266A490056B89
:10253000EFF07B057D227F1C1266A490056CEFF006
:102540007B057D257F1C1266A490056DEFF07B0551
:102550007D267F1C1266A490056EEFF07B057D271B
:102560007F1C1266A490056FEFF07B057D287F1C11
:102570001266A4900570EFF07B057D407F1C12660B
:10258000A4900572EFF07B057D417F1C1266A4903C
:102590000573EFF07B057D427F1C1266A4900574E5
:1025A000EFF07B057D437F1C1266A4900575EFF06C
:1025B0007B057D447F1C1266A4900576EFF07B05B9
:1025C0007D457F1C1266A4900577EFF07B057D4664
:1025D0007F1C1266A4900578EFF07B057D477F1C79
:1025E0001266A4900579EFF07B057D487F1C12668A
:1025F000A490057AEFF07B057D497F1C1266A490BC
:10260000057BEFF07B057D4A7F1C1266A490057C5C
:10261000EFF07B057D4B7F1C1266A490057DEFF0EB
:102620007B057D4C7F1C1266A490057EEFF07B0538
:102630007D4D7F1C1266A490057FEFF07B057D4FDA
:102640007F1C1266A4900580EFF07B057D507F1CF7
:102650001266A4900581EFF07B057D517F1C126608
:10266000A4900582EFF07B057D527F1C1266A4903A
:102670000583EFF07B057D5E7F1C1266A4900585C7
:10268000EFF07B057D5F7F1C1266A4900586EFF05E
:102690007B057D607F1C1266A4900587EFF07B05AB
:1026A0007D627F1C1266A4900588EFF07B057D910A
:1026B0007F1C1266A490058AEFF07B057D927F1C3B
:1026C0001266A490058BEFF0228F33E5336401701E
:1026D0003B124E0E124E0E124E0E900409E0F557AC
:1026E000A3E0F558755900755A04E4F55B7F2C1288
:1026F0004E25900409E0F557A3E0F558755900758B
:102700005A04E4F55B7F2C7E180228E0E53364026E
:1027100060030227A990040BE04480F557A3E0F57D
:1027200058755900755A04E4F55B7F287E58FD7C86
:1027300058124E2A90040BE04480F557A3E0F55858
:10274000755900755A04E4F55B7F287E58FD7C5866
:10275000124E2A90040BE04480F557A3E0F558751B
:102760005900755A04E4F55B7F287E58FD7C5812A9
:102770004E2A90040DE0F557A3E0F5587559007501
:102780005A04E4F55B7F2C7E58FD7C58124E2A904B
:10279000040DE0F557A3E0F558755900755A04E4A7
:1027A000F55B7F2C7E580228E0E53364036003026A
:1027B000284690040FE04480F557A3E0F55875597A
:1027C00000755A04E4F55B7F287E98FD7C58124E14
:1027D0002A90040FE04480F557A3E0F5587559009E
:1027E000755A04E4F55B7F287E98FD7C58124E2ACA
:1027F00090040FE04480F557A3E0F5587559007533
:102800005A04E4F55B7F287E98FD7C58124E2A908E
:102810000411E0F557A3E0F558755900755A04E422
:10282000F55B7F2C7E98FD7C58124E2A900411E0B7
:10283000F557A3E0F558755900755A04E4F55B7F28
:102840002C7E980228E0E533640460030228E690B9
:102850000413E04480F557A3E0F558755900755A04
:1028600004E4F55B7F287ED8FD7C58124E2A900444
:1028700013E04480F557A3E0F558755900755A04E4
:10288000E4F55B7F287ED8FD7C58124E2A90041315
:10289000E04480F557A3E0F558755900755A04E4F3
:1028A000F55B7F287ED8FD7C58124E2A900415E0F7
:1028B000F557A3E0F558755900755A04E4F55B7FA8
:1028C0002C7ED8FD7C58124E2A900415E0F557A3B3
:1028D000E0F558755900755A04E4F55B7F2C7ED8F5
:1028E000FD7C58124E2A228F2FAB059006D612047B
:1028F00021000000009006DA120421000000009080
:1029000006DE12042100000000E49006E2F0A3F0CD
:10291000E52FC4333354C0FEE42408FFEE3410FE28
:10292000E433FDE43458FC9006D6120415E52FC4B8
:10293000333354C0FEE42400FFEE3430FEE433FDB4
:10294000E43458FC9006DA120415E52FC4333354EE
:10295000C0FEE42494FFEE3421FEE433FDE4345859
:10296000FC9006DE120415EB7003022A3A9006D69C
:10297000E0FCA3E0FDA3E0FEA3E0FFE4F557125165
:10298000E09006E2EEF0FAA3EFF0FB9006D6E0FC52
:10299000A3E0FDA3E0FEA3E0FFEA4480F5578B58D7
:1029A000755900755A04E4F55B124E2A9006DAE078
:1029B000FCA3E0FDA3E0FEA3E0FFE4F5571251E025
:1029C0009006E2EEF0FAA3EFF0FB9006DAE0FCA34B
:1029D000E0FDA3E0FEA3E0FF8A57EB4408F558753D
:1029E0005900755A04E4F55B124E2A9006DEE0FCAD
:1029F000A3E0FDA3E0FEA3E0FFE4F5571251E09051
:102A000006E2EEF0FAA3EFF0FB9006DEE0FCA3E0B6
:102A1000FDA3E0FEA3E0FF8A57EB4410F55875597B
:102A200000755A04E4F55B124E2A1238D37B207AE3
:102A3000007D207C80AF2F0238DD7B237D23123880
:102A4000D79006DEE0FCA3E0FDA3E0FEA3E0FFE4F8
:102A5000F5571251E09006E2EEF0FAA3EFF0FB908A
:102A600006DEE0FCA3E0FDA3E0FEA3E0FF8A57EB57
:102A700054EFF558755900755A04E4F55B124E2A67
:102A80001238D39006D6E0FCA3E0FDA3E0FEA3E05D
:102A9000FFE4F5571251E09006E2EEF0FAA3EFF0F2
:102AA000FB9006D6E0FCA3E0FDA3E0FEA3E0FFEA76
:102AB000547FF5578B58755900755A04E4F55B122D
:102AC0004E2A9006DAE0FCA3E0FDA3E0FEA3E0FFBF
:102AD000E4F5571251E09006E2EEF0FAA3EFF0FBB6
:102AE0009006DAE0FCA3E0FDA3E0FEA3E0FF8A5736
:102AF000EB54F7F558755900755A04E4F55B124E1E
:102B00002A22900561E0FB7568057D037F1C126732
:102B100064900563E0FB7568057D057F1C126764A2
:102B2000900564E0FB7568057D107F1C126764905A
:102B30000565E0FB7568057D167F1C1267649005CE
:102B400066E0FB7568057D197F1C12676490056758
:102B5000E0FB7568057D1B7F1C126764900568E0CB
:102B6000FB7568057D1C7F1C1267647568057B7F9B
:102B70007D1D7F1C12676490056BE0FB7568057D09
:102B8000217F1C12676490056CE0FB7568057D224F
:102B90007F1C12676490056DE0FB7568057D257FDD
:102BA0001C12676490056EE0FB7568057D267F1C2E
:102BB00012676490056FE0FB7568057D277F1C1226
:102BC0006764900570E0FB7568057D287F1C1267BF
:102BD00064900572E0FB7568057D407F1C12676498
:102BE000900573E0FB7568057D417F1C126764905A
:102BF000057CE0FB7568057D4A7F1C1267649005C3
:102C00007DE0FB7568057D4B7F1C12676490057E37
:102C1000E0FB7568057D4C7F1C12676490057FE0C2
:102C2000FB7568057D4D7F1C126764900580E0FB95
:102C30007568057D4F7F1C126764900581E0FB7508
:102C400068057D507F1C126764900582E0FB756803
:102C5000057D517F1C126764900583E0FB75680554
:102C60007D527F1C126764900585E0FB7568057DC9
:102C70005E7F1C126764900586E0FB7568057D5FCA
:102C80007F1C126764900574E0FB7568057D427FC8
:102C90001C126764900575E0FB7568057D437F1C19
:102CA000126764900576E0FB7568057D447F1C1211
:102CB0006764900577E0FB7568057D457F1C1267AA
:102CC00064900578E0FB7568057D467F1C1267649B
:102CD000900579E0FB7568057D477F1C126764905D
:102CE000057AE0FB7568057D487F1C1267649005D6
:102CF0007BE0FB7568057D497F1C0267648F338D1F
:102D0000349006D6120421000000009006DA120466
:102D10002100000000E49006DEF0A3F0AF33FCFDDC
:102D2000FEFB7A40F9F81203A4EF2498FFEE342159
:102D3000FEE43DFDEC3458FC9006D6120415AF338A
:102D4000E4FCFDFEFB7A40F9F81203A4EF2480FFB7
:102D5000EE3410FEE43DFDEC3458FC9006DA12042B
:102D600015E5349006D67003022E27E0FCA3E0FDA3
:102D7000A3E0FEA3E0FFE4F5571251E09006DEEE7B
:102D8000F0FAA3EFF0FB9006D6E0FCA3E0FDA3E091
:102D9000FEA3E0FFEA4480F5578B58755900755A39
:102DA00004E4F55B124E2A7B047A007D047C80AF3C
:102DB000331238DD9006DAE0FCA3E0FDA3E0FEA3C9
:102DC000E0FFE4F5571251E09006DEEEF0FAA3EFD3
:102DD000F0FB9006DAE0FCA3E0FDA3E0FEA3E0FF39
:102DE0008A57EB4402F558755900755A04E4F55BAF
:102DF000124E2A9006DAE0FCA3E0FDA3E0FEA3E079
:102E0000FFE4F5571251E09006DEEEF0FAA3EFF082
:102E1000FB9006DAE0FCA3E0FDA3E0FEA3E0FF8A5E
:102E200057EB4401022EE0E0FCA3E0FDA3E0FEA38B
:102E3000E0FFE4F5571251E09006DEEEF0FAA3EF62
:102E4000F0FB9006D6E0FCA3E0FDA3E0FEA3E0FFCC
:102E5000EA547FF5578B58755900755A04E4F55BB1
:102E6000124E2A7B047A007D047C80AF331238DD59
:102E70009006DAE0FCA3E0FDA3E0FEA3E0FFE4F5AA
:102E8000571251E09006DEEEF0FAA3EFF0FB900649
:102E9000DAE0FCA3E0FDA3E0FEA3E0FF8A57EB54D9
:102EA000FDF558755900755A04E4F55B124E2A90E9
:102EB00006DAE0FCA3E0FDA3E0FEA3E0FFE4F557A3
:102EC0001251E09006DEEEF0FAA3EFF0FB9006DA86
:102ED000E0FCA3E0FDA3E0FEA3E0FF8A57EB54FE75
:102EE000F558755900755A04E4F55B124E2A228F85
:102EF00033E4F534F535F536F537E53364017065BF
:102F0000F5577FCC7E35FD7C581251E08E348F35DD
:102F1000E53530E0169003F7E07002A3E07046124A
:102F200051D78E368F3743370180149003F7E07006
:102F300002A3E060301251D68E368F375337FE85AC
:102F40003657853758755900755A04E4F55B7FA4E8
:102F50007E21FD7C58124E2A7B047A007D047C8001
:102F6000E4FF1238DDE53364027078F5577FCC7EDC
:102F700075FD7C581251E08E348F35E53530E01FF9
:102F80009003F9E07002A3E07059F5577FA47E61C9
:102F9000FD7C581251E08E368F375337FE801E90DD
:102FA00003F9E07002A3E0603AE4F5577FA47E6184
:102FB000FD7C581251E08E368F37433701853657E6
:102FC000853758755900755A04E4F55B7FA47E6116
:102FD000FD7C58124E2A7B047A007D047C807F01A0
:102FE0001238DDE53364037078F5577FCC7EB5FD8C
:102FF0007C581251E08E348F35E53530E01F900358
:10300000FBE07002A3E07059F5577FA47EA1FD7C20
:10301000581251E08E368F37433701801E9003FBE4
:10302000E07002A3E0603AE4F5577FA47EA1FD7C46
:10303000581251E08E368F375337FE853657853715
:1030400058755900755A04E4F55B7FA47EA1FD7C98
:1030500058124E2A7B047A007D047C807F0212384D
:10306000DDE53364047078F5577FCC7EF5FD7C5840
:103070001251E08E348F35E53530E01F9003FDE0CE
:103080007002A3E07059F5577FA47EE1FD7C5812D1
:1030900051E08E368F375337FE801E9003FDE0706F
:1030A00002A3E0603AE4F5577FA47EE1FD7C58126C
:1030B00051E08E368F37433701853657853758753F
:1030C0005900755A04E4F55B7FA47EE1FD7C58123B
:1030D0004E2A7B047A007D047C807F031238DD2237
:1030E0008F338D349006D612042100000000900624
:1030F000DA120421000000009006DE120421000014
:1031000000009006E212042100000000E49006E6B0
:10311000F0A3F0AF33FCFDFEFB7A40F9F81203A4F4
:10312000EF24A4FFEE3421FEE43DFDEC3458FC9086
:1031300006D6120415AF33E4FCFDFEFB7A40F9F825
:103140001203A4EF24C0FFEE3434FEE43DFDEC3462
:1031500058FC9006DA120415AF33E4FCFDFEFB7A4E
:1031600040F9F81203A4EF24A4FFEE3410FEE43D6E
:10317000FDEC3458FC9006DE120415AF33E4FCFD80
:10318000FEFB7A40F9F81203A4EF2480FFEE3436F8
:10319000FEE43DFDEC3458FC9006E2120415E534E3
:1031A0009006D66049E0FCA3E0FDA3E0FEA3E0FFAB
:1031B000E4F5571251E09006E6EEF0FAA3EFF0FBCB
:1031C0009006D6E0FCA3E0FDA3E0FEA3E0FFEA4406
:1031D00080F5578B58755900755A04E4F55B124E0B
:1031E0002A7B047A007D047C80AF330238DDE0FC6A
:1031F000A3E0FDA3E0FEA3E0FFE4F5571251E09049
:1032000006E6EEF0FAA3EFF0FB9006D6E0FCA3E0B2
:10321000FDA3E0FEA3E0FFEA547FF5578B587559F4
:1032200000755A04E4F55B124E2A7B047A007D0493
:103230007C80AF331238DD9006DAE0FCA3E0FDA31A
:10324000E0FEA3E0FFE4F5571251E09006E6EEF051
:10325000FAA3EFF0FB9006DAE0FCA3E0FDA3E0FEAA
:10326000A3E0FF8A57EB54FEF558755900755A04D0
:10327000E4F55B124E2A9006DEE0FCA3E0FDA3E03D
:10328000FEA3E0FFE4F5571251E09006E2E0FCA354
:10329000E0FDA3E0FEA3E0FFE4F5571251E0900645
:1032A000DAE0FCA3E0FDA3E0FEA3E0FFE4F55712A3
:1032B00051E0228F34E53464017061F5577FCC7E94
:1032C000447D037C501251E08E358F36900469E0C6
:1032D0004408F557A3E0F558755900755A04E4F50C
:1032E0005B7FCC7E447D037C50124E2AE4F5577FF1
:1032F000CC7E447D037C501251E08E358F36900495
:1033000069E054F7F557A3E0F558755900755A046C
:10331000E4F55B7FCC7E447D0302344DE5346402EA
:103320007061F5577FCC7E447D137C501251E08E46
:10333000358F3690046BE04408F557A3E0F55875D7
:103340005900755A04E4F55B7FCC7E447D137C50B4
:10335000124E2AE4F5577FCC7E447D137C501251E7
:10336000E08E358F3690046BE054F7F557A3E0F507
:1033700058755900755A04E4F55B7FCC7E447D1383
:1033800002344DE53464037060F5577FCC7E447D94
:10339000237C501251E08E358F3690046DE0440846
:1033A000F557A3E0F558755900755A04E4F55B7FAD
:1033B000CC7E447D237C50124E2AE4F5577FCC7E90
:1033C000447D237C501251E08E358F3690046DE0A1
:1033D00054F7F557A3E0F558755900755A04E4F50C
:1033E0005B7FCC7E447D238064E53464047063F5A8
:1033F000577FCC7E447D337C501251E08E358F3622
:1034000090046FE04408F557A3E0F558755900752E
:103410005A04E4F55B7FCC7E447D337C50124E2A07
:10342000E4F5577FCC7E447D337C501251E08E35DD
:103430008F3690046FE054F7F557A3E0F5587559AF
:1034400000755A04E4F55B7FCC7E447D337C5012DA
:103450004E2A2285A72EE50E24FE601F24FE60540E
:1034600024FE700302351524B1700302353724554C
:1034700060030235A61268530235A6E50BB4010FAE
:1034800090012AE05440F51160030235A6800690B1
:103490000764E07013750E04900113E50EF09001BF
:1034A0001AE04401F00235A63092030235A6750EEB
:1034B0000402358F900764E07020A3E0701CFF12B7
:1034C0006BDAE50DB41004E4FF8007E50DB42005C8
:1034D0007F0112473B7F01126BDA750E06900113D4
:1034E000E50EF0A37411F0A37403F090011AE04408
:1034F00001F0C284E4900764F0A3F0900380E0FF41
:1035000064306004EFB4FF05900768804EE49007D4
:1035100068F00235A6900768E060030235A69007C0
:103520006604F0E4FF126361750E55900114744453
:10353000F0A37403F0806FE50B7025309268750E70
:1035400002900113E50EF0A37411F0A37403F09040
:10355000011AE04401F0C2849007647401F08046CF
:1035600090037CE06403703E900765E0700B7F3051
:103570001263619001157403F09007657401F09077
:1035800001147411F090012AE030E61A750E0290D1
:103590000113E50EF0A37411F0A37403F090011A67
:1035A000E04401F0C284900766E060031264CFE556
:1035B0000E640660157F0D126B6BEF25E0FFEE3396
:1035C000FE126D0F126A0F126017E50E6406600599
:1035D000E50EB4551390037DE0FF126361900388FC
:1035E000E0FF126958126D7B026D208F34E5346460
:1035F00001705CF5577FCC7E34FD7C581251E08E13
:10360000358F369003EFE04408F557A3E0F5587581
:103610005900755A04E4F55B7FCC7E34FD7C58126A
:103620004E2AE4F5577FCC7E34FD7C581251E08E53
:10363000358F369003EFE054F7F557A3E0F5587552
:103640005900755A04E4F55B7FCC7E34023771E58E
:10365000346402705CF5577FCC7E74FD7C58125147
:10366000E08E358F369003F1E04408F557A3E0F57E
:1036700058755900755A04E4F55B7FCC7E74FD7C67
:1036800058124E2AE4F5577FCC7E74FD7C581251B7
:10369000E08E358F369003F1E054F7F557A3E0F54F
:1036A00058755900755A04E4F55B7FCC7E74023777
:1036B00071E5346403705BF5577FCC7EB4FD7C58B4
:1036C0001251E08E358F369003F3E04408F557A38E
:1036D000E0F558755900755A04E4F55B7FCC7EB46B
:1036E000FD7C58124E2AE4F5577FCC7EB4FD7C5801
:1036F0001251E08E358F369003F3E054F7F557A35F
:10370000E0F558755900755A04E4F55B7FCC7EB43A
:10371000805FE5346404705FF5577FCC7EF4FD7CF8
:10372000581251E08E358F369003F5E04408F55776
:10373000A3E0F558755900755A04E4F55B7FCC7E1B
:10374000F4FD7C58124E2AE4F5577FCC7EF4FD7CC4
:10375000581251E08E358F369003F5E054F7F55747
:10376000A3E0F558755900755A04E4F55B7FCC7EEB
:10377000F4FD7C58124E2A228F338C348D359006FE
:10378000D612042100000000E49006DAF0A3F0E570
:1037900033C4333354C0FEE424C4FFEE3435FEE4B6
:1037A00033FDE43458FC9006D6120415EB70030286
:1037B000386A9006D6E0FCA3E0FDA3E0FEA3E0FF9C
:1037C000853457853558755900755A04E4F55B12F0
:1037D0004E2A9006D6E0FCA3E0FDA3E0FEA3E0FFA6
:1037E000E4F5571251E09006DAEEF0A3EFF0900600
:1037F000D6E0FCA3E0FDA3E0FEA3E0FF85345785FF
:103800003558755900755A04E4F55B124E2A900636
:10381000D6E0FCA3E0FDA3E0FEA3E0FFE4F5571231
:1038200051E09006DAEEF0A3EFF07B217A007D21E3
:103830007C80AF331238DD9006D6E0FCA3E0FDA318
:10384000E0FEA3E0FFE4F5571251E09006DAEEF057
:10385000FAA3EFF0FB9006D6E0FCA3E0FDA3E0FEA8
:10386000A3E0FF8A57EB4401803E7B247A007D244D
:103870007C80AF331238DD9006D6E0FCA3E0FDA3D8
:10388000E0FEA3E0FFE4F5571251E09006DAEEF017
:10389000FAA3EFF0FB9006D6E0FCA3E0FDA3E0FE68
:1038A000A3E0FF8A57EB54FEF558755900755A048A
:1038B000E4F55B124E2A9006D6E0FCA3E0FDA3E0FF
:1038C000FEA3E0FFE4F5571251E09006DAEEF0A314
:1038D000EFF0227B047D047A007C80AF2F8C4F8D2B
:1038E000508A518B52EF14605C14700302398E14AD
:1038F00070030239D624036003023A22854F5785AC
:103900005058755900755A04E4F55B7F887E21FD97
:103910007C58124E2AE4F5577F8C7E21FD7C58128C
:1039200051E0855157855258755900755A04E4F590
:103930005B7F887E21FD7C58124E2AE4F5577F8CF0
:103940007E21023A1C854F57855058755900755A8B
:1039500004E4F55B7F887E61FD7C58124E2AE4F515
:10396000577F8C7E61FD7C581251E08551578552FE
:1039700058755900755A04E4F55B7F887E61FD7CBB
:1039800058124E2AE4F5577F8C7E61023A1C854F0F
:1039900057855058755900755A04E4F55B7F887E49
:1039A000A1FD7C58124E2AE4F5577F8C7EA1FD7C48
:1039B000581251E0855157855258755900755A046F
:1039C000E4F55B7F887EA1FD7C58124E2AE4F55712
:1039D0007F8C7EA18046854F57855058755900755C
:1039E0005A04E4F55B7F887EE1FD7C58124E2AE4A0
:1039F000F5577F8C7EE1FD7C581251E0855157854B
:103A00005258755900755A04E4F55B7F887EE1FDD4
:103A10007C58124E2AE4F5577F8C7EE1FD7C5812CB
:103A200051E02290018FE01204523A49823A6785B0
:103A30003A82863A9C873AB68A3AD3903B10913ABA
:103A4000F2923B2BB000003B699004C2E0D394019A
:103A50005003023B691263AC78907C017D017B01CD
:103A60007A057955023B079004C2E0D394015003D4
:103A7000023B6978907C017D017B017A0579D70250
:103A80003B079004C2E0D394015003023B69789055
:103A90007C017D017B017A0379C3806B9004C2E0D5
:103AA000D394015003023B6978907C017D017B0136
:103AB0007A04794180519004C2E0D394015003020A
:103AC0003B69126C3F78907C017D017B017A06791D
:103AD0005680349004C2E0D39401403274059002C1
:103AE0008DF0A3F078907C017D017B017A0279133F
:103AF00080159004C2E0D39401401378907C017D3E
:103B0000017B017A0279937E007F8002030B804A59
:103B10009004C2E0D3940140507B017A0179907502
:103B200034007535807F007ED2802C9004C2E0D3B3
:103B30009401402678907C017D017B017A0479C54F
:103B40007E007F0912030B7B017A0179997534009D
:103B50007535777F097EF60264877E007F807DFF62
:103B60007B017A01799012047822E4FD90011EE035
:103B7000FEA3E0FBEEF52FEBF530900344E0FEA34F
:103B8000E0FBEEF531EBF532A3E0FEA3E0FBEEF552
:103B900033EBF534A3E0FEA3E0FBEEF535EBF536B1
:103BA000A3E0FEA3E0FBEEF537EBF538900120E053
:103BB000FEA3E0FBEEF539EBF53A90034CE0FEA3F3
:103BC000E0FBEEF53BEBF53CA3E0FEA3E0FBEEF5FE
:103BD0003DEBF53EA3E0FEA3E0FBEEF53FEBF54049
:103BE000A3E0FEA3E0FBEBFF90014BE0FCC3E5305C
:103BF0009538E5376480F8E52F64809850027D0899
:103C0000D3E5309536E5356480F8E52F648098403B
:103C100003430504C3E5309534E5336480F8E52FAC
:103C20006480985003430502D3E5309532E5316452
:103C300080F8E52F6480984003430501C3E53A9F6F
:103C4000E5399E5003430580D3E53A9540E5399523
:103C50003F4003430540C3E53A953EE539953D5065
:103C600003430520D3E53A953CE539953B400343B2
:103C7000051090011BE0FFD394004005ED7002ADEC
:103C80000790011BEDF0ECF45D6010C2849001130D
:103C9000E054FEF090076AE04410F0227F1F126D9E
:103CA000879006B1E0FB7568057DF87F2012676498
:103CB0009006B2E0FB7568057DF07F201267649086
:103CC00006B3E0FB7568057D3A7F201267649006B5
:103CD000B4E0FB7568057D3B7F201267649006B5F4
:103CE000E0FB7568057DF17F201267649006B6E001
:103CF000FB7568057D427F201267649006B7E0FB84
:103D00007568057D437F201267649006B8E0FB75F7
:103D100068057DF47F201267649006BAE0FB756841
:103D2000057D577F201267649006B9E0FB75680532
:103D30007D567F201267649006C4E0FB7568057DA0
:103D4000177F201267649006BBE0FB7568057DC590
:103D50007F201267649006BCE0FB7568057DC67F16
:103D6000201267649006BDE0FB7568057DC77F2063
:103D70001267649006BEE0FB7568057DD57F201252
:103D800067649006BFE0FB7568057DD67F201267EB
:103D9000649006C0E0FB7568057DD77F20126764DC
:103DA0009006C1E0FB7568057DE57F201267649091
:103DB00006C2E0FB7568057DE67F20126764900609
:103DC000C3E0FB7568057DE77F20026764E4F52F9B
:103DD000F530F531F532EF147003023E6B046003E9
:103DE000023EF6E4FF125E8290075FEEF0A3EFF072
:103DF000D39400EE94204012900152E0FEA3E0FD27
:103E0000EDFF90075FEEF0A3EFF090075FE0FEA3F9
:103E1000E0FF8E31F53290021A12662490075FEEB1
:103E2000F0A3EFF090022AE0FDA3E0FBA3E0F5375A
:103E3000A3E0F538AF32AE311266318E318F329059
:103E4000037DE030E40DE4900152F0A3F090014EC8
:103E5000023ED890075FE0FCA3E0FDEC900152F039
:103E6000A3EDF0E53190014E023EF17F60125E82DB
:103E7000900761EEF0A3EFF0D39400EE942040128F
:103E8000900154E0FEA3E0FDEDFF900761EEF0A38A
:103E9000EFF0900761E0FEA3E0FF8E31F532900273
:103EA0001E126624900761EEF0A3EFF090022EE060
:103EB000FDA3E0FBA3E0F537A3E0F538AF32AE3168
:103EC0001266318E318F3290037DE030E50EE49042
:103ED0000154F0A3F0900150F0A3F022900761E0AC
:103EE000FCA3E0FDEC900154F0A3EDF0E53190016E
:103EF00050F0A3E532F0228F378C388D398B3A9011
:103F000006D612042100000000E49006DAF0A3F0C7
:103F1000AF37FCFDFEFBFA7910F81203A4EF24C4BE
:103F2000FFEE3445FEED3403FDEC3450FC9006D634
:103F3000120415E53A607C9006D6E0FCA3E0FDA3F0
:103F4000E0FEA3E0FF853857853958755900755A4A
:103F500004E4F55B124E2A9006D6E0FCA3E0FDA334
:103F6000E0FEA3E0FFE4F5571251E09006DAEEF030
:103F7000A3EFF07B207A007D207C80AF371238DD04
:103F80009006D6E0FCA3E0FDA3E0FEA3E0FFE4F58D
:103F9000571251E09006DAEEF0FAA3EFF0FB90062C
:103FA000D6E0FCA3E0FDA3E0FEA3E0FF8A57EB44CC
:103FB00001803E7B237A007D237C80AF371238DD81
:103FC0009006D6E0FCA3E0FDA3E0FEA3E0FFE4F54D
:103FD000571251E09006DAEEF0FAA3EFF0FB9006EC
:103FE000D6E0FCA3E0FDA3E0FEA3E0FF8A57EB547C
:103FF000FEF558755900755A04E4F55B124E2A9087
:1040000006D6E0FCA3E0FDA3E0FEA3E0FFE4F55745
:104010001251E09006DAEEF0A3EFF0228F33E4F5D0
:1040200034F535E5336401703AF5577FCC7E457D34
:10403000037C501251E08E348F35900472E030E0F2
:104040000543350180035335FE8534578535587552
:104050005900755A04E4F55B7FCC7E457D037C50A6
:10406000124E2AE5336402703AF5577FCC7E457DC7
:10407000137C501251E08E348F35900474E030E0A0
:104080000543350180035335FE8534578535587512
:104090005900755A04E4F55B7FCC7E457D137C5056
:1040A000124E2AE5336403703AF5577FCC7E457D86
:1040B000237C501251E08E348F35900476E030E04E
:1040C0000543350180035335FE85345785355875D2
:1040D0005900755A04E4F55B7FCC7E457D237C5006
:1040E000124E2AE5336404703AF5577FCC7E457D45
:1040F000337C501251E08E348F35900478E030E0FC
:104100000543350180035335FE8534578535587591
:104110005900755A04E4F55B7FCC7E457D337C50B5
:10412000124E2A228F33E4F534F535E533640170FD
:104130003AF5577F8C7E457D037C501251E08E34DA
:104140008F3590047AE030E0054335018003533524
:10415000FE853457853558755900755A04E4F55B6A
:104160007F8C7E457D037C50124E2AE533640270BD
:104170003AF5577F8C7E457D137C501251E08E348A
:104180008F3590047CE030E00543350180035335E2
:10419000FE853457853558755900755A04E4F55B2A
:1041A0007F8C7E457D137C50124E2AE5336403706C
:1041B0003AF5577F8C7E457D237C501251E08E343A
:1041C0008F3590047EE030E00543350180035335A0
:1041D000FE853457853558755900755A04E4F55BEA
:1041E0007F8C7E457D237C50124E2AE5336404701B
:1041F0003AF5577F8C7E457D337C501251E08E34EA
:104200008F35900480E030E005433501800353355D
:10421000FE853457853558755900755A04E4F55BA9
:104220007F8C7E457D337C50124E2A228F39E539B2
:104230006401703AF5577FD07E447D037C50125163
:10424000E0EE54FEF53A753B00900441E0453AF546
:104250003CA3E0453BF53D853C57F5587559007545
:104260005A04E4F55B7FD07E447D03024329E5399F
:1042700064027039F5577FD07E447D137C50125113
:10428000E0EE54FEF53A753B00900443E0453AF504
:104290003CA3E0453BF53D853C57F5587559007505
:1042A0005A04E4F55B7FD07E447D13807CE539645D
:1042B000037039F5577FD07E447D237C501251E046
:1042C000EE54FEF53A753B00900445E0453AF53C66
:1042D000A3E0453BF53D853C57F558755900755AA7
:1042E00004E4F55B7FD07E447D23803DE539B40452
:1042F0003DE4F5577FD07E447D337C501251E0EE93
:1043000054FEF53A753B00900447E0453AF53CA36E
:10431000E0453BF53D853C57F558755900755A0405
:10432000E4F55B7FD07E447D337C50124E2A228F91
:1043300039E5396401703AF5577FD47E447D037CBA
:10434000501251E0EE54FEF53A753B00900449E0FE
:10435000453AF53CA3E0453BF53D853C57F558759E
:104360005900755A04E4F55B7FD47E447D03024412
:104370002CE53964027039F5577FD47E447D137C77
:10438000501251E0EE54FEF53A753B0090044BE0BC
:10439000453AF53CA3E0453BF53D853C57F558755E
:1043A0005900755A04E4F55B7FD47E447D13807C0C
:1043B000E53964037039F5577FD47E447D237C5002
:1043C0001251E0EE54FEF53A753B0090044DE04585
:1043D0003AF53CA3E0453BF53D853C57F55875590A
:1043E00000755A04E4F55B7FD47E447D23803DE56F
:1043F00039B4043DE4F5577FD47E447D337C5012BC
:1044000051E0EE54FEF53A753B0090044FE0453A1A
:10441000F53CA3E0453BF53D853C57F55875590003
:10442000755A04E4F55B7FD47E447D337C50124E94
:104430002A228F39E5396401703AF5577FD87E44D6
:104440007D037C501251E0EE54FEF53A753B00902E
:104450000451E0453AF53CA3E0453BF53D853C572A
:10446000F558755900755A04E4F55B7FD87E447D94
:104470000302452FE53964027039F5577FD87E4431
:104480007D137C501251E0EE54FEF53A753B0090DE
:104490000453E0453AF53CA3E0453BF53D853C57E8
:1044A000F558755900755A04E4F55B7FD87E447D54
:1044B00013807CE53964037039F5577FD87E447DDD
:1044C000237C501251E0EE54FEF53A753B00900407
:1044D00055E0453AF53CA3E0453BF53D853C57F5B5
:1044E00058755900755A04E4F55B7FD87E447D23E6
:1044F000803DE539B4043DE4F5577FD87E447D33F3
:104500007C501251E0EE54FEF53A753B0090045792
:10451000E0453AF53CA3E0453BF53D853C57F55871
:10452000755900755A04E4F55B7FD87E447D337C71
:1045300050124E2A228F34E5346401703AF5577FC9
:10454000DC7E447D037C501251E0EE54FEF535755F
:104550003600900459E04535F537A3E04536F53887
:10456000853757F558755900755A04E4F55B7FDCBB
:104570007E447D03024632E53464027039F5577F8C
:10458000DC7E447D137C501251E0EE54FEF535750F
:10459000360090045BE04535F537A3E04536F53845
:1045A000853757F558755900755A04E4F55B7FDC7B
:1045B0007E447D13807CE53464037039F5577FDCDD
:1045C0007E447D237C501251E0EE54FEF535753665
:1045D0000090045DE04535F537A3E04536F53885B4
:1045E0003757F558755900755A04E4F55B7FDC7E42
:1045F000447D23803DE534B4043DE4F5577FDC7E03
:10460000447D337C501251E0EE54FEF53575360092
:1046100090045FE04535F537A3E04536F53885373A
:1046200057F558755900755A04E4F55B7FDC7E44F4
:104630007D337C50124E2A228F34E5346401703A67
:10464000F5577FE07E447D037C501251E0EE54FE2E
:10465000F535753600900461E04535F537A3E04542
:1046600036F538853757F558755900755A04E4F50D
:104670005B7FE07E447D03024735E5346402703998
:10468000F5577FE07E447D137C501251E0EE54FEDE
:10469000F535753600900463E04535F537A3E04500
:1046A00036F538853757F558755900755A04E4F5CD
:1046B0005B7FE07E447D13807CE53464037039F5D4
:1046C000577FE07E447D237C501251E0EE54FEF58E
:1046D00035753600900465E04535F537A3E045367D
:1046E000F538853757F558755900755A04E4F55B68
:1046F0007FE07E447D23803DE534B4043DE4F557FE
:104700007FE07E447D337C501251E0EE54FEF5355F
:10471000753600900467E04535F537A3E04536F57A
:1047200038853757F558755900755A04E4F55B7F9D
:10473000E07E447D337C50124E2A228F2FE4F530E8
:10474000F531F5577F207ECBFD7C521251E090056C
:10475000FCEEF0A3EFF0E4F5577F047E447D037C8C
:10476000501251E09005FAEEF0A3EFF0E518B40115
:104770001D1261D87FD07E07126B0F7D027F011260
:1047800056FF7D027F01125BDCAF2F1250EFE51860
:10479000640260030248377F02125EEB7F021262FE
:1047A0007B7D02E4FF1256FF7D02E4FF125BDCE436
:1047B000FBFD7F01121679E4FB7D017F0112167962
:1047C0007B017D027F011216797B017D037F01123F
:1047D0001679E4FBFDFF121679E4FB7D01FF12164A
:1047E000797B017D02E4FF1216797B017D03E4FFF2
:1047F000121679E4FBFD7F01122208E4FB7D017FA4
:10480000011222087B017D027F011222087B017DBB
:10481000037F01122208E4FBFDFF122208E4FB7D66
:1048200001FF1222087B017D02E4FF1222087B01B6
:104830007D03E4FF1222089005F9E518F0228F3479
:10484000E53464017037F5577FD07E34FD7C581213
:1048500051E0EE54FEF5357536009003C7E045355E
:10486000F537A3E04536F538853757F558755900C3
:10487000755A04E4F55B7FD07E3402492FE5346439
:10488000027036F5577FD07E74FD7C581251E0EEF1
:1048900054FEF5357536009003C9E04535F537A36C
:1048A000E04536F538853757F558755900755A047F
:1048B000E4F55B7FD07E748076E53464037036F572
:1048C000577FD07EB4FD7C581251E0EE54FEF53592
:1048D0007536009003CBE04535F537A3E04536F556
:1048E00038853757F558755900755A04E4F55B7FDC
:1048F000D07EB4803AE534B4043BE4F5577FD07EF3
:10490000F4FD7C581251E0EE54FEF53575360090FA
:1049100003CDE04535F537A3E04536F53885375703
:10492000F558755900755A04E4F55B7FD07EF4FDA7
:104930007C58124E2A228F34E53464017037F557C3
:104940007FD47E34FD7C581251E0EE54FEF535756F
:1049500036009003CFE04535F537A3E04536F5380E
:10496000853757F558755900755A04E4F55B7FD4BF
:104970007E34024A27E53464027036F5577FD47ED0
:1049800074FD7C581251E0EE54FEF53575360090FA
:1049900003D1E04535F537A3E04536F5388537577F
:1049A000F558755900755A04E4F55B7FD47E748020
:1049B00076E53464037036F5577FD47EB4FD7C58B9
:1049C0001251E0EE54FEF5357536009003D3E04504
:1049D00035F537A3E04536F538853757F55875591D
:1049E00000755A04E4F55B7FD47EB4803AE534B4B4
:1049F000043BE4F5577FD47EF4FD7C581251E0EE81
:104A000054FEF5357536009003D5E04535F537A3EE
:104A1000E04536F538853757F558755900755A040D
:104A2000E4F55B7FD47EF4FD7C58124E2A228F344D
:104A3000E53464017037F5577FD87E34FD7C581219
:104A400051E0EE54FEF5357536009003D7E045355C
:104A5000F537A3E04536F538853757F558755900D1
:104A6000755A04E4F55B7FD87E34024B1FE534644D
:104A7000027036F5577FD87E74FD7C581251E0EEF7
:104A800054FEF5357536009003D9E04535F537A36A
:104A9000E04536F538853757F558755900755A048D
:104AA000E4F55B7FD87E748076E53464037036F578
:104AB000577FD87EB4FD7C581251E0EE54FEF53598
:104AC0007536009003DBE04535F537A3E04536F554
:104AD00038853757F558755900755A04E4F55B7FEA
:104AE000D87EB4803AE534B4043BE4F5577FD87EF1
:104AF000F4FD7C581251E0EE54FEF5357536009009
:104B000003DDE04535F537A3E04536F53885375701
:104B1000F558755900755A04E4F55B7FD87EF4FDAD
:104B20007C58124E2A228F34E53464017037F557D1
:104B30007FDC7E34FD7C581251E0EE54FEF5357575
:104B400036009003DFE04535F537A3E04536F5380C
:104B5000853757F558755900755A04E4F55B7FDCC5
:104B60007E34024C17E53464027036F5577FDC7EE4
:104B700074FD7C581251E0EE54FEF5357536009008
:104B800003E1E04535F537A3E04536F5388537577D
:104B9000F558755900755A04E4F55B7FDC7E748026
:104BA00076E53464037036F5577FDC7EB4FD7C58BF
:104BB0001251E0EE54FEF5357536009003E3E04502
:104BC00035F537A3E04536F538853757F55875592B
:104BD00000755A04E4F55B7FDC7EB4803AE534B4BA
:104BE000043BE4F5577FDC7EF4FD7C581251E0EE87
:104BF00054FEF5357536009003E5E04535F537A3ED
:104C0000E04536F538853757F558755900755A041B
:104C1000E4F55B7FDC7EF4FD7C58124E2A228F3453
:104C2000E53464017037F5577FE07E34FD7C58121F
:104C300051E0EE54FEF5357536009003E7E045355A
:104C4000F537A3E04536F538853757F558755900DF
:104C5000755A04E4F55B7FE07E34024D0FE5346461
:104C6000027036F5577FE07E74FD7C581251E0EEFD
:104C700054FEF5357536009003E9E04535F537A368
:104C8000E04536F538853757F558755900755A049B
:104C9000E4F55B7FE07E748076E53464037036F57E
:104CA000577FE07EB4FD7C581251E0EE54FEF5359E
:104CB0007536009003EBE04535F537A3E04536F552
:104CC00038853757F558755900755A04E4F55B7FF8
:104CD000E07EB4803AE534B4043BE4F5577FE07EEF
:104CE000F4FD7C581251E0EE54FEF5357536009017
:104CF00003EDE04535F537A3E04536F53885375700
:104D0000F558755900755A04E4F55B7FE07EF4FDB3
:104D10007C58124E2A228B2E8A2F8930E4F53C05CE
:104D200030E5307002052F14F9120331F5360530E5
:104D3000E530AA2F7002052F14F9120331F537055B
:104D400030E530AA2F7002052F14F9120331F5381F
:104D50000530E530AA2F7002052F14F9120331F542
:104D600039E535F53AE534F53B9005D6E0FF756851
:104D7000047BFF7D7F1267649005D6E0FF756804B1
:104D8000AB397D801267649005D6E0FF756804AB8F
:104D9000387D811267649005D6E0FF756804AB37F3
:104DA0007D821267649005D6E0FF756804AB367D9E
:104DB000831267649005D6E0FF756804AB3A7D8482
:104DC0001267649005D6E0FF756804AB3B7D8512E1
:104DD00067649005D6E0FF7568047B017D861267E5
:104DE00064E4F53CE53CC3953A50229005D6E0FFDB
:104DF0007B047D901266A4AB310533E533AA327093
:104E000002053214F9EF12034A053C80D7229004C0
:104E100007E04480F557A3E0F558755900755A042A
:104E2000E4F55B7F287E18FD7C588F568E558D5497
:104E30008C538F5F78081204018F5EAF56AE55AD6C
:104E400054AC5378101204018F5DAF56AE55AD547B
:104E5000AC5378181204018F5CE55AF563E559F5F7
:104E600064855860E557F561E55B70057562A08063
:104E7000037562A27568047BFF7D7FAF6212676471
:104E8000756804AB5F7D80AF62126764756804ABC0
:104E90005E7D81AF62126764756804AB5D7D82AF31
:104EA00062126764756804AB5C7D83AF62126764ED
:104EB000756804AB637D84AF62126764756804AB88
:104EC000647D85AF621267647568047B037D86AF7D
:104ED00062126764756804AB607D87AF62126764B5
:104EE000756804AB617D87AF62126764756804E41E
:104EF000FB7D87AF62126764756804E4FB7D87AF52
:104F0000620267648B2E8A2F89300530E53070028B
:104F1000052F14F9120331F5360530E530AA2F704C
:104F200002052F14F9120331F5370530E530AA2FA9
:104F30007002052F14F9120331F5380530E530AA57
:104F40002F7002052F14F9120331F539E535F53AC2
:104F5000E534F53B9005D6E0FF7568047BFF7D7F67
:104F60001267649005D6E0FF756804AB397D801246
:104F700067649005D6E0FF756804AB387D811267E1
:104F8000649005D6E0FF756804AB377D82126764D4
:104F90009005D6E0FF756804AB367D831267649098
:104FA00005D6E0FF756804AB3A7D8412676490050E
:104FB000D6E0FF756804AB3B7D851267649005D62B
:104FC000E0FF7568047B037D86126764E4F53CE5C9
:104FD0003CC3953A50239005D6E0FFAB310533E54D
:104FE00033AA327002053214F9120331FB756804DA
:104FF0007D87126764053C80D622E4FD900152E073
:10500000FEA3E0FBEEF52FEBF530A3E0FEA3E0FB03
:10501000EEF531EBF53290036CE0FEA3E0FBEEF52C
:1050200033EBF534A3E0FEA3E0FBEEF535EBF5360C
:10503000A3E0FEA3E0FBEEF537EBF538A3E0FEA31B
:10504000E0FBEBFFD3E5309534E52F9533400B0DB6
:1050500090028FE52FF0A3E530F0C3E5309536E5FB
:105060002F95355003430504D3E5309538E52F954A
:10507000374003430510C3E5309FE52F9E5003439F
:105080000540D3E5329534E5319533400D430502B3
:10509000900291E531F0A3E532F0C3E5329536E5B3
:1050A0003195355003430508D3E5329538E5319500
:1050B000374003430520C3E5329FE5319E5003434B
:1050C0000580900119E0FFD394004005ED7002AD1A
:1050D00007900119EDF0900149E0F45D6010C28481
:1050E000900113E054FEF090076AE04408F022EFCC
:1050F000700C755780F558F559755A048017900350
:10510000C37408F0A37403F075578075580075597F
:1051100000755A04E4F55B7F447EC07D037C501229
:105120004E2A9003C3E0F557A3E0F5587559007572
:105130005A04E4F55B7F847E21FD7C58124E2A9050
:1051400003C3E0F557A3E0F558755900755A04E418
:10515000F55B7F847E61FD7C58124E2A9003C3E08C
:10516000F557A3E0F558755900755A04E4F55B7FCF
:10517000847EA1FD7C58124E2A9003C3E0F557A30C
:10518000E0F558755900755A04E4F55B7F847EE1BB
:10519000FD7C58124E2A7557807558007559007558
:1051A0005A04E4F55B7F887E21FD7C58124E2AE488
:1051B000F5577F8C7E21FD7C581251E0E4F557F5C0
:1051C00058F559755A04F55B7F887E21FD7C58128D
:1051D0004E2A12552A22E4F5577E217FA4FD7C58E1
:1051E0008F568E558D548C53E4F55D8F5B78081285
:1051F00004018F5AAF56AE55AD54AC53781012041B
:10520000018F59AF56AE55AD54AC53781812040106
:105210008F58E5577005755CA08003755CA27568B2
:10522000047BFF7D7FAF5C126764756804AB5B7DB8
:1052300080AF5C126764756804AB5A7D81AF5C1205
:105240006764756804AB597D82AF5C1267647568EA
:1052500004AB587D83AF5C1267647568047B047D82
:1052600084AF5C126764756804E4FB7D85AF5C12F3
:1052700067647568047B017D86AF5C1267647B049C
:105280007D90AF5C1266A48F5E7B047D90AF5C1254
:1052900066A48F5F7B047D90AF5C1266A48F607BF9
:1052A000047D90AF5C1266A48F60E55F7F00FEEF27
:1052B000255EFFE43EFE22E4FD90014EE0FEA3E009
:1052C000FBEEF52FEBF530A3E0FEA3E0FBEEF531AE
:1052D000EBF532900364E0FEA3E0FBEEF533EBF573
:1052E00034A3E0FEA3E0FBEEF535EBF536A3E0FEDC
:1052F000A3E0FBEEF537EBF538A3E0FEA3E0FBEB14
:10530000FFD3E5309534E52F953340010DC3E530EB
:105310009536E52F95355003430504D3E530953890
:10532000E52F95374003430510C3E5309FE52F9ED9
:105330005003430540D3E5329534E53195334003BE
:10534000430502C3E5329536E531953550034305F3
:1053500008D3E5329538E53195374003430520C33E
:10536000E5329FE5319E5003430580900118E0FF30
:10537000D394004005ED7002AD07900118EDF09058
:105380000148E0F45D6010C284900113E054FEF027
:1053900090076AE04404F022E4FD900156E0FEA389
:1053A000E0FBEEF52FEBF530A3E0FEA3E0FBEEF51E
:1053B00031EBF532900374E0FEA3E0FBEEF533EB46
:1053C000F534A3E0FEA3E0FBEEF535EBF536A3E004
:1053D000FEA3E0FBEEF537EBF538A3E0FEA3E0FB20
:1053E000EBFFD3E5309534E52F953340010DC3E550
:1053F000309536E52F95355003430504D3E53095B8
:1054000038E52F95374003430510C3E5309FE52F5E
:105410009E5003430540D3E5329534E53195334042
:1054200003430502C3E5329536E531953550034314
:105430000508D3E5329538E531953740034305201B
:10544000C3E5329FE5319E5003430580900117E08C
:10545000FFD394004005ED7002AD07900117EDF009
:10546000900147E0F45D6010C284900113E054FEA7
:10547000F090076AE04402F0228F34E534B4012052
:105480001251D68E358F36E5354420F5578536587E
:10549000755900755A04E4F55B7FA47E21025523FB
:1054A000E534B40224E4F5577E611251DB8E358F6A
:1054B00036E5354420F557853658755900755A0438
:1054C000E4F55B7FA47E61805AE534B40329E4F5FA
:1054D000577FA47EA1FD7C581251E08E358F36E5B2
:1054E000354420F557853658755900755A04E4F54A
:1054F0005B7FA47EA1802CE534B4042DE4F5577FB6
:10550000A47EE1FD7C581251E08E358F36E535449E
:1055100020F557853658755900755A04E4F55B7FB8
:10552000A47EE1FD7C58124E2A22E4F532F533E4E4
:10553000F5577F8C7E21FD7C581251E0EF4E70654F
:10554000F5577F847E21FD7C581251E09003C3E023
:105550006E7003A3E06F704DF5577F847E61FD7C14
:10556000581251E09003C3E06E7003A3E06F7035F2
:10557000F5577F847EA1FD7C581251E09003C3E073
:10558000B50622A3E0B5071DE4F5577F847EE1FD53
:105590007C581251E09003C3E0B50609A3E0B507BB
:1055A00004751802220533E53370020532C394886E
:1055B000E5329413500302552F900601E532F0A313
:1055C000E533F0E4F532F533F518228F368D378B5D
:1055D00038E49006D6F0A3F0A3F0A3F0AF38126D34
:1055E000A7AF38126C89AD38AF361265E0AF38120C
:1055F0006894AD38AF371265E0AF38126894AD38B3
:105600007F01126CEB126B94AF38126DA7AF38129A
:105610006C89E53604FFAD381265E0AF3812689446
:10562000AF381263F69006D6EFF0AF38126C98AF31
:10563000381263F6A3EFF0AF38126AEF9006D6E0A7
:1056400075F010A4FFA3E07C002FFEEC35F0A3F072
:10565000A3CEF0AF38126B2EAF38126DA79006D8DC
:10566000E0FEA3E0FF228D31EF14B40800400302F6
:1056700056FE90568075F003A4C58325F0C583734C
:105680000256980256A50256B20256BF0256CE02E4
:1056900056DD0256EC0256EC853138E4FBFA7D808B
:1056A000FC7FF08054853138E4FBFA7D94FC7FEC7C
:1056B0008047853138E4FBFA7D90FC7FE8803A85AD
:1056C00031387BFC7AFF7D8C7C007FE8802B853134
:1056D000387BF87AFF7D887C007FE8801C85313834
:1056E0007BF47AFF7D847C007FE8800D8531387BF8
:1056F000F07AFF7D807C007FE87EFF125C57228D70
:1057000032EF60357D01E4FF1230E07D017F011250
:1057100030E07D017F021230E07D017F031230E036
:105720007D01E4FF122CFD7D017F01122CFD7D0126
:105730007F02122CFD7D018054E53264017032FD40
:10574000FF1230E0E4FD7F011230E0E4FD7F021241
:1057500030E0E4FD7F031230E0E4FDFF122CFDE4B5
:10576000FD7F01122CFDE4FD7F02122CFDE4FD8083
:105770001CE532B4021CE4FD7F021230E0E4FD7F40
:10578000031230E0E4FD7F02122CFDE4FD7F0312E2
:105790002CFD228F2F8D30E4F534F533F532F531C1
:1057A000FBFAE52F700A753480753322F532802EAE
:1057B000E52FB4010B753480753326753200801ED9
:1057C000E52FB4020B7534807533A6753200800E58
:1057D000E52FB4030C7534807533A2753200753132
:1057E00052AF34AE33AD32AC31E4F5571251E0AACA
:1057F00006AB07E530600543032080035303DFAFAA
:1058000034AE33AD32AC318A578B58755900755A66
:1058100004E4F55B124E2A7B037A007D037C80AFA3
:105820002F0238DD12003A787FE4F6D8FD758168E2
:1058300002586E0262C8E493A3F8E493A34003F60F
:105840008001F208DFF48029E493A3F85407240CC4
:10585000C8C333C4540F4420C8834004F4568001A5
:1058600046F6DFE4800B0102040810204080900F10
:105870007AE47E019360BCA3FF543F30E509541FD6
:10588000FEE493A360010ECF54C025E060A840B8A9
:10589000E493A3FAE493A3F8E493A3C8C582C8CA27
:1058A000C583CAF0A3C8C582C8CAC583CADFE9DEFA
:1058B000E780BE8F2F8D309006D6120421000000A5
:1058C00000E49006DAF0A3F0E52FC4333354C0FEB1
:1058D000E42494FFEE3421FEE433FDE43458FC90DC
:1058E00006D61204159006D6E0FCA3E0FDA3E0FE68
:1058F000A3E0FFE4F5571251E09006DAEEF0A3EFD3
:10590000F0E5306006E04408F080079006DBE054E4
:10591000F7F09006D6E0FCA3E0FDA3E0FEA3E0FFD5
:10592000A3E0F557A3E0F558755900755A04E4F55E
:105930005B124E2A7B047A007D047C80AF2F0238F4
:10594000DDEF24FBB40700506E90595775F003A4A7
:10595000C58325F0C5837302596C02597302597AC5
:105960000259880259960259A40259ABE4900115D4
:10597000F08044E4900116F0803DE4900117F0902F
:10598000076AE054FDF0802FE4900118F090076A58
:10599000E054FBF08021E4900119F090076AE05494
:1059A000F7F08013E490011AF0800CE490011BF0F2
:1059B00090076AE054EFF0900769E07002A3E0708E
:1059C00009D284900113E04401F022EF14604304F3
:1059D0006003025A547F03126ACC90023A12662284
:1059E000AC06AD07D390024BE09D90024AE09C408C
:1059F0000FE4900156F0A304F0900116E04410F07B
:105A0000D390024DE09D90024CE09C50479001568F
:105A1000803DE4FF126ACCAC0690023E126624ACD4
:105A200006AD07D390024FE09D90024EE09C400FE0
:105A3000E4900158F0A304F0900116E04420F0D364
:105A4000900251E09D900250E09C5008900158EC6B
:105A5000F0A3EDF0227B017A057955753400753598
:105A6000807F007ED41264877B017A067956753474
:105A7000007535807F007ED61264877B017A0679B7
:105A8000D67534007535807F007ED812648778C360
:105A90007C037D017B017A0679D67E007F8012032C
:105AA0000B7B017A0679D67534007535807F007ED0
:105AB000DA12648778417C047D017B017A0679D60D
:105AC0007E007F8012030B7B017A0279137534000C
:105AD0007535807F007ED00264878D33AB079006DA
:105AE000D612042100000000E49006DAF0A3F0AF23
:105AF00003FCFDFEFBFA7910F81203A4EF2484FFE7
:105B0000EE3446FEED3403FDEC3450FC9006D61224
:105B10000415E4F5577F847E467D037C501251E0E6
:105B20009006DAEEF0A3EFF0E5336006E04402F011
:105B300080079006DBE054FDF09006D6E0FCA3E081
:105B4000FDA3E0FEA3E0FFA3E0F557A3E0F5587541
:105B50005900755A04E4F55B024E2A8D33AB079069
:105B600006D612042100000000E49006DAF0A3F04B
:105B7000AF03FCFDFEFBFA7910F81203A4EF24C476
:105B8000FFEE3444FEED3403FDEC3450FC9006D6B9
:105B9000120415E4F5577F847E467D037C50125134
:105BA000E09006DAEEF0A3EFF0E5336006E04401A2
:105BB000F080079006DBE054FEF09006D6E0FCA3F0
:105BC000E0FDA3E0FEA3E0FFA3E0F557A3E0F55856
:105BD000755900755A04E4F55B024E2A8D32EF6068
:105BE000357D01E4FF125B5B7D017F01125B5B7D14
:105BF000017F02125B5B7D017F03125B5B7D01E431
:105C0000FF125ADA7D017F01125ADA7D017F0212FA
:105C10005ADA7D01803BE532B4010DE4FDFF125BF1
:105C20005BE4FD7F01125B5BE4FD7F02125B5BE4E2
:105C3000FD7F03125B5BE532B4010DE4FDFF125AF8
:105C4000DAE4FD7F01125ADAE4FD7F02125ADAE447
:105C5000FD7F03125ADA22E53824FE601F146031FA
:105C600014604324037057900441EEF0A3EFF090CA
:105C70000449ECF0A3EDF0900451803D900443EE14
:105C8000F0A3EFF090044BECF0A3EDF09004538000
:105C900028900445EEF0A3EFF090044DECF0A3ED56
:105CA000F09004558013900447EEF0A3EFF09004B9
:105CB0004FECF0A3EDF0900457EAF0A3EBF0AF380F
:105CC00012422CAF3812432FAF38024432E4FBFDAE
:105CD0007F011216797D011216757D02121675E488
:105CE000FB7D037F01121679E4FBFDFF121679E4B8
:105CF000FB7D01FF121679E4FB7D02FF121679E4A9
:105D0000FB7D03FF121679E4FBFD7F011222087D63
:105D1000011222047D02122204E4FB7D037F0112A2
:105D20002208E4FBFDFF122208E4FB7D01FF1222A2
:105D300008E4FB7D02FF122208E4FB7D03FF022240
:105D4000089004CFE0640170629004C4E024FB601A
:105D50001524FE604E2406704D9004D5E090018F0E
:105D6000F0123A238040E4FFFE9004D3E0FDC3EF3D
:105D70009DEE9400502874D52FF58274043EF5836F
:105D8000E0FD9004D2E02FFBE43EFA74102BF58284
:105D900074013AF583EDF00FBF00010E80CB12665F
:105DA0006480031219BCE49004CFF022900034E028
:105DB000FF900757E06F6021EF30E0047D01800223
:105DC000E4FD7F021228E7900034E030E1047D0119
:105DD0008002E4FD7F031228E7900035E0FF900782
:105DE00058E06F6021EF30E0047D018002E4FD7F28
:105DF000021258B3900035E030E1047D018002E4E6
:105E0000FD7F031258B3900034E0900757F09000E4
:105E100035E0900758F022900036E0FF900759E0F7
:105E20006F6021EF30E0047D018002E4FD7F02120B
:105E30001CB5900036E030E1047D018002E4FD7F76
:105E400003121CB5900037E0FF90075BE06F602104
:105E5000EF30E0047D018002E4FD7F021257939051
:105E60000037E030E1047D018002E4FD7F0312573A
:105E700093900036E0900759F0900037E090075B70
:105E8000F0228F33E4FE7568057B107D607F1C1265
:105E90006764756805AB337D917F1C126764756814
:105EA000057B087D927F1C1267647F017E00126B68
:105EB0000F7B057D687F1C1255CB8E348F3575683E
:105EC000057B047D927F1C1267647F017E00126B4C
:105ED0000F7B057D687F1C1255CBC3EF9535FFEE18
:105EE0009534FE7C007D1412035C228F32E532B4BF
:105EF000010A7F011269267F021269267F03126957
:105F0000267F04126926E532B4010A7F01122EEFC2
:105F10007F02122EEF7F03122EEF7F04122EEFE589
:105F200032B4010A7F01121F7E7F02121F7E7F039F
:105F3000121F7E7F04121F7EE532B4010A7F011218
:105F400026C97F021226C97F031226C97F040226B2
:105F5000C9E4F52FF530F531F532F533F534F53583
:105F6000F536900014E0540FFF12651D8E2F8F3010
:105F70001265168E318F32900013E0FF90075CE0BF
:105F80006F6029EF30E0047B018002E4FBAD30ACB0
:105F90002F7F02123EF7900013E030E1047B018076
:105FA00002E4FBAD32AC317F03123EF7900013E008
:105FB00090075CF022AB05A907E4F533F532F53123
:105FC000F53085A72FF5A7FAEAC39B503789BBE4C4
:105FD000FFFE0FBF00010EEF640A4E70F5D2EC30E9
:105FE000EDFDAFBDAEBEE4FCFDE5332FF533E5328C
:105FF0003EF532ED3531F531EC3530F530C2ECC2DD
:10600000ED0A80C4E4FAF9F8AF33AE32AD31AC300A
:1060100012655A852FA722AC06900217E0FDA3E077
:10602000FBA3E0F5823395E0F533858234126819DD
:10603000AC06AD07ECFF90011EEFF0AF05A3EFF04B
:1060400090011EE0FBC36480945850027BD8C3EBE0
:10605000648094D540027B55EBFF3395E0FEEF243E
:1060600028FFE43EFE7C007D0212036E90075DEF88
:10607000F0D3EB648094C022E4F52FF530F531F5D0
:106080003290001CE0540FFF12651D8E2F8F3012CE
:1060900065168E318F3290001BE0FF90075AE06F3B
:1060A0006029EF30E0047B018002E4FBAD30AC2FCF
:1060B0007F0212377890001BE030E1047B01800200
:1060C000E4FBAD32AC317F0312377890001BE090D7
:1060D000075AF022EFB4080050529060E1F82828E7
:1060E000730260F902610E02611202611702611B04
:1060F00002612002612C026129126A0F1260177F6F
:106100000D126B6BEF25E0FFEE33FE026D0FE4FF27
:1061100080027F010259CBE4FF80027F01023DCD66
:10612000900767E06006026D6F1268F3227E007FC1
:10613000497D007B017A017910120478900190E08A
:10614000900110F0A37410F0E4A3F0A3F0A3741175
:10615000F090012A7440F09001387405F0900137F6
:10616000F0E4900386F0A3F0900264E0FF900388CF
:10617000F0900386E0900160F0900387E090016169
:10618000F0A3EFF022E4F52EF52FF530F531E4F52C
:10619000577F047E447D037C501251E0EF64034E30
:1061A000700475180122052FE52F7002052EE4F505
:1061B00030F5310531E531700205306464453070E9
:1061C000F2C3E52F94E8E52E940340C2E4F52EF5E2
:1061D0002FF5189005F9F022E4F534F535F5577FE1
:1061E000507EC07D037C501251E08E57EF4481F504
:1061F00058755900755A04E4F55B7F507EC07D03E5
:106200007C50124E2AE4F5577F507EC07D037C50AF
:106210001251E0EE20E6120533E53370020532D369
:1062200094D0E532940740DD2222E4900211F0A3DD
:10623000F0F52EF52FAF2FAE2E126C0F7E009002D0
:1062400012E02FF0900211E03EF0052FE52F7002D2
:10625000052EC3E52E94C840DC900211E0FFA3E0B8
:1062600090028BCFF0A3EFF07B017A0279137535A2
:10627000007536807F007ED002643F8F32E532B4F5
:10628000010A7F01126B4D7F02126B4D7F03126B6F
:106290004D7F04126B4DE532B4010A7F0112401CA0
:1062A0007F0212401C7F0312401C7F0412401CE539
:1062B00032B4010A7F011241247F021241247F037C
:1062C0001241247F0402412485A72CE4F52D1200FD
:1062D00003126BBF126AA8126A8320A50C30A5FDB9
:1062E000052DE52DD3941440F4126185126A5D12D8
:1062F0002B021269E4126BF5125CCD75A880123482
:10630000531268C020A509E4F5A775EF12852CA7E4
:10631000125D4180E99005E6E0640170439005E577
:10632000E070197531017532057533DBF53475355B
:10633000047B017A0579D7124F04801F9005E5E0B0
:10634000B401187531017532057533DF7534007588
:1063500035047B017A0579D7124D16E49005E6F0F5
:10636000228F2FE52F90057330E406E04401F08082
:1063700004E054FEF0E52F90057330E506E0440894
:10638000F08004E054F7F0E50C652F601B7568059C
:106390007B7F7D1D7F1C126764900573E0FB756831
:1063A000057D417F1C126764852F0C2212246E7BB1
:1063B000057D047F1C1266A4900562EFF07B057DCD
:1063C0001E7F1C1266A490056AEFF07B057D297F75
:1063D0001C1266A4900571EFF07B057D5A7F1C129C
:1063E00066A4900584EFF07B057D647F1C1266A493
:1063F000900589EFF022AC07E4FBFF126B8C126B67
:1064000094126B947A07126B87BC0406A2B29201B5
:106410008007BC0504A2909201A201E433FFA80208
:10642000088002C333D8FC4203AD04E4FF126CEBD6
:10643000126B941AC3EA6480948050CAAF03228E10
:10644000308F318B328A338934E4F537F5387D5516
:1064500012003EE4F537F538C3E5389536E5379553
:10646000355023E5312538FFE5303537FEAB3205B1
:1064700034E534AA33700205331267DE0538E53897
:1064800070D6053780D2228E2F8F308B318A328999
:1064900033E4F536F537F536F537C3E5379535E5A9
:1064A0003695345029E5302537FFE52F3536FE1275
:1064B0006C0FAB310533E533AA327002053214F9A3
:1064C000EF12034A0537E53770D0053680CC22D36A
:1064D000E5099458E50894024033AF0A1260D405E8
:1064E0000AE50AC394084020E4F50A900767E070C3
:1064F00017900763E004F0E0D39414400B90076713
:106500007401F0E4900763F0E4F508F5090509E586
:10651000097002050822E054F0C4540FFFEF700523
:10652000FC7D0A8030BF02067C007D088027BF0406
:10653000067C007D06801EBF06067C107D0480154B
:10654000BF08067C007D02800CBF0A05E4FCFD80CC
:10655000047C007D0AAF05AE0422C2D5E830E70F07
:10656000B2D5E4C39BFBE49AFAE499F9E498F8EC19
:1065700030E717B2D5126590120535E4C39BFBE4F2
:106580009AFAE499F9E498F8800312053530D50DAC
:10659000E4C39FFFE49EFEE49DFDE49CFC228E2F5D
:1065A0008F308B318A328933E4F536F537F536F59D
:1065B00037C3E5379535E53695345023E530253733
:1065C000FFE52F3536FEAB310533E533AA327002D5
:1065D00005321267DE0537E53770D6053680D222E0
:1065E000AC05AB07A903E4FF126B8E126B94126B20
:1065F000947A07EBA802088002C313D8FC5401F96F
:10660000AD0460047F018002E4FF126C70126B8A9B
:10661000E4FF126CEB126B941AC3EA64809480500E
:10662000D222AC06E0FDA3E0FBA3E0F537A3E0F542
:10663000388D358B36AB07AA06E4F9F8AF35FCFD8B
:10664000FE1203A48F3C8E3B8D3A8C39A936A801EB
:106650001204018F3C8E3B8D3A8C39E5382FFFE5D3
:10666000373EFE2290018AE0FFB49316A3E0B4788F
:1066700011A3E0B4CC0CA3E0B4AE079004C2740143
:10668000F022EFB43A1890018BE0B41811A3E0B4F3
:10669000B60CA3E0B46F079004C27402F022E49039
:1066A00004C2F0228F618D628B63126C82AF611223
:1066B000688DAF6212688DAD637F01126CEB126B57
:1066C00094126C82E56104FF12688DAF631263F669
:1066D000A907AF63126AEFAF63126B2EAF63126D3F
:1066E000A7AF01227E007F807D007B017A007900C8
:1066F00012047890000074FFF0E4A3F0A3F0A374F8
:1067000088F0A374FFF0A3740FF0A374FFF0A374D8
:106710000FF0E4A3F0A3F0A3F0A3F0A3F0A3F0A381
:10672000F0A3F022E4FFA2A23325E02FFFA293E41E
:106730003325E025E02FFFA2B1E43333333354F89F
:106740002FFFA286E433C43354E02FFFA295E43335
:10675000C4333354C02FFFA283E433C433333354E0
:10676000802FFF228D668B67AC07AF68126DA7AFD5
:1067700068126C89AF04AD681265E0AF6812689466
:10678000AD68AF661265E0AF68126894AD68AF6738
:106790001265E0AF68126894AF68126B2EAF6802A2
:1067A0006DA7EF30E104D2A28002C2A2EF30E20472
:1067B000D2938002C293EF30E304D2B18002C2B11F
:1067C000EF30E504D2868002C286EF30E604D2952F
:1067D0008002C295EF30E703D28322C2832214F9EC
:1067E000120331FD7B55ACA7A2AF9201E4F5A7C21D
:1067F000AF75FF8075EF028F828E83BB550975B729
:10680000A575B7F1438F0175FF8075EF02EDF05369
:106810008FFEA20192AF8CA7228D318B32AB07AADB
:1068200006EA3395E0F9F8AF31E4FCFDFE1203A46B
:106830008F388E378D368C35A932A8011204018F1E
:10684000388E378D368C35E534FEE42538FFEE354D
:1068500037FE227F30126361900260E0B4010D3098
:106860009205750B018008E4F50B8003750B02752A
:106870000D10750E02900113E50EF0A37411F0A334
:106880007403F090011AE04401F0C28422AD631257
:1068900065E0AF63AC07126B87AF04126CFDEF606D
:1068A0000CE4FF126CEB126B94E4FF800CAD04E47B
:1068B000FF126CEB126B947F01126C70126B9422BE
:1068C0001263159002EAE0B4AA0AE4F09002E9E04B
:1068D000FF1267A2900288E0B4AA08126E01E49049
:1068E0000288F09005FFE0B4AA08126D93E49005C9
:1068F000FFF0227F0D126B6BEF25E0FFEE3390026D
:10690000DEF0A3EFF0126A0F9002E6EEF0A3EFF0D4
:106910001267249002E8EFF07F12126B6B9002E294
:10692000EEF0A3EFF0228F33125479E53314FF7B9E
:10693000047A007D047C801238DDAF3312483EAF0C
:1069400033124936AF33124A2EAF33124B26AF33D0
:10695000124C1EAF330235EB8F2F900756E0652F98
:1069600060201269B97F01126C27900386E09001C4
:1069700060F0900387E0900161F0900388E090015F
:1069800062F0900756E52FF022E4FF126D877B0539
:10699000E4FD7F201266A4900656EFF07B057D0192
:1069A0007F201266A4900657EFF07B057D037F20C1
:1069B0001266A4900658EFF022900388E0F530E5C7
:1069C00030540FFFC3940940027F097D03125666BD
:1069D000E53054F0C4540FFFC3940940027F097D91
:1069E00004025666E4FF126D877568057BAA7D0276
:1069F0007F201267647F0A7E00126B0F756805E4C2
:106A0000FB7D027F201267647F0A7E00026B0F7D90
:106A1000047F14125FB5C3EF9517FFEE9516FE3392
:106A200095E0FDFCE4FB7A01F9F81203A4E47B1382
:106A3000FAF9F812655A227B017A0179107534014E
:106A40007535007F007EC81264877B017A03791355
:106A50007534007535807F007ECA026487756805CD
:106A60007BAA7D027F1C1267647F0A7E00126B0F77
:106A7000756805E4FB7D027F1C1267647F0A7E0057
:106A8000026B0F90FFD5E493FE90FFD4E493FDEEEC
:106A9000FCE41201817BD77AA37930783F1200762B
:106AA0001201BA8E168F17227F327E00126B0FC230
:106AB00095D2B1D293D283D2A27F057E00126B0F02
:106AC000C2867F057E00126B0FD29522EFC433542D
:106AD00060900658F0E4FF126D87900658E0FB7551
:106AE00068057D037F201267647F13126B6B22ACF5
:106AF00007126B94126C6C126B947F01126B8EE414
:106B0000FF126CEB126B94E4FF126C70026B94AD8D
:106B100007AC06E4FBFAC3EB9DEC6480F8EA648002
:106B200098500A126D420BBB00010A80E922AC07A3
:106B3000AD04E4FF126C707F02126BA3AD047F0101
:106B4000126CEB0F126BA3126C6C026B948F3312EE
:106B5000422CAF3312432FAF33124432AF331245BE
:106B600035AF33124638AF330232B37D04125FB50E
:106B7000AD07AC06E41201817B487AE179BA783F2F
:106B80001200761201BA22126B947F01AD04126CCE
:106B9000EB126B94E4FFFE0FBF00010EEF64024E98
:106BA00070F522AD07E4FBFAEDFFC3EB9F7480F8AC
:106BB0006A98500A126B940BBB00010A80EA2212F9
:106BC0006A37125A5512612D1266E47E007F807D6D
:106BD000007B017A027993020478AEA7E4F5A7EF6F
:106BE000600543C180800B53C17FC2C5C2C4C2C10E
:106BF000C2C08EA722126CC4E4FF1205C77F011227
:106C000005C77F021205C77F031205C7023C9CAD72
:106C1000A7A2AF9201C2AFE4F5A78F828E8393FF44
:106C2000A20192AF8DA722BF01147F011232B37F60
:106C3000021232B37F031232B37F041232B3221234
:106C40006989E4FF120AE87F01120AE87F02120A4A
:106C5000E87F03020AE8BD0408EF24FF92B392B272
:106C600022BD0507EF24FF9291929022AD047F018F
:106C7000BD0406EF24FF92B222BD0505EF24FF926A
:106C80009022AF63126DA7AF63AD07126B94E4FF60
:106C9000126C707F02026BA3AC07AD04E4FF126CB0
:106CA000700F126B8EE4FF126CEB0F026C7075B2FA
:106CB0008075BB1475DF1F75BC1875B90453E8F9EE
:106CC00043E88522E4FF126D87900658E0FB756863
:106CD000057D037F20026764AF885388AF758CF110
:106CE000EF5440FEEF54104E428822BD0406EF24BC
:106CF000FF92B322BD0505EF24FF929122BF040449
:106D0000A2B28005BF0505A290E433FEAF06229033
:106D10000213126622AC06900120ECF0A3EFF022E1
:106D200085A72FE4F5A790012AE030E30375EF1261
:106D300022E4F5A9E5A930E7FB75A903E5A930E749
:106D4000FB22E4FFFE000FBF00010EBE17F7BF706D
:106D5000F422E59154045391FB7593157592A0426A
:106D6000912275A60475A72075F33F75CC0C2212ED
:106D70003B6A124FFA1252B7025398126078125FB0
:106D800051125DAC025E17AB077568057DFF7F2071
:106D90000267647F02125EEB7F0202627B53C17F57
:106DA00043C18053917F32AD077F01126C56026B55
:106DB000A3E4F5A77597DE7597AD2275A40875F164
:106DC000FE75D4FF2275A52875F27F75D5FF22E4E4
:106DD000F5A775E34075E1042275A71075C120225F
:106DE000E4F5A775EF0622758E017589022275D725
:106DF000A043C19C22759C022275D1402275E68178
:106E00002202622A022B02FFFFFFFFFFFFFFFFFFAC
:106E1000FFFFFFFFFFFFFFFFFFFFFFFFFFFFFFFF82
:106E2000FFFFFFFFFFFFFFFFFFFFFFFFFFFFFFFF72
:106E3000FFFFFFFFFFFFFFFFFFFFFFFFFFFFFFFF62
:106E4000FFFFFFFFFFFFFFFFFFFFFFFFFFFFFFFF52
:10C800001A100000000000000000000000000000FE
:10C810000000000000000000000000000000000018
:10C820000000000000000000000000000000000008
:10C8300000000000000000000000000000000000F8
:10C8400000000000000000000000000000000000E8
:10C8500000000000000000000000000000000000D8
:10C8600000000000000000000000000000000000C8
:10C8700000000000000000000000000000000000B8
:10C880001A4C555853484152452D494354202020B5
:10C89000203C18A000000000000000000000000084
:10C8A0000000000000000000000000000000000088
:10C8B0000000000000000000000000000000000078
:10C8C0000000000000000000000000000000000068
:10C8D0000000000000000000000000000000000058
:10C8E0000000000000000000000000000000000048
:10C8F0000000000000000000000000000000000038
:10C900000000FFFFFFFFFFFFFFFFFFFFFFFFFFFF35
:10C91000FFFFFFFFFFFFFFFFFFFFFFFFFFFFFFFF27
:10C92000FFFFFFFFFFFFFFFFFFFFFFFFFFFFFFFF17
:10C93000FFFFFFFFFFFFFFFFFFFFFFFFFFFFFFFF07
:10C94000FFFFFFFFFFFFFFFFFFFFFFFFFFFFFFFFF7
:10C95000FFFFFFFFFFFFFFFFFFFFFFFFFFFFFFFFE7
:10C96000FFFFFFFFFFFFFFFFFFFFFFFFFFFFFFFFD7
:10C97000FFFFFFFFFFFFFFFFFFFFFFFFFFFFFFFFC7
:10C98000FFFFFFFFFFFFFFFFFFFFFFFFFFFFFFFFB7
:10C99000FFFFFFFFFFFFFFFFFFFFFFFFFFFFFFFFA7
:10C9A000FFFFFFFFFFFFFFFFFFFFFFFFFFFFFFFF97
:10C9B000FFFFFFFFFFFFFFFFFFFFFFFFFFFFFFFF87
:10C9C000FFFFFFFFFFFFFFFFFFFFFFFFFFFFFFFF77
:10C9D000FFFFFFFFFFFFFFFFFFFFFFFFFFFFFFFF67
:10C9E000FFFFFFFFFFFFFFFFFFFFFFFFFFFFFFFF57
:10C9F000FFFFFFFFFFFFFFFFFFFFFFFFFFFFFFFF47
:10CA00000402000000000000000000000000000020
:10CA10000000000000000000000000000000000016
:10CA20000000000000000000000000000000000006
:10CA300000000000000000000000000000000000F6
:10CA400000000000000000000000000000000000E6
:10D00000010000000100000100000001000000011B
:10D01000000000010000000100000001000000010C
:10D0200000000001000000010000000100000001FC
:10D0300000000001000000008001000080010000ED
:10D040008001000080010046000100010001000095
:10D050000022222222333333335555555500000028
:10D0600000000000000000000000000000000000C0
:10D0700000000000000000000000000000000000B0
:10D08000FFFFFFFFFFFFFFFFFFFFFFFFFFFFFFFFB0
:10D09000FFFFFFFFFFFFFFFFFFFFFFFFFFFFFFFFA0
:10D0A000FFFFFFFFFFFFFFFFFFFFFFFFFFFFFFFF90
:10D0B000FFFFFFFFFFFFFFFFFFFFFFFFFFFFFFFF80
:10D0C000FFFFFFFFFFFFFFFFFFFFFFFFFFFFFFFF70
:10D0D000FFFFFFFFFFFFFFFFFFFFFFFFFFFFFFFF60
:10D0E000FFFFFFFFFFFFFFFFFFFFFFFFFFFFFFFF50
:10D0F000FFFFFFFFFFFFFFFFFFFFFFFFFFFFFFFF40
:10D10000FFFFFFFFFFFFFFFFFFFFFFFFFFFFFFFF2F
:10D11000FFFFFFFFFFFFFFFFFFFFFFFFFFFFFFFF1F
:10D12000FFFFFFFFFFFFFFFFFFFFFFFFFFFFFFFF0F
:10D13000FFFFFFFFFFFFFFFFFFFFFFFFFFFFFFFFFF
:10D14000FFFFFFFFFFFFFFFFFFFFFFFFFFFFFFFFEF
:10D15000FFFFFFFFFFFFFFFFFFFFFFFFFFFFFFFFDF
:10D16000FFFFFFFFFFFFFFFFFFFFFFFFFFFFFFFFCF
:10D17000FFFFFFFFFFFFFFFFFFFFFFFFFFFFFFFFBF
:10D18000FFFFFFFFFFFFFFFFFFFFFFFFFFFFFFFFAF
:10D19000FFFFFFFFFFFFFFFFFFFFFFFFFFFFFFFF9F
:10D1A000FFFFFFFFFFFFFFFFFFFFFFFFFFFFFFFF8F
:10D1B000FFFFFFFFFFFFFFFFFFFFFFFFFFFFFFFF7F
:10D1C000FFFFFFFFFFFFFFFFFFFFFFFFFFFFFFFF6F
:10D1D000FFFFFFFFFFFFFFFFFFFFFFFFFFFFFFFF5F
:10D1E000FFFFFFFFFFFFFFFFFFFFFFFFFFFFFFFF4F
:10D1F000FFFFFFFFFFFFFFFFFFFFFFFFFFFFFFFF3F
:10D200000C1316191C1F2326292C2F3236393C3FAC
:10D2100000FCF8F4F0ECE8E4E4E4E40000000000D2
:10D2200050647C940000000000000000000000003A
:10D230009378CCAE00000000000000000000000069
:10D2400000FCF8F4F0ECE8E4E4E4E40000000000A2
:10D2500000000000000000000000000000000000CE
:10D2600000000000000000000000000000000000BE
:10D2700000000000000000000000000000000000AE
:10D28000FFFFFFFFFFFFFFFFFFFFFFFFFFFFFFFFAE
:10D29000FFFFFFFFFFFFFFFFFFFFFFFFFFFFFFFF9E
:10D2A000FFFFFFFFFFFFFFFFFFFFFFFFFFFFFFFF8E
:10D2B000FFFFFFFFFFFFFFFFFFFFFFFFFFFFFFFF7E
:10D2C000FFFFFFFFFFFFFFFFFFFFFFFFFFFFFFFF6E
:10D2D000FFFFFFFFFFFFFFFFFFFFFFFFFFFFFFFF5E
:10D2E000FFFFFFFFFFFFFFFFFFFFFFFFFFFFFFFF4E
:10D2F000FFFFFFFFFFFFFFFFFFFFFFFFFFFFFFFF3E
:10D30000FFFFFFFFFFFFFFFFFFFFFFFFFFFFFFFF2D
:10D31000FFFFFFFFFFFFFFFFFFFFFFFFFFFFFFFF1D
:10D32000FFFFFFFFFFFFFFFFFFFFFFFFFFFFFFFF0D
:10D33000FFFFFFFFFFFFFFFFFFFFFFFFFFFFFFFFFD
:10D34000FFFFFFFFFFFFFFFFFFFFFFFFFFFFFFFFED
:10D35000FFFFFFFFFFFFFFFFFFFFFFFFFFFFFFFFDD
:10D36000FFFFFFFFFFFFFFFFFFFFFFFFFFFFFFFFCD
:10D37000FFFFFFFFFFFFFFFFFFFFFFFFFFFFFFFFBD
:10D38000FFFFFFFFFFFFFFFFFFFFFFFFFFFFFFFFAD
:10D39000FFFFFFFFFFFFFFFFFFFFFFFFFFFFFFFF9D
:10D3A000FFFFFFFFFFFFFFFFFFFFFFFFFFFFFFFF8D
:10D3B000FFFFFFFFFFFFFFFFFFFFFFFFFFFFFFFF7D
:10D3C000FFFFFFFFFFFFFFFFFFFFFFFFFFFFFFFF6D
:10D3D000FFFFFFFFFFFFFFFFFFFFFFFFFFFFFFFF5D
:10D3E000FFFFFFFFFFFFFFFFFFFFFFFFFFFFFFFF4D
:10D3F000FFFFFFFFFFFFFFFFFFFFFFFFFFFFFFFF3D
:10D4000000000000000000000000000000040060B8
:10D41000FF0F0F0070080000070707070FF6002A2C
:10D420002A2A2A636363630202020226262626044E
:10D4300000001000080400000000000000000000D0
:10D4400000000000000000000000000000000000DC
:10D4500000000000000000000000000000000000CC
:10D4600000000000000000000000000000000000BC
:10D4700000000000000000000000000000000000AC
:10D48000FFFFFFFFFFFFFFFFFFFFFFFFFFFFFFFFAC
:10D49000FFFFFFFFFFFFFFFFFFFFFFFFFFFFFFFF9C
:10D4A000FFFFFFFFFFFFFFFFFFFFFFFFFFFFFFFF8C
:10D4B000FFFFFFFFFFFFFFFFFFFFFFFFFFFFFFFF7C
:10D4C000FFFFFFFFFFFFFFFFFFFFFFFFFFFFFFFF6C
:10D4D000FFFFFFFFFFFFFFFFFFFFFFFFFFFFFFFF5C
:10D4E000FFFFFFFFFFFFFFFFFFFFFFFFFFFFFFFF4C
:10D4F000FFFFFFFFFFFFFFFFFFFFFFFFFFFFFFFF3C
:10D50000FFFFFFFFFFFFFFFFFFFFFFFFFFFFFFFF2B
:10D51000FFFFFFFFFFFFFFFFFFFFFFFFFFFFFFFF1B
:10D52000FFFFFFFFFFFFFFFFFFFFFFFFFFFFFFFF0B
:10D53000FFFFFFFFFFFFFFFFFFFFFFFFFFFFFFFFFB
:10D54000FFFFFFFFFFFFFFFFFFFFFFFFFFFFFFFFEB
:10D55000FFFFFFFFFFFFFFFFFFFFFFFFFFFFFFFFDB
:10D56000FFFFFFFFFFFFFFFFFFFFFFFFFFFFFFFFCB
:10D57000FFFFFFFFFFFFFFFFFFFFFFFFFFFFFFFFBB
:10D58000FFFFFFFFFFFFFFFFFFFFFFFFFFFFFFFFAB
:10D59000FFFFFFFFFFFFFFFFFFFFFFFFFFFFFFFF9B
:10D5A000FFFFFFFFFFFFFFFFFFFFFFFFFFFFFFFF8B
:10D5B000FFFFFFFFFFFFFFFFFFFFFFFFFFFFFFFF7B
:10D5C000FFFFFFFFFFFFFFFFFFFFFFFFFFFFFFFF6B
:10D5D000FFFFFFFFFFFFFFFFFFFFFFFFFFFFFFFF5B
:10D5E000FFFFFFFFFFFFFFFFFFFFFFFFFFFFFFFF4B
:10D5F000FFFFFFFFFFFFFFFFFFFFFFFFFFFFFFFF3B
:10D6000000000074090000000F20380D000035BC38
:10D61000012570001D04E4000074090000000F20C3
:10D62000380D000035BC012570001D04E4000074B5
:10D63000090000000F20380D000035BC01257000E6
:10D640001D04E4000074090000000F20380D0000E4
:10D6500035BC012570001D04E40000003F00003FC0
:10D660000000F3000003000C03000C03000C00009A
:10D6700000000000000000000000000000000000AA
:10D68000FFFFFFFFFFFFFFFFFFFFFFFFFFFFFFFFAA
:10D69000FFFFFFFFFFFFFFFFFFFFFFFFFFFFFFFF9A
:10D6A000FFFFFFFFFFFFFFFFFFFFFFFFFFFFFFFF8A
:10D6B000FFFFFFFFFFFFFFFFFFFFFFFFFFFFFFFF7A
:10D6C000FFFFFFFFFFFFFFFFFFFFFFFFFFFFFFFF6A
:10D6D000FFFFFFFFFFFFFFFFFFFFFFFFFFFFFFFF5A
:10D6E000FFFFFFFFFFFFFFFFFFFFFFFFFFFFFFFF4A
:10D6F000FFFFFFFFFFFFFFFFFFFFFFFFFFFFFFFF3A
:10D70000FFFFFFFFFFFFFFFFFFFFFFFFFFFFFFFF29
:10D71000FFFFFFFFFFFFFFFFFFFFFFFFFFFFFFFF19
:10D72000FFFFFFFFFFFFFFFFFFFFFFFFFFFFFFFF09
:10D73000FFFFFFFFFFFFFFFFFFFFFFFFFFFFFFFFF9
:10D74000FFFFFFFFFFFFFFFFFFFFFFFFFFFFFFFFE9
:10D75000FFFFFFFFFFFFFFFFFFFFFFFFFFFFFFFFD9
:10D76000FFFFFFFFFFFFFFFFFFFFFFFFFFFFFFFFC9
:10D77000FFFFFFFFFFFFFFFFFFFFFFFFFFFFFFFFB9
:10D78000FFFFFFFFFFFFFFFFFFFFFFFFFFFFFFFFA9
:10D79000FFFFFFFFFFFFFFFFFFFFFFFFFFFFFFFF99
:10D7A000FFFFFFFFFFFFFFFFFFFFFFFFFFFFFFFF89
:10D7B000FFFFFFFFFFFFFFFFFFFFFFFFFFFFFFFF79
:10D7C000FFFFFFFFFFFFFFFFFFFFFFFFFFFFFFFF69
:10D7D000FFFFFFFFFFFFFFFFFFFFFFFFFFFFFFFF59
:10D7E000FFFFFFFFFFFFFFFFFFFFFFFFFFFFFFFF49
:10D7F000FFFFFFFFFFFFFFFFFFFFFFFFFFFFFFFF39
:10D80000282C0001FFF4FFF4FFF4FFF400800080F7
:10D810000080008000000000000000000000000008
:10D8200000000000000000000000000000000000F8
:10D8300000000000000000000000000100000000E7
:10D840000000000180000000800000008102010350
:10D8500081840102000000000000000000000000C0
:10D8600000000000000000000000000000000000B8
:10D8700000000000000000000000000000000000A8
:10D88000FFFFFFFFFFFFFFFFFFFFFFFFFFFFFFFFA8
:10D89000FFFFFFFFFFFFFFFFFFFFFFFFFFFFFFFF98
:10D8A000FFFFFFFFFFFFFFFFFFFFFFFFFFFFFFFF88
:10D8B000FFFFFFFFFFFFFFFFFFFFFFFFFFFFFFFF78
:10D8C000FFFFFFFFFFFFFFFFFFFFFFFFFFFFFFFF68
:10D8D000FFFFFFFFFFFFFFFFFFFFFFFFFFFFFFFF58
:10D8E000FFFFFFFFFFFFFFFFFFFFFFFFFFFFFFFF48
:10D8F000FFFFFFFFFFFFFFFFFFFFFFFFFFFFFFFF38
:10D90000FFFFFFFFFFFFFFFFFFFFFFFFFFFFFFFF27
:10D91000FFFFFFFFFFFFFFFFFFFFFFFFFFFFFFFF17
:10D92000FFFFFFFFFFFFFFFFFFFFFFFFFFFFFFFF07
:10D93000FFFFFFFFFFFFFFFFFFFFFFFFFFFFFFFFF7
:10D94000FFFFFFFFFFFFFFFFFFFFFFFFFFFFFFFFE7
:10D95000FFFFFFFFFFFFFFFFFFFFFFFFFFFFFFFFD7
:10D96000FFFFFFFFFFFFFFFFFFFFFFFFFFFFFFFFC7
:10D97000FFFFFFFFFFFFFFFFFFFFFFFFFFFFFFFFB7
:10D98000FFFFFFFFFFFFFFFFFFFFFFFFFFFFFFFFA7
:10D99000FFFFFFFFFFFFFFFFFFFFFFFFFFFFFFFF97
:10D9A000FFFFFFFFFFFFFFFFFFFFFFFFFFFFFFFF87
:10D9B000FFFFFFFFFFFFFFFFFFFFFFFFFFFFFFFF77
:10D9C000FFFFFFFFFFFFFFFFFFFFFFFFFFFFFFFF67
:10D9D000FFFFFFFFFFFFFFFFFFFFFFFFFFFFFFFF57
:10D9E000FFFFFFFFFFFFFFFFFFFFFFFFFFFFFFFF47
:10D9F000FFFFFFFFFFFFFFFFFFFFFFFFFFFFFFFF37
:10DA0000FFECFFECFFECFFEC00940094009400941A
:10DA10000000000000000000000000000000000006
:10DA200000000000000000000000000000000000F6
:10DA300000000000000100000000000000010000E4
:10DA400000000000000000000000000000000000D6
:10DA500000000000000000000000000000000000C6
:10DA600000000000000000000000000000000000B6
:10DA70000000000000000000000000000000FFFFA8
:10DA8000FFFFFFFFFFFFFFFFFFFFFFFFFFFFFFFFA6
:10DA9000FFFFFFFFFFFFFFFFFFFFFFFFFFFFFFFF96
:10DAA000FFFFFFFFFFFFFFFFFFFFFFFFFFFFFFFF86
:10DAB000FFFFFFFFFFFFFFFFFFFFFFFFFFFFFFFF76
:10F800000100000000000000FFFFFFFFFFFFFFFFFF
:00000001FF
