:100000000271EAACA7A2AF9201C2AFE4F5A775FFF7
:100010008075EF028F828E83BD550975B7A575B7C0
:10002000F1438F0375FF8075EF02E4F0538FFCA25C
:100030000192AF8CA72275D1402222023AD190FFC3
:10004000D5E493FE90FFD4E493FDEEFCE4121FCCC4
:100050007BD77AA37930783F121EC11220058E1803
:100060008F1922027AB902734DFFFF027AD8025823
:100070008AFFFF027D708F2EE52E6401600302016E
:100080007AF53C7F0C7E11FD7C581271138E2FEF98
:1000900054EFF53090048BE0452FF531A3E0453067
:1000A000F53285313CF53D753E00753F04E4F54081
:1000B0007F0C7E11FD7C58126E53E4F53C7FDC7E94
:1000C00010FD7C581271138E2F8F3090048CE0300D
:1000D000E40B852F31E5304401F5328009852F315D
:1000E000E53054FEF53285313C85323D753E007574
:1000F0003F04E4F5407FDC7E10FD7C58126E53E433
:10010000F53C7F987E21FD7C581271138E2F8F3025
:10011000E52F4480F53C85303D753E00753F04E495
:10012000F5407F987E21FD7C58126E537B047A0047
:100130007D047C80E4FF126C3B7F0A7E00127AF71C
:10014000E4F53C7F987E21FD7C581271138E2F8F31
:1001500030E52F547FF53C85303D753E00753F04FA
:10016000E4F5407F987E21FD7C58126E537B047A23
:10017000007D047C80E4FF0208A5E52E6402600394
:1001800002027CF53C7F0C7E51FD7C581271138E6F
:100190002FEF54EFF53090048DE0452FF531A3E0BB
:1001A0004530F53285313CF53D753E00753F04E440
:1001B000F5407F0C7E51FD7C58126E53E4F53C7F78
:1001C000DC7E50FD7C581271138E2F8F3090048E80
:1001D000E030E40B852F31E5304401F532800985AC
:1001E0002F31E53054FEF53285313C85323D753E88
:1001F00000753F04E4F5407FDC7E50FD7C58126EB4
:1002000053E4F53C7F987E61FD7C581271138E2F6C
:100210008F30E52F4480F53C85303D753E00753FBD
:1002200004E4F5407F987E61FD7C58126E537B0498
:100230007A007D047C807F01126C3B7F0A7E001275
:100240007AF7E4F53C7F987E61FD7C581271138E3D
:100250002F8F30E52F547FF53C85303D753E00757E
:100260003F04E4F5407F987E61FD7C58126E537B1D
:10027000047A007D047C807F010208A5E52E6403DA
:10028000600302037EF53C7F0C7E91FD7C58127169
:10029000138E2FEF54EFF53090048FE0452FF5319A
:1002A000A3E04530F53285313CF53D753E00753FA4
:1002B00004E4F5407F0C7E91FD7C58126E53E4F50A
:1002C0003C7FDC7E90FD7C581271138E2F8F309016
:1002D0000490E030E40B852F31E5304401F53280A5
:1002E00009852F31E53054FEF53285313C85323DAC
:1002F000753E00753F04E4F5407FDC7E90FD7C5840
:10030000126E53E4F53C7F987EA1FD7C5812711368
:100310008E2F8F30E52F4480F53C85303D753E00B3
:10032000753F04E4F5407F987EA1FD7C58126E5322
:100330007B047A007D047C807F02126C3B7F0A7E06
:1003400000127AF7E4F53C7F987EA1FD7C5812718B
:10035000138E2F8F30E52F547FF53C85303D753E51
:1003600000753F04E4F5407F987EA1FD7C58126E35
:10037000537B047A007D047C807F020208A5E52E71
:1003800064046003020480F53C7F0C7ED1FD7C5840
:100390001271138E2FEF54EFF530900491E0452F3A
:1003A000F531A3E04530F53285313CF53D753E0031
:1003B000753F04E4F5407F0C7ED1FD7C58126E53EE
:1003C000E4F53C7FDC7ED0FD7C581271138E2F8FBC
:1003D00030900492E030E40B852F31E5304401F594
:1003E000328009852F31E53054FEF53285313C8568
:1003F000323D753E00753F04E4F5407FDC7ED0FD64
:100400007C58126E53E4F53C7F987EE1FD7C5812D7
:1004100071138E2F8F30E52F4480F53C85303D756C
:100420003E00753F04E4F5407F987EE1FD7C581264
:100430006E537B047A007D047C807F03126C3B7FCB
:100440000A7E00127AF7E4F53C7F987EE1FD7C5845
:100450001271138E2F8F30E52F547FF53C85303D80
:10046000753E00753F04E4F5407F987EE1FD7C58C1
:10047000126E537B047A007D047C807F030208A502
:10048000E52E6405600302058A753C017F0C7E1130
:10049000FD7C581271138E2FEF54EFF53090050B41
:1004A000E0452FF531A3E04530F53285313CF53D8F
:1004B000753E00753F047540017F0C7E117D007C08
:1004C00058126E53753C017FDC7E107D007C581203
:1004D00071138E2F8F3090050CE030E40B852F3197
:1004E000E5304401F5328009852F31E53054FEF5C1
:1004F0003285313C85323D753E00753F04754001C3
:100500007FDC7E107D007C58126E53753C017F9815
:100510007E217D007C581271138E2F8F30E52F4481
:1005200080F53C85303D753E00753F047540017F88
:10053000987E217D007C58126E537B047A007D04E6
:100540007C807F04126C3B7F0A7E00127AF7753C38
:10055000017F987E217D007C581271138E2F8F3081
:10056000E52F547FF53C85303D753E00753F0475A1
:1005700040017F987E217D007C58126E537B047A67
:10058000007D047C807F040208A5E52E64066003DC
:10059000020694753C017F0C7E51FD7C581271134C
:1005A0008E2FEF54EFF53090050DE0452FF531A378
:1005B000E04530F53285313CF53D753E00753F0430
:1005C0007540017F0C7E517D007C58126E53753C46
:1005D000017FDC7E507D007C581271138E2F8F308E
:1005E00090050EE030E40B852F31E5304401F53203
:1005F0008009852F31E53054FEF53285313C853256
:100600003D753E00753F047540017FDC7E507D00E6
:100610007C58126E53753C017F987E617D007C583A
:100620001271138E2F8F30E52F4480F53C85303DBD
:10063000753E00753F047540017F987E617D007CAA
:1006400058126E537B047A007D047C807F05126C07
:100650003B7F0A7E00127AF7753C017F987E617DB0
:10066000007C581271138E2F8F30E52F547FF53C8C
:1006700085303D753E00753F047540017F987E6171
:100680007D007C58126E537B047A007D047C807F51
:10069000050208A5E52E6407600302079E753C016C
:1006A0007F0C7E91FD7C581271138E2FEF54EFF565
:1006B0003090050FE0452FF531A3E04530F5328548
:1006C000313CF53D753E00753F047540017F0C7E61
:1006D000917D007C58126E53753C017FDC7E907DCD
:1006E000007C581271138E2F8F30900510E030E48B
:1006F0000B852F31E5304401F5328009852F31E536
:100700003054FEF53285313C85323D753E00753FF3
:10071000047540017FDC7E907D007C58126E53751D
:100720003C017F987EA17D007C581271138E2F8F23
:1007300030E52F4480F53C85303D753E00753F0423
:100740007540017F987EA17D007C58126E537B041A
:100750007A007D047C807F06126C3B7F0A7E00124B
:100760007AF7753C017F987EA17D007C5812711349
:100770008E2F8F30E52F547FF53C85303D753E0040
:10078000753F047540017F987EA17D007C58126EF4
:10079000537B047A007D047C807F060208A5E52E49
:1007A000640860030208A8753C017F0C7ED1FD7CC3
:1007B000581271138E2FEF54EFF530900511E0456C
:1007C0002FF531A3E04530F53285313CF53D753EDE
:1007D00000753F047540017F0C7ED17D007C58126E
:1007E0006E53753C017FDC7ED07D007C5812711306
:1007F0008E2F8F30900512E030E40B852F31E530DD
:100800004401F5328009852F31E53054FEF53285FB
:10081000313C85323D753E00753F047540017FDCFB
:100820007ED07D007C58126E53753C017F987EE12E
:100830007D007C581271138E2F8F30E52F4480F588
:100840003C85303D753E00753F047540017F987EC4
:10085000E17D007C58126E537B047A007D047C801D
:100860007F07126C3B7F0A7E00127AF7753C017F8E
:10087000987EE17D007C581271138E2F8F30E52F0A
:10088000547FF53C85303D753E00753F0475400151
:100890007F987EE17D007C58126E537B047A007D48
:1008A000047C807F07126C3B2285A72E90018BE091
:1008B00012226008ED00091F01096402099D100958
:1008C000AC820A53840AF6850B0D860B65870BB53F
:1008D0008A0C688B0D1E8C0D768E0DC6900E639162
:1008E0000E1E920E7EB00E9AD000000EDB900650C7
:1008F000E0C394015003020EDB7B017A01790C7591
:1009000035007536807F007EE812757A7B017A01AA
:10091000798C7535007536807F807EE8020D739086
:100920000650E0C394015003020EDB7B017A01798B
:100930008C7535007536807F007EEA12757A781DD9
:100940007C027D017B017A01798C7E007F801221FF
:10095000567B017A02799F7535007536807F807EDF
:10096000EA020D73900650E0C394015003020EDBBF
:100970007B017A02791D7535007536807F007EEA2D
:1009800012757A7B017A01798C7535007536807F16
:10099000807EEA127694789F7C02020B0690065CB9
:1009A0007401F078027C00FDFB020E58900650E0C6
:1009B000D394015003020EDB900660E094F8405798
:1009C00090020BE064016003020EDB900204E090F1
:1009D00007DBF0900205E09007DCF090020AE0FFF0
:1009E0009007E1F0BF01149007DBE0FD7B057F1C61
:1009F0001277589007DCEFF0020CDC9007E1E06022
:100A000003020CDC9007DBE0FDA3E0FB754D057FE6
:100A10001C127798020CDC7B017A01798C75350009
:100A20007536807F007EF012757A78637C077D01D1
:100A30007B017A01798C7E007F801221567B017ABE
:100A40000779E37535007536807F807EF0127694E5
:100A500002006E900650E0D394015003020EDB902A
:100A60000660E094F8405390020BE06401600302DA
:100A70000EDB900204E090085BF0900205E0900825
:100A80005CF090020AE0FF900861F0BF011390084B
:100A90005BE0FD7B047F1C12775890085CEFF080D0
:100AA00016900861E0701090085BE0FDA3E0FB7514
:100AB0004D047F1C127798020CDC7B017A07796366
:100AC0007535007536807F007EF012757A7B017A6D
:100AD00001798C7535007536807F807EF0127694B2
:100AE00078E37C077D017B017A01798C7E007F8031
:100AF000122156027DE3900650E0D3940150030288
:100B00000EDB78E37C067D017B01020E58900650D7
:100B1000E0D394015003020EDB7B017A01798C75DE
:100B200035007536807F007EF212757A784F7C042E
:100B30007D017B017A01798C7E007F8012215678BD
:100B4000637C097D017B017A05794F7E007F8012ED
:100B500021567B017A0979637535007536807F806F
:100B60007EF2020D73900650E0D394015003020E02
:100B7000DB78637C097D017B017A04794F7E007FFD
:100B8000801221567B017A097963753500753680AC
:100B90007F007EF212757A7B017A01798C753500BF
:100BA0007536807F807EF2127694784F7C057D01C9
:100BB0007B01020E58900650E0D394015003020EC0
:100BC000DB900660E094F8406390020BE064016003
:100BD00003020EDB900204E09008DBF0900205E0D7
:100BE0009008DCF090020AE0FF9008E1F0BF011BE2
:100BF000900206E0FF127D589008DBE0FD7B047F49
:100C0000201277589008DCEFF0801E9008E1E07029
:100C100018900206E0FF127D589008DBE0FDA3E08B
:100C2000FB754D047F20127798020CDC7B017A0162
:100C3000798C7535007536807F007EF412757A7870
:100C4000637C087D017B017A01798C7E007F8012B4
:100C500021567B017A0879E37535007536807F80EF
:100C60007EF4127694027BA6900650E0D394015055
:100C700003020EDB900660E094F8406690020BE001
:100C800064016003020EDB900204E090095BF090C7
:100C90000205E090095CF090020AE0FF900961F023
:100CA000BF011B900206E0FF127D6490095BE0FD2E
:100CB0007B057F2012775890095CEFF0801E900929
:100CC00061E07018900206E0FF127D6490095BE01D
:100CD000FDA3E0FB754D057F20127798E490020B91
:100CE000F0227B017A0879637535007536807F00C4
:100CF0007EF412757A7B017A01798C753500753630
:100D0000807F807EF412769478E37C087D017B01FD
:100D10007A01798C7E007F80122156027BC090067A
:100D200050E0D394015003020EDB7B017A01798CF1
:100D30007535007536807F007EF812757A78CF7C25
:100D4000047D017B017A01798C7E007F801221561F
:100D500078637C097D017B017A0579CF7E007F80F5
:100D60001221567B017A0979637535007536807FCB
:100D7000807EF8027694900650E0D39401500302EE
:100D80000EDB78637C097D017B017A0479CF7E00DC
:100D90007F801221567B017A09796375350075369B
:100DA000807F007EF812757A7B017A01798C753527
:100DB000007536807F807EF812769478CF7C057D32
:100DC000017B01020E58900650E0D39401500302BB
:100DD0000EDB78047C027D017B017A0379977E002B
:100DE0007F081221567B017A01798C7535007536A2
:100DF000807F007EEC12757A7B017A03799F7535CE
:100E0000007536807F807EEC1276947B017A0379C0
:100E10001F7534007535807F007EEC0275C2900628
:100E200050E0D394015003020EDB7B017A03791F5B
:100E30007535007536807F007EEC12757A7B017AFD
:100E400001798C7535007536807F807EEC12769442
:100E5000789F7C037D017B017A01798C7E007F8005
:100E6000022156900650E0D39401406F7B017A0135
:100E7000798C7535007536807F007EEE801990067E
:100E800050E0D3940140547B017A01798C75350090
:100E90007536807F007EF602757A900650E0D39416
:100EA000014038900660E064247030900663E0648E
:100EB000117028A3E064227022A3E06433701CA3A5
:100EC000E0B45517A3E0B46612A3E0B4550D780062
:100ED00076A5E4F5A775EF12852EA7228F2FE52FB3
:100EE00064016003020F83F53C12710BEE54FE4463
:100EF00008F530753100900577E04530FEA3E045F8
:100F000031FF900577EEF0A3EFF08E3CF53D753E96
:100F100000753F04E4F5407FCC7E447D037C501295
:100F20006E53E4F53C12710BEE54F6F5307531005A
:100F3000900577E04530FEA3E04531FF900577EE60
:100F4000F0A3EFF08E3CF53D753E00753F04E4F5EF
:100F5000407FCC7E447D037C50126E53E4F53C7F91
:100F60002C7E4A7D037C501271138E308F31853078
:100F70003CE5314420F53D753E00753F04E4F54005
:100F800002123FE52F64026003021038F53C7FCC6B
:100F90007E447D137C50127113EE54FE4408F530EC
:100FA000753100900579E04530FEA3E04531FF90B2
:100FB0000579EEF0A3EFF08E3CF53D753E00753FF0
:100FC00004E4F5407FCC7E447D137C50126E53E4E4
:100FD000F53C7FCC7E447D137C50127113EE54F6A9
:100FE000F530753100900579E04530FEA3E04531DC
:100FF000FF900579EEF0A3EFF08E3CF53D753E00D5
:10100000753F04E4F5407FCC7E447D137C50126E26
:1010100053E4F53C7F2C7E4A7D137C501271138E75
:10102000308F3185303CE5314420F53D753E00750B
:101030003F04E4F5400212FBE52F64036003021055
:10104000EDF53C7FCC7E447D237C50127113EE5431
:10105000FE4408F53075310090057BE04530FEA375
:10106000E04531FF90057BEEF0A3EFF08E3CF53DBF
:10107000753E00753F04E4F5407FCC7E447D237CC3
:1010800050126E53E4F53C7FCC7E447D237C50129D
:101090007113EE54F6F53075310090057BE0453064
:1010A000FEA3E04531FF90057BEEF0A3EFF08E3C10
:1010B000F53D753E00753F04E4F5407FCC7E447DF0
:1010C000237C50126E53E4F53C7F2C7E4A7D237CBA
:1010D000501271138E308F3185303CE5314420F54C
:1010E0003D753E00753F04E4F5400213B7E52F64FB
:1010F0000460030211A2F53C7FCC7E447D337C501A
:10110000127113EE54FE4408F53075310090057DE0
:10111000E04530FEA3E04531FF90057DEEF0A3EF02
:10112000F08E3CF53D753E00753F04E4F5407FCC04
:101130007E447D337C50126E53E4F53C7FCC7E447C
:101140007D337C50127113EE54F6F53075310090FA
:10115000057DE04530FEA3E04531FF90057DEEF0D2
:10116000A3EFF08E3CF53D753E00753F04E4F5407D
:101170007FCC7E447D337C50126E53E4F53C7F2C53
:101180007E4A7D337C501271138E308F3185303C16
:10119000E5314420F53D753E00753F04E4F540021D
:1011A0001473E52F64056003021248127108EE54AF
:1011B000FE4408F5307531009005F7E04530FEA398
:1011C000E04531FF9005F7EEF0A3EFF08E3CF53DE2
:1011D000753E00753F047540017FCC7E447D037CE5
:1011E00050126E53127108EE54F6F53075310090BE
:1011F00005F7E04530FEA3E04531FF9005F7EEF03E
:10120000A3EFF08E3CF53D753E00753F047540013F
:101210007FCC7E447D037C50126E53753C017F2C45
:101220007E4A7D037C501271138E308F3185303CA5
:10123000E5314420F53D753E00753F047540017F62
:101240002C7E4A7D03021479E52F640660030213A5
:1012500004753C017FCC7E447D137C50127113EEEB
:1012600054FE4408F5307531009005F9E04530FE34
:10127000A3E04531FF9005F9EEF0A3EFF08E3CF5C9
:101280003D753E00753F047540017FCC7E447D1363
:101290007C50126E53753C017FCC7E447D137C5094
:1012A000127113EE54F6F5307531009005F9E045F2
:1012B00030FEA3E04531FF9005F9EEF0A3EFF08E8C
:1012C0003CF53D753E00753F047540017FCC7E4482
:1012D0007D137C50126E53753C017F2C7E4A7D132A
:1012E0007C501271138E308F3185303CE5314420B3
:1012F000F53D753E00753F047540017F2C7E4A7DAB
:1013000013021479E52F640760030213C0753C01D2
:101310007FCC7E447D237C50127113EE54FE440832
:10132000F5307531009005FBE04530FEA3E0453116
:10133000FF9005FBEEF0A3EFF08E3CF53D753E000F
:10134000753F047540017FCC7E447D237C50126E36
:1013500053753C017FCC7E447D237C50127113EE8B
:1013600054F6F5307531009005FBE04530FEA3E002
:101370004531FF9005FBEEF0A3EFF08E3CF53D7597
:101380003E00753F047540017FCC7E447D237C5038
:10139000126E53753C017F2C7E4A7D237C50127166
:1013A000138E308F3185303CE5314420F53D753E5C
:1013B00000753F047540017F2C7E4A7D230214791D
:1013C000E52F6408600302147E753C017FCC7E44E7
:1013D0007D337C50127113EE54FE4408F5307531A4
:1013E000009005FDE04530FEA3E04531FF9005FD8E
:1013F000EEF0A3EFF08E3CF53D753E00753F0475B1
:1014000040017FCC7E447D337C50126E53753C018D
:101410007FCC7E447D337C50127113EE54F6F53050
:101420007531009005FDE04530FEA3E04531FF90A9
:1014300005FDEEF0A3EFF08E3CF53D753E00753FE7
:10144000047540017FCC7E447D337C50126E537511
:101450003C017F2C7E4A7D337C501271138E308F7D
:101460003185303CE5314420F53D753E00753F0443
:101470007540017F2C7E4A7D337C50126E5322EFE3
:101480001470030215D914700302171914700302A3
:1014900018592403600302199F7F20127D58900879
:1014A00066E0FB754D04E4FD7F2012779890087884
:1014B000E0FB754D047D017F20127798900867E06E
:1014C000FB754D047D027F20127798900868E0FB41
:1014D000754D047D037F20127798900869E0FB75B5
:1014E0004D047D047F2012779890086AE0FB754DCB
:1014F000047D057F2012779890086BE0FB754D0402
:101500007D0A7F20127798900879E0FB754D047D65
:101510000C7F2012779890086CE0FB754D047D0DD0
:101520007F2012779890086DE0FB754D047D197F40
:101530002012779890086EE0FB754D047D1A7F208D
:10154000127798900871E0FB754D047DC27F2012E0
:101550007798900874E0FB754D047DE27F20127748
:1015600098900877E0FB754D047DD27F2012779824
:10157000900871E020E01E90086FE0FB754D047D3F
:10158000C07F20127798900870E0FB754D047DC1F4
:101590007F20127798900874E020E01E900872E097
:1015A000FB754D047DE07F20127798900873E0FB77
:1015B000754D047DE17F20127798900877E030E048
:1015C0000302199F900875E0FB754D047DD07F20C4
:1015D0001277989008760219937F21127D5890080F
:1015E0007CE0FB754D04E4FD7F2012779890088E17
:1015F000E0FB754D047D017F2012779890087DE017
:10160000FB754D047D027F2012779890087EE0FBE9
:10161000754D047D037F2012779890087FE0FB755D
:101620004D047D047F20127798900880E0FB754D73
:10163000047D057F20127798900881E0FB754D04AA
:101640007D0A7F2012779890088FE0FB754D047D0E
:101650000C7F20127798900882E0FB754D047D0D79
:101660007F20127798900883E0FB754D047D197FE9
:1016700020127798900884E0FB754D047D1A7F2036
:10168000127798900887E0FB754D047DC27F201289
:10169000779890088AE0FB754D047DE27F201277F1
:1016A0009890088DE0FB754D047DD27F20127798CD
:1016B000900887E020E01E900885E0FB754D047DD2
:1016C000C07F20127798900886E0FB754D047DC19D
:1016D0007F2012779890088AE020E01E900888E02A
:1016E000FB754D047DE07F20127798900889E0FB20
:1016F000754D047DE17F2012779890088DE030E0F1
:101700000302199F90088BE0FB754D047DD07F206C
:1017100012779890088C0219937F22127D589008B6
:1017200092E0FB754D04E4FD7F201277989008A4A9
:10173000E0FB754D047D017F20127798900893E0BF
:10174000FB754D047D027F20127798900894E0FB92
:10175000754D047D037F20127798900895E0FB7506
:101760004D047D047F20127798900896E0FB754D1C
:10177000047D057F20127798900897E0FB754D0453
:101780007D0A7F201277989008A5E0FB754D047DB7
:101790000C7F20127798900898E0FB754D047D0D22
:1017A0007F20127798900899E0FB754D047D197F92
:1017B0002012779890089AE0FB754D047D1A7F20DF
:1017C00012779890089DE0FB754D047DC27F201232
:1017D00077989008A0E0FB754D047DE27F2012779A
:1017E000989008A3E0FB754D047DD27F2012779876
:1017F00090089DE020E01E90089BE0FB754D047D65
:10180000C07F2012779890089CE0FB754D047DC145
:101810007F201277989008A0E020E01E90089EE0BC
:10182000FB754D047DE07F2012779890089FE0FBC8
:10183000754D047DE17F201277989008A3E030E099
:101840000302199F9008A1E0FB754D047DD07F2015
:101850001277989008A20219937F23127D5890085E
:10186000A8E0FB754D04E4FD7F201277989008BA3C
:10187000E0FB754D047D017F201277989008A9E068
:10188000FB754D047D027F201277989008AAE0FB3B
:10189000754D047D037F201277989008ABE0FB75AF
:1018A0004D047D047F201277989008ACE0FB754DC5
:1018B000047D057F201277989008ADE0FB754D04FC
:1018C0007D0A7F201277989008BBE0FB754D047D60
:1018D0000C7F201277989008AEE0FB754D047D0DCB
:1018E0007F201277989008AFE0FB754D047D197F3B
:1018F000201277989008B0E0FB754D047D1A7F2088
:101900001277989008B3E0FB754D047DC27F2012DA
:1019100077989008B6E0FB754D047DE27F20127742
:10192000989008B9E0FB754D047DD27F201277981E
:101930009008B3E020E01E9008B1E0FB754D047DF7
:10194000C07F201277989008B2E0FB754D047DC1EE
:101950007F201277989008B6E020E01E9008B4E04F
:10196000FB754D047DE07F201277989008B5E0FB71
:10197000754D047DE17F201277989008B9E020E052
:101980001E9008B7E0FB754D047DD07F201277983C
:101990009008B8E0FB754D047DD17F201277982226
:1019A000EF147003021AFA147003021C3A14700345
:1019B000021D7A24036003021EC07F20127D649002
:1019C00008E6E0FB754D05E4FD7F2012779890084E
:1019D000F8E0FB754D057D017F201277989008E7B0
:1019E000E0FB754D057D027F201277989008E8E0B6
:1019F000FB754D057D037F201277989008E9E0FB89
:101A0000754D057D047F201277989008EAE0FB75FC
:101A10004D057D057F201277989008EBE0FB754D12
:101A2000057D0A7F201277989008F9E0FB754D0537
:101A30007D0C7F201277989008ECE0FB754D057DBA
:101A40000D7F201277989008EDE0FB754D057D190C
:101A50007F201277989008EEE0FB754D057D1A7F88
:101A6000201277989008F1E0FB754D057DC27F202C
:101A70001277989008F4E0FB754D057DE27F201207
:101A800077989008F7E0FB754D057DD27F2012779F
:101A9000989008F1E020E01E9008EFE0FB754D05FE
:101AA0007DC07F201277989008F0E0FB754D057D92
:101AB000C17F201277989008F4E020E01E9008F291
:101AC000E0FB754D057DE07F201277989008F3E0EC
:101AD000FB754D057DE17F201277989008F7E03087
:101AE000E003021EC09008F5E0FB754D057DD07F38
:101AF000201277989008F6021EB47F21127D649020
:101B000008FCE0FB754D05E4FD7F201277989009F5
:101B10000EE0FB754D057D017F201277989008FD42
:101B2000E0FB754D057D027F201277989008FEE05E
:101B3000FB754D057D037F201277989008FFE0FB31
:101B4000754D057D047F20127798900900E0FB75A4
:101B50004D057D057F20127798900901E0FB754DBA
:101B6000057D0A7F2012779890090FE0FB754D05DF
:101B70007D0C7F20127798900902E0FB754D057D62
:101B80000D7F20127798900903E0FB754D057D19B4
:101B90007F20127798900904E0FB754D057D1A7F30
:101BA00020127798900907E0FB754D057DC27F20D4
:101BB00012779890090AE0FB754D057DE27F2012AF
:101BC000779890090DE0FB754D057DD27F20127747
:101BD00098900907E020E01E900905E0FB754D058F
:101BE0007DC07F20127798900906E0FB754D057D3A
:101BF000C17F2012779890090AE020E01E90090822
:101C0000E0FB754D057DE07F20127798900909E093
:101C1000FB754D057DE17F2012779890090DE0302E
:101C2000E003021EC090090BE0FB754D057DD07FDF
:101C30002012779890090C021EB47F22127D6490C6
:101C40000912E0FB754D05E4FD7F2012779890099D
:101C500024E0FB754D057D017F20127798900913D4
:101C6000E0FB754D057D027F20127798900914E006
:101C7000FB754D057D037F20127798900915E0FBD9
:101C8000754D057D047F20127798900916E0FB754D
:101C90004D057D057F20127798900917E0FB754D63
:101CA000057D0A7F20127798900925E0FB754D0588
:101CB0007D0C7F20127798900918E0FB754D057D0B
:101CC0000D7F20127798900919E0FB754D057D195D
:101CD0007F2012779890091AE0FB754D057D1A7FD9
:101CE0002012779890091DE0FB754D057DC27F207D
:101CF000127798900920E0FB754D057DE27F201258
:101D00007798900923E0FB754D057DD27F201277EF
:101D10009890091DE020E01E90091BE0FB754D0521
:101D20007DC07F2012779890091CE0FB754D057DE2
:101D3000C17F20127798900920E020E01E90091EB4
:101D4000E0FB754D057DE07F2012779890091FE03C
:101D5000FB754D057DE17F20127798900923E030D7
:101D6000E003021EC0900921E0FB754D057DD07F88
:101D700020127798900922021EB47F23127D64906E
:101D80000928E0FB754D05E4FD7F20127798900946
:101D90003AE0FB754D057D017F2012779890092967
:101DA000E0FB754D057D027F2012779890092AE0AF
:101DB000FB754D057D037F2012779890092BE0FB82
:101DC000754D057D047F2012779890092CE0FB75F6
:101DD0004D057D057F2012779890092DE0FB754D0C
:101DE000057D0A7F2012779890093BE0FB754D0531
:101DF0007D0C7F2012779890092EE0FB754D057DB4
:101E00000D7F2012779890092FE0FB754D057D1905
:101E10007F20127798900930E0FB754D057D1A7F81
:101E200020127798900933E0FB754D057DC27F2025
:101E3000127798900936E0FB754D057DE27F201200
:101E40007798900939E0FB754D057DD27F20127798
:101E500098900933E020E01E900931E0FB754D05B4
:101E60007DC07F20127798900932E0FB754D057D8B
:101E7000C17F20127798900936E020E01E90093447
:101E8000E0FB754D057DE07F20127798900935E0E5
:101E9000FB754D057DE17F20127798900939E02090
:101EA000E01E900937E0FB754D057DD07F2012774D
:101EB00098900938E0FB754D057DD17F2012779809
:101EC00022EC4D6011E8497017ED33EC3304600DDE
:101ED000E4FCFFFEFD22E933E8330470F8022071D0
:101EE00012203C58046009E4CC2481500628500993
:101EF00002207B284003022078C0E0EB4A7044B9FE
:101F00008006D0E0FB022067EF4E701CBD8008EB1E
:101F1000FFEAFEE9FD80EBE98DF0A4FEE5F0021F8B
:101F2000AAE9CDF9EAFEEBFFEF89F0A4FCE5F0CEDB
:101F300089F0A42EFFE435F0CD89F0A42DFEE43520
:101F4000F08067EF4E7005BD80D780C3EF8BF0A4A3
:101F5000ACF0EE8BF0A42CFCE435F0F8EF8AF0A4A2
:101F60002CE5F038FCE433CB8DF0A42CFCE5F03B01
:101F7000F8EE8AF0A42CFCE5F038F8E433CF89F0D1
:101F8000A42CFCE5F038CF3400CE89F0A42FFFE577
:101F9000F03EFEE433C98DF0A42EFEE5F039CD8A83
:101FA000F0A42FFFE5F03EFEE43DFD33D0E0FB5012
:101FB000070BBB000F02207BEC2CFCEF33FFEE3352
:101FC000FEED33FD02205375F020800E75F0108079
:101FD0000575F0087D007E007F003392D530D50373
:101FE00012223EEC334010EF33FFEE33FEED33FDB3
:101FF000EC33FCD5F0ED22E5F0247EA2D513CC9293
:10200000E7CDCEFF22EDD2E7CD33EC3392D524815C
:102010004006E4FFFEFDFC22FCE4CFCECDCC24E064
:10202000501174FF80EDC3CC13CCCD13CDCE13CEA5
:10203000CF13CF0470F030D5DE02223EE9D2E7C9DB
:1020400033E833F892D5EDD2E7CD33EC33FC5002D0
:10205000B2D522EC30E7100FBF000C0EBE00080D09
:10206000BD00040BEB6014A2D5EB13FCED92E7FD71
:102070002274FFFCFDFEFF22E480F8A2D574FF135A
:10208000FC7D80E480EFE709F608DFFA8046E70987
:10209000F208DFFA803E88828C83E709F0A3DFFA3A
:1020A0008032E309F608DFFA8078E309F208DFFA04
:1020B000807088828C83E309F0A3DFFA80648982D0
:1020C0008A83E0A3F608DFFA805889828A83E0A336
:1020D000F208DFFA804C80D280FA80C680D4806912
:1020E00080F28033801080A680EA809A80A880DA0F
:1020F00080E280CA803389828A83ECFAE493A3C8A1
:10210000C582C8CCC583CCF0A3C8C582C8CCC58362
:10211000CCDFE9DEE7800D89828A83E493A3F608A9
:10212000DFF9ECFAA9F0EDFB2289828A83ECFAE070
:10213000A3C8C582C8CCC583CCF0A3C8C582C8CC0F
:10214000C583CCDFEADEE880DB89828A83E493A35F
:10215000F208DFF980CC88F0EF60010E4E60C38892
:10216000F0ED2402B4040050B9F582EB2402B4046B
:102170000050AF23234582239020D673BB010689EC
:10218000828A83E0225002E722BBFE02E322898298
:102190008A83E49322BB010689828A83F02250025B
:1021A000F722BBFE01F322EF8DF0A4A8F0CF8CF054
:1021B000A428CE8DF0A42EFE22C2D5EC30E709B2C1
:1021C000D5E4C39DFDE49CFCEE30E715B2D5E4C335
:1021D0009FFFE49EFE1222B2C3E49DFDE49CFC80BE
:1021E000031222B230D507C3E49FFFE49EFE22E82B
:1021F0008FF0A4CC8BF0A42CFCE98EF0A42CFC8AEC
:10220000F0EDA42CFCEA8EF0A4CDA8F08BF0A42D68
:10221000CC3825F0FDE98FF0A42CCD35F0FCEB8E09
:10222000F0A4FEA9F0EB8FF0A4CFC5F02ECD39FEBF
:10223000E43CFCEAA42DCE35F0FDE43CFC22C3E4F2
:102240009FFFE49EFEE49DFDE49CFC22E86010EC10
:10225000A2E713FCED13FDEE13FEEF13FFD8F022FF
:10226000D083D082F8E4937012740193700DA3A30D
:1022700093F8740193F5828883E473740293686021
:10228000EFA3A3A380DFEF4E6012EF60010EEDBB62
:10229000010B89828A83F0A3DFFCDEFA2289F050E9
:1022A00007F709DFFCA9F022BBFEFCF309DFFCA95C
:1022B000F022BC000BBE0029EF8DF084FFADF022B0
:1022C000E4CCF875F008EF2FFFEE33FEEC33FCEEB4
:1022D0009DEC984005FCEE9DFE0FD5F0E9E4CEFDA7
:1022E00022EDF8F5F0EE8420D21CFEADF075F0087A
:1022F000EF2FFFED33FD4007985006D5F0F222C3D3
:1023000098FD0FD5F0EA2275F008758200EF2FFFD7
:10231000EE33FECD33CDCC33CCC58233C5829BEDBD
:102320009AEC99E58298400CF582EE9BFEED9AFDC1
:10233000EC99FC0FD5F0D6E4CEFBE4CDFAE4CCF971
:10234000A88222B800C1B90059BA002DEC8BF084E4
:10235000CFCECDFCE5F0CBF97818EF2FFFEE33FEB2
:10236000ED33FDEC33FCEB33FB10D703994004EB6A
:1023700099FB0FD8E5E4F9FA227818EF2FFFEE3336
:10238000FEED33FDEC33FCC933C910D7059BE99A48
:102390004007EC9BFCE99AF90FD8E0E4C9FAE4CCD9
:1023A000FB2275F010EF2FFFEE33FEED33FDCC3343
:1023B000CCC833C810D7079BEC9AE899400AED9B2C
:1023C000FDEC9AFCE899F80FD5F0DAE4CDFBE4CC0B
:1023D000FAE4C8F922011E00410762A0410A160171
:1023E000410A1700490653534C42463634513332A2
:1023F0006081066200000000000000000000000094
:1024000000000000000000000000000000000000CC
:1024100000000000000000000000000000000000BC
:1024200000000000000000000000000000000000AC
:10243000000000000000000000000000000000009C
:10244000000000000000000000000000000000008C
:10245000000000000000000000000000000000007C
:10246000000000000000000000000000000000006C
:1024700000000000004106600041064F0041065F79
:10248000004106500041065D004106510041065CD6
:10249000006100010C0000000000000000000000CE
:1024A000000000000000000000000000000000002C
:1024B000000000000000000000000000000000001C
:1024C000000000000000000000000000000000000C
:1024D00000000000000000000000000000000000FC
:1024E00000000000000000000000000000000000EC
:1024F00000000000000000000000000000000000DC
:1025000000000000000000000000000000000000CB
:1025100000000000000000000000000000000000BB
:1025200000000000000000000000000000000000AB
:10253000000000000000000000000000000000009B
:10254000000000000000000000000000000000008B
:10255000000000000000000000000000000000007B
:10256000000000000000000000000000000000006B
:10257000000000000000000000000000000000005B
:10258000000000000000000000000000000000004B
:1025900000000000006080008200000000000000D9
:1025A000000000000000000000000000000000002B
:1025B000000000000000000000000000000000001B
:1025C000000000000000000000000000000000000B
:1025D00000000000000000000000000000000000FB
:1025E00000000000000000000000000000000000EB
:1025F00000000000000000000000000000000000DB
:1026000000000000000000000000000000000000CA
:102610000000000000000000006080021D000000BB
:1026200000000000000000000000000000000000AA
:10263000000000000000000000000000000000009A
:10264000000000000000000000000000000000008A
:10265000000000000000000000000000000000007A
:10266000000000000000000000000000000000006A
:10267000000000000000000000000000000000005A
:10268000000000000000000000000000000000004A
:102690000000000000000000000000000060800258
:1026A0009F0000000000000000000000000000008B
:1026B000000000000000000000000000000000001A
:1026C000000000000000000000000000000000000A
:1026D00000000000000000000000000000000000FA
:1026E00000000000000000000000000000000000EA
:1026F00000000000000000000000000000000000DA
:1027000000000000000000000000000000000000C9
:1027100000000000000000000000000000000000B9
:1027200000608000020000000000000000000000C7
:102730000000000000000000000000000000000099
:102740000000000000000000000000000000000089
:102750000000000000000000000000000000000079
:102760000000000000000000000000000000000069
:102770000000000000000000000000000000000059
:102780000000000000000000000000000000000049
:102790000000000000000000000000000000000039
:1027A0000000000000410104054101070541010945
:1027B0000541010B054101030041010600410108EB
:1027C0000041010A004100000341000103410102F0
:1027D000034101050342029D000041021C02410A1F
:1027E00005004109FE00410A0000410A0300410AB8
:1027F0000700410A0A00410A0200410A0400410A96
:102800000900410A0B004109FF00410A0100410A89
:102810000600410A0800021C0000021A00004109DB
:10282000E3014109E4014109E5014109E6014109EA
:10283000E7014109E8014109E9014109EA014109CA
:10284000EB004109EC004109ED00011100010D0010
:1028500002090000010B00010F00010E0001080039
:102860000113FF010C00011200011000410A0D10BC
:10287000410A0F10410A1110410A1310410A1410A5
:10288000410A0E10410A1010410A1210410A1500A7
:10289000410A0C00008F2EE52E6401600302292EF0
:1028A000900493E04480F53CA3E0F53D753E00754F
:1028B0003F04E4F540FD126E4D900493E04480F532
:1028C0003CA3E0F53D753E00753F04E4F5407F28EC
:1028D0007E18FD7C58126E53900493E04480F53CC2
:1028E000A3E0F53D753E00753F04E4F5407F287E8A
:1028F00018FD7C58126E53900495E0F53CA3E0F56A
:102900003D753E00753F04E4F5407F2C7E18FD7C4C
:1029100058126E53900495E0F53CA3E0F53D753EEA
:1029200000753F04E4F5407F2C7E18022B02E52E53
:10293000640260030229CB900497E04480F53CA335
:10294000E0F53D753E00753F04E4F5407F287E5874
:10295000FD7C58126E53900497E04480F53CA3E050
:10296000F53D753E00753F04E4F5407F287E58FD37
:102970007C58126E53900497E04480F53CA3E0F538
:102980003D753E00753F04E4F5407F287E58FD7C90
:1029900058126E53900499E0F53CA3E0F53D753E66
:1029A00000753F04E4F5407F2C7E58FD7C58126E84
:1029B00053900499E0F53CA3E0F53D753E00753F6A
:1029C00004E4F5407F2C7E58022B02E52E64036060
:1029D00003022A6890049BE04480F53CA3E0F53DA7
:1029E000753E00753F04E4F5407F287E98FD7C58D5
:1029F000126E5390049BE04480F53CA3E0F53D75D6
:102A00003E00753F04E4F5407F287E98FD7C581217
:102A10006E5390049BE04480F53CA3E0F53D753E89
:102A200000753F04E4F5407F287E98FD7C58126EC7
:102A30005390049DE0F53CA3E0F53D753E00753FE5
:102A400004E4F5407F2C7E98FD7C58126E53900470
:102A50009DE0F53CA3E0F53D753E00753F04E4F5CF
:102A6000407F2C7E98022B02E52E64046003022B2B
:102A70000690049FE04480F53CA3E0F53D753E00E0
:102A8000753F04E4F5407F287ED8FD7C58126E53D4
:102A900090049FE04480F53CA3E0F53D753E007551
:102AA0003F04E4F5407F287ED8FD7C58126E539099
:102AB000049FE04480F53CA3E0F53D753E00753F82
:102AC00004E4F5407F287ED8FD7C58126E539004B4
:102AD000A1E0F53CA3E0F53D753E00753F04E4F54B
:102AE000407F2C7ED8FD7C58126E539004A1E0F5F7
:102AF0003CA3E0F53D753E00753F04E4F5407F2CB6
:102B00007ED8FD022D35E52E64057043126E361217
:102B10006E36126E36900515E0F53CA3E0F53D7576
:102B20003E00753F047540017F2C7E187D007C5867
:102B3000126E53900515E0F53CA3E0F53D753E009F
:102B4000753F047540017F2C7E187D00022D35E510
:102B50002E64066003022BF2900517E04480F53CDA
:102B6000A3E0F53D753E00753F047540017F287E6A
:102B7000587D007C58126E53900517E04480F53C58
:102B8000A3E0F53D753E00753F047540017F287E4A
:102B9000587D007C58126E53900517E04480F53C38
:102BA000A3E0F53D753E00753F047540017F287E2A
:102BB000587D007C58126E53900519E0F53CA3E057
:102BC000F53D753E00753F047540017F2C7E587DB4
:102BD000007C58126E53900519E0F53CA3E0F53DDA
:102BE000753E00753F047540017F2C7E587D0002C4
:102BF0002D35E52E64076003022C9590051BE044FB
:102C000080F53CA3E0F53D753E00753F047540013D
:102C10007F287E987D007C58126E5390051BE044FF
:102C200080F53CA3E0F53D753E00753F047540011D
:102C30007F287E987D007C58126E5390051BE044DF
:102C400080F53CA3E0F53D753E00753F04754001FD
:102C50007F287E987D007C58126E5390051DE0F50C
:102C60003CA3E0F53D753E00753F047540017F2CA7
:102C70007E987D007C58126E5390051DE0F53CA3B4
:102C8000E0F53D753E00753F047540017F2C7E9850
:102C90007D00022D35E52E64086003022D3A900573
:102CA0001FE04480F53CA3E0F53D753E00753F0410
:102CB0007540017F287ED87D007C58126E539005A8
:102CC0001FE04480F53CA3E0F53D753E00753F04F0
:102CD0007540017F287ED87D007C58126E53900588
:102CE0001FE04480F53CA3E0F53D753E00753F04D0
:102CF0007540017F287ED87D007C58126E53900568
:102D000021E0F53CA3E0F53D753E00753F047540BC
:102D1000017F2C7ED87D007C58126E53900521E0F7
:102D2000F53CA3E0F53D753E00753F047540017F1D
:102D30002C7ED87D007C58126E5322EF1470030253
:102D40002E73147003022F911470030230AF24030A
:102D500060030231CC7F20127D587B04E4FD7F208C
:102D6000127758900866EFF07B047D017F20127780
:102D700058900878EFF07B047D027F2012775890FE
:102D80000867EFF07B047D037F2012775890086876
:102D9000EFF07B047D047F20127758900869EFF0F4
:102DA0007B047D057F2012775890086AEFF07B0442
:102DB0007D0A7F2012775890086BEFF07B047D0C22
:102DC0007F20127758900879EFF07B047D0D7F20EB
:102DD00012775890086CEFF07B047D197F201277F2
:102DE0005890086DEFF07B047D1A7F201277589081
:102DF000086EEFF07B047DC07F2012775890086F3B
:102E0000EFF07B047DC17F20127758900870EFF0BF
:102E10007B047DC27F20127758900871EFF07B040D
:102E20007DE07F20127758900872EFF07B047DE1FF
:102E30007F20127758900873EFF07B047DE27F20AB
:102E4000127758900874EFF07B047DD07F201277C2
:102E500058900875EFF07B047DD17F201277589051
:102E60000876EFF07B047DD27F20127758900877A8
:102E7000EFF0227F21127D587B04E4FD7F20127742
:102E80005890087CEFF07B047D017F2012775890EA
:102E9000088EEFF07B047D027F2012775890087D2A
:102EA000EFF07B047D037F2012775890087EEFF0CF
:102EB0007B047D047F2012775890087FEFF07B041D
:102EC0007D057F20127758900880EFF07B047D0A03
:102ED0007F20127758900881EFF07B047D0C7F20D3
:102EE00012775890088FEFF07B047D0D7F201277CA
:102EF00058900882EFF07B047D197F20127758905C
:102F00000883EFF07B047D1A7F20127758900884A5
:102F1000EFF07B047DC07F20127758900885EFF09A
:102F20007B047DC17F20127758900886EFF07B04E8
:102F30007DC27F20127758900887EFF07B047DE0F8
:102F40007F20127758900888EFF07B047DE17F2086
:102F5000127758900889EFF07B047DE27F2012778A
:102F60005890088AEFF07B047DD07F20127758902C
:102F7000088BEFF07B047DD17F2012775890088C6E
:102F8000EFF07B047DD27F2012775890088DEFF010
:102F9000227F22127D587B04E4FD7F201277589017
:102FA0000892EFF07B047D017F201277589008A4EF
:102FB000EFF07B047D027F20127758900893EFF0AA
:102FC0007B047D037F20127758900894EFF07B04F8
:102FD0007D047F20127758900895EFF07B047D05E3
:102FE0007F20127758900896EFF07B047D0A7F20AF
:102FF000127758900897EFF07B047D0C7F201277B2
:10300000589008A5EFF07B047D0D7F201277589033
:103010000898EFF07B047D197F201277589008996B
:10302000EFF07B047D1A7F2012775890089AEFF01A
:103030007B047DC07F2012775890089BEFF07B04C3
:103040007DC17F2012775890089CEFF07B047DC2F1
:103050007F2012775890089DEFF07B047DE07F2061
:1030600012775890089EEFF07B047DE17F20127765
:103070005890089FEFF07B047DE27F2012775890F4
:1030800008A0EFF07B047DD07F201277589008A134
:10309000EFF07B047DD17F201277589008A2EFF0EB
:1030A0007B047DD27F201277589008A3EFF0227F17
:1030B00023127D587B04E4FD7F201277589008A8E6
:1030C000EFF07B047D017F201277589008BAEFF073
:1030D0007B047D027F201277589008A9EFF07B04D3
:1030E0007D037F201277589008AAEFF07B047D04BF
:1030F0007F201277589008ABEFF07B047D057F208E
:103100001277589008ACEFF07B047D0A7F2012778D
:10311000589008ADEFF07B047D0C7F20127758901B
:1031200008BBEFF07B047D0D7F201277589008AE2E
:10313000EFF07B047D197F201277589008AFEFF0F5
:103140007B047D1A7F201277589008B0EFF07B0443
:103150007DC07F201277589008B1EFF07B047DC1CD
:103160007F201277589008B2EFF07B047DC27F2059
:103170001277589008B3EFF07B047DE07F20127740
:10318000589008B4EFF07B047DE17F2012775890CF
:1031900008B5EFF07B047DE27F201277589008B6E7
:1031A000EFF07B047DD07F201277589008B7EFF0C6
:1031B0007B047DD17F201277589008B8EFF07B0414
:1031C0007DD27F201277589008B9EFF022EF14706B
:1031D00003023305147003023423147003023541D3
:1031E0002403600302365E7F20127D647B05E4FDCC
:1031F0007F201277589008E6EFF07B057D017F2055
:103200001277589008F8EFF07B057D027F20127747
:10321000589008E7EFF07B057D037F2012775890E8
:1032200008E8EFF07B057D047F201277589008E9CD
:10323000EFF07B057D057F201277589008EAEFF0CC
:103240007B057D0A7F201277589008EBEFF07B0515
:103250007D0C7F201277589008F9EFF07B057D0DEB
:103260007F201277589008ECEFF07B057D197F20C6
:103270001277589008EDEFF07B057D1A7F201277CA
:10328000589008EEEFF07B057DC07F2012775890B4
:1032900008EFEFF07B057DC17F201277589008F092
:1032A000EFF07B057DC27F201277589008F1EFF098
:1032B0007B057DE07F201277589008F2EFF07B05C8
:1032C0007DE17F201277589008F3EFF07B057DE2D7
:1032D0007F201277589008F4EFF07B057DD07F2097
:1032E0001277589008F5EFF07B057DD17F2012779B
:1032F000589008F6EFF07B057DD27F20127758902A
:1033000008F7EFF0227F21127D647B05E4FD7F202A
:103310001277589008FCEFF07B057D017F20127733
:103320005890090EEFF07B057D027F2012775890B0
:1033300008FDEFF07B057D037F201277589008FE93
:10334000EFF07B057D047F201277589008FFEFF0A7
:103350007B057D057F20127758900900EFF07B05F3
:103360007D0A7F20127758900901EFF07B057D0CD4
:103370007F2012775890090FEFF07B057D0D7F209D
:10338000127758900902EFF07B057D197F201277A4
:1033900058900903EFF07B057D1A7F201277589033
:1033A0000904EFF07B057DC07F2012775890090556
:1033B000EFF07B057DC17F20127758900906EFF072
:1033C0007B057DC27F20127758900907EFF07B05BF
:1033D0007DE07F20127758900908EFF07B057DE1B2
:1033E0007F20127758900909EFF07B057DE27F205E
:1033F00012775890090AEFF07B057DD07F20127775
:103400005890090BEFF07B057DD17F201277589003
:10341000090CEFF07B057DD27F2012775890090DC3
:10342000EFF0227F22127D647B05E4FD7F2012777E
:1034300058900912EFF07B057D017F20127758909C
:103440000924EFF07B057D027F2012775890091345
:10345000EFF07B057D037F20127758900914EFF081
:103460007B057D047F20127758900915EFF07B05CE
:103470007D057F20127758900916EFF07B057D0AB5
:103480007F20127758900917EFF07B057D0C7F2085
:10349000127758900925EFF07B057D0D7F2012777C
:1034A00058900918EFF07B057D197F20127758900E
:1034B0000919EFF07B057D1A7F2012775890091AC1
:1034C000EFF07B057DC07F2012775890091BEFF04D
:1034D0007B057DC17F2012775890091CEFF07B059A
:1034E0007DC27F2012775890091DEFF07B057DE0AB
:1034F0007F2012775890091EEFF07B057DE17F2039
:1035000012775890091FEFF07B057DE27F2012773C
:1035100058900920EFF07B057DD07F2012775890DE
:103520000921EFF07B057DD17F2012775890092289
:10353000EFF07B057DD27F20127758900923EFF0C2
:10354000227F23127D647B05E4FD7F201277589053
:103550000928EFF07B057D017F2012775890093A0A
:10356000EFF07B057D027F20127758900929EFF05C
:103570007B057D037F2012775890092AEFF07B05A9
:103580007D047F2012775890092BEFF07B057D0595
:103590007F2012775890092CEFF07B057D0A7F2061
:1035A00012775890092DEFF07B057D0C7F20127764
:1035B00058900925EFF07B057D0D7F2012775890FC
:1035C000092EEFF07B057D197F2012775890092F87
:1035D000EFF07B057D1A7F20127758900930EFF0CD
:1035E0007B057DC07F20127758900931EFF07B0575
:1035F0007DC17F20127758900932EFF07B057DC2A4
:103600007F20127758900933EFF07B057DE07F2013
:10361000127758900934EFF07B057DE17F20127717
:1036200058900935EFF07B057DE27F2012775890A6
:103630000936EFF07B057DD07F201277589009374F
:10364000EFF07B057DD17F20127758900938EFF09D
:103650007B057DD27F20127758900939EFF0228FB9
:103660002FE52F640160030236ECF53C7FCC7E34FD
:10367000FD7C58127113EE54FEF530753100900444
:103680007BE04530FEA3E04531FF90047BEEF0A3E4
:10369000EFF0EE4408F53C8F3D753E00753F04E4C5
:1036A000F5407FCC7E34FD7C58126E53E4F53C7FB0
:1036B000CC7E34FD7C58127113EE54FEF53075311A
:1036C0000090047BE04530FEA3E04531FF90047B91
:1036D000EEF0A3EFF0EE54F7F53C8F3D753E00752C
:1036E0003F04E4F5407FCC7E3402388AE52F640243
:1036F0006003023777F53C7FCC7E74FD7C581271F5
:1037000013EE54FEF53075310090047DE04530FE37
:10371000A3E04531FF90047DEEF0A3EFF0EE440806
:10372000F53C8F3D753E00753F04E4F5407FCC7E4F
:1037300074FD7C58126E53E4F53C7FCC7E74FD7CA6
:1037400058127113EE54FEF53075310090047DE08F
:103750004530FEA3E04531FF90047DEEF0A3EFF08D
:10376000EE54F7F53C8F3D753E00753F04E4F5409F
:103770007FCC7E7402388AE52F640360030238022E
:10378000F53C7FCC7EB4FD7C58127113EE54FEF5EF
:103790003075310090047FE04530FEA3E04531FFF5
:1037A00090047FEEF0A3EFF0EE4408F53C8F3D75FA
:1037B0003E00753F04E4F5407FCC7EB4FD7C58129A
:1037C0006E53E4F53C7FCC7EB4FD7C58127113EE51
:1037D00054FEF53075310090047FE04530FEA3E0E3
:1037E0004531FF90047FEEF0A3EFF0EE54F7F53C87
:1037F0008F3D753E00753F04E4F5407FCC7EB402FA
:10380000388AE52F6404600302388EF53C7FCC7E55
:10381000F4FD7C58127113EE54FEF53075310090B2
:103820000481E04530FEA3E04531FF900481EEF0D5
:10383000A3EFF0EE4408F53C8F3D753E00753F0464
:10384000E4F5407FCC7EF4FD7C58126E53E4F53CE9
:103850007FCC7EF4FD7C58127113EE54FEF530756A
:103860003100900481E04530FEA3E04531FF900433
:1038700081EEF0A3EFF0EE54F7F53C8F3D753E007E
:10388000753F04E4F5407FCC7EF4FD023ACBE52F92
:103890006405600302391E753C017FCC7E34FD7CDB
:1038A00058127113EE54FEF5307531009004FBE0B0
:1038B0004530FEA3E04531FF9004FBEEF0A3EFF0AE
:1038C000EE4408F53C8F3D753E00753F04754001A0
:1038D0007FCC7E347D007C58126E53753C017FCCCA
:1038E0007E347D007C58127113EE54FEF530753134
:1038F000009004FBE04530FEA3E04531FF9004FB5F
:10390000EEF0A3EFF0EE54F7F53C8F3D753E0075F9
:103910003F047540017FCC7E347D00023ACBE52F19
:10392000640660030239AE753C017FCC7E74FD7C79
:1039300058127113EE54FEF5307531009004FDE01D
:103940004530FEA3E04531FF9004FDEEF0A3EFF01B
:10395000EE4408F53C8F3D753E00753F047540010F
:103960007FCC7E747D007C58126E53753C017FCCF9
:103970007E747D007C58127113EE54FEF530753163
:10398000009004FDE04530FEA3E04531FF9004FDCA
:10399000EEF0A3EFF0EE54F7F53C8F3D753E007569
:1039A0003F047540017FCC7E747D00023ACBE52F49
:1039B00064076003023A3E753C017FCC7EB4FD7C17
:1039C00058127113EE54FEF5307531009004FFE08B
:1039D0004530FEA3E04531FF9004FFEEF0A3EFF089
:1039E000EE4408F53C8F3D753E00753F047540017F
:1039F0007FCC7EB47D007C58126E53753C017FCC29
:103A00007EB47D007C58127113EE54FEF530753192
:103A1000009004FFE04530FEA3E04531FF9004FF35
:103A2000EEF0A3EFF0EE54F7F53C8F3D753E0075D8
:103A30003F047540017FCC7EB47D00023ACBE52F78
:103A400064086003023AD0753C017FCC7EF4FD7CB3
:103A500058127113EE54FEF530753100900501E0F7
:103A60004530FEA3E04531FF900501EEF0A3EFF0F5
:103A7000EE4408F53C8F3D753E00753F04754001EE
:103A80007FCC7EF47D007C58126E53753C017FCC58
:103A90007EF47D007C58127113EE54FEF5307531C2
:103AA00000900501E04530FEA3E04531FF9005019F
:103AB000EEF0A3EFF0EE54F7F53C8F3D753E007548
:103AC0003F047540017FCC7EF47D007C58126E531C
:103AD00022C0E0C0F0C083C082C0D075D000C0005A
:103AE000C001C002C003C004C005C006C0077521E4
:103AF0000075220030C203023EDEE5C054F07003C0
:103B0000023C0724F07003023C2A24D07003023EDA
:103B10000224F07003023ED224306003023ED6C27B
:103B2000C590064FE5C2F0E0FF54FE64A0600302BA
:103B30003C02EF20E003023BFD900660E0FFC394EF
:103B4000805041EF94754011EF947F500C740C2F0E
:103B5000F582E43401F583E4F0900660E0FF240C84
:103B6000F582E43401F583E0F5C2EFB40806127B78
:103B70008B023BFD900660E064096003023BFD128E
:103B80007A4E807990018BE0FFB4010D900660E0E1
:103B9000249DF582E43401805FEFB4020D9006604D
:103BA000E0241FF582E43402804E90018BE0FFB4E4
:103BB000100D900660E02482F582E434FF8039EF36
:103BC000B4112A900660E0FF2402F582E43400F587
:103BD00083E0F5C2EFC394874023900660E0FFD3F3
:103BE00094985019EF2480FF12676E801090066041
:103BF000E0240CF582E43401F583E0F5C2D2C10281
:103C00003EE4C2C1023EE490065FE02462F582E435
:103C10003406F583E5C2F0900662E0900660F0900D
:103C2000065FE004F0D2C1023EE4C2C490065FE049
:103C3000FFC394025003023DFA90065D7401F0EF59
:103C400014900661F0900660E0647F6003023CF827
:103C500090065FE064026003023CF8900663E09027
:103C6000018BF070147B017A01798CF53475358005
:103C70007F807EE81275C2806E90018BE0B40115E2
:103C8000788C7C017D017B017A02791D7E007F802A
:103C9000122156805290018BE0B40215788C7C0181
:103CA0007D017B017A02799F7E007F801221568000
:103CB0003690018BE0B41015788C7C017D017B017E
:103CC0007A0079027E007F80122156801A90018B43
:103CD000E0B4111B788C7C017D017B017A00798234
:103CE0007E007F80122156900652E4F0023DFA9049
:103CF00006527401F0023DFA900660E0FFC3947A28
:103D0000400FEFD3947D50099006527405F0023DA8
:103D1000FA900661E0FF900660E0FD2FFFE433FEBD
:103D2000D3EF9400EE648094814005EDF404A3F099
:103D3000900650E0C394014021900661E0FF7E00B0
:103D4000900660E0240CF9E43401A801FC7D017BBD
:103D5000017A067963122156804F900660E0FFB425
:103D60001A028018900660E0FFB41F08900663E016
:103D700054018028900660E0FFB42006900663E0BE
:103D8000801A900660E0FFB42106900663E0800C84
:103D9000900660E0FFB42211900663E0FE740C2FE1
:103DA000F582E43401F583EEF090018BE06410704D
:103DB00043900660E0FFD3947F403FA3E0F5827517
:103DC0008300740C2FF9E43401A801FC7D017B0110
:103DD0007A0679637E00AF8212215690065C7401E8
:103DE000F078027C00FDFB7A01798C7E007F8012E6
:103DF000215680069006527407F090065FE4F002A8
:103E00003EE420C103023EE4900660E004F0E0FFDF
:103E1000C394805042EF94754011EF947F500C741E
:103E20000C2FF582E43401F583E4F0900660E0FFA6
:103E3000240CF582E43401F583E0F5C2EFB4080602
:103E4000127B8B023EE4900660E064096003023E50
:103E5000E4127A4E023EE490018BE0FFB4010D9033
:103E60000660E0249DF582E43401805FEFB4020D2A
:103E7000900660E0241FF582E43402804E90018BAE
:103E8000E0FFB4100D900660E02482F582E434FF78
:103E90008039EFB4112A900660E0FF2402F582E435
:103EA0003400F583E0F5C2EFC39487403790066095
:103EB000E0FFD39498502DEF2480FF12676E80248A
:103EC000900660E0240CF582E43401F583E0F5C24D
:103ED0008012C2C4800E53C17F43C1808000C2C51E
:103EE000C2C4C2C1C2C0D007D006D005D004D0031E
:103EF000D002D001D000D0D0D082D083D0F0D0E09A
:103F0000327B04E4FD7F1C127758900763EFF07B4F
:103F1000047D017F1C127758900764EFF07B047DCD
:103F2000177F1C127758900765EFF07B047D187F90
:103F30001C127758900766EFF07B047D1A7F1C12E5
:103F40007758900767EFF07B047D037F1C1277584A
:103F500090076FEFF07B047D057F1C127758900768
:103F600071EFF07B047D107F1C127758900772EF81
:103F7000F07B047D167F1C127758900773EFF07B5F
:103F8000047D197F1C127758900774EFF07B047D35
:103F90001B7F1C127758900775EFF07B047D1C7F08
:103FA0001C127758900776EFF07B047D1D7F1C1262
:103FB0007758900777EFF07B047D217F1C127758AC
:103FC000900779EFF07B047D227F1C1277589007D1
:103FD0007AEFF07B047D257F1C12775890077BEFEA
:103FE000F07B047D267F1C12775890077CEFF07BD6
:103FF000047D277F1C12775890077DEFF07B047DAE
:10400000287F1C12775890077EEFF07B047D407F5D
:104010001C127758900780EFF07B047D417F1C12C3
:104020007758900781EFF07B047D427F1C12775810
:10403000900782EFF07B047D437F1C127758900736
:1040400083EFF07B047D447F1C127758900784EF48
:10405000F07B047D457F1C127758900785EFF07B3D
:10406000047D467F1C127758900786EFF07B047D15
:10407000477F1C127758900787EFF07B047D487FBD
:104080001C127758900788EFF07B047D497F1C1243
:104090007758900789EFF07B047D4A7F1C12775890
:1040A00090078AEFF07B047D4B7F1C1277589007B6
:1040B0008BEFF07B047D4C7F1C12775890078CEFC0
:1040C000F07B047D4D7F1C12775890078DEFF07BBD
:1040D000047D4F7F1C12775890078EEFF07B047D94
:1040E000507F1C12775890078FEFF07B047D517F33
:1040F0001C127758900790EFF07B047D527F1C12C2
:104100007758900791EFF07B047D5E7F1C12775803
:10411000900793EFF07B047D5F7F1C127758900728
:1041200094EFF07B047D607F1C127758900795EF29
:10413000F07B047D627F1C127758900796EFF07B2E
:10414000047D917F1C127758900798EFF07B047DD7
:10415000927F1C127758900799EFF0227B05E4FDBF
:104160007F1C1277589007E3EFF07B057D017F1CE1
:104170001277589007E4EFF07B057D177F1C1277CC
:10418000589007E5EFF07B057D187F1C127758905B
:1041900007E6EFF07B057D1A7F1C1277589007E742
:1041A000EFF07B057D037F1C1277589007EFEFF04F
:1041B0007B057D057F1C1277589007F1EFF07B059A
:1041C0007D107F1C1277589007F2EFF07B057D166B
:1041D0007F1C1277589007F3EFF07B057D197F1C49
:1041E0001277589007F4EFF07B057D1B7F1C127748
:1041F000589007F5EFF07B057D1C7F1C12775890D7
:1042000007F6EFF07B057D1D7F1C1277589007F7AE
:10421000EFF07B057D217F1C1277589007F9EFF0B6
:104220007B057D227F1C1277589007FAEFF07B0503
:104230007D257F1C1277589007FBEFF07B057D26CC
:104240007F1C1277589007FCEFF07B057D277F1CC1
:104250001277589007FDEFF07B057D287F1C1277C1
:10426000589007FEEFF07B057D407F1C1277589039
:104270000800EFF07B057D417F1C12775890080104
:10428000EFF07B057D427F1C127758900802EFF01B
:104290007B057D437F1C127758900803EFF07B0568
:1042A0007D447F1C127758900804EFF07B057D4514
:1042B0007F1C127758900805EFF07B057D467F1C28
:1042C000127758900806EFF07B057D477F1C127728
:1042D00058900807EFF07B057D487F1C12775890B7
:1042E0000808EFF07B057D497F1C1277589008097C
:1042F000EFF07B057D4A7F1C12775890080AEFF09B
:104300007B057D4B7F1C12775890080BEFF07B05E7
:104310007D4C7F1C12775890080CEFF07B057D4D8B
:104320007F1C12775890080DEFF07B057D4F7F1CA6
:1043300012775890080EEFF07B057D507F1C1277A6
:104340005890080FEFF07B057D517F1C1277589035
:104350000810EFF07B057D527F1C127758900811F2
:10436000EFF07B057D5E7F1C127758900813EFF00D
:104370007B057D5F7F1C127758900814EFF07B055A
:104380007D607F1C127758900815EFF07B057D62E9
:104390007F1C127758900816EFF07B057D917F1CEB
:1043A000127758900818EFF07B057D927F1C1277EA
:1043B00058900819EFF0228F2FE52F6401703CF51B
:1043C0003C7FD07E34FD7C58127113EE54FEF530E4
:1043D000753100900453E04530FEA3E04531FF9075
:1043E0000453EEF0A3EFF08E3CF53D753E00753FB3
:1043F00004E4F5407FD07E340244BDE52F640270B2
:104400003CF53C7FD07E74FD7C58127113EE54FE57
:10441000F530753100900455E04530FEA3E045319C
:10442000FF900455EEF0A3EFF08E3CF53D753E0095
:10443000753F04E4F5407FD07E740244BDE52F64EF
:1044400003703BF53C7FD07EB4FD7C58127113EEB7
:1044500054FEF530753100900457E04530FEA3E07E
:104460004531FF900457EEF0A3EFF08E3CF53D751B
:104470003E00753F04E4F5407FD07EB4803FE52FD9
:104480006404703DF53C7FD07EF4FD7C58127113BE
:10449000EE54FEF530753100900459E04530FEA32E
:1044A000E04531FF900459EEF0A3EFF08E3CF53D6E
:1044B000753E00753F04E4F5407FD07EF4FD024573
:1044C000D1E52F6405703F753C017FD07E34FD7CC3
:1044D00058127113EE54FEF5307531009004D3E09C
:1044E0004530FEA3E04531FF9004D3EEF0A3EFF09A
:1044F0008E3CF53D753E00753F047540017FD07ED2
:10450000347D000245D1E52F6406703F753C017F84
:10451000D07E74FD7C58127113EE54FEF530753167
:10452000009004D5E04530FEA3E04531FF9004D56E
:10453000EEF0A3EFF08E3CF53D753E00753F04753F
:1045400040017FD07E747D000245D1E52F64077065
:104550003E753C017FD07EB4FD7C58127113EE5441
:10456000FEF5307531009004D7E04530FEA3E045FC
:1045700031FF9004D7EEF0A3EFF08E3CF53D753E91
:1045800000753F047540017FD07EB47D008042E518
:104590002FB40842753C017FD07EF47D007C581218
:1045A0007113EE54FEF5307531009004D9E04530BA
:1045B000FEA3E04531FF9004D9EEF0A3EFF08E3C6E
:1045C000F53D753E00753F047540017FD07EF47D5A
:1045D000007C58126E53228F2FE52F6401703CF53A
:1045E0003C7FD47E34FD7C58127113EE54FEF530BE
:1045F00075310090045BE04530FEA3E04531FF904B
:10460000045BEEF0A3EFF08E3CF53D753E00753F88
:1046100004E4F5407FD47E340246DDE52F64027069
:104620003CF53C7FD47E74FD7C58127113EE54FE31
:10463000F53075310090045DE04530FEA3E0453172
:10464000FF90045DEEF0A3EFF08E3CF53D753E006B
:10465000753F04E4F5407FD47E740246DDE52F64A7
:1046600003703BF53C7FD47EB4FD7C58127113EE91
:1046700054FEF53075310090045FE04530FEA3E054
:104680004531FF90045FEEF0A3EFF08E3CF53D75F1
:104690003E00753F04E4F5407FD47EB4803FE52FB3
:1046A0006404703DF53C7FD47EF4FD7C5812711398
:1046B000EE54FEF530753100900461E04530FEA304
:1046C000E04531FF900461EEF0A3EFF08E3CF53D44
:1046D000753E00753F04E4F5407FD47EF4FD02474B
:1046E000F1E52F6405703F753C017FD47E34FD7C7D
:1046F00058127113EE54FEF5307531009004DBE072
:104700004530FEA3E04531FF9004DBEEF0A3EFF06F
:104710008E3CF53D753E00753F047540017FD47EAB
:10472000347D000247F1E52F6406703F753C017F40
:10473000D47E74FD7C58127113EE54FEF530753141
:10474000009004DDE04530FEA3E04531FF9004DD3C
:10475000EEF0A3EFF08E3CF53D753E00753F04751D
:1047600040017FD47E747D000247F1E52F6407701D
:104770003E753C017FD47EB4FD7C58127113EE541B
:10478000FEF5307531009004DFE04530FEA3E045D2
:1047900031FF9004DFEEF0A3EFF08E3CF53D753E67
:1047A00000753F047540017FD47EB47D008042E5F2
:1047B0002FB40842753C017FD47EF47D007C5812F2
:1047C0007113EE54FEF5307531009004E1E0453090
:1047D000FEA3E04531FF9004E1EEF0A3EFF08E3C44
:1047E000F53D753E00753F047540017FD47EF47D34
:1047F000007C58126E53228F2FE52F6401703CF518
:104800003C7FD87E34FD7C58127113EE54FEF53097
:10481000753100900463E04530FEA3E04531FF9020
:104820000463EEF0A3EFF08E3CF53D753E00753F5E
:1048300004E4F5407FD87E340248FDE52F64027021
:104840003CF53C7FD87E74FD7C58127113EE54FE0B
:10485000F530753100900465E04530FEA3E0453148
:10486000FF900465EEF0A3EFF08E3CF53D753E0041
:10487000753F04E4F5407FD87E740248FDE52F645F
:1048800003703BF53C7FD87EB4FD7C58127113EE6B
:1048900054FEF530753100900467E04530FEA3E02A
:1048A0004531FF900467EEF0A3EFF08E3CF53D75C7
:1048B0003E00753F04E4F5407FD87EB4803FE52F8D
:1048C0006404703DF53C7FD87EF4FD7C5812711372
:1048D000EE54FEF530753100900469E04530FEA3DA
:1048E000E04531FF900469EEF0A3EFF08E3CF53D1A
:1048F000753E00753F04E4F5407FD87EF4FD024A22
:1049000011E52F6405703F753C017FD87E34FD7C36
:1049100058127113EE54FEF5307531009004E3E047
:104920004530FEA3E04531FF9004E3EEF0A3EFF045
:104930008E3CF53D753E00753F047540017FD87E85
:10494000347D00024A11E52F6406703F753C017FFB
:10495000D87E74FD7C58127113EE54FEF53075311B
:10496000009004E5E04530FEA3E04531FF9004E50A
:10497000EEF0A3EFF08E3CF53D753E00753F0475FB
:1049800040017FD87E747D00024A11E52F640770D4
:104990003E753C017FD87EB4FD7C58127113EE54F5
:1049A000FEF5307531009004E7E04530FEA3E045A8
:1049B00031FF9004E7EEF0A3EFF08E3CF53D753E3D
:1049C00000753F047540017FD87EB47D008042E5CC
:1049D0002FB40842753C017FD87EF47D007C5812CC
:1049E0007113EE54FEF5307531009004E9E0453066
:1049F000FEA3E04531FF9004E9EEF0A3EFF08E3C1A
:104A0000F53D753E00753F047540017FD87EF47D0D
:104A1000007C58126E53228F2FE52F6401703CF5F5
:104A20003C7FDC7E34FD7C58127113EE54FEF53071
:104A300075310090046BE04530FEA3E04531FF90F6
:104A4000046BEEF0A3EFF08E3CF53D753E00753F34
:104A500004E4F5407FDC7E34024B1DE52F640270D8
:104A60003CF53C7FDC7E74FD7C58127113EE54FEE5
:104A7000F53075310090046DE04530FEA3E045311E
:104A8000FF90046DEEF0A3EFF08E3CF53D753E0017
:104A9000753F04E4F5407FDC7E74024B1DE52F6416
:104AA00003703BF53C7FDC7EB4FD7C58127113EE45
:104AB00054FEF53075310090046FE04530FEA3E000
:104AC0004531FF90046FEEF0A3EFF08E3CF53D759D
:104AD0003E00753F04E4F5407FDC7EB4803FE52F67
:104AE0006404703DF53C7FDC7EF4FD7C581271134C
:104AF000EE54FEF530753100900471E04530FEA3B0
:104B0000E04531FF900471EEF0A3EFF08E3CF53DEF
:104B1000753E00753F04E4F5407FDC7EF4FD024CF9
:104B200031E52F6405703F753C017FDC7E34FD7CF0
:104B300058127113EE54FEF5307531009004EBE01D
:104B40004530FEA3E04531FF9004EBEEF0A3EFF01B
:104B50008E3CF53D753E00753F047540017FDC7E5F
:104B6000347D00024C31E52F6406703F753C017FB7
:104B7000DC7E74FD7C58127113EE54FEF5307531F5
:104B8000009004EDE04530FEA3E04531FF9004EDD8
:104B9000EEF0A3EFF08E3CF53D753E00753F0475D9
:104BA00040017FDC7E747D00024C31E52F6407708C
:104BB0003E753C017FDC7EB4FD7C58127113EE54CF
:104BC000FEF5307531009004EFE04530FEA3E0457E
:104BD00031FF9004EFEEF0A3EFF08E3CF53D753E13
:104BE00000753F047540017FDC7EB47D008042E5A6
:104BF0002FB40842753C017FDC7EF47D007C5812A6
:104C00007113EE54FEF5307531009004F1E045303B
:104C1000FEA3E04531FF9004F1EEF0A3EFF08E3CEF
:104C2000F53D753E00753F047540017FDC7EF47DE7
:104C3000007C58126E53228F2FE52F6401703CF5D3
:104C40003C7FE07E34FD7C58127113EE54FEF5304B
:104C5000753100900473E04530FEA3E04531FF90CC
:104C60000473EEF0A3EFF08E3CF53D753E00753F0A
:104C700004E4F5407FE07E34024D3DE52F64027090
:104C80003CF53C7FE07E74FD7C58127113EE54FEBF
:104C9000F530753100900475E04530FEA3E04531F4
:104CA000FF900475EEF0A3EFF08E3CF53D753E00ED
:104CB000753F04E4F5407FE07E74024D3DE52F64CE
:104CC00003703BF53C7FE07EB4FD7C58127113EE1F
:104CD00054FEF530753100900477E04530FEA3E0D6
:104CE0004531FF900477EEF0A3EFF08E3CF53D7573
:104CF0003E00753F04E4F5407FE07EB4803FE52F41
:104D00006404703DF53C7FE07EF4FD7C5812711325
:104D1000EE54FEF530753100900479E04530FEA385
:104D2000E04531FF900479EEF0A3EFF08E3CF53DC5
:104D3000753E00753F04E4F5407FE07EF4FD024ED1
:104D400051E52F6405703F753C017FE07E34FD7CAA
:104D500058127113EE54FEF5307531009004F3E0F3
:104D60004530FEA3E04531FF9004F3EEF0A3EFF0F1
:104D70008E3CF53D753E00753F047540017FE07E39
:104D8000347D00024E51E52F6406703F753C017F73
:104D9000E07E74FD7C58127113EE54FEF5307531CF
:104DA000009004F5E04530FEA3E04531FF9004F5A6
:104DB000EEF0A3EFF08E3CF53D753E00753F0475B7
:104DC00040017FE07E747D00024E51E52F64077044
:104DD0003E753C017FE07EB4FD7C58127113EE54A9
:104DE000FEF5307531009004F7E04530FEA3E04554
:104DF00031FF9004F7EEF0A3EFF08E3CF53D753EE9
:104E000000753F047540017FE07EB47D008042E57F
:104E10002FB40842753C017FE07EF47D007C58127F
:104E20007113EE54FEF5307531009004F9E0453011
:104E3000FEA3E04531FF9004F9EEF0A3EFF08E3CC5
:104E4000F53D753E00753F047540017FE07EF47DC1
:104E5000007C58126E53228F2FE52F64017033F5BA
:104E60003C7FD412710DEE54FEF530753100900583
:104E700057E04530FEA3E04531FF900557EEF0A323
:104E8000EFF08E3CF53D753E00753F04E4F54002C1
:104E90004F86E52F64027039F53C7FD47E447D1344
:104EA0007C50127113EE54FEF530753100900559A7
:104EB000E04530FEA3E04531FF900559EEF0A3EF49
:104EC000F08E3CF53D753E00753F04E4F540024F21
:104ED000CCE52F64037039F53C7FD47E447D237C80
:104EE00050127113EE54FEF53075310090055BE001
:104EF0004530FEA3E04531FF90055BEEF0A3EFF0F7
:104F00008E3CF53D753E00753F04E4F540025012BD
:104F1000E52F64047039F53C7FD47E447D337C50AA
:104F2000127113EE54FEF53075310090055DE045C9
:104F300030FEA3E04531FF90055DEEF0A3EFF08E6B
:104F40003CF53D753E00753F04E4F540025056E5E2
:104F50002F6405703A753C017FD412710DEE54FE3A
:104F6000F5307531009005D7E04530FEA3E04531BE
:104F7000FF9005D7EEF0A3EFF08E3CF53D753E00B7
:104F8000753F047540017FD47E447D0302505CE58B
:104F90002F64067040753C017FD47E447D137C50A5
:104FA000127113EE54FEF5307531009005D9E045CD
:104FB00030FEA3E04531FF9005D9EEF0A3EFF08E6F
:104FC0003CF53D753E00753F047540017FD47E443D
:104FD0007D1302505CE52F6407703F753C017FD460
:104FE0007E447D237C50127113EE54FEF5307531F2
:104FF000009005DBE04530FEA3E04531FF9005DB86
:10500000EEF0A3EFF08E3CF53D753E00753F047564
:1050100040017FD47E447D238042E52FB408427551
:105020003C017FD47E447D337C50127113EE54FEDC
:10503000F5307531009005DDE04530FEA3E04531E7
:10504000FF9005DDEEF0A3EFF08E3CF53D753E00E0
:10505000753F047540017FD47E447D337C50126ED1
:1050600053228F2FE52F64017033F53C7FD81271E6
:105070000DEE54FEF53075310090055FE04530FED1
:10508000A3E04531FF90055FEEF0A3EFF08E3CF515
:105090003D753E00753F04E4F540025191E52F64F3
:1050A000027039F53C7FD87E447D137C5012711319
:1050B000EE54FEF530753100900561E04530FEA3F9
:1050C000E04531FF900561EEF0A3EFF08E3CF53D39
:1050D000753E00753F04E4F5400251D7E52F6403A7
:1050E0007039F53C7FD87E447D237C50127113EEDD
:1050F00054FEF530753100900563E04530FEA3E0C5
:105100004531FF900563EEF0A3EFF08E3CF53D7561
:105110003E00753F04E4F54002521DE52F64047023
:1051200039F53C7FD87E447D337C50127113EE54A8
:10513000FEF530753100900565E04530FEA3E04591
:1051400031FF900565EEF0A3EFF08E3CF53D753E26
:1051500000753F04E4F540025261E52F6405703AA2
:10516000753C017FD812710DEE54FEF5307531009B
:105170009005DFE04530FEA3E04531FF9005DFEE0E
:10518000F0A3EFF08E3CF53D753E00753F04754091
:10519000017FD87E447D03025267E52F640670408C
:1051A000753C017FD87E447D137C50127113EE5400
:1051B000FEF5307531009005E1E04530FEA3E04595
:1051C00031FF9005E1EEF0A3EFF08E3CF53D753E2A
:1051D00000753F047540017FD87E447D13025267FD
:1051E000E52F6407703F753C017FD87E447D237CAA
:1051F00050127113EE54FEF5307531009005E3E066
:105200004530FEA3E04531FF9005E3EEF0A3EFF05B
:105210008E3CF53D753E00753F047540017FD87E9C
:10522000447D238042E52FB40842753C017FD87E3F
:10523000447D337C50127113EE54FEF5307531000D
:105240009005E5E04530FEA3E04531FF9005E5EE31
:10525000F0A3EFF08E3CF53D753E00753F047540C0
:10526000017FD87E447D337C50126E53228F2FE510
:105270002F64017033F53C7FDC12710DEE54FEF5A6
:1052800030753100900567E04530FEA3E04531FF01
:10529000900567EEF0A3EFF08E3CF53D753E00758E
:1052A0003F04E4F54002539CE52F64027039F53C5D
:1052B0007FDC7E447D137C50127113EE54FEF5307A
:1052C000753100900569E04530FEA3E04531FF905F
:1052D0000569EEF0A3EFF08E3CF53D753E00753F9D
:1052E00004E4F5400253E2E52F64037039F53C7F96
:1052F000DC7E447D237C50127113EE54FEF5307534
:10530000310090056BE04530FEA3E04531FF90058C
:105310006BEEF0A3EFF08E3CF53D753E00753F045B
:10532000E4F540025428E52F64047039F53C7FDC35
:105330007E447D337C50127113EE54FEF53075318E
:105340000090056DE04530FEA3E04531FF90056D0E
:10535000EEF0A3EFF08E3CF53D753E00753F04E4A2
:10536000F54002546CE52F6405703A753C017FDC12
:1053700012710DEE54FEF5307531009005E7E045F1
:1053800030FEA3E04531FF9005E7EEF0A3EFF08E8D
:105390003CF53D753E00753F047540017FDC7E4461
:1053A0007D03025472E52F64067040753C017FDC7A
:1053B0007E447D137C50127113EE54FEF53075312E
:1053C000009005E9E04530FEA3E04531FF9005E996
:1053D000EEF0A3EFF08E3CF53D753E00753F047591
:1053E00040017FDC7E447D13025472E52F64077018
:1053F0003F753C017FDC7E447D237C50127113EEAF
:1054000054FEF5307531009005EBE04530FEA3E029
:105410004531FF9005EBEEF0A3EFF08E3CF53D75C6
:105420003E00753F047540017FDC7E447D23804251
:10543000E52FB40842753C017FDC7E447D337C500F
:10544000127113EE54FEF5307531009005EDE04514
:1054500030FEA3E04531FF9005EDEEF0A3EFF08EB6
:105460003CF53D753E00753F047540017FDC7E4490
:105470007D337C50126E53228F2FE52F64017033E1
:10548000F53C7FE012710DEE54FEF5307531009061
:10549000056FE04530FEA3E04531FF90056FEEF06B
:1054A000A3EFF08E3CF53D753E00753F04E4F540FA
:1054B0000255A7E52F64027039F53C7FE07E447DFC
:1054C000137C50127113EE54FEF5307531009005C7
:1054D00071E04530FEA3E04531FF900571EEF0A389
:1054E000EFF08E3CF53D753E00753F04E4F540025B
:1054F00055EDE52F64037039F53C7FE07E447D2354
:105500007C50127113EE54FEF53075310090057326
:10551000E04530FEA3E04531FF900573EEF0A3EFC8
:10552000F08E3CF53D753E00753F04E4F5400256B3
:1055300033E52F64047039F53C7FE07E447D337C95
:1055400050127113EE54FEF530753100900575E080
:105550004530FEA3E04531FF900575EEF0A3EFF076
:105560008E3CF53D753E00753F04E4F540025677EC
:10557000E52F6405703A753C017FE012710DEE5421
:10558000FEF5307531009005EFE04530FEA3E045B3
:1055900031FF9005EFEEF0A3EFF08E3CF53D753E48
:1055A00000753F047540017FE07E447D0302567D17
:1055B000E52F64067040753C017FE07E447D137CDE
:1055C00050127113EE54FEF5307531009005F1E084
:1055D0004530FEA3E04531FF9005F1EEF0A3EFF07A
:1055E0008E3CF53D753E00753F047540017FE07EC1
:1055F000447D1302567DE52F6407703F753C017FA3
:10560000E07E447D237C50127113EE54FEF530751C
:1056100031009005F3E04530FEA3E04531FF9005F1
:10562000F3EEF0A3EFF08E3CF53D753E00753F04C0
:105630007540017FE07E447D238042E52FB408421F
:10564000753C017FE07E447D337C50127113EE5433
:10565000FEF5307531009005F5E04530FEA3E045DC
:1056600031FF9005F5EEF0A3EFF08E3CF53D753E71
:1056700000753F047540017FE07E447D337C50120D
:105680006E53228F2FE52F64017033F53C7FD012CB
:10569000710DEE54FEF53075310090054FE0453048
:1056A000FEA3E04531FF90054FEEF0A3EFF08E3CF6
:1056B000F53D753E00753F04E4F5400257AEE52F19
:1056C00064027035F53C7FD07D1312710FEE54FEED
:1056D000F530753100900551E04530FEA3E04531CD
:1056E000FF900551EEF0A3EFF08E3CF53D753E00C6
:1056F000753F04E4F5400257F4E52F64037039F573
:105700003C7FD07E447D237C50127113EE54FEF515
:1057100030753100900553E04530FEA3E04531FF80
:10572000900553EEF0A3EFF08E3CF53D753E00750D
:105730003F04E4F54002583AE52F64047039F53C23
:105740007FD07E447D337C50127113EE54FEF530D1
:10575000753100900555E04530FEA3E04531FF90DE
:105760000555EEF0A3EFF08E3CF53D753E00753F1C
:1057700004E4F54002587EE52F6405703A753C015B
:105780007FD012710DEE54FEF5307531009005CFCB
:10579000E04530FEA3E04531FF9005CFEEF0A3EFEA
:1057A000F08E3CF53D753E00753F047540017FD09D
:1057B0007E447D03025884E52F64067040753C01E9
:1057C0007FD07E447D137C50127113EE54FEF53071
:1057D0007531009005D1E04530FEA3E04531FF90E2
:1057E00005D1EEF0A3EFF08E3CF53D753E00753F20
:1057F000047540017FD07E447D13025884E52F64F8
:1058000007703F753C017FD07E447D237C50127130
:1058100013EE54FEF5307531009005D3E04530FEAF
:10582000A3E04531FF9005D3EEF0A3EFF08E3CF5F9
:105830003D753E00753F047540017FD07E447D2359
:105840008042E52FB40842753C017FD07E447D3311
:105850007C50127113EE54FEF5307531009005D571
:10586000E04530FEA3E04531FF9005D5EEF0A3EF13
:10587000F08E3CF53D753E00753F047540017FD0CC
:105880007E447D337C50126E532290076FE0FB758F
:105890004D047D037F1C127798900771E0FB754DD6
:1058A000047D057F1C127798900772E0FB754D040C
:1058B0007D107F1C127798900773E0FB754D047D77
:1058C000167F1C127798900774E0FB754D047D19C4
:1058D0007F1C127798900775E0FB754D047D1B7F48
:1058E0001C127798900776E0FB754D047D1C7F1C99
:1058F000127798900777E0FB754D047D1D7F1C1291
:105900007798900779E0FB754D047D217F1C127715
:105910009890077AE0FB754D047D227F1C127798E2
:1059200090077BE0FB754D047D257F1C12779890D6
:10593000077CE0FB754D047D267F1C12779890074D
:105940007DE0FB754D047D277F1C12779890077EC4
:10595000E0FB754D047D287F1C127798900780E04E
:10596000FB754D047D407F1C127798900781E0FB0A
:10597000754D047D417F1C12779890078AE0FB7576
:105980004D047D4A7F1C12779890078BE0FB754D84
:10599000047D4B7F1C12779890078CE0FB754D04BB
:1059A0007D4C7F1C12779890078DE0FB754D047D30
:1059B0004D7F1C12779890078EE0FB754D047D4F4C
:1059C0007F1C12779890078FE0FB754D047D507F08
:1059D0001C127798900790E0FB754D047D517F1C59
:1059E000127798900791E0FB754D047D527F1C1251
:1059F0007798900793E0FB754D047D5E7F1C1277CE
:105A000098900794E0FB754D047D5F7F1C1277989A
:105A1000900782E0FB754D047D427F1C12779890C1
:105A20000783E0FB754D047D437F1C127798900738
:105A300084E0FB754D047D447F1C127798900785A8
:105A4000E0FB754D047D457F1C127798900786E03A
:105A5000FB754D047D467F1C127798900787E0FB0D
:105A6000754D047D477F1C127798900788E0FB7581
:105A70004D047D487F1C127798900789E0FB754D97
:105A8000047D497F1C0277989007EFE0FB754D0578
:105A90007D037F1C1277989007F1E0FB754D057D23
:105AA000057F1C1277989007F2E0FB754D057D107D
:105AB0007F1C1277989007F3E0FB754D057D167FEC
:105AC0001C1277989007F4E0FB754D057D197F1C3B
:105AD0001277989007F5E0FB754D057D1B7F1C1232
:105AE00077989007F6E0FB754D057D1C7F1C1277BB
:105AF000989007F7E0FB754D057D1D7F1C12779888
:105B00009007F9E0FB754D057D217F1C1277989079
:105B100007FAE0FB754D057D227F1C1277989007F0
:105B2000FBE0FB754D057D257F1C1277989007FCE7
:105B3000E0FB754D057D267F1C1277989007FDE0F0
:105B4000FB754D057D277F1C1277989007FEE0FBC3
:105B5000754D057D287F1C127798900800E0FB7535
:105B60004D057D407F1C127798900801E0FB754D34
:105B7000057D417F1C12779890080AE0FB754D0562
:105B80007D4A7F1C12779890080BE0FB754D057DD0
:105B90004B7F1C12779890080CE0FB754D057D4CEF
:105BA0007F1C12779890080DE0FB754D057D4D7FA9
:105BB0001C12779890080EE0FB754D057D4F7F1CF9
:105BC00012779890080FE0FB754D057D507F1C12F1
:105BD0007798900810E0FB754D057D517F1C12777A
:105BE00098900811E0FB754D057D527F1C12779847
:105BF000900813E0FB754D057D5E7F1C1277989031
:105C00000814E0FB754D057D5F7F1C1277989008A6
:105C100002E0FB754D057D427F1C127798900803CA
:105C2000E0FB754D057D437F1C127798900804E0DA
:105C3000FB754D057D447F1C127798900805E0FBAD
:105C4000754D057D457F1C127798900806E0FB7521
:105C50004D057D467F1C127798900807E0FB754D37
:105C6000057D477F1C127798900808E0FB754D056D
:105C70007D487F1C127798900809E0FB754D057DE3
:105C8000497F1C0277988F2EE52E64017036F53C13
:105C90007FCC7E35FD7C581271138E2FEF54FEF5AC
:105CA00030900483E0452FF531A3E04530F532858F
:105CB000313CF53D753E00753F04E4F5407FCC7EF8
:105CC00035025D73E52E64027035F53C7FCC7E7540
:105CD000FD7C581271138E2FEF54FEF53090048521
:105CE000E0452FF531A3E04530F53285313CF53DF7
:105CF000753E00753F04E4F5407FCC7E758074E509
:105D00002E64037035F53C7FCC7EB5FD7C58127156
:105D1000138E2FEF54FEF530900487E0452FF531B8
:105D2000A3E04530F53285313CF53D753E00753FC9
:105D300004E4F5407FCC7EB58039E52E64047037ED
:105D4000F53C7FCC7EF5FD7C581271138E2FEF54FD
:105D5000FEF530900489E0452FF531A3E04530F59C
:105D60003285313CF53D753E00753F04E4F5407FDA
:105D7000CC7EF5FD025E6EE52E64057039753C0142
:105D80007FCC7E35FD7C581271138E2FEF54FEF5BB
:105D900030900503E0452FF531A3E04530F532851D
:105DA000313CF53D753E00753F047540017FCC7E6A
:105DB000357D00025E6EE52E64067038753C017F0D
:105DC000CC7E75FD7C581271138E2FEF54FEF5308A
:105DD000900505E0452FF531A3E04530F5328531DA
:105DE0003CF53D753E00753F047540017FCC7E75E6
:105DF0007D00807AE52E64077038753C017FCC7E8B
:105E0000B5FD7C581271138E2FEF54FEF5309005BE
:105E100007E0452FF531A3E04530F53285313CF5FB
:105E20003D753E00753F047540017FCC7EB57D0019
:105E3000803CE52EB4083C753C017FCC7EF57D00AE
:105E40007C581271138E2FEF54FEF530900509E047
:105E5000452FF531A3E04530F53285313CF53D75F0
:105E60003E00753F047540017FCC7EF57D007C5877
:105E7000126E53228F2EE52E64017033F53C7FCCD9
:105E80007E457D037C501271138E2FEF54FEF5304A
:105E900090057FE0452FF531A3E04530F53285319F
:105EA0003CF53D753E00753F04E4F540025F91E529
:105EB0002E64027033F53C7FCC7E457D137C5012FE
:105EC00071138E2FEF54FEF530900581E0452FF5CC
:105ED00031A3E04530F53285313CF53D753E007526
:105EE0003F04E4F540025FD1E52E64037033F53CD6
:105EF0007FCC7E457D237C501271138E2FEF54FE94
:105F0000F530900583E0452FF531A3E04530F532BB
:105F100085313CF53D753E00753F04E4F540026077
:105F200010E52E64047033F53C7FCC7E457D337CD8
:105F3000501271138E2FEF54FEF530900585E04519
:105F40002FF531A3E04530F53285313CF53D753E06
:105F500000753F04E4F54002604EE52E6405703A9A
:105F6000753C017FCC7E457D037C501271138E2FD2
:105F7000EF54FEF5309005FFE0452FF531A3E045E5
:105F800030F53285313CF53D753E00753F04754076
:105F9000017FCC7E457D03026054E52E6406703996
:105FA000753C017FCC7E457D137C501271138E2F82
:105FB000EF54FEF530900601E0452FF531A3E045A2
:105FC00030F53285313CF53D753E00753F04754036
:105FD000017FCC7E457D13807BE52E64077039758B
:105FE0003C017FCC7E457D237C501271138E2FEFB8
:105FF00054FEF530900603E0452FF531A3E045301F
:10600000F53285313CF53D753E00753F0475400124
:106010007FCC7E457D23803CE52EB4083C753C0159
:106020007FCC7E457D337C501271138E2FEF54FE52
:10603000F530900605E0452FF531A3E04530F53207
:1060400085313CF53D753E00753F047540017FCCC0
:106050007E457D337C50126E53228F2EE52E6401D7
:106060007033F53C7F8C7E457D037C501271138E1E
:106070002FEF54FEF530900587E0452FF531A3E072
:106080004530F53285313CF53D753E00753F04E401
:10609000F540026177E52E64027033F53C7F8C7E1B
:1060A000457D137C501271138E2FEF54FEF5309006
:1060B0000589E0452FF531A3E04530F53285313CC7
:1060C000F53D753E00753F04E4F5400261B7E52EED
:1060D00064037033F53C7F8C7E457D237C501271C8
:1060E000138E2FEF54FEF53090058BE0452FF531E0
:1060F000A3E04530F53285313CF53D753E00753FF6
:1061000004E4F5400261F6E52E64047033F53C7F4B
:106110008C7E457D337C501271138E2FEF54FEF52B
:106120003090058DE0452FF531A3E04530F53285FF
:10613000313CF53D753E00753F04E4F540026234A4
:10614000E52E6405703A753C017F8C7E457D037CAD
:10615000501271138E2FEF54FEF530900607E04574
:106160002FF531A3E04530F53285313CF53D753EE4
:1061700000753F047540017F8C7E457D0302623AC5
:10618000E52E64067039753C017F8C7E457D137C5D
:10619000501271138E2FEF54FEF530900609E04532
:1061A0002FF531A3E04530F53285313CF53D753EA4
:1061B00000753F047540017F8C7E457D13807BE533
:1061C0002E64077039753C017F8C7E457D237C50A1
:1061D0001271138E2FEF54FEF53090060BE0452F11
:1061E000F531A3E04530F53285313CF53D753E0093
:1061F000753F047540017F8C7E457D23803CE52EF4
:10620000B4083C753C017F8C7E457D337C50127117
:10621000138E2FEF54FEF53090060DE0452FF5312B
:10622000A3E04530F53285313CF53D753E00753FC4
:10623000047540017F8C7E457D337C50126E532265
:106240009000137410F0A3F0A3F0A3F0A3F0A3F058
:10625000A3F0A3F0E4A3F0900013E09000D0F0903E
:106260000014E09000D1F0900015E09000D2F09082
:106270000016E09000D3F0900017E09000D4F0906A
:106280000018E09000D5F0900019E09000D6F09052
:10629000001AE09000D7F090002274FFF09000DF29
:1062A000F0900023F09000E0F09000827411F0A3D1
:1062B000F0A3F0A3F0E4900002F0A3F0A3F09000AC
:1062C0001EF0A3F0A3F0A3F0900380E06401705DE2
:1062D000900378E0900024F0900379E0900025F09E
:1062E00090037AE0900026F090037BE0900027F086
:1062F00090037CE0900028F090037DE0900029F06E
:1063000090037EE090002AF090037FE090002BF055
:10631000900374E090002CF0900375E090002DF055
:10632000900376E090002EF0900377802EE49000AA
:1063300024F0A3F0A3F0A3F0A3F0A3F0A3F0A3F044
:10634000900370E090002CF0900371E090002DF02D
:10635000900372E090002EF0900373E090002FF015
:10636000900024E0900104F0900025E0900107F0F7
:10637000900026E0900109F0900027E090010BF0DA
:10638000900024E09000E1F0900025E09000E2F021
:10639000900026E09000E3F0900027E09000E4F009
:1063A000900028E0900103F0900029E0900106F0B1
:1063B00090002AE0900108F090002BE090010AF094
:1063C000900028E09000E5F0900029E09000E6F0D1
:1063D00090002AE09000E7F090002BE09000E8F0B9
:1063E00090002CE0900000F090002DE0900001F073
:1063F00090002EE0900102F090002FE0900105F057
:1064000090002CE09000E9F090002DE09000EAF080
:1064100090002EE09000EBF090002FE09000ECF068
:106420002290018BE0122260645382647184648F35
:106430008564AA8664C58764E08A64FE8B651B8CCC
:1064400065358E654F90658E9165709265A9B00037
:106450000065E7900650E0C3940150030265E7121F
:10646000749D788C7C017D017B017A0779630265DC
:1064700085900650E0C3940150030265E71274E76B
:10648000788C7C017D017B017A0779E30265859038
:106490000650E0D3940150030265E7788C7C017DBF
:1064A000017B017A0679E3026585900650E0C3948A
:1064B0000150030265E7788C7C017D017B017A0441
:1064C000794F026585900650E0C394015003026540
:1064D000E7788C7C017D017B017A05794F02658527
:1064E000900650E0C3940150030265E7127BF278F6
:1064F0008C7C017D017B017A0879630265859006B9
:1065000050E0C3940150030265E7127C09788C7C4B
:10651000017D017B017A0879E3806A900650E0C32F
:10652000940150030265E7788C7C017D017B017A40
:106530000479CF8050900650E0C394015003026567
:10654000E7788C7C017D017B017A0579CF803690DC
:106550000650E0D3940140349003997403F0A3747F
:1065600015F0788C7C017D017B017A03791F801501
:10657000900650E0D394014013788C7C017D017B20
:10658000017A03799F7E007F80022156804A90061F
:1065900050E0D3940140507B017A01798C7534002E
:1065A0007535807F007EEE802C900650E0D39401FC
:1065B0004026788C7C017D017B017A0679537E0030
:1065C0007F091221567B017A017995753400753562
:1065D000777F097EF60275C27E007F807DFF7B019A
:1065E0007A01798C122286228F2FE52FB4012AE4BA
:1065F000F53C7FA47E21FD7C581271138E308F31C3
:10660000E5304420F53C85313D753E00753F04E49E
:10661000F5407FA47E210266A1E52FB40229E4F5AE
:106620003C7FA47E61FD7C581271138E308F31E562
:10663000304420F53C85313D753E00753F04E4F55E
:10664000407FA47E61805AE52FB40329E4F53C7FA6
:10665000A47EA1FD7C581271138E308F31E5304439
:1066600020F53C85313D753E00753F04E4F5407FE3
:10667000A47EA1802CE52FB4042BE4F53C7FA47EFE
:10668000E1FD7C581271138E308F31E5304420F5D6
:106690003C85313D753E00753F04E4F5407FA47EA6
:1066A000E1FD026768E52FB4052D753C017FA47EEE
:1066B000217D007C581271138E308F31E5304420DB
:1066C000F53C85313D753E00753F047540017FA462
:1066D0007E217D00026768E52FB4062C753C017FA2
:1066E000A47E617D007C581271138E308F31E530AD
:1066F0004420F53C85313D753E00753F04754001F1
:106700007FA47E617D008060E52FB4072C753C017D
:106710007FA47EA17D007C581271138E308F31E5ED
:10672000304420F53C85313D753E00753F04754091
:10673000017FA47EA17D00802FE52FB4082F753C3A
:10674000017FA47EE17D007C581271138E308F3161
:10675000E5304420F53C85313D753E00753F0475BC
:1067600040017FA47EE17D007C58126E5322EF240D
:10677000F9B4120040030268C790678775F003A45C
:10678000C58325F0C583730267BD0267C50267D064
:106790000267DB0267E30267FA0268020268190215
:1067A000682102683802684002685602685D026823
:1067B0006702687102688702689D0268B3E490000E
:1067C00089F00268C7E490008AF0531DFD0268C793
:1067D000E490008BF0531DFB0268C7E490008CF03E
:1067E0000268C790008DE0FF900A00E0F4FEEF5EC3
:1067F00090008DF0531DEF0268C7E490008EF00208
:1068000068C790008FE0FF900A07E0F4FEEF5E900B
:10681000008FF0531DBF0268C7E4900090F002683B
:10682000C7900091E0FF900A02E0F4FEEF5E900056
:1068300091F0531CFE0268C7E4900092F00268C712
:10684000900093E0FF900A09E0F4FEEF5E90009361
:10685000F0531CFB8071E4900094F0806AE4900097
:1068600095F0531BFE8060E4900096F0531BFD8072
:1068700056900097E0FF9009FFE0F4FEEF5E900075
:1068800097F0531BFB8040900098E0FF900A01E0D6
:10689000F4FEEF5E900098F0531BF7802A90009969
:1068A000E0FF900A06E0F4FEEF5E900099F0531BC3
:1068B000EF801490009AE0FF900A08E0F4FEEF5E8B
:1068C00090009AF0531BDFE51D451C700FE51B453A
:1068D0001A700990010FE04401F0D282227F1F124A
:1068E0007D589008BEE0FB754D047DF87F2012773F
:1068F000989008BFE0FB754D047DF07F20127798DB
:106900009008C0E0FB754D047D3A7F201277989087
:1069100008C1E0FB754D047D3B7F201277989008FD
:10692000C2E0FB754D047DF17F201277989008C37B
:10693000E0FB754D047D427F201277989008C4E0FB
:10694000FB754D047D437F201277989008C5E0FBCE
:10695000754D047DF47F201277989008C6E0FB7592
:106960004D047D577F201277989008C7E0FB754D46
:10697000047D567F201277989008C8E0FB754D047F
:106980007DC57F201277989008C9E0FB754D047D86
:10699000C67F201277989008CAE0FB754D047DC72A
:1069A0007F201277989008CBE0FB754D047DD57F52
:1069B000201277989008CCE0FB754D047DD67F209F
:1069C0001277989008CDE0FB754D047DD77F20129B
:1069D00077989008CEE0FB754D047DE57F20127717
:1069E000989008CFE0FB754D047DE67F20127798E4
:1069F0009008D0E0FB754D047DE77F200277987FFB
:106A00001F127D6490093EE0FB754D057DF87F20E7
:106A100012779890093FE0FB754D057DF07F2012BD
:106A20007798900940E0FB754D057D3A7F201277FD
:106A300098900941E0FB754D057D3B7F20127798CA
:106A4000900942E0FB754D057DF17F20127798900B
:106A50000943E0FB754D057D427F20127798900930
:106A600044E0FB754D057D437F20127798900945E2
:106A7000E0FB754D057DF47F20127798900946E084
:106A8000FB754D057D577F20127798900947E0FBF5
:106A9000754D057D567F20127798900948E0FB756B
:106AA0004D057DC57F20127798900949E0FB754D13
:106AB000057DC67F2012779890094AE0FB754D0549
:106AC0007DC77F2012779890094BE0FB754D057DBF
:106AD000D57F2012779890094CE0FB754D057DD647
:106AE0007F2012779890094DE0FB754D057DD77F8B
:106AF0002012779890094EE0FB754D057DE57F20CB
:106B000012779890094FE0FB754D057DE67F2012C6
:106B10007798900950E0FB754D057DE77F2002775F
:106B2000987B017A0779637534007535807F007E24
:106B3000F01275C27B017A0779E3753400753580F0
:106B40007F807EF01275C27B017A0879637534000C
:106B50007535807F007EF41275C27B017A0879E377
:106B60007534007535807F807EF41275C27B017AA2
:106B70000979637534007535807F007EF21275C225
:106B8000784F7C047D017B017A0979637E007F80E8
:106B90001221567B017A0979637534007535807F3F
:106BA000807EF21275C2784F7C057D017B017A09E7
:106BB00079637E007F801221567B017A09796375A3
:106BC00034007535807F007EF81275C278CF7C0462
:106BD0007D017B017A0979637E007F801221567BDB
:106BE000017A0979637534007535807F807EF812EB
:106BF00075C278CF7C057D017B017A0979637E00BF
:106C00007F801221567B017A03791F753400753518
:106C1000807F007EEC1275C27B017A03799F753408
:106C2000007535807F807EEC1275C2E490036FF0B2
:106C3000227B047A007D047C807F018F338C348D2D
:106C4000358A368B37E4F53CF53DF53E753F04F566
:106C5000407F087ECCFD7C52126E53E533700DF5FB
:106C60003C753D01F53E753F04026CF6E533B40119
:106C70000F753C00753D02753E00753F04E480765B
:106C8000E533B4020F753C00753D04753E00753F59
:106C900004E48062E533B4030F753C00753D08756C
:106CA0003E00753F04E4804EE533B4040F753C00AC
:106CB000753D10753E00753F04E4803AE533B40538
:106CC0000F753C00753D20753E00753F04E480263D
:106CD000E533B4060F753C00753D40753E00753FC9
:106CE00004E48012E533B40719753C00753D8075E6
:106CF0003E00753F04E4F5407F0C7ECCFD7C5212D3
:106D00006E5385343C85353D753E00753F04E4F592
:106D1000407F107ECCFD7C52126E53AF3312702335
:106D200085363C85373D753E00753F04E4F5407F70
:106D3000107ECCFD7C52126E53AF330270238B2E2B
:106D40008A2F8930E4F53C0530E5307002052F14B8
:106D5000F912217CF5360530E530AA2F7002052F97
:106D600014F912217CF5370530E530AA2F700205A1
:106D70002F14F912217CF5380530E530AA2F700266
:106D8000052F14F912217CF539E535F53AE534F58E
:106D90003B900762E0FF754D057BFF7D7F12779882
:106DA000900762E0FF754D05AB397D8012779890B2
:106DB0000762E0FF754D05AB387D8112779890072B
:106DC00062E0FF754D05AB377D82127798900762C0
:106DD000E0FF754D05AB367D83127798900762E032
:106DE000FF754D05AB3A7D84127798900762E0FFFE
:106DF000754D05AB3B7D85127798900762E0FF7576
:106E00004D057B017D86127798E4F53CE53CC39502
:106E10003A5022900762E0FF7B057D90127758ABD5
:106E2000310533E533AA327002053214F9EF12212D
:106E300095053C80D722900513E04480F53CA3E003
:106E4000F53D753E00753F047540017D007F287E4D
:106E5000187C588F3B8E3A8D398C388F44780812C5
:106E6000224C8F43AF3BAE3AAD39AC38781012228A
:106E70004C8F42AF3BAE3AAD39AC38781812224C49
:106E80008F41E53FF548E53EF549853D45E53CF553
:106E900046E54070057547A080037547A2754D050E
:106EA0007BFF7D7FAF47127798754D05AB447D80A2
:106EB000AF47127798754D05AB437D81AF47127789
:106EC00098754D05AB427D82AF47127798754D0599
:106ED000AB417D83AF47127798754D05AB487D84F4
:106EE000AF47127798754D05AB497D85AF4712774F
:106EF00098754D057B037D86AF47127798754D05D4
:106F0000AB457D87AF47127798754D05AB467D87BA
:106F1000AF47127798754D05E4FB7D87AF47127731
:106F200098754D05E4FB7D87AF470277988B2E8AD5
:106F30002F89300530E5307002052F14F912217CBD
:106F4000F5360530E530AA2F7002052F14F912210D
:106F50007CF5370530E530AA2F7002052F14F912A1
:106F6000217CF5380530E530AA2F7002052F14F981
:106F700012217CF539E535F53AE534F53B900762A9
:106F8000E0FF754D057BFF7D7F127798900762E0EB
:106F9000FF754D05AB397D80127798900762E0FF51
:106FA000754D05AB387D81127798900762E0FF75CB
:106FB0004D05AB377D82127798900762E0FF754DE3
:106FC00005AB367D83127798900762E0FF754D051B
:106FD000AB3A7D84127798900762E0FF754D05AB60
:106FE0003B7D85127798900762E0FF754D057B0326
:106FF0007D86127798E4F53CE53CC3953A502390A2
:107000000762E0FFAB310533E533AA327002053287
:1070100014F912217CFB754D057D87127798053C8C
:1070200080D622EFB408004003027107907033F855
:1070300028287302704B02706102707702708D0213
:1070400070A40270BC0270D40270ECE4F53C7F14B2
:107050007ECCFD7C52127113E4F53C7F8C7E218046
:1070600040E4F53C7F147ECCFD7C52127113E4F5B4
:107070003C7F8C7E61802AE4F53C7F147ECCFD7CD5
:1070800052127113E4F53C7F8C7EA18014E4F53C30
:107090007F147ECCFD7C52127113E4F53C7F8C7E14
:1070A000E1FD805EE4F53C7F147ECCFD7C521271E4
:1070B00013753C017F8C7E217D008046E4F53C7F8A
:1070C000147ECCFD7C52127113753C017F8C7E6165
:1070D0007D00802EE4F53C7F147ECCFD7C52127145
:1070E00013753C017F8C7EA17D008016E4F53C7F0A
:1070F000147ECCFD7C52127113753C017F8C7EE1B5
:107100007D007C5812711322753C017FCC7D037E7B
:10711000447C508F3B8E3A8D398C38E4F5428F4059
:10712000780812224C8F3FAF3BAE3AAD39AC38787D
:107130001012224C8F3EAF3BAE3AAD39AC387818C6
:1071400012224C8F3DE53C70057541A080037541CE
:10715000A2754D057BFF7D7FAF41127798754D0578
:10716000AB407D80AF41127798754D05AB3F7D8177
:10717000AF41127798754D05AB3E7D82AF411277D6
:1071800098754D05AB3D7D83AF41127798754D05E0
:107190007B047D84AF41127798754D05E4FB7D85B6
:1071A000AF41127798754D057B017D86AF4112770F
:1071B000987B057D90AF411277588F437B057D907A
:1071C000AF411277588F447B057D90AF41127758BD
:1071D0008F457B057D90AF411277588F45E5447F01
:1071E00000FEEF2543FFE43EFE2212003A787FE4E2
:1071F000F6D8FD75814D027234027A23E493A3F828
:10720000E493A34003F68001F208DFF48029E493BD
:10721000A3F85407240CC8C333C4540F4420C883B4
:107220004004F456800146F6DFE4800B01020408B6
:10723000102040809023D5E47E019360BCA3FF54CE
:107240003F30E509541FFEE493A360010ECF54C004
:1072500025E060A840B8E493A3FAE493A3F8E4938C
:10726000A3C8C582C8CAC583CAF0A3C8C582C8CA94
:10727000C583CADFE9DEE780BE90065DE064017089
:1072800062900652E024FB601524FE604E240670D6
:107290004D900663E090018BF01264218040E4FF82
:1072A000FE900661E0FDC3EF9DEE940050287463EC
:1072B0002FF58274063EF583E0FD900660E02FFB1B
:1072C000E43EFA740C2BF58274013AF583EDF00F6D
:1072D000BF00010E80CB12771880031208A9E4903A
:1072E000065DF0229006F2E064017060900703E012
:1072F000900762700474A0800274A2F0900704F0FA
:107300009006F1E0701E7531017532067533E79015
:1073100006EFE0F534A3E0F5357B017A0679E31258
:107320006F2D80239006F1E0B4011C753101753298
:10733000067533EB9006EFE0F534A3E0F5357B01FD
:107340007A0679E3126D3EE49006F2F022E49002B0
:107350009DF0A3F0F52EF52FAF2FAE2E127BDA7E27
:107360000090029EE02FF090029DE03EF0052FE598
:107370002F7002052EC3E52E94E840DC90029DE0BC
:10738000FFA3E0900397CFF0A3EFF07B017A03799E
:107390001F7535007536807F007EEC12757A7B0193
:1073A0007A03799F7535007536807F807EEC027692
:1073B000947F01125C867F02125C867F03125C86DA
:1073C0007F04125C867F011200767F021200767FB6
:1073D000031200767F041200767F011228957F0247
:1073E0001228957F031228957F041228957F011299
:1073F00079657F021279657F031279657F040279CE
:10740000657F051279657F061279657F07127965B8
:107410007F081279657F05125C867F06125C867F85
:1074200007125C867F08125C867F051200767F0655
:107430001200767F071200767F081200767F051211
:1074400028957F061228957F071228957F08022825
:10745000957B017A04792F7534007535107F007E95
:10746000EE1275C27B017A04793F753400753510D0
:107470007F107EEE1275C27B017A02790C753400A2
:107480007535107F207EEE1275C27B017A04791F5C
:107490007534007535107F407EEE0275C2123F01D3
:1074A0007B047D047F1C127758900770EFF07B04FB
:1074B0007D1E7F1C127758900778EFF07B047D29A2
:1074C0007F1C12775890077FEFF07B047D5A7F1C5A
:1074D000127758900792EFF07B047D647F1C12773F
:1074E00058900797EFF02212415C7B057D047F1CCA
:1074F0001277589007F0EFF07B057D1E7F1C127706
:10750000589007F8EFF07B057D297F1C1277589083
:1075100007FFEFF07B057D5A7F1C12775890081209
:10752000EFF07B057D647F1C127758900817EFF011
:1075300022AC07E4FBFF127B58127B60127B607A5F
:1075400007127B53BC0406A29092018007BC05047D
:10755000A2B29201A201E433FFA802088002C33361
:10756000D8FC4203AD04E4FF127CD9127B601AC33D
:10757000EA6480948050CAAF03228E308F318B3200
:107580008A338934E4F537F5387D55120003E4F584
:1075900037F538C3E5389536E53795355023E5316D
:1075A0002538FFE5303537FEAB320534E534AA33F4
:1075B0007002053312788B0538E53870D6053780B0
:1075C000D2228E2F8F308B318A328933E4F536F513
:1075D00037F536F537C3E5379535E5369534502917
:1075E000E5302537FFE52F3536FE127BDAAB310566
:1075F00033E533AA327002053214F9EF12219505F2
:1076000037E53770D0053680CC22EF30E004D296D3
:107610008002C296EF30E204D2818002C281EF3054
:10762000E304D2928002C292EF30E404D29480024A
:10763000C294EF30E504D2868002C286EF30E604C1
:10764000D2958002C295EF30E703D2B422C2B422B1
:10765000C2D5E830E70FB2D5E4C39BFBE49AFAE465
:1076600099F9E498F8EC30E717B2D5127686122330
:1076700043E4C39BFBE49AFAE499F9E498F88003A5
:1076800012234330D50DE4C39FFFE49EFEE49DFD2D
:10769000E49CFC228E308F318B328A338934E4F5BE
:1076A00037F538F537F538C3E5389536E53795358C
:1076B0005023E5312538FFE5303537FEAB32053450
:1076C000E534AA337002053312788B0538E538703B
:1076D000D6053780D222AC05AB07A903E4FF127BA5
:1076E0005A127B60127B607A07EBA802088002C303
:1076F00013D8FC5401F9AD0460047F018002E4FF5B
:10770000127C3A127B56E4FF127CD9127B601AC3BA
:10771000EA6480948050D222900186E0FFB49316F0
:10772000A3E0B47811A3E0B4CC0CA3E0B4AE07900E
:1077300006507401F022EFB43A18900187E0B418B3
:1077400011A3E0B4B60CA3E0B46F07900650740226
:10775000F022E4900650F0228F468D478B48127C31
:107760004CAF461278FFAF471278FFAD487F011249
:107770007CD9127B60127C4CE54604FF1278FFAF87
:1077800048127531A907AF48127A99AF48127B1693
:10779000AF48127D7AAF01228D4B8B4CAC07AF4DB9
:1077A000127D7AAF4D127C53AF04AD4D1276D6AF39
:1077B0004D127906AD4DAF4B1276D6AF4D1279060C
:1077C000AD4DAF4C1276D6AF4D127906AF4D127B50
:1077D00016AF4D027D7A85A72E127D84127D8E1202
:1077E0007D98127DA2127DC0127DAC127C62127C4B
:1077F000C6127CA0120036127DC7127DCE127CFD0F
:10780000127CB3127D1E127DD5127DDC127DB685F1
:107810002EA7227F01125E747F02125E747F031214
:107820005E747F04125E747F0112605A7F021260E0
:107830005A7F0312605A7F0412605A7F01127B350F
:107840007F02127B357F03127B357F04027B357FFD
:1078500005127B357F06127B357F07127B357F084B
:10786000127B357F05125E747F06125E747F0712ED
:107870005E747F08125E747F0512605A7F06126084
:107880005A7F0712605A7F0802605A14F912217C4D
:10789000FD7B55ACA7A2AF9201E4F5A7C2AF75FF7F
:1078A0008075EF028F828E83BB550975B7A575B7BA
:1078B000F1438F0175FF8075EF02EDF0538FFEA24B
:1078C0000192AF8CA7227B017A01790C7534017586
:1078D00035007F007EE81275C27B017A02791D7542
:1078E00034007535807F007EEA1275C27B017A0212
:1078F000799F7534007535807F807EEA0275C2AD50
:10790000481276D6AF48AC07127B53AF04127CEB1B
:10791000EF600CE4FF127CD9127B60E4FF800CADB9
:1079200004E4FF127CD9127B607F01127C3A127B47
:1079300060221272E49003F6E0B4AA0AE4F0900325
:10794000F5E0FF12760A900394E0B4AA08120066EC
:10795000E4900394F090070BE0B4AA08127D4CE485
:1079600090070BF0228F2E1265E8E52E14FF7B04A2
:107970007A007D047C80126C3BAF2E1243B7AF2E91
:107980001245D7AF2E1247F7AF2E124A17AF2E125D
:107990004C37AF2E02365FE4FF127D587B04E4FDC6
:1079A0007F20127758900863EFF07B047D017F20E1
:1079B000127758900864EFF07B047D037F201277E4
:1079C00058900865EFF022E4FF127D647B05E4FD2A
:1079D0007F201277589008E3EFF07B057D017F2030
:1079E0001277589008E4EFF07B057D037F20127733
:1079F000589008E5EFF0227F327E00127AF7C295A8
:107A0000D281C292D2B47F0A7E00127AF7D296D285
:107A100094C2867F057E00127AF7C2957F327E007F
:107A2000027AF7E4F52CF52D1277D6127D3D127906
:107A3000F712003E127D2E75A88043C18012793264
:107A4000900A16E0700375EF1212727980EF9001C0
:107A500015E0FF9009FEE0F4FEEF5E900115F05393
:107A60001BBFE51D451C700FE51B451A70099001F1
:107A70000FE04401F0D282227E007F547D007B0122
:107A80007A01790C12228690018CE090010CF0A30F
:107A90007430F0E4A3F0A3F022AC07127B60127CF8
:107AA00036127B607F01127B5AE4FF127CD9127B75
:107AB00060E4FF127C3A027B60C0E0C083C082E5D4
:107AC0009B900A1730E6057401F08002E4F0539BA6
:107AD000CFD082D083D0E032C0E0C083C082E5BF87
:107AE000900A1630E6057401F08002E4F053BFCF2F
:107AF000D082D083D0E032AD07AC06E4FBFAC3EB12
:107B00009DEC6480F8EA648098500A127D0E0BBBED
:107B100000010A80E922AC07AD04E4FF127C3A7F41
:107B200002127B6FAD047F01127CD90F127B6F12A2
:107B30007C36027B608F2E125683AF2E124E57AFCB
:107B40002E125062AF2E12526DAF2E125478AF2EFD
:107B5000020EDC127B607F01AD04127CD9127B60C7
:107B6000E4FFFE0FBF00010EEF64024E70F522AD80
:107B700007E4FBFAEDFFC3EB9F7480F86A98500AA4
:107B8000127B600BBB00010A80EA22E4900114F032
:107B9000E51D451C700FE51B451A700990010FE0AB
:107BA0004401F0D28222127C78E4FF12147F7F011C
:107BB00012147F7F0212147F7F0312147F0268DD8C
:107BC000127C8CE4FF1219A07F011219A07F02120F
:107BD00019A07F031219A00269FFADA7A2AF9201FD
:107BE000C2AFE4F5A78F828E8393FFA20192AF8D7F
:107BF000A722127997E4FF122D3B7F01122D3B7FC4
:107C000002122D3B7F03022D3B1279C7E4FF123194
:107C1000CD7F011231CD7F021231CD7F030231CDF4
:107C2000BD0408EF24FF9291929022BD0507EF2436
:107C3000FF92B392B222AD047F01BD0406EF24FF90
:107C4000929022BD0505EF24FF92B222AF48127D2B
:107C50007AAF48AD07127B60E4FF127C3A7F0202E4
:107C60007B6F75B28075BB1475DF1F75BC1875B955
:107C70000453E8F943E88522E4FF127D5890086533
:107C8000E0FB754D047D037F20027798E4FF127DB1
:107C9000649008E5E0FB754D057D037F2002779831
:107CA00075AA05E4FF0FBF20FC53ABFC43AB304388
:107CB000BF8022AF885388AF758CF1EF5440FEEF40
:107CC00054104E428822759F52E4FF0FBF20FC5390
:107CD0009DFC439D30439B8022BD0406EF24FF9210
:107CE0009122BD0505EF24FF92B322BF0404A290A8
:107CF0008005BF0505A2B2E433FEAF0622E4F5A974
:107D0000E5A930E7FB75A903E5A930E7FB22E4FF0D
:107D1000FE000FBF00010EBE17F7BF70F422E59101
:107D200054045391FB7593157592A04291227E00E5
:107D30007F807D007B017A0679E30222861278C675
:107D4000126B21127A781262400274511273B112CE
:107D5000781312740102784FAB07754D047DFF7FD5
:107D600020027798AB07754D057DFF7F200277983D
:107D700053C17F43C18053917F32AD077F01127C95
:107D800020027B6FE4F5A77597DE7597AD2275A489
:107D90004275F16E75D4FF2275A57475F27775D5AD
:107DA000FF2275A72075F30375CC0C22E4F5A775A7
:107DB000E34075E1042275E6E175A71075EE012236
:107DC000759C1075F49F2275A71075C12022E4F5EB
:107DD000A775EF0622758E017589022275D7A0431B
:107DE000C11C22025A88FFFFFFFFFFFFFFFFFFFFBA
:107DF000FFFFFFFFFFFFFFFFFFFFFFFFFFFFFFFF93
:107E0000FFFFFFFFFFFFFFFFFFFFFFFFFFFFFFFF82
:107E1000FFFFFFFFFFFFFFFFFFFFFFFFFFFFFFFF72
:107E2000FFFFFFFFFFFFFFFFFFFFFFFFFFFFFFFF62
:10E8000019000000000000000000000000000000EF
:10E8100000000000000000000000000000000000F8
:10E8200000000000000000000000000000000000E8
:10E8300000000000000000000000000000000000D8
:10E8400000000000000000000000000000000000C8
:10E8500000000000000100000000000000000000B7
:10E8600000000000000000000000000000000000A8
:10E870000000000000000000000000000000000098
:10E88000194C555853484152452D49435420202096
:10E89000203C18A000000000000000000000000064
:10E8A0000000000000000000000000000000000068
:10E8B0000000000000000000000000000000000058
:10E8C0000000000000000000000000000000000048
:10E8D0000000000000000000000000000000000038
:10E8E0000000000000000000000000000000000028
:10E8F0000000000000000000000000000000000018
:10E90000FFFFFFFFFFFFFFFFFFFFFFFFFFFFFFFF17
:10E91000FFFFFFFFFFFFFFFFFFFFFFFFFFFFFFFF07
:10E92000FFFFFFFFFFFFFFFFFFFFFFFFFFFFFFFFF7
:10E93000FFFFFFFFFFFFFFFFFFFFFFFFFFFFFFFFE7
:10E94000FFFFFFFFFFFFFFFFFFFFFFFFFFFFFFFFD7
:10E95000FFFFFFFFFFFFFFFFFFFFFFFFFFFFFFFFC7
:10E96000FFFFFFFFFFFFFFFFFFFFFFFFFFFFFFFFB7
:10E97000FFFFFFFFFFFFFFFFFFFFFFFFFFFFFFFFA7
:10E98000FFFFFFFFFFFFFFFFFFFFFFFFFFFFFFFF97
:10E99000FFFFFFFFFFFFFFFFFFFFFFFFFFFFFFFF87
:10E9A000FFFFFFFFFFFFFFFFFFFFFFFFFFFFFFFF77
:10E9B000FFFFFFFFFFFFFFFFFFFFFFFFFFFFFFFF67
:10E9C000FFFFFFFFFFFFFFFFFFFFFFFFFFFFFFFF57
:10E9D000FFFFFFFFFFFFFFFFFFFFFFFFFFFFFFFF47
:10E9E000FFFFFFFFFFFFFFFFFFFFFFFFFFFFFFFF37
:10E9F000FFFFFFFFFFFFFFFFFFFFFFFFFFFFFFFF27
:10EA000003110300000032230000426807D0040A0B
:10EA100088604600000000000000000000000000C8
:10EA200000000000000000000000000000000000E6
:10EA30000111FF0111FF00000000000000000000B4
:10EA400000000000000000000000000000000000C6
:10EA500000000000000000000000000000000000B6
:10EA600000000000000000000000000000000000A6
:10EA70000000000000000000000000000000001185
:10EA80008000000000000000000000000000000006
:10EA90000000000000000000000000000000000076
:10EAA0000000000000000000000000000000000066
:10EAB0000000000000000000000000000000000056
:10EAC0000000000000000000000000000000000046
:10EAD0000000000000000000000000000000000036
:10EAE0000000000000000000000000000000000026
:10EAF0000000000000000000000000000000000016
:10EB0000FFFFFFFFFFFFFFFFFFFFFFFFFFFFFFFF15
:10EB1000FFFFFFFFFFFFFFFFFFFFFFFFFFFFFFFF05
:10EB2000FFFFFFFFFFFFFFFFFFFFFFFFFFFFFFFFF5
:10EB3000FFFFFFFFFFFFFFFFFFFFFFFFFFFFFFFFE5
:10EB4000FFFFFFFFFFFFFFFFFFFFFFFFFFFFFFFFD5
:10EB5000FFFFFFFFFFFFFFFFFFFFFFFFFFFFFFFFC5
:10EB6000FFFFFFFFFFFFFFFFFFFFFFFFFFFFFFFFB5
:10EB7000FFFFFFFFFFFFFFFFFFFFFFFFFFFFFFFFA5
:10EB8000FFFFFFFFFFFFFFFFFFFFFFFFFFFFFFFF95
:10EB9000FFFFFFFFFFFFFFFFFFFFFFFFFFFFFFFF85
:10EBA000FFFFFFFFFFFFFFFFFFFFFFFFFFFFFFFF75
:10EBB000FFFFFFFFFFFFFFFFFFFFFFFFFFFFFFFF65
:10EBC000FFFFFFFFFFFFFFFFFFFFFFFFFFFFFFFF55
:10EBD000FFFFFFFFFFFFFFFFFFFFFFFFFFFFFFFF45
:10EBE000FFFFFFFFFFFFFFFFFFFFFFFFFFFFFFFF35
:10EBF000FFFFFFFFFFFFFFFFFFFFFFFFFFFFFFFF25
:10EC000001000000010000010000000100000001FF
:10EC100000000001000000010000000100000001F0
:10EC200000000001000000010000000100000001E0
:10EC300000000001000000000000000000000000D3
:10EC4000000000000000004600010001000100007B
:10EC5000002222222233333333555555550000000C
:10EC600000000000000000000000000000000000A4
:10EC70000000000000000000000000000000000094
:10EC8000010000000100000100000001000000017F
:10EC90000000000100000001000000010000000170
:10ECA0000000000100000001000000010000000160
:10ECB0000000000100000000800100008001000051
:10ECC0008001000080010000000000000000000042
:10ECD0000000000000000000000000000000000034
:10ECE0000000000000000000000000000000000024
:10ECF0000000000000000000000000000000000014
:10ED0000FFFFFFFFFFFFFFFFFFFFFFFFFFFFFFFF13
:10ED1000FFFFFFFFFFFFFFFFFFFFFFFFFFFFFFFF03
:10ED2000FFFFFFFFFFFFFFFFFFFFFFFFFFFFFFFFF3
:10ED3000FFFFFFFFFFFFFFFFFFFFFFFFFFFFFFFFE3
:10ED4000FFFFFFFFFFFFFFFFFFFFFFFFFFFFFFFFD3
:10ED5000FFFFFFFFFFFFFFFFFFFFFFFFFFFFFFFFC3
:10ED6000FFFFFFFFFFFFFFFFFFFFFFFFFFFFFFFFB3
:10ED7000FFFFFFFFFFFFFFFFFFFFFFFFFFFFFFFFA3
:10ED8000FFFFFFFFFFFFFFFFFFFFFFFFFFFFFFFF93
:10ED9000FFFFFFFFFFFFFFFFFFFFFFFFFFFFFFFF83
:10EDA000FFFFFFFFFFFFFFFFFFFFFFFFFFFFFFFF73
:10EDB000FFFFFFFFFFFFFFFFFFFFFFFFFFFFFFFF63
:10EDC000FFFFFFFFFFFFFFFFFFFFFFFFFFFFFFFF53
:10EDD000FFFFFFFFFFFFFFFFFFFFFFFFFFFFFFFF43
:10EDE000FFFFFFFFFFFFFFFFFFFFFFFFFFFFFFFF33
:10EDF000FFFFFFFFFFFFFFFFFFFFFFFFFFFFFFFF23
:10EE00000C1316191C1F2326292C2F3236393C3F90
:10EE100000FCF8F4F0ECE8E4E4E4E40000000000B6
:10EE200050647C940000000000000000000000001E
:10EE30009378CCAE0000000000000000000000004D
:10EE400000FCF8F4F0ECE8E4E4E4E4000000000086
:10EE500000000000000000000000000000000000B2
:10EE600000000000000000000000000000000000A2
:10EE70000000000000000000000000000000000092
:10EE8000FFFFFFFFFFFFFFFFFFFFFFFFFFFFFFFF92
:10EE9000FFFFFFFFFFFFFFFFFFFFFFFFFFFFFFFF82
:10EEA000FFFFFFFFFFFFFFFFFFFFFFFFFFFFFFFF72
:10EEB000FFFFFFFFFFFFFFFFFFFFFFFFFFFFFFFF62
:10EEC000FFFFFFFFFFFFFFFFFFFFFFFFFFFFFFFF52
:10EED000FFFFFFFFFFFFFFFFFFFFFFFFFFFFFFFF42
:10EEE000FFFFFFFFFFFFFFFFFFFFFFFFFFFFFFFF32
:10EEF000FFFFFFFFFFFFFFFFFFFFFFFFFFFFFFFF22
:10EF0000FFFFFFFFFFFFFFFFFFFFFFFFFFFFFFFF11
:10EF1000FFFFFFFFFFFFFFFFFFFFFFFFFFFFFFFF01
:10EF2000FFFFFFFFFFFFFFFFFFFFFFFFFFFFFFFFF1
:10EF3000FFFFFFFFFFFFFFFFFFFFFFFFFFFFFFFFE1
:10EF4000FFFFFFFFFFFFFFFFFFFFFFFFFFFFFFFFD1
:10EF5000FFFFFFFFFFFFFFFFFFFFFFFFFFFFFFFFC1
:10EF6000FFFFFFFFFFFFFFFFFFFFFFFFFFFFFFFFB1
:10EF7000FFFFFFFFFFFFFFFFFFFFFFFFFFFFFFFFA1
:10EF8000FFFFFFFFFFFFFFFFFFFFFFFFFFFFFFFF91
:10EF9000FFFFFFFFFFFFFFFFFFFFFFFFFFFFFFFF81
:10EFA000FFFFFFFFFFFFFFFFFFFFFFFFFFFFFFFF71
:10EFB000FFFFFFFFFFFFFFFFFFFFFFFFFFFFFFFF61
:10EFC000FFFFFFFFFFFFFFFFFFFFFFFFFFFFFFFF51
:10EFD000FFFFFFFFFFFFFFFFFFFFFFFFFFFFFFFF41
:10EFE000FFFFFFFFFFFFFFFFFFFFFFFFFFFFFFFF31
:10EFF000FFFFFFFFFFFFFFFFFFFFFFFFFFFFFFFF21
:10F0000000000000000000000000000000040000FC
:10F01000FF00FF00700800000A0A0A0A0FF000282B
:10F02000282828636363630000000023232323044C
:10F0300000001000080000000000000000000000B8
:10F0400000000000000000000000000000000000C0
:10F0500000000000000000000000000000000000B0
:10F0600000000000000000000000000000000000A0
:10F070000000000000000000000000000000000090
:10F08000000000000000000000000000000400007C
:10F09000FF00FF00700800000A0A0A0A0FF00028AB
:10F0A00028282863636363000000002323232304CC
:10F0B0000000100008000000000000000000000038
:10F0C0000000000000000000000000000000000040
:10F0D0000000000000000000000000000000000030
:10F0E0000000000000000000000000000000000020
:10F0F0000000000000000000000000000000000010
:10F10000FFFFFFFFFFFFFFFFFFFFFFFFFFFFFFFF0F
:10F11000FFFFFFFFFFFFFFFFFFFFFFFFFFFFFFFFFF
:10F12000FFFFFFFFFFFFFFFFFFFFFFFFFFFFFFFFEF
:10F13000FFFFFFFFFFFFFFFFFFFFFFFFFFFFFFFFDF
:10F14000FFFFFFFFFFFFFFFFFFFFFFFFFFFFFFFFCF
:10F15000FFFFFFFFFFFFFFFFFFFFFFFFFFFFFFFFBF
:10F16000FFFFFFFFFFFFFFFFFFFFFFFFFFFFFFFFAF
:10F17000FFFFFFFFFFFFFFFFFFFFFFFFFFFFFFFF9F
:10F18000FFFFFFFFFFFFFFFFFFFFFFFFFFFFFFFF8F
:10F19000FFFFFFFFFFFFFFFFFFFFFFFFFFFFFFFF7F
:10F1A000FFFFFFFFFFFFFFFFFFFFFFFFFFFFFFFF6F
:10F1B000FFFFFFFFFFFFFFFFFFFFFFFFFFFFFFFF5F
:10F1C000FFFFFFFFFFFFFFFFFFFFFFFFFFFFFFFF4F
:10F1D000FFFFFFFFFFFFFFFFFFFFFFFFFFFFFFFF3F
:10F1E000FFFFFFFFFFFFFFFFFFFFFFFFFFFFFFFF2F
:10F1F000FFFFFFFFFFFFFFFFFFFFFFFFFFFFFFFF1F
:10F200004A000001FFF4FFF4FFF4FFF400800080E7
:10F2100000800080000000000000000000000000EE
:10F2200000000000000000000000000010001000BE
:10F23000100010000010001100100011002000202C
:10F2400000200030800000048004000080000004E2
:10F250008004000001F101F101F101F10000000062
:10F26000000000000000000000000000000000009E
:10F27000000000000000000000000000000000008E
:10F28000FFECFFECFFECFFEC009400940094009482
:10F29000000000000000000000000000000000006E
:10F2A00000000000000000001800180018001800FE
:10F2B0000000000100000001000000010000072123
:10F2C000000000000000000000000000000000003E
:10F2D000000000000000000000000000000000002E
:10F2E000000000000000000000000000000000001E
:10F2F0000000000000000000000000000000FFFF10
:10F30000FFFFFFFFFFFFFFFFFFFFFFFFFFFFFFFF0D
:10F31000FFFFFFFFFFFFFFFFFFFFFFFFFFFFFFFFFD
:10F32000FFFFFFFFFFFFFFFFFFFFFFFFFFFFFFFFED
:10F33000FFFFFFFFFFFFFFFFFFFFFFFFFFFFFFFFDD
:10F34000FFFFFFFFFFFFFFFFFFFFFFFFFFFFFFFFCD
:10F35000FFFFFFFFFFFFFFFFFFFFFFFFFFFFFFFFBD
:10F36000FFFFFFFFFFFFFFFFFFFFFFFFFFFFFFFFAD
:10F37000FFFFFFFFFFFFFFFFFFFFFFFFFFFFFFFF9D
:10F38000FFFFFFFFFFFFFFFFFFFFFFFFFFFFFFFF8D
:10F39000FFFFFFFFFFFFFFFFFFFFFFFFFFFFFFFF7D
:10F3A000FFFFFFFFFFFFFFFFFFFFFFFFFFFFFFFF6D
:10F3B000FFFFFFFFFFFFFFFFFFFFFFFFFFFFFFFF5D
:10F3C000FFFFFFFFFFFFFFFFFFFFFFFFFFFFFFFF4D
:10F3D000FFFFFFFFFFFFFFFFFFFFFFFFFFFFFFFF3D
:10F3E000FFFFFFFFFFFFFFFFFFFFFFFFFFFFFFFF2D
:10F3F000FFFFFFFFFFFFFFFFFFFFFFFFFFFFFFFF1D
:10F40000000000A8090000000F20380D00003500A2
:10F41000002500001D04E40000A8090000000F20E2
:10F42000380D00003500002500001D04E40000A890
:10F43000090000000F20380D0000350000250000F5
:10F440001D04E40000A8090000000F20380D000092
:10F450003500002500001D04E40000003F00003FCF
:10F460000000F3000003000C03000C03000C00007C
:10F47000000000000000000000000000000000008C
:10F48000000000A8090000000F20380D0000350022
:10F49000002500001D04E40000A8090000000F2062
:10F4A000380D00003500002500001D04E40000A810
:10F4B000090000000F20380D000035000025000075
:10F4C0001D04E40000A8090000000F20380D000012
:10F4D0003500002500001D04E40000003F00003F4F
:10F4E0000000F3000003000C03000C03000C0000FC
:10F4F000000000000000000000000000000000000C
:10F50000FFFFFFFFFFFFFFFFFFFFFFFFFFFFFFFF0B
:10F51000FFFFFFFFFFFFFFFFFFFFFFFFFFFFFFFFFB
:10F52000FFFFFFFFFFFFFFFFFFFFFFFFFFFFFFFFEB
:10F800001A000001FFF4FFF4FFF4FFF40080008011
:10F8100000800080000000000000000000000000E8
:10F8200000000000000000000000000010001000B8
:10F830001000100000100011001000110030003006
:10F8400000200030800000048004000080000004DC
:10F850008004000001F101F101F101F1000000005C
:10F860000000000000000000000000000000000098
:10F870000000000000000000000000000000000088
:10F88000FFECFFECFFECFFEC00940094009400947C
:10F890000000000000000000000000000000000068
:10F8A00000000000000000001800180018001800F8
:10F8B000000000010000000100000001000007211D
:10F8C0000000000000000000000000000000000038
:10F8D0000000000000000000000000000000000028
:10F8E0000000000000000000000000000000000018
:0EF8F00000000000000000000000000000000A
:00000001FF
