:10000000025BA985A72E12726E127278127282128A
:1000100072151272B212728C1271341272B612729E
:100020009612729D1271C812715E1271E91272A459
:100030001272AB1272BA852EA722220213379007D2
:1000400058E030E0137F031234DA900758E054FE92
:10005000F07D01E4FF126E65900758E030E1137FF8
:10006000041234DA900758E054FDF07D017F01124C
:100070006E6522027250EC4D6011E8497017ED3345
:10008000EC3304600DE4FCFFFEFD22E933E83304A9
:1000900070F80202261201F158046009E4CC2481B0
:1000A000500628500902023028400302022DC0E009
:1000B000EB4A7044B98006D0E0FB02021CEF4E70A0
:1000C0001CBD8008EBFFEAFEE9FD80EBE98DF0A4A2
:1000D000FEE5F002015FE9CDF9EAFEEBFFEF89F002
:1000E000A4FCE5F0CE89F0A42EFFE435F0CD89F034
:1000F000A42DFEE435F08067EF4E7005BD80D780FB
:10010000C3EF8BF0A4ACF0EE8BF0A42CFCE435F044
:10011000F8EF8AF0A42CE5F038FCE433CB8DF0A4A2
:100120002CFCE5F03BF8EE8AF0A42CFCE5F038F866
:10013000E433CF89F0A42CFCE5F038CF3400CE892D
:10014000F0A42FFFE5F03EFEE433C98DF0A42EFEAF
:10015000E5F039CD8AF0A42FFFE5F03EFEE43DFD49
:1001600033D0E0FB50070BBB000F020230EC2CFC3D
:10017000EF33FFEE33FEED33FD02020875F0208011
:100180000E75F010800575F0087D007E007F00334D
:1001900092D530D5031203F3EC334010EF33FFEE6A
:1001A00033FEED33FDEC33FCD5F0ED22E5F0247E9B
:1001B000A2D513CC92E7CDCEFF22EDD2E7CD33EC22
:1001C0003392D524814006E4FFFEFDFC22FCE4CFFF
:1001D000CECDCC24E0501174FF80EDC3CC13CCCD38
:1001E00013CDCE13CECF13CF0470F030D5DE020383
:1001F000F3E9D2E7C933E833F892D5EDD2E7CD334E
:10020000EC33FC5002B2D522EC30E7100FBF000CEB
:100210000EBE00080DBD00040BEB6014A2D5EB135D
:10022000FCED92E7FD2274FFFCFDFEFF22E480F866
:10023000A2D574FF13FC7D80E480EFE709F608DFA8
:10024000FA8046E709F208DFFA803E88828C83E76D
:1002500009F0A3DFFA8032E309F608DFFA8078E3D9
:1002600009F208DFFA807088828C83E309F0A3DF4B
:10027000FA806489828A83E0A3F608DFFA805889CD
:10028000828A83E0A3F208DFFA804C80D280FA8071
:10029000C680D4806980F28033801080A680EA8096
:1002A0009A80A880DA80E280CA803389828A83ECCF
:1002B000FAE493A3C8C582C8CCC583CCF0A3C8C553
:1002C00082C8CCC583CCDFE9DEE7800D89828A83D2
:1002D000E493A3F608DFF9ECFAA9F0EDFB2289829A
:1002E0008A83ECFAE0A3C8C582C8CCC583CCF0A34E
:1002F000C8C582C8CCC583CCDFEADEE880DB898252
:100300008A83E493A3F208DFF980CC88F0EF6001E0
:100310000E4E60C388F0ED2402B4040050B9F5829B
:10032000EB2402B4040050AF232345822390028BB8
:1003300073BB010689828A83E0225002E722BBFE5A
:1003400002E32289828A83E49322BB010689828A9E
:1003500083F0225002F722BBFE01F322EF8DF0A4BE
:10036000A8F0CF8CF0A428CE8DF0A42EFE22C2D50A
:10037000EC30E709B2D5E4C39DFDE49CFCEE30E728
:1003800015B2D5E4C39FFFE49EFE1204A4C3E49D0E
:10039000FDE49CFC80031204A430D507C3E49FFF56
:1003A000E49EFE22E88FF0A4CC8BF0A42CFCE98E16
:1003B000F0A42CFC8AF0EDA42CFCEA8EF0A4CDA8CD
:1003C000F08BF0A42DCC3825F0FDE98FF0A42CCDD6
:1003D00035F0FCEB8EF0A4FEA9F0EB8FF0A4CFC5B6
:1003E000F02ECD39FEE43CFCEAA42DCE35F0FDE440
:1003F0003CFC22C3E49FFFE49EFEE49DFDE49CFCE4
:1004000022E86010ECA2E713FCED13FDEE13FEEF03
:1004100013FFD8F022ECF0A3EDF0A3EEF0A3EFF081
:1004200022A8828583F0D083D08212043812043847
:10043000120438120438E473E493A3C583C5F0C5ED
:1004400083C8C582C8F0A3C583C5F0C583C8C5826B
:10045000C822D083D082F8E4937012740193700D97
:10046000A3A393F8740193F5828883E473740293D1
:100470006860EFA3A3A380DFEF4E6012EF60010E70
:10048000EDBB010B89828A83F0A3DFFCDEFA2289AF
:10049000F05007F709DFFCA9F022BBFEFCF309DFEF
:1004A000FCA9F022BC000BBE0029EF8DF084FFAD4B
:1004B000F022E4CCF875F008EF2FFFEE33FEEC33BA
:1004C000FCEE9DEC984005FCEE9DFE0FD5F0E9E4B6
:1004D000CEFD22EDF8F5F0EE8420D21CFEADF075D5
:1004E000F008EF2FFFED33FD4007985006D5F0F2EE
:1004F00022C398FD0FD5F0EA2275F008758200EF4F
:100500002FFFEE33FECD33CDCC33CCC58233C58245
:100510009BED9AEC99E58298400CF582EE9BFEEDFE
:100520009AFDEC99FC0FD5F0D6E4CEFBE4CDFAE4CD
:10053000CCF9A88222B800C1B90059BA002DEC8BC1
:10054000F084CFCECDFCE5F0CBF97818EF2FFFEE9D
:1005500033FEED33FDEC33FCEB33FB10D703994056
:1005600004EB99FB0FD8E5E4F9FA227818EF2FFF96
:10057000EE33FEED33FDEC33FCC933C910D7059BD8
:10058000E99A4007EC9BFCE99AF90FD8E0E4C9FA34
:10059000E4CCFB2275F010EF2FFFEE33FEED33FDC0
:1005A000CC33CCC833C810D7079BEC9AE899400AE3
:1005B000ED9BFDEC9AFCE899F80FD5F0DAE4CDFB61
:1005C000E4CCFAE4C8F922EF147003020721147096
:1005D000030208611470030209A124036003020AE4
:1005E000E77F2012723A90065BE0FB756805E4FD38
:1005F0007F20126C1890066DE0FB7568057D017F09
:1006000020126C1890065CE0FB7568057D027F2067
:10061000126C1890065DE0FB7568057D037F201263
:100620006C1890065EE0FB7568057D047F20126CF7
:100630001890065FE0FB7568057D057F20126C1839
:10064000900660E0FB7568057D0A7F20126C1890AB
:10065000066EE0FB7568057D0C7F20126C18900615
:1006600061E0FB7568057D0D7F20126C18900662B5
:10067000E0FB7568057D197F20126C18900663E019
:10068000FB7568057D1A7F20126C18900666E0FBEA
:100690007568057DC27F20126C18900669E0FB75B5
:1006A00068057DE27F20126C1890066CE0FB75688F
:1006B000057DD27F20126C18900666E020E01E9027
:1006C0000664E0FB7568057DC07F20126C189006FB
:1006D00065E0FB7568057DC17F20126C1890066986
:1006E000E020E01E900667E0FB7568057DE07F2056
:1006F000126C18900668E0FB7568057DE17F20129A
:100700006C1890066CE030E003020AE790066AE09D
:10071000FB7568057DD07F20126C1890066B020A6D
:10072000DB7F2112723A900671E0FB756805E4FDEB
:100730007F20126C18900683E0FB7568057D017FB1
:1007400020126C18900672E0FB7568057D027F2010
:10075000126C18900673E0FB7568057D037F20120C
:100760006C18900674E0FB7568057D047F20126CA0
:1007700018900675E0FB7568057D057F20126C18E2
:10078000900676E0FB7568057D0A7F20126C189054
:100790000684E0FB7568057D0C7F20126C189006BE
:1007A00077E0FB7568057D0D7F20126C1890067848
:1007B000E0FB7568057D197F20126C18900679E0C2
:1007C000FB7568057D1A7F20126C1890067CE0FB93
:1007D0007568057DC27F20126C1890067FE0FB755E
:1007E00068057DE27F20126C18900682E0FB756838
:1007F000057DD27F20126C1890067CE020E01E90D0
:10080000067AE0FB7568057DC07F20126C189006A3
:100810007BE0FB7568057DC17F20126C1890067F18
:10082000E020E01E90067DE0FB7568057DE07F20FE
:10083000126C1890067EE0FB7568057DE17F201242
:100840006C18900682E030E003020AE7900680E030
:10085000FB7568057DD07F20126C18900681020A16
:10086000DB7F2212723A900687E0FB756805E4FD93
:100870007F20126C18900699E0FB7568057D017F5A
:1008800020126C18900688E0FB7568057D027F20B9
:10089000126C18900689E0FB7568057D037F2012B5
:1008A0006C1890068AE0FB7568057D047F20126C49
:1008B0001890068BE0FB7568057D057F20126C188B
:1008C00090068CE0FB7568057D0A7F20126C1890FD
:1008D000069AE0FB7568057D0C7F20126C18900667
:1008E0008DE0FB7568057D0D7F20126C1890068EDB
:1008F000E0FB7568057D197F20126C1890068FE06B
:10090000FB7568057D1A7F20126C18900692E0FB3B
:100910007568057DC27F20126C18900695E0FB7506
:1009200068057DE27F20126C18900698E0FB7568E0
:10093000057DD27F20126C18900692E020E01E9078
:100940000690E0FB7568057DC07F20126C1890064C
:1009500091E0FB7568057DC17F20126C18900695AB
:10096000E020E01E900693E0FB7568057DE07F20A7
:10097000126C18900694E0FB7568057DE17F2012EB
:100980006C18900698E030E003020AE7900696E0C3
:10099000FB7568057DD07F20126C18900697020ABF
:1009A000DB7F2312723A90069DE0FB756805E4FD3B
:1009B0007F20126C189006AFE0FB7568057D017F03
:1009C00020126C1890069EE0FB7568057D027F2062
:1009D000126C1890069FE0FB7568057D037F20125E
:1009E0006C189006A0E0FB7568057D047F20126CF2
:1009F000189006A1E0FB7568057D057F20126C1834
:100A00009006A2E0FB7568057D0A7F20126C1890A5
:100A100006B0E0FB7568057D0C7F20126C1890060F
:100A2000A3E0FB7568057D0D7F20126C189006A46D
:100A3000E0FB7568057D197F20126C189006A5E013
:100A4000FB7568057D1A7F20126C189006A8E0FBE4
:100A50007568057DC27F20126C189006ABE0FB75AF
:100A600068057DE27F20126C189006AEE0FB756889
:100A7000057DD27F20126C189006A8E020E01E9021
:100A800006A6E0FB7568057DC07F20126C189006F5
:100A9000A7E0FB7568057DC17F20126C189006AB3E
:100AA000E020E01E9006A9E0FB7568057DE07F2050
:100AB000126C189006AAE0FB7568057DE17F201294
:100AC0006C189006AEE020E01E9006ACE0FB756866
:100AD000057DD07F20126C189006ADE0FB7568058F
:100AE0007DD17F20126C1822EF147003020C2014A9
:100AF0007003020D3E147003020E5C2403600302B7
:100B00000F797F2012723A7B05E4FD7F20126B186B
:100B100090065BEFF07B057D017F20126B1890063D
:100B20006DEFF07B057D027F20126B1890065CEF65
:100B3000F07B057D037F20126B1890065DEFF07B44
:100B4000057D047F20126B1890065EEFF07B057D1B
:100B5000057F20126B1890065FEFF07B057D0A7F02
:100B600020126B18900660EFF07B057D0C7F201241
:100B70006B1890066EEFF07B057D0D7F20126B18D1
:100B8000900661EFF07B057D197F20126B189006AF
:100B900062EFF07B057D1A7F20126B18900663EFE1
:100BA000F07B057DC07F20126B18900664EFF07B10
:100BB000057DC17F20126B18900665EFF07B057DE7
:100BC000C27F20126B18900666EFF07B057DE07FF8
:100BD00020126B18900667EFF07B057DE17F2012F5
:100BE0006B18900668EFF07B057DE27F20126B1892
:100BF000900669EFF07B057DD07F20126B18900680
:100C00006AEFF07B057DD17F20126B1890066BEFA9
:100C1000F07B057DD27F20126B1890066CEFF022DE
:100C20007F2112723A7B05E4FD7F20126B1890063B
:100C300071EFF07B057D017F20126B18900683EF2A
:100C4000F07B057D027F20126B18900672EFF07B1F
:100C5000057D037F20126B18900673EFF07B057DF6
:100C6000047F20126B18900674EFF07B057D057FE2
:100C700020126B18900675EFF07B057D0A7F20121D
:100C80006B18900676EFF07B057D0C7F20126B18B9
:100C9000900684EFF07B057D0D7F20126B18900687
:100CA00077EFF07B057D197F20126B18900678EFA7
:100CB000F07B057D1A7F20126B18900679EFF07B90
:100CC000057DC07F20126B1890067AEFF07B057DC2
:100CD000C17F20126B1890067BEFF07B057DC27FF1
:100CE00020126B1890067CEFF07B057DE07F2012D0
:100CF0006B1890067DEFF07B057DE17F20126B186D
:100D000090067EEFF07B057DE27F20126B18900647
:100D10007FEFF07B057DD07F20126B18900680EF6F
:100D2000F07B057DD17F20126B18900681EFF07B60
:100D3000057DD27F20126B18900682EFF0227F2271
:100D400012723A7B05E4FD7F20126B18900687EF44
:100D5000F07B057D017F20126B18900699EFF07BE8
:100D6000057D027F20126B18900688EFF07B057DD1
:100D7000037F20126B18900689EFF07B057D047FBE
:100D800020126B1890068AEFF07B057D057F2012FC
:100D90006B1890068BEFF07B057D0A7F20126B1895
:100DA00090068CEFF07B057D0C7F20126B1890066F
:100DB0009AEFF07B057D0D7F20126B1890068DEF6A
:100DC000F07B057D197F20126B1890068EEFF07B6B
:100DD000057D1A7F20126B1890068FEFF07B057D42
:100DE000C07F20126B18900690EFF07B057DC17FCD
:100DF00020126B18900691EFF07B057DC27F2012C8
:100E00006B18900692EFF07B057DE07F20126B1847
:100E1000900693EFF07B057DE17F20126B18900622
:100E200094EFF07B057DE27F20126B18900695EF22
:100E3000F07B057DD07F20126B18900696EFF07B3B
:100E4000057DD17F20126B18900697EFF07B057D12
:100E5000D27F20126B18900698EFF0227F23127237
:100E60003A7B05E4FD7F20126B1890069DEFF07B26
:100E7000057D017F20126B189006AFEFF07B057D9A
:100E8000027F20126B1890069EEFF07B057D037F9A
:100E900020126B1890069FEFF07B057D047F2012D7
:100EA0006B189006A0EFF07B057D057F20126B1874
:100EB0009006A1EFF07B057D0A7F20126B1890064B
:100EC000A2EFF07B057D0C7F20126B189006B0EF2F
:100ED000F07B057D0D7F20126B189006A3EFF07B51
:100EE000057D197F20126B189006A4EFF07B057D1D
:100EF0001A7F20126B189006A5EFF07B057DC07F4E
:100F000020126B189006A6EFF07B057DC17F2012A2
:100F10006B189006A7EFF07B057DC27F20126B183F
:100F20009006A8EFF07B057DE07F20126B189006FD
:100F3000A9EFF07B057DE17F20126B189006AAEFE8
:100F4000F07B057DE27F20126B189006ABEFF07B03
:100F5000057DD07F20126B189006ACEFF07B057DED
:100F6000D17F20126B189006ADEFF07B057DD27F0C
:100F700020126B189006AEEFF022011A004105D83E
:100F8000A04904C7534C4246363451333260810481
:100F9000D60000000000000000000000000000007B
:100FA0000000000000000000000000000000000041
:100FB0000000000000000000000000000000000031
:100FC0000000000000000000000000000000000021
:100FD0000000000000000000000000000000000011
:100FE0000000000000000000000000000000000001
:100FF00000000000000000000000000000000000F1
:1010000000000000000000000000000000000000E0
:1010100000004104D4004104C3004104D300410452
:10102000C4004104D1004104C5004104D000610066
:10103000011000000000000000000000000000009F
:1010400000000000000000000000000000000000A0
:101050000000000000000000000000000000000090
:101060000000000000000000000000000000000080
:101070000000000000000000000000000000000070
:101080000000000000000000000000000000000060
:101090000000000000000000000000000000000050
:1010A0000000000000000000000000000000000040
:1010B0000000000000000000000000000000000030
:1010C0000000000000000000000000000000000020
:1010D0000000000000000000000000000000000010
:1010E0000000000000000000000000000000000000
:1010F00000000000000000000000000000000000F0
:1011000000000000000000000000000000000000DF
:1011100000000000000000000000000000000000CF
:1011200000000000000000000000000000000000BF
:1011300000006080031500000000000000000000B7
:10114000000000000000000000000000000000009F
:10115000000000000000000000000000000000008F
:10116000000000000000000000000000000000007F
:10117000000000000000000000000000000000006F
:10118000000000000000000000000000000000005F
:10119000000000000000000000000000000000004F
:1011A000000000000000000000000000000000003F
:1011B000000000000000608000000000000000004F
:1011C000000000000000000000000000000000001F
:1011D000000000000000000000000000000000000F
:1011E00000000000000000000000000000000000FF
:1011F00000000000000000000000000000000000EF
:1012000000000000000000000000000000000000DE
:1012100000000000000000000000000000000000CE
:1012200000000000000000000000000000000000BE
:10123000000000000000000000006080008000004E
:10124000000000000000000000000000000000009E
:10125000000000000000000000000000000000008E
:10126000000000000000000000000000000000007E
:10127000000000000000000000000000000000006E
:10128000000000000000000000000000000000005E
:10129000000000000000000000000000000000004E
:1012A000000000000000000000000000000000003E
:1012B00000000000000000000000000000004202EA
:1012C0001300004102120241076B0141076C01410A
:1012D00005D70142076D000041075F00410760002C
:1012E00041075C0041075E004107590041075A0071
:1012F00041075B0041075D004107580001100002F3
:10130000090000010B00010D00010F000111000197
:101310001200010E00010C00011300410769004199
:101320000765004107680041076A00410766004100
:1013300007670001080000C0E0C0F0C083C082C0A1
:10134000D075D000C000C001C002C003C004C005F9
:10135000C006C00775210075220030C2030216A81E
:10136000E5C054F0700302143624F07003021459DF
:1013700024D0700302160424F0700302169C24305B
:1013800060030216A0C2C59004C3E5C2F0E0FF549A
:10139000FE64A06003021431EF20E00302142C90DD
:1013A00004D4E0FFC39480503CEF94754011EF9457
:1013B0007E500C74102FF582E43401F583E4F09034
:1013C00004D4E0FF2410F582E43401F583E0F5C293
:1013D000EFC3940540569004D4E0FFD3940B504CD7
:1013E000125D4F804790018FE0FFB4010D9004D44F
:1013F000E02495F582E43402802DEFB4130D9004BF
:10140000D4E02480F582E434FF801C90018FE090CA
:1014100004D4B4140AE02400F582E434008008E027
:101420002410F582E43401F583E0F5C2D2C102163E
:10143000AEC2C10216AE9004D3E024D6F582E434E5
:1014400004F583E5C2F09004D6E09004D4F0900453
:10145000D3E004F0D2C10216AEC2C49004D3E0FFC0
:10146000C3940250030215FC9004D17401F0EF14F0
:101470009004D5F09004D4E0647F600302150B90D3
:1014800004D3E06402600302150B9004D7E09001DE
:101490008FF070147B017A017990F5347535807F77
:1014A000807EC81268FB805290018FE0B4011578ED
:1014B000907C017D017B017A0379157E007F80128B
:1014C000030B803690018FE0B4131578907C017D7A
:1014D000017B017A0079007E007F8012030B801A65
:1014E00090018FE0B4141B78907C017D017B017A20
:1014F0000079807E007F8012030B9004C6E4F00226
:1015000015FC9004C67401F00215FC9004D4E0FFB1
:10151000C3947A400FEFD3947D50099004C67405AC
:10152000F00215FC9004C4E0C3940140219004D55E
:10153000E0FF7E009004D4E02410F9E43401A80117
:10154000FC7D017B017A0479D712030B801990048A
:10155000D4E0FFB41A119004D7E0FE74102FF58286
:10156000E43401F583EEF090018FE0640170409067
:1015700004D4E0FFC394E94036EFD394FE5030A387
:10158000E0FF7E009004D4E02410F9E43401A801C7
:10159000FC7D017B017A0479D712030B787E7C03F2
:1015A0007D017B017A0179F97E007F1612030B9091
:1015B000018FE06413703F9004D4E0FFD3948F4018
:1015C0003BA3E0F58275830074102FF9E43401A881
:1015D00001FC7D017B017A0479D77E00AF82120382
:1015E0000B78107C007D017B017A0179A07E007F61
:1015F0006F12030B80069004C67407F09004D3E4C6
:10160000F00216AE20C1030216AE9004D4E004F03E
:10161000E0FFC39480503CEF94754011EF947F50ED
:101620000C74102FF582E43401F583E4F09004D4B7
:10163000E0FF2410F582E43401F583E0F5C2EFC346
:101640009406406A9004D4E0FFD3940B5060125D7E
:101650004F805B90018FE0FFB4010D9004D4E02433
:1016600095F582E43402802DEFB4130D9004D4E09C
:101670002480F582E434FF801C90018FE09004D434
:10168000B4140AE02400F582E434008008E0241059
:10169000F582E43401F583E0F5C28012C2C4800E05
:1016A00053C17F43C1808000C2C5C2C4C2C1C2C091
:1016B000D007D006D005D004D003D002D001D0008E
:1016C000D0D0D082D083D0F0D0E032E4FB7F018D47
:1016D000328B33AA079006D8120421000000009034
:1016E00006DC120421000000009006E01204210034
:1016F0000000009006E412042100000000E49006BF
:10170000E8F0A3F0E532C4333354C0FEE42448FFCC
:10171000EE3434FEE433FDE43458FC9006D8120471
:1017200015E532C4333354C0FEE424A4FFEE342163
:10173000FEE433FDE43458FC9006DC120415E53277
:10174000C4333354C0FEE42440FFEE3428FEE433B7
:10175000FDE43458FC9006E0120415E532C433333E
:1017600054C0FEE42498FFEE3421FEE433FDE4345B
:1017700058FC9006E4120415EA70030218F4E533ED
:1017800070030218359006D8E0FCA3E0FDA3E0FE4C
:10179000A3E0FFE4F5571254CB9006E8EEF0FAA36D
:1017A000EFF0FB9006D8E0FCA3E0FDA3E0FEA3E091
:1017B000FF8A57EB54FDF558755900755A04E4F546
:1017C0005B12501A9006D8E0FCA3E0FDA3E0FEA354
:1017D000E0FFE4F5571254CB9006E8EEF0FAA3EFE1
:1017E000F0FB9006D8E0FCA3E0FDA3E0FEA3E0FF41
:1017F0008A57EB54FEF558755900755A04E4F55BA9
:1018000012501A9006DCE0FCA3E0FDA3E0FEA3E08A
:10181000FFE4F5571254CB9006E8EEF0FAA3EFF090
:10182000FB9006DCE0FCA3E0FDA3E0FEA3E0FFEA02
:1018300054BF0219699006DCE0FCA3E0FDA3E0FEC2
:10184000A3E0FFE4F5571254CB9006E8EEF0FAA3BC
:10185000EFF0FB9006DCE0FCA3E0FDA3E0FEA3E0DC
:10186000FFEA4440F5578B58755900755A04E4F562
:101870005B12501A7B047A007D047C80AF32123AEE
:10188000BF9006D8E0FCA3E0FDA3E0FEA3E0FFE4E8
:10189000F5571254CB9006E8EEF0FAA3EFF0FB9068
:1018A00006D8E0FCA3E0FDA3E0FEA3E0FF8A57EB2F
:1018B0004402F558755900755A04E4F55B12501A44
:1018C0009006D8E0FCA3E0FDA3E0FEA3E0FFE4F572
:1018D000571254CB9006E8EEF0FAA3EFF0FB900617
:1018E000D8E0FCA3E0FDA3E0FEA3E0FF8A57EB44B1
:1018F00001021A03E53370030219869006E0E0FC4A
:10190000A3E0FDA3E0FEA3E0FFE4F5571254CB9063
:1019100006E8EEF0FAA3EFF0FB9006E0E0FCA3E0AF
:10192000FDA3E0FEA3E0FF8A57EB4420F55875596C
:1019300000755A04E4F55B12501A9006E4E0FCA32B
:10194000E0FDA3E0FEA3E0FFE4F5571254CB9006C0
:10195000E8EEF0FAA3EFF0FB9006E4E0FCA3E0FD74
:10196000A3E0FEA3E0FFEA547FF5578B58755900BA
:10197000755A04E4F55B12501A7B047A007D047CEE
:1019800080AF32023ABF9006E4E0FCA3E0FDA3E0A2
:10199000FEA3E0FFE4F5571254CB9006E8EEF0FA10
:1019A000A3EFF0FB9006E4E0FCA3E0FDA3E0FEA3C0
:1019B000E0FFEA4480F5578B58755900755A04E4E6
:1019C000F55B12501A7B047A007D047C80AF3212E2
:1019D0003ABF9006E0E0FCA3E0FDA3E0FEA3E0FF39
:1019E000E4F5571254CB9006E8EEF0FAA3EFF0FBC3
:1019F0009006E0E0FCA3E0FDA3E0FEA3E0FF8A5731
:101A0000EB54DFF558755900755A04E4F55B125034
:101A10001A2285A72E90018FE01204521A44001A50
:101A200076011A9C821B30851B43861B69871B8F9E
:101A30008A1C32901C96911C77921CB1B01CCDD0A0
:101A400000001D0A9004C4E0C394015003021D0A63
:101A50007B017A0179107535007536807F007EC86C
:101A60001268B37B017A0179907534007535807FF7
:101A7000807EC8026A129004C4E0C394015003023D
:101A80001D0A7B017A0179907535007536807F00DB
:101A90007ECA1268B378157C03021C879004C4E0E8
:101AA000D394015003021D0A9004D4E094F84057E7
:101AB00090020FE064016003021D0A900208E090AA
:101AC00005CFF0900209E09005D0F090020EE0FF03
:101AD0009005D5F0BF01149005CFE0FD7B057F1C7C
:101AE000126B189005D0EFF0021C039005D5E06052
:101AF00003021C039005CFE0FDA3E0FB7568057FA2
:101B00001C126C18021C037B017A01799075350058
:101B10007536807F007ED41268B378577C057D01CE
:101B20007B017A0179907E007F8012030B0272C1E3
:101B30009004C4E0D394015003021D0A78D97C05B7
:101B4000021C879004C4E0D394015003021D0A7B59
:101B5000017A0179907535007536807F007ED81244
:101B600068B378C57C03021C879004C4E0D3940159
:101B70005003021D0A7B017A017990753500753694
:101B8000807F007EDA1268B378437C04021C879061
:101B900004C4E0D394015003021D0A9004D4E094DD
:101BA000F8406690020FE064016003021D0A900293
:101BB00008E09006D0F0900209E09006D1F0900283
:101BC0000EE0FF9006D6F0BF011B90020AE0FF1264
:101BD000723A9006D0E0FD7B047F20126B189006CD
:101BE000D1EFF0801E9006D6E0701890020AE0FF58
:101BF00012723A9006D0E0FDA3E0FB7568047F20E6
:101C0000126C18E490020FF0227B017A0179907532
:101C100035007536807F007ED61268B378587C0612
:101C20007D017B017A0179907E007F8012030B0297
:101C3000707D9004C4E0D394015003021D0A78081B
:101C40007C027D017B017A02798D7E007F08120380
:101C50000B7B017A0179907535007536807F007EA7
:101C6000D01268B37B017A0279157534007535801E
:101C70007F007ED00268FB9004C4E0D3940150033F
:101C8000021D0A78957C027D017B017A0179907EA4
:101C9000007F8002030B9004C4E0D39401406B7B6F
:101CA000017A0179907535007536807F007ED2808B
:101CB000199004C4E0D3940140507B017A017990DB
:101CC0007535007536807F007EF60268B39004C4D7
:101CD000E0D3940140349004D4E06424702C900448
:101CE000D7E064117024A3E06422701EA3E0B43333
:101CF00019A3E0B45514A3E0B4660FA3E0B4550AE9
:101D0000780076A5E4F5A775EF12228F2F8D30E4C9
:101D1000F534F533F532F531F538F537F536F53577
:101D2000F53CF53BF53AF539F540F53FF53EF53D27
:101D3000F544F543F542F541F548F547F546F545D7
:101D4000F54CF54BF54AF549F54DF54EFCFDFEFB1E
:101D5000FA7910F81203A4EF2484F534EE3445F533
:101D600033ED3403F532EC3450F531AF2FE4FCFDA4
:101D7000FEFBFA7910F81203A4EF2488F538EE344C
:101D800045F537ED3403F536EC3450F535AF2FE437
:101D9000FCFDFEFBFA7910F81203A4EF2458F53C81
:101DA000EE3402F53BE43DF53AEC3450F539AF2F13
:101DB000E4FCFDFEFBFA7910F81203A4E42FF540D1
:101DC000EE344AF53FED3403F53EEC3450F53DAFCB
:101DD0002FE4FCFDFEFBFA7910F81203A4EF24C4F3
:101DE000F544EE3444F543ED3403F542EC3450F55C
:101DF00041E52FC4333354C0FEE42480F548EE346B
:101E000036F547E433F546E43458F545AF2FE4FCA6
:101E1000FDFEFBFA7910F81203A4EF24B0F54CEEA6
:101E20003445F54BED3403F54AEC3450F549E530D3
:101E30007003021F27AF34AE33AD32AC31E4F55737
:101E40001254CB8E4D8F4EAF34AE33AD32AC3185A4
:101E50004D57E54E4480F558755900755A04E4F520
:101E60005B12501AAF38AE37AD36AC35E4F55712C9
:101E700054CB8E4D8F4EAF38AE37AD36AC35854D29
:101E800057E54E4401F558755900755A04E4F55B61
:101E900012501AAF3CAE3BAD3AAC39E4F557125490
:101EA000CB8E4D8F4EAF40AE3FAD3EAC3DE4F557CF
:101EB0001254CB8E4D8F4EAF40AE3FAD3EAC3D8504
:101EC0004D57E54E54DFF558755900755A04E4F541
:101ED0005B12501AAF44AE43AD42AC41E4F5571229
:101EE00054CB8E4D8F4EAF44AE43AD42AC41854D89
:101EF00057E54E54FEF558755900755A04E4F55BE4
:101F000012501AAF48AE47AD46AC45E4F5571254EF
:101F1000CB8E4D8F4EAF48AE47AD46AC45854D5745
:101F2000E54E4401021FC57B247A007D247C80AFEE
:101F30002F123ABFAF34AE33AD32AC31E4F55712A5
:101F400054CB8E4D8F4EAF34AE33AD32AC31854D68
:101F500057E54E547FF558755900755A04E4F55B02
:101F600012501AAF38AE37AD36AC35E4F5571254CF
:101F7000CB8E4D8F4EAF38AE37AD36AC35854D5725
:101F8000E54E54FEF558755900755A04E4F55B1298
:101F9000501AAF4CAE4BAD4AAC49E4F5571254CB96
:101FA0008E4D8F4EAF48AE47AD46AC45E4F5571267
:101FB00054CB8E4D8F4EAF48AE47AD46AC45854DA8
:101FC00057E54E54FEF558755900755A04E4F55B13
:101FD00012501A228F33E4F534F535E5336401707D
:101FE0007EF5577F0C7E11FD7C581254CB8E348FBA
:101FF00035E53530E422900401E07002A3E060038F
:10200000022259F5577F987E21FD7C581254CB8EC1
:10201000368F375337FE8021900401E07002A3E031
:102020007003022259E4F5577F987E21FD7C5812F7
:1020300054CB8E368F3743370185365785375875E1
:102040005900755A04E4F55B7F987E21FD7C581297
:10205000501A7B047A007D047C80E4FF022256E55E
:10206000336402600302210AF5577F0C7E51FD7C28
:10207000581254CB8E348F35E53530E44690040346
:10208000E07002A3E06003022259F5577F987E6159
:10209000FD7C581254CB8E368F3743370185365727
:1020A000853758755900755A04E4F55B7F987E6151
:1020B000FD7C5812501A7B047A007D047C807F01DD
:1020C000022256900403E07002A3E070030222593A
:1020D000E4F5577F987E61FD7C581254CB8E368F85
:1020E000375337FE853657853758755900755A046A
:1020F000E4F55B7F987E61FD7C5812501A7B047A70
:10210000007D047C807F01022256E5336403600376
:102110000221B5F5577F0C7E91FD7C581254CB8E71
:10212000348F35E53530E446900405E07002A3E0D5
:102130006003022259F5577F987EA1FD7C58125406
:10214000CB8E368F375337FE8536578537587559BE
:1021500000755A04E4F55B7F987EA1FD7C5812500F
:102160001A7B047A007D047C807F02022256900450
:1021700005E07002A3E07003022259E4F5577F984E
:102180007EA1FD7C581254CB8E368F3743370185A4
:102190003657853758755900755A04E4F55B7F98B2
:1021A0007EA1FD7C5812501A7B047A007D047C804D
:1021B0007F02022256E53364046003022259F55778
:1021C0007F0C7ED1FD7C581254CB8E348F35E53593
:1021D00030E442900407E07002A3E0707CF5577F82
:1021E000987EE1FD7C581254CB8E368F37433701F1
:1021F000853657853758755900755A04E4F55B7F65
:10220000987EE1FD7C5812501A7B047A007D047C94
:10221000807F038041900407E07002A3E0603AE40D
:10222000F5577F987EE1FD7C581254CB8E368F3760
:102230005337FE853657853758755900755A04E46B
:10224000F55B7F987EE1FD7C5812501A7B047A0082
:102250007D047C807F03123ABF22E4FB7F018F3232
:102260008D338B349006D8120421000000009006B4
:10227000DC12042100000000E49006E0F0A3F0AFBF
:1022800033FCFDFEFBFA7910F81203A4E42FFFEEF5
:10229000344AFEED3403FDEC3450FC9006D81204B1
:1022A00015E533C4333354C0FEE42490FFEE3421EB
:1022B000FEE433FDE43458FC9006DC120415E534EA
:1022C00070030223C39006D8E0FCA3E0FDA3E0FE68
:1022D000A3E0FFE4F5571254CB9006E0EEF0A3EF35
:1022E000F0E5326006E054EFF080079006E1E0543C
:1022F000DFF09006D8E0FCA3E0FDA3E0FEA3E0FF42
:102300009006E0E0F557A3E0F558755900755A04BA
:10231000E4F55B12501A9006D8E0FCA3E0FDA3E0C0
:10232000FEA3E0FFE4F5571254CB9006E0EEF0A3D5
:10233000EFF0E5326006E04408F080079006E1E047
:102340004404F09006D8E0FCA3E0FDA3E0FEA3E087
:10235000FF9006E0E0F557A3E0F558755900755A6F
:1023600004E4F55B12501A9006DCE0FCA3E0FDA348
:10237000E0FEA3E0FFE4F5571254CB9006E0EEF048
:10238000A3EFF0E5329006E06006E054BFF0800471
:10239000E0547FF09006DCE0FCA3E0FDA3E0FEA3A8
:1023A000E0FFA3E0F557A3E0F558755900755A040E
:1023B000E4F55B12501A7B037A007D037C80AF3317
:1023C000023ABF9006DCE0FCA3E0FDA3E0FEA3E040
:1023D000FFE4F5571254CB9006E0EEF0A3EFF0E5E2
:1023E000329006E06005E044408003E04480F0A3C2
:1023F000E0F09006DCE0FCA3E0FDA3E0FEA3E0FF3C
:10240000A3E0F557A3E0F558755900755A04E4F5B3
:102410005B12501A7B037A007D037C80AF33123A43
:10242000BF9006D8E0FCA3E0FDA3E0FEA3E0FFE43C
:10243000F5571254CB9006E0EEF0A3EFF0E53260D2
:1024400006E054F7F080079006E1E054FBF09006B8
:10245000D8E0FCA3E0FDA3E0FEA3E0FF9006E0E0EF
:10246000F557A3E0F558755900755A04E4F55B1269
:10247000501A9006D8E0FCA3E0FDA3E0FEA3E0FF25
:10248000E4F5571254CB9006E0EEF0A3EFF0E532FE
:102490006006E04410F080079006E1E04420F090F0
:1024A00006D8E0FCA3E0FDA3E0FEA3E0FF9006E079
:1024B000E0F557A3E0F558755900755A04E4F55B4B
:1024C00012501A227B05E4FD7F1C126B18900557F1
:1024D000EFF07B057D017F1C126B18900558EFF023
:1024E0007B057D177F1C126B18900559EFF07B055B
:1024F0007D187F1C126B1890055AEFF07B057D1A32
:102500007F1C126B1890055BEFF07B057D037F1C31
:10251000126B18900563EFF07B057D057F1C126B35
:1025200018900565EFF07B057D107F1C126B1890ED
:102530000566EFF07B057D167F1C126B1890056712
:10254000EFF07B057D197F1C126B18900568EFF08A
:102550007B057D1B7F1C126B18900569EFF07B05D6
:102560007D1C7F1C126B1890056AEFF07B057D1DAA
:102570007F1C126B1890056BEFF07B057D217F1C93
:10258000126B1890056DEFF07B057D227F1C126B9E
:102590001890056EEFF07B057D257F1C126B18905F
:1025A000056FEFF07B057D267F1C126B1890057080
:1025B000EFF07B057D277F1C126B18900571EFF003
:1025C0007B057D287F1C126B18900572EFF07B0550
:1025D0007D407F1C126B18900574EFF07B057D41E8
:1025E0007F1C126B18900575EFF07B057D427F1CF8
:1025F000126B18900576EFF07B057D437F1C126B04
:1026000018900577EFF07B057D447F1C126B1890C6
:102610000578EFF07B057D457F1C126B18900579DE
:10262000EFF07B057D467F1C126B1890057AEFF06A
:102630007B057D477F1C126B1890057BEFF07B05B7
:102640007D487F1C126B1890057CEFF07B057D495F
:102650007F1C126B1890057DEFF07B057D4A7F1C77
:10266000126B1890057EEFF07B057D4B7F1C126B83
:102670001890057FEFF07B057D4C7F1C126B189046
:102680000580EFF07B057D4D7F1C126B1890058156
:10269000EFF07B057D4F7F1C126B18900582EFF0E9
:1026A0007B057D507F1C126B18900583EFF07B0536
:1026B0007D517F1C126B18900584EFF07B057D52D5
:1026C0007F1C126B18900585EFF07B057D5E7F1CEB
:1026D000126B18900587EFF07B057D5F7F1C126BF6
:1026E00018900588EFF07B057D607F1C126B1890B9
:1026F0000589EFF07B057D627F1C126B1890058ABF
:10270000EFF07B057D917F1C126B1890058CEFF02C
:102710007B057D927F1C126B1890058DEFF0228F48
:1027200033E5336401703B124FFE124FFE124FFE31
:1027300090040BE0F557A3E0F558755900755A045D
:10274000E4F55B7F2C12501590040BE0F557A3E0E5
:10275000F558755900755A04E4F55B7F2C7E180214
:102760002936E533640260030227FF90040DE0443C
:1027700080F557A3E0F558755900755A04E4F55BE8
:102780007F287E58FD7C5812501A90040DE044803A
:10279000F557A3E0F558755900755A04E4F55B7FC9
:1027A000287E58FD7C5812501A90040DE04480F5A4
:1027B00057A3E0F558755900755A04E4F55B7F2876
:1027C0007E58FD7C5812501A90040FE0F557A3E094
:1027D000F558755900755A04E4F55B7F2C7E58FD59
:1027E0007C5812501A90040FE0F557A3E0F5587585
:1027F0005900755A04E4F55B7F2C7E58022936E5B2
:10280000336403600302289C900411E04480F55770
:10281000A3E0F558755900755A04E4F55B7F287EEE
:1028200098FD7C5812501A900411E04480F557A38B
:10283000E0F558755900755A04E4F55B7F287E98D9
:10284000FD7C5812501A900411E04480F557A3E023
:10285000F558755900755A04E4F55B7F287E98FD9C
:102860007C5812501A900413E0F557A3E0F5587500
:102870005900755A04E4F55B7F2C7E98FD7C581254
:10288000501A900413E0F557A3E0F55875590075F8
:102890005A04E4F55B7F2C7E98022936E533640404
:1028A000600302293C900415E04480F557A3E0F54D
:1028B00058755900755A04E4F55B7F287ED8FD7C75
:1028C0005812501A900415E04480F557A3E0F558CB
:1028D000755900755A04E4F55B7F287ED8FD7C5855
:1028E00012501A900415E04480F557A3E0F558758E
:1028F0005900755A04E4F55B7F287ED8FD7C581298
:10290000501A900417E0F557A3E0F5587559007573
:102910005A04E4F55B7F2C7ED8FD7C5812501A9047
:102920000417E0F557A3E0F558755900755A04E40B
:10293000F55B7F2C7ED8FD7C5812501A228F2FAB6E
:10294000059006D8120421000000009006DC120455
:1029500021000000009006E012042100000000E4C5
:102960009006E4F0A3F0E52FC4333354C0FEE42412
:1029700008FFEE3410FEE433FDE43458FC9006D832
:10298000120415E52FC4333354C0FEE42400FFEED7
:102990003430FEE433FDE43458FC9006DC120415B8
:1029A000E52FC4333354C0FEE42494FFEE3421FEFB
:1029B000E433FDE43458FC9006E0120415EB700398
:1029C000022A909006D8E0FCA3E0FDA3E0FEA3E07D
:1029D000FFE4F5571254CB9006E4EEF0FAA3EFF0C3
:1029E000FB9006D8E0FCA3E0FDA3E0FEA3E0FFEA35
:1029F0004480F5578B58755900755A04E4F55B12FD
:102A0000501A9006DCE0FCA3E0FDA3E0FEA3E0FF8B
:102A1000E4F5571254CB9006E4EEF0FAA3EFF0FB86
:102A20009006DCE0FCA3E0FDA3E0FEA3E0FF8A57F4
:102A3000EB4408F558755900755A04E4F55B1250DB
:102A40001A9006E0E0FCA3E0FDA3E0FEA3E0FFE4B3
:102A5000F5571254CB9006E4EEF0FAA3EFF0FB909A
:102A600006E0E0FCA3E0FDA3E0FEA3E0FF8A57EB55
:102A70004410F558755900755A04E4F55B12501A64
:102A8000123AB57B207A007D207C80AF2F023ABFBE
:102A90007B237D23123AB99006E0E0FCA3E0FDA37E
:102AA000E0FEA3E0FFE4F5571254CB9006E4EEF00D
:102AB000FAA3EFF0FB9006E0E0FCA3E0FDA3E0FE4C
:102AC000A3E0FF8A57EB54EFF558755900755A0487
:102AD000E4F55B12501A123AB59006D8E0FCA3E078
:102AE000FDA3E0FEA3E0FFE4F5571254CB9006E40B
:102AF000EEF0FAA3EFF0FB9006D8E0FCA3E0FDA314
:102B0000E0FEA3E0FFEA547FF5578B587559007536
:102B10005A04E4F55B12501A9006DCE0FCA3E0FDD9
:102B2000A3E0FEA3E0FFE4F5571254CB9006E4EED9
:102B3000F0FAA3EFF0FB9006DCE0FCA3E0FDA3E0DD
:102B4000FEA3E0FF8A57EB54F7F558755900755A04
:102B500004E4F55B12501A22900563E0FB756805EA
:102B60007D037F1C126C18900565E0FB7568057D80
:102B7000057F1C126C18900566E0FB7568057D10DA
:102B80007F1C126C18900567E0FB7568057D167F49
:102B90001C126C18900568E0FB7568057D197F1C98
:102BA000126C18900569E0FB7568057D1B7F1C128F
:102BB0006C1890056AE0FB7568057D1C7F1C126C23
:102BC000187568057B7F7D1D7F1C126C1890056D44
:102BD000E0FB7568057D217F1C126C1890056EE086
:102BE000FB7568057D227F1C126C1890056FE0FB59
:102BF0007568057D257F1C126C18900570E0FB75CB
:102C000068057D267F1C126C18900571E0FB7568C5
:102C1000057D277F1C126C18900572E0FB75680516
:102C20007D287F1C126C18900574E0FB7568057D8B
:102C3000407F1C126C18900575E0FB7568057D419E
:102C40007F1C126C1890057EE0FB7568057D4A7F3D
:102C50001C126C1890057FE0FB7568057D4B7F1C8E
:102C6000126C18900580E0FB7568057D4C7F1C1286
:102C70006C18900581E0FB7568057D4D7F1C126C1A
:102C800018900582E0FB7568057D4F7F1C126C185B
:102C9000900583E0FB7568057D507F1C126C1890D1
:102CA0000584E0FB7568057D517F1C126C1890054A
:102CB00085E0FB7568057D527F1C126C18900587B6
:102CC000E0FB7568057D5E7F1C126C18900588E03E
:102CD000FB7568057D5F7F1C126C18900576E0FB24
:102CE0007568057D427F1C126C18900577E0FB75B6
:102CF00068057D437F1C126C18900578E0FB7568B1
:102D0000057D447F1C126C18900579E0FB75680501
:102D10007D457F1C126C1890057AE0FB7568057D77
:102D2000467F1C126C1890057BE0FB7568057D479B
:102D30007F1C126C1890057CE0FB7568057D487F50
:102D40001C126C1890057DE0FB7568057D497F1CA1
:102D5000026C188F338D349006D8120421000000C5
:102D6000009006DC12042100000000E49006E0F070
:102D7000A3F0AF33FCFDFEFB7A40F9F81203A4EF99
:102D80002498FFEE3421FEE43DFDEC3458FC90061F
:102D9000D8120415AF33E4FCFDFEFB7A40F9F812BB
:102DA00003A4EF2480FFEE3410FEE43DFDEC345824
:102DB000FC9006DC120415E5349006D87003022E50
:102DC0007DE0FCA3E0FDA3E0FEA3E0FFE4F55712E5
:102DD00054CB9006E0EEF0FAA3EFF0FB9006D8E0BB
:102DE000FCA3E0FDA3E0FEA3E0FFEA4480F5578BDF
:102DF00058755900755A04E4F55B12501A7B047A31
:102E0000007D047C80AF33123ABF9006DCE0FCA367
:102E1000E0FDA3E0FEA3E0FFE4F5571254CB9006DB
:102E2000E0EEF0FAA3EFF0FB9006DCE0FCA3E0FD9F
:102E3000A3E0FEA3E0FF8A57EB4402F55875590062
:102E4000755A04E4F55B12501A9006DCE0FCA3E02E
:102E5000FDA3E0FEA3E0FFE4F5571254CB9006E09B
:102E6000EEF0FAA3EFF0FB9006DCE0FCA3E0FDA39C
:102E7000E0FEA3E0FF8A57EB4401022F36E0FCA3FB
:102E8000E0FDA3E0FEA3E0FFE4F5571254CB90066B
:102E9000E0EEF0FAA3EFF0FB9006D8E0FCA3E0FD33
:102EA000A3E0FEA3E0FFEA547FF5578B5875590065
:102EB000755A04E4F55B12501A7B047A007D047C99
:102EC00080AF33123ABF9006DCE0FCA3E0FDA3E044
:102ED000FEA3E0FFE4F5571254CB9006E0EEF0FAC3
:102EE000A3EFF0FB9006DCE0FCA3E0FDA3E0FEA373
:102EF000E0FF8A57EB54FDF558755900755A04E404
:102F0000F55B12501A9006DCE0FCA3E0FDA3E0FEA6
:102F1000A3E0FFE4F5571254CB9006E0EEF0FAA3DD
:102F2000EFF0FB9006DCE0FCA3E0FDA3E0FEA3E0F5
:102F3000FF8A57EB54FEF558755900755A04E4F5AD
:102F40005B12501A228F33E4F534F535F536F53738
:102F5000E53364017065F5577FCC7E35FD7C5812F2
:102F600054CB8E348F35E53530E0169003F9E070A0
:102F700002A3E070461254C28E368F374337018069
:102F8000149003F9E07002A3E060301254C18E3651
:102F90008F375337FE853657853758755900755A20
:102FA00004E4F55B7FA47E21FD7C5812501A7B045B
:102FB0007A007D047C80E4FF123ABFE5336402703E
:102FC00078F5577FCC7E75FD7C581254CB8E348FAC
:102FD00035E53530E01F9003FBE07002A3E0705947
:102FE000F5577FA47E61FD7C581254CB8E368F3707
:102FF0005337FE801E9003FBE07002A3E0603AE4CA
:10300000F5577FA47E61FD7C581254CB8E368F37E6
:10301000433701853657853758755900755A04E48A
:10302000F55B7FA47E61FD7C5812501A7B047A0008
:103030007D047C807F01123ABFE53364037078F52C
:10304000577FCC7EB5FD7C581254CB8E348F35E53E
:103050003530E01F9003FDE07002A3E07059F55792
:103060007FA47EA1FD7C581254CB8E368F37433718
:1030700001801E9003FDE07002A3E0603AE4F55782
:103080007FA47EA1FD7C581254CB8E368F375337E8
:10309000FE853657853758755900755A04E4F55B37
:1030A0007FA47EA1FD7C5812501A7B047A007D0417
:1030B0007C807F02123ABFE53364047078F5577F55
:1030C000CC7EF5FD7C581254CB8E348F35E53530EF
:1030D000E01F9003FFE07002A3E07059F5577FA452
:1030E0007EE1FD7C581254CB8E368F375337FE80ED
:1030F0001E9003FFE07002A3E0603AE4F5577FA45E
:103100007EE1FD7C581254CB8E368F3743370185D4
:103110003657853758755900755A04E4F55B7FA416
:103120007EE1FD7C5812501A7B047A007D047C807D
:103130007F03123ABF228F338D349006D8120421B8
:10314000000000009006DC12042100000000900640
:10315000E0120421000000009006E41204210000A7
:103160000000E49006E8F0A3F0AF33FCFDFEFB7A2C
:1031700040F9F81203A4EF24A4FFEE3421FEE43D4D
:10318000FDEC3458FC9006D8120415AF33E4FCFD76
:10319000FEFB7A40F9F81203A4EF24C0FFEE3434AA
:1031A000FEE43DFDEC3458FC9006DC120415AF3310
:1031B000E4FCFDFEFB7A40F9F81203A4EF24A4FF1F
:1031C000EE3410FEE43DFDEC3458FC9006E01204B1
:1031D00015AF33E4FCFDFEFB7A40F9F81203A4EFCF
:1031E0002480FFEE3436FEE43DFDEC3458FC9006BE
:1031F000E4120415E5349006D86049E0FCA3E0FD34
:10320000A3E0FEA3E0FFE4F5571254CB9006E8EEEE
:10321000F0FAA3EFF0FB9006D8E0FCA3E0FDA3E0FA
:10322000FEA3E0FFEA4480F5578B58755900755AA4
:1032300004E4F55B12501A7B047A007D047C80AFB5
:1032400033023ABFE0FCA3E0FDA3E0FEA3E0FFE40D
:10325000F5571254CB9006E8EEF0FAA3EFF0FB908E
:1032600006D8E0FCA3E0FDA3E0FEA3E0FFEA547F64
:10327000F5578B58755900755A04E4F55B12501ACE
:103280007B047A007D047C80AF33123ABF9006DC69
:10329000E0FCA3E0FDA3E0FEA3E0FFE4F557125439
:1032A000CB9006E8EEF0FAA3EFF0FB9006DCE0FC32
:1032B000A3E0FDA3E0FEA3E0FF8A57EB54FEF55820
:1032C000755900755A04E4F55B12501A9006E0E057
:1032D000FCA3E0FDA3E0FEA3E0FFE4F5571254CB0E
:1032E0009006E4E0FCA3E0FDA3E0FEA3E0FFE4F52C
:1032F000571254CB9006DCE0FCA3E0FDA3E0FEA354
:10330000E0FFE4F5571254CB2285A72EE51024FEEA
:10331000601F24FE604D24FE70030233A224B170AE
:103320000302341D24556003023496126BD8023414
:1033300096E50DB4010C90012AE030E603023496C4
:103340008014900766E07008751004AF10FE800DC1
:10335000309203023496751004AF107E001272088A
:10336000023496900766E07012A3E0700EFF1270B0
:1033700062AF0F12492B7F01127062751006AF10F9
:103380007E00127208E4900766F0A3F090037EE0DE
:103390005403600690076A023440E490076AF00222
:1033A000349690076AE0700B1260C37F041271F9C3
:1033B000023496900382E0543060051253D18007A6
:1033C000E490015BF0A3F0E508B4010312711E90D4
:1033D000037EE06003023496900382F0E508640106
:1033E0007024FF127062126641AF0F12492B7F01E9
:1033F000127062E490076AF01260C37F041271F9E0
:10340000E4F50802349675105574011260C77F0404
:103410001271F990015B7411F0A3F08079E50D70E1
:1034200024309272751002AF10FE1272087F0112E2
:1034300071F9E4FD0F126E657F301260CD90076662
:103440007401F0805190037EE06403702D90076753
:10345000E070107F301260CD7F011271F9E4FD0F32
:10346000126E659007677401F090012AE030E60A59
:10347000751002AF107E0012720890037EE0701685
:10348000900767E0B4010FE4FF1260CD7F04127172
:10349000F9E4900767F0900768E06003126943E57C
:1034A00010640660157F0D126FF3EF25E0FFEE3319
:1034B000FE1271A6126EBB12647BE510B455189013
:1034C0000766E07012A3E0700E90037FE0FF1260C9
:1034D000CD12711E12722E0271B78F34E534640161
:1034E0007061F5577FCC7E447D037C501254CB8EA7
:1034F000358F3690046BE04408F557A3E0F5587516
:103500005900755A04E4F55B7FCC7E447D037C5002
:1035100012501AE4F5577FCC7E447D037C50125440
:10352000CB8E358F3690046BE054F7F557A3E0F55A
:1035300058755900755A04E4F55B7FCC7E447D03D1
:10354000023674E53464027061F5577FCC7E447DA9
:10355000137C501254CB8E358F3690046DE04408A6
:10356000F557A3E0F558755900755A04E4F55B7FEB
:10357000CC7E447D137C5012501AE4F5577FCC7EEC
:10358000447D137C501254CB8E358F3690046DE001
:1035900054F7F557A3E0F558755900755A04E4F54A
:1035A0005B7FCC7E447D13023674E5346403706027
:1035B000F5577FCC7E447D237C501254CB8E358FC3
:1035C0003690046FE04408F557A3E0F558755900AC
:1035D000755A04E4F55B7FCC7E447D237C50125009
:1035E0001AE4F5577FCC7E447D237C501254CB8E59
:1035F000358F3690046FE054F7F557A3E0F5587512
:103600005900755A04E4F55B7FCC7E447D238064C9
:10361000E53464047063F5577FCC7E447D337C5081
:103620001254CB8E358F36900471E04408F557A3C1
:10363000E0F558755900755A04E4F55B7FCC7E447B
:103640007D337C5012501AE4F5577FCC7E447D3395
:103650007C501254CB8E358F36900471E054F7F5C0
:1036600057A3E0F558755900755A04E4F55B7FCC13
:103670007E447D337C5012501A228F34E53464012D
:10368000705CF5577FCC7E34FD7C581254CB8E3560
:103690008F369003F1E04408F557A3E0F5587559CB
:1036A00000755A04E4F55B7FCC7E34FD7C581250E3
:1036B0001AE4F5577FCC7E34FD7C581254CB8E35FE
:1036C0008F369003F1E054F7F557A3E0F55875599C
:1036D00000755A04E4F55B7FCC7E34023800E53493
:1036E0006402705CF5577FCC7E74FD7C581254CB1D
:1036F0008E358F369003F3E04408F557A3E0F55874
:10370000755900755A04E4F55B7FCC7E74FD7C58D6
:1037100012501AE4F5577FCC7E74FD7C581254CBBE
:103720008E358F369003F3E054F7F557A3E0F55844
:10373000755900755A04E4F55B7FCC7E740238003D
:10374000E5346403705BF5577FCC7EB4FD7C581282
:1037500054CB8E358F369003F5E04408F557A3E03F
:10376000F558755900755A04E4F55B7FCC7EB4FDBD
:103770007C5812501AE4F5577FCC7EB4FD7C581269
:1037800054CB8E358F369003F5E054F7F557A3E010
:10379000F558755900755A04E4F55B7FCC7EB4800A
:1037A0005FE5346404705FF5577FCC7EF4FD7C5890
:1037B0001254CB8E358F369003F7E04408F557A3AB
:1037C000E0F558755900755A04E4F55B7FCC7EF43A
:1037D000FD7C5812501AE4F5577FCC7EF4FD7C58DE
:1037E0001254CB8E358F369003F7E054F7F557A37C
:1037F000E0F558755900755A04E4F55B7FCC7EF40A
:10380000FD7C5812501A228F338C348D359006D897
:1038100012042100000000E49006DCF0A3F0E53380
:10382000C4333354C0FEE424C4FFEE3435FEE43325
:10383000FDE43458FC9006D8120415EB70030238EE
:10384000F99006D8E0FCA3E0FDA3E0FEA3E0FF852D
:103850003457853558755900755A04E4F55B125094
:103860001A9006D8E0FCA3E0FDA3E0FEA3E0FFE48D
:10387000F5571254CB9006DCEEF0A3EFF09006D88B
:10388000E0FCA3E0FDA3E0FEA3E0FF85345785350F
:1038900058755900755A04E4F55B12501A9006D811
:1038A000E0FCA3E0FDA3E0FEA3E0FFE4F557125423
:1038B000CB9006DCEEF0A3EFF07B217A007D217C3B
:1038C00080AF33123ABF9006D8E0FCA3E0FDA3E03E
:1038D000FEA3E0FFE4F5571254CB9006DCEEF0FABD
:1038E000A3EFF0FB9006D8E0FCA3E0FDA3E0FEA36D
:1038F000E0FF8A57EB4401803E7B247A007D247CE4
:1039000080AF33123ABF9006D8E0FCA3E0FDA3E0FD
:10391000FEA3E0FFE4F5571254CB9006DCEEF0FA7C
:10392000A3EFF0FB9006D8E0FCA3E0FDA3E0FEA32C
:10393000E0FF8A57EB54FEF558755900755A04E4B8
:10394000F55B12501A9006D8E0FCA3E0FDA3E0FE60
:10395000A3E0FFE4F5571254CB9006DCEEF0A3EFA2
:10396000F0228F30E4F531F532F533900276E064E1
:10397000017075E5306421606D90026EE0900388FF
:10398000F090044374FFF0A374ECF0A374FFF0A371
:1039900074ECF0A374FFF0A374ECF0A374FFF0A335
:1039A00074ECF0900272E0900389F0E4900453F01C
:1039B000A3F0A3F0A3F0A3F0A3F0A3F0A3F0900270
:1039C0006AE090038AF090044BE4F0A37494F0A3AF
:1039D000E4F0A37494F0A3E4F0A37494F0A3E4F0EF
:1039E000A37494F0807C8017E53064216011E4902A
:1039F0000388F0A3F0900266E090038AF080639061
:103A000003887433F090044374FFF0A374F4F0A3BC
:103A100074FFF0A374F4F0A374FFF0A374F4F0A3A4
:103A200074FFF0A374F4F0E4900389F0900453F071
:103A3000A3F0A3F0A3F0A3F0A3F0A3F0A3F09003EE
:103A40008A7422F090044BE4F0A37470F0A3E4F0C5
:103A5000A37470F0A3E4F0A37470F0A3E4F0A37473
:103A600070F07B037D07AF301272648F317B037D72
:103A700007AF301272648F327B027D03AF30127257
:103A8000648F33900388E0FF900160F0900389E039
:103A9000900161F090038AE0900162F0E4FD127100
:103AA00095900210EFF0900388E0FF0D1271959051
:103AB0000211EFF0227B047D047A007C80AF2F8C12
:103AC0004F8D508A518B52EF14605C147003023B8F
:103AD00070147003023BB824036003023C04854F5A
:103AE00057855058755900755A04E4F55B7F887EF8
:103AF00021FD7C5812501AE4F5577F8C7E21FD7C05
:103B0000581254CB855157855258755900755A042F
:103B1000E4F55B7F887E21FD7C5812501AE4F5574E
:103B20007F8C7E21023BFE854F578550587559008A
:103B3000755A04E4F55B7F887E61FD7C5812501A4B
:103B4000E4F5577F8C7E61FD7C581254CB8551572C
:103B5000855258755900755A04E4F55B7F887E617B
:103B6000FD7C5812501AE4F5577F8C7E61023BFEB3
:103B7000854F57855058755900755A04E4F55B7F99
:103B8000887EA1FD7C5812501AE4F5577F8C7EA1E7
:103B9000FD7C581254CB8551578552587559007584
:103BA0005A04E4F55B7F887EA1FD7C5812501AE42C
:103BB000F5577F8C7EA18046854F578550587559A3
:103BC00000755A04E4F55B7F887EE1FD7C58125055
:103BD0001AE4F5577F8C7EE1FD7C581254CB855159
:103BE00057855258755900755A04E4F55B7F887EF5
:103BF000E1FD7C5812501AE4F5577F8C7EE1FD7C84
:103C0000581254CB2290018FE01204523C2B823C7C
:103C100049853C64863C7E873C988A3CB5903CF460
:103C2000913CD6923D0FB000003D4D9004C4E0D3CE
:103C300094015003023D4D12682078907C017D0173
:103C40007B017A057957023CEB9004C4E0D39401E0
:103C50005003023D4D78907C017D017B017A05790E
:103C6000D9023CEB9004C4E0D394015003023D4DD3
:103C700078907C017D017B017A0379C5806D900489
:103C8000C4E0D394015003023D4D78907C017D0146
:103C90007B017A04794380539004C4E0D3940150AB
:103CA00003023D4D1270AF78907C017D017B017A5B
:103CB00006795880369004C4E0D3940140349002D1
:103CC0008F7405F0A37413F078907C017D017B0163
:103CD0007A02791580159004C4E0D39401401378DA
:103CE000907C017D017B017A0279957E007F8002C4
:103CF000030B804A9004C4E0D3940140507B017AC6
:103D00000179907534007535807F007ED2802C90CB
:103D100004C4E0D39401402678907C017D017B01AE
:103D20007A0479C77E007F0912030B7B017A01793F
:103D3000997534007535777F097EF60268FB7E0041
:103D40007F807DFF7B017A01799012047822E4F56F
:103D50002FF530F531F532EF147003023DF30460B6
:103D600003023E85E4FF1262E6900761EEF0A3EFE6
:103D7000F0D39400EE94204012900152E0FEA3E0B4
:103D8000FDEDFF900761EEF0A3EFF0900761E0FE1C
:103D9000A3E0FF8E31F53290021C126A9890076101
:103DA000EEF0A3EFF090022CE0FDA3E0FBA3E0F522
:103DB00037A3E0F538AF32AE31126AA58E318F32BB
:103DC00090037FE020E40790076BE0B4010DE490DE
:103DD0000152F0A3F090014E023E67900761E0FCB3
:103DE000A3E0FDEC900152F0A3EDF0E53190014E1F
:103DF000023E807F601262E6900763EEF0A3EFF070
:103E0000D39400EE94204012900154E0FEA3E0FD14
:103E1000EDFF900763EEF0A3EFF0900763E0FEA3E1
:103E2000E0FF8E31F532900220126A98900763EE1F
:103E3000F0A3EFF0900230E0FDA3E0FBA3E0F53744
:103E4000A3E0F538AF32AE31126AA58E318F3290D1
:103E5000037FE020E50790076CE0B4010EE49001D9
:103E600054F0A3F0900150F0A3F022900763E0FC1F
:103E7000A3E0FDEC900154F0A3EDF0E5319001508A
:103E8000F0A3E532F0227F1F12723A9006B3E0FBF6
:103E90007568057DF87F20126C189006B4E0FB75FC
:103EA00068057DF07F20126C189006B5E0FB756800
:103EB000057D3A7F20126C189006B6E0FB75680508
:103EC0007D3B7F20126C189006B7E0FB7568057D7E
:103ED000F17F20126C189006B8E0FB7568057D42F2
:103EE0007F20126C189006B9E0FB7568057D437F52
:103EF00020126C189006BAE0FB7568057DF47F20EF
:103F0000126C189006BCE0FB7568057D577F201287
:103F10006C189006BBE0FB7568057D567F20126C1F
:103F2000189006C6E0FB7568057D177F20126C1897
:103F30009006BDE0FB7568057DC57F20126C18906A
:103F400006BEE0FB7568057DC67F20126C189006E2
:103F5000BFE0FB7568057DC77F20126C189006C016
:103F6000E0FB7568057DD57F20126C189006C1E0D6
:103F7000FB7568057DD67F20126C189006C2E0FBA9
:103F80007568057DD77F20126C189006C3E0FB751D
:103F900068057DE57F20126C189006C4E0FB75680B
:103FA000057DE67F20126C189006C5E0FB7568055C
:103FB0007DE77F20026C18E4FD90011EE0FEA3E087
:103FC000FBEEF52FEBF530900346E0FEA3E0FBEEB1
:103FD000F531EBF532A3E0FEA3E0FBEEF533EBF5B4
:103FE00034A3E0FEA3E0FBEEF535EBF536A3E0FEEF
:103FF000A3E0FBEEF537EBF538900120E0FEA3E0FF
:10400000FBEEF539EBF53A90034EE0FEA3E0FBEE54
:10401000F53BEBF53CA3E0FEA3E0FBEEF53DEBF555
:104020003EA3E0FEA3E0FBEEF53FEBF540A3E0FE90
:10403000A3E0FBEBFF90014BE0FCC3E5309538E5D6
:10404000376480F8E52F64809850027D08D3E5300E
:104050009536E5356480F8E52F6480984003430584
:1040600004C3E5309534E5336480F8E52F64809827
:104070005003430502D3E5309532E5316480F8E51D
:104080002F6480984003430501C3E53A9FE5399EBC
:104090005003430580D3E53A9540E539953F400309
:1040A000430540C3E53A953EE539953D5003430548
:1040B00020D3E53A953CE539953B40034305109004
:1040C000011BE0FFD394004005ED7002AD079001A5
:1040D0001BEDF0ECF45D600E900113E054FEF090E7
:1040E000076EE04410F0228F378C388D398B3A9070
:1040F00006D812042100000000E49006DCF0A3F0D2
:10410000AF37FCFDFEFBFA7910F81203A4EF24C4CC
:10411000FFEE3445FEED3403FDEC3450FC9006D840
:10412000120415E53A607C9006D8E0FCA3E0FDA3FC
:10413000E0FEA3E0FF853857853958755900755A58
:1041400004E4F55B12501A9006D8E0FCA3E0FDA34E
:10415000E0FEA3E0FFE4F5571254CB9006DCEEF04E
:10416000A3EFF07B207A007D207C80AF37123ABF2E
:104170009006D8E0FCA3E0FDA3E0FEA3E0FFE4F599
:10418000571254CB9006DCEEF0FAA3EFF0FB90064A
:10419000D8E0FCA3E0FDA3E0FEA3E0FF8A57EB44D8
:1041A00001803E7B237A007D237C80AF37123ABFAB
:1041B0009006D8E0FCA3E0FDA3E0FEA3E0FFE4F559
:1041C000571254CB9006DCEEF0FAA3EFF0FB90060A
:1041D000D8E0FCA3E0FDA3E0FEA3E0FF8A57EB5488
:1041E000FEF558755900755A04E4F55B12501A90A3
:1041F00006D8E0FCA3E0FDA3E0FEA3E0FFE4F55752
:104200001254CB9006DCEEF0A3EFF0228F33E4F5EE
:1042100034F535E5336401703AF5577FCC7E457D42
:10422000037C501254CB8E348F35900474E030E010
:104230000543350180035335FE8534578535587560
:104240005900755A04E4F55B7FCC7E457D037C50B4
:1042500012501AE5336402703AF5577FCC7E457DE3
:10426000137C501254CB8E348F35900476E030E0BE
:104270000543350180035335FE8534578535587520
:104280005900755A04E4F55B7FCC7E457D137C5064
:1042900012501AE5336403703AF5577FCC7E457DA2
:1042A000237C501254CB8E348F35900478E030E06C
:1042B0000543350180035335FE85345785355875E0
:1042C0005900755A04E4F55B7FCC7E457D237C5014
:1042D00012501AE5336404703AF5577FCC7E457D61
:1042E000337C501254CB8E348F3590047AE030E01A
:1042F0000543350180035335FE85345785355875A0
:104300005900755A04E4F55B7FCC7E457D337C50C3
:1043100012501A228F33E4F534F535E53364017019
:104320003AF5577F8C7E457D037C501254CB8E34FA
:104330008F3590047CE030E0054335018003533530
:10434000FE853457853558755900755A04E4F55B78
:104350007F8C7E457D037C5012501AE533640270D9
:104360003AF5577F8C7E457D137C501254CB8E34AA
:104370008F3590047EE030E00543350180035335EE
:10438000FE853457853558755900755A04E4F55B38
:104390007F8C7E457D137C5012501AE53364037088
:1043A0003AF5577F8C7E457D237C501254CB8E345A
:1043B0008F35900480E030E00543350180035335AC
:1043C000FE853457853558755900755A04E4F55BF8
:1043D0007F8C7E457D237C5012501AE53364047037
:1043E0003AF5577F8C7E457D337C501254CB8E340A
:1043F0008F35900482E030E005433501800353356A
:10440000FE853457853558755900755A04E4F55BB7
:104410007F8C7E457D337C5012501A228F39E539CE
:104420006401703AF5577FD07E447D037C5012546E
:10443000CBEE54FEF53A753B00900443E0453AF567
:104440003CA3E0453BF53D853C57F5587559007553
:104450005A04E4F55B7FD07E447D03024519E539BB
:1044600064027039F5577FD07E447D137C5012541E
:10447000CBEE54FEF53A753B00900445E0453AF525
:104480003CA3E0453BF53D853C57F5587559007513
:104490005A04E4F55B7FD07E447D13807CE539646B
:1044A000037039F5577FD07E447D237C501254CB66
:1044B000EE54FEF53A753B00900447E0453AF53C72
:1044C000A3E0453BF53D853C57F558755900755AB5
:1044D00004E4F55B7FD07E447D23803DE539B40460
:1044E0003DE4F5577FD07E447D337C501254CBEEB3
:1044F00054FEF53A753B00900449E0453AF53CA37B
:10450000E0453BF53D853C57F558755900755A0413
:10451000E4F55B7FD07E447D337C5012501A228FAD
:1045200039E5396401703AF5577FD47E447D037CC8
:10453000501254CBEE54FEF53A753B0090044BE01C
:10454000453AF53CA3E0453BF53D853C57F55875AC
:104550005900755A04E4F55B7FD47E447D0302461E
:104560001CE53964027039F5577FD47E447D137C95
:10457000501254CBEE54FEF53A753B0090044DE0DA
:10458000453AF53CA3E0453BF53D853C57F558756C
:104590005900755A04E4F55B7FD47E447D13807C1A
:1045A000E53964037039F5577FD47E447D237C5010
:1045B0001254CBEE54FEF53A753B0090044FE045A3
:1045C0003AF53CA3E0453BF53D853C57F558755918
:1045D00000755A04E4F55B7FD47E447D23803DE57D
:1045E00039B4043DE4F5577FD47E447D337C5012CA
:1045F00054CBEE54FEF53A753B00900451E0453A39
:10460000F53CA3E0453BF53D853C57F55875590011
:10461000755A04E4F55B7FD47E447D337C501250A0
:104620001A228F39E5396401703AF5577FD87E44F4
:104630007D037C501254CBEE54FEF53A753B00904E
:104640000453E0453AF53CA3E0453BF53D853C5736
:10465000F558755900755A04E4F55B7FD87E447DA2
:104660000302471FE53964027039F5577FD87E444D
:104670007D137C501254CBEE54FEF53A753B0090FE
:104680000455E0453AF53CA3E0453BF53D853C57F4
:10469000F558755900755A04E4F55B7FD87E447D62
:1046A00013807CE53964037039F5577FD87E447DEB
:1046B000237C501254CBEE54FEF53A753B00900427
:1046C00057E0453AF53CA3E0453BF53D853C57F5C1
:1046D00058755900755A04E4F55B7FD87E447D23F4
:1046E000803DE539B4043DE4F5577FD87E447D3301
:1046F0007C501254CBEE54FEF53A753B00900459B1
:10470000E0453AF53CA3E0453BF53D853C57F5587F
:10471000755900755A04E4F55B7FD87E447D337C7F
:104720005012501A228F34E5346401703AF5577FE5
:10473000DC7E447D037C501254CBEE54FEF535757F
:10474000360090045BE04535F537A3E04536F53893
:10475000853757F558755900755A04E4F55B7FDCC9
:104760007E447D03024822E53464027039F5577FA8
:10477000DC7E447D137C501254CBEE54FEF535752F
:10478000360090045DE04535F537A3E04536F53851
:10479000853757F558755900755A04E4F55B7FDC89
:1047A0007E447D13807CE53464037039F5577FDCEB
:1047B0007E447D237C501254CBEE54FEF535753685
:1047C0000090045FE04535F537A3E04536F53885C0
:1047D0003757F558755900755A04E4F55B7FDC7E50
:1047E000447D23803DE534B4043DE4F5577FDC7E11
:1047F000447D337C501254CBEE54FEF535753600B3
:10480000900461E04535F537A3E04536F538853746
:1048100057F558755900755A04E4F55B7FDC7E4402
:104820007D337C5012501A228F34E5346401703A83
:10483000F5577FE07E447D037C501254CBEE54FE4E
:10484000F535753600900463E04535F537A3E0454E
:1048500036F538853757F558755900755A04E4F51B
:104860005B7FE07E447D03024925E53464027039B4
:10487000F5577FE07E447D137C501254CBEE54FEFE
:10488000F535753600900465E04535F537A3E0450C
:1048900036F538853757F558755900755A04E4F5DB
:1048A0005B7FE07E447D13807CE53464037039F5E2
:1048B000577FE07E447D237C501254CBEE54FEF5AE
:1048C00035753600900467E04535F537A3E0453689
:1048D000F538853757F558755900755A04E4F55B76
:1048E0007FE07E447D23803DE534B4043DE4F5570C
:1048F0007FE07E447D337C501254CBEE54FEF53580
:10490000753600900469E04535F537A3E04536F586
:1049100038853757F558755900755A04E4F55B7FAB
:10492000E07E447D337C5012501A228F2FE4F53004
:10493000F531F5577F207ECBFD7C521254CB90058C
:10494000FEEEF0A3EFF0E4F5577F047E447D037C98
:10495000501254CB9005FCEEF0A3EFF0E51AB40131
:104960001D1266947FD07E07126F977D027F011221
:104970005A847D027F01125F5EAF2F1251EAE51A61
:1049800064026003024A277F0212634F7F021267AC
:10499000877D02E4FF125A847D02E4FF125F5EE429
:1049A000FBFD7F011216CFE4FB7D017F011216CFC4
:1049B0007B017D027F011216CF7B017D037F0112F7
:1049C00016CFE4FBFDFF1216CFE4FB7D01FF1216AC
:1049D000CF7B017D02E4FF1216CF7B017D03E4FF54
:1049E0001216CFE4FBFD7F0112225EE4FB7D017F06
:1049F0000112225E7B017D027F0112225E7B017D1E
:104A0000037F0112225EE4FBFDFF12225EE4FB7DC8
:104A100001FF12225E7B017D02E4FF12225E7B0118
:104A20007D03E4FF12225E9005FBE51AF0228F342D
:104A3000E53464017037F5577FD07E34FD7C581221
:104A400054CBEE54FEF5357536009003C9E045357C
:104A5000F537A3E04536F538853757F558755900D1
:104A6000755A04E4F55B7FD07E34024B1FE5346455
:104A7000027036F5577FD07E74FD7C581254CBEE11
:104A800054FEF5357536009003CBE04535F537A378
:104A9000E04536F538853757F558755900755A048D
:104AA000E4F55B7FD07E748076E53464037036F580
:104AB000577FD07EB4FD7C581254CBEE54FEF535B2
:104AC0007536009003CDE04535F537A3E04536F562
:104AD00038853757F558755900755A04E4F55B7FEA
:104AE000D07EB4803AE534B4043BE4F5577FD07E01
:104AF000F4FD7C581254CBEE54FEF535753600901B
:104B000003CFE04535F537A3E04536F5388537570F
:104B1000F558755900755A04E4F55B7FD07EF4FDB5
:104B20007C5812501A228F34E53464017037F557DF
:104B30007FD47E34FD7C581254CBEE54FEF535758F
:104B400036009003D1E04535F537A3E04536F5381A
:104B5000853757F558755900755A04E4F55B7FD4CD
:104B60007E34024C17E53464027036F5577FD47EEC
:104B700074FD7C581254CBEE54FEF535753600901A
:104B800003D3E04535F537A3E04536F5388537578B
:104B9000F558755900755A04E4F55B7FD47E74802E
:104BA00076E53464037036F5577FD47EB4FD7C58C7
:104BB0001254CBEE54FEF5357536009003D5E04522
:104BC00035F537A3E04536F538853757F55875592B
:104BD00000755A04E4F55B7FD47EB4803AE534B4C2
:104BE000043BE4F5577FD47EF4FD7C581254CBEEA1
:104BF00054FEF5357536009003D7E04535F537A3FB
:104C0000E04536F538853757F558755900755A041B
:104C1000E4F55B7FD47EF4FD7C5812501A228F3469
:104C2000E53464017037F5577FD87E34FD7C581227
:104C300054CBEE54FEF5357536009003D9E045357A
:104C4000F537A3E04536F538853757F558755900DF
:104C5000755A04E4F55B7FD87E34024D0FE5346469
:104C6000027036F5577FD87E74FD7C581254CBEE17
:104C700054FEF5357536009003DBE04535F537A376
:104C8000E04536F538853757F558755900755A049B
:104C9000E4F55B7FD87E748076E53464037036F586
:104CA000577FD87EB4FD7C581254CBEE54FEF535B8
:104CB0007536009003DDE04535F537A3E04536F560
:104CC00038853757F558755900755A04E4F55B7FF8
:104CD000D87EB4803AE534B4043BE4F5577FD87EFF
:104CE000F4FD7C581254CBEE54FEF5357536009029
:104CF00003DFE04535F537A3E04536F5388537570E
:104D0000F558755900755A04E4F55B7FD87EF4FDBB
:104D10007C5812501A228F34E53464017037F557ED
:104D20007FDC7E34FD7C581254CBEE54FEF5357595
:104D300036009003E1E04535F537A3E04536F53818
:104D4000853757F558755900755A04E4F55B7FDCD3
:104D50007E34024E07E53464027036F5577FDC7E00
:104D600074FD7C581254CBEE54FEF5357536009028
:104D700003E3E04535F537A3E04536F53885375789
:104D8000F558755900755A04E4F55B7FDC7E748034
:104D900076E53464037036F5577FDC7EB4FD7C58CD
:104DA0001254CBEE54FEF5357536009003E5E04520
:104DB00035F537A3E04536F538853757F558755939
:104DC00000755A04E4F55B7FDC7EB4803AE534B4C8
:104DD000043BE4F5577FDC7EF4FD7C581254CBEEA7
:104DE00054FEF5357536009003E7E04535F537A3F9
:104DF000E04536F538853757F558755900755A042A
:104E0000E4F55B7FDC7EF4FD7C5812501A228F346F
:104E1000E53464017037F5577FE07E34FD7C58122D
:104E200054CBEE54FEF5357536009003E9E0453578
:104E3000F537A3E04536F538853757F558755900ED
:104E4000755A04E4F55B7FE07E34024EFFE534647E
:104E5000027036F5577FE07E74FD7C581254CBEE1D
:104E600054FEF5357536009003EBE04535F537A374
:104E7000E04536F538853757F558755900755A04A9
:104E8000E4F55B7FE07E748076E53464037036F58C
:104E9000577FE07EB4FD7C581254CBEE54FEF535BE
:104EA0007536009003EDE04535F537A3E04536F55E
:104EB00038853757F558755900755A04E4F55B7F06
:104EC000E07EB4803AE534B4043BE4F5577FE07EFD
:104ED000F4FD7C581254CBEE54FEF5357536009037
:104EE00003EFE04535F537A3E04536F5388537570C
:104EF000F558755900755A04E4F55B7FE07EF4FDC2
:104F00007C5812501A228B2E8A2F8930E4F53C05EA
:104F100030E5307002052F14F9120331F5360530F3
:104F2000E530AA2F7002052F14F9120331F5370569
:104F300030E530AA2F7002052F14F9120331F5382D
:104F40000530E530AA2F7002052F14F9120331F550
:104F500039E535F53AE534F53B9005D8E0FF75685D
:104F6000047BFF7D7F126C189005D8E0FF75680404
:104F7000AB397D80126C189005D8E0FF756804ABE2
:104F8000387D81126C189005D8E0FF756804AB3746
:104F90007D82126C189005D8E0FF756804AB367DF1
:104FA00083126C189005D8E0FF756804AB3A7D84D5
:104FB000126C189005D8E0FF756804AB3B7D851234
:104FC0006C189005D8E0FF7568047B017D86126C33
:104FD00018E4F53CE53CC3953A50229005D8E0FF33
:104FE0007B047D90126B18AB310533E533AA327028
:104FF00002053214F9EF12034A053C80D7229004CF
:1050000009E04480F557A3E0F558755900755A0436
:10501000E4F55B7F287E18FD7C588F568E558D54A5
:105020008C538F5F78081204018F5EAF56AE55AD7A
:1050300054AC5378101204018F5DAF56AE55AD5489
:10504000AC5378181204018F5CE55AF563E559F505
:1050500064855860E557F561E55B70057562A08071
:10506000037562A27568047BFF7D7FAF62126C18C6
:10507000756804AB5F7D80AF62126C18756804AB15
:105080005E7D81AF62126C18756804AB5D7D82AF86
:1050900062126C18756804AB5C7D83AF62126C1889
:1050A000756804AB637D84AF62126C18756804ABDD
:1050B000647D85AF62126C187568047B037D86AFD2
:1050C00062126C18756804AB607D87AF62126C1851
:1050D000756804AB617D87AF62126C18756804E473
:1050E000FB7D87AF62126C18756804E4FB7D87AFA7
:1050F00062026C188B2E8A2F89300530E5307002E1
:10510000052F14F9120331F5360530E530AA2F705A
:1051100002052F14F9120331F5370530E530AA2FB7
:105120007002052F14F9120331F5380530E530AA65
:105130002F7002052F14F9120331F539E535F53AD0
:10514000E534F53B9005D8E0FF7568047BFF7D7F73
:10515000126C189005D8E0FF756804AB397D801299
:105160006C189005D8E0FF756804AB387D81126C2F
:10517000189005D8E0FF756804AB377D82126C1873
:105180009005D8E0FF756804AB367D83126C1890EB
:1051900005D8E0FF756804AB3A7D84126C18900561
:1051A000D8E0FF756804AB3B7D85126C189005D87C
:1051B000E0FF7568047B037D86126C18E4F53CE51E
:1051C0003CC3953A50239005D8E0FFAB310533E559
:1051D00033AA327002053214F9120331FB756804E8
:1051E0007D87126C18053C80D6228F32E53264111F
:1051F000700B9003C57428F0A3742C8012E5326400
:105200002160030252DD9003C57408F0A37403F01B
:10521000755780755800755900755A04E4F55B7F21
:10522000447EC07D037C5012501A9003C5E0F557B0
:10523000A3E0F558755900755A04E4F55B7F847E48
:1052400021FD7C5812501A9003C5E0F557A3E0F5F4
:1052500058755900755A04E4F55B7F847E61FD7CC6
:105260005812501A9003C5E0F557A3E0F558755948
:1052700000755A04E4F55B7F847EA1FD7C581250D2
:105280001A9003C5E0F557A3E0F558755900755A13
:1052900004E4F55B7F847EE1FD7C5812501A75575B
:1052A00080755800755900755A04E4F55B7F887E57
:1052B00021FD7C5812501AE4F5577F8C7E21FD7C2D
:1052C000581254CBE4F557F558F559755A04F55B67
:1052D0007F887E21FD7C5812501A12581122E4FD5D
:1052E000900152E0FEA3E0FBEEF52FEBF530A3E0DA
:1052F000FEA3E0FBEEF531EBF53290036EE0FEA38A
:10530000E0FBEEF533EBF534A3E0FEA3E0FBEEF5B6
:1053100035EBF536A3E0FEA3E0FBEEF537EBF53811
:10532000A3E0FEA3E0FBEBFFD3E5309534E52F953A
:1053300033400B0D900291E52FF0A3E530F0C3E56B
:10534000309536E52F95355003430504D3E5309568
:1053500038E52F95374003430510C3E5309FE52F0F
:105360009E5003430540D3E5329534E531953340F3
:105370000D430502900293E531F0A3E532F0C3E559
:10538000329536E53195355003430508D3E532951E
:1053900038E53195374003430520C3E5329FE531B9
:1053A0009E5003430580900119E0FFD3940040050F
:1053B000ED7002AD07900119EDF0900149E0F45D48
:1053C000600E900113E054FEF090076EE04408F088
:1053D00022E4F52F900383E0FF64116004EFB42111
:1053E0001B90015BE06F6020900383E090015BF015
:1053F0007D01E4FF126E65E4F508800C7D03E4FF97
:10540000126E65E490015BF0900384E0FF6411602C
:1054100004EFB4211B90015CE06F6020900384E0F6
:1054200090015CF07D017F01126E65E4F508800C4F
:105430007D037F01126E65E490015CF090015CE0F9
:10544000FF90015BE0FE6F707790015AE06411708D
:105450006FEE64117027750F11900276E090032EA5
:10546000B4010974F0F0A37477F080067480F0E45E
:10547000A3F0E5087035AF0F123962802E90015B02
:10548000E06421702A750F21900276E0B4010C903F
:10549000032E7470F0A37433F08007E490032EF0B1
:1054A000A3F0E5087005AF0F12396275080122906C
:1054B000015BE0FF64116008EF64216003E4F5081C
:1054C00022E4F5577E217FA4FD7C588F568E558DA2
:1054D000548C53E4F55D8F5B78081204018F5AAF4A
:1054E00056AE55AD54AC5378101204018F59AF56D7
:1054F000AE55AD54AC5378181204018F58E557706F
:1055000005755CA08003755CA27568047BFF7D7FD8
:10551000AF5C126C18756804AB5B7D80AF5C126C7D
:1055200018756804AB5A7D81AF5C126C18756804FD
:10553000AB597D82AF5C126C18756804AB587D83E3
:10554000AF5C126C187568047B047D84AF5C126CD0
:1055500018756804E4FB7D85AF5C126C18756804EF
:105560007B017D86AF5C126C187B047D90AF5C1272
:105570006B188F5E7B047D90AF5C126B188F5F7B26
:10558000047D90AF5C126B188F607B047D90AF5CE4
:10559000126B188F60E55F7F00FEEF255EFFE43E33
:1055A000FE22E4FD90014EE0FEA3E0FBEEF52FEBC2
:1055B000F530A3E0FEA3E0FBEEF531EBF53290030E
:1055C00066E0FEA3E0FBEEF533EBF534A3E0FEA3CB
:1055D000E0FBEEF535EBF536A3E0FEA3E0FBEEF5E0
:1055E00037EBF538A3E0FEA3E0FBEBFFD3E5309506
:1055F00034E52F953340010DC3E5309536E52F9501
:10560000355003430504D3E5309538E52F953740F1
:1056100003430510C3E5309FE52F9E50034305402B
:10562000D3E5329534E53195334003430502C3E5B4
:10563000329536E53195355003430508D3E532956B
:1056400038E53195374003430520C3E5329FE53106
:105650009E5003430580900118E0FFD3940040055D
:10566000ED7002AD07900118EDF0900148E0F45D97
:10567000600E900113E054FEF090076EE04404F0D9
:1056800022E4FD900156E0FEA3E0FBEEF52FEBF5E2
:1056900030A3E0FEA3E0FBEEF531EBF532900376AC
:1056A000E0FEA3E0FBEEF533EBF534A3E0FEA3E070
:1056B000FBEEF535EBF536A3E0FEA3E0FBEEF537A8
:1056C000EBF538A3E0FEA3E0FBEBFFD3E530953428
:1056D000E52F953340010DC3E5309536E52F95351F
:1056E0005003430504D3E5309538E52F9537400343
:1056F000430510C3E5309FE52F9E5003430540D37B
:10570000E5329534E53195334003430502C3E53274
:105710009536E53195355003430508D3E532953884
:10572000E53195374003430520C3E5329FE5319EBF
:105730005003430580900117E0FFD394004005ED2E
:105740007002AD07900117EDF0900147E0F45D6045
:105750000E900113E054FEF090076EE04402F02238
:105760008F34E534B401201254C18E358F36E535BF
:105770004420F557853658755900755A04E4F55B91
:105780007FA47E2102580AE534B40224E4F5577E52
:10579000611254C68E358F36E5354420F55785366F
:1057A00058755900755A04E4F55B7FA47E61805AF0
:1057B000E534B40329E4F5577FA47EA1FD7C58129B
:1057C00054CB8E358F36E5354420F55785365875E0
:1057D0005900755A04E4F55B7FA47EA1802CE53462
:1057E000B4042DE4F5577FA47EE1FD7C581254CB20
:1057F0008E358F36E5354420F55785365875590076
:10580000755A04E4F55B7FA47EE1FD7C5812501AC2
:1058100022E4F533F534E4F5577F8C7E21FD7C5886
:105820001254CBEF4E7065F5577F847E21FD7C5876
:105830001254CB9003C5E06E7003A3E06F704DF57A
:10584000577F847E61FD7C581254CB9003C5E06E77
:105850007003A3E06F7035F5577F847EA1FD7C58FF
:105860001254CB9003C5E0B50622A3E0B5071DE4B2
:10587000F5577F847EE1FD7C581254CB9003C5E040
:10588000B50609A3E0B50704751A02220534E5340C
:1058900070020533C39488E53394135003025816FD
:1058A000900603E533F0A3E534F0E4F533F534F581
:1058B0001A228D31EFB4090040030259529058C4A6
:1058C000F82828730258DF0258EC0258F9025906EA
:1058D0000259130259220259310259400259408596
:1058E0003138E4FBFA7D80FC7FF88061853138E453
:1058F000FBFA7D80FC7FF08054853138E4FBFA7D33
:1059000094FC7FEC8047853138E4FBFA7D90FC7F86
:10591000E8803A8531387BFC7AFF7D8C7C007FE81B
:10592000802B8531387BF87AFF7D887C007FE8808A
:105930001C8531387BF47AFF7D847C007FE8800D04
:105940008531387BF07AFF7D807C007FE87EFF1216
:105950005FD9228F368D378B38E49006D8F0A3F0CC
:10596000A3F0A3F0AF3812725AAF381270F9AD3805
:10597000AF36126A54AF38126D41AD38AF37126A84
:1059800054AF38126D41AD387F0112717112701C25
:10599000AF3812725AAF381270F9E53604FFAD38DD
:1059A000126A54AF38126D41AF3812686A9006D847
:1059B000EFF0AF38127108AF3812686AA3EFF0AF9A
:1059C00038126F779006D8E075F010A4FFA3E07C42
:1059D000002FFEEC35F0A3F0A3CEF0AF38126FB677
:1059E000AF3812725A9006DAE0FEA3E0FF22EF14FD
:1059F000604B046003025A837F03126F5490023C91
:105A0000126A96AC06AD07D390024DE09D90024C11
:105A1000E09C4011E4900156F0A304F0900116E0E0
:105A20004410F0D296D390024FE09D90024EE09C3D
:105A30005051900156ECF0A3EDF0C29622E4FF1213
:105A40006F54AC06900240126A98AC06AD07D39032
:105A50000251E09D900250E09C4011E4900158F00A
:105A6000A304F0900116E04420F0D294D3900253A6
:105A7000E09D900252E09C500A900158ECF0A3ED9A
:105A8000F0C294228D32EF60357D01E4FF12313691
:105A90007D017F011231367D017F021231367D0199
:105AA0007F031231367D01E4FF122D537D017F010A
:105AB000122D537D017F02122D537D018054E5325A
:105AC00064017032FDFF123136E4FD7F0112313680
:105AD000E4FD7F02123136E4FD7F03123136E4FD2E
:105AE000FF122D53E4FD7F01122D53E4FD7F0212BE
:105AF0002D53E4FD801CE532B4021CE4FD7F02124C
:105B00003136E4FD7F03123136E4FD7F02122D535E
:105B1000E4FD7F03122D53228F2F8D30E4F534F5F1
:105B200033F532F531FBFAE52F700A7534807533A1
:105B300022F532802EE52FB4010B753480753326A3
:105B4000753200801EE52FB4020B7534807533A6C4
:105B5000753200800EE52FB4030C7534807533A2C6
:105B6000753200753152AF34AE33AD32AC31E4F53D
:105B7000571254CBAA06AB07E530600543032080DB
:105B8000035303DFAF34AE33AD32AC318A578B5899
:105B9000755900755A04E4F55B12501A7B037A00BC
:105BA0007D037C80AF2F023ABF12003A787FE4F683
:105BB000D8FD758168025BF3026737E493A3F8E4CC
:105BC00093A34003F68001F208DFF48029E493A355
:105BD000F85407240CC8C333C4540F4420C883406E
:105BE00004F456800146F6DFE4800B01020408103D
:105BF000204080900F7AE47E019360BCA3FF543F65
:105C000030E509541FFEE493A360010ECF54C02574
:105C1000E060A840B8E493A3FAE493A3F8E493A364
:105C2000C8C582C8CAC583CAF0A3C8C582C8CAC5C8
:105C300083CADFE9DEE780BE8F2F8D309006D81251
:105C4000042100000000E49006DCF0A3F0E52FC47E
:105C5000333354C0FEE42494FFEE3421FEE433FDDC
:105C6000E43458FC9006D81204159006D8E0FCA342
:105C7000E0FDA3E0FEA3E0FFE4F5571254CB90064D
:105C8000DCEEF0A3EFF0E5306006E04408F08007BA
:105C90009006DDE054F7F09006D8E0FCA3E0FDA309
:105CA000E0FEA3E0FFA3E0F557A3E0F55875590027
:105CB000755A04E4F55B12501A7B047A007D047C6B
:105CC00080AF2F023ABF90038AE0FFE4FD12719586
:105CD0008F2F90038AE0FF7D011271958F30E52FA1
:105CE000C394095018E50FB4110F900210E0652F0E
:105CF00060077D03AF2F1258B2E4FD80037D05E4F9
:105D0000FF126E65E530C394095018E50FB4110F0A
:105D1000900211E0653060077D04AF2F1258B2E4A5
:105D2000FD80027D057F01126E6590015AE07012C0
:105D3000900758E04401F04402F090038AE090019B
:105D400062F0900210E52FF0900211E530F022EFA2
:105D500024FBB40700506E905D6575F003A4C58305
:105D600025F0C58373025D7A025D81025D88025D64
:105D700096025DA4025DB2025DB9E4900115F08067
:105D800044E4900116F0803DE4900117F090076E16
:105D9000E054FDF0802FE4900118F090076EE0547D
:105DA000FBF08021E4900119F090076EE054F7F0C9
:105DB0008013E490011AF0800CE490011BF090072E
:105DC0006EE054EFF090076DE07002A3E070079072
:105DD0000113E04401F0227B017A05795775340004
:105DE0007535807F007ED41268FB7B017A06795876
:105DF0007534007535807F007ED61268FB7B017A92
:105E00000679D87534007535807F007ED81268FB1E
:105E100078C57C037D017B017A0679D87E007F807E
:105E200012030B7B017A0679D87534007535807FB3
:105E3000007EDA1268FB78437C047D017B017A06E0
:105E400079D87E007F8012030B7B017A0279157569
:105E500034007535807F007ED00268FB8D33AB0740
:105E60009006D812042100000000E49006DCF0A3A4
:105E7000F0AF03FCFDFEFBFA7910F81203A4EF2447
:105E800084FFEE3446FEED3403FDEC3450FC900606
:105E9000D8120415E4F5577F847E467D037C5012AA
:105EA00054CB9006DCEEF0A3EFF0E5336006E0445F
:105EB00002F080079006DDE054FDF09006D8E0FC8B
:105EC000A3E0FDA3E0FEA3E0FFA3E0F557A3E0F508
:105ED00058755900755A04E4F55B02501A8D33ABBE
:105EE000079006D812042100000000E49006DCF0C0
:105EF000A3F0AF03FCFDFEFBFA7910F81203A4EF48
:105F000024C4FFEE3444FEED3403FDEC3450FC9029
:105F100006D8120415E4F5577F847E467D037C5035
:105F20001254CB9006DCEEF0A3EFF0E5336006E010
:105F30004401F080079006DDE054FEF09006D8E0C2
:105F4000FCA3E0FDA3E0FEA3E0FFA3E0F557A3E080
:105F5000F558755900755A04E4F55B02501A8D32F4
:105F6000EF60357D01E4FF125EDD7D017F01125E91
:105F7000DD7D017F02125EDD7D017F03125EDD7D2E
:105F800001E4FF125E5C7D017F01125E5C7D017F9A
:105F900002125E5C7D01803BE532B4010DE4FDFF41
:105FA000125EDDE4FD7F01125EDDE4FD7F02125E24
:105FB000DDE4FD7F03125EDDE532B4010DE4FDFF9B
:105FC000125E5CE4FD7F01125E5CE4FD7F02125E06
:105FD0005CE4FD7F03125E5C22E53824FE601F1442
:105FE000603114604324037057900443EEF0A3EF34
:105FF000F090044BECF0A3EDF0900453803D90043E
:1060000045EEF0A3EFF090044DECF0A3EDF090041A
:10601000558028900447EEF0A3EFF090044FECF089
:10602000A3EDF09004578013900449EEF0A3EFF035
:10603000900451ECF0A3EDF0900459EAF0A3EBF0DA
:10604000AF3812441CAF3812451FAF38024622E465
:10605000FBFD7F011216CF7D011216CB7D021216B9
:10606000CBE4FB7D037F011216CFE4FBFDFF12168C
:10607000CFE4FB7D01FF1216CFE4FB7D02FF121679
:10608000CFE4FB7D03FF1216CFE4FBFD7F0112225C
:106090005E7D0112225A7D0212225AE4FB7D037FAB
:1060A0000112225EE4FBFDFF12225EE4FB7D01FF94
:1060B00012225EE4FB7D02FF12225EE4FB7D03FF01
:1060C00002225E75105504900768F0E4FFAD07E505
:1060D0000C700AE50E6D6005750C018D0EE50C6403
:1060E000017052ED20E40690076BE06009900575A1
:1060F000E04401F08007900575E054FEF0ED20E5E6
:106100000690076CE06009900575E04408F0800790
:10611000900575E054F7F07568057B7F7D1D7F1C49
:10612000126C18900575E0FB7568057D417F1C12A7
:106130006C18E4F50C22BF0112ED9005756006E0C5
:106140004401F08043E054FEF0803DBF0212ED9028
:1061500005756006E04402F0802EE054FDF08028D2
:10616000BF0312ED9005756006E04404F08019E06D
:1061700054FBF08013BF0410ED9005756006E044F9
:1061800008F08004E054F7F07568057B7F7D1D7F83
:106190001C126C18900575E04406FB7568057D417E
:1061A0007F1C026C189004D1E0640170629004C6F8
:1061B000E024FB601524FE604E2406704D9004D749
:1061C000E090018FF0123C058040E4FFFE9004D582
:1061D000E0FDC3EF9DEE9400502874D72FF5827434
:1061E000043EF583E0FD9004D4E02FFBE43EFA7416
:1061F000102BF58274013AF583EDF00FBF00010E0C
:1062000080CB126AD88003121A12E49004D1F022D3
:10621000900034E0FF900759E06F6021EF30E00418
:106220007D018002E4FD7F0212293D900034E030C0
:10623000E1047D018002E4FD7F0312293D900035D9
:10624000E0FF90075AE06F6021EF30E0047D0180AD
:1062500002E4FD7F02125C38900035E030E1047DFD
:10626000018002E4FD7F03125C38900034E0900767
:1062700059F0900035E090075AF022900036E0FF88
:1062800090075BE06F6021EF30E0047D018002E465
:10629000FD7F02121D0B900036E030E1047D01808D
:1062A00002E4FD7F03121D0B900037E0FF90075DB5
:1062B000E06F6021EF30E0047D018002E4FD7F02A9
:1062C000125B18900037E030E1047D018002E4FDAC
:1062D0007F03125B18900036E090075BF090003768
:1062E000E090075DF0228F33E4FE7568057B107D3A
:1062F000607F1C126C18756805AB337D917F1C1292
:106300006C187568057B087D927F1C126C187F01E4
:106310007E00126F977B057D687F1C1259538E3467
:106320008F357568057B047D927F1C126C187F0188
:106330007E00126F977B057D687F1C125953C3EF57
:106340009535FFEE9534FE7C007D1412035C228FA0
:1063500032E532B4010A7F01126DD37F02126DD390
:106360007F03126DD37F04126DD3E532B4010A7F2F
:1063700001122F457F02122F457F03122F457F0404
:10638000122F45E532B4010A7F01121FD47F021299
:106390001FD47F03121FD47F04121FD4E532B4012F
:1063A0000A7F0112271F7F0212271F7F0312271F58
:1063B0007F0402271FE4F52FF530F531F532F53370
:1063C000F534F535F536900014E0540FFF1269915D
:1063D0008E2F8F3012698A8E318F32900013E0FF3A
:1063E00090075EE06F6029EF30E0047B018002E4FB
:1063F000FBAD30AC2F7F021240E7900013E030E19C
:10640000047B018002E4FBAD32AC317F031240E734
:10641000900013E090075EF022AB05A907E4F53386
:10642000F532F531F53085A72FF5A7FAEAC39B5071
:106430003789BBE4FFFE0FBF00010EEF640A4E7008
:10644000F5D2EC30EDFDAFBDAEBEE4FCFDE5332F83
:10645000F533E5323EF532ED3531F531EC3530F5D9
:1064600030C2ECC2ED0A80C4E4FAF9F8AF33AE32C0
:10647000AD31AC301269CE852FA722AC069002193F
:10648000E0FDA3E0FBA3E0F5823395E0F5338582E0
:1064900034126CCDAC06AD07ECFF90011EEFF0AFEF
:1064A00005A3EFF090011EE0FBC3648094585002F6
:1064B0007BD8C3EB648094D540027B55EBFF3395CA
:1064C000E0FEEF2428FFE43EFE7C007D0212036E16
:1064D00090075FEFF0D3EB648094C022E4F52FF5D2
:1064E00030F531F53290001CE0540FFF1269918EA7
:1064F0002F8F3012698A8E318F3290001BE0FF900F
:10650000075CE06F6029EF30E0047B018002E4FB70
:10651000AD30AC2F7F0212380790001BE030E10451
:106520007B018002E4FBAD32AC317F03123807906F
:10653000001BE090075CF0227E007F497D007B011C
:106540007A017910120478900190E0900110F0A384
:106550007410F0E4A3F0A3F0A37411F090012A7476
:1065600040F09001387413F09001377405F0E49016
:106570000388F0A3F0900266E0FF90038AF0900396
:1065800088E0900160F0900389E0900161F0A3EF52
:10659000F022EFB40800505290659FF8282873024B
:1065A00065B70265CC0265D00265D50265D9026582
:1065B000DE0265EA0265E7126EBB12647B7F0D1294
:1065C0006FF3EF25E0FFEE33FE0271A6E4FF8002D9
:1065D0007F010259EEE4FF80027F01023D4E9007E9
:1065E00069E06006027222126DA02220B0159007A9
:1065F0006BE0B40121E4FD7F01126136E490076B8A
:10660000F0801390076BE0700D7D017F0112613601
:1066100090076B7401F020B41490076CE0B4012073
:10662000E4FD7F04126136E490076CF02290076C61
:10663000E0700D7D017F0412613690076C7401F0EB
:1066400022E4F52FF530F531F532E4F5577F047E7D
:10665000447D037C501254CBEF64034E7004751AD2
:1066600001220530E5307002052FE4F531F53205E1
:1066700032E532700205316464453170F2C3E530B1
:1066800094E8E52F940340C2E4F52FF530F51A9015
:1066900005FBF022E4F534F535F5577F507EC07DDB
:1066A000037C501254CB8E57EF4481F55875590036
:1066B000755A04E4F55B7F507EC07D037C50125018
:1066C0001AE4F5577F507EC07D037C501254CBEE08
:1066D00020E6120533E53370020532D394D0E5325B
:1066E000940740DD2222E4900213F0A3F0F52EF58A
:1066F0002FAF2FAE2E1270977E00900214E02FF075
:10670000900213E03EF0052FE52F7002052EC3E541
:106710002E94C840DC900213E0FFA3E090028DCFDE
:10672000F0A3EFF07B017A0279157535007536809C
:106730007F007ED00268B385A72CE4F52D120003FC
:10674000127047126E05126F2F20A50C30A5FD05A3
:106750002DE52DD3941440F4126641126F09122BCB
:1067600058126E9012707D12604F75A88012330916
:10677000126D6D20A509E4F5A775EF12852CA712FF
:1067800065EB1261A580E68F32E532B4010A7F0124
:10679000126FD57F02126FD57F03126FD57F04125F
:1067A0006FD5E532B4010A7F0112420C7F0212421A
:1067B0000C7F0312420C7F0412420CE532B4010A32
:1067C0007F011243147F021243147F031243147F8C
:1067D000040243149005E8E0640170439005E7E08B
:1067E00070197531017532057533DDF53475350471
:1067F0007B017A0579D91250F4801F9005E7E0B447
:1068000001187531017532057533E1753400753540
:10681000047B017A0579D9124F06E49005E8F0224D
:106820001224C47B057D047F1C126B18900564EF55
:10683000F07B057D1E7F1C126B1890056CEFF07BC2
:10684000057D297F1C126B18900573EFF07B057D89
:106850005A7F1C126B18900586EFF07B057D647FD4
:106860001C126B1890058BEFF022AC07E4FBFF12B3
:10687000701412701C12701C7A0712700FBC040680
:10688000A2B292018007BC0504A2909201A201E489
:1068900033FFA802088002C333D8FC4203AD04E4EE
:1068A000FF12717112701C1AC3EA6480948050CA7E
:1068B000AF03228E308F318B328A338934E4F5373F
:1068C000F5387D55126D07E4F537F538C3E5389591
:1068D00036E53795355023E5312538FFE530353736
:1068E000FEAB320534E534AA3370020533126C92E4
:1068F0000538E53870D6053780D2228E2F8F308B41
:10690000318A328933E4F536F537F536F537C3E5A4
:10691000379535E53695345029E5302537FFE52F95
:106920003536FE127097AB310533E533AA3270026B
:10693000053214F9EF12034A0537E53770D00536F2
:1069400080CC22D3E50A9490E50994014033AF0B43
:10695000126592050BE50BC394084020E4F50B90FB
:106960000769E07017900765E004F0E0D3941440E5
:106970000B9007697401F0E4900765F0E4F509F500
:106980000A050AE50A7002050922E054F0C4540F12
:10699000FFEF7005FC7D0A8030BF02067C007D0899
:1069A0008027BF04067C007D06801EBF06067C1083
:1069B0007D048015BF08067C007D02800CBF0A059F
:1069C000E4FCFD80047C007D0AAF05AE0422C2D544
:1069D000E830E70FB2D5E4C39BFBE49AFAE499F9F7
:1069E000E498F8EC30E717B2D5126A04120535E4E2
:1069F000C39BFBE49AFAE499F9E498F88003120542
:106A00003530D50DE4C39FFFE49EFEE49DFDE49C7C
:106A1000FC228E2F8F308B318A328933E4F536F5A4
:106A200037F536F537C3E5379535E53695345023D8
:106A3000E5302537FFE52F3536FEAB310533E5333D
:106A4000AA3270020532126C920537E53770D6050E
:106A50003680D222AC05AB07A903E4FF12701612F0
:106A6000701C12701C7A07EBA802088002C313D8AE
:106A7000FC5401F9AD0460047F018002E4FF127050
:106A8000E0127012E4FF12717112701C1AC3EA64F2
:106A900080948050D222AC06E0FDA3E0FBA3E0F599
:106AA00037A3E0F5388D358B36AB07AA06E4F9F845
:106AB000AF35FCFDFE1203A48F3C8E3B8D3A8C3922
:106AC000A936A8011204018F3C8E3B8D3A8C39E522
:106AD000382FFFE5373EFE2290018AE0FFB493167F
:106AE000A3E0B47811A3E0B4CC0CA3E0B4AE07905B
:106AF00004C47401F022EFB43A1890018BE0B4188A
:106B000011A3E0B4B60CA3E0B46F079004C4740200
:106B1000F022E49004C4F0228F618D628B631270C6
:106B2000F2AF61126D3AAF62126D3AAD637F01123E
:106B3000717112701C1270F2E56104FF126D3AAFB0
:106B40006312686AA907AF63126F77AF63126FB6FB
:106B5000AF6312725AAF01227E007F807D007B01FD
:106B60007A00790012047890000074FFF0E4A3F03A
:106B7000A3F0A37488F0A374FFF0A3740FF0A374C0
:106B8000FFF0A3740FF0E4A3F0A3F0A3F0A3F0A32D
:106B9000F0A3F0A3F0A3F022E4FFA2A23325E02F9C
:106BA000FFA293E43325E025E02FFFA2B1E43333C5
:106BB000333354F82FFFA286E433C43354E02FFF5D
:106BC000A295E433C4333354C02FFFA283E433C40B
:106BD00033333354802FFF227F301260CD90026216
:106BE000E0B4011430920C750D01900115E04403DE
:106BF000F08008E4F50D8003750D0290012A7440C1
:106C0000F0E490037EF0750F117F011271F9751099
:106C100002AF107E000272088D668B67AC07AF680A
:106C200012725AAF681270F9AF04AD68126A54AFAD
:106C300068126D41AD68AF66126A54AF68126D415B
:106C4000AD68AF67126A54AF68126D41AF68126FDA
:106C5000B6AF6802725AEF30E104D2A28002C2A23B
:106C6000EF30E204D2938002C293EF30E304D2B15A
:106C70008002C2B1EF30E504D2868002C286EF30D6
:106C8000E604D2958002C295EF30E703D28322C298
:106C9000832214F9120331FD7B55ACA7A2AF9201F8
:106CA000E4F5A7C2AF75FF8075EF028F828E83BBBC
:106CB000550975B7A575B7F1438F0175FF8075EF5D
:106CC00002EDF0538FFEA20192AF8CA7228D318B83
:106CD00032AB07AA06EA3395E0F9F8AF31E4FCFDE0
:106CE000FE1203A48F388E378D368C35A932A80159
:106CF0001204018F388E378D368C35E534FEE4254D
:106D000038FFEE3537FE22ACA7A2AF9201C2AFE446
:106D1000F5A775FF8075EF028F828E83BD550975CB
:106D2000B7A575B7F1438F0375FF8075EF02E4F0E7
:106D3000538FFCA20192AF8CA722AD63126A54AFAD
:106D400063AC0712700FAF04127183EF600CE4FFA5
:106D500012717112701CE4FF800CAD04E4FF12711B
:106D60007112701C7F011270E012701C221267D425
:106D70009002ECE0B4AA0AE4F09002EBE0FF126C9F
:106D80005690028AE0B4AA081272BEE490028AF019
:106D9000900601E0B4AA08127246E4900601F022BF
:106DA0007F0D126FF3EF25E0FFEE339002E0F0A3CA
:106DB000EFF0126EBB9002E8EEF0A3EFF0126B98CA
:106DC0009002EAEFF07F12126FF39002E4EEF0A36C
:106DD000EFF0228F33125760E53314FF7B047A0003
:106DE0007D047C80123ABFAF33124A2EAF33124B70
:106DF00026AF33124C1EAF33124D16AF33124E0E68
:106E0000AF3302367A7F327E00126F97C295C2B1DD
:106E1000D293D283D2A27F057E00126F97C2867F63
:106E2000057E00126F97D295C282D285D287D2A3F7
:106E3000D2A4C28422E4FF12723A7B05E4FD7F20D3
:106E4000126B18900658EFF07B057D017F20126BC6
:106E500018900659EFF07B057D037F20126B189088
:106E6000065AEFF022EF700A90015AE054F0F04D0C
:106E7000F022BF010F90015AE0540FFFF0EDC4540F
:106E8000F04FF022E490015AF0EDC454F04DF0229E
:106E9000E4FF12723A7568057BAA7D027F20126CAE
:106EA000187F0A7E00126F97756805E4FB7D027FEC
:106EB00020126C187F0A7E00026F977D047F1412E7
:106EC0006419C3EF9519FFEE9518FE3395E0FDFCAC
:106ED000E4FB7A01F9F81203A4E47B13FAF9F8123F
:106EE00069CE227B017A0179107534017535007FF6
:106EF000007EC81268FB7B017A0379157534007532
:106F000035807F007ECA0268FB7568057BAA7D021A
:106F10007F1C126C187F0A7E00126F97756805E45B
:106F2000FB7D027F1C126C187F0A7E00026F979017
:106F3000FFD5E493FE90FFD4E493FDEEFCE4120150
:106F4000817BD77AA37930783F1200761201BA8E0E
:106F5000188F1922EFC433546090065AF0E4FF12E0
:106F6000723A90065AE0FB7568057D037F20126C2B
:106F7000187F13126FF322AC0712701C1270DC1210
:106F8000701C7F01127016E4FF12717112701CE404
:106F9000FF1270E002701CAD07AC06E4FBFAC3EB15
:106FA0009DEC6480F8EA648098500A1271D90BBB9A
:106FB00000010A80E922AC07AD04E4FF1270E07F13
:106FC0000212702BAD047F011271710F12702B121F
:106FD00070DC02701C8F3312441CAF3312451FAF9C
:106FE00033124622AF33124725AF33124828AF334E
:106FF0000234DA7D04126419AD07AC06E412018193
:107000007B487AE179BA783F1200761201BA2212EF
:10701000701C7F01AD0412717112701CE4FFFE0F31
:10702000BF00010EEF64024E70F522AD07E4FBFADB
:10703000EDFFC3EB9F7480F86A98500A12701C0B26
:10704000BB00010A80EA22126EE3125DD712653896
:10705000126B587E007F807D007B017A0279950259
:107060000478AEA7E4F5A7EF600543C180800B5319
:10707000C17FC2C5C2C4C2C1C2C08EA72212714A9A
:10708000E4FF1205C77F011205C77F021205C77F03
:10709000031205C7023E86ADA7A2AF9201C2AFE4BC
:1070A000F5A78F828E8393FFA20192AF8DA7221244
:1070B0006E35E4FF120AE87F01120AE87F02120A25
:1070C000E87F03020AE8BD0408EF24FF92B392B2FE
:1070D00022BD0507EF24FF9291929022AD047F011B
:1070E000BD0406EF24FF92B222BD0505EF24FF92F6
:1070F0009022AF6312725AAF63AD0712701CE4FFA7
:107100001270E07F0202702BAC07AD04E4FF127036
:10711000E00F127016E4FF1271710F0270E090031D
:1071200082E05403600D125CC612003E900382E0C0
:1071300054FCF02275B28075BB1475DF1F75BC1846
:1071400075B90453E8F943E88522E4FF12723A90D6
:10715000065AE0FB7568057D037F20026C18AF8836
:107160005388AF758CF1EF5440FEEF54104E4288B7
:1071700022BD0406EF24FF92B322BD0505EF24FFD4
:10718000929122BF0404A2B28005BF0505A290E43B
:1071900033FEAF0622ED20E003EF8004EF54F0C48D
:1071A000540FFEAF0622900215126A96AC069001AB
:1071B00020ECF0A3EFF02285A72FE4F5A790012A99
:1071C000E030E30375EF1222E4F5A9E5A930E7FB0F
:1071D00075A903E5A930E7FB22E4FFFE000FBF001D
:1071E000010EBE17F7BF70F422E59154045391FBD2
:1071F0007593157592A0429122EFC454F04F9001FF
:1072000014F0A3E04403F022900113EFF090011A70
:10721000E04401F02275A60475A72075F33F75CCF4
:107220000C22123FB71252DE1255A202568112648E
:10723000DC1263B512621002627BAB077568057DD4
:10724000FF7F20026C187F0212634F7F0202678764
:1072500053C17F43C18053917F32AD077F011270CC
:10726000C602702BAE05BF2102AE03AF0622E4F5C5
:10727000A77597DE7597AD2275A40875F1FE75D4D4
:10728000FF2275A52875F27F75D5FF22E4F5A77555
:10729000E34075E1042275A71075C12022E4F5A72B
:1072A00075EF0622758E017589022275D7A043C13C
:1072B0009C22759C022275D1402275E681220266CD
:1072C000E6022B58FFFFFFFFFFFFFFFFFFFFFFFF5F
:1072D000FFFFFFFFFFFFFFFFFFFFFFFFFFFFFFFFBE
:1072E000FFFFFFFFFFFFFFFFFFFFFFFFFFFFFFFFAE
:1072F000FFFFFFFFFFFFFFFFFFFFFFFFFFFFFFFF9E
:10730000FFFFFFFFFFFFFFFFFFFFFFFFFFFFFFFF8D
:10C800001A100000000000000000000000000000FE
:10C810000000000000000000000000000000000018
:10C820000000000000000000000000000000000008
:10C8300000000000000000000000000000000000F8
:10C8400000000000000000000000000000000000E8
:10C8500000000000000000000000000000000000D8
:10C8600000000000000000000000000000000000C8
:10C8700000000000000000000000000000000000B8
:10C880001A4C555853484152452D494354202020B5
:10C89000203C18A000000000000000000000000084
:10C8A0000000000000000000000000000000000088
:10C8B0000000000000000000000000000000000078
:10C8C0000000000000000000000000000000000068
:10C8D0000000000000000000000000000000000058
:10C8E0000000000000000000000000000000000048
:10C8F0000000000000000000000000000000000038
:10C900000000FFFFFFFFFFFFFFFFFFFFFFFFFFFF35
:10C91000FFFFFFFFFFFFFFFFFFFFFFFFFFFFFFFF27
:10C92000FFFFFFFFFFFFFFFFFFFFFFFFFFFFFFFF17
:10C93000FFFFFFFFFFFFFFFFFFFFFFFFFFFFFFFF07
:10C94000FFFFFFFFFFFFFFFFFFFFFFFFFFFFFFFFF7
:10C95000FFFFFFFFFFFFFFFFFFFFFFFFFFFFFFFFE7
:10C96000FFFFFFFFFFFFFFFFFFFFFFFFFFFFFFFFD7
:10C97000FFFFFFFFFFFFFFFFFFFFFFFFFFFFFFFFC7
:10C98000FFFFFFFFFFFFFFFFFFFFFFFFFFFFFFFFB7
:10C99000FFFFFFFFFFFFFFFFFFFFFFFFFFFFFFFFA7
:10C9A000FFFFFFFFFFFFFFFFFFFFFFFFFFFFFFFF97
:10C9B000FFFFFFFFFFFFFFFFFFFFFFFFFFFFFFFF87
:10C9C000FFFFFFFFFFFFFFFFFFFFFFFFFFFFFFFF77
:10C9D000FFFFFFFFFFFFFFFFFFFFFFFFFFFFFFFF67
:10C9E000FFFFFFFFFFFFFFFFFFFFFFFFFFFFFFFF57
:10C9F000FFFFFFFFFFFFFFFFFFFFFFFFFFFFFFFF47
:10CA00000402000000000000000000000000000020
:10CA10000000000000000000000000000000000016
:10CA20000000000000000000000000000000000006
:10CA300000000000000000000000000000000000F6
:10CA400000000000000000000000000000000000E6
:10D00000010000000100000100000001000000011B
:10D01000000000010000000100000001000000010C
:10D0200000000001000000010000000100000001FC
:10D0300000000001000000008001000080010000ED
:10D040008001000080010046000100010001000095
:10D050000022222222333333335555555500000028
:10D0600000000000000000000000000000000000C0
:10D0700000000000000000000000000000000000B0
:10D08000FFFFFFFFFFFFFFFFFFFFFFFFFFFFFFFFB0
:10D09000FFFFFFFFFFFFFFFFFFFFFFFFFFFFFFFFA0
:10D0A000FFFFFFFFFFFFFFFFFFFFFFFFFFFFFFFF90
:10D0B000FFFFFFFFFFFFFFFFFFFFFFFFFFFFFFFF80
:10D0C000FFFFFFFFFFFFFFFFFFFFFFFFFFFFFFFF70
:10D0D000FFFFFFFFFFFFFFFFFFFFFFFFFFFFFFFF60
:10D0E000FFFFFFFFFFFFFFFFFFFFFFFFFFFFFFFF50
:10D0F000FFFFFFFFFFFFFFFFFFFFFFFFFFFFFFFF40
:10D10000FFFFFFFFFFFFFFFFFFFFFFFFFFFFFFFF2F
:10D11000FFFFFFFFFFFFFFFFFFFFFFFFFFFFFFFF1F
:10D12000FFFFFFFFFFFFFFFFFFFFFFFFFFFFFFFF0F
:10D13000FFFFFFFFFFFFFFFFFFFFFFFFFFFFFFFFFF
:10D14000FFFFFFFFFFFFFFFFFFFFFFFFFFFFFFFFEF
:10D15000FFFFFFFFFFFFFFFFFFFFFFFFFFFFFFFFDF
:10D16000FFFFFFFFFFFFFFFFFFFFFFFFFFFFFFFFCF
:10D17000FFFFFFFFFFFFFFFFFFFFFFFFFFFFFFFFBF
:10D18000FFFFFFFFFFFFFFFFFFFFFFFFFFFFFFFFAF
:10D19000FFFFFFFFFFFFFFFFFFFFFFFFFFFFFFFF9F
:10D1A000FFFFFFFFFFFFFFFFFFFFFFFFFFFFFFFF8F
:10D1B000FFFFFFFFFFFFFFFFFFFFFFFFFFFFFFFF7F
:10D1C000FFFFFFFFFFFFFFFFFFFFFFFFFFFFFFFF6F
:10D1D000FFFFFFFFFFFFFFFFFFFFFFFFFFFFFFFF5F
:10D1E000FFFFFFFFFFFFFFFFFFFFFFFFFFFFFFFF4F
:10D1F000FFFFFFFFFFFFFFFFFFFFFFFFFFFFFFFF3F
:10D200000C1316191C1F2326292C2F3236393C3FAC
:10D2100000FCF8F4F0ECE8E4E4E4E40000000000D2
:10D2200050647C940000000000000000000000003A
:10D230009378CCAE00000000000000000000000069
:10D2400000FCF8F4F0ECE8E4E4E4E40000000000A2
:10D2500000000000000000000000000000000000CE
:10D2600000000000000000000000000000000000BE
:10D2700000000000000000000000000000000000AE
:10D28000FFFFFFFFFFFFFFFFFFFFFFFFFFFFFFFFAE
:10D29000FFFFFFFFFFFFFFFFFFFFFFFFFFFFFFFF9E
:10D2A000FFFFFFFFFFFFFFFFFFFFFFFFFFFFFFFF8E
:10D2B000FFFFFFFFFFFFFFFFFFFFFFFFFFFFFFFF7E
:10D2C000FFFFFFFFFFFFFFFFFFFFFFFFFFFFFFFF6E
:10D2D000FFFFFFFFFFFFFFFFFFFFFFFFFFFFFFFF5E
:10D2E000FFFFFFFFFFFFFFFFFFFFFFFFFFFFFFFF4E
:10D2F000FFFFFFFFFFFFFFFFFFFFFFFFFFFFFFFF3E
:10D30000FFFFFFFFFFFFFFFFFFFFFFFFFFFFFFFF2D
:10D31000FFFFFFFFFFFFFFFFFFFFFFFFFFFFFFFF1D
:10D32000FFFFFFFFFFFFFFFFFFFFFFFFFFFFFFFF0D
:10D33000FFFFFFFFFFFFFFFFFFFFFFFFFFFFFFFFFD
:10D34000FFFFFFFFFFFFFFFFFFFFFFFFFFFFFFFFED
:10D35000FFFFFFFFFFFFFFFFFFFFFFFFFFFFFFFFDD
:10D36000FFFFFFFFFFFFFFFFFFFFFFFFFFFFFFFFCD
:10D37000FFFFFFFFFFFFFFFFFFFFFFFFFFFFFFFFBD
:10D38000FFFFFFFFFFFFFFFFFFFFFFFFFFFFFFFFAD
:10D39000FFFFFFFFFFFFFFFFFFFFFFFFFFFFFFFF9D
:10D3A000FFFFFFFFFFFFFFFFFFFFFFFFFFFFFFFF8D
:10D3B000FFFFFFFFFFFFFFFFFFFFFFFFFFFFFFFF7D
:10D3C000FFFFFFFFFFFFFFFFFFFFFFFFFFFFFFFF6D
:10D3D000FFFFFFFFFFFFFFFFFFFFFFFFFFFFFFFF5D
:10D3E000FFFFFFFFFFFFFFFFFFFFFFFFFFFFFFFF4D
:10D3F000FFFFFFFFFFFFFFFFFFFFFFFFFFFFFFFF3D
:10D4000000000000000000000000000000040060B8
:10D41000FF0F0F0070080000070707070FF6002A2C
:10D420002A2A2A636363630202020226262626044E
:10D4300000001000080400000000000000000000D0
:10D4400000000000000000000000000000000000DC
:10D4500000000000000000000000000000000000CC
:10D4600000000000000000000000000000000000BC
:10D4700000000000000000000000000000000000AC
:10D48000FFFFFFFFFFFFFFFFFFFFFFFFFFFFFFFFAC
:10D49000FFFFFFFFFFFFFFFFFFFFFFFFFFFFFFFF9C
:10D4A000FFFFFFFFFFFFFFFFFFFFFFFFFFFFFFFF8C
:10D4B000FFFFFFFFFFFFFFFFFFFFFFFFFFFFFFFF7C
:10D4C000FFFFFFFFFFFFFFFFFFFFFFFFFFFFFFFF6C
:10D4D000FFFFFFFFFFFFFFFFFFFFFFFFFFFFFFFF5C
:10D4E000FFFFFFFFFFFFFFFFFFFFFFFFFFFFFFFF4C
:10D4F000FFFFFFFFFFFFFFFFFFFFFFFFFFFFFFFF3C
:10D50000FFFFFFFFFFFFFFFFFFFFFFFFFFFFFFFF2B
:10D51000FFFFFFFFFFFFFFFFFFFFFFFFFFFFFFFF1B
:10D52000FFFFFFFFFFFFFFFFFFFFFFFFFFFFFFFF0B
:10D53000FFFFFFFFFFFFFFFFFFFFFFFFFFFFFFFFFB
:10D54000FFFFFFFFFFFFFFFFFFFFFFFFFFFFFFFFEB
:10D55000FFFFFFFFFFFFFFFFFFFFFFFFFFFFFFFFDB
:10D56000FFFFFFFFFFFFFFFFFFFFFFFFFFFFFFFFCB
:10D57000FFFFFFFFFFFFFFFFFFFFFFFFFFFFFFFFBB
:10D58000FFFFFFFFFFFFFFFFFFFFFFFFFFFFFFFFAB
:10D59000FFFFFFFFFFFFFFFFFFFFFFFFFFFFFFFF9B
:10D5A000FFFFFFFFFFFFFFFFFFFFFFFFFFFFFFFF8B
:10D5B000FFFFFFFFFFFFFFFFFFFFFFFFFFFFFFFF7B
:10D5C000FFFFFFFFFFFFFFFFFFFFFFFFFFFFFFFF6B
:10D5D000FFFFFFFFFFFFFFFFFFFFFFFFFFFFFFFF5B
:10D5E000FFFFFFFFFFFFFFFFFFFFFFFFFFFFFFFF4B
:10D5F000FFFFFFFFFFFFFFFFFFFFFFFFFFFFFFFF3B
:10D6000000000074090000000F20380D000035BC38
:10D61000012570001D04E4000075090000000F20C2
:10D62000380D000035BC012570001D04E4000075B4
:10D63000090000000F20380D000035BC01257000E6
:10D640001D04E4000074090000000F20380D0000E4
:10D6500035BC012570001D04E40000003F00003FC0
:10D660000000F3000003000C03000C03000C00009A
:10D6700000000000000000000000000000000000AA
:10D68000FFFFFFFFFFFFFFFFFFFFFFFFFFFFFFFFAA
:10D69000FFFFFFFFFFFFFFFFFFFFFFFFFFFFFFFF9A
:10D6A000FFFFFFFFFFFFFFFFFFFFFFFFFFFFFFFF8A
:10D6B000FFFFFFFFFFFFFFFFFFFFFFFFFFFFFFFF7A
:10D6C000FFFFFFFFFFFFFFFFFFFFFFFFFFFFFFFF6A
:10D6D000FFFFFFFFFFFFFFFFFFFFFFFFFFFFFFFF5A
:10D6E000FFFFFFFFFFFFFFFFFFFFFFFFFFFFFFFF4A
:10D6F000FFFFFFFFFFFFFFFFFFFFFFFFFFFFFFFF3A
:10D70000FFFFFFFFFFFFFFFFFFFFFFFFFFFFFFFF29
:10D71000FFFFFFFFFFFFFFFFFFFFFFFFFFFFFFFF19
:10D72000FFFFFFFFFFFFFFFFFFFFFFFFFFFFFFFF09
:10D73000FFFFFFFFFFFFFFFFFFFFFFFFFFFFFFFFF9
:10D74000FFFFFFFFFFFFFFFFFFFFFFFFFFFFFFFFE9
:10D75000FFFFFFFFFFFFFFFFFFFFFFFFFFFFFFFFD9
:10D76000FFFFFFFFFFFFFFFFFFFFFFFFFFFFFFFFC9
:10D77000FFFFFFFFFFFFFFFFFFFFFFFFFFFFFFFFB9
:10D78000FFFFFFFFFFFFFFFFFFFFFFFFFFFFFFFFA9
:10D79000FFFFFFFFFFFFFFFFFFFFFFFFFFFFFFFF99
:10D7A000FFFFFFFFFFFFFFFFFFFFFFFFFFFFFFFF89
:10D7B000FFFFFFFFFFFFFFFFFFFFFFFFFFFFFFFF79
:10D7C000FFFFFFFFFFFFFFFFFFFFFFFFFFFFFFFF69
:10D7D000FFFFFFFFFFFFFFFFFFFFFFFFFFFFFFFF59
:10D7E000FFFFFFFFFFFFFFFFFFFFFFFFFFFFFFFF49
:10D7F000FFFFFFFFFFFFFFFFFFFFFFFFFFFFFFFF39
:10D80000282C0001FFF4FFF4FFF4FFF400800080F7
:10D810000080008000000000000000000000000008
:10D8200000000000000000000000000000000000F8
:10D8300000000000000000000000000100000000E7
:10D840000000000180000000800000008102010350
:10D8500081840102000000000000000000000000C0
:10D8600000000000000000000000000000000000B8
:10D8700000000000000000000000000000000000A8
:10D88000FFFFFFFFFFFFFFFFFFFFFFFFFFFFFFFFA8
:10D89000FFFFFFFFFFFFFFFFFFFFFFFFFFFFFFFF98
:10D8A000FFFFFFFFFFFFFFFFFFFFFFFFFFFFFFFF88
:10D8B000FFFFFFFFFFFFFFFFFFFFFFFFFFFFFFFF78
:10D8C000FFFFFFFFFFFFFFFFFFFFFFFFFFFFFFFF68
:10D8D000FFFFFFFFFFFFFFFFFFFFFFFFFFFFFFFF58
:10D8E000FFFFFFFFFFFFFFFFFFFFFFFFFFFFFFFF48
:10D8F000FFFFFFFFFFFFFFFFFFFFFFFFFFFFFFFF38
:10D90000FFFFFFFFFFFFFFFFFFFFFFFFFFFFFFFF27
:10D91000FFFFFFFFFFFFFFFFFFFFFFFFFFFFFFFF17
:10D92000FFFFFFFFFFFFFFFFFFFFFFFFFFFFFFFF07
:10D93000FFFFFFFFFFFFFFFFFFFFFFFFFFFFFFFFF7
:10D94000FFFFFFFFFFFFFFFFFFFFFFFFFFFFFFFFE7
:10D95000FFFFFFFFFFFFFFFFFFFFFFFFFFFFFFFFD7
:10D96000FFFFFFFFFFFFFFFFFFFFFFFFFFFFFFFFC7
:10D97000FFFFFFFFFFFFFFFFFFFFFFFFFFFFFFFFB7
:10D98000FFFFFFFFFFFFFFFFFFFFFFFFFFFFFFFFA7
:10D99000FFFFFFFFFFFFFFFFFFFFFFFFFFFFFFFF97
:10D9A000FFFFFFFFFFFFFFFFFFFFFFFFFFFFFFFF87
:10D9B000FFFFFFFFFFFFFFFFFFFFFFFFFFFFFFFF77
:10D9C000FFFFFFFFFFFFFFFFFFFFFFFFFFFFFFFF67
:10D9D000FFFFFFFFFFFFFFFFFFFFFFFFFFFFFFFF57
:10D9E000FFFFFFFFFFFFFFFFFFFFFFFFFFFFFFFF47
:10D9F000FFFFFFFFFFFFFFFFFFFFFFFFFFFFFFFF37
:10DA0000FFECFFECFFECFFEC00940094009400941A
:10DA10000000000000000000000000000000000006
:10DA200000000000000000000000000000000000F6
:10DA300000000000000100000000000000010000E4
:10DA400000000000000000000000000000000000D6
:10DA500000000000000000000000000000000000C6
:10DA600000000000000000000000000000000000B6
:10DA70000000000000000000000000000000FFFFA8
:10DA8000FFFFFFFFFFFFFFFFFFFFFFFFFFFFFFFFA6
:10DA9000FFFFFFFFFFFFFFFFFFFFFFFFFFFFFFFF96
:10DAA000FFFFFFFFFFFFFFFFFFFFFFFFFFFFFFFF86
:10DAB000FFFFFFFFFFFFFFFFFFFFFFFFFFFFFFFF76
:10F800000100000000000000FFFFFFFFFFFFFFFFFF
:00000001FF
