:1000000002B2F985A72E12C6E912C6F312C6FD1276
:10001000C68C12C71112C70712C59112003E12C733
:100020001812C71F12C63D12C5F512C65E12C726AA
:1000300012C72D12C73A852EA7222202555D75D10F
:100040004022FF02C5E2E4FF12C6BD7554047BAA3C
:100050007D027F2012BEBD7F0A7E0012C38C7554C4
:1000600004E4FB7D027F2012BEBD7F0A7E0002C336
:100070008CFFFF02C6D58F2F7B217A007D217C80EB
:1000800012A4E5E52FB408004003020F5E9000942F
:10009000F82828730200AC0202630204330206034C
:1000A0000207D40209A4020B8C020D74E4F5437F0D
:1000B00050FEFD7C5212AC9CE4F543FFFEFD7C52E9
:1000C00012AC9C75433875441D754500754604E4B3
:1000D000F547FFFEFD7C5212A800754300754401F0
:1000E000754500754604E4F5477F40FEFD7C5212DD
:1000F000A800754300754401754500754604E4F594
:10010000477F40FEFD7C5212A800E4F5437F50FE7D
:10011000FD7C5212AC9C754380754400754500759A
:100120004604E4F5477F50FEFD7C5212A800E4F53A
:10013000437F50FEFD7C5212AC9C75438075440891
:10014000754500754604E4F5477F50FEFD7C52126C
:10015000A800E4F5437F50FEFD7C5212AC9C754331
:1001600080754418754500754604E4F5477F50FED8
:10017000FD7C5212A800E4F5437F50FEFD7C521234
:10018000AC9C754380754419754500754604E4F5CB
:10019000477F50FEFD7C5212A800E4F5437F50FEDD
:1001A000FD7C5212AC9C75438075441B75450075EF
:1001B0004604E4F5477F50FEFD7C5212A800E4F5AA
:1001C000437F50FEFD7C5212AC9C75438075441FEA
:1001D000754500754604E4F5477F50FEFD7C5212DC
:1001E000A800754380754400754500754604E4F524
:1001F000477F04FEFD7C5212A800E4F5437F04FE15
:10020000FD7C5212AC9C75438075440875450075A1
:100210004604E4F5477F04FEFD7C5212A800E4F595
:10022000437F04FEFD7C5212AC9C754380754418DC
:10023000754500754604E4F5477F04FEFD7C5212C7
:10024000A800E4F5437F04FEFD7C5212AC9C75438C
:1002500080754418754500754604E4F5477F04FE33
:100260000207D0E4F5437F507E40FD7C5212AC9CE7
:10027000E4F543FF7E04FD7C5212AC9C7543387557
:10028000441D754500754604E4F547FF7E04FD7C7A
:100290005212A80075430075440175450075460467
:1002A000E4F5477F407E04FD7C5212A800754300B0
:1002B000754401754500754604E4F5477F407E04AA
:1002C000FD7C5212A800E4F5437F507E04FD7C5271
:1002D00012AC9C754380754400754500754604E476
:1002E000F5477F507E047D207C0512A800E4F5438D
:1002F0007F507E04FD7C5212AC9C7543807544088F
:10030000754500754604E4F5477F507E04FD7C5238
:1003100012A800E4F5437F507E04FD7C5212AC9C91
:10032000754380754418754500754604E4F5477FAC
:10033000507E04FD7C5212A800E4F5437F507E04F9
:10034000FD7C5212AC9C754380754419754500754F
:100350004604E4F5477F507E04FD7C5212A800E479
:10036000F5437F507E04FD7C5212AC9C7543807532
:10037000441B754500754604E4F5477F507E04FD37
:100380007C5212A800E4F5437F507E04FD7C52129B
:10039000AC9C75438075441F754500754604E4F5B3
:1003A000477F507E04FD7C5212A80075438075443F
:1003B00000754500754604E4F5477F047E04FD7C26
:1003C0005212A800E4F5437F047E04FD7C5212AC77
:1003D0009C754380754408754500754604E4F547EF
:1003E0007F047E04FD7C5212A800E4F5437F047E66
:1003F00004FD7C5212AC9C75438075441875450011
:10040000754604E4F5477F047E04FD7C5212A80083
:10041000E4F5437F047E04FD7C5212AC9C7543805E
:10042000754418754500754604E4F5477F047E045D
:100430000207D0E4F5437F507E80FD7C5212AC9CD5
:10044000E4F543FF7E08FD7C5212AC9C7543387581
:10045000441D754500754604E4F547FF7E08FD7CA4
:100460005212A80075430075440175450075460495
:10047000E4F5477F407E08FD7C5212A800754300DA
:10048000754401754500754604E4F5477F407E08D4
:10049000FD7C5212A800E4F5437F507E08FD7C529B
:1004A00012AC9C754380754400754500754604E4A4
:1004B000F5477F507E087D207C0512A800E4F543B7
:1004C0007F507E08FD7C5212AC9C754380754408B9
:1004D000754500754604E4F5477F507E08FD7C5263
:1004E00012A800E4F5437F507E08FD7C5212AC9CBC
:1004F000754380754418754500754604E4F5477FDB
:10050000507E08FD7C5212A800E4F5437F507E081F
:10051000FD7C5212AC9C754380754419754500757D
:100520004604E4F5477F507E08FD7C5212A800E4A3
:10053000F5437F507E08FD7C5212AC9C754380755C
:10054000441B754500754604E4F5477F507E08FD61
:100550007C5212A800E4F5437F507E08FD7C5212C5
:10056000AC9C75438075441F754500754604E4F5E1
:10057000477F507E08FD7C5212A800754380754469
:1005800000754500754604E4F5477F047E08FD7C50
:100590005212A800E4F5437F047E08FD7C5212ACA1
:1005A0009C754380754408754500754604E4F5471D
:1005B0007F047E08FD7C5212A800E4F5437F047E90
:1005C00008FD7C5212AC9C7543807544187545003B
:1005D000754604E4F5477F047E08FD7C5212A800AE
:1005E000E4F5437F047E08FD7C5212AC9C75438089
:1005F000754418754500754604E4F5477F047E0888
:100600000207D0E4F5437F507EC0FD7C5212AC9CC3
:10061000E4F543FF7E0CFD7C5212AC9C75433875AB
:10062000441D754500754604E4F547FF7E0CFD7CCE
:100630005212A800754300754401754500754604C3
:10064000E4F5477F407E0CFD7C5212A80075430004
:10065000754401754500754604E4F5477F407E0CFE
:10066000FD7C5212A800E4F5437F507E0CFD7C52C5
:1006700012AC9C754380754400754500754604E4D2
:10068000F5477F507E0C7D207C0512A800E4F543E1
:100690007F507E0CFD7C5212AC9C754380754408E3
:1006A000754500754604E4F5477F507E0CFD7C528D
:1006B00012A800E4F5437F507E0CFD7C5212AC9CE6
:1006C000754380754418754500754604E4F5477F09
:1006D000507E0CFD7C5212A800E4F5437F507E0C46
:1006E000FD7C5212AC9C75438075441975450075AC
:1006F0004604E4F5477F507E0CFD7C5212A800E4CE
:10070000F5437F507E0CFD7C5212AC9C7543807586
:10071000441B754500754604E4F5477F507E0CFD8B
:100720007C5212A800E4F5437F507E0CFD7C5212EF
:10073000AC9C75438075441F754500754604E4F50F
:10074000477F507E0CFD7C5212A800754380754493
:1007500000754500754604E4F5477F047E0CFD7C7A
:100760005212A800E4F5437F047E0CFD7C5212ACCB
:100770009C754380754408754500754604E4F5474B
:100780007F047E0CFD7C5212A800E4F5437F047EBA
:100790000CFD7C5212AC9C75438075441875450065
:1007A000754604E4F5477F047E0CFD7C5212A800D8
:1007B000E4F5437F047E0CFD7C5212AC9C754380B3
:1007C000754418754500754604E4F5477F047E0CB2
:1007D000FD020F59E4F5437F50FE7D017C5212ACBF
:1007E0009CE4F543FFFE7D017C5212AC9C754338BE
:1007F00075441D754500754604E4F547FFFE7D010F
:100800007C5212A800754300754401754500754679
:1008100004E4F5477F40FE7D017C5212A800754339
:1008200000754401754500754604E4F5477F40FEB8
:100830007D017C5212A800E4F5437F50FE7D017CCF
:100840005212AC9C75438075440075450075460492
:10085000E4F5477F50FE7D017C5212A800E4F54389
:100860007F50FE7D017C5212AC9C7543807544081C
:10087000754500754604E4F5477F50FE7D017C52C6
:1008800012A800E4F5437F50FE7D017C5212AC9C1F
:10089000754380754418754500754604E4F5477F37
:1008A00050FE7D017C5212A800E4F5437F50FE7D8E
:1008B000017C5212AC9C75438075441975450075D6
:1008C0004604E4F5477F50FE7D017C5212A800E407
:1008D000F5437F50FE7D017C5212AC9C75438075C0
:1008E000441B754500754604E4F5477F50FE7D01C5
:1008F0007C5212A800E4F5437F50FE7D017C521229
:10090000AC9C75438075441F754500754604E4F53D
:10091000477F50FE7D017C5212A8007543807544CC
:1009200000754500754604E4F5477F04FE7D017CB3
:100930005212A800E4F5437F04FE7D017C5212AC04
:100940009C754380754408754500754604E4F54779
:100950007F04FE7D017C5212A800E4F5437F04FE73
:100960007D017C5212AC9C7543807544187545001E
:10097000754604E4F5477F04FE7D017C5212A80011
:10098000E4F5437F04FE7D017C5212AC9C754380EC
:10099000754418754500754604E4F5477F04FE7DEF
:1009A00001020F59E4F5437F507E047D017C521211
:1009B000AC9CE4F543FF7E047D017C5212AC9C7537
:1009C000433875441D754500754604E4F547FF7EC0
:1009D000047D017C5212A8007543007544017545E1
:1009E00000754604E4F5477F407E047D017C521289
:1009F000A800754300754401754500754604E4F58B
:100A0000477F407E047D017C5212A800E4F5437FBD
:100A1000507E047D017C5212AC9C7543807544006D
:100A2000754500754604E4F5477F507E047D017CE2
:100A30005212A800E4F5437F507E047D017C5212DF
:100A4000AC9C754380754408754500754604E4F513
:100A5000477F507E047D017C5212A800E4F5437F5D
:100A6000507E047D017C5212AC9C75438075441805
:100A7000754500754604E4F5477F507E047D017C92
:100A80005212A800E4F5437F507E047D017C52128F
:100A9000AC9C754380754419754500754604E4F5B2
:100AA000477F507E047D017C5212A800E4F5437F0D
:100AB000507E047D017C5212AC9C75438075441BB2
:100AC000754500754604E4F5477F507E047D017C42
:100AD0005212A800E4F5437F507E047D017C52123F
:100AE000AC9C75438075441F754500754604E4F55C
:100AF000477F507E047D017C5212A80075438075AB
:100B00004400754500754604E4F5477F047E047D86
:100B1000017C5212A800E4F5437F047E047D017C31
:100B20005212AC9C754380754408754500754604A7
:100B3000E4F5477F047E047D017C5212A800E4F5B1
:100B4000437F047E047D017C5212AC9C754380750A
:100B50004418754500754604E4F5477F047E047D1E
:100B6000017C5212A800E4F5437F047E047D017CE1
:100B70005212AC9C75438075441875450075460447
:100B8000E4F5477F047E047D01020F59E4F5437FBD
:100B9000507E087D017C5212AC9CE4F543FF7E0838
:100BA0007D017C5212AC9C75433875441D7545001F
:100BB000754604E4F547FF7E087D017C5212A800CB
:100BC000754300754401754500754604E4F5477F9B
:100BD000407E087D017C5212A800754300754401D7
:100BE000754500754604E4F5477F407E087D017C2D
:100BF0005212A800E4F5437F507E087D017C52121A
:100C0000AC9C754380754400754500754604E4F559
:100C1000477F507E087D017C5212A800E4F5437F97
:100C2000507E087D017C5212AC9C7543807544084F
:100C3000754500754604E4F5477F507E087D017CCC
:100C40005212A800E4F5437F507E087D017C5212C9
:100C5000AC9C754380754418754500754604E4F5F1
:100C6000477F507E087D017C5212A800E4F5437F47
:100C7000507E087D017C5212AC9C754380754419EE
:100C8000754500754604E4F5477F507E087D017C7C
:100C90005212A800E4F5437F507E087D017C521279
:100CA000AC9C75438075441B754500754604E4F59E
:100CB000477F507E087D017C5212A800E4F5437FF7
:100CC000507E087D017C5212AC9C75438075441F98
:100CD000754500754604E4F5477F507E087D017C2C
:100CE0005212A8007543807544007545007546048E
:100CF000E4F5477F047E087D017C5212A800E4F5EC
:100D0000437F047E087D017C5212AC9C7543807544
:100D10004408754500754604E4F5477F047E087D68
:100D2000017C5212A800E4F5437F047E087D017C1B
:100D30005212AC9C75438075441875450075460485
:100D4000E4F5477F047E087D017C5212A800E4F59B
:100D5000437F047E087D017C5212AC9C75438075F4
:100D60004418754500754604E4F5477F047E087D08
:100D700001020F59E4F5437F507E0C7D017C521235
:100D8000AC9CE4F543FF7E0C7D017C5212AC9C755B
:100D9000433875441D754500754604E4F547FF7EEC
:100DA0000C7D017C5212A800754300754401754505
:100DB00000754604E4F5477F407E0C7D017C5212AD
:100DC000A800754300754401754500754604E4F5B7
:100DD000477F407E0C7D017C5212A800E4F5437FE2
:100DE000507E0C7D017C5212AC9C75438075440092
:100DF000754500754604E4F5477F507E0C7D017C07
:100E00005212A800E4F5437F507E0C7D017C521203
:100E1000AC9C754380754408754500754604E4F53F
:100E2000477F507E0C7D017C5212A800E4F5437F81
:100E3000507E0C7D017C5212AC9C75438075441829
:100E4000754500754604E4F5477F507E0C7D017CB6
:100E50005212A800E4F5437F507E0C7D017C5212B3
:100E6000AC9C754380754419754500754604E4F5DE
:100E7000477F507E0C7D017C5212A800E4F5437F31
:100E8000507E0C7D017C5212AC9C75438075441BD6
:100E9000754500754604E4F5477F507E0C7D017C66
:100EA0005212A800E4F5437F507E0C7D017C521263
:100EB000AC9C75438075441F754500754604E4F588
:100EC000477F507E0C7D017C5212A80075438075CF
:100ED0004400754500754604E4F5477F047E0C7DAB
:100EE000017C5212A800E4F5437F047E0C7D017C56
:100EF0005212AC9C754380754408754500754604D4
:100F0000E4F5477F047E0C7D017C5212A800E4F5D5
:100F1000437F047E0C7D017C5212AC9C754380752E
:100F20004418754500754604E4F5477F047E0C7D42
:100F3000017C5212A800E4F5437F047E0C7D017C05
:100F40005212AC9C75438075441875450075460473
:100F5000E4F5477F047E0C7D017C5212A800228FAD
:100F600031E53164016003021063F5437F0C7E11AB
:100F7000FD7C5812AC9C8E32EF54EFF53390048B0D
:100F8000E04532F534A3E04533F535853443F54487
:100F9000754500754604E4F5477F0C7E11FD7C58CD
:100FA00012A800E4F5437FDC7E10FD7C5812AC9C57
:100FB0008E328F3390048CE030E40B853234E5338D
:100FC0004401F5358009853234E53354FEF5358525
:100FD0003443853544754500754604E4F5477FDCA8
:100FE0007E10FD7C5812A800E4F5437F987E21FD19
:100FF0007C5812AC9C8E328F33E5324480F54385A9
:101000003344754500754604E4F5477F987E21FD1D
:101010007C5812A8007B047A007D047C80E4FF12D7
:10102000A4E57F0A7E0012C38CE4F5437F987E21FD
:10103000FD7C5812AC9C8E328F33E532547FF543E1
:10104000853344754500754604E4F5477F987E2155
:10105000FD7C5812A8007B047A007D047C80E4FFAC
:1010600002178EE53164026003021165F5437F0CBF
:101070007E51FD7C5812AC9C8E32EF54EFF53390CC
:10108000048DE04532F534A3E04533F5358534432E
:10109000F544754500754604E4F5477F0C7E51FD27
:1010A0007C5812A800E4F5437FDC7E50FD7C58128A
:1010B000AC9C8E328F3390048EE030E40B8532345A
:1010C000E5334401F5358009853234E53354FEF5C6
:1010D00035853443853544754500754604E4F54748
:1010E0007FDC7E50FD7C5812A800E4F5437F987E9B
:1010F00061FD7C5812AC9C8E328F33E5324480F512
:1011000043853344754500754604E4F5477F987E72
:1011100061FD7C5812A8007B047A007D047C807FEE
:101120000112A4E57F0A7E0012C38CE4F5437F9888
:101130007E61FD7C5812AC9C8E328F33E532547F39
:10114000F543853344754500754604E4F5477F98BB
:101150007E61FD7C5812A8007B047A007D047C80AF
:101160007F0102178EE53164036003021267F543C5
:101170007F0C7E91FD7C5812AC9C8E32EF54EFF5C3
:101180003390048FE04532F534A3E04533F53585DF
:101190003443F544754500754604E4F5477F0C7EFD
:1011A00091FD7C5812A800E4F5437FDC7E90FD7C25
:1011B0005812AC9C8E328F33900490E030E40B8553
:1011C0003234E5334401F5358009853234E5335452
:1011D000FEF535853443853544754500754604E490
:1011E000F5477FDC7E90FD7C5812A800E4F5437F34
:1011F000987EA1FD7C5812AC9C8E328F33E5324430
:1012000080F543853344754500754604E4F5477F12
:10121000987EA1FD7C5812A8007B047A007D047C96
:10122000807F0212A4E57F0A7E0012C38CE4F5439E
:101230007F987EA1FD7C5812AC9C8E328F33E532B4
:10124000547FF543853344754500754604E4F547FE
:101250007F987EA1FD7C5812A8007B047A007D0453
:101260007C807F0202178EE53164046003021369FB
:10127000F5437F0C7ED1FD7C5812AC9C8E32EF542E
:10128000EFF533900491E04532F534A3E04533F5B2
:1012900035853443F544754500754604E4F5477FCC
:1012A0000C7ED1FD7C5812A800E4F5437FDC7ED093
:1012B000FD7C5812AC9C8E328F33900492E030E467
:1012C0000B853234E5334401F5358009853234E548
:1012D0003354FEF5358534438535447545007546F0
:1012E00004E4F5477FDC7ED0FD7C5812A800E4F5CD
:1012F000437F987EE1FD7C5812AC9C8E328F33E5A3
:10130000324480F543853344754500754604E4F561
:10131000477F987EE1FD7C5812A8007B047A007D0F
:10132000047C807F0312A4E57F0A7E0012C38CE454
:10133000F5437F987EE1FD7C5812AC9C8E328F3352
:10134000E532547FF543853344754500754604E422
:10135000F5477F987EE1FD7C5812A8007B047A0057
:101360007D047C807F0302178EE5316405600302F3
:1013700014737543017F0C7E11FD7C5812AC9C8E5A
:1013800032EF54EFF53390050BE04532F534A3E02E
:101390004533F535853443F5447545007546047588
:1013A00047017F0C7E117D007C5812A80075430117
:1013B0007FDC7E107D007C5812AC9C8E328F339087
:1013C000050CE030E40B853234E5334401F535801B
:1013D00009853234E53354FEF5358534438535448B
:1013E0007545007546047547017FDC7E107D007CE5
:1013F0005812A8007543017F987E217D007C581209
:10140000AC9C8E328F33E5324480F543853344758E
:1014100045007546047547017F987E217D007C5804
:1014200012A8007B047A007D047C807F0412A4E56E
:101430007F0A7E0012C38C7543017F987E217D0058
:101440007C5812AC9C8E328F33E532547FF5438545
:1014500033447545007546047547017F987E217DAC
:10146000007C5812A8007B047A007D047C807F04F5
:1014700002178EE5316406600302157D7543017F16
:101480000C7E51FD7C5812AC9C8E32EF54EFF5333C
:1014900090050DE04532F534A3E04533F53585344C
:1014A00043F5447545007546047547017F0C7E5130
:1014B0007D007C5812A8007543017FDC7E507D00C2
:1014C0007C5812AC9C8E328F3390050EE030E40BCA
:1014D000853234E5334401F5358009853234E5330E
:1014E00054FEF5358534438535447545007546040D
:1014F0007547017FDC7E507D007C5812A800754343
:10150000017F987E617D007C5812AC9C8E328F33B7
:10151000E5324480F54385334475450075460475CE
:1015200047017F987E617D007C5812A8007B047A79
:10153000007D047C807F0512A4E57F0A7E0012C333
:101540008C7543017F987E617D007C5812AC9C8E27
:10155000328F33E532547FF543853344754500754A
:1015600046047547017F987E617D007C5812A80073
:101570007B047A007D047C807F0502178EE5316450
:101580000760030216877543017F0C7E91FD7C582E
:1015900012AC9C8E32EF54EFF53390050FE04532DC
:1015A000F534A3E04533F535853443F544754500FE
:1015B0007546047547017F0C7E917D007C5812A80A
:1015C000007543017FDC7E907D007C5812AC9C8EC0
:1015D000328F33900510E030E40B853234E533442C
:1015E00001F5358009853234E53354FEF53585340F
:1015F000438535447545007546047547017FDC7E9B
:10160000907D007C5812A8007543017F987EA17DD3
:10161000007C5812AC9C8E328F33E5324480F54307
:101620008533447545007546047547017F987EA152
:101630007D007C5812A8007B047A007D047C807FAA
:101640000612A4E57F0A7E0012C38C7543017F98C1
:101650007EA17D007C5812AC9C8E328F33E53254D3
:101660007FF5438533447545007546047547017F12
:10167000987EA17D007C5812A8007B047A007D042E
:101680007C807F0602178EE53164086003021791A3
:101690007543017F0C7ED1FD7C5812AC9C8E32EFDD
:1016A00054EFF533900511E04532F534A3E04533AE
:1016B000F535853443F54475450075460475470195
:1016C0007F0C7ED17D007C5812A8007543017FDC21
:1016D0007ED07D007C5812AC9C8E328F33900512E8
:1016E000E030E40B853234E5334401F5358009857B
:1016F0003234E53354FEF53585344385354475453C
:10170000007546047547017FDC7ED07D007C581251
:10171000A8007543017F987EE17D007C5812AC9C47
:101720008E328F33E5324480F5438533447545006E
:101730007546047547017F987EE17D007C5812A8AC
:10174000007B047A007D047C807F0712A4E57F0A79
:101750007E0012C38C7543017F987EE17D007C582A
:1017600012AC9C8E328F33E532547FF5438533447F
:101770007545007546047547017F987EE17D007CC4
:101780005812A8007B047A007D047C807F0712A495
:10179000E522900013E0B440169000D0F09000CC09
:1017A000E04401F053A87FE4FF120076021879901C
:1017B0000013E0B450169000D0F09000CCE044014B
:1017C000F053A87FE4FF12596E021879900013E0DD
:1017D000B460169000D0F09000CCE04401F053A823
:1017E0007FE4FF125F6D021879900013E0B470156A
:1017F0009000D0F09000CCE04401F053A87FE4FFCB
:10180000129C938074900013E0B480179000D0F085
:101810009000CCE04401F053A87F7D01E4FF1292D8
:10182000ED8056900013E0B490169000D0F0900038
:10183000CCE04401F053A87FE4FDFF1292ED803923
:10184000900013E0B4A0179000D0F09000CCE044DA
:1018500001F053A87F7D01E4FF129110801B9000DE
:1018600013E0B4B0179000D0F09000CCE04401F049
:1018700053A87FE4FDFF12911043A880900014E06C
:10188000B440169000D1F09000CCE04410F053A882
:101890007F7F01120076021965900014E0B45016A3
:1018A0009000D1F09000CCE04410F053A87F7F016D
:1018B00012596E021965900014E0B460169000D1C0
:1018C000F09000CCE04410F053A87F7F01125F6DD0
:1018D000021965900014E0B470159000D1F09000EA
:1018E000CCE04410F053A87F7F01129C9380769047
:1018F0000014E0B480179000D1F09000CCE04410C8
:10190000F053A87F7D017F011292ED805890001462
:10191000E0B490179000D1F09000CCE04410F05368
:10192000A87FE4FD7F011292ED803A900014E0B4AC
:10193000A0179000D1F09000CCE04410F053A87FA5
:101940007D017F01129110801C900014E0B4B0184A
:101950009000D1F09000CCE04410F053A87FE4FD5B
:101960007F0112911043A880900015E0B4401690BA
:1019700000D2F09000CDE04401F053A87F7F021226
:101980000076021A51900015E0B450169000D2F083
:101990009000CDE04401F053A87F7F0212596E02FF
:1019A0001A51900015E0B460169000D2F09000CD6E
:1019B000E04401F053A87F7F02125F6D021A51903C
:1019C0000015E0B470159000D2F09000CDE0440115
:1019D000F053A87F7F02129C938076900015E0B4AC
:1019E00080179000D2F09000CDE04401F053A87F22
:1019F0007D017F021292ED8058900015E0B490179F
:101A00009000D2F09000CDE04401F053A87FE4FDB7
:101A10007F021292ED803A900015E0B4A01790007A
:101A2000D2F09000CDE04401F053A87F7D017F0209
:101A3000129110801C900015E0B4B0189000D2F004
:101A40009000CDE04401F053A87FE4FD7F021291A5
:101A50001043A880900016E0B440169000D3F09098
:101A600000CDE04410F053A87F7F03120076021BE4
:101A70003D900016E0B450169000D3F09000CDE0F9
:101A80004410F053A87F7F0312596E021B3D900053
:101A900016E0B460169000D3F09000CDE04410F052
:101AA00053A87F7F03125F6D021B3D900016E0B4C8
:101AB00070159000D3F09000CDE04410F053A87F53
:101AC0007F03129C938076900016E0B480179000FC
:101AD000D3F09000CDE04410F053A87F7D017F0348
:101AE0001292ED8058900016E0B490179000D3F059
:101AF0009000CDE04410F053A87FE4FD7F031292E4
:101B0000ED803A900016E0B4A0179000D3F090005A
:101B1000CDE04410F053A87F7D017F031291108027
:101B20001C900016E0B4B0189000D3F09000CDE007
:101B30004410F053A87FE4FD7F0312911043A88066
:101B4000900017E0B440169000D4F09000CEE0442E
:101B500001F053A87F7F04120076021C2990001721
:101B6000E0B450169000D4F09000CEE04401F05361
:101B7000A87F7F0412596E021C29900017E0B46000
:101B8000169000D4F09000CEE04401F053A87F7F7F
:101B900004125F6D021C29900017E0B470159000CC
:101BA000D4F09000CEE04401F053A87F7F04129C53
:101BB000938076900017E0B480179000D4F09000E6
:101BC000CEE04401F053A87F7D017F041292ED80A6
:101BD00058900017E0B490179000D4F09000CEE039
:101BE0004401F053A87FE4FD7F041292ED803A9007
:101BF0000017E0B4A0179000D4F09000CEE04401AC
:101C0000F053A87F7D017F04129110801C90001773
:101C1000E0B4B0189000D4F09000CEE04401F0534E
:101C2000A87FE4FD7F0412911043A880900018E083
:101C3000B440169000D5F09000CEE04410F053A8C8
:101C40007F7F05120076021D15900018E0B4501633
:101C50009000D5F09000CEE04410F053A87F7F05AF
:101C600012596E021D15900018E0B460169000D550
:101C7000F09000CEE04410F053A87F7F05125F6D16
:101C8000021D15900018E0B470159000D5F090007A
:101C9000CEE04410F053A87F7F05129C938076908D
:101CA0000018E0B480179000D5F09000CEE044100A
:101CB000F053A87F7D017F051292ED8058900018A7
:101CC000E0B490179000D5F09000CEE04410F053AF
:101CD000A87FE4FD7F05129110803A900018E0B4CF
:101CE000A0179000D5F09000CEE04410F053A87FEC
:101CF0007D017F05129110801C900018E0B4B0188F
:101D00009000D5F09000CEE04410F053A87FE4FDA1
:101D10007F0512911043A880900019E0B4401690FE
:101D200000D6F09000CFE04401F053A87F7F061268
:101D30000076021E01900019E0B450169000D6F013
:101D40009000CFE04401F053A87F7F0612596E0245
:101D50001E01900019E0B460169000D6F09000CFFC
:101D6000E04401F053A87F7F06125F6D021E0190D0
:101D70000019E0B470159000D6F09000CFE0440157
:101D8000F053A87F7F06129C938076900019E0B4F0
:101D900080179000D6F09000CFE04401F053A87F68
:101DA0007D017F061292ED8058900019E0B49017E3
:101DB0009000D6F09000CFE04401F053A87FE4FDFE
:101DC0007F061292ED803A900019E0B4A0179000BF
:101DD000D6F09000CFE04401F053A87F7D017F064C
:101DE000129110801C900019E0B4B0189000D6F049
:101DF0009000CFE04401F053A87FE4FD7F061291EC
:101E00001043A88090001AE0B440169000D7F090DC
:101E100000CFE04410F053A87F7F07120076021E27
:101E2000ED90001AE0B450169000D7F09000CFE08B
:101E30004410F053A87F7F0712596E021EED9000E8
:101E40001AE0B460169000D7F09000CFE04410F094
:101E500053A87F7F07125F6D021EED90001AE0B459
:101E600070159000D7F09000CFE04410F053A87F99
:101E70007F07129C93807690001AE0B48017900040
:101E8000D7F09000CFE04410F053A87F7D017F078A
:101E90001292ED805890001AE0B490179000D7F09D
:101EA0009000CFE04410F053A87FE4FD7F0712922A
:101EB000ED803A90001AE0B4A0179000D7F090009F
:101EC000CFE04410F053A87F7D017F07129110806E
:101ED0001C90001AE0B4B0189000D7F09000CFE04A
:101EE0004410F053A87FE4FD7F0712911043A880AF
:101EF0002285A72E90018BE01238A81F35001F679E
:101F0000011FAC021FE5101FF482209B84213E8537
:101F100021558621AD8721FD8A22B08B23668C2333
:101F2000BE8E240E9024AB9124669224C6B024E287
:101F3000D000002523900650E0C3940150030225F1
:101F4000237B017A01790C7535007536807F007E20
:101F5000E812BCA37B017A01798C75350075368057
:101F60007F807EE80223BB900650E0C394015003BB
:101F70000225237B017A01798C7535007536807FC7
:101F8000007EEA12BCA3781D7C027D017B017A01F0
:101F9000798C7E007F8012379E7B017A02799F7553
:101FA00035007536807F807EEA0223BB900650E0C4
:101FB000C3940150030225237B017A02791D7535F4
:101FC000007536807F007EEA12BCA37B017A01791E
:101FD0008C7535007536807F807EEA12BD77789FDC
:101FE0007C0202214E90065C7401F078027C00FDB8
:101FF000FB0224A0900650E0D39401500302252355
:10200000900660E094F8405790020BE06401600392
:10201000022523900204E09007DBF0900205E09097
:1020200007DCF090020AE0FF9007E1F0BF01149096
:1020300007DBE0FD7B047F1C12BE7D9007DCEFF028
:102040000223249007E1E060030223249007DBE0F1
:10205000FDA3E0FB7554047F1C12BEBD0223247B4C
:10206000017A01798C7535007536807F007EF0121B
:10207000BCA378637C077D017B017A01798C7E00AB
:102080007F8012379E7B017A0779E37535007536BC
:10209000807F807EF012BD7702C741900650E0D36A
:1020A00094015003022523900660E094F840539079
:1020B000020BE064016003022523900204E0900813
:1020C0005BF0900205E090085CF090020AE0FF905F
:1020D0000861F0BF011390085BE0FD7B057F1C12D7
:1020E000BE7D90085CEFF08016900861E070109063
:1020F000085BE0FDA3E0FB7554057F1C12BEBD022A
:1021000023247B017A0779637535007536807F005B
:102110007EF012BCA37B017A01798C75350075368F
:10212000807F807EF012BD7778E37C077D017B01A4
:102130007A01798C7E007F8012379E02C744900618
:1021400050E0D39401500302252378E37C067D01FF
:102150007B010224A0900650E0D394015003022595
:10216000237B017A01798C7535007536807F007E7E
:10217000F212BCA3784F7C047D017B017A01798C3B
:102180007E007F8012379E78637C097D017B017A17
:1021900005794F7E007F8012379E7B017A09796333
:1021A0007535007536807F807EF20223BB90065025
:1021B000E0D39401500302252378637C097D017BE1
:1021C000017A04794F7E007F8012379E7B017A0965
:1021D00079637535007536807F007EF212BCA37B73
:1021E000017A01798C7535007536807F807EF21218
:1021F000BD77784F7C057D017B010224A0900650BD
:10220000E0D394015003022523900660E094F84047
:102210006390020BE064016003022523900204E056
:102220009008DBF0900205E09008DCF090020AE0F4
:10223000FF9008E1F0BF011B900206E0FF12C6BD4F
:102240009008DBE0FD7B047F2012BE7D9008DCEF70
:10225000F0801E9008E1E07018900206E0FF12C6C0
:10226000BD9008DBE0FDA3E0FB7554047F2012BEA7
:10227000BD0223247B017A01798C75350075368087
:102280007F007EF412BCA378637C087D017B017A19
:1022900001798C7E007F8012379E7B017A0879E37A
:1022A0007535007536807F807EF412BD7702C4904C
:1022B000900650E0D394015003022523900660E07D
:1022C00094F8406690020BE06401600302252390BD
:1022D0000204E090095BF0900205E090095CF09048
:1022E000020AE0FF900961F0BF011B900206E0FFC7
:1022F00012C6C990095BE0FD7B057F2012BE7D9070
:10230000095CEFF0801E900961E07018900206E011
:10231000FF12C6C990095BE0FDA3E0FB7554057F81
:102320002012BEBDE490020BF0227B017A08796393
:102330007535007536807F007EF412BCA37B017A70
:1023400001798C7535007536807F807EF412BD77FB
:1023500078E37C087D017B017A01798C7E007F80A7
:1023600012379E02C4AA900650E0D3940150030293
:1023700025237B017A01798C7535007536807F00C5
:102380007EF812BCA378CF7C047D017B017A0179B1
:102390008C7E007F8012379E78637C097D017B01F3
:1023A0007A0579CF7E007F8012379E7B017A09798A
:1023B000637535007536807F807EF802BD779006A4
:1023C00050E0D39401500302252378637C097D01FA
:1023D0007B017A0479CF7E007F8012379E7B017A61
:1023E0000979637535007536807F007EF812BCA3CD
:1023F0007B017A01798C7535007536807F807EF897
:1024000012BD7778CF7C057D017B010224A0900668
:1024100050E0D39401500302252378047C027D010F
:102420007B017A0379977E007F0812379E7B017AC1
:1024300001798C7535007536807F007EEC12BCA367
:102440007B017A03799F7535007536807F807EEC3D
:1024500012BD777B017A03791F7534007535807F53
:10246000007EEC02BCEB900650E0D39401500302D6
:1024700025237B017A03791F7535007536807F002F
:102480007EEC12BCA37B017A01798C753500753620
:10249000807F807EEC12BD77789F7C037D017B017D
:1024A0007A01798C7E007F8002379E900650E0D3BF
:1024B0009401406F7B017A01798C75350075368007
:1024C0007F007EEE8019900650E0D3940140547B4B
:1024D000017A01798C7535007536807F007EF602B1
:1024E000BCA3900650E0D394014038900660E064AD
:1024F000247030900663E064117028A3E0642270B9
:1025000022A3E06433701CA3E0B45517A3E0B466C3
:1025100012A3E0B4550D780076A5E4F5A775EF1287
:10252000852EA7228F31E531640160030225CBF5AA
:102530004312AC94EE54FE4408F532753300900516
:1025400077E04532FEA3E04533FF900577EEF0A338
:10255000EFF08E43F544754500754604E4F5477F7A
:10256000CC7E447D037C5012A800E4F54312AC9469
:10257000EE54F6F532753300900577E04532FEA350
:10258000E04533FF900577EEF0A3EFF08E43F5447E
:10259000754500754604E4F5477FCC7E447D037C99
:1025A0005012A800E4F5437F2C7E4A7D037C501234
:1025B000AC9C8E328F33853243E5334420F544752D
:1025C0004500754604E4F547022887E5316402605A
:1025D00003022680F5437FCC7E447D137C5012ACF1
:1025E0009CEE54FE4408F532753300900579E045C1
:1025F00032FEA3E04533FF900579EEF0A3EFF08EB5
:1026000043F544754500754604E4F5477FCC7E44A8
:102610007D137C5012A800E4F5437FCC7E447D13EB
:102620007C5012AC9CEE54F6F5327533009005796F
:10263000E04532FEA3E04533FF900579EEF0A3EFCD
:10264000F08E43F544754500754604E4F5477FCCAC
:102650007E447D137C5012A800E4F5437F2C7E4A13
:102660007D137C5012AC9C8E328F33853243E53320
:102670004420F544754500754604E4F547022943B6
:10268000E53164036003022735F5437FCC7E447D4A
:10269000237C5012AC9CEE54FE4408F53275330096
:1026A00090057BE04532FEA3E04533FF90057BEECD
:1026B000F0A3EFF08E43F544754500754604E4F54C
:1026C000477FCC7E447D237C5012A800E4F5437FF5
:1026D000CC7E447D237C5012AC9CEE54F6F53275D2
:1026E000330090057BE04532FEA3E04533FF9005C3
:1026F0007BEEF0A3EFF08E43F5447545007546047C
:10270000E4F5477FCC7E447D237C5012A800E4F59D
:10271000437F2C7E4A7D237C5012AC9C8E328F33BB
:10272000853243E5334420F544754500754604E49D
:10273000F5470229FFE531640460030227EAF54307
:102740007FCC7E447D337C5012AC9CEE54FE44081A
:10275000F53275330090057DE04532FEA3E0453348
:10276000FF90057DEEF0A3EFF08E43F54475450034
:10277000754604E4F5477FCC7E447D337C5012A837
:1027800000E4F5437FCC7E447D337C5012AC9CEE5C
:1027900054F6F53275330090057DE04532FEA3E036
:1027A0004533FF90057DEEF0A3EFF08E43F54475C1
:1027B0004500754604E4F5477FCC7E447D337C506C
:1027C00012A800E4F5437F2C7E4A7D337C5012AC86
:1027D0009C8E328F33853243E5334420F544754572
:1027E00000754604E4F547022ABBE5316405600341
:1027F00002289012AC91EE54FE4408F53275330075
:102800009005F7E04532FEA3E04533FF9005F7EE73
:10281000F0A3EFF08E43F544754500754604754707
:10282000017FCC7E447D037C5012A80012AC91EE57
:1028300054F6F5327533009005F7E04532FEA3E01B
:102840004533FF9005F7EEF0A3EFF08E43F54475A6
:1028500045007546047547017FCC7E447D037C505E
:1028600012A8007543017F2C7E4A7D037C5012AC78
:102870009C8E328F33853243E5334420F5447545D1
:10288000007546047547017F2C7E4A7D03022AC1EC
:10289000E5316406600302294C7543017FCC7E4418
:1028A0007D137C5012AC9CEE54FE4408F532753317
:1028B000009005F9E04532FEA3E04533FF9005F9AD
:1028C000EEF0A3EFF08E43F54475450075460475B0
:1028D00047017FCC7E447D137C5012A800754301D4
:1028E0007FCC7E447D137C5012AC9CEE54F6F532C6
:1028F0007533009005F9E04532FEA3E04533FF90C3
:1029000005F9EEF0A3EFF08E43F5447545007546EA
:10291000047547017FCC7E447D137C5012A800755E
:1029200043017F2C7E4A7D137C5012AC9C8E328FEB
:1029300033853243E5334420F5447545007546043C
:102940007547017F2C7E4A7D13022AC1E531640759
:102950006003022A087543017FCC7E447D237C50AE
:1029600012AC9CEE54FE4408F5327533009005FB22
:10297000E04532FEA3E04533FF9005FBEEF0A3EF08
:10298000F08E43F5447545007546047547017FCCCC
:102990007E447D237C5012A8007543017FCC7E4489
:1029A0007D237C5012AC9CEE54F6F53275330090CA
:1029B00005FBE04532FEA3E04533FF9005FBEEF05A
:1029C000A3EFF08E43F54475450075460475470145
:1029D0007FCC7E447D237C5012A8007543017F2C60
:1029E0007E4A7D237C5012AC9C8E328F33853243DD
:1029F000E5334420F5447545007546047547017F6D
:102A00002C7E4A7D23022AC1E53164086003022A34
:102A1000C67543017FCC7E447D337C5012AC9CEE66
:102A200054FE4408F5327533009005FDE04532FE52
:102A3000A3E04533FF9005FDEEF0A3EFF08E43F5E4
:102A4000447545007546047547017FCC7E447D334F
:102A50007C5012A8007543017FCC7E447D337C50AE
:102A600012AC9CEE54F6F5327533009005FDE0454E
:102A700032FEA3E04533FF9005FDEEF0A3EFF08EAC
:102A800043F5447545007546047547017FCC7E4487
:102A90007D337C5012A8007543017F2C7E4A7D3324
:102AA0007C5012AC9C8E328F33853243E533442008
:102AB000F5447545007546047547017F2C7E4A7DB7
:102AC000337C5012A80022EF147003022C211470E2
:102AD00003022D61147003022EA124036003022F50
:102AE000E77F2012C6BD900866E0FB755404E4FD44
:102AF0007F2012BEBD900878E0FB7554047D017FF5
:102B00002012BEBD900867E0FB7554047D027F2053
:102B100012BEBD900868E0FB7554047D037F20124F
:102B2000BEBD900869E0FB7554047D047F2012BE91
:102B3000BD90086AE0FB7554047D057F2012BEBD80
:102B400090086BE0FB7554047D0A7F2012BEBD9097
:102B50000879E0FB7554047D0C7F2012BEBD9008FF
:102B60006CE0FB7554047D0D7F2012BEBD90086D96
:102B7000E0FB7554047D197F2012BEBD90086EE005
:102B8000FB7554047D1A7F2012BEBD900871E0FBD6
:102B90007554047DC27F2012BEBD900874E0FB75A1
:102BA00054047DE27F2012BEBD900877E0FB75548F
:102BB000047DD27F2012BEBD900871E020E01E90FF
:102BC000086FE0FB7554047DC07F2012BEBD9008E5
:102BD00070E0FB7554047DC17F2012BEBD90087467
:102BE000E020E01E900872E0FB7554047DE07F2039
:102BF00012BEBD900873E0FB7554047DE17F201286
:102C0000BEBD900877E030E003022FE7900875E042
:102C1000FB7554047DD07F2012BEBD900876022F34
:102C2000DB7F2112C6BD90087CE0FB755404E4FDF7
:102C30007F2012BEBD90088EE0FB7554047D017F9D
:102C40002012BEBD90087DE0FB7554047D027F20FC
:102C500012BEBD90087EE0FB7554047D037F2012F8
:102C6000BEBD90087FE0FB7554047D047F2012BE3A
:102C7000BD900880E0FB7554047D057F2012BEBD29
:102C8000900881E0FB7554047D0A7F2012BEBD9040
:102C9000088FE0FB7554047D0C7F2012BEBD9008A8
:102CA00082E0FB7554047D0D7F2012BEBD90088329
:102CB000E0FB7554047D197F2012BEBD900884E0AE
:102CC000FB7554047D1A7F2012BEBD900887E0FB7F
:102CD0007554047DC27F2012BEBD90088AE0FB754A
:102CE00054047DE27F2012BEBD90088DE0FB755438
:102CF000047DD27F2012BEBD900887E020E01E90A8
:102D00000885E0FB7554047DC07F2012BEBD90088D
:102D100086E0FB7554047DC17F2012BEBD90088AF9
:102D2000E020E01E900888E0FB7554047DE07F20E1
:102D300012BEBD900889E0FB7554047DE17F20122E
:102D4000BEBD90088DE030E003022FE790088BE0D5
:102D5000FB7554047DD07F2012BEBD90088C022FDD
:102D6000DB7F2212C6BD900892E0FB755404E4FD9F
:102D70007F2012BEBD9008A4E0FB7554047D017F46
:102D80002012BEBD900893E0FB7554047D027F20A5
:102D900012BEBD900894E0FB7554047D037F2012A1
:102DA000BEBD900895E0FB7554047D047F2012BEE3
:102DB000BD900896E0FB7554047D057F2012BEBDD2
:102DC000900897E0FB7554047D0A7F2012BEBD90E9
:102DD00008A5E0FB7554047D0C7F2012BEBD900851
:102DE00098E0FB7554047D0D7F2012BEBD900899BC
:102DF000E0FB7554047D197F2012BEBD90089AE057
:102E0000FB7554047D1A7F2012BEBD90089DE0FB27
:102E10007554047DC27F2012BEBD9008A0E0FB75F2
:102E200054047DE27F2012BEBD9008A3E0FB7554E0
:102E3000047DD27F2012BEBD90089DE020E01E9050
:102E4000089BE0FB7554047DC07F2012BEBD900836
:102E50009CE0FB7554047DC17F2012BEBD9008A08C
:102E6000E020E01E90089EE0FB7554047DE07F208A
:102E700012BEBD90089FE0FB7554047DE17F2012D7
:102E8000BEBD9008A3E030E003022FE79008A1E068
:102E9000FB7554047DD07F2012BEBD9008A2022F86
:102EA000DB7F2312C6BD9008A8E0FB755404E4FD47
:102EB0007F2012BEBD9008BAE0FB7554047D017FEF
:102EC0002012BEBD9008A9E0FB7554047D027F204E
:102ED00012BEBD9008AAE0FB7554047D037F20124A
:102EE000BEBD9008ABE0FB7554047D047F2012BE8C
:102EF000BD9008ACE0FB7554047D057F2012BEBD7B
:102F00009008ADE0FB7554047D0A7F2012BEBD9091
:102F100008BBE0FB7554047D0C7F2012BEBD9008F9
:102F2000AEE0FB7554047D0D7F2012BEBD9008AF4E
:102F3000E0FB7554047D197F2012BEBD9008B0E0FF
:102F4000FB7554047D1A7F2012BEBD9008B3E0FBD0
:102F50007554047DC27F2012BEBD9008B6E0FB759B
:102F600054047DE27F2012BEBD9008B9E0FB755489
:102F7000047DD27F2012BEBD9008B3E020E01E90F9
:102F800008B1E0FB7554047DC07F2012BEBD9008DF
:102F9000B2E0FB7554047DC17F2012BEBD9008B61F
:102FA000E020E01E9008B4E0FB7554047DE07F2033
:102FB00012BEBD9008B5E0FB7554047DE17F201280
:102FC000BEBD9008B9E020E01E9008B7E0FB755444
:102FD000047DD07F2012BEBD9008B8E0FB7554047C
:102FE0007DD17F2012BEBD22EF1470030231421446
:102FF00070030232821470030233C224036003029E
:1030000035087F2012C6C99008E6E0FB755405E438
:10301000FD7F2012BEBD9008F8E0FB7554057D01D0
:103020007F2012BEBD9008E7E0FB7554057D027F4E
:103030002012BEBD9008E8E0FB7554057D037F209B
:1030400012BEBD9008E9E0FB7554057D047F201297
:10305000BEBD9008EAE0FB7554057D057F2012BED9
:10306000BD9008EBE0FB7554057D0A7F2012BEBDC4
:103070009008F9E0FB7554057D0C7F2012BEBD90D1
:1030800008ECE0FB7554057D0D7F2012BEBD900855
:10309000EDE0FB7554057D197F2012BEBD9008EE52
:1030A000E0FB7554057D1A7F2012BEBD9008F1E04B
:1030B000FB7554057DC27F2012BEBD9008F4E0FB75
:1030C0007554057DE27F2012BEBD9008F7E0FB75C8
:1030D00054057DD27F2012BEBD9008F1E020E01E95
:1030E0009008EFE0FB7554057DC07F2012BEBD90B7
:1030F00008F0E0FB7554057DC17F2012BEBD90082D
:10310000F4E020E01E9008F2E0FB7554057DE07FBE
:103110002012BEBD9008F3E0FB7554057DE17F20D1
:1031200012BEBD9008F7E030E0030235089008F5C4
:10313000E0FB7554057DD07F2012BEBD9008F602DD
:1031400034FC7F2112C6C99008FCE0FB755405E4ED
:10315000FD7F2012BEBD90090EE0FB7554057D0178
:103160007F2012BEBD9008FDE0FB7554057D027FF7
:103170002012BEBD9008FEE0FB7554057D037F2044
:1031800012BEBD9008FFE0FB7554057D047F201240
:10319000BEBD900900E0FB7554057D057F2012BE81
:1031A000BD900901E0FB7554057D0A7F2012BEBD6C
:1031B00090090FE0FB7554057D0C7F2012BEBD9079
:1031C0000902E0FB7554057D0D7F2012BEBD9009FC
:1031D00003E0FB7554057D197F2012BEBD900904E4
:1031E000E0FB7554057D1A7F2012BEBD900907E0F3
:1031F000FB7554057DC27F2012BEBD90090AE0FB1D
:103200007554057DE27F2012BEBD90090DE0FB756F
:1032100054057DD27F2012BEBD900907E020E01E3C
:10322000900905E0FB7554057DC07F2012BEBD905E
:103230000906E0FB7554057DC17F2012BEBD9009D3
:103240000AE020E01E900908E0FB7554057DE07F50
:103250002012BEBD900909E0FB7554057DE17F2079
:1032600012BEBD90090DE030E00302350890090B55
:10327000E0FB7554057DD07F2012BEBD90090C0285
:1032800034FC7F2212C6C9900912E0FB755405E494
:10329000FD7F2012BEBD900924E0FB7554057D0121
:1032A0007F2012BEBD900913E0FB7554057D027F9F
:1032B0002012BEBD900914E0FB7554057D037F20EC
:1032C00012BEBD900915E0FB7554057D047F2012E8
:1032D000BEBD900916E0FB7554057D057F2012BE2A
:1032E000BD900917E0FB7554057D0A7F2012BEBD15
:1032F000900925E0FB7554057D0C7F2012BEBD9022
:103300000918E0FB7554057D0D7F2012BEBD9009A4
:1033100019E0FB7554057D197F2012BEBD90091A76
:10332000E0FB7554057D1A7F2012BEBD90091DE09B
:10333000FB7554057DC27F2012BEBD900920E0FBC5
:103340007554057DE27F2012BEBD900923E0FB7518
:1033500054057DD27F2012BEBD90091DE020E01EE5
:1033600090091BE0FB7554057DC07F2012BEBD9007
:10337000091CE0FB7554057DC17F2012BEBD90097C
:1033800020E020E01E90091EE0FB7554057DE07FE3
:103390002012BEBD90091FE0FB7554057DE17F2022
:1033A00012BEBD900923E030E003023508900921E8
:1033B000E0FB7554057DD07F2012BEBD900922022E
:1033C00034FC7F2312C6C9900928E0FB755405E43C
:1033D000FD7F2012BEBD90093AE0FB7554057D01CA
:1033E0007F2012BEBD900929E0FB7554057D027F48
:1033F0002012BEBD90092AE0FB7554057D037F2095
:1034000012BEBD90092BE0FB7554057D047F201290
:10341000BEBD90092CE0FB7554057D057F2012BED2
:10342000BD90092DE0FB7554057D0A7F2012BEBDBD
:1034300090093BE0FB7554057D0C7F2012BEBD90CA
:10344000092EE0FB7554057D0D7F2012BEBD90094D
:103450002FE0FB7554057D197F2012BEBD90093009
:10346000E0FB7554057D1A7F2012BEBD900933E044
:10347000FB7554057DC27F2012BEBD900936E0FB6E
:103480007554057DE27F2012BEBD900939E0FB75C1
:1034900054057DD27F2012BEBD900933E020E01E8E
:1034A000900931E0FB7554057DC07F2012BEBD90B0
:1034B0000932E0FB7554057DC17F2012BEBD900925
:1034C00036E020E01E900934E0FB7554057DE07F76
:1034D0002012BEBD900935E0FB7554057DE17F20CB
:1034E00012BEBD900939E020E01E900937E0FB755F
:1034F00054057DD07F2012BEBD900938E0FB755485
:10350000057DD17F2012BEBD22EC4D6011E84970CF
:1035100017ED33EC3304600DE4FCFFFEFD22E933CC
:10352000E8330470F80236B912368458046009E4AE
:10353000CC248150062850090236C32840030236A5
:10354000C0C0E0EB4A7044B98006D0E0FB0236AF61
:10355000EF4E701CBD8008EBFFEAFEE9FD80EBE951
:103560008DF0A4FEE5F00235F2E9CDF9EAFEEBFFBD
:10357000EF89F0A4FCE5F0CE89F0A42EFFE435F04D
:10358000CD89F0A42DFEE435F08067EF4E7005BDC7
:1035900080D780C3EF8BF0A4ACF0EE8BF0A42CFCB2
:1035A000E435F0F8EF8AF0A42CE5F038FCE433CBF6
:1035B0008DF0A42CFCE5F03BF8EE8AF0A42CFCE5A1
:1035C000F038F8E433CF89F0A42CFCE5F038CF34A0
:1035D00000CE89F0A42FFFE5F03EFEE433C98DF064
:1035E000A42EFEE5F039CD8AF0A42FFFE5F03EFED3
:1035F000E43DFD33D0E0FB50070BBB000F0236C3A8
:10360000EC2CFCEF33FFEE33FEED33FD02369B7501
:10361000F020800E75F010800575F0087D007E00AA
:103620007F003392D530D503123886EC334010EF4B
:1036300033FFEE33FEED33FDEC33FCD5F0ED22E548
:10364000F0247EA2D513CC92E7CDCEFF22EDD2E7B7
:10365000CD33EC3392D524814006E4FFFEFDFC22FD
:10366000FCE4CFCECDCC24E0501174FF80EDC3CC70
:1036700013CCCD13CDCE13CECF13CF0470F030D5F5
:10368000DE023886E9D2E7C933E833F892D5EDD2C5
:10369000E7CD33EC33FC5002B2D522EC30E7100F0B
:1036A000BF000C0EBE00080DBD00040BEB6014A2A1
:1036B000D5EB13FCED92E7FD2274FFFCFDFEFF222B
:1036C000E480F8A2D574FF13FC7D80E480EFE70965
:1036D000F608DFFA8046E709F208DFFA803E8882C2
:1036E0008C83E709F0A3DFFA8032E309F608DFFAFA
:1036F0008078E309F208DFFA807088828C83E3091E
:10370000F0A3DFFA806489828A83E0A3F608DFFAF7
:10371000805889828A83E0A3F208DFFA804C80D245
:1037200080FA80C680D4806980F28033801080A6C1
:1037300080EA809A80A880DA80E280CA8033898219
:103740008A83ECFAE493A3C8C582C8CCC583CCF0C5
:10375000A3C8C582C8CCC583CCDFE9DEE7800D896C
:10376000828A83E493A3F608DFF9ECFAA9F0EDFB73
:103770002289828A83ECFAE0A3C8C582C8CCC583BB
:10378000CCF0A3C8C582C8CCC583CCDFEADEE88014
:10379000DB89828A83E493A3F208DFF980CC88F086
:1037A000EF60010E4E60C388F0ED2402B4040050B7
:1037B000B9F582EB2402B4040050AF2323458223E1
:1037C00090371E73BB010689828A83E0225002E78C
:1037D00022BBFE02E32289828A83E49322BB010694
:1037E00089828A83F0225002F722BBFE01F322EF86
:1037F0008DF0A4A8F0CF8CF0A428CE8DF0A42EFEDE
:1038000022C2D5EC30E709B2D5E4C39DFDE49CFCAF
:10381000EE30E715B2D5E4C39FFFE49EFE1238FAFE
:10382000C3E49DFDE49CFC80031238FA30D507C345
:10383000E49FFFE49EFE22E88FF0A4CC8BF0A42C42
:10384000FCE98EF0A42CFC8AF0EDA42CFCEA8EF0AE
:10385000A4CDA8F08BF0A42DCC3825F0FDE98FF095
:10386000A42CCD35F0FCEB8EF0A4FEA9F0EB8FF08C
:10387000A4CFC5F02ECD39FEE43CFCEAA42DCE3514
:10388000F0FDE43CFC22C3E49FFFE49EFEE49DFDCA
:10389000E49CFC22E86010ECA2E713FCED13FDEEC3
:1038A00013FEEF13FFD8F022D083D082F8E4937098
:1038B00012740193700DA3A393F8740193F5828899
:1038C00083E4737402936860EFA3A3A380DFEF4ED9
:1038D0006012EF60010EEDBB010B89828A83F0A3B9
:1038E000DFFCDEFA2289F05007F709DFFCA9F0229D
:1038F000BBFEFCF309DFFCA9F022BC000BBE0029D3
:10390000EF8DF084FFADF022E4CCF875F008EF2FD6
:10391000FFEE33FEEC33FCEE9DEC984005FCEE9D93
:10392000FE0FD5F0E9E4CEFD22EDF8F5F0EE8420AF
:10393000D21CFEADF075F008EF2FFFED33FD400710
:10394000985006D5F0F222C398FD0FD5F0EA227503
:10395000F008758200EF2FFFEE33FECD33CDCC3370
:10396000CCC58233C5829BED9AEC99E58298400CD8
:10397000F582EE9BFEED9AFDEC99FC0FD5F0D6E4B6
:10398000CEFBE4CDFAE4CCF9A88222B800C1B9009C
:1039900059BA002DEC8BF084CFCECDFCE5F0CBF9FD
:1039A0007818EF2FFFEE33FEED33FDEC33FCEB33F5
:1039B000FB10D703994004EB99FB0FD8E5E4F9FA23
:1039C000227818EF2FFFEE33FEED33FDEC33FCC908
:1039D00033C910D7059BE99A4007EC9BFCE99AF99B
:1039E0000FD8E0E4C9FAE4CCFB2275F010EF2FFF0A
:1039F000EE33FEED33FDCC33CCC833C810D7079B74
:103A0000EC9AE899400AED9BFDEC9AFCE899F80FD6
:103A1000D5F0DAE4CDFBE4CCFAE4C8F922011E00CB
:103A2000410762A0490653534C4246363451333263
:103A3000608106620000000000000000000000003D
:103A40000000000000000000000000000000000076
:103A50000000000000000000000000000000000066
:103A60000000000000000000000000000000000056
:103A70000000000000000000000000000000000046
:103A80000000000000000000000000000000000036
:103A90000000000000000000000000000000000026
:103AA0000000000000000000000000000000000016
:103AB00000000000004106600041064F0041065F23
:103AC000004106500041065D004106510041065C80
:103AD000006100010C000000000000000000000078
:103AE00000000000000000000000000000000000D6
:103AF00000000000000000000000000000000000C6
:103B000000000000000000000000000000000000B5
:103B100000000000000000000000000000000000A5
:103B20000000000000000000000000000000000095
:103B30000000000000000000000000000000000085
:103B40000000000000000000000000000000000075
:103B50000000000000000000000000000000000065
:103B60000000000000000000000000000000000055
:103B70000000000000000000000000000000000045
:103B80000000000000000000000000000000000035
:103B90000000000000000000000000000000000025
:103BA0000000000000000000000000000000000015
:103BB0000000000000000000000000000000000005
:103BC00000000000000000000000000000000000F5
:103BD0000000000000608000820000000000000083
:103BE00000000000000000000000000000000000D5
:103BF00000000000000000000000000000000000C5
:103C000000000000000000000000000000000000B4
:103C100000000000000000000000000000000000A4
:103C20000000000000000000000000000000000094
:103C30000000000000000000000000000000000084
:103C40000000000000000000000000000000000074
:103C50000000000000000000006080021D00000065
:103C60000000000000000000000000000000000054
:103C70000000000000000000000000000000000044
:103C80000000000000000000000000000000000034
:103C90000000000000000000000000000000000024
:103CA0000000000000000000000000000000000014
:103CB0000000000000000000000000000000000004
:103CC00000000000000000000000000000000000F4
:103CD0000000000000000000000000000060800202
:103CE0009F00000000000000000000000000000035
:103CF00000000000000000000000000000000000C4
:103D000000000000000000000000000000000000B3
:103D100000000000000000000000000000000000A3
:103D20000000000000000000000000000000000093
:103D30000000000000000000000000000000000083
:103D40000000000000000000000000000000000073
:103D50000000000000000000000000000000000063
:103D60000060800002000000000000000000000071
:103D70000000000000000000000000000000000043
:103D80000000000000000000000000000000000033
:103D90000000000000000000000000000000000023
:103DA0000000000000000000000000000000000013
:103DB0000000000000000000000000000000000003
:103DC00000000000000000000000000000000000F3
:103DD00000000000000000000000000000000000E3
:103DE00000000000004101040541010705410109EF
:103DF0000541010B05410103004101060041010895
:103E00000041010A00410000034100010341010299
:103E1000034101050342029D000041021C02410AC8
:103E200005004109FE00410A0000410A0300410A61
:103E30000700410A0A00410A0200410A0400410A3F
:103E40000900410A0B004109FF00410A0100410A33
:103E50000600410A0800021C0000021A0000410985
:103E6000E3014109E4014109E5014109E601410994
:103E7000E7014109E8014109E9014109EA01410974
:103E8000EB004109EC004109ED00011100010D00BA
:103E900002090000010B00010F00010E00010800E3
:103EA0000113FF010C00011200011000410A0D1066
:103EB000410A0F10410A1110410A1310410A14104F
:103EC000410A0E10410A1010410A1210410A150051
:103ED000410A0C00008F31E53164016003023F6E3E
:103EE000900493E04480F543A3E0F54475450075E4
:103EF0004604E4F547FD12A7FA900493E04480F5E8
:103F000043A3E0F544754500754604E4F5477F2872
:103F10007E18FD7C5812A800900493E04480F5437D
:103F2000A3E0F544754500754604E4F5477F287E17
:103F300018FD7C5812A800900495E0F543A3E0F525
:103F400044754500754604E4F5477F2C7E18FD7CDA
:103F50005812A800900495E0F543A3E0F544754598
:103F600000754604E4F5477F2C7E18024142E53196
:103F70006402600302400B900497E04480F543A381
:103F8000E0F544754500754604E4F5477F287E5802
:103F9000FD7C5812A800900497E04480F543A3E00C
:103FA000F544754500754604E4F5477F287E58FDC5
:103FB0007C5812A800900497E04480F543A3E0F5F4
:103FC00044754500754604E4F5477F287E58FD7C1E
:103FD0005812A800900499E0F543A3E0F544754514
:103FE00000754604E4F5477F2C7E58FD7C5812A8E6
:103FF00000900499E0F543A3E0F54475450075464B
:1040000004E4F5477F2C7E58024142E531640360A9
:10401000030240A890049BE04480F543A3E0F544EC
:10402000754500754604E4F5477F287E98FD7C5869
:1040300012A80090049BE04480F543A3E0F544758A
:104040004500754604E4F5477F287E98FD7C5812AC
:10405000A80090049BE04480F543A3E0F544754537
:1040600000754604E4F5477F287E98FD7C5812A829
:104070000090049DE0F543A3E0F5447545007546C6
:1040800004E4F5477F2C7E98FD7C5812A80090042C
:104090009DE0F543A3E0F544754500754604E4F55D
:1040A000477F2C7E98024142E5316404600302415F
:1040B0004690049FE04480F543A3E0F54475450035
:1040C000754604E4F5477F287ED8FD7C5812A80089
:1040D00090049FE04480F543A3E0F54475450075E6
:1040E0004604E4F5477F287ED8FD7C5812A800904E
:1040F000049FE04480F543A3E0F544754500754610
:1041000004E4F5477F287ED8FD7C5812A80090046F
:10411000A1E0F543A3E0F544754500754604E4F5D8
:10412000477F2C7ED8FD7C5812A8009004A1E0F5B2
:1041300043A3E0F544754500754604E4F5477F2C3C
:104140007ED8FD024375E5316405704312A7E31282
:10415000A7E312A7E3900515E0F543A3E0F5447546
:1041600045007546047547017F2C7E187D007C58FC
:1041700012A800900515E0F543A3E0F5447545004D
:104180007546047547017F2C7E187D00024375E556
:104190003164066003024232900517E04480F54323
:1041A000A3E0F5447545007546047547017F287EF8
:1041B000587D007C5812A800900517E04480F54314
:1041C000A3E0F5447545007546047547017F287ED8
:1041D000587D007C5812A800900517E04480F543F4
:1041E000A3E0F5447545007546047547017F287EB8
:1041F000587D007C5812A800900519E0F543A3E013
:10420000F5447545007546047547017F2C7E587D41
:10421000007C5812A800900519E0F543A3E0F5448E
:104220007545007546047547017F2C7E587D000258
:104230004375E531640760030242D590051BE044F5
:1042400080F543A3E0F544754500754604754701C4
:104250007F287E987D007C5812A80090051BE044C2
:1042600080F543A3E0F544754500754604754701A4
:104270007F287E987D007C5812A80090051BE044A2
:1042800080F543A3E0F54475450075460475470184
:104290007F287E987D007C5812A80090051DE0F5CF
:1042A00043A3E0F5447545007546047547017F2C2E
:1042B0007E987D007C5812A80090051DE0F543A370
:1042C000E0F5447545007546047547017F2C7E98DE
:1042D0007D00024375E5316408600302437A90056E
:1042E0001FE04480F543A3E0F5447545007546049E
:1042F0007547017F287ED87D007C5812A800900564
:104300001FE04480F543A3E0F5447545007546047D
:104310007547017F287ED87D007C5812A800900543
:104320001FE04480F543A3E0F5447545007546045D
:104330007547017F287ED87D007C5812A800900523
:1043400021E0F543A3E0F544754500754604754743
:10435000017F2C7ED87D007C5812A800900521E0BA
:10436000F543A3E0F5447545007546047547017FA4
:104370002C7ED87D007C5812A80022EF1470030216
:1043800044B31470030245D11470030246EF2403B2
:10439000600302480C7F2012C6BD7B04E4FD7F2031
:1043A00012BE7D900866EFF07B047D017F2012BE77
:1043B0007D900878EFF07B047D027F2012BE7D9017
:1043C0000867EFF07B047D037F2012BE7D900868B4
:1043D000EFF07B047D047F2012BE7D900869EFF032
:1043E0007B047D057F2012BE7D90086AEFF07B0480
:1043F0007D0A7F2012BE7D90086BEFF07B047D0C60
:104400007F2012BE7D900879EFF07B047D0D7F2028
:1044100012BE7D90086CEFF07B047D197F2012BEE8
:104420007D90086DEFF07B047D1A7F2012BE7D9099
:10443000086EEFF07B047DC07F2012BE7D90086F78
:10444000EFF07B047DC17F2012BE7D900870EFF0FD
:104450007B047DC27F2012BE7D900871EFF07B044B
:104460007DE07F2012BE7D900872EFF07B047DE13D
:104470007F2012BE7D900873EFF07B047DE27F20E9
:1044800012BE7D900874EFF07B047DD07F2012BEB9
:104490007D900875EFF07B047DD17F2012BE7D906A
:1044A0000876EFF07B047DD27F2012BE7D900877E6
:1044B000EFF0227F2112C6BD7B04E4FD7F2012BEF7
:1044C0007D90087CEFF07B047D017F2012BE7D9003
:1044D000088EEFF07B047D027F2012BE7D90087D68
:1044E000EFF07B047D037F2012BE7D90087EEFF00D
:1044F0007B047D047F2012BE7D90087FEFF07B045B
:104500007D057F2012BE7D900880EFF07B047D0A40
:104510007F2012BE7D900881EFF07B047D0C7F2010
:1045200012BE7D90088FEFF07B047D0D7F2012BEC0
:104530007D900882EFF07B047D197F2012BE7D9074
:104540000883EFF07B047D1A7F2012BE7D900884E3
:10455000EFF07B047DC07F2012BE7D900885EFF0D8
:104560007B047DC17F2012BE7D900886EFF07B0426
:104570007DC27F2012BE7D900887EFF07B047DE036
:104580007F2012BE7D900888EFF07B047DE17F20C4
:1045900012BE7D900889EFF07B047DE27F2012BE81
:1045A0007D90088AEFF07B047DD07F2012BE7D9045
:1045B000088BEFF07B047DD17F2012BE7D90088CAC
:1045C000EFF07B047DD27F2012BE7D90088DEFF04E
:1045D000227F2212C6BD7B04E4FD7F2012BE7D90A7
:1045E0000892EFF07B047D017F2012BE7D9008A42D
:1045F000EFF07B047D027F2012BE7D900893EFF0E8
:104600007B047D037F2012BE7D900894EFF07B0435
:104610007D047F2012BE7D900895EFF07B047D0520
:104620007F2012BE7D900896EFF07B047D0A7F20EC
:1046300012BE7D900897EFF07B047D0C7F2012BEA8
:104640007D9008A5EFF07B047D0D7F2012BE7D904C
:104650000898EFF07B047D197F2012BE7D900899A9
:10466000EFF07B047D1A7F2012BE7D90089AEFF058
:104670007B047DC07F2012BE7D90089BEFF07B0401
:104680007DC17F2012BE7D90089CEFF07B047DC22F
:104690007F2012BE7D90089DEFF07B047DE07F209F
:1046A00012BE7D90089EEFF07B047DE17F2012BE5C
:1046B0007D90089FEFF07B047DE27F2012BE7D900D
:1046C00008A0EFF07B047DD07F2012BE7D9008A172
:1046D000EFF07B047DD17F2012BE7D9008A2EFF029
:1046E0007B047DD27F2012BE7D9008A3EFF0227F55
:1046F0002312C6BD7B04E4FD7F2012BE7D9008A876
:10470000EFF07B047D017F2012BE7D9008BAEFF0B0
:104710007B047D027F2012BE7D9008A9EFF07B0410
:104720007D037F2012BE7D9008AAEFF07B047D04FC
:104730007F2012BE7D9008ABEFF07B047D057F20CB
:1047400012BE7D9008ACEFF07B047D0A7F2012BE84
:104750007D9008ADEFF07B047D0C7F2012BE7D9034
:1047600008BBEFF07B047D0D7F2012BE7D9008AE6C
:10477000EFF07B047D197F2012BE7D9008AFEFF033
:104780007B047D1A7F2012BE7D9008B0EFF07B0481
:104790007DC07F2012BE7D9008B1EFF07B047DC10B
:1047A0007F2012BE7D9008B2EFF07B047DC27F2097
:1047B00012BE7D9008B3EFF07B047DE07F2012BE37
:1047C0007D9008B4EFF07B047DE17F2012BE7D90E8
:1047D00008B5EFF07B047DE27F2012BE7D9008B625
:1047E000EFF07B047DD07F2012BE7D9008B7EFF004
:1047F0007B047DD17F2012BE7D9008B8EFF07B0452
:104800007DD27F2012BE7D9008B9EFF022EF1470A8
:1048100003024945147003024A63147003024B817A
:1048200024036003024C9E7F2012C6C97B05E4FD71
:104830007F2012BE7D9008E6EFF07B057D017F2092
:1048400012BE7D9008F8EFF07B057D027F2012BE3E
:104850007D9008E7EFF07B057D037F2012BE7D9001
:1048600008E8EFF07B057D047F2012BE7D9008E90B
:10487000EFF07B057D057F2012BE7D9008EAEFF00A
:104880007B057D0A7F2012BE7D9008EBEFF07B0553
:104890007D0C7F2012BE7D9008F9EFF07B057D0D29
:1048A0007F2012BE7D9008ECEFF07B057D197F2004
:1048B00012BE7D9008EDEFF07B057D1A7F2012BEC1
:1048C0007D9008EEEFF07B057DC07F2012BE7D90CD
:1048D00008EFEFF07B057DC17F2012BE7D9008F0D0
:1048E000EFF07B057DC27F2012BE7D9008F1EFF0D6
:1048F0007B057DE07F2012BE7D9008F2EFF07B0506
:104900007DE17F2012BE7D9008F3EFF07B057DE214
:104910007F2012BE7D9008F4EFF07B057DD07F20D4
:1049200012BE7D9008F5EFF07B057DD17F2012BE91
:104930007D9008F6EFF07B057DD27F2012BE7D9042
:1049400008F7EFF0227F2112C6C97B05E4FD7F2026
:1049500012BE7D9008FCEFF07B057D017F2012BE2A
:104960007D90090EEFF07B057D027F2012BE7D90C9
:1049700008FDEFF07B057D037F2012BE7D9008FED1
:10498000EFF07B057D047F2012BE7D9008FFEFF0E5
:104990007B057D057F2012BE7D900900EFF07B0531
:1049A0007D0A7F2012BE7D900901EFF07B057D0C12
:1049B0007F2012BE7D90090FEFF07B057D0D7F20DB
:1049C00012BE7D900902EFF07B057D197F2012BE9B
:1049D0007D900903EFF07B057D1A7F2012BE7D904C
:1049E0000904EFF07B057DC07F2012BE7D90090594
:1049F000EFF07B057DC17F2012BE7D900906EFF0B0
:104A00007B057DC27F2012BE7D900907EFF07B05FC
:104A10007DE07F2012BE7D900908EFF07B057DE1EF
:104A20007F2012BE7D900909EFF07B057DE27F209B
:104A300012BE7D90090AEFF07B057DD07F2012BE6B
:104A40007D90090BEFF07B057DD17F2012BE7D901C
:104A5000090CEFF07B057DD27F2012BE7D90090D01
:104A6000EFF0227F2212C6C97B05E4FD7F2012BE33
:104A70007D900912EFF07B057D017F2012BE7D90B5
:104A80000924EFF07B057D027F2012BE7D90091383
:104A9000EFF07B057D037F2012BE7D900914EFF0BF
:104AA0007B057D047F2012BE7D900915EFF07B050C
:104AB0007D057F2012BE7D900916EFF07B057D0AF3
:104AC0007F2012BE7D900917EFF07B057D0C7F20C3
:104AD00012BE7D900925EFF07B057D0D7F2012BE73
:104AE0007D900918EFF07B057D197F2012BE7D9027
:104AF0000919EFF07B057D1A7F2012BE7D90091AFF
:104B0000EFF07B057DC07F2012BE7D90091BEFF08A
:104B10007B057DC17F2012BE7D90091CEFF07B05D7
:104B20007DC27F2012BE7D90091DEFF07B057DE0E8
:104B30007F2012BE7D90091EEFF07B057DE17F2076
:104B400012BE7D90091FEFF07B057DE27F2012BE33
:104B50007D900920EFF07B057DD07F2012BE7D90F7
:104B60000921EFF07B057DD17F2012BE7D900922C7
:104B7000EFF07B057DD27F2012BE7D900923EFF000
:104B8000227F2312C6C97B05E4FD7F2012BE7D90E3
:104B90000928EFF07B057D017F2012BE7D90093A48
:104BA000EFF07B057D027F2012BE7D900929EFF09A
:104BB0007B057D037F2012BE7D90092AEFF07B05E7
:104BC0007D047F2012BE7D90092BEFF07B057D05D3
:104BD0007F2012BE7D90092CEFF07B057D0A7F209F
:104BE00012BE7D90092DEFF07B057D0C7F2012BE5B
:104BF0007D900925EFF07B057D0D7F2012BE7D9015
:104C0000092EEFF07B057D197F2012BE7D90092FC4
:104C1000EFF07B057D1A7F2012BE7D900930EFF00A
:104C20007B057DC07F2012BE7D900931EFF07B05B2
:104C30007DC17F2012BE7D900932EFF07B057DC2E1
:104C40007F2012BE7D900933EFF07B057DE07F2051
:104C500012BE7D900934EFF07B057DE17F2012BE0E
:104C60007D900935EFF07B057DE27F2012BE7D90BF
:104C70000936EFF07B057DD07F2012BE7D9009378D
:104C8000EFF07B057DD17F2012BE7D900938EFF0DB
:104C90007B057DD27F2012BE7D900939EFF0228FF7
:104CA00032E53264016003024D2CF5437FCC7E3443
:104CB000FD7C5812AC9CEE54FEF533753400900424
:104CC0007BE04533FEA3E04534FF90047BEEF0A388
:104CD000EFF0EE4408F5438F44754500754604E453
:104CE000F5477FCC7E34FD7C5812A800E4F5437F65
:104CF000CC7E34FD7C5812AC9CEE54FEF5337534FA
:104D00000090047BE04533FEA3E04534FF90047B34
:104D1000EEF0A3EFF0EE54F7F5438F4475450075C0
:104D20004604E4F5477FCC7E34024ECAE532640285
:104D30006003024DB7F5437FCC7E74FD7C5812AC06
:104D40009CEE54FEF53375340090047DE04533FE4F
:104D5000A3E04534FF90047DEEF0A3EFF0EE4408AD
:104D6000F5438F44754500754604E4F5477FCC7ED6
:104D700074FD7C5812A800E4F5437FCC7E74FD7C62
:104D80005812AC9CEE54FEF53375340090047DE06F
:104D90004533FEA3E04534FF90047DEEF0A3EFF031
:104DA000EE54F7F5438F44754500754604E4F54726
:104DB0007FCC7E74024ECAE53264036003024E4229
:104DC000F5437FCC7EB4FD7C5812AC9CEE54FEF5CE
:104DD0003375340090047FE04533FEA3E04534FF93
:104DE00090047FEEF0A3EFF0EE4408F5438F447596
:104DF0004500754604E4F5477FCC7EB4FD7C58122F
:104E0000A800E4F5437FCC7EB4FD7C5812AC9CEE48
:104E100054FEF53375340090047FE04533FEA3E083
:104E20004534FF90047FEEF0A3EFF0EE54F7F54326
:104E30008F44754500754604E4F5477FCC7EB40287
:104E40004ECAE53264046003024ECEF5437FCC7E49
:104E5000F4FD7C5812AC9CEE54FEF5337534009092
:104E60000481E04533FEA3E04534FF900481EEF079
:104E7000A3EFF0EE4408F5438F44754500754604F2
:104E8000E4F5477FCC7EF4FD7C5812A800E4F5439E
:104E90007FCC7EF4FD7C5812AC9CEE54FEF533754D
:104EA0003400900481E04533FEA3E04534FF9004D4
:104EB00081EEF0A3EFF0EE54F7F5438F4475450013
:104EC000754604E4F5477FCC7EF4FD02510BE532D4
:104ED00064056003024F5E7543017FCC7E34FD7C28
:104EE0005812AC9CEE54FEF5337534009004FBE090
:104EF0004533FEA3E04534FF9004FBEEF0A3EFF052
:104F0000EE4408F5438F4475450075460475470126
:104F10007FCC7E347D007C5812A8007543017FCC85
:104F20007E347D007C5812AC9CEE54FEF533753413
:104F3000009004FBE04533FEA3E04534FF9004FB02
:104F4000EEF0A3EFF0EE54F7F5438F44754500758E
:104F500046047547017FCC7E347D0002510BE5325B
:104F600064066003024FEE7543017FCC7E74FD7CC6
:104F70005812AC9CEE54FEF5337534009004FDE0FD
:104F80004533FEA3E04534FF9004FDEEF0A3EFF0BF
:104F9000EE4408F5438F4475450075460475470196
:104FA0007FCC7E747D007C5812A8007543017FCCB5
:104FB0007E747D007C5812AC9CEE54FEF533753443
:104FC000009004FDE04533FEA3E04534FF9004FD6E
:104FD000EEF0A3EFF0EE54F7F5438F4475450075FE
:104FE00046047547017FCC7E747D0002510BE5328B
:104FF0006407600302507E7543017FCC7EB4FD7C64
:105000005812AC9CEE54FEF5337534009004FFE06A
:105010004533FEA3E04534FF9004FFEEF0A3EFF02C
:10502000EE4408F5438F4475450075460475470105
:105030007FCC7EB47D007C5812A8007543017FCCE4
:105040007EB47D007C5812AC9CEE54FEF533753472
:10505000009004FFE04533FEA3E04534FF9004FFD9
:10506000EEF0A3EFF0EE54F7F5438F44754500756D
:1050700046047547017FCC7EB47D0002510BE532BA
:10508000640860030251107543017FCC7EF4FD7CFF
:105090005812AC9CEE54FEF533753400900501E0D7
:1050A0004533FEA3E04534FF900501EEF0A3EFF099
:1050B000EE4408F5438F4475450075460475470175
:1050C0007FCC7EF47D007C5812A8007543017FCC14
:1050D0007EF47D007C5812AC9CEE54FEF5337534A2
:1050E00000900501E04533FEA3E04534FF90050143
:1050F000EEF0A3EFF0EE54F7F5438F4475450075DD
:1051000046047547017FCC7EF47D007C5812A800D0
:1051100022E4F52FF530F531F532EFB40800400305
:1051200002555C90512AF82828730251420251C559
:105130000252480252CB02534E0253D1025454023F
:1051400054D7E4FF12B5E69009EEEEF0A3EFF08E2F
:1051500031F53290032612BDFD9009EEEEF0A3EF7B
:10516000F0900336E0FDA3E0FBA3E0F537A3E0F504
:1051700038AF32AE3112BE0A8E318F32900004E069
:1051800030E02AE49000ACF0A3F090009CF0A3F093
:1051900090008EE04401F0900090E04401F0900017
:1051A00092E04401F0900094E04401F0229009EE76
:1051B000E0FCA3E0FDEC9000ACF0A3EDF0E5319055
:1051C000009C0255577F2012B5E69009F0EEF0A33F
:1051D000EFF08E31F53290032A12BDFD9009F0EE0A
:1051E000F0A3EFF090033AE0FDA3E0FBA3E0F53776
:1051F000A3E0F538AF32AE3112BE0A8E318F329055
:105200000004E030E12AE49000AEF0A3F090009EAC
:10521000F0A3F090008EE04402F0900090E0440291
:10522000F0900092E04402F0900094E04402F022FA
:105230009009F0E0FCA3E0FDEC9000AEF0A3EDF0EF
:10524000E53190009E0255577F4012B5E69009F275
:10525000EEF0A3EFF08E31F53290032E12BDFD90EB
:1052600009F2EEF0A3EFF090033EE0FDA3E0FBA314
:10527000E0F537A3E0F538AF32AE3112BE0A8E3119
:105280008F32900004E030E22AE49000B0F0A3F006
:105290009000A0F0A3F090008EE04404F090009005
:1052A000E04404F0900092E04404F0900094E04464
:1052B00004F0229009F2E0FCA3E0FDEC9000B0F0D5
:1052C000A3EDF0E5319000A00255577F6012B5E6DE
:1052D0009009F4EEF0A3EFF08E31F5329003321224
:1052E000BDFD9009F4EEF0A3EFF0900342E0FDA3C2
:1052F000E0FBA3E0F537A3E0F538AF32AE3112BEE4
:105300000A8E318F32900004E030E32AE49000B23C
:10531000F0A3F09000A2F0A3F090008EE04408F01B
:10532000900090E04408F0900092E04408F0900073
:1053300094E04408F0229009F4E0FCA3E0FDEC9036
:1053400000B2F0A3EDF0E5319000A2025557E4FF62
:1053500012B64F9009F6EEF0A3EFF08E31F53290D1
:1053600003A612BDFD9009F6EEF0A3EFF09003B690
:10537000E0FDA3E0FBA3E0F537A3E0F538AF32AEE4
:105380003112BE0A8E318F32900004E030E42AE4FC
:105390009000B4F0A3F09000A4F0A3F090008EE091
:1053A0004410F0900090E04410F0900092E044101F
:1053B000F0900094E04410F0229009F6E0FCA3E0A5
:1053C000FDEC9000B4F0A3EDF0E5319000A402559F
:1053D000577F2012B64F9009F8EEF0A3EFF08E3110
:1053E000F5329003AA12BDFD9009F8EEF0A3EFF09C
:1053F0009003BAE0FDA3E0FBA3E0F537A3E0F538A6
:10540000AF32AE3112BE0A8E318F32900004E030DE
:10541000E52AE49000B6F0A3F09000A6F0A3F09087
:10542000008EE04420F0900090E04420F090009244
:10543000E04420F0900094E04420F0229009F8E04D
:10544000FCA3E0FDEC9000B6F0A3EDF0E531900098
:10545000A60255577F4012B64F9009FAEEF0A3EF1F
:10546000F08E31F5329003AE12BDFD9009FAEEF0E8
:10547000A3EFF09003BEE0FDA3E0FBA3E0F537A3AC
:10548000E0F538AF32AE3112BE0A8E318F32900065
:1054900004E030E62AE49000B8F0A3F09000A8F011
:1054A000A3F090008EE04440F0900090E04440F083
:1054B000900092E04440F0900094E04440F022904C
:1054C00009FAE0FCA3E0FDEC9000B8F0A3EDF0E5F4
:1054D000319000A80255577F6012B64F9009FCEE3C
:1054E000F0A3EFF08E31F5329003B212BDFD9009BA
:1054F000FCEEF0A3EFF09003C2E0FDA3E0FBA3E01D
:10550000F537A3E0F538AF32AE3112BE0A8E318FD7
:1055100032900004E030E72AE49000BAF0A3F09063
:1055200000AAF0A3F090008EE04480F0900090E09C
:105530004480F0900092E04480F0900094E0448039
:10554000F0229009FCE0FCA3E0FDEC9000BAF0A38F
:10555000EDF0E5319000AAF0A3E532F022C0E0C002
:10556000F0C083C082C0D075D000C000C001C002AE
:10557000C003C004C005C006C00775210075220025
:1055800030C20302594BE5C054F070030256932415
:10559000F070030256B624D0700302586F24F070E6
:1055A0000302593F24306003025943C2C590064F9D
:1055B000E5C2F0E0FF54FE64A0600302568EEF20C7
:1055C000E003025689900660E0FFC394805041EFEB
:1055D00094754011EF947F500C740C2FF582E434D5
:1055E00001F583E4F0900660E0FF240CF582E434DA
:1055F00001F583E0F5C2EFB4080612C45B025689D8
:10560000900660E06409600302568912C23C80790A
:1056100090018BE0FFB4010D900660E0249DF582BF
:10562000E43401805FEFB4020D900660E0241FF5C2
:1056300082E43402804E90018BE0FFB4100D90069E
:1056400060E02482F582E434FF8039EFB4112A90BF
:105650000660E0FF2402F582E43400F583E0F5C241
:10566000EFC394874023900660E0FFD394985019CD
:10567000EF2480FF129B248010900660E0240CF53C
:1056800082E43401F583E0F5C2D2C1025951C2C1AE
:1056900002595190065FE02462F582E43406F583F6
:1056A000E5C2F0900662E0900660F090065FE004CC
:1056B000F0D2C1025951C2C490065FE0FFC3940208
:1056C000500302586790065D7401F0EF1490066174
:1056D000F0900660E0647F600302578490065FE00C
:1056E00064026003025784900663E090018BF070BF
:1056F000147B017A01798CF5347535807F807EE8E2
:1057000012BCEB806E90018BE0B40115788C7C01AB
:105710007D017B017A02791D7E007F8012379E8099
:105720005290018BE0B40215788C7C017D017B01E5
:105730007A02799F7E007F8012379E803690018B9F
:10574000E0B41015788C7C017D017B017A00790230
:105750007E007F8012379E801A90018BE0B4111B6F
:10576000788C7C017D017B017A0079827E007F80CC
:1057700012379E900652E4F0025867900652740168
:10578000F0025867900660E0FFC3947A400FEFD3B1
:10579000947D50099006527405F0025867900650A7
:1057A000E0C394014021900661E0FF7E0090066016
:1057B000E0240CF9E43401A801FC7D017B017A06A8
:1057C000796312379E804F900660E0FFB41A028022
:1057D00018900660E0FFB41F08900663E054018053
:1057E00028900660E0FFB42006900663E0801A90DF
:1057F0000660E0FFB42106900663E0800C9006602E
:10580000E0FFB42211900663E0FE740C2FF582E4F1
:105810003401F583EEF090018BE064107043900644
:1058200060E0FFD3947F403FA3E0F582758300746E
:105830000C2FF9E43401A801FC7D017B017A067983
:10584000637E00AF8212379E90065C7401F078028E
:105850007C00FDFB7A01798C7E007F8012379E8070
:10586000069006527407F090065FE4F0025951204A
:10587000C103025951900660E004F0E0FFC3948038
:105880005042EF94754011EF947F500C740C2FF53B
:1058900082E43401F583E4F0900660E0FF240CF527
:1058A00082E43401F583E0F5C2EFB4080612C45B6C
:1058B000025951900660E06409600302595112C216
:1058C0003C02595190018BE0FFB4010D900660E05D
:1058D000249DF582E43401805FEFB4020D900660F0
:1058E000E0241FF582E43402804E90018BE0FFB487
:1058F000100D900660E02482F582E434FF8039EFD9
:10590000B4112A900660E0FF2402F582E43400F529
:1059100083E0F5C2EFC394874037900660E0FFD381
:105920009498502DEF2480FF129B248024900660D1
:10593000E0240CF582E43401F583E0F5C28012C264
:10594000C4800E53C17F43C1808000C2C5C2C4C29F
:10595000C1C2C0D007D006D005D004D003D002D039
:1059600001D000D0D0D082D083D0F0D0E0328F2FC1
:105970007B247A007D247C8012A4E5E52FB4080006
:105980004003025C9890598CF82828730259A402AD
:1059900059FC025A59025AB6025B13025B6F025B52
:1059A000D1025C33E4F5437F04FEFD7C5212AC9CD3
:1059B000754380754400754500754604E4F5477FDE
:1059C00004FEFD7C5212A800E4F543FFFEFD7C526C
:1059D00012AC9C75431875441D754500754604E46A
:1059E000F547FFFEFD7C5212A800E4F543F544F5AF
:1059F00045754604F5477F50FE025BCDE4F5437FD5
:105A0000047E04FD7C5212AC9C7543807544007585
:105A10004500754604E4F5477F047E04FD7C521280
:105A2000A800E4F543FF7E04FD7C5212AC9C754354
:105A30001875441D754500754604E4F547FF7E045E
:105A4000FD7C5212A800E4F543F544F54575460483
:105A5000F5477F507E04025BCDE4F5437F047E086A
:105A6000FD7C5212AC9C75438075440075450075F1
:105A70004604E4F5477F047E08FD7C5212A800E44A
:105A8000F543FF7E08FD7C5212AC9C7543187544AB
:105A90001D754500754604E4F547FF7E08FD7C5200
:105AA00012A800E4F543F544F545754604F5477F33
:105AB000507E08025BCDE4F5437F047E0CFD7C52F2
:105AC00012AC9C754380754400754500754604E42E
:105AD000F5477F047E0CFD7C5212A800E4F543FFDD
:105AE0007E0CFD7C5212AC9C75431875441D7545A7
:105AF00000754604E4F547FF7E0CFD7C5212A800B9
:105B0000E4F543F544F545754604F5477F507E0CB2
:105B1000025BCDE4F5437F04FE7D017C5212AC9C18
:105B2000754380754400754500754604E4F5477F6C
:105B300004FE7D017C5212A800E4F543FFFE7D01C6
:105B40007C5212AC9C75431875441D754500754612
:105B500004E4F547FFFE7D017C5212A800E4F54302
:105B6000F544F545754604F5477F50FE025C2FE489
:105B7000F5437F047E047D017C5212AC9C7543800A
:105B8000754400754500754604E4F5477F047E04BE
:105B90007D017C5212A800E4F543FF7E047D017C68
:105BA0005212AC9C75431875441D7545007546042A
:105BB000E4F547FF7E047D017C5212A800E4F54322
:105BC000F544F545754604F5477F507E04FD025CBB
:105BD00093E4F5437F047E087D017C5212AC9C75F2
:105BE0004380754400754500754604E4F5477F041D
:105BF0007E087D017C5212A800E4F543FF7E087DFB
:105C0000017C5212AC9C75431875441D7545007596
:105C10004604E4F547FF7E087D017C5212A800E4AB
:105C2000F543F544F545754604F5477F507E087DFC
:105C3000018060E4F5437F047E0C7D017C5212AC50
:105C40009C754380754400754500754604E4F5472E
:105C50007F047E0C7D017C5212A800E4F543FF7E98
:105C60000C7D017C5212AC9C75431875441D754522
:105C700000754604E4F547FF7E0C7D107C5212A8A7
:105C800000E4F543F544F545754604F5477F507E3D
:105C90000C7D017C5212A80022EFB40800400302E0
:105CA0005F6C905CA9F8282873025CC1025D150244
:105CB0005D6B025DC1025E17025E6D025EC3025F34
:105CC000177F0312C30590034612BDFBAC06AD0758
:105CD000D3ED9400EC94F04003E4FCFDD390035723
:105CE000E09D900356E09C4005E49009E3F0D390DA
:105CF0000359E09D900358E09C50069009E374011D
:105D0000F09009E3E0B401069000BC025F5EE4900D
:105D100000BC025F687F0212C305AC0690034A1202
:105D2000BDFDAC06AD07D3ED9400EC94F04003E468
:105D3000FCFDD390035BE09D90035AE09C4005E49A
:105D40009009E4F0D390035DE09D90035CE09C50EB
:105D5000069009E47401F09009E4E0B401069000B3
:105D6000BE025F5EE49000BE025F687F0112C30561
:105D7000AC0690034E12BDFDAC06AD07D3ED94000A
:105D8000EC94F04003E4FCFDD390035FE09D9003AE
:105D90005EE09C4005E49009E5F0D3900361E09D4E
:105DA000900360E09C50069009E57401F09009E5CD
:105DB000E0B401069000C0025F5EE49000C0025FA4
:105DC00068E4FF12C305AC0690035212BDFDAC0699
:105DD000AD07D3ED9400EC94F04003E4FCFDD390C8
:105DE0000363E09D900362E09C4005E49009E6F0C7
:105DF000D3900365E09D900364E09C50069009E613
:105E00007401F09009E6E0B401069000C2025F5E02
:105E1000E49000C2025F687F0312C328AC069003BF
:105E2000C612BDFDAC06AD07D3ED9400EC94F04076
:105E300003E4FCFDD39003D7E09D9003D6E09C40A3
:105E400005E49009E7F0D39003D9E09D9003D8E0F2
:105E50009C50069009E77401F09009E7E0B4010650
:105E60009000C4025F5EE49000C4025F687F02128B
:105E7000C328AC069003CA12BDFDAC06AD07D3ED36
:105E80009400EC94F04003E4FCFDD39003DBE09D30
:105E90009003DAE09C4005E49009E8F0D39003DD3C
:105EA000E09D9003DCE09C50069009E87401F090BE
:105EB00009E8E0B401069000C6025F5EE49000C607
:105EC000025F687F0112C328AC069003CE12BDFDAD
:105ED000AC06AD07D3ED9400EC94F04003E4FCFD78
:105EE000D39003DFE09D9003DEE09C4005E4900941
:105EF000E9F0D39003E1E09D9003E0E09C50069030
:105F000009E97401F09009E9E0B401059000C88046
:105F10004DE49000C88051E4FF12C328AC06900302
:105F2000D212BDFDAC06AD07D3ED9400EC94F04069
:105F300003E4FCFD9003E4E0FEA3E0FFD39DEE9CB0
:105F40004005E49009EAF0D3EF9DEE9C50069009DD
:105F5000EA7401F09009EAE0B401099000CAECF09B
:105F6000A3EDF022E49000CAF0A304F0228F2F7B6F
:105F7000217A007D217C8012A4E5E52FB408004041
:105F800003026200905F8BF8282873025FA3025F10
:105F9000EC02603502607D0260C702611502616338
:105FA0000261B0754310754404754500754604E4FC
:105FB000F5477FC47E35FD7C5812A800E4F5437F89
:105FC000C47E35FD7C5812AC9C7543107544057534
:105FD0004500754604E4F5477FC47E35FD7C5812C4
:105FE000A800E4F5437FC47E350260C37543107595
:105FF0004404754500754604E4F5477FC47E75FD8D
:106000007C5812A800E4F5437FC47E75FD7C5812CD
:10601000AC9C754310754405754500754604E4F560
:10602000477FC47E75FD7C5812A800E4F5437FC409
:106030007E750260C375431075440475450075464E
:1060400004E4F5477FC47EB5FD7C5812A800E4F552
:10605000437FC47EB5FD7C5812AC9C7543107544DB
:1060600005754500754604E4F5477FC47EB5FD7CA3
:106070005812A800E4F5437FC47EB58046754310EE
:10608000754404754500754604E4F5477FC47EF504
:10609000FD7C5812A800E4F5437FC47EF5FD7C58D2
:1060A00012AC9C754310754405754500754604E4B3
:1060B000F5477FC47EF5FD7C5812A800E4F5437FC8
:1060C000C47EF5FD0261FB754310754404754500FF
:1060D0007546047547017FC47E357D007C5812A843
:1060E000007543017FC47E357D007C5812AC9C75E1
:1060F00043107544057545007546047547017FC416
:106100007E357D007C5812A8007543017FC47E3522
:106110007D000261FB7543107544047545007546AA
:10612000047547017FC47E757D007C5812A80075F8
:1061300043017FC47E757D007C5812AC9C75431072
:106140007544057545007546047547017FC47E7525
:106150007D007C5812A8007543017FC47E757D00C8
:106160000261FB754310754404754500754604755E
:1061700047017FC47EB57D007C5812A8007543019D
:106180007FC47EB57D007C5812AC9C75431075446D
:10619000057545007546047547017FC47EB57D00D1
:1061A0007C5812A8007543017FC47EB57D00804BEA
:1061B0007543107544047545007546047547017FA5
:1061C000C47EF57D007C5812A8007543017FC47E13
:1061D000F57D007C5812AC9C7543107544057545DF
:1061E000007546047547017FC47EF57D007C58121A
:1061F000A8007543017FC47EF57D007C5812AC9CDD
:10620000227B04E4FD7F1C12BE7D900763EFF07BD0
:10621000047D017F1C12BE7D900764EFF07B047D3E
:10622000177F1C12BE7D900765EFF07B047D187F01
:106230001C12BE7D900766EFF07B047D1A7F1C1256
:10624000BE7D900767EFF07B047D037F1C12BE7D4F
:1062500090076FEFF07B047D057F1C12BE7D9007D9
:1062600071EFF07B047D107F1C12BE7D900772EFF2
:10627000F07B047D167F1C12BE7D900773EFF07BD0
:10628000047D197F1C12BE7D900774EFF07B047DA6
:106290001B7F1C12BE7D900775EFF07B047D1C7F79
:1062A0001C12BE7D900776EFF07B047D1D7F1C12D3
:1062B000BE7D900777EFF07B047D217F1C12BE7DB1
:1062C000900779EFF07B047D227F1C12BE7D900742
:1062D0007AEFF07B047D257F1C12BE7D90077BEF5B
:1062E000F07B047D267F1C12BE7D90077CEFF07B47
:1062F000047D277F1C12BE7D90077DEFF07B047D1F
:10630000287F1C12BE7D90077EEFF07B047D407FCE
:106310001C12BE7D900780EFF07B047D417F1C1234
:10632000BE7D900781EFF07B047D427F1C12BE7D15
:10633000900782EFF07B047D437F1C12BE7D9007A7
:1063400083EFF07B047D447F1C12BE7D900784EFB9
:10635000F07B047D457F1C12BE7D900785EFF07BAE
:10636000047D467F1C12BE7D900786EFF07B047D86
:10637000477F1C12BE7D900787EFF07B047D487F2E
:106380001C12BE7D900788EFF07B047D497F1C12B4
:10639000BE7D900789EFF07B047D4A7F1C12BE7D95
:1063A00090078AEFF07B047D4B7F1C12BE7D900727
:1063B0008BEFF07B047D4C7F1C12BE7D90078CEF31
:1063C000F07B047D4D7F1C12BE7D90078DEFF07B2E
:1063D000047D4F7F1C12BE7D90078EEFF07B047D05
:1063E000507F1C12BE7D90078FEFF07B047D517FA4
:1063F0001C12BE7D900790EFF07B047D527F1C1233
:10640000BE7D900791EFF07B047D5E7F1C12BE7D08
:10641000900793EFF07B047D5F7F1C12BE7D900799
:1064200094EFF07B047D607F1C12BE7D900795EF9A
:10643000F07B047D627F1C12BE7D900796EFF07B9F
:10644000047D917F1C12BE7D900798EFF07B047D48
:10645000927F1C12BE7D900799EFF0227B05E4FD30
:106460007F1C12BE7D9007E3EFF07B057D017F1C52
:1064700012BE7D9007E4EFF07B057D177F1C12BEF6
:106480007D9007E5EFF07B057D187F1C12BE7D90A7
:1064900007E6EFF07B057D1A7F1C12BE7D9007E7B3
:1064A000EFF07B057D037F1C12BE7D9007EFEFF0C0
:1064B0007B057D057F1C12BE7D9007F1EFF07B050B
:1064C0007D107F1C12BE7D9007F2EFF07B057D16DC
:1064D0007F1C12BE7D9007F3EFF07B057D197F1CBA
:1064E00012BE7D9007F4EFF07B057D1B7F1C12BE72
:1064F0007D9007F5EFF07B057D1C7F1C12BE7D9023
:1065000007F6EFF07B057D1D7F1C12BE7D9007F71F
:10651000EFF07B057D217F1C12BE7D9007F9EFF027
:106520007B057D227F1C12BE7D9007FAEFF07B0574
:106530007D257F1C12BE7D9007FBEFF07B057D263D
:106540007F1C12BE7D9007FCEFF07B057D277F1C32
:1065500012BE7D9007FDEFF07B057D287F1C12BEEB
:106560007D9007FEEFF07B057D407F1C12BE7D9085
:106570000800EFF07B057D417F1C12BE7D90080175
:10658000EFF07B057D427F1C12BE7D900802EFF08C
:106590007B057D437F1C12BE7D900803EFF07B05D9
:1065A0007D447F1C12BE7D900804EFF07B057D4585
:1065B0007F1C12BE7D900805EFF07B057D467F1C99
:1065C00012BE7D900806EFF07B057D477F1C12BE52
:1065D0007D900807EFF07B057D487F1C12BE7D9003
:1065E0000808EFF07B057D497F1C12BE7D900809ED
:1065F000EFF07B057D4A7F1C12BE7D90080AEFF00C
:106600007B057D4B7F1C12BE7D90080BEFF07B0558
:106610007D4C7F1C12BE7D90080CEFF07B057D4DFC
:106620007F1C12BE7D90080DEFF07B057D4F7F1C17
:1066300012BE7D90080EEFF07B057D507F1C12BED0
:106640007D90080FEFF07B057D517F1C12BE7D9081
:106650000810EFF07B057D527F1C12BE7D90081163
:10666000EFF07B057D5E7F1C12BE7D900813EFF07E
:106670007B057D5F7F1C12BE7D900814EFF07B05CB
:106680007D607F1C12BE7D900815EFF07B057D625A
:106690007F1C12BE7D900816EFF07B057D917F1C5C
:1066A00012BE7D900818EFF07B057D927F1C12BE14
:1066B0007D900819EFF0227E007F807D007B017ABB
:1066C0000079021238CE7E007F807D007B017A0047
:1066D00079821238CE9000137410F0A3F0A3F0A3C7
:1066E000F0A3F0A3F0A3F0A3F0E4A3F0900013E074
:1066F0009000D0F0900014E09000D1F0900015E0F0
:106700009000D2F0900016E09000D3F0900017E0D7
:106710009000D4F0900018E09000D5F0900019E0BF
:106720009000D6F090001AE09000D7F0900022740C
:10673000FFF09000DFF0900023F09000E0F0900078
:10674000827411F0A3F0A3F0A3F0E4900002F0A390
:10675000F0A3F090001EF0A3F0A3F0A3F09003804C
:10676000E06401705D900378E0900024F09003797C
:10677000E0900025F090037AE0900026F090037BF3
:10678000E0900027F090037CE0900028F090037DDB
:10679000E0900029F090037EE090002AF090037FC3
:1067A000E090002BF0900374E090002CF0900375C3
:1067B000E090002DF0900376E090002EF0900377AB
:1067C000802EE4900024F0A3F0A3F0A3F0A3F0A3A4
:1067D000F0A3F0A3F0900370E090002CF090037110
:1067E000E090002DF0900372E090002EF090037383
:1067F000E090002FF0900024E0900104F09000253C
:10680000E0900107F0900026E0900109F090002749
:10681000E090010BF0900024E09000E1F090002562
:10682000E09000E2F0900026E09000E3F090002776
:10683000E09000E4F0900028E0900103F09000293F
:10684000E0900106F090002AE0900108F090002B03
:10685000E090010AF0900028E09000E5F090002917
:10686000E09000E6F090002AE09000E7F090002B26
:10687000E09000E8F090002CE0900000F090002DF7
:10688000E0900001F090002EE0900102F090002FC7
:10689000E0900105F090002CE09000E9F090002DD0
:1068A000E09000EAF090002EE09000EBF090002FD6
:1068B000E09000ECF09000F27411F0A37422F0A3C9
:1068C0007433F0A37444F0A37455F0A37466F0A37A
:1068D0007477F0A37488F0A37411F0A37422F0A36A
:1068E0007433F0A37444F0A37455F0A37466F0A35A
:1068F0007477F0A37488F0228F32E5326401703C23
:10690000F5437FD07E34FD7C5812AC9CEE54FEF5EE
:1069100033753400900453E04533FEA3E04534FF63
:10692000900453EEF0A3EFF08E43F54475450075E7
:106930004604E4F5477FD07E340269FEE532640206
:10694000703CF5437FD07E74FD7C5812AC9CEE54B5
:10695000FEF533753400900455E04533FEA3E04561
:1069600034FF900455EEF0A3EFF08E43F5447545E7
:1069700000754604E4F5477FD07E740269FEE53277
:106980006403703BF5437FD07EB4FD7C5812AC9C11
:10699000EE54FEF533753400900457E04533FEA302
:1069A000E04534FF900457EEF0A3EFF08E43F5443A
:1069B000754500754604E4F5477FD07EB4803FE519
:1069C000326404703DF5437FD07EF4FD7C5812ACF8
:1069D0009CEE54FEF533753400900459E04533FEC7
:1069E000A3E04534FF900459EEF0A3EFF08E43F599
:1069F00044754500754604E4F5477FD07EF4FD02FA
:106A00006B12E5326405703F7543017FD07E34FD23
:106A10007C5812AC9CEE54FEF5337534009004D3D0
:106A2000E04533FEA3E04534FF9004D3EEF0A3EF3E
:106A3000F08E43F5447545007546047547017FD0D7
:106A40007E347D00026B12E5326406703F754301AF
:106A50007FD07E74FD7C5812AC9CEE54FEF53375ED
:106A600034009004D5E04533FEA3E04534FF9004A4
:106A7000D5EEF0A3EFF08E43F5447545007546045E
:106A80007547017FD07E747D00026B12E53264078A
:106A9000703E7543017FD07EB4FD7C5812AC9CEEF5
:106AA00054FEF5337534009004D7E04533FEA3E07F
:106AB0004534FF9004D7EEF0A3EFF08E43F5447514
:106AC00045007546047547017FD07EB47D00804245
:106AD000E532B408427543017FD07EF47D007C58D6
:106AE00012AC9CEE54FEF5337534009004D9E045A9
:106AF00033FEA3E04534FF9004D9EEF0A3EFF08E0F
:106B000043F5447545007546047547017FD07EF412
:106B10007D007C5812A800228F32E5326401703C5F
:106B2000F5437FD47E34FD7C5812AC9CEE54FEF5C8
:106B30003375340090045BE04533FEA3E04534FF39
:106B400090045BEEF0A3EFF08E43F54475450075BD
:106B50004604E4F5477FD47E34026C1EE5326402BD
:106B6000703CF5437FD47E74FD7C5812AC9CEE548F
:106B7000FEF53375340090045DE04533FEA3E04537
:106B800034FF90045DEEF0A3EFF08E43F5447545BD
:106B900000754604E4F5477FD47E74026C1EE5322E
:106BA0006403703BF5437FD47EB4FD7C5812AC9CEB
:106BB000EE54FEF53375340090045FE04533FEA3D8
:106BC000E04534FF90045FEEF0A3EFF08E43F54410
:106BD000754500754604E4F5477FD47EB4803FE5F3
:106BE000326404703DF5437FD47EF4FD7C5812ACD2
:106BF0009CEE54FEF533753400900461E04533FE9D
:106C0000A3E04534FF900461EEF0A3EFF08E43F56E
:106C100044754500754604E4F5477FD47EF4FD02D3
:106C20006D32E5326405703F7543017FD47E34FDDB
:106C30007C5812AC9CEE54FEF5337534009004DBA6
:106C4000E04533FEA3E04534FF9004DBEEF0A3EF14
:106C5000F08E43F5447545007546047547017FD4B1
:106C60007E347D00026D32E5326406703F7543016B
:106C70007FD47E74FD7C5812AC9CEE54FEF53375C7
:106C800034009004DDE04533FEA3E04534FF90047A
:106C9000DDEEF0A3EFF08E43F54475450075460434
:106CA0007547017FD47E747D00026D32E532640742
:106CB000703E7543017FD47EB4FD7C5812AC9CEECF
:106CC00054FEF5337534009004DFE04533FEA3E055
:106CD0004534FF9004DFEEF0A3EFF08E43F54475EA
:106CE00045007546047547017FD47EB47D0080421F
:106CF000E532B408427543017FD47EF47D007C58B0
:106D000012AC9CEE54FEF5337534009004E1E0457E
:106D100033FEA3E04534FF9004E1EEF0A3EFF08EE4
:106D200043F5447545007546047547017FD47EF4EC
:106D30007D007C5812A800228F32E5326401703C3D
:106D4000F5437FD87E34FD7C5812AC9CEE54FEF5A2
:106D500033753400900463E04533FEA3E04534FF0F
:106D6000900463EEF0A3EFF08E43F5447545007593
:106D70004604E4F5477FD87E34026E3EE532640275
:106D8000703CF5437FD87E74FD7C5812AC9CEE5469
:106D9000FEF533753400900465E04533FEA3E0450D
:106DA00034FF900465EEF0A3EFF08E43F544754593
:106DB00000754604E4F5477FD87E74026E3EE532E6
:106DC0006403703BF5437FD87EB4FD7C5812AC9CC5
:106DD000EE54FEF533753400900467E04533FEA3AE
:106DE000E04534FF900467EEF0A3EFF08E43F544E6
:106DF000754500754604E4F5477FD87EB4803FE5CD
:106E0000326404703DF5437FD87EF4FD7C5812ACAB
:106E10009CEE54FEF533753400900469E04533FE72
:106E2000A3E04534FF900469EEF0A3EFF08E43F544
:106E300044754500754604E4F5477FD87EF4FD02AD
:106E40006F52E5326405703F7543017FD87E34FD93
:106E50007C5812AC9CEE54FEF5337534009004E37C
:106E6000E04533FEA3E04534FF9004E3EEF0A3EFEA
:106E7000F08E43F5447545007546047547017FD88B
:106E80007E347D00026F52E5326406703F75430127
:106E90007FD87E74FD7C5812AC9CEE54FEF53375A1
:106EA00034009004E5E04533FEA3E04534FF900450
:106EB000E5EEF0A3EFF08E43F5447545007546040A
:106EC0007547017FD87E747D00026F52E5326407FA
:106ED000703E7543017FD87EB4FD7C5812AC9CEEA9
:106EE00054FEF5337534009004E7E04533FEA3E02B
:106EF0004534FF9004E7EEF0A3EFF08E43F54475C0
:106F000045007546047547017FD87EB47D008042F8
:106F1000E532B408427543017FD87EF47D007C5889
:106F200012AC9CEE54FEF5337534009004E9E04554
:106F300033FEA3E04534FF9004E9EEF0A3EFF08EBA
:106F400043F5447545007546047547017FD87EF4C6
:106F50007D007C5812A800228F32E5326401703C1B
:106F6000F5437FDC7E34FD7C5812AC9CEE54FEF57C
:106F70003375340090046BE04533FEA3E04534FFE5
:106F800090046BEEF0A3EFF08E43F5447545007569
:106F90004604E4F5477FDC7E3402705EE53264022D
:106FA000703CF5437FDC7E74FD7C5812AC9CEE5443
:106FB000FEF53375340090046DE04533FEA3E045E3
:106FC00034FF90046DEEF0A3EFF08E43F544754569
:106FD00000754604E4F5477FDC7E7402705EE5329E
:106FE0006403703BF5437FDC7EB4FD7C5812AC9C9F
:106FF000EE54FEF53375340090046FE04533FEA384
:10700000E04534FF90046FEEF0A3EFF08E43F544BB
:10701000754500754604E4F5477FDC7EB4803FE5A6
:10702000326404703DF5437FDC7EF4FD7C5812AC85
:107030009CEE54FEF533753400900471E04533FE48
:10704000A3E04534FF900471EEF0A3EFF08E43F51A
:1070500044754500754604E4F5477FDC7EF4FD0287
:107060007172E5326405703F7543017FDC7E34FD4B
:107070007C5812AC9CEE54FEF5337534009004EB52
:10708000E04533FEA3E04534FF9004EBEEF0A3EFC0
:10709000F08E43F5447545007546047547017FDC65
:1070A0007E347D00027172E5326406703F754301E3
:1070B0007FDC7E74FD7C5812AC9CEE54FEF533757B
:1070C00034009004EDE04533FEA3E04534FF900426
:1070D000EDEEF0A3EFF08E43F544754500754604E0
:1070E0007547017FDC7E747D00027172E5326407B2
:1070F000703E7543017FDC7EB4FD7C5812AC9CEE83
:1071000054FEF5337534009004EFE04533FEA3E000
:107110004534FF9004EFEEF0A3EFF08E43F5447595
:1071200045007546047547017FDC7EB47D008042D2
:10713000E532B408427543017FDC7EF47D007C5863
:1071400012AC9CEE54FEF5337534009004F1E0452A
:1071500033FEA3E04534FF9004F1EEF0A3EFF08E90
:1071600043F5447545007546047547017FDC7EF4A0
:107170007D007C5812A800228F32E5326401703CF9
:10718000F5437FE07E34FD7C5812AC9CEE54FEF556
:1071900033753400900473E04533FEA3E04534FFBB
:1071A000900473EEF0A3EFF08E43F544754500753F
:1071B0004604E4F5477FE07E3402727EE5326402E5
:1071C000703CF5437FE07E74FD7C5812AC9CEE541D
:1071D000FEF533753400900475E04533FEA3E045B9
:1071E00034FF900475EEF0A3EFF08E43F54475453F
:1071F00000754604E4F5477FE07E7402727EE53256
:107200006403703BF5437FE07EB4FD7C5812AC9C78
:10721000EE54FEF533753400900477E04533FEA359
:10722000E04534FF900477EEF0A3EFF08E43F54491
:10723000754500754604E4F5477FE07EB4803FE580
:10724000326404703DF5437FE07EF4FD7C5812AC5F
:107250009CEE54FEF533753400900479E04533FE1E
:10726000A3E04534FF900479EEF0A3EFF08E43F5F0
:1072700044754500754604E4F5477FE07EF4FD0261
:107280007392E5326405703F7543017FE07E34FD03
:107290007C5812AC9CEE54FEF5337534009004F328
:1072A000E04533FEA3E04534FF9004F3EEF0A3EF96
:1072B000F08E43F5447545007546047547017FE03F
:1072C0007E347D00027392E5326406703F7543019F
:1072D0007FE07E74FD7C5812AC9CEE54FEF5337555
:1072E00034009004F5E04533FEA3E04534FF9004FC
:1072F000F5EEF0A3EFF08E43F544754500754604B6
:107300007547017FE07E747D00027392E532640769
:10731000703E7543017FE07EB4FD7C5812AC9CEE5C
:1073200054FEF5337534009004F7E04533FEA3E0D6
:107330004534FF9004F7EEF0A3EFF08E43F544756B
:1073400045007546047547017FE07EB47D008042AC
:10735000E532B408427543017FE07EF47D007C583D
:1073600012AC9CEE54FEF5337534009004F9E04500
:1073700033FEA3E04534FF9004F9EEF0A3EFF08E66
:1073800043F5447545007546047547017FE07EF47A
:107390007D007C5812A800228F3CE53C64017033CC
:1073A000F5437FD412AC96EE54FEF53D753E009049
:1073B0000557E0453DFEA3E0453EFF900557EEF042
:1073C000A3EFF08E43F544754500754604E4F54798
:1073D0000274C7E53C64027039F5437FD47E447D76
:1073E000137C5012AC9CEE54FEF53D753E009005AA
:1073F00059E0453DFEA3E0453EFF900559EEF0A360
:10740000EFF08E43F544754500754604E4F54702F8
:10741000750DE53C64037039F5437FD47E447D23CC
:107420007C5012AC9CEE54FEF53D753E0090055B21
:10743000E0453DFEA3E0453EFF90055BEEF0A3EF87
:10744000F08E43F544754500754604E4F547027532
:1074500053E53C64047039F5437FD47E447D337C2E
:107460005012AC9CEE54FEF53D753E0090055DE07B
:10747000453DFEA3E0453EFF90055DEEF0A3EFF035
:107480008E43F544754500754604E4F5470275974B
:10749000E53C6405703A7543017FD412AC96EE5416
:1074A000FEF53D753E009005D7E0453DFEA3E04565
:1074B0003EFF9005D7EEF0A3EFF08E43F5447545FF
:1074C000007546047547017FD47E447D0302759D97
:1074D000E53C640670407543017FD47E447D137C97
:1074E0005012AC9CEE54FEF53D753E009005D9E07F
:1074F000453DFEA3E0453EFF9005D9EEF0A3EFF039
:107500008E43F5447545007546047547017FD47E6A
:10751000447D1302759DE53C6407703F7543017F10
:10752000D47E447D237C5012AC9CEE54FEF53D7518
:107530003E009005DBE0453DFEA3E0453EFF9005A3
:10754000DBEEF0A3EFF08E43F5447545007546047D
:107550007547017FD47E447D238042E53CB40842D8
:107560007543017FD47E447D337C5012AC9CEE5435
:10757000FEF53D753E009005DDE0453DFEA3E0458E
:107580003EFF9005DDEEF0A3EFF08E43F544754528
:10759000007546047547017FD47E447D337C5012CC
:1075A000A800228F3CE53C64017033F5437FD8127C
:1075B000AC96EE54FEF53D753E0090055FE0453D0E
:1075C000FEA3E0453EFF90055FEEF0A3EFF08E4393
:1075D000F544754500754604E4F5470276D2E53C6E
:1075E00064027039F5437FD87E447D137C5012AC21
:1075F0009CEE54FEF53D753E00900561E0453DFE74
:10760000A3E0453EFF900561EEF0A3EFF08E43F559
:1076100044754500754604E4F547027718E53C6477
:10762000037039F5437FD87E447D237C5012AC9C97
:10763000EE54FEF53D753E00900563E0453DFEA32A
:10764000E0453EFF900563EEF0A3EFF08E43F54476
:10765000754500754604E4F54702775EE53C640431
:107660007039F5437FD87E447D337C5012AC9CEE5C
:1076700054FEF53D753E00900565E0453DFEA3E0F6
:10768000453EFF900565EEF0A3EFF08E43F544759F
:107690004500754604E4F5470277A2E53C640570B1
:1076A0003A7543017FD812AC96EE54FEF53D753E17
:1076B000009005DFE0453DFEA3E0453EFF9005DF7D
:1076C000EEF0A3EFF08E43F5447545007546047562
:1076D00047017FD87E447D030277A8E53C640670AD
:1076E000407543017FD87E447D137C5012AC9CEEE4
:1076F00054FEF53D753E009005E1E0453DFEA3E0FA
:10770000453EFF9005E1EEF0A3EFF08E43F54475A2
:1077100045007546047547017FD87E447D13027786
:10772000A8E53C6407703F7543017FD87E447D2304
:107730007C5012AC9CEE54FEF53D753E009005E386
:10774000E0453DFEA3E0453EFF9005E3EEF0A3EFEC
:10775000F08E43F5447545007546047547017FD8A2
:107760007E447D238042E53CB408427543017FD8C6
:107770007E447D337C5012AC9CEE54FEF53D753E4C
:10778000009005E5E0453DFEA3E0453EFF9005E5A0
:10779000EEF0A3EFF08E43F5447545007546047591
:1077A00047017FD87E447D337C5012A800228F3160
:1077B000E53164017033F5437FDC12AC96EE54FE84
:1077C000F532753300900567E04532FEA3E045339E
:1077D000FF900567EEF0A3EFF08E43F5447545008A
:1077E000754604E4F5470278DDE53164027039F549
:1077F000437FDC7E447D137C5012AC9CEE54FEF53E
:1078000032753300900569E04532FEA3E04533FF51
:10781000900569EEF0A3EFF08E43F54475450075D1
:107820004604E4F547027923E53164037039F543F2
:107830007FDC7E447D237C5012AC9CEE54FEF532FE
:1078400075330090056BE04532FEA3E04533FF90B1
:10785000056BEEF0A3EFF08E43F5447545007546D9
:1078600004E4F547027969E53164047039F5437F32
:10787000DC7E447D337C5012AC9CEE54FEF53275B8
:10788000330090056DE04532FEA3E04533FF9005DF
:107890006DEEF0A3EFF08E43F54475450075460498
:1078A000E4F5470279ADE5316405703A7543017F2F
:1078B000DC12AC96EE54FEF5327533009005E7E02D
:1078C0004532FEA3E04533FF9005E7EEF0A3EFF06D
:1078D0008E43F5447545007546047547017FDC7E8F
:1078E000447D030279B3E531640670407543017F3E
:1078F000DC7E447D137C5012AC9CEE54FEF5327558
:1079000033009005E9E04532FEA3E04533FF9005E2
:10791000E9EEF0A3EFF08E43F5447545007546049B
:107920007547017FDC7E447D130279B3E53164073E
:10793000703F7543017FDC7E447D237C5012AC9CFC
:10794000EE54FEF5327533009005EBE04532FEA3B0
:10795000E04533FF9005EBEEF0A3EFF08E43F544E6
:107960007545007546047547017FDC7E447D2380A4
:1079700042E531B408427543017FDC7E447D337CAF
:107980005012AC9CEE54FEF5327533009005EDE0DC
:107990004532FEA3E04533FF9005EDEEF0A3EFF096
:1079A0008E43F5447545007546047547017FDC7EBE
:1079B000447D337C5012A800228F31E53164017080
:1079C00033F5437FE012AC96EE54FEF5327533008A
:1079D00090056FE04532FEA3E04533FF90056FEE62
:1079E000F0A3EFF08E43F544754500754604E4F5C9
:1079F00047027AE8E53164027039F5437FE07E445E
:107A00007D137C5012AC9CEE54FEF5327533009021
:107A10000571E04532FEA3E04533FF900571EEF0BD
:107A2000A3EFF08E43F544754500754604E4F54731
:107A3000027B2EE53164037039F5437FE07E447D9F
:107A4000237C5012AC9CEE54FEF532753300900549
:107A500073E04532FEA3E04533FF900573EEF0A3DB
:107A6000EFF08E43F544754500754604E4F5470292
:107A70007B74E53164047039F5437FE07E447D33E7
:107A80007C5012AC9CEE54FEF532753300900575B7
:107A9000E04532FEA3E04533FF900575EEF0A3EF1D
:107AA000F08E43F544754500754604E4F547027BC6
:107AB000B8E5316405703A7543017FE012AC96EE8B
:107AC00054FEF5327533009005EFE04532FEA3E039
:107AD0004533FF9005EFEEF0A3EFF08E43F54475CC
:107AE00045007546047547017FE07E447D03027BB7
:107AF000BEE531640670407543017FE07E447D132E
:107B00007C5012AC9CEE54FEF5327533009005F1BA
:107B1000E04532FEA3E04533FF9005F1EEF0A3EF20
:107B2000F08E43F5447545007546047547017FE0C6
:107B30007E447D13027BBEE5316407703F754301CF
:107B40007FE07E447D237C5012AC9CEE54FEF532E7
:107B50007533009005F3E04532FEA3E04533FF9016
:107B600005F3EEF0A3EFF08E43F54475450075463E
:107B7000047547017FE07E447D238042E531B408EF
:107B8000427543017FE07E447D337C5012AC9CEE15
:107B900054FEF5327533009005F5E04532FEA3E062
:107BA0004533FF9005F5EEF0A3EFF08E43F54475F5
:107BB00045007546047547017FE07E447D337C5067
:107BC00012A800228F3CE53C64017033F5437FD05E
:107BD00012AC96EE54FEF53D753E0090054FE04523
:107BE0003DFEA3E0453EFF90054FEEF0A3EFF08E83
:107BF00043F544754500754604E4F547027CEFE51E
:107C00003C64027035F5437FD07D1312AC98EE547E
:107C1000FEF53D753E00900551E0453DFEA3E04573
:107C20003EFF900551EEF0A3EFF08E43F54475450D
:107C300000754604E4F547027D35E53C6403703980
:107C4000F5437FD07E447D237C5012AC9CEE54FEE5
:107C5000F53D753E00900553E0453DFEA3E0453EF1
:107C6000FF900553EEF0A3EFF08E43F54475450009
:107C7000754604E4F547027D7BE53C64047039F504
:107C8000437FD07E447D337C5012AC9CEE54FEF595
:107C90003D753E00900555E0453DFEA3E0453EFFA5
:107CA000900555EEF0A3EFF08E43F5447545007551
:107CB0004604E4F547027DBFE53C6405703A754330
:107CC000017FD012AC96EE54FEF53D753E00900556
:107CD000CFE0453DFEA3E0453EFF9005CFEEF0A38B
:107CE000EFF08E43F5447545007546047547017FF6
:107CF000D07E447D03027DC5E53C6406704075433B
:107D0000017FD07E447D137C5012AC9CEE54FEF576
:107D10003D753E009005D1E0453DFEA3E0453EFFA8
:107D20009005D1EEF0A3EFF08E43F5447545007554
:107D300046047547017FD07E447D13027DC5E53C36
:107D40006407703F7543017FD07E447D237C5012D1
:107D5000AC9CEE54FEF53D753E009005D3E0453DEC
:107D6000FEA3E0453EFF9005D3EEF0A3EFF08E4377
:107D7000F5447545007546047547017FD07E447D06
:107D8000238042E53CB408427543017FD07E447DA8
:107D9000337C5012AC9CEE54FEF53D753E009005D0
:107DA000D5E0453DFEA3E0453EFF9005D5EEF0A3AE
:107DB000EFF08E43F5447545007546047547017F25
:107DC000D07E447D337C5012A8002290076FE0FBE8
:107DD0007554047D037F1C12BEBD900771E0FB75D6
:107DE00054047D057F1C12BEBD900772E0FB7554E4
:107DF000047D107F1C12BEBD900773E0FB75540418
:107E00007D167F1C12BEBD900774E0FB7554047D87
:107E1000197F1C12BEBD900775E0FB7554047D1BD5
:107E20007F1C12BEBD900776E0FB7554047D1C7F5D
:107E30001C12BEBD900777E0FB7554047D1D7F1CAE
:107E400012BEBD900779E0FB7554047D217F1C12A2
:107E5000BEBD90077AE0FB7554047D227F1C12BEE4
:107E6000BD90077BE0FB7554047D257F1C12BEBDD1
:107E700090077CE0FB7554047D267F1C12BEBD90EC
:107E8000077DE0FB7554047D277F1C12BEBD900763
:107E90007EE0FB7554047D287F1C12BEBD900780D8
:107EA000E0FB7554047D407F1C12BEBD900781E04D
:107EB000FB7554047D417F1C12BEBD90078AE0FB18
:107EC0007554047D4A7F1C12BEBD90078BE0FB7584
:107ED00054047D4B7F1C12BEBD90078CE0FB755493
:107EE000047D4C7F1C12BEBD90078DE0FB755404D1
:107EF0007D4D7F1C12BEBD90078EE0FB7554047D46
:107F00004F7F1C12BEBD90078FE0FB7554047D505F
:107F10007F1C12BEBD900790E0FB7554047D517F1D
:107F20001C12BEBD900791E0FB7554047D527F1C6E
:107F300012BEBD900793E0FB7554047D5E7F1C125A
:107F4000BEBD900794E0FB7554047D5F7F1C12BE9C
:107F5000BD900782E0FB7554047D427F1C12BEBDBC
:107F6000900783E0FB7554047D437F1C12BEBD90D7
:107F70000784E0FB7554047D447F1C12BEBD90074E
:107F800085E0FB7554047D457F1C12BEBD900786BD
:107F9000E0FB7554047D467F1C12BEBD900787E050
:107FA000FB7554047D477F1C12BEBD900788E0FB23
:107FB0007554047D487F1C12BEBD900789E0FB7597
:107FC00054047D497F1C02BEBD9007EFE0FB755451
:107FD000057D037F1C12BEBD9007F1E0FB755405C3
:107FE0007D057F1C12BEBD9007F2E0FB7554057D38
:107FF000107F1C12BEBD9007F3E0FB7554057D1683
:108000007F1C12BEBD9007F4E0FB7554057D197FFF
:108010001C12BEBD9007F5E0FB7554057D1B7F1C4F
:1080200012BEBD9007F6E0FB7554057D1C7F1C1247
:10803000BEBD9007F7E0FB7554057D1D7F1C12BE89
:10804000BD9007F9E0FB7554057D217F1C12BEBD74
:108050009007FAE0FB7554057D227F1C12BEBD908F
:1080600007FBE0FB7554057D257F1C12BEBD900704
:10807000FCE0FB7554057D267F1C12BEBD9007FDFC
:10808000E0FB7554057D277F1C12BEBD9007FEE006
:10809000FB7554057D287F1C12BEBD900800E0FBD7
:1080A0007554057D407F1C12BEBD900801E0FB7534
:1080B00054057D417F1C12BEBD90080AE0FB75543B
:1080C000057D4A7F1C12BEBD90080BE0FB75540570
:1080D0007D4B7F1C12BEBD90080CE0FB7554057DE6
:1080E0004C7F1C12BEBD90080DE0FB7554057D4D04
:1080F0007F1C12BEBD90080EE0FB7554057D4F7FBE
:108100001C12BEBD90080FE0FB7554057D507F1C0E
:1081100012BEBD900810E0FB7554057D517F1C1206
:10812000BEBD900811E0FB7554057D527F1C12BE48
:10813000BD900813E0FB7554057D5E7F1C12BEBD2B
:10814000900814E0FB7554057D5F7F1C12BEBD9046
:108150000802E0FB7554057D427F1C12BEBD9008ED
:1081600003E0FB7554057D437F1C12BEBD900804DF
:10817000E0FB7554057D447F1C12BEBD900805E0F0
:10818000FB7554057D457F1C12BEBD900806E0FBC3
:108190007554057D467F1C12BEBD900807E0FB7537
:1081A00054057D477F1C12BEBD900808E0FB755446
:1081B000057D487F1C12BEBD900809E0FB75540583
:1081C0007D497F1C02BEBD90076FE0FB7554047DA6
:1081D000037F1C12BEBD900771E0FB7554047D0542
:1081E0007F1C12BEBD900772E0FB7554047D107FAA
:1081F0001C12BEBD900773E0FB7554047D167F1CF6
:1082000012BEBD900774E0FB7554047D197F1C12EB
:10821000BEBD900775E0FB7554047D1B7F1C12BE2C
:10822000BD900776E0FB7554047D1C7F1C12BEBD1B
:10823000900777E0FB7554047D1D7F1C12BEBD9036
:108240000779E0FB7554047D217F1C12BEBD9007A9
:108250007AE0FB7554047D227F1C12BEBD90077B23
:10826000E0FB7554047D257F1C12BEBD90077CE0A9
:10827000FB7554047D267F1C12BEBD90077DE0FB7C
:108280007554047D277F1C12BEBD90077EE0FB75F0
:1082900054047D287F1C12BEBD900780E0FB7554FE
:1082A000047D407F1C12BEBD90078AE0FB7554041C
:1082B0007D4A7F1C12BEBD90078BE0FB7554047D88
:1082C0004B7F1C12BEBD90078CE0FB7554047D4CA7
:1082D0007F1C12BEBD90078DE0FB7554047D4D7F61
:1082E0001C12BEBD90078EE0FB7554047D4F7F1CB1
:1082F00012BEBD90078FE0FB7554047D507F1C12A9
:10830000BEBD900790E0FB7554047D517F1C12BEEA
:10831000BD900791E0FB7554047D527F1C12BEBDD9
:10832000900793E0FB7554047D5E7F1C12BEBD90E8
:108330000794E0FB7554047D5F7F1C12BEBD90075F
:1083400082E0FB7554047D427F1C12BEBD90078302
:10835000E0FB7554047D437F1C12BEBD900784E092
:10836000FB7554047D447F1C12BEBD900785E0FB65
:108370007554047D457F1C12BEBD900786E0FB75D9
:1083800054047D467F1C12BEBD900787E0FB7554E8
:10839000047D477F1C12BEBD900788E0FB75540426
:1083A0007D487F1C12BEBD900789E0FB7554047D9B
:1083B000497F1C02BEBD9007EFE0FB7554057D03AD
:1083C0007F1C12BEBD9007F1E0FB7554057D057F53
:1083D0001C12BEBD9007F2E0FB7554057D107F1C9A
:1083E00012BEBD9007F3E0FB7554057D167F1C128D
:1083F000BEBD9007F4E0FB7554057D197F1C12BECD
:10840000BD9007F5E0FB7554057D1B7F1C12BEBDBA
:108410009007F6E0FB7554057D1C7F1C12BEBD90D5
:1084200007F7E0FB7554057D1D7F1C12BEBD90074C
:10843000F9E0FB7554057D217F1C12BEBD9007FA43
:10844000E0FB7554057D227F1C12BEBD9007FBE04A
:10845000FB7554057D257F1C12BEBD9007FCE0FB1B
:108460007554057D267F1C12BEBD9007FDE0FB758F
:1084700054057D277F1C12BEBD9007FEE0FB75549E
:10848000057D287F1C12BEBD900800E0FB755405D9
:108490007D407F1C12BEBD90080AE0FB7554057D2F
:1084A0004A7F1C12BEBD90080BE0FB7554057D4B46
:1084B0007F1C12BEBD90080CE0FB7554057D4C7FFF
:1084C0001C12BEBD90080DE0FB7554057D4D7F1C50
:1084D00012BEBD90080EE0FB7554057D4F7F1C1247
:1084E000BEBD90080FE0FB7554057D507F1C12BE89
:1084F000BD900810E0FB7554057D517F1C12BEBD78
:10850000900811E0FB7554057D527F1C12BEBD9092
:108510000813E0FB7554057D5E7F1C12BEBD9008FC
:1085200014E0FB7554057D5F7F1C12BEBD900802F0
:10853000E0FB7554057D427F1C12BEBD900803E030
:10854000FB7554057D437F1C12BEBD900804E0FB03
:108550007554057D447F1C12BEBD900805E0FB7577
:1085600054057D457F1C12BEBD900806E0FB755486
:10857000057D467F1C12BEBD900807E0FB755405C3
:108580007D477F1C12BEBD900808E0FB7554057D39
:10859000487F1C12BEBD900809E0FB7554057D495B
:1085A0007F1C02BEBD8F31E53164017036F5437F1B
:1085B000CC7E35FD7C5812AC9C8E32EF54FEF533E8
:1085C000900483E04532F534A3E04533F535853436
:1085D00043F544754500754604E4F5477FCC7E3588
:1085E000028692E53164027035F5437FCC7E75FDDD
:1085F0007C5812AC9C8E32EF54FEF533900485E02B
:108600004532F534A3E04533F535853443F54475FB
:108610004500754604E4F5477FCC7E758074E531EE
:1086200064037035F5437FCC7EB5FD7C5812AC9C5D
:108630008E32EF54FEF533900487E04532F534A3D3
:10864000E04533F535853443F544754500754604FA
:10865000E4F5477FCC7EB58039E53164047037F5A9
:10866000437FCC7EF5FD7C5812AC9C8E32EF54FEDD
:10867000F533900489E04532F534A3E04533F53510
:10868000853443F544754500754604E4F5477FCCD1
:108690007EF5FD02878DE531640570397543017FF4
:1086A000CC7E35FD7C5812AC9C8E32EF54FEF533F7
:1086B000900503E04532F534A3E04533F5358534C4
:1086C00043F5447545007546047547017FCC7E35FA
:1086D0007D0002878DE531640670387543017FCCDB
:1086E0007E75FD7C5812AC9C8E32EF54FEF53390B3
:1086F0000505E04532F534A3E04533F535853443CF
:10870000F5447545007546047547017FCC7E757D3F
:1087100000807AE531640770387543017FCC7EB5FF
:10872000FD7C5812AC9C8E32EF54FEF53390050759
:10873000E04532F534A3E04533F535853443F5445F
:108740007545007546047547017FCC7EB57D008078
:108750003CE531B4083C7543017FCC7EF57D007C5F
:108760005812AC9C8E32EF54FEF533900509E0456B
:1087700032F534A3E04533F535853443F54475458A
:10878000007546047547017FCC7EF57D007C58124C
:10879000A800228F30E53064017033F5437FCC7E32
:1087A000457D037C5012AC9C8E31EF54FEF5329027
:1087B000057FE04531F533A3E04532F53485334399
:1087C000F544754500754604E4F5470288B0E53088
:1087D00064027033F5437FCC7E457D137C5012AC30
:1087E0009C8E31EF54FEF532900581E04531F53332
:1087F000A3E04532F534853343F5447545007546AD
:1088000004E4F5470288F0E53064037033F5437FF4
:10881000CC7E457D237C5012AC9C8E31EF54FEF50E
:1088200032900583E04531F533A3E04532F53485D8
:108830003343F544754500754604E4F54702892F36
:10884000E53064047033F5437FCC7E457D337C5046
:1088500012AC9C8E31EF54FEF532900585E0453127
:10886000F533A3E04532F534853343F544754500CF
:10887000754604E4F54702896DE5306405703A7584
:1088800043017FCC7E457D037C5012AC9C8E31EF42
:1088900054FEF5329005FFE04531F533A3E0453253
:1088A000F534853343F54475450075460475470135
:1088B0007FCC7E457D03028973E53064067039758F
:1088C00043017FCC7E457D137C5012AC9C8E31EFF2
:1088D00054FEF532900601E04531F533A3E0453210
:1088E000F534853343F544754500754604754701F5
:1088F0007FCC7E457D13807BE530640770397543FE
:10890000017FCC7E457D237C5012AC9C8E31EF5490
:10891000FEF532900603E04531F533A3E04532F52C
:1089200034853343F5447545007546047547017F2A
:10893000CC7E457D23803CE530B4083C7543017F07
:10894000CC7E457D337C5012AC9C8E31EF54FEF5CD
:1089500032900605E04531F533A3E04532F5348524
:108960003343F5447545007546047547017FCC7E59
:10897000457D337C5012A800228F30E530640170B1
:1089800033F5437F8C7E457D037C5012AC9C8E3149
:10899000EF54FEF532900587E04531F533A3E0450D
:1089A00032F534853343F544754500754604E4F5E6
:1089B00047028A96E53064027033F5437F8C7E452A
:1089C0007D137C5012AC9C8E31EF54FEF532900535
:1089D00089E04531F533A3E04532F534853343F57D
:1089E00044754500754604E4F547028AD6E53064CF
:1089F000037033F5437F8C7E457D237C5012AC9C05
:108A00008E31EF54FEF53290058BE04531F533A3FE
:108A1000E04532F534853343F54475450075460429
:108A2000E4F547028B15E53064047033F5437F8C21
:108A30007E457D337C5012AC9C8E31EF54FEF53276
:108A400090058DE04531F533A3E04532F5348533AB
:108A500043F544754500754604E4F547028B53E53C
:108A6000306405703A7543017F8C7E457D037C50F0
:108A700012AC9C8E31EF54FEF532900607E0453182
:108A8000F533A3E04532F534853343F544754500AD
:108A90007546047547017F8C7E457D03028B59E541
:108AA00030640670397543017F8C7E457D137C50A0
:108AB00012AC9C8E31EF54FEF532900609E0453140
:108AC000F533A3E04532F534853343F5447545006D
:108AD0007546047547017F8C7E457D13807BE530AC
:108AE000640770397543017F8C7E457D237C50126D
:108AF000AC9C8E31EF54FEF53290060BE04531F51B
:108B000033A3E04532F534853343F54475450075AC
:108B100046047547017F8C7E457D23803CE530B45B
:108B2000083C7543017F8C7E457D337C5012AC9CA4
:108B30008E31EF54FEF53290060DE04531F533A34A
:108B4000E04532F534853343F544754500754604F8
:108B50007547017F8C7E457D337C5012A80022AC86
:108B600007900024E0F530A3E0F531A3E0F532A34F
:108B7000E0F533E530540FFFC3940740027F07EF61
:108B8000700890054FF0A3F08015743F2FF582E434
:108B90003404F583E0FB90054F74FFF0A3EBF0E5A0
:108BA0003054F0C4540FFFC3940740027F07EF70A6
:108BB00008900551F0A3F08015743F2FF582E4343E
:108BC00004F583E0FB90055174FFF0A3EBF0E53171
:108BD000540FFFC3940740027F07EF7008900553BE
:108BE000F0A3F08015743F2FF582E43404F583E0A0
:108BF000FB90055374FFF0A3EBF0E53154F0C4543F
:108C00000FFFC3940740027F07EF7008900555F0EF
:108C1000A3F08015743F2FF582E43404F583E0FB64
:108C200090055574FFF0A3EBF0E532540FFFC394A9
:108C30000740027F07EF70089005CFF0A3F0801582
:108C4000743F2FF582E43404F583E0FB9005CF7484
:108C5000FFF0A3EBF0E53254F0C4540FFFC39407C8
:108C600040027F07EF70089005D1F0A3F0801574E3
:108C70003F2FF582E43404F583E0FB9005D174FFC7
:108C8000F0A3EBF0E533540FFFC3940740027F07D6
:108C9000EF70089005D3F0A3F08015743F2FF58294
:108CA000E43404F583E0FB9005D374FFF0A3EBF00C
:108CB000E53354F0C4540FFFC3940740027F07EF1D
:108CC00070089005D5F0A3F08015743F2FF582E46D
:108CD0003404F583E0FF9005D574FFF0A3EFF0ECCA
:108CE00064017060900104E06530600A7F01127BCE
:108CF000C47F02127BC4900107E06531600A7F03E4
:108D0000127BC47F04127BC4900109E06532600AC3
:108D10007F05127BC47F06127BC490010BE0653394
:108D2000600A7F07127BC47F08127BC4900104E5B0
:108D300030F0900107E531F0900109E532F0900143
:108D40000BE533F022AC07900028E0F530A3E0F506
:108D500031A3E0F532A3E0F533E530540FFFC394BF
:108D60000740027F07EF700890055FF0A3F08015C1
:108D7000741F2FF582E43404F583E0FB90055F74E3
:108D8000FFF0A3EBF0E53054F0C4540FFFC3940799
:108D900040027F07EF7008900561F0A3F080157422
:108DA0001F2FF582E43404F583E0FB90056174FF26
:108DB000F0A3EBF0E531540FFFC3940740027F07A7
:108DC000EF7008900563F0A3F08015741F2FF582F3
:108DD000E43404F583E0FB90056374FFF0A3EBF04B
:108DE000E53154F0C4540FFFC3940740027F07EFEE
:108DF0007008900565F0A3F08015741F2FF582E4CC
:108E00003404F583E0FB90056574FFF0A3EBF0E517
:108E100032540FFFC3940740027F07EF700890059C
:108E2000DFF0A3F08015741F2FF582E43404F5837E
:108E3000E0FB9005DF74FFF0A3EBF0E53254F0C4E3
:108E4000540FFFC3940740027F07EF70089005E1BD
:108E5000F0A3F08015741F2FF582E43404F583E04D
:108E6000FB9005E174FFF0A3EBF0E533540FFFC373
:108E7000940740027F07EF70089005E3F0A3F080AD
:108E800015741F2FF582E43404F583E0FB9005E3AD
:108E900074FFF0A3EBF0E53354F0C4540FFFC39418
:108EA0000740027F07EF70089005E5F0A3F08015FA
:108EB000741F2FF582E43404F583E0FF9005E57418
:108EC000FFF0A3EFF0EC64017060900103E0653007
:108ED000600A7F011275A37F021275A3900106E05C
:108EE0006531600A7F031275A37F041275A3900198
:108EF00008E06532600A7F051275A37F061275A32C
:108F000090010AE06533600A7F071275A37F08129B
:108F100075A3900103E530F0900106E531F0900172
:108F200008E532F090010AE533F022E4F545F9FD59
:108F3000FC9000BCE0FEA3E0FBEEF52FEBF530A3C8
:108F4000E0FEA3E0FBEEF531EBF532A3E0FEA3E09B
:108F5000FBEEF533EBF534A3E0FEA3E0FBEEF535D5
:108F6000EBF536A3E0FEA3E0FBEEF537EBF538A317
:108F7000E0FEA3E0FBEEF539EBF53AA3E0FEA3E05B
:108F8000FBEEF53BEBF53CA3E0FEA3E0FBEEF53D8D
:108F9000EBF53E9002DFE0FEA3E0FBEEF53FEBF5E4
:108FA00040A3E0FEA3E0FBEEF541EBF542A3E0FEBB
:108FB000A3E0FBEEF543EBF544A3E0FEA3E0FBEBFF
:108FC000FFE4FBEB25E0242FF8E6F58308E6D395D4
:108FD00040E583953F400D7401A803088002C33328
:108FE000D8FC4245EB25E0242FF8E6F58308E6C3DC
:108FF0009542E5839541500D7401A803088002C392
:1090000033D8FC4201EB25E0242FF8E6F58308E68F
:10901000D39544E5839543400D7401A8030880026D
:10902000C333D8FC4205EB25E0242FF8E6F583088E
:10903000E6C39FE5839E500D7401A803088002C318
:1090400033D8FC42040BEB64086003028FC390002A
:1090500097E0FFD394004006E54570028F459000ED
:1090600098E0FFD394004005E97002A907900099A9
:10907000E0FFD394004005ED7002AD0790009AE048
:10908000FFD394004005EC7002AC079009FFE54562
:10909000F0900A01E9F0900A06EDF0900A08ECF071
:1090A000900097E545F0A3E9F0A3EDF0A3ECF09074
:1090B0000066E0F45545600CC28290010FE054FE5A
:1090C000F0431B04900067E0F4FF900A01E05F604A
:1090D0000CC28290010FE054FEF0431B0890006820
:1090E000E0F4FF900A06E05F600CC28290010FE09E
:1090F00054FEF0431B10900069E0F4FF900A08E072
:109100005F600CC28290010FE054FEF0431B2022EE
:109110008F2F8D30E52FB4080040030292E090912C
:1091200025F828287302913D0291700291A20291C4
:10913000D402920802923E0292730292A8E4F5438E
:109140007F947E21FD7C5812AC9C8E318F32E530AD
:10915000600543321080035332EF8531438532443A
:10916000754500754604E4F5477F947E210292041C
:10917000E4F5437F947E61FD7C5812AC9C8E318F68
:1091800032E530600543321080035332EF853143BE
:10919000853244754500754604E4F5477F947E6149
:1091A0008062E4F5437F947EA1FD7C5812AC9C8ED6
:1091B000318F32E530600543321080035332EF8542
:1091C0003143853244754500754604E4F5477F9484
:1091D0007EA18030E4F5437F947EE1FD7C5812ACA3
:1091E0009C8E318F32E5306005433210800353325C
:1091F000EF853143853244754500754604E4F547F3
:109200007F947EE1FD0292DB7543017F947E217D98
:10921000007C5812AC9C8E318F32E53060054332B1
:109220001080035332EF8531438532447545007514
:1092300046047547017F947E217D000292DB7543D1
:10924000017F947E617D007C5812AC9C8E318F3200
:10925000E530600543321080035332EF853143859A
:1092600032447545007546047547017F947E617DE3
:109270000080687543017F947EA17D007C5812AC0C
:109280009C8E318F32E530600543321080035332BB
:10929000EF853143853244754500754604754701B5
:1092A0007F947EA17D0080337543017F947EE17DB4
:1092B000007C5812AC9C8E318F32E5306005433211
:1092C0001080035332EF8531438532447545007574
:1092D00046047547017F947EE17D007C5812A8000A
:1092E0007B047A007D047C80AF2F02A4E58F2F8D54
:1092F00030E52FB4080040030294B2909302F8289E
:10930000287302931A02934A02937A0293AA029351
:10931000DA02941002944502947AE4F5437F0C7EBD
:109320004A7D037C5012AC9C8E318F32E530600553
:1093300043322080035332DF853143853244754503
:1093400000754604E4F547029407E4F5437F0C7E7C
:109350004A7D137C5012AC9C8E318F32E530600513
:1093600043322080035332DF8531438532447545D3
:1093700000754604E4F54702943DE4F5437F0C7E16
:109380004A7D237C5012AC9C8E318F32E5306005D3
:1093900043322080035332DF8531438532447545A3
:1093A00000754604E4F547029472E4F5437F0C7EB1
:1093B0004A7D337C5012AC9C8E318F32E530600593
:1093C00043322080035332DF853143853244754573
:1093D00000754604E4F5470294A77543017F0C7EAF
:1093E0004A7D037C5012AC9C8E318F32E530600593
:1093F00043322080035332DF853143853244754543
:10940000007546047547017F0C7E4A7D030294ADCA
:109410007543017F0C7E4A7D137C5012AC9C8E31CB
:109420008F32E530600543322080035332DF8531CF
:10943000438532447545007546047547017F0C7EAF
:109440004A7D1380687543017F0C7E4A7D237C50E2
:1094500012AC9C8E318F32E53060054332208003A0
:109460005332DF85314385324475450075460475B6
:1094700047017F0C7E4A7D2380337543017F0C7E3C
:109480004A7D337C5012AC9C8E318F32E5306005C2
:1094900043322080035332DF8531438532447545A2
:1094A000007546047547017F0C7E4A7D337C50125F
:1094B000A8007B037A007D037C80AF2F02A5E89093
:1094C000018BE01238A894F182950F84952D859533
:1094D0004886956387957E8A959C8B95B98C95D3A4
:1094E0008E95ED90962C91960E929647B000009630
:1094F00085900650E0C39401500302968512BBC6C6
:10950000788C7C017D017B017A0779630296239038
:109510000650E0C39401500302968512BC10788C6B
:109520007C017D017B017A0779E302962390065046
:10953000E0D394015003029685788C7C017D017BF9
:10954000017A0679E3029623900650E0C394015015
:1095500003029685788C7C017D017B017A04794F2A
:10956000029623900650E0C394015003029685783A
:109570008C7C017D017B017A05794F029623900650
:1095800050E0C39401500302968512C50B788C7C81
:10959000017D017B017A087963029623900650E0F1
:1095A000C39401500302968512C522788C7C017DFC
:1095B000017B017A0879E3806A900650E0C3940148
:1095C0005003029685788C7C017D017B017A0479B9
:1095D000CF8050900650E0C39401500302968578E6
:1095E0008C7C017D017B017A0579CF803690065015
:1095F000E0D3940140349003997403F0A37438F0DD
:10960000788C7C017D017B017A03791F801590069F
:1096100050E0D394014013788C7C017D017B017A6A
:1096200003799F7E007F8002379E804A900650E03B
:10963000D3940140507B017A01798C7534007535E3
:10964000807F007EEE802C900650E0D3940140266F
:10965000788C7C017D017B017A0679537E007F093D
:1096600012379E7B017A0179957534007535777FC5
:10967000097EF602BCEB7E007F807DFF7B017A01D4
:10968000798C1238CE22E4FC9000CCF0A3F0A3F049
:10969000A3F0A3F0A3F0A3F0A3F0A3F0A3F0A3F032
:1096A000A3F0900013E0FD64106009ED64206004F5
:1096B000EDB4300E9000D0EDF09000CCE04401F01D
:1096C00080079000CCE04403F0900014E0FF6410A9
:1096D0006009EF64206004EFB4300E9000D1EFF029
:1096E0009000CCE04410F080079000CCE04430F0D3
:1096F000900015E0FF64106009EF64206004EFB48F
:10970000300E9000D2EFF09000CDE04401F08007E1
:109710009000CDE04403F0900016E0FF6410600973
:10972000EF64206004EFB4300E9000D3EFF09000AF
:10973000CDE04410F080079000CDE04430F0900080
:1097400017E0FF64106009EF64206004EFB4300E8E
:109750009000D4EFF09000CEE04401F0800790003C
:10976000CEE04403F0900018E0FF64106009EF645D
:10977000206004EFB4300E9000D5EFF09000CEE002
:109780004410F080079000CEE04430F0900019E0E3
:10979000FF64106009EF64206004EFB4300E9000A5
:1097A000D6EFF09000CFE04401F080079000CFE0CA
:1097B0004403F090001AE0FF64106009EF64206039
:1097C00004EFB4300E9000D7EFF09000CFE04410DB
:1097D000F080079000CFE04430F07E0174D02EF589
:1097E00082E43400F583E0FF9000D0E0B507010C7F
:1097F0000EBE08E8BC07209000D0E0FFB41005754D
:109800000E108010EFB42005750E208007EFB430E5
:1098100003750E30750801228F32E532B4012AE457
:10982000F5437FA47E21FD7C5812AC9C8E338F348F
:10983000E5334420F543853444754500754604E41A
:10984000F5477FA47E210298D1E532B40229E4F5E0
:10985000437FA47E61FD7C5812AC9C8E338F34E52F
:10986000334420F543853444754500754604E4F5DA
:10987000477FA47E61805AE532B40329E4F5437F33
:10988000A47EA1FD7C5812AC9C8E338F34E533440A
:1098900020F543853444754500754604E4F5477F5B
:1098A000A47EA1802CE532B4042BE4F5437FA47E92
:1098B000E1FD7C5812AC9C8E338F34E5334420F5A7
:1098C00043853444754500754604E4F5477FA47E1E
:1098D000E1FD029998E532B4052D7543017FA47E20
:1098E000217D007C5812AC9C8E338F34E5334420AC
:1098F000F5438534447545007546047547017FA4DA
:109900007E217D00029998E532B4062C7543017FD3
:10991000A47E617D007C5812AC9C8E338F34E5337D
:109920004420F54385344475450075460475470168
:109930007FA47E617D008060E532B4072C75430111
:109940007FA47EA17D007C5812AC9C8E338F34E5C1
:10995000334420F543853444754500754604754706
:10996000017FA47EA17D00802FE532B4082F7543CE
:10997000017FA47EE17D007C5812AC9C8E338F3435
:10998000E5334420F5438534447545007546047538
:1099900047017FA47EE17D007C5812A80022AB071E
:1099A00090002CE0F530A3E0F531A3E0F532A3E020
:1099B000F533E530540FFEC3940440027E03740C6B
:1099C0002EF582E43402F583E0FF900557E4F0A31E
:1099D000EFF0E53054F0C4540FFEC3940440027E0F
:1099E00003740C2EF582E43402F583E0FF900559F0
:1099F000E4F0A3EFF0E531540FFEC3940440027E7F
:109A000003740C2EF582E43402F583E0FF90055BCD
:109A1000E4F0A3EFF0E53154F0C4540FFEC3940416
:109A200040027E03740C2EF582E43402F583E0FFDD
:109A300090055DE4F0A3EFF0E532540FFEC394040B
:109A400040027E03740C2EF582E43402F583E0FFBD
:109A50009005D7E4F0A3EFF0E53254F0C4540FFEC4
:109A6000C3940440027E03740C2EF582E43402F5A4
:109A700083E0FF9005D9E4F0A3EFF0E533540FFE47
:109A8000C3940440027E03740C2EF582E43402F584
:109A900083E0FF9005DBE4F0A3EFF0E53354F0C47E
:109AA000540FFEC3940440027E03740C2EF582E42E
:109AB0003402F583E0FF9005DDE4F0A3EFF0EB6402
:109AC000017060900000E06530600A7F01127398B9
:109AD0007F02127398900001E06531600A7F0312E3
:109AE00073987F04127398900102E06532600A7FD8
:109AF000051273987F06127398900105E065336034
:109B00000A7F071273987F08127398900000E5305F
:109B1000F0900001E531F0900102E532F09001058E
:109B2000E533F022EF24F9B412004003029C7D904B
:109B30009B3D75F003A4C58325F0C58373029B7319
:109B4000029B7B029B86029B91029B99029BB00227
:109B50009BB8029BCF029BD7029BEE029BF6029C16
:109B60000C029C13029C1D029C27029C3D029C53EC
:109B7000029C69E4900089F0029C7DE490008AF0E8
:109B8000531DFD029C7DE490008BF0531DFB029C55
:109B90007DE490008CF0029C7D90008DE0FF900AA7
:109BA00000E0F4FEEF5E90008DF0531DEF029C7D0F
:109BB000E490008EF0029C7D90008FE0FF900A07F9
:109BC000E0F4FEEF5E90008FF0531DBF029C7DE439
:109BD000900090F0029C7D900091E0FF900A02E0DE
:109BE000F4FEEF5E900091F0531CFE029C7DE49029
:109BF0000092F0029C7D900093E0FF900A09E0F44F
:109C0000FEEF5E900093F0531CFB8071E490009493
:109C1000F0806AE4900095F0531BFE8060E49000B1
:109C200096F0531BFD8056900097E0FF9009FFE0EF
:109C3000F4FEEF5E900097F0531BFB80409000987D
:109C4000E0FF900A01E0F4FEEF5E900098F0531BF5
:109C5000F7802A900099E0FF900A06E0F4FEEF5E9C
:109C6000900099F0531BEF801490009AE0FF900A47
:109C700008E0F4FEEF5E90009AF0531BDFE51D450F
:109C80001C700FE51B451A700990010FE04401F0AC
:109C9000D28222EFB408004003029DDC909CA3F81E
:109CA000282873029CBB029CDD029CFF029D2102BE
:109CB0009D45029D6A029D8F029DB4E4F5437FC4D9
:109CC0007E35FD7C5812AC9C754310754404754577
:109CD00000754604E4F5477FC47E358064E4F543AF
:109CE0007FC47E75FD7C5812AC9C7543107544048E
:109CF000754500754604E4F5477FC47E758042E4EF
:109D0000F5437FC47EB5FD7C5812AC9C754310753D
:109D10004404754500754604E4F5477FC47EB5806C
:109D200020E4F5437FC47EF5FD7C5812AC9C75435E
:109D300010754404754500754604E4F5477FC47EFC
:109D4000F5FD029DD77543017FC47E357D007C58AB
:109D500012AC9C7543107544047545007546047536
:109D600047017FC47E357D00806D7543017FC47ED1
:109D7000757D007C5812AC9C754310754404754584
:109D8000007546047547017FC47E757D0080487567
:109D900043017FC47EB57D007C5812AC9C75431096
:109DA0007544047545007546047547017FC47EB54A
:109DB0007D0080237543017FC47EF57D007C5812B1
:109DC000AC9C754310754404754500754604754791
:109DD000017FC47EF57D007C5812A8007B247A00A8
:109DE0007D247C80E4FF02A4E585A72EE51124FEF6
:109DF000601824FE605124FE7003029E90240660C9
:109E000003029EDD12BFAE029EDDE50D64017022ED
:109E1000900011E0B4FF08129686E4900011F090D3
:109E20000002E0F46003029EDD751104C282F508B1
:109E30008005751104C28290010F7404F090011422
:109E4000E04401F0029EDDC29490000274FFF0E451
:109E5000F5A753C17FC2C5C2C4C2C1C2C0AF0E12F2
:109E6000B77E43C180852EA7751106C28290010F6F
:109E7000E511F0900114E04401F0900004E0FF12BD
:109E8000B06C9000827444F0A3F0A3F0A3F0804D76
:109E9000D3E50A9458E5099402403A90036FE0B480
:109EA000010512C4DC8029AF0B12AE3B050BE50B9C
:109EB000C39415401BE4F50B900A15E07012900A4C
:109EC0000CE004F0E0D394144006900A157401F0FD
:109ED000E4F509F50A050AE50A70020509E51164C9
:109EE0000660157F0D12C407EF25E0FFEE33FE126A
:109EF000C62C12C2B812BA8EE51164066006E511CE
:109F00006404703590065CE06401702D12A2B212F8
:109F1000B49E900004E0FF650C600312B06C9000EA
:109F200004E0F50CE511B4060B90065CE0FF12B4FA
:109F30001912A9D0E490065CF002C476E4FD900109
:109F40001AE0FEA3E0FBEEF52FEBF53090029FE068
:109F5000FEA3E0FBEEF531EBF532A3E0FEA3E0FB60
:109F6000EEF533EBF534A3E0FEA3E0FBEEF535EBC5
:109F7000F536A3E0FEA3E0FBEEF537EBF5389001F4
:109F80001CE0FEA3E0FBEEF539EBF53A9002A7E00A
:109F9000FEA3E0FBEEF53BEBF53CA3E0FEA3E0FB0C
:109FA000EEF53DEBF53EA3E0FEA3E0FBEEF53FEB67
:109FB000F540A3E0FEA3E0FBEBFF90012CE0FCC327
:109FC000E5309538E5376480F8E52F6480985002D5
:109FD0007D08D3E5309536E5356480F8E52F64805B
:109FE000984003430504C3E5309534E5336480F8B5
:109FF000E52F6480985003430502D3E5309532E5A0
:10A00000316480F8E52F6480984003430501C3E57F
:10A010003A9FE5399E5003430580D3E53A9540E5E4
:10A0200039953F4003430540C3E53A953EE53995F0
:10A030003D5003430520D3E53A953CE539953B4037
:10A0400003430510900115E0FFD394004005ED7027
:10A0500002AD079009FEEDF0900115F0ECF45D60A3
:10A060000CC28290010FE054FEF0431B40227F1F80
:10A0700012C6BD9008BEE0FB7554047DF87F201227
:10A08000BEBD9008BFE0FB7554047DF07F2012BE7A
:10A09000BD9008C0E0FB7554047D3A7F2012BEBD20
:10A0A0009008C1E0FB7554047D3B7F2012BEBD903B
:10A0B00008C2E0FB7554047DF17F2012BEBD9008FC
:10A0C000C3E0FB7554047D427F2012BEBD9008C4DE
:10A0D000E0FB7554047D437F2012BEBD9008C5E0AF
:10A0E000FB7554047DF47F2012BEBD9008C6E0FBD2
:10A0F0007554047D577F2012BEBD9008C7E0FB75E4
:10A1000054047D567F2012BEBD9008C8E0FB7554F4
:10A11000047DC57F2012BEBD9008C9E0FB755404C4
:10A120007DC67F2012BEBD9008CAE0FB7554047D39
:10A13000C77F2012BEBD9008CBE0FB7554047DD5CF
:10A140007F2012BEBD9008CCE0FB7554047DD67F05
:10A150002012BEBD9008CDE0FB7554047DD77F2052
:10A1600012BEBD9008CEE0FB7554047DE57F201241
:10A17000BEBD9008CFE0FB7554047DE67F2012BE83
:10A18000BD9008D0E0FB7554047DE77F2002BEBD82
:10A190007F1F12C6C990093EE0FB7554057DF87F0C
:10A1A0002012BEBD90093FE0FB7554057DF07F2075
:10A1B00012BEBD900940E0FB7554057D3A7F201228
:10A1C000BEBD900941E0FB7554057D3B7F2012BE6A
:10A1D000BD900942E0FB7554057DF17F2012BEBDA4
:10A1E000900943E0FB7554057D427F2012BEBD906F
:10A1F0000944E0FB7554057D437F2012BEBD9009E4
:10A2000045E0FB7554057DF47F2012BEBD900946E4
:10A21000E0FB7554057D577F2012BEBD900947E0D5
:10A22000FB7554057D567F2012BEBD900948E0FBAA
:10A230007554057DC57F2012BEBD900949E0FB75B0
:10A2400054057DC67F2012BEBD90094AE0FB7554BF
:10A25000057DC77F2012BEBD90094BE0FB755405FC
:10A260007DD57F2012BEBD90094CE0FB7554057D65
:10A27000D67F2012BEBD90094DE0FB7554057DD7F9
:10A280007F2012BEBD90094EE0FB7554057DE57F31
:10A290002012BEBD90094FE0FB7554057DE67F207E
:10A2A00012BEBD900950E0FB7554057DE77F20028A
:10A2B000BEBDE4FDFC900002E0FF6513700302A345
:10A2C000C4E4900082F0A3F0A3F0A3F0EF9000822A
:10A2D00030E006E04404F0800AE04401F043050168
:10A2E000430401900002E0FF90008230E10CE04462
:10A2F00040F05305FD5304FD800AE04410F043058F
:10A3000002430402EF90008330E20CE04404F05377
:10A3100005FB5304FB800AE04401F04305044304B9
:10A3200004900002E0FF90008330E30CE04440F032
:10A330005305F75304F7800AE04410F0430508433F
:10A340000408EF90008430E40CE04404F05305EF7F
:10A350005304EF800AE04401F043051043041090D9
:10A360000002E0FF90008430E50CE04440F053052B
:10A37000DF5304DF800AE04410F04305204304204B
:10A38000EF90008530E60CE04404F05305BF530421
:10A39000BF800AE04401F0430540430440900002BE
:10A3A000E090008530E70CE04440F053057F530413
:10A3B0007F800AE04410F0430580430480AF05AE7F
:10A3C0000412C4F4900002E0F513227B017A0779AD
:10A3D000637534007535807F007EF012BCEB7B0125
:10A3E0007A0779E37534007535807F807EF012BC82
:10A3F000EB7B017A0879637534007535807F007EC8
:10A40000F412BCEB7B017A0879E375340075358072
:10A410007F807EF412BCEB7B017A0979637534008E
:10A420007535807F007EF212BCEB784F7C047D0195
:10A430007B017A0979637E007F8012379E7B017AE7
:10A440000979637534007535807F807EF212BCEB2C
:10A45000784F7C057D017B017A0979637E007F80DE
:10A4600012379E7B017A0979637534007535807FD8
:10A47000007EF812BCEB78CF7C047D017B017A0969
:10A4800079637E007F8012379E7B017A097963753C
:10A4900034007535807F807EF812BCEB78CF7C0568
:10A4A0007D017B017A0979637E007F8012379E7B74
:10A4B000017A03791F7534007535807F007EEC12B8
:10A4C000BCEB7B017A03799F7534007535807F8002
:10A4D0007EEC12BCEBE490036FF0227B047A007DEB
:10A4E000047C807F018F368C378D388A398B3AE433
:10A4F000F543F544F545754604F5477F087ECCFDE8
:10A500007C5212A800E536700DF543754401F545FF
:10A5100075460402A5A0E536B4010F7543007544E5
:10A5200002754500754604E48076E536B4020F7581
:10A530004300754404754500754604E48062E536C1
:10A54000B4030F754300754408754500754604E46F
:10A55000804EE536B4040F75430075441075450010
:10A56000754604E4803AE536B4050F75430075443A
:10A5700020754500754604E48026E536B4060F755F
:10A580004300754440754500754604E48012E53685
:10A59000B40719754300754480754500754604E499
:10A5A000F5477F0C7ECCFD7C5212A8008537438591
:10A5B0003844754500754604E4F5477F107ECCFDB0
:10A5C0007C5212A800AF3612ABAC853943853A44B1
:10A5D000754500754604E4F5477F107ECCFD7C523E
:10A5E00012A800AF3602ABAC8F338C348D358A366F
:10A5F0008B37E533700DF543754401F54575460419
:10A6000002A68DE533B4010F75430075440275450C
:10A6100000754604E48076E533B4020F7543007597
:10A620004404754500754604E48062E533B4030FC5
:10A63000754300754408754500754604E4804EE591
:10A6400033B4040F75430075441075450075460416
:10A65000E4803AE533B4050F754300754420754531
:10A6600000754604E48026E533B4060F7543007593
:10A670004440754500754604E48012E533B407197B
:10A68000754300754480754500754604E4F5477FC1
:10A69000087ECCFD7C5212A800E4F543F544F54554
:10A6A000754604F5477F0C7ECCFD7C5212A80085D0
:10A6B0003443853544754500754604E4F5477F10FD
:10A6C0007ECCFD7C5212A800AF3312AD73853643A9
:10A6D000853744754500754604E4F5477F107ECC08
:10A6E000FD7C5212A800AF3302AD738B2E8A2F89E6
:10A6F00030E4F53C0530E5307002052F14F91237CF
:10A70000C4F5360530E530AA2F7002052F14F91272
:10A7100037C4F5370530E530AA2F7002052F14F93C
:10A720001237C4F5380530E530AA2F7002052F1412
:10A73000F91237C4F539E535F53AE534F53B9007BC
:10A7400062E0FF7554057BFF7D7F12BEBD900762FE
:10A75000E0FF755405AB397D8012BEBD900762E005
:10A76000FF755405AB387D8112BEBD900762E0FFD6
:10A77000755405AB377D8212BEBD900762E0FF7550
:10A780005405AB367D8312BEBD900762E0FF755461
:10A7900005AB3A7D8412BEBD900762E0FF7554059B
:10A7A000AB3B7D8512BEBD900762E0FF7554057B13
:10A7B000017D8612BEBDE4F53CE53CC3953A5022CE
:10A7C000900762E0FF7B057D9012BE7DAB310533C3
:10A7D000E533AA327002053214F9EF1237DD053C79
:10A7E00080D722900513E04480F543A3E0F544753B
:10A7F00045007546047547017D007F287E187C580A
:10A800008F428E418D408C3F8F4B78081238948F49
:10A810004AAF42AE41AD40AC3F78101238948F49F8
:10A82000AF42AE41AD40AC3F78181238948F48E546
:10A8300046F54FE545F55085444CE543F54DE54774
:10A840007005754EA08003754EA27554057BFF7D83
:10A850007FAF4E12BEBD755405AB4B7D80AF4E121F
:10A86000BEBD755405AB4A7D81AF4E12BEBD755459
:10A8700005AB497D82AF4E12BEBD755405AB487D18
:10A8800083AF4E12BEBD755405AB4F7D84AF4E12E3
:10A89000BEBD755405AB507D85AF4E12BEBD75541F
:10A8A000057B037D86AF4E12BEBD755405AB4C7D56
:10A8B00087AF4E12BEBD755405AB4D7D87AF4E12AE
:10A8C000BEBD755405E4FB7D87AF4E12BEBD755409
:10A8D00005E4FB7D87AF4E02BEBD8B2E8A2F8930EB
:10A8E0000530E5307002052F14F91237C4F536052E
:10A8F00030E530AA2F7002052F14F91237C4F5374E
:10A900000530E530AA2F7002052F14F91237C4F56F
:10A91000380530E530AA2F7002052F14F91237C41C
:10A92000F539E535F53AE534F53B900762E0FF751A
:10A9300054057BFF7D7F12BEBD900762E0FF75541A
:10A9400005AB397D8012BEBD900762E0FF755405EE
:10A95000AB387D8112BEBD900762E0FF755405AB38
:10A96000377D8212BEBD900762E0FF755405AB369D
:10A970007D8312BEBD900762E0FF755405AB3A7D42
:10A980008412BEBD900762E0FF755405AB3B7D8528
:10A9900012BEBD900762E0FF7554057B037D8612F1
:10A9A000BEBDE4F53CE53CC3953A5023900762E018
:10A9B000FFAB310533E533AA327002053214F912C8
:10A9C00037C4FB7554057D8712BEBD053C80D62279
:10A9D000E4FC900013E0FE900A0DE06E60080CEEBF
:10A9E00054F0900013F0900014E0FF900A0FE06F15
:10A9F00060097C02EF54F0900014F0900015E0FF25
:10AA0000900A11E06F60097C04EF54F0900015F09B
:10AA1000900016E0FF900A13E06F60097C08EF5485
:10AA2000F0900016F0900017E0FF900A14E06F60BD
:10AA3000097C10EF54F0900017F0900018E0FF90A0
:10AA40000A0EE06F60097C20EF54F0900018F0903F
:10AA50000019E0FF900A10E06F60097C40EF54F0AD
:10AA6000900019F090001AE0FF900A12E06F600960
:10AA70007C80EF54F090001AF0EC60031217929073
:10AA80000013E0900A0DF0900014E0900A0FF0908F
:10AA90000015E0900A11F0900016E0900A13F09073
:10AAA0000017E0900A14F0900018E0900A0EF09061
:10AAB0000019E0900A10F090001AE0900A12F022BB
:10AAC000E53B14B40800400302AB9D90AAD975F091
:10AAD00003A4C58325F0C5837302AAF102AB070264
:10AAE000AB1C02AB3102AB4602AB5B02AB7002ABFC
:10AAF0008590054FEEF0A3EFF0900557ECF0A3ED35
:10AB0000F090055F02AB98900551EEF0A3EFF09046
:10AB10000559ECF0A3EDF0900561807C900553EEB3
:10AB2000F0A3EFF090055BECF0A3EDF090056380EF
:10AB300067900555EEF0A3EFF090055DECF0A3ED06
:10AB4000F090056580529005CFEEF0A3EFF09005F0
:10AB5000D7ECF0A3EDF09005DF803D9005D1EEF04D
:10AB6000A3EFF09005D9ECF0A3EDF09005E180287B
:10AB70009005D3EEF0A3EFF09005DBECF0A3EDF041
:10AB80009005E380139005D5EEF0A3EFF09005DD7E
:10AB9000ECF0A3EDF09005E5EAF0A3EBF0AF3B128B
:10ABA0007BC4AF3B127398AF3B0275A3EFB40800B0
:10ABB000400302AC9090ABBCF828287302ABD402DF
:10ABC000ABEA02AC0002AC1602AC2D02AC4502AC02
:10ABD0005D02AC75E4F5437F147ECCFD7C5212AC73
:10ABE0009CE4F5437F8C7E218040E4F5437F147E16
:10ABF000CCFD7C5212AC9CE4F5437F8C7E61802AB4
:10AC0000E4F5437F147ECCFD7C5212AC9CE4F5430A
:10AC10007F8C7EA18014E4F5437F147ECCFD7C52B2
:10AC200012AC9CE4F5437F8C7EE1FD805EE4F5434D
:10AC30007F147ECCFD7C5212AC9C7543017F8C7ED0
:10AC4000217D008046E4F5437F147ECCFD7C5212CA
:10AC5000AC9C7543017F8C7E617D00802EE4F543C2
:10AC60007F147ECCFD7C5212AC9C7543017F8C7EA0
:10AC7000A17D008016E4F5437F147ECCFD7C52124A
:10AC8000AC9C7543017F8C7EE17D007C5812AC9CAE
:10AC9000227543017FCC7D037E447C508F428E41E0
:10ACA0008D408C3FE4F5498F4778081238948F46E1
:10ACB000AF42AE41AD40AC3F78101238948F45AFF3
:10ACC00042AE41AD40AC3F78181238948F44E54312
:10ACD00070057548A080037548A27554057BFF7DFB
:10ACE0007FAF4812BEBD755405AB477D80AF48129B
:10ACF000BEBD755405AB467D81AF4812BEBD7554CF
:10AD000005AB457D82AF4812BEBD755405AB447D91
:10AD100083AF4812BEBD7554057B047D84AF4812D5
:10AD2000BEBD755405E4FB7D85AF4812BEBD7554AC
:10AD3000057B017D86AF4812BEBD7B057D90AF4887
:10AD400012BE7D8F4A7B057D90AF4812BE7D8F4B32
:10AD50007B057D90AF4812BE7D8F4C7B057D90AF0B
:10AD60004812BE7D8F4CE54B7F00FEEF254AFFE485
:10AD70003EFE22EFB40800400302AE3A90AD83F8E5
:10AD800028287302AD9B02ADAD02ADBF02ADD1026A
:10AD9000ADE302ADF702AE0B02AE1FE4F5437F1444
:10ADA0007ECCFD7C5212AC9CE4F5438046E4F54336
:10ADB0007F147ECCFD7C5212AC9CE4F5438048E4C9
:10ADC000F5437F147ECCFD7C5212AC9CE4F54380AD
:10ADD0004AE4F5437F147ECCFD7C5212AC9CE4F532
:10ADE00043804CE4F5437F147ECCFD7C5212AC9C36
:10ADF0007543017F44803AE4F5437F147ECCFD7CAB
:10AE00005212AC9C7543017F488026E4F5437F14C1
:10AE10007ECCFD7C5212AC9C7543017F4C8012E4C9
:10AE2000F5437F147ECCFD7C5212AC9C7543017FB0
:10AE3000507EC07D037C5012AC9C22EFB4150040C4
:10AE40000302AF0290AE4BF828287302AE8A02AE1E
:10AE50009F02AEA302AEA702AEAB02AEAF02AEB38C
:10AE600002AEB702AEBB02AEC002AEC402AEC802B2
:10AE7000AECC02AED002AED402AED802AEDC02AE90
:10AE8000E102AEEB02AEF502AEFF12C2B812BA8E0C
:10AE90007F0D12C407EF25E0FFEE33FE02C62CE45F
:10AEA000FF801A7F0180167F0280127F03800E7F51
:10AEB00004800A7F0580067F0680027F07025C9976
:10AEC000E4FF801A7F0180167F0280127F03800ECC
:10AED0007F04800A7F0580067F0680027F0702517B
:10AEE00011900A15E0B4011A02C734900A15E0B4B3
:10AEF000011002B8F3900A15E0B4010602B89812E6
:10AF0000BB2D228F30E4F531F532E530B4101390CB
:10AF1000044FE0F543A3E0F544754500754604E4AD
:10AF20008032E530B4201590044F746AF0A3E4F049
:10AF300075436AF544F5457546048018E530B4302C
:10AF40003890044F744AF0A3E4F075434AF544F591
:10AF500045754604F5477F7C7EC8FD7C5212A800EB
:10AF6000754300754401754500754604E4F5477F57
:10AF7000847EC8FD7C5212A8007F647E0012C38CC0
:10AF8000E4F5437F847EC8FD7C5212AC9CEF4E708A
:10AF90001CF5437F807EC8FD7C5212AC9C90044F10
:10AFA000E0B50609A3E0B50704751E02220532E5E7
:10AFB0003270020531D394C8E531940040C2228F2B
:10AFC000307F0112C0F57F0212C0F57F0312C0F579
:10AFD0007F0412C0F57F011285A57F021285A57F2F
:10AFE000031285A57F041285A57F01120F5F7F02E2
:10AFF000120F5F7F03120F5F7F04120F5FE530B403
:10B0000010147F01123ED57F02123ED57F03123EFF
:10B01000D57F04123ED57F0512C0F57F0612C0F51C
:10B020007F0712C0F57F0812C0F57F051285A57F46
:10B03000061285A57F071285A57F081285A57F05C5
:10B04000120F5F7F06120F5F7F07120F5F7F0812DC
:10B050000F5FE530B410147F05123ED57F06123E17
:10B06000D57F07123ED57F08123ED522AD07ED9061
:10B07000078130E006E04401F08004E054FEF0ED8A
:10B0800090078130E106E04402F08004E054FDF0D6
:10B09000ED90078130E206E04404F08004E054FBC8
:10B0A000F0ED90078130E306E04408F08004E054BE
:10B0B000F7F0ED90080130E406E04401F08004E090
:10B0C00054FEF0ED90080130E506E04402F0800403
:10B0D000E054FDF0ED90080130E606E04404F08015
:10B0E00004E054FBF0ED90080130E706E04408F07E
:10B0F0008004E054F7F0900781E0FB7554047D4133
:10B100007F1C12BEBD900801E0FB7554057D417F98
:10B110001C02BEBD90002CE0F530A3E0F531A3E0A9
:10B12000F532A3E0F533E530540FFFC39409400234
:10B130007F097D0112B1BAE53054F0C4540FFFC34A
:10B14000940940027F097D0212B1BAE531540FFF24
:10B15000C3940940027F097D0312B1BAE53154F06E
:10B16000C4540FFFC3940940027F097D0412B1BA91
:10B17000E532540FFFC3940940027F097D0512B1E7
:10B18000BAE53254F0C4540FFFC3940940027F095A
:10B190007D0612B1BAE533540FFFC3940940027F14
:10B1A000097D0712B1BAE53354F0C4540FFFC394BC
:10B1B0000940027F097D0802B1BA8D34EFB40A005C
:10B1C000400302B25D90B1CCF828287302B1EA02C4
:10B1D000B1F702B20402B21102B21E02B22D02B2E3
:10B1E0003C02B24B02B24B02B24B85343BE4FBFA59
:10B1F0007D80FC7FF8806185343BE4FBFA7D80FC38
:10B200007FF0805485343BE4FBFA7D94FC7FEC8036
:10B210004785343BE4FBFA7D90FC7FE8803A853437
:10B220003B7BFC7AFF7D8C7C007FE8802B85343B68
:10B230007BF87AFF7D887C007FE8801C85343B7B2F
:10B24000F47AFF7D847C007FE8800D85343B7BF0C1
:10B250007AFF7D807C007FE87EFF12AAC0228F36B5
:10B260008D378B38E4900963F0A3F0A3F0A3F0AF1F
:10B270003812C6DFAF3812C56CAD38AF3612BDB963
:10B28000AF3812C096AD38AF3712BDB9AF3812C063
:10B2900096AD387F0112C60812C430AF3812C6DF2F
:10B2A000AF3812C56CE53604FFAD3812BDB9AF3802
:10B2B00012C096AF3812BC5A900963EFF0AF381243
:10B2C000C57BAF3812BC5AA3EFF0AF3812C36C90F5
:10B2D0000963E075F010A4FFA3E07C002FFEEC35BD
:10B2E000F0A3F0A3CEF0AF3812C3ABAF3812C6DF75
:10B2F000900965E0FEA3E0FF2275E38012003A7832
:10B300007FE4F6D8FD75815402B34602B83CE4935D
:10B31000A3F8E493A34003F68001F208DFF4802948
:10B32000E493A3F85407240CC8C333C4540F442037
:10B33000C8834004F456800146F6DFE4800B010226
:10B34000040810204080903A1DE47E019360BCA365
:10B35000FF543F30E509541FFEE493A360010ECF74
:10B3600054C025E060A840B8E493A3FAE493A3F89E
:10B37000E493A3C8C582C8CAC583CAF0A3C8C5825E
:10B38000C8CAC583CADFE9DEE780BEEF6420600378
:10B3900002B41390054F74FFF0A374F4F0A374FF8C
:10B3A000F0A374F4F0A374FFF0A374F4F0A374FF9B
:10B3B000F0A374F4F09005CF74FFF0A374F4F0A33D
:10B3C00074FFF0A374F4F0A374FFF0A374F4F0A37B
:10B3D00074FFF0A374F4F0900557E4F0A37470F0D8
:10B3E000A3E4F0A37470F0A3E4F0A37470F0A3E4FA
:10B3F000F0A37470F09005D7E4F0A37470F0A3E4A8
:10B40000F0A37470F0A3E4F0A37470F0A3E4F0A3CD
:10B410007470F012BEFB02BF378F2FE52F607E9055
:10B420000380E0B4010F12999EAF2F128B5FAF2FF4
:10B43000128D45800312B114AF2F12C1E390002486
:10B44000E09000E1F0900025E09000E2F09000260E
:10B45000E09000E3F0900027E09000E4F0900028F6
:10B46000E09000E5F0900029E09000E6F090002ADE
:10B47000E09000E7F090002BE09000E8F090002CC6
:10B48000E09000E9F090002DE09000EAF090002EAE
:10B49000E09000EBF090002FE09000ECF022E4FF51
:10B4A000FE90000CE0FD30E0030E80035306FEED3D
:10B4B00030E10543060280035306FDED30E205430B
:10B4C000060480035306FBED30E3054306088003C2
:10B4D0005306F7ED30E40543061080035306EFED05
:10B4E00030E50543062080035306DFED30E60543D3
:10B4F000064080035306BFED30E705430680800316
:10B5000053067FE5106D600312C28F90000CE0F5CA
:10B51000102290065DE064017062900652E024FB08
:10B52000601524FE604E2406704D900663E0900185
:10B530008BF01294BF8040E4FFFE900661E0FDC3F3
:10B54000EF9DEE9400502874632FF58274063EF54B
:10B5500083E0FD900660E02FFBE43EFA740C2BF5CF
:10B560008274013AF583EDF00FBF00010E80CB121B
:10B57000BE3D8003121EF1E490065DF0229006F2BB
:10B58000E064017060900703E0900762700474A0AB
:10B59000800274A2F0900704F09006F1E0701E752E
:10B5A00031017532067533E79006EFE0F534A3E01C
:10B5B000F5357B017A0679E312A8DA80239006F14B
:10B5C000E0B4011C7531017532067533EB9006EF5E
:10B5D000E0F534A3E0F5357B017A0679E312A6EBBA
:10B5E000E49006F2F0228F33E4FE7554047B107D64
:10B5F000607F1C12BEBD755404AB337D917F1C125D
:10B60000BEBD7554047B087D927F1C12BEBD7F01B8
:10B610007E0012C38C7B047D687F1C12B25E8E3468
:10B620008F357554047B047D927F1C12BEBD7F0153
:10B630007E0012C38C7B047D687F1C12B25EC3EF58
:10B640009535FFEE9534FE7C007D141237EF228F86
:10B6500033E4FE7554057B107D607F1C12BEBD7502
:10B660005405AB337D917F1C12BEBD7554057B081C
:10B670007D927F1C12BEBD7F017E0012C38C7B05B4
:10B680007D687F1C12B25E8E348F357554057B0445
:10B690007D927F1C12BEBD7F017E0012C38C7B0594
:10B6A0007D687F1C12B25EC3EF9535FFEE9534FEC8
:10B6B0007C007D141237EF22E490029DF0A3F0F598
:10B6C0002EF52FAF2FAE2E12C4C47E0090029EE046
:10B6D0002FF090029DE03EF0052FE52F7002052E21
:10B6E000C3E52E94E840DC90029DE0FFA3E09003C8
:10B6F00097CFF0A3EFF07B017A03791F75350075C2
:10B7000036807F007EEC12BCA37B017A03799F75A3
:10B7100035007536807F807EEC02BD77AB05A907CA
:10B72000E4F533F532F531F53085A72FF5A7FAEAC0
:10B73000C39B503789BBE4FFFE0FBF00010EEF64CF
:10B740000A4E70F5D2EC30EDFDAFBDAEBEE4FCFDAF
:10B75000E5332FF533E5323EF532ED3531F531EC99
:10B760003530F530C2ECC2ED0A80C4E4FAF9F8AF26
:10B7700033AE32AD31AC3012BD33852FA7228F2FBF
:10B7800012B94CE4F5437F207ECBFD7C5212AC9C79
:10B79000900708EEF0A3EFF0E4F5437F0412AC96B7
:10B7A000900706EEF0A3EFF0E51EB4011212B7DF2A
:10B7B0007F0112C2667F0112C28FAF2F12AF03E565
:10B7C0001EB40214AF2F12AFBFAF2F12B38BE4FF22
:10B7D00012C266E4FF12C28F900705E51EF022E454
:10B7E000F530F531F543F544F545754604F5477FE9
:10B7F000847EC7FD7C5212A8007543007544817594
:10B800004500754604E4F5477F087EC7FD7C52126B
:10B81000A800E4F5437F087EC7FD7C5212AC9CEF84
:10B8200064817003EE642060120531E53170020519
:10B8300030D394B8E530940B40D8222285A72CE46D
:10B84000F52D12000312C67D12C3CA12C2E012C641
:10B850006E20850C3085FD052DE52DD3941440F424
:10B8600012C6A51281C712C6B11283B612004612C3
:10B87000C49012C21112C4AA12B94C75A880129DAC
:10B88000E912C0C212C5CF208509E4F5A775EF12F1
:10B89000852CA712B51280E6E4FFFD12C1B5AD07F5
:10B8A000AF06900095E0FED394004005EF7002AF24
:10B8B00006900096E0FED394004005ED7002AD06C0
:10B8C000900096EDF0900095EFF0900064E0F45F4A
:10B8D000600CC28290010FE054FEF0431B01900007
:10B8E00065E0F45D600CC28290010FE054FEF0430D
:10B8F0001B0222E4FFFD12C187AD07AF0690008A4C
:10B90000E0FED394004005EF7002AF0690008BE09C
:10B91000FED394004005ED7002AD0690008AEFF072
:10B92000A3EDF0900059E0F45F600CC28290010F2B
:10B93000E054FEF0431B0290005AE0F45D600CC23C
:10B940008290010FE054FEF0431B0422E4F530F531
:10B9500031F532F533E4F5437FA07ECDFD7C521204
:10B96000AC9CEF641F4E7004751E01220531E53159
:10B9700070020530E4F532F5330533E53370020526
:10B98000326464453270F2C3E5319488E530941333
:10B9900040C3E4F530F531F51E900705F0227F0134
:10B9A0001285A57F021285A57F031285A57F04124B
:10B9B00085A57F01120F5F7F02120F5F7F03120FB9
:10B9C0005F7F04120F5F7F01123ED57F02123ED5CA
:10B9D0007F03123ED57F04123ED57F0112C0F57F52
:10B9E0000212C0F57F0312C0F57F0402C0F57F0587
:10B9F00012C0F57F0612C0F57F0712C0F57F08124E
:10BA0000C0F57F051285A57F061285A57F071285E3
:10BA1000A57F081285A57F05120F5F7F06120F5FB5
:10BA20007F07120F5F7F08120F5F7F05123ED57FE1
:10BA300006123ED57F07123ED57F08023ED5EF3075
:10BA4000E004D2968002C296EF30E104D2B18002C7
:10BA5000C2B1EF30E204D2818002C281EF30E30450
:10BA6000D2928002C292EF30E404D2948002C29457
:10BA7000EF30E504D2868002C286EF30E604D2952C
:10BA80008002C295EF30E703D2B422C2B422AC06E2
:10BA9000900323E0FDA3E0FBA3E0F5823395E0F5FE
:10BAA0003385823412BFE9AC06AD07ECFF3395E075
:10BAB00090011AEFF0AF05A3EFF090011AE0FBFF41
:10BAC0003395E0FEEF2428FFE43EFE7C007D021269
:10BAD00038019009EBEFF0D3EB648094C022E4FFCF
:10BAE000A296332FFFA2B1E43325E02FFFA281E419
:10BAF0003325E025E02FFFA292E43333333354F8AB
:10BB00002FFFA294E433C454F02FFFA286E433C481
:10BB10003354E02FFFA295E433C4333354C02FFFD6
:10BB2000A2B4E433C433333354802FFF227F111285
:10BB3000C4079003F0EEF0A3EFF07F1212C4079059
:10BB400003EEEEF0A3EFF07F0D12C407EF25E0FF48
:10BB5000EE339003EAF0A3EFF07F0F12C4079003D7
:10BB6000E8EEF0A3EFF012C2B89003F2EEF0A3EF0C
:10BB7000F012BADE9003F4EFF0227B017A04792F01
:10BB80007534007535107F007EEE12BCEB7B017AB8
:10BB900004793F7534007535107F107EEE12BCEBD2
:10BBA0007B017A02790C7534007535107F207EEEAA
:10BBB00012BCEB7B017A04791F7534007535107F58
:10BBC000407EEE02BCEB1262017B047D047F1C12FE
:10BBD000BE7D900770EFF07B047D1E7F1C12BE7D42
:10BBE000900778EFF07B047D297F1C12BE7D9007C3
:10BBF0007FEFF07B047D5A7F1C12BE7D900792EF91
:10BC0000F07B047D647F1C12BE7D900797EFF022CD
:10BC100012645C7B057D047F1C12BE7D9007F0EFF3
:10BC2000F07B057D1E7F1C12BE7D9007F8EFF07B38
:10BC3000057D297F1C12BE7D9007FFEFF07B057DFF
:10BC40005A7F1C12BE7D900812EFF07B057D647F49
:10BC50001C12BE7D900817EFF022AC07E4FBFF1228
:10BC6000C42812C43012C4307A0712C423BC04069C
:10BC7000A29092018007BC0504A2B29201A201E445
:10BC800033FFA802088002C333D8FC4203AD04E4AA
:10BC9000FF12C60812C4301AC3EA6480948050CAE6
:10BCA000AF03228E308F318B328A338934E4F537FB
:10BCB000F5387D5512C05CE4F537F538C3E53895A5
:10BCC00036E53795355023E5312538FFE5303537F2
:10BCD000FEAB320534E534AA337002053312BF736C
:10BCE0000538E53870D6053780D2228E2F8F308BFD
:10BCF000318A328933E4F536F537F536F537C3E561
:10BD0000379535E53695345029E5302537FFE52F51
:10BD10003536FE12C4C4AB310533E533AA327002A6
:10BD2000053214F9EF1237DD0537E53770D00536E7
:10BD300080CC22C2D5E830E70FB2D5E4C39BFBE448
:10BD40009AFAE499F9E498F8EC30E717B2D512BD05
:10BD50006912398BE4C39BFBE49AFAE499F9E498FD
:10BD6000F8800312398B30D50DE4C39FFFE49EFEAB
:10BD7000E49DFDE49CFC228E308F318B328A338926
:10BD800034E4F537F538F537F538C3E5389536E559
:10BD90003795355023E5312538FFE5303537FEAB93
:10BDA000320534E534AA337002053312BF73053807
:10BDB000E53870D6053780D222AC05AB07A903E47D
:10BDC000FF12C42A12C43012C4307A07EBA802084A
:10BDD0008002C313D8FC5401F9AD0460047F0180D4
:10BDE00002E4FF12C55312C426E4FF12C60812C4AF
:10BDF000301AC3EA6480948050D222AC06E0FDA3DE
:10BE0000E0FBA3E0F537A3E0F5388D358B36AB07C3
:10BE1000AA06E4F9F8AF35FCFDFE1238378F3C8EE8
:10BE20003B8D3A8C39A936A8011238948F3C8E3B51
:10BE30008D3A8C39E5382FFFE5373EFE229001869A
:10BE4000E0FFB49316A3E0B47811A3E0B4CC0CA344
:10BE5000E0B4AE079006507401F022EFB43A1890A7
:10BE60000187E0B41811A3E0B4B60CA3E0B46F07E7
:10BE70009006507402F022E4900650F0228F4D8D0F
:10BE80004E8B4F12C565AF4D12C08FAF4E12C08F93
:10BE9000AD4F7F0112C60812C43012C565E54D04CE
:10BEA000FF12C08FAF4F12BC5AA907AF4F12C36C1D
:10BEB000AF4F12C3ABAF4F12C6DFAF01228D528B13
:10BEC00053AC07AF5412C6DFAF5412C56CAF04AD0C
:10BED0005412BDB9AF5412C096AD54AF5212BDB991
:10BEE000AF5412C096AD54AF5312BDB9AF5412C087
:10BEF00096AF5412C3ABAF5402C6DF7F01128793D3
:10BF00007F021287937F031287937F041287937FA8
:10BF1000011289797F021289797F031289797F045E
:10BF20001289797F0112C3E97F0212C3E97F0312EC
:10BF3000C3E97F0402C3E97F0512C3E97F0612C388
:10BF4000E97F0712C3E97F0812C3E97F05128793CF
:10BF50007F061287937F071287937F081287937F4C
:10BF6000051289797F061289797F071289797F08FE
:10BF700002897914F91237C4FD7B55ACA7A2AF92A0
:10BF800001E4F5A7C2AF75FF8075EF028F828E8343
:10BF9000BB550975B7A575B7F1438F0175FF80755E
:10BFA000EF02EDF0538FFEA20192AF8CA7227FFF2C
:10BFB00012B06CD29490036CE0640170133084086A
:10BFC000750D01750E10800E750E10E4F50D8006CE
:10BFD000750E10E4F50D751102C28290010FE51186
:10BFE000F0900114E04401F0228D318B32AB07AAAE
:10BFF00006EA3395E0F9F8AF31E4FCFDFE1238377C
:10C000008F388E378D368C35A932A8011238948F2F
:10C01000388E378D368C35E534FEE42538FFEE3525
:10C0200037FE227B017A01790C7534017535007F6A
:10C03000007EE812BCEB7B017A02791D7534007535
:10C0400035807F007EEA12BCEB7B017A02799F7516
:10C0500034007535807F807EEA02BCEBACA7A2AFCE
:10C060009201C2AFE4F5A775FF8075EF028F828E53
:10C0700083BD550975B7A575B7F1438F0375FF806B
:10C0800075EF02E4F0538FFCA20192AF8CA722ADB2
:10C090004F12BDB9AF4FAC0712C423AF0412C61A7A
:10C0A000EF600CE4FF12C60812C430E4FF800CAD50
:10C0B00004E4FF12C60812C4307F0112C55312C433
:10C0C000302212B57D9003F6E0B4AA0AE4F09003A2
:10C0D000F5E0FF12BA3E900394E0B4AA0812C73EFE
:10C0E000E4900394F090070BE0B4AA0812C699E418
:10C0F00090070BF0228F31129818E53114FF7B0462
:10C100007A007D047C8012A4E5AF311268F8AF316B
:10C11000126B18AF31126D38AF31126F58AF311248
:10C120007178AF31024C9FE4FF12C6BD7B04E4FD81
:10C130007F2012BE7D900863EFF07B047D017F209D
:10C1400012BE7D900864EFF07B047D037F2012BE59
:10C150007D900865EFF022E4FF12C6C97B05E4FD7F
:10C160007F2012BE7D9008E3EFF07B057D017F20EC
:10C1700012BE7D9008E4EFF07B057D037F2012BEA8
:10C180007D9008E5EFF02274FFF543F54475450016
:10C19000754604E4F5477FE47E7EFD7C5212A800DC
:10C1A0007F017E0012C38CE4F5437FE47E7EFD7C3C
:10C1B0005212AC9C2274FFF543F544754500754658
:10C1C00004E4F5477F547E7FFD7C5212A8007F0176
:10C1D0007E0012C38CE4F5437F547E7FFD7C5212B7
:10C1E000AC9C22EF640170287F011225247F02128B
:10C1F00025247F031225247F041225247F05122580
:10C20000247F061225247F071225247F0812252467
:10C2100022E4FF12C6C97554057BAA7D027F201255
:10C22000BEBD7F0A7E0012C38C755405E4FB7D02FF
:10C230007F2012BEBD7F0A7E0002C38C900115E0F4
:10C24000FF9009FEE0F4FEEF5E900115F0531BBF76
:10C25000E51D451C700FE51B451A700990010FE0A4
:10C260004401F0D28222EF600F74FFF543F544756C
:10C270004500754604E4800AE4F543F544F5457548
:10C280004604F5477F747EC7FD7C5212A80022EF5A
:10C29000600F74FFF543F544754500754604E4806E
:10C2A0000AE4F543F544F545754604F5477F947E69
:10C2B000C7FD7C5212A800227D047F1412B71CC354
:10C2C000EF9519FFEE9518FE3395E0FDFCE4FB7A3F
:10C2D00001F9F8123837E47B13FAF9F812BD33226A
:10C2E00090FFD5E493FE90FFD4E493FDEEFCE412BE
:10C2F00036147BD77AA37930783F12350912364D40
:10C300008E188F1922EFC4335460900865F0E4FF53
:10C3100012C6BD900865E0FB7554047D037F2012B2
:10C32000BEBD7F0912C40722EFC43354609008E5F4
:10C33000F0E4FF12C6C99008E5E0FB7554057D03E3
:10C340007F2012BEBD7F1312C407227E007F547D62
:10C35000007B017A01790C1238CE90018CE09001BB
:10C360000CF0A37430F0E4A3F0A3F022AC0712C4E5
:10C370003012C54F12C4307F0112C42AE4FF12C626
:10C380000812C430E4FF12C55302C430AD07AC0636
:10C39000E4FBFAC3EB9DEC6480F8EA648098500AF1
:10C3A00012C64E0BBB00010A80E922AC07AD04E4C3
:10C3B000FF12C5537F0212C43FAD047F0112C608AD
:10C3C0000F12C43F12C54F02C4307F0A7E0012C351
:10C3D0008CC295D281C292D2B4D296D294C2867FB8
:10C3E0000A7E0012C38CD295228F30127BC4AF30EC
:10C3F000127398AF301275A3AF301277AEAF301210
:10C4000079B9AF300225247D0412B71CAD07AC0604
:10C41000E41236147B487AE179BA783F1235091272
:10C42000364D2212C4307F01AD0412C60812C4304A
:10C43000E4FFFE0FBF00010EEF64024E70F522AD67
:10C4400007E4FBFAEDFFC3EB9F7480F86A98500A8B
:10C4500012C4300BBB00010A80EA22E4900114F000
:10C46000E51D451C700FE51B451A700990010FE092
:10C470004401F0D28222AFA7900126E0FE6512604F
:10C480000CEE30E308E4F5A775EF128FA78E1222A9
:10C4900012C5A7E4FF122AC77F01122AC77F021222
:10C4A0002AC77F03122AC702A06E12C5BBE4FF127F
:10C4B0002FE87F01122FE87F02122FE87F03122F4F
:10C4C000E802A190ADA7A2AF9201C2AFE4F5A78F99
:10C4D000828E8393FFA20192AF8DA72212C2B8125F
:10C4E000BA8E7F0D12C407EF25E0FFEE33FE12C6B1
:10C4F0002C02BB2D8E438F44754500754604E4F530
:10C50000477F947EC7FD7C5202A80012C127E4FF3A
:10C5100012437B7F0112437B7F0212437B7F030226
:10C52000437B12C157E4FF12480D7F0112480D7F73
:10C530000212480D7F0302480DBD0408EF24FF924C
:10C5400091929022BD0507EF24FF92B392B222ADE3
:10C55000047F01BD0406EF24FF929022BD0505EF84
:10C5600024FF92B222AF4F12C6DFAF4FAD0712C405
:10C5700030E4FF12C5537F0202C43FAC07AD04E4B0
:10C58000FF12C5530F12C42AE4FF12C6080F02C5DA
:10C590005375B28075BB1475DF1F75BC1875B9046F
:10C5A00053E8F943E88522E4FF12C6BD900865E030
:10C5B000FB7554047D037F2002BEBDE4FF12C6C993
:10C5C0009008E5E0FB7554057D037F2002BEBDAFFA
:10C5D000A7E4F5A720870543C180800353C17F8F5F
:10C5E000A722C0E0C0D075D000C00712C5CFD007C9
:10C5F000D0D0D0E032AF885388AF758CF1EF544083
:10C60000FEEF54104E428822BD0406EF24FF9291A3
:10C6100022BD0505EF24FF92B322BF0404A290803F
:10C6200005BF0505A2B2E433FEAF062290031F1238
:10C63000BDFBAC0690011CECF0A3EFF022E4F5A9E1
:10C64000E5A930E7FB75A903E5A930E7FB22E4FF84
:10C65000FE000FBF00010EBE17F7BF70F422E59178
:10C6600054045391FB7593157592A04291227E005C
:10C670007F807D007B017A0679E30238CE12C023E9
:10C6800012A3CB12C34B1266B702BB7A75A6047510
:10C69000A72075F30775CC0C2212B99E12BEFB12AF
:10C6A000B9EE02BF377554047BAA7D027F1C02BE1F
:10C6B000BD7554057BAA7D027F1C02BEBDAB07750C
:10C6C00054047DFF7F2002BEBDAB077554057DFF7E
:10C6D0007F2002BEBD53C17F43C18053917F32ADE5
:10C6E000077F0112C53902C43FE4F5A77597DE75CF
:10C6F00097AD2275A46275F1FE75D4FF2275A574FD
:10C7000075F27775D5FF22E4F5A775E34075E1046E
:10C7100022759C1275F49F2275A71075C12022E422
:10C72000F5A775EF0622758E017589022275D7A0CF
:10C7300043C11C22129F3C028F2B75E6812202B658
:10C74000B8027DCB027FC9FFFFFFFFFFFFFFFFFFA6
:10C75000FFFFFFFFFFFFFFFFFFFFFFFFFFFFFFFFE9
:10C76000FFFFFFFFFFFFFFFFFFFFFFFFFFFFFFFFD9
:10C77000FFFFFFFFFFFFFFFFFFFFFFFFFFFFFFFFC9
:10C78000FFFFFFFFFFFFFFFFFFFFFFFFFFFFFFFFB9
:10E8000018000000000000000000000000000000F0
:10E8100000000000000000000000000000000000F8
:10E8200000000000000000000000000000000000E8
:10E8300000000000000000000000000000000000D8
:10E8400000000000000000000000000000000000C8
:10E8500000000000000100000000000000000000B7
:10E8600000000000000000000000000000000000A8
:10E870000000000000000000000000000000000098
:10E88000184C555853484152452D49435420202097
:10E89000203C18A000000000000000000000000064
:10E8A0000000000000000000000000000000000068
:10E8B0000000000000000000000000000000000058
:10E8C0000000000000000000000000000000000048
:10E8D0000000000000000000000000000000000038
:10E8E0000000000000000000000000000000000028
:10E8F0000000000000000000000000000000000018
:10E90000FFFFFFFFFFFFFFFFFFFFFFFFFFFFFFFF17
:10E91000FFFFFFFFFFFFFFFFFFFFFFFFFFFFFFFF07
:10E92000FFFFFFFFFFFFFFFFFFFFFFFFFFFFFFFFF7
:10E93000FFFFFFFFFFFFFFFFFFFFFFFFFFFFFFFFE7
:10E94000FFFFFFFFFFFFFFFFFFFFFFFFFFFFFFFFD7
:10E95000FFFFFFFFFFFFFFFFFFFFFFFFFFFFFFFFC7
:10E96000FFFFFFFFFFFFFFFFFFFFFFFFFFFFFFFFB7
:10E97000FFFFFFFFFFFFFFFFFFFFFFFFFFFFFFFFA7
:10E98000FFFFFFFFFFFFFFFFFFFFFFFFFFFFFFFF97
:10E99000FFFFFFFFFFFFFFFFFFFFFFFFFFFFFFFF87
:10E9A000FFFFFFFFFFFFFFFFFFFFFFFFFFFFFFFF77
:10E9B000FFFFFFFFFFFFFFFFFFFFFFFFFFFFFFFF67
:10E9C000FFFFFFFFFFFFFFFFFFFFFFFFFFFFFFFF57
:10E9D000FFFFFFFFFFFFFFFFFFFFFFFFFFFFFFFF47
:10E9E000FFFFFFFFFFFFFFFFFFFFFFFFFFFFFFFF37
:10E9F000FFFFFFFFFFFFFFFFFFFFFFFFFFFFFFFF27
:10EA000003350300000032230000426807D0040AE7
:10EA100088604600000000000000000000000000C8
:10EA200000000000000000000000000000000000E6
:10EA30000111FF0111FF00000000000000000000B4
:10EA400000000000000000000000000000000000C6
:10EA500000000000000000000000000000000000B6
:10EA600000000000000000000000000000000000A6
:10EA70000000000000000000000000000000001185
:10EA80008000000000000000000000000000000006
:10EA90000000000000000000000000000000000076
:10EAA0000000000000000000000000000000000066
:10EAB0000000000000000000000000000000000056
:10EAC0000000000000000000000000000000000046
:10EAD0000000000000000000000000000000000036
:10EAE0000000000000000000000000000000000026
:10EAF0000000000000000000000000000000000016
:10EB0000FFFFFFFFFFFFFFFFFFFFFFFFFFFFFFFF15
:10EB1000FFFFFFFFFFFFFFFFFFFFFFFFFFFFFFFF05
:10EB2000FFFFFFFFFFFFFFFFFFFFFFFFFFFFFFFFF5
:10EB3000FFFFFFFFFFFFFFFFFFFFFFFFFFFFFFFFE5
:10EB4000FFFFFFFFFFFFFFFFFFFFFFFFFFFFFFFFD5
:10EB5000FFFFFFFFFFFFFFFFFFFFFFFFFFFFFFFFC5
:10EB6000FFFFFFFFFFFFFFFFFFFFFFFFFFFFFFFFB5
:10EB7000FFFFFFFFFFFFFFFFFFFFFFFFFFFFFFFFA5
:10EB8000FFFFFFFFFFFFFFFFFFFFFFFFFFFFFFFF95
:10EB9000FFFFFFFFFFFFFFFFFFFFFFFFFFFFFFFF85
:10EBA000FFFFFFFFFFFFFFFFFFFFFFFFFFFFFFFF75
:10EBB000FFFFFFFFFFFFFFFFFFFFFFFFFFFFFFFF65
:10EBC000FFFFFFFFFFFFFFFFFFFFFFFFFFFFFFFF55
:10EBD000FFFFFFFFFFFFFFFFFFFFFFFFFFFFFFFF45
:10EBE000FFFFFFFFFFFFFFFFFFFFFFFFFFFFFFFF35
:10EBF000FFFFFFFFFFFFFFFFFFFFFFFFFFFFFFFF25
:10EC000001000000010000010000000100000001FF
:10EC100000000001000000010000000100000001F0
:10EC200000000001000000010000000100000001E0
:10EC300000000001000000008001000080010000D1
:10EC40008001000080010046000100010001000079
:10EC5000002222222233333333555555550000000C
:10EC600000000000000000000000000000000000A4
:10EC70000000000000000000000000000000000094
:10EC8000010000000100000100000001000000017F
:10EC90000000000100000001000000010000000170
:10ECA0000000000100000001000000010000000160
:10ECB0000000000100000000800100008001000051
:10ECC0008001000080010000000000000000000042
:10ECD0000000000000000000000000000000000034
:10ECE0000000000000000000000000000000000024
:10ECF0000000000000000000000000000000000014
:10ED0000FFFFFFFFFFFFFFFFFFFFFFFFFFFFFFFF13
:10ED1000FFFFFFFFFFFFFFFFFFFFFFFFFFFFFFFF03
:10ED2000FFFFFFFFFFFFFFFFFFFFFFFFFFFFFFFFF3
:10ED3000FFFFFFFFFFFFFFFFFFFFFFFFFFFFFFFFE3
:10ED4000FFFFFFFFFFFFFFFFFFFFFFFFFFFFFFFFD3
:10ED5000FFFFFFFFFFFFFFFFFFFFFFFFFFFFFFFFC3
:10ED6000FFFFFFFFFFFFFFFFFFFFFFFFFFFFFFFFB3
:10ED7000FFFFFFFFFFFFFFFFFFFFFFFFFFFFFFFFA3
:10ED8000FFFFFFFFFFFFFFFFFFFFFFFFFFFFFFFF93
:10ED9000FFFFFFFFFFFFFFFFFFFFFFFFFFFFFFFF83
:10EDA000FFFFFFFFFFFFFFFFFFFFFFFFFFFFFFFF73
:10EDB000FFFFFFFFFFFFFFFFFFFFFFFFFFFFFFFF63
:10EDC000FFFFFFFFFFFFFFFFFFFFFFFFFFFFFFFF53
:10EDD000FFFFFFFFFFFFFFFFFFFFFFFFFFFFFFFF43
:10EDE000FFFFFFFFFFFFFFFFFFFFFFFFFFFFFFFF33
:10EDF000FFFFFFFFFFFFFFFFFFFFFFFFFFFFFFFF23
:10EE00000C1316191C1F2326292C2F3236393C3F90
:10EE100000FCF8F4F0ECE8E4E4E4E40000000000B6
:10EE200050647C940000000000000000000000001E
:10EE30009378CCAE0000000000000000000000004D
:10EE400000FCF8F4F0ECE8E4E4E4E4000000000086
:10EE500000000000000000000000000000000000B2
:10EE600000000000000000000000000000000000A2
:10EE70000000000000000000000000000000000092
:10EE8000FFFFFFFFFFFFFFFFFFFFFFFFFFFFFFFF92
:10EE9000FFFFFFFFFFFFFFFFFFFFFFFFFFFFFFFF82
:10EEA000FFFFFFFFFFFFFFFFFFFFFFFFFFFFFFFF72
:10EEB000FFFFFFFFFFFFFFFFFFFFFFFFFFFFFFFF62
:10EEC000FFFFFFFFFFFFFFFFFFFFFFFFFFFFFFFF52
:10EED000FFFFFFFFFFFFFFFFFFFFFFFFFFFFFFFF42
:10EEE000FFFFFFFFFFFFFFFFFFFFFFFFFFFFFFFF32
:10EEF000FFFFFFFFFFFFFFFFFFFFFFFFFFFFFFFF22
:10EF0000FFFFFFFFFFFFFFFFFFFFFFFFFFFFFFFF11
:10EF1000FFFFFFFFFFFFFFFFFFFFFFFFFFFFFFFF01
:10EF2000FFFFFFFFFFFFFFFFFFFFFFFFFFFFFFFFF1
:10EF3000FFFFFFFFFFFFFFFFFFFFFFFFFFFFFFFFE1
:10EF4000FFFFFFFFFFFFFFFFFFFFFFFFFFFFFFFFD1
:10EF5000FFFFFFFFFFFFFFFFFFFFFFFFFFFFFFFFC1
:10EF6000FFFFFFFFFFFFFFFFFFFFFFFFFFFFFFFFB1
:10EF7000FFFFFFFFFFFFFFFFFFFFFFFFFFFFFFFFA1
:10EF8000FFFFFFFFFFFFFFFFFFFFFFFFFFFFFFFF91
:10EF9000FFFFFFFFFFFFFFFFFFFFFFFFFFFFFFFF81
:10EFA000FFFFFFFFFFFFFFFFFFFFFFFFFFFFFFFF71
:10EFB000FFFFFFFFFFFFFFFFFFFFFFFFFFFFFFFF61
:10EFC000FFFFFFFFFFFFFFFFFFFFFFFFFFFFFFFF51
:10EFD000FFFFFFFFFFFFFFFFFFFFFFFFFFFFFFFF41
:10EFE000FFFFFFFFFFFFFFFFFFFFFFFFFFFFFFFF31
:10EFF000FFFFFFFFFFFFFFFFFFFFFFFFFFFFFFFF21
:10F0000000000000000000000000000000040000FC
:10F01000FF00FF0070080000070707070FF0002837
:10F020002828286363636305050505282828280424
:10F0300000001000080000000000000000000000B8
:10F0400000000000000000000000000000000000C0
:10F0500000000000000000000000000000000000B0
:10F0600000000000000000000000000000000000A0
:10F070000000000000000000000000000000000090
:10F08000000000000000000000000000000400007C
:10F09000FF00FF0070080000070707070FF00028B7
:10F0A00028282863636363050505052828282804A4
:10F0B0000000100008000000000000000000000038
:10F0C0000000000000000000000000000000000040
:10F0D0000000000000000000000000000000000030
:10F0E0000000000000000000000000000000000020
:10F0F0000000000000000000000000000000000010
:10F10000FFFFFFFFFFFFFFFFFFFFFFFFFFFFFFFF0F
:10F11000FFFFFFFFFFFFFFFFFFFFFFFFFFFFFFFFFF
:10F12000FFFFFFFFFFFFFFFFFFFFFFFFFFFFFFFFEF
:10F13000FFFFFFFFFFFFFFFFFFFFFFFFFFFFFFFFDF
:10F14000FFFFFFFFFFFFFFFFFFFFFFFFFFFFFFFFCF
:10F15000FFFFFFFFFFFFFFFFFFFFFFFFFFFFFFFFBF
:10F16000FFFFFFFFFFFFFFFFFFFFFFFFFFFFFFFFAF
:10F17000FFFFFFFFFFFFFFFFFFFFFFFFFFFFFFFF9F
:10F18000FFFFFFFFFFFFFFFFFFFFFFFFFFFFFFFF8F
:10F19000FFFFFFFFFFFFFFFFFFFFFFFFFFFFFFFF7F
:10F1A000FFFFFFFFFFFFFFFFFFFFFFFFFFFFFFFF6F
:10F1B000FFFFFFFFFFFFFFFFFFFFFFFFFFFFFFFF5F
:10F1C000FFFFFFFFFFFFFFFFFFFFFFFFFFFFFFFF4F
:10F1D000FFFFFFFFFFFFFFFFFFFFFFFFFFFFFFFF3F
:10F1E000FFFFFFFFFFFFFFFFFFFFFFFFFFFFFFFF2F
:10F1F000FFFFFFFFFFFFFFFFFFFFFFFFFFFFFFFF1F
:10F200004A000001FFF4FFF4FFF4FFF400800080E7
:10F2100000800080000000000000000000000000EE
:10F22000000000000000000000000000380038006E
:10F2300038003800001000110010001100200020DC
:10F2400000200030800000048004000080000004E2
:10F250008004000001F101F101F101F10000000062
:10F26000000000000000000000000000000000009E
:10F27000000000000000000000000000000000008E
:10F28000FFECFFECFFECFFEC009400940094009482
:10F29000000000000000000000000000000000006E
:10F2A000000000000000000038003800380038007E
:10F2B00000010000000100000021002000210020CA
:10F2C000000000000000000000000000000000003E
:10F2D000000000000000000000000000000000002E
:10F2E000000000000000000000000000000000001E
:10F2F0000000000000000000000000000000FFFF10
:10F30000FFFFFFFFFFFFFFFFFFFFFFFFFFFFFFFF0D
:10F31000FFFFFFFFFFFFFFFFFFFFFFFFFFFFFFFFFD
:10F32000FFFFFFFFFFFFFFFFFFFFFFFFFFFFFFFFED
:10F33000FFFFFFFFFFFFFFFFFFFFFFFFFFFFFFFFDD
:10F34000FFFFFFFFFFFFFFFFFFFFFFFFFFFFFFFFCD
:10F35000FFFFFFFFFFFFFFFFFFFFFFFFFFFFFFFFBD
:10F36000FFFFFFFFFFFFFFFFFFFFFFFFFFFFFFFFAD
:10F37000FFFFFFFFFFFFFFFFFFFFFFFFFFFFFFFF9D
:10F38000FFFFFFFFFFFFFFFFFFFFFFFFFFFFFFFF8D
:10F39000FFFFFFFFFFFFFFFFFFFFFFFFFFFFFFFF7D
:10F3A000FFFFFFFFFFFFFFFFFFFFFFFFFFFFFFFF6D
:10F3B000FFFFFFFFFFFFFFFFFFFFFFFFFFFFFFFF5D
:10F3C000FFFFFFFFFFFFFFFFFFFFFFFFFFFFFFFF4D
:10F3D000FFFFFFFFFFFFFFFFFFFFFFFFFFFFFFFF3D
:10F3E000FFFFFFFFFFFFFFFFFFFFFFFFFFFFFFFF2D
:10F3F000FFFFFFFFFFFFFFFFFFFFFFFFFFFFFFFF1D
:10F40000000000640A0000000020380D00003500F4
:10F41000002500001D04E40000640A000000002034
:10F42000380D00003500002500001D04E4000064D4
:10F430000A0000000020380D000035000025000003
:10F440001D04E40000640A0000000020380D0000E4
:10F450003500002500001D04E40000003F00003FCF
:10F460000000F3000003000C03000C03000C00007C
:10F47000000000000000000000000000000000008C
:10F48000000000640A0000000020380D0000350074
:10F49000002500001D04E40000640A0000000020B4
:10F4A000380D00003500002500001D04E400006454
:10F4B0000A0000000020380D000035000025000083
:10F4C0001D04E40000640A0000000020380D000064
:10F4D0003500002500001D04E40000003F00003F4F
:10F4E0000000F3000003000C03000C03000C0000FC
:10F4F000000000000000000000000000000000000C
:10F50000FFFFFFFFFFFFFFFFFFFFFFFFFFFFFFFF0B
:10F51000FFFFFFFFFFFFFFFFFFFFFFFFFFFFFFFFFB
:10F52000FFFFFFFFFFFFFFFFFFFFFFFFFFFFFFFFEB
:10F800001A000001FFF4FFF4FFF4FFF40080008011
:10F8100000800080000000000000000000000000E8
:10F820000000000000000000000000003800380068
:10F8300038003800001000110010001100300030B6
:10F8400000200030800000048004000080000004DC
:10F850008004000001F101F101F101F1000000005C
:10F860000000000000000000000000000000000098
:10F870000000000000000000000000000000000088
:10F88000FFECFFECFFECFFEC00940094009400947C
:10F890000000000000000000000000000000000068
:10F8A0000000000000000000380038003800380078
:10F8B00000010000000100000021002000210020C4
:10F8C0000000000000000000000000000000000038
:10F8D0000000000000000000000000000000000028
:10F8E0000000000000000000000000000000000018
:10F8F0000000000000000000000000000000FFFF0A
:10F90000FFFFFFFFFFFFFFFFFFFFFFFFFFFFFFFF07
:10F91000FFFFFFFFFFFFFFFFFFFFFFFFFFFFFFFFF7
:10F92000FFFFFFFFFFFFFFFFFFFFFFFFFFFFFFFFE7
:10F93000FFFFFFFFFFFFFFFFFFFFFFFFFFFFFFFFD7
:10F94000FFFFFFFFFFFFFFFFFFFFFFFFFFFFFFFFC7
:10F95000FFFFFFFFFFFFFFFFFFFFFFFFFFFFFFFFB7
:10F96000FFFFFFFFFFFFFFFFFFFFFFFFFFFFFFFFA7
:10F97000FFFFFFFFFFFFFFFFFFFFFFFFFFFFFFFF97
:10F98000FFFFFFFFFFFFFFFFFFFFFFFFFFFFFFFF87
:10F99000FFFFFFFFFFFFFFFFFFFFFFFFFFFFFFFF77
:10F9A000FFFFFFFFFFFFFFFFFFFFFFFFFFFFFFFF67
:10F9B000FFFFFFFFFFFFFFFFFFFFFFFFFFFFFFFF57
:10F9C000FFFFFFFFFFFFFFFFFFFFFFFFFFFFFFFF47
:10F9D000FFFFFFFFFFFFFFFFFFFFFFFFFFFFFFFF37
:10F9E000FFFFFFFFFFFFFFFFFFFFFFFFFFFFFFFF27
:10F9F000FFFFFFFFFFFFFFFFFFFFFFFFFFFFFFFF17
:00000001FF
