:10000000024B56E4FD1257017C0712570CD2B31273
:10001000570C12570CA2B29201A201E433FFA804BC
:10002000088002C333D8FC4205C2B312570C1CC36C
:10003000EC6480948050D3AF0522FF021E3C90FFF9
:10004000D5E493FE90FFD4E493FDEEFCE412168712
:100050007BD77AA37930783F12157C1216C08E17A1
:100060008F182202561B75D18022FF02563A025881
:10007000C2FFFF0258A4900183E01218E500DB00E4
:10008000010D01013202015703017610018980023E
:10009000198102A58803318903C0900436910404B4
:1000A000920455A0049AA104DFA20524A30569A423
:1000B00005AEA505F3A60638A7067DA806C2A907C2
:1000C00007AA074CAB0791AC07D6AD081BAE085F7B
:1000D000AF08A3B008BFD000000905900644E0C3F4
:1000E000940150030209057B017A017904753700F8
:1000F0007538807F007EC81250677B017A01798451
:100100007535007536807F807EC802513B9006446D
:10011000E0C3940150030209057B017A01798475DB
:1001200037007538807F007ECA12506778A97C023C
:100130008048900644E0C3940150030209057B0106
:100140007A0179847537007538807F007ECC125033
:1001500067782B7C038023900644E0C3940150030E
:100160000209057B017A0179847537007538807F33
:10017000007ECE0208BC78007C007D017B017A0104
:1001800079847E007F80021811900644E0D39401A8
:100190005003020905900652E0D394F040529002B9
:1001A00003E0640160030209059001FCE090084D42
:1001B000F09001FDE090084EF0900202E0FF900800
:1001C00053F0BF011290084DE0FD7F181255DB90EF
:1001D000084EEFF0020391900853E0600302039190
:1001E00090084DE0FDA3E0FB7F181254B10203918B
:1001F0007B017A0179847537007538787F007ED06D
:1002000012506778D57C077D017B017A0179847E65
:10021000007F78121811022973900644E0D39401EC
:100220005003020905900652E0D394F0404E90022C
:1002300003E0640160030209059001FCE09008CD31
:10024000F09001FDE09008CEF0900202E0FF9008EF
:10025000D3F0BF01119008CDE0FD7F181255DB905F
:1002600008CEEFF080139008D3E0700D9008CDE039
:10027000FDA3E0FB7F181254B10203917B017A01C8
:1002800079847537007538787F007EEA1250677878
:10029000557C087D017B017A0179847E007F78128C
:1002A0001811022B6B900644E0D39401500302090D
:1002B00005900652E0D394F0404E900203E06401B2
:1002C00060030209059001FCE090074DF09001FDEC
:1002D000E090074EF0900202E0FF900753F0BF015C
:1002E0001190074DE0FD7F161255DB90074EEFF0A1
:1002F0008013900753E0700D90074DE0FDA3E0FBE5
:100300007F161254B10203917B017A01798475370B
:10031000007538787F007ED212506778D57C067DD4
:10032000017B017A0179847E007F78121811023AEC
:1003300065900644E0D394015003020905900652EB
:10034000E0D394F04051900203E06401600302099D
:10035000059001FCE09007CDF09001FDE09007CE04
:10036000F0900202E0FF9007D3F0BF01119007CD9B
:10037000E0FD7F161255DB9007CEEFF0801390075B
:10038000D3E0700D9007CDE0FDA3E0FB7F16125483
:10039000B1E4900203F0227B017A01798475370081
:1003A0007538787F007EEC12506778557C077D01A8
:1003B0007B017A0179847E007F78121811023B9DBF
:1003C000900644E0D39401500302090578FC7C01B7
:1003D0007D017B017A0479A37E007F081218117BCE
:1003E000017A0179847537007538807F007ED412D8
:1003F00050677B017A04792B7535007536807F0054
:100400007ED4802F900644E0D39401500302090566
:100410007B017A0179847537007538807F007ED63C
:100420001250677B017A0479B37535007536807F89
:10043000007ED60250AF900644E0D39401500302F0
:1004400009057B017A0179847537007538807F0052
:100450007ED80208BC900644E0D394015003020900
:100460000578447C057D017B017A0179847E007FDB
:10047000801218117B017A0579C4753500753680B4
:100480007F807EDA1250AF7B017A0579447537019F
:100490007538007F007EDA0208BC900644E0D394F1
:1004A0000150030209057B017A0579447535007511
:1004B00036807F007EDA1250AF78C47C057D017BE8
:1004C000017A0179847E007F801218117B017A0500
:1004D00079447537017538007F007EDA0208BC90D8
:1004E0000644E0D39401500302090578447C057D5D
:1004F000017B017A0179847E007F801218117B01D3
:100500007A0579C47535007536807F807EDC12509F
:10051000AF7B017A0579447537017538007F007E1D
:10052000DC0208BC900644E0D394015003020905A4
:100530007B017A0579447535007536807F007EDC55
:100540001250AF78C47C057D017B017A0179847EED
:10055000007F801218117B017A0579447537017587
:1005600038007F007EDC0208BC900644E0D3940192
:10057000500302090578447C057D017B017A0179ED
:10058000847E007F801218117B017A0579C475354D
:10059000007536807F807EDE1250AF7B017A057950
:1005A000447537017538007F007EDE0208BC900676
:1005B00044E0D3940150030209057B017A05794494
:1005C0007535007536807F007EDE1250AF78C47CB2
:1005D000057D017B017A0179847E007F80121811EC
:1005E0007B017A0579447537017538007F007EDE1E
:1005F0000208BC900644E0D3940150030209057838
:10060000447C057D017B017A0179847E007F801224
:1006100018117B017A0579C47535007536807F80A5
:100620007EE01250AF7B017A057944753701753849
:10063000007F007EE00208BC900644E0D3940150A5
:10064000030209057B017A0579447535007536800A
:100650007F007EE01250AF78C47C057D017B017A7B
:100660000179847E007F801218117B017A0579441C
:100670007537017538007F007EE00208BC900644A3
:10068000E0D39401500302090578447C057D017B89
:10069000017A0179847E007F801218117B017A052E
:1006A00079C47535007536807F807EE21250AF7B4D
:1006B000017A0579447537017538007F007EE202C2
:1006C00008BC900644E0D3940150030209057B0165
:1006D0007A0579447535007536807F007EE21250C8
:1006E000AF78C47C057D017B017A0179847E007F2F
:1006F000801218117B017A0579447537017538002D
:100700007F007EE20208BC900644E0D394015003CF
:1007100002090578447C057D017B017A0179847E9C
:10072000007F801218117B017A0579C47535007538
:1007300036807F807EE41250AF7B017A0579447564
:1007400037017538007F007EE40208BC900644E063
:10075000D3940150030209057B017A05794475356C
:10076000007536807F007EE41250AF78C47C057D32
:10077000017B017A0179847E007F801218117B0150
:100780007A0579447537017538007F007EE40208E8
:10079000BC900644E0D39401500302090578447CE0
:1007A000057D017B017A0179847E007F801218111A
:1007B0007B017A0579C47535007536807F807EE6C9
:1007C0001250AF7B017A0579447537017538007F87
:1007D000007EE60208BC900644E0D3940150030278
:1007E00009057B017A0579447535007536807F00EF
:1007F0007EE61250AF78C47C057D017B017A0179D9
:10080000847E007F801218117B017A057944753748
:10081000017538007F007EE60208BC900644E0D3F4
:100820009401500302090578447C057D017B017A1F
:100830000179847E007F801218117B017A0579C4CA
:100840007535007536807F807EE81250AF7B017A67
:100850000579447537017538007F007EE8805D902A
:100860000644E0D3940150030209057B017A05791F
:10087000447535007536807F007EE81250AF78C42D
:100880007C057D017B017A0179847E007F801218CE
:10089000117B017A0579447537017538007F007E38
:1008A000E88019900644E0D3940140597B017A0115
:1008B00079847537007538807F007EF60250679026
:1008C0000644E0D39401403D900652E06424703524
:1008D000900655E06411702DA3E064227027A3E018
:1008E00064337021A3E0B4551CA3E0B46617A3E001
:1008F000B455127B557D017F007EF81252BE780000
:1009000076A575EF1222E4F530F531F532F533EFC7
:10091000B408004003020F5F90091FF828287302F3
:1009200009370209FB020AC0020B85020C4A020DBC
:100930000F020DD4020E99E4FFFE124E049008E05F
:10094000EEF0A3EFF0D39400EE948040129000AA52
:10095000E0FEA3E0FDEDFF9008E0EEF0A3EFF090E5
:1009600007F8E075F043A485F030F531E530C313A6
:10097000FCE53113FD9008E0E0FEA3E0FF2DF53328
:10098000EE3CF53290043212517F9008E0EEF0A375
:10099000EFF0900442E0FDA3E0FBA3E0F538A3E014
:1009A000F539AF33AE3212518C8E328F3390000254
:1009B000E020E005E51130E02AE49000AAF0A3F081
:1009C00090009AF0A3F090008CE04401F090008E2B
:1009D000E04401F0900090E04401F0900092E04487
:1009E00001F0229008E0E0FCA3E0FDEC9000AAF00A
:1009F000A3EDF0E53290009A020F5A7F107E0012AC
:100A00004E049008E2EEF0A3EFF0D39400EE948051
:100A100040129000ACE0FEA3E0FDEDFF9008E2EE96
:100A2000F0A3EFF09007F9E075F043A485F030F5FE
:100A300031E530C313FCE53113FD9008E2E0FEA37D
:100A4000E0FF2DF533EE3CF53290043612517F90E5
:100A500008E2EEF0A3EFF0900446E0FDA3E0FBA374
:100A6000E0F538A3E0F539AF33AE3212518C8E3257
:100A70008F33900002E020E105E51130E12AE49097
:100A800000ACF0A3F090009CF0A3F090008CE04448
:100A900002F090008EE04402F0900090E04402F0FA
:100AA000900092E04402F0229008E2E0FCA3E0FD16
:100AB000EC9000ACF0A3EDF0E53290009C020F5AF0
:100AC0007F207E00124E049008E4EEF0A3EFF0D3F6
:100AD0009400EE948040129000AEE0FEA3E0FDEDA5
:100AE000FF9008E4EEF0A3EFF09007FAE075F04312
:100AF000A485F030F531E530C313FCE53113FD90EA
:100B000008E4E0FEA3E0FF2DF533EE3CF53290045F
:100B10003A12517F9008E4EEF0A3EFF090044AE01F
:100B2000FDA3E0FBA3E0F538A3E0F539AF33AE3227
:100B300012518C8E328F33900002E020E205E511D5
:100B400030E22AE49000AEF0A3F090009EF0A3F013
:100B500090008CE04404F090008EE04404F090009B
:100B600090E04404F0900092E04404F0229008E405
:100B7000E0FCA3E0FDEC9000AEF0A3EDF0E53290D8
:100B8000009E020F5A7F307E00124E049008E6EE5F
:100B9000F0A3EFF0D39400EE948040129000B0E008
:100BA000FEA3E0FDEDFF9008E6EEF0A3EFF0900766
:100BB000FBE075F043A485F030F531E530C313FC5C
:100BC000E53113FD9008E6E0FEA3E0FF2DF533EEDE
:100BD0003CF53290043E12517F9008E6EEF0A3EF10
:100BE000F090044EE0FDA3E0FBA3E0F538A3E0F5B0
:100BF00039AF33AE3212518C8E328F33900002E017
:100C000020E305E51130E32AE49000B0F0A3F09072
:100C100000A0F0A3F090008CE04408F090008EE07B
:100C20004408F0900090E04408F0900092E04408FE
:100C3000F0229008E6E0FCA3E0FDEC9000B0F0A309
:100C4000EDF0E5329000A0020F5A7F307E00124E88
:100C5000669008E8EEF0A3EFF0D39400EE948040A5
:100C6000129000B2E0FEA3E0FDEDFF9008E8EEF088
:100C7000A3EFF090087BE075F043A485F030F531E8
:100C8000E530C313FCE53113FD9008E8E0FEA3E076
:100C9000FF2DF533EE3CF5329004BA12517F9008E7
:100CA000E8EEF0A3EFF09004CAE0FDA3E0FBA3E0C0
:100CB000F538A3E0F539AF33AE3212518C8E328F56
:100CC00033900002E020E405E51130E42AE49000CE
:100CD000B2F0A3F09000A2F0A3F090008CE04410DA
:100CE000F090008EE04410F0900090E04410F090FE
:100CF0000092E04410F0229008E8E0FCA3E0FDEC54
:100D00009000B2F0A3EDF0E5329000A2020F5A7FFE
:100D1000207E00124E669008EAEEF0A3EFF0D39426
:100D200000EE948040129000B4E0FEA3E0FDEDFFE1
:100D30009008EAEEF0A3EFF090087AE075F043A493
:100D400085F030F531E530C313FCE53113FD900833
:100D5000EAE0FEA3E0FF2DF533EE3CF5329004BE51
:100D600012517F9008EAEEF0A3EFF09004CEE0FD80
:100D7000A3E0FBA3E0F538A3E0F539AF33AE3212C0
:100D8000518C8E328F33900002E020E505E5113062
:100D9000E52AE49000B4F0A3F09000A4F0A3F09052
:100DA000008CE04420F090008EE04420F090009011
:100DB000E04420F0900092E04420F0229008EAE025
:100DC000FCA3E0FDEC9000B4F0A3EDF0E532900060
:100DD000A4020F5A7F107E00124E669008ECEEF0CF
:100DE000A3EFF0D39400EE948040129000B6E0FEA2
:100DF000A3E0FDEDFF9008ECEEF0A3EFF090087992
:100E0000E075F043A485F030F531E530C313FCE51F
:100E10003113FD9008ECE0FEA3E0FF2DF533EE3C2E
:100E2000F5329004C212517F9008ECEEF0A3EFF07F
:100E30009004D2E0FDA3E0FBA3E0F538A3E0F53990
:100E4000AF33AE3212518C8E328F33900002E020DD
:100E5000E605E51130E62AE49000B6F0A3F0900034
:100E6000A6F0A3F090008CE04440F090008EE044A7
:100E700040F0900090E04440F0900092E04440F058
:100E8000229008ECE0FCA3E0FDEC9000B6F0A3EDAE
:100E9000F0E5329000A6020F5AE4FFFE124E669073
:100EA00008EEEEF0A3EFF0D39400EE9480401290A1
:100EB00000B8E0FEA3E0FDEDFF9008EEEEF0A3EF3A
:100EC000F0900878E075F043A485F030F531E53016
:100ED000C313FCE53113FD9008EEE0FEA3E0FF2D07
:100EE000F533EE3CF5329004C612517F9008EEEED9
:100EF000F0A3EFF09004D6E0FDA3E0FBA3E0F5380B
:100F0000A3E0F539AF33AE3212518C8E328F33906D
:100F10000002E020E705E51130E72AE49000B8F090
:100F2000A3F09000A8F0A3F090008CE04480F09033
:100F3000008EE04480F0900090E04480F0900092B9
:100F4000E04480F0229008EEE0FCA3E0FDEC90008D
:100F5000B8F0A3EDF0E5329000A8F0A3E533F0225D
:100F600041090A0141090B00490646534C424636E5
:100F7000345133326081065400000000000000004C
:100F80000000000000000000000000000000000061
:100F90000000000000000000000000000000000051
:100FA0000000000000000000000000000000000041
:100FB0000000000000000000000000000000000031
:100FC0000000000000000000000000000000000021
:100FD0000000000000000000000000000000000011
:100FE0000000000000000000000000000000000001
:100FF00000000000000000000041065200410543CF
:1010000000410651004106440041064F00610005C1
:10101000440000000000000000000000000000008C
:1010200000000000000000000000000000000000C0
:1010300000000000000000000000000000000000B0
:1010400000000000000000000000000000000000A0
:101050000000000000000000000000000000000090
:101060000000000000000000000000000000000080
:101070000000000000000000000000000000000070
:101080000000000000000000000000000000000060
:101090000000000000000000000000000000000050
:1010A0000000000000000000000000000000000040
:1010B0000000000000000000000000000000000030
:1010C0000000000000000000000000000000000020
:1010D0000000000000000000000000000000000010
:1010E0000000000000000000000000000000000000
:1010F00000000000000000000000000000000000F0
:1011000000000000000000000000000000000000DF
:1011100000410100004101010041010200410103C1
:10112000004102A4004102A5004102A6004102A71D
:10113000004104AB004104AC004104AD004104B2E5
:101140000061000104000000000000000000000039
:10115000000000000000000000000000000000008F
:10116000000000000000000000000000000000007F
:10117000000000000000000000000000000000006F
:10118000000000000000000000000000000000005F
:10119000000000000000000000000000000000004F
:1011A000000000000000000000000000000000003F
:1011B000000000000000000000000000000000002F
:1011C000000000000000000000000000000000001F
:1011D000000000000000000000000000000000000F
:1011E00000000000000000000000000000000000FF
:1011F00000000000000000000000000000000000EF
:1012000000000000000000000000000000000000DE
:1012100000000000000000000000000000000000CE
:1012200000000000000000000000000000000000BE
:1012300000000000000000000000000000000000AE
:101240000000000000608002A90000000000000013
:10125000000000000000000000000000000000008E
:10126000000000000000000000000000000000007E
:10127000000000000000000000000000000000006E
:10128000000000000000000000000000000000005E
:10129000000000000000000000000000000000004E
:1012A000000000000000000000000000000000003E
:1012B000000000000000000000000000000000002E
:1012C0000000000000000000006080032B00000010
:1012D000000000000000000000000000000000000E
:1012E00000000000000000000000000000000000FE
:1012F00000000000000000000000000000000000EE
:1013000000000000000000000000000000000000DD
:1013100000000000000000000000000000000000CD
:1013200000000000000000000000000000000000BD
:1013300000000000000000000000000000000000AD
:1013400000000000000000000000000000608003BA
:10135000AB000000000000000000000000000000E2
:10136000000000000000000000000000000000007D
:10137000000000000000000000000000000000006D
:10138000000000000000000000000000000000005D
:10139000000000000000000000000000000000004D
:1013A000000000000000000000000000000000003D
:1013B000000000000000000000000000000000002D
:1013C000000000000000000000000000000000001D
:1013D000006080000000000000000000000000002D
:1013E00000000000000000000000000000000000FD
:1013F00000000000000000000000000000000000ED
:1014000000000000000000000000000000000000DC
:1014100000000000000000000000000000000000CC
:1014200000000000000000000000000000000000BC
:1014300000000000000000000000000000000000AC
:10144000000000000000000000000000000000009C
:10145000000000000060800080000000000000002C
:10146000000000000000000000000000000000007C
:10147000000000000000000000000000000000006C
:10148000000000000000000000000000000000005C
:10149000000000000000000000000000000000004C
:1014A000000000000000000000000000000000003C
:1014B000000000000000000000000000000000002C
:1014C000000000000000000000000000000000001C
:1014D000000000000000000000420329000041025B
:1014E000A802410907004109080141090901410811
:1014F000F7004108F0004108F2004108F5004108FA
:10150000FA00410901004108F4004108F6004109D0
:101510000000410902004108F1004108F3004108C0
:10152000F9004108FD004208FE00004208FB0000EF
:101530004108D5014108D6014108D7014108D80129
:101540004108D9014108DA014108DB014108DC0109
:101550004108DD004108DE004108DF000112FF0103
:101560000C00011000010E00010F00010D00010828
:101570000002090000010B0001110000EC4D601198
:10158000E8497017ED33EC3304600DE4FCFFFEFD19
:1015900022E933E8330470F802172C1216F75804C6
:1015A0006009E4CC248150062850090217362840EF
:1015B00003021733C0E0EB4A7044B98006D0E0FB69
:1015C000021722EF4E701CBD8008EBFFEAFEE9FD1A
:1015D00080EBE98DF0A4FEE5F0021665E9CDF9EAAD
:1015E000FEEBFFEF89F0A4FCE5F0CE89F0A42EFF1E
:1015F000E435F0CD89F0A42DFEE435F08067EF4EA0
:101600007005BD80D780C3EF8BF0A4ACF0EE8BF0FB
:10161000A42CFCE435F0F8EF8AF0A42CE5F038FCBB
:10162000E433CB8DF0A42CFCE5F03BF8EE8AF0A47B
:101630002CFCE5F038F8E433CF89F0A42CFCE5F07D
:1016400038CF3400CE89F0A42FFFE5F03EFEE4331E
:10165000C98DF0A42EFEE5F039CD8AF0A42FFFE568
:10166000F03EFEE43DFD33D0E0FB50070BBB000F26
:10167000021736EC2CFCEF33FFEE33FEED33FD02A8
:10168000170E75F020800E75F010800575F0087D3E
:10169000007E007F003392D530D5031218C3EC339F
:1016A0004010EF33FFEE33FEED33FDEC33FCD5F0AD
:1016B000ED22E5F0247EA2D513CC92E7CDCEFF2219
:1016C000EDD2E7CD33EC3392D524814006E4FFFE22
:1016D000FDFC22FCE4CFCECDCC24E0501174FF8081
:1016E000EDC3CC13CCCD13CDCE13CECF13CF04701E
:1016F000F030D5DE0218C3E9D2E7C933E833F892F7
:10170000D5EDD2E7CD33EC33FC5002B2D522EC302C
:10171000E7100FBF000C0EBE00080DBD00040BEB60
:101720006014A2D5EB13FCED92E7FD2274FFFCFDE3
:10173000FEFF22E480F8A2D574FF13FC7D80E480D4
:10174000EFE709F608DFFA8046E709F208DFFA80DA
:101750003E88828C83E709F0A3DFFA8032E309F642
:1017600008DFFA8078E309F208DFFA807088828C5B
:1017700083E309F0A3DFFA806489828A83E0A3F619
:1017800008DFFA805889828A83E0A3F208DFFA80B2
:101790004C80D280FA80C680D4806980F280338009
:1017A0001080A680EA809A80A880DA80E280CA80D1
:1017B0003389828A83ECFAE493A3C8C582C8CCC576
:1017C00083CCF0A3C8C582C8CCC583CCDFE9DEE7F3
:1017D000800D89828A83E493A3F608DFF9ECFAA9E5
:1017E000F0EDFB2289828A83ECFAE0A3C8C582C8A7
:1017F000CCC583CCF0A3C8C582C8CCC583CCDFEAF6
:10180000DEE880DB89828A83E493A3F208DFF98033
:10181000CC88F0EF60010E4E60C388F0ED2402B476
:10182000040050B9F582EB2402B4040050AF232326
:1018300045822390179173BB010689828A83E02237
:101840005002E722BBFE02E32289828A83E49322CC
:10185000BB010689828A83F0225002F722BBFE0177
:10186000F322EF8DF0A4A8F0CF8CF0A428CE8DF059
:10187000A42EFE22E88FF0A4CC8BF0A42CFCE98EE1
:10188000F0A42CFC8AF0EDA42CFCEA8EF0A4CDA8E8
:10189000F08BF0A42DCC3825F0FDE98FF0A42CCDF1
:1018A00035F0FCEB8EF0A4FEA9F0EB8FF0A4CFC5D1
:1018B000F02ECD39FEE43CFCEAA42DCE35F0FDE45B
:1018C0003CFC22C3E49FFFE49EFEE49DFDE49CFCFF
:1018D00022E86010ECA2E713FCED13FDEE13FEEF1F
:1018E00013FFD8F022D083D082F8E49370127401F1
:1018F00093700DA3A393F8740193F5828883E47326
:101900007402936860EFA3A3A380DFEF4E6012EF31
:1019100060010EEDBB010B89828A83F0A3DFFCDE40
:10192000FA2289F05007F709DFFCA9F022BBFEFC80
:10193000F309DFFCA9F02275F008758200EF2FFF94
:10194000EE33FECD33CDCC33CCC58233C5829BED97
:101950009AEC99E58298400CF582EE9BFEED9AFD9B
:10196000EC99FC0FD5F0D6E4CEFBE4CDFAE4CCF94B
:10197000A88222B800C1B90059BA002DEC8BF084BE
:10198000CFCECDFCE5F0CBF97818EF2FFFEE33FE8C
:10199000ED33FDEC33FCEB33FB10D703994004EB44
:1019A00099FB0FD8E5E4F9FA227818EF2FFFEE3310
:1019B000FEED33FDEC33FCC933C910D7059BE99A22
:1019C0004007EC9BFCE99AF90FD8E0E4C9FAE4CCB3
:1019D000FB2275F010EF2FFFEE33FEED33FDCC331D
:1019E000CCC833C810D7079BEC9AE899400AED9B06
:1019F000FDEC9AFCE899F80FD5F0DAE4CDFBE4CCE5
:101A0000FAE4C8F922EFB408004003021E05901A58
:101A100015F8282873021A2D021AA7021B23021B8D
:101A20009F021C1B021C97021D13021D8D7F0312B7
:101A3000559790045212517DAC06AD07D3ED94003A
:101A4000EC94F04003E4FCFDD3900463E09D90042B
:101A500062E09C401990015FE09006F030E006E003
:101A600054F7F08004E04408F0E49008D5F0D390F7
:101A70000465E09D900464E09C500D9006F0E054F5
:101A8000F7F09008D57401F09008D5E0B401069005
:101A900000BA021DEFE49000BAF0A304F0900093A6
:101AA000E04401F0021E057F02125597AC06900437
:101AB0005612517FAC06AD07D3ED9400EC94F04084
:101AC00003E4FCFDD3900467E09D900466E09C4035
:101AD00019900160E09006F030E106E054FBF080E0
:101AE00004E04404F0E49008D6F0D3900469E09D4B
:101AF000900468E09C500D9006F0E054FBF09008D4
:101B0000D67401F09008D6E0B401069000BC021D26
:101B1000EFE49000BCF0A304F0900093E04402F0E6
:101B2000021E057F01125597AC0690045A12517F90
:101B3000AC06AD07D3ED9400EC94F04003E4FCFD5B
:101B4000D390046BE09D90046AE09C401990015F83
:101B5000E09006F030E206E054FDF08004E044023C
:101B6000F0E49008D7F0D390046DE09D90046CE011
:101B70009C500D9006F0E054FDF09008D77401F0F1
:101B80009008D7E0B401069000BE021DEFE490007B
:101B9000BEF0A304F0900093E04404F0021E05E4BC
:101BA000FF125597AC0690045E12517FAC06AD074C
:101BB000D3ED9400EC94F04003E4FCFDD390046F6B
:101BC000E09D90046EE09C401990015FE09006F06B
:101BD00030E306E054FEF08004E04401F0E49008B5
:101BE000D8F0D3900471E09D900470E09C500D906B
:101BF00006F0E054FEF09008D87401F09008D8E0A8
:101C0000B401069000C0021DEFE49000C0F0A304F0
:101C1000F0900093E04408F0021E05E4FF1255B96D
:101C2000AC069004DA12517FAC06AD07D3ED9400F8
:101C3000EC94F04003E4FCFDD39004EBE09D9004B1
:101C4000EAE09C401990015FE090077030E406E004
:101C500054FEF08004E04401F0E49008D9F0D39001
:101C600004EDE09D9004ECE09C500D900770E05472
:101C7000FEF09008D97401F09008D9E0B401069004
:101C800000C2021DEFE49000C2F0A304F0900093A4
:101C9000E04410F0021E057F011255B9AC06900415
:101CA000DE12517FAC06AD07D3ED9400EC94F0400A
:101CB00003E4FCFDD39004EFE09D9004EEE09C4033
:101CC0001990015FE090077030E506E054FDF08068
:101CD00004E04402F0E49008DAF0D39004F1E09DCF
:101CE0009004F0E09C500D900770E054FDF09008D7
:101CF000DA7401F09008DAE0B401069000C4021D25
:101D0000EFE49000C4F0A304F0900093E04420F0CE
:101D1000021E057F021255B9AC069004E212517FF3
:101D2000AC06AD07D3ED9400EC94F04003E4FCFD69
:101D3000D39004F3E09D9004F2E09C401990015F81
:101D4000E090077030E606E054FBF08004E04404C5
:101D5000F0E49008DBF0D39004F5E09D9004F4E00B
:101D60009C500D900770E054FBF09008DB7401F07C
:101D70009008DBE0B401059000C68073E49000C6D3
:101D8000F0A304F0900093E04440F080787F0312C9
:101D900055B9AC069004E612517FAC06AD07D3ED01
:101DA0009400EC94F04003E4FCFD9004F8E0FAA306
:101DB000E0FBD39DEA9C401990015FE090077030F2
:101DC000E706E054F7F08004E04408F0E49008DC13
:101DD000F0D3EB9DEA9C500D900770E054F7F09023
:101DE00008DC7401F09008DCE0B4010A9000C8EC53
:101DF000F0A3EDF0800FE49000C8F0A304F0900091
:101E000093E04480F09006F0E0FB9008DEE06B6029
:101E1000077D407F161254B1900770E0FB9008DFF9
:101E2000E06B60077D407F161254DB9006F0E09077
:101E300008DEF0900770E09008DFF022C0E0C0F00C
:101E4000C083C082C0D075D000C000C001C002C035
:101E500003C004C005C006C007752100752200300C
:101E6000C2030221BEE5C054F07003021F7224F0C9
:101E70007003021F9524D070030220E224F0700347
:101E80000221B2243060030221B6C2C5900543E5A9
:101E9000C2F0E0FF54FE64A06003021F6DEF20E07B
:101EA00003021F68900652E0FFC394805041EF94F4
:101EB000754011EF947E500C74042FF582E43401C8
:101EC000F583E4F0900652E0FF2404F582E4340147
:101ED000F583E0F5C2EFB40806125574021F68904E
:101EE0000652E064096003021F681254488079902A
:101EF0000183E0FFB4010D900652E02429F582E44D
:101F00003402805FEFB4020D900652E024ABF582FC
:101F1000E43402804E900183E0FFB4100D9006522D
:101F2000E02480F582E434FF8039EFB4112A900672
:101F300052E0FF2400F582E43400F583E0F5C2EFBF
:101F4000C394874023900652E0FFD394985019EF32
:101F50002480FF1233428010900652E02404F58260
:101F6000E43401F583E0F5C2D2C10221C4C2C1024A
:101F700021C4900651E02454F582E43406F583E54B
:101F8000C2F0900654E0900652F0900651E004F042
:101F9000D2C10221C4C2C4900651E0FFC3940250D2
:101FA000030220DA90064F7401F0EF14900653F00C
:101FB000900652E0647F6003022062900651E06464
:101FC000026003022062900655E0900183F07014D5
:101FD0007B017A017984F5357536807F807EC81261
:101FE00050AF806E900183E0B4011578847C017D50
:101FF000017B017A0279A97E007F8012181180523C
:10200000900183E0B4021578847C017D017B017A24
:1020100003792B7E007F801218118036900183E0B7
:10202000B4101578847C017D017B017A0079007EF3
:10203000007F80121811801A900183E0B4111B7880
:10204000847C017D017B017A0079807E007F801293
:102050001811900645E4F00220DA9006457401F06C
:102060008078900652E0FFC3947A400EEFD3947DBF
:1020700050089006457405F08060900653E0FF908C
:102080000652E0FD2FFFE433FED3EF9400EE6480B0
:1020900094814005EDF404A3F0900653E0FF7E0028
:1020A000900652E02404F9E43401A801FC7D017B90
:1020B000017A067955121811900183E0B410157851
:1020C000007C007D017B017A0179847E007F801293
:1020D000181180069006457407F0900651E4F0024E
:1020E00021C420C1030221C4900652E004F0E0FFA5
:1020F000C394805042EF94754011EF947E500C745D
:10210000042FF582E43401F583E4F0900652E0FFF9
:102110002404F582E43401F583E0F5C2EFB4080647
:102120001255740221C4900652E064096003022132
:10213000C41254480221C4900183E0FFB4010D9001
:102140000652E02429F582E43402805FEFB4020DE8
:10215000900652E024ABF582E43402804E90018375
:10216000E0FFB4100D900652E02480F582E434FFC5
:102170008039EFB4112A900652E0FF2400F582E482
:102180003400F583E0F5C2EFC394874037900652E0
:10219000E0FFD39498502DEF2480FF123342802427
:1021A000900652E02404F582E43401F583E0F5C2A0
:1021B0008012C2C4800E53C17F43C1808000C2C55B
:1021C000C2C4C2C1C2C0D007D006D005D004D0035B
:1021D000D002D001D000D0D0D082D083D0F0D0E0D7
:1021E00032900183E01218E5223480225281226F5E
:1021F00088228C8922A99022E79122C892233FA0AD
:102200002352A12365A22378A3238BA4239EA52375
:10221000B1A623C4A723D7A823EAA923FDAA241083
:10222000AB2422AC2434AD2446AE2458AF246AB08B
:10223000000024A8900644E0D3940150030224A88F
:102240001224A978847C017D017B017A0779D5026B
:1022500022DD900644E0D3940150030224A8122703
:102260000E78847C017D017B017A087955806E901F
:102270000644E0D3940150030224A81234C57884A4
:102280007C017D017B017A0679D58051900644E07E
:10229000D3940150030224A812363A78847C017D3D
:1022A000017B017A0779558034900644E0D394018C
:1022B000403274029004A5F0A3F078847C017D0183
:1022C0007B017A04792B8015900644E0D394014079
:1022D0001378847C017D017B017A0479B37E007FD1
:1022E00080021811022499900644E0D39401404CD6
:1022F00078847C017D017B017A0579337E007F1033
:1023000012181178947C017D017B017A0279847E18
:10231000007F1012181178A47C017D017B017A02E4
:1023200079947E007F101218117B017A01798475EF
:1023300035007536807F007ED80224960224997B72
:10234000017A0179847535007536807F007EDA0266
:1023500024967B017A0179847535007536807F80FB
:102360007EDA0224967B017A017984753500753610
:10237000807F007EDC0224967B017A0179847535AA
:10238000007536807F807EDC0224967B017A01799D
:10239000847535007536807F007EDE0224967B01D1
:1023A0007A0179847535007536807F807EDE02245F
:1023B000967B017A0179847535007536807F007EC1
:1023C000E00224967B017A017984753500753680A8
:1023D0007F807EE00224967B017A01798475350046
:1023E0007536807F007EE20224967B017A01798433
:1023F0007535007536807F807EE20224967B017AF7
:102400000179847535007536807F007EE40224965C
:102410007B017A0179847535007536807F807EE492
:1024200080747B017A0179847535007536807F0070
:102430007EE680627B017A0179847535007536808D
:102440007F807EE680507B017A0179847535007546
:1024500036807F007EE8803E7B017A017984753585
:10246000007536807F807EE8802C900644E0D3940F
:1024700001402678847C017D017B017A0679467EC5
:10248000007F091218117B017A01798D753500756D
:1024900036777F097EF60250AF7E007F807DFF7B1E
:1024A000017A01798412190B22E4FD7F181255DBA1
:1024B0009007D5EFF07D017F181255DB9007D6EF1E
:1024C000F07D027F181255DB9007E0EFF07D037F6F
:1024D000181255DB9007E1EFF07D047F181255DBF1
:1024E0009007E2EFF07D057F181255DB9007E3EFD0
:1024F000F07D107F181255DB9007E4EFF07D117F1F
:10250000181255DB9007E5EFF07D167F181255DBAA
:102510009007E6EFF07D177F181255DB9007D7EF95
:10252000F07D187F181255DB9007D8EFF07D197FEA
:10253000181255DB9007E7EFF07D1A7F181255DB74
:102540009007D9EFF07D1B7F181255DB9007E8EF5D
:10255000F07D1C7F181255DB9007E9EFF07D1D7FA1
:10256000181255DB9007EAEFF07D217F181255DB3A
:102570009007EBEFF07D227F181255DB9007ECEF10
:10258000F07D237F181255DB9007EDEFF07D257F5E
:10259000181255DB9007EEEFF07D267F181255DB01
:1025A0009007EFEFF07D277F181255DB9007F0EFD3
:1025B000F07D287F181255DB9007F1EFF07D407F0A
:1025C000181255DB9007F2EFF07D417F181255DBB2
:1025D0009007F3EFF07D427F181255DB9007F4EF80
:1025E000F07D437F181255DB9007F5EFF07D447FB7
:1025F000181255DB9007F6EFF07D457F181255DB7A
:102600009007F7EFF07D467F181255DB9007F8EF43
:10261000F07D477F181255DB9007F9EFF07D487F7A
:10262000181255DB9007FAEFF07D497F181255DB41
:102630009007FBEFF07D4A7F181255DB9007FCEF07
:10264000F07D4B7F181255DB9007FDEFF07D4C7F3E
:10265000181255DB9007FEEFF07D4D7F181255DB09
:102660009007FFEFF07D4E7F181255DB900800EFCA
:10267000F07D4F7F181255DB900801EFF07D507F01
:10268000181255DB900802EFF07D517F181255DBD0
:10269000900803EFF07D527F181255DB900804EF8D
:1026A000F07D5E7F181255DB900805EFF07D5F7FAF
:1026B000181255DB900806EFF07D607F181255DB8D
:1026C000900807EFF07D627F181255DB900808EF45
:1026D000F07D687F181255DB9007DAEFF07D697F97
:1026E000181255DB9007DBEFF07D907F181255DB59
:1026F000900809EFF07D927F181255DB90080AEFE1
:10270000F07D827F181255DB90080BEFF022E4FD7C
:102710007F181255FB900855EFF07D017F18125578
:10272000FB900856EFF07D027F181255FB90086071
:10273000EFF07D037F181255FB900861EFF07D04E8
:102740007F181255FB900862EFF07D057F18125537
:10275000FB900863EFF07D107F181255FB90086422
:10276000EFF07D117F181255FB900865EFF07D1694
:102770007F181255FB900866EFF07D177F181255F1
:10278000FB900857EFF07D187F181255FB90085802
:10279000EFF07D197F181255FB900867EFF07D1A56
:1027A0007F181255FB900859EFF07D1B7F181255CA
:1027B000FB900868EFF07D1C7F181255FB900869AC
:1027C000EFF07D1D7F181255FB90086AEFF07D2118
:1027D0007F181255FB90086BEFF07D227F18125581
:1027E000FB90086CEFF07D237F181255FB90086D6D
:1027F000EFF07D257F181255FB90086EEFF07D26D7
:102800007F181255FB90086FEFF07D277F18125547
:10281000FB900870EFF07D287F181255FB9008712F
:10282000EFF07D407F181255FB900872EFF07D416C
:102830007F181255FB900873EFF07D427F181255F8
:10284000FB900874EFF07D437F181255FB900875DC
:10285000EFF07D447F181255FB900876EFF07D4530
:102860007F181255FB900877EFF07D467F181255C0
:10287000FB900878EFF07D477F181255FB900879A0
:10288000EFF07D487F181255FB90087AEFF07D49F4
:102890007F181255FB90087BEFF07D4A7F18125588
:1028A000FB90087CEFF07D4B7F181255FB90087D64
:1028B000EFF07D4C7F181255FB90087EEFF07D4DB8
:1028C0007F181255FB90087FEFF07D4E7F18125550
:1028D000FB900880EFF07D4F7F181255FB90088128
:1028E000EFF07D507F181255FB900882EFF07D517C
:1028F0007F181255FB900883EFF07D527F18125518
:10290000FB900884EFF07D5E7F181255FB900885E0
:10291000EFF07D5F7F181255FB900886EFF07D6029
:102920007F181255FB900887EFF07D627F181255D3
:10293000FB900888EFF07D687F181255FB90085ACD
:10294000EFF07D697F181255FB90085BEFF07D90EA
:102950007F181255FB900889EFF07D927F18125571
:10296000FB90088AEFF07D827F181255FB90088B50
:10297000EFF0229007E0E0FB7D027F181254B19047
:1029800007E1E0FB7D037F181254B19007E2E0FB02
:102990007D047F181254B19007E3E0FB7D057F189A
:1029A0001254B19007E4E0FB7D107F181254B190EF
:1029B00007E5E0FB7D117F181254B19007E6E0FBBC
:1029C0007D167F181254B19007E7E0FB7D197F1840
:1029D0001254B19007E8E0FB7D1B7F181254B190B0
:1029E00007E9E0FB7D1C7F181254B19007EAE0FB79
:1029F0007D1D7F181254B19007EBE0FB7D217F18FD
:102A00001254B19007ECE0FB7D227F181254B19074
:102A100007EDE0FB7D237F181254B19007EEE0FB39
:102A20007D257F181254B19007EFE0FB7D267F18BB
:102A30001254B19007F0E0FB7D277F181254B1903B
:102A400007F1E0FB7D287F181254B19007F2E0FBFC
:102A50007D407F181254B19007FCE0FB7D4A7F183F
:102A60001254B19007FDE0FB7D4B7F181254B190DA
:102A700007FEE0FB7D4C7F181254B19007FFE0FB8E
:102A80007D4D7F181254B1900800E0FB7D4E7F18F9
:102A90001254B1900801E0FB7D4F7F181254B190A1
:102AA0000802E0FB7D507F181254B1900803E0FB50
:102AB0007D517F181254B1900804E0FB7D527F18BD
:102AC0001254B1900805E0FB7D5E7F181254B1905E
:102AD0000806E0FB7D5F7F181254B1900807E0FB09
:102AE0007D607F181254B1900808E0FB7D627F186A
:102AF0001254B19007F4E0FB7D427F181254B1905C
:102B000007F5E0FB7D437F181254B19007F6E0FB18
:102B10007D447F181254B19007F7E0FB7D457F1884
:102B20001254B19007F8E0FB7D467F181254B19023
:102B300007F9E0FB7D477F181254B19007FAE0FBDC
:102B40007D487F181254B19007FBE0FB7D497F1848
:102B50001254B19007F3E0FB7D417F181254B190FD
:102B6000080BE0FB7D827F180254B1900860E0FB07
:102B70007D027F181254DB900861E0FB7D037F1813
:102B80001254DB900862E0FB7D047F181254DB9046
:102B90000863E0FB7D057F181254DB900864E0FBBE
:102BA0007D107F181254DB900865E0FB7D117F18C3
:102BB0001254DB900866E0FB7D167F181254DB9000
:102BC0000867E0FB7D197F181254DB900868E0FB72
:102BD0007D1B7F181254DB900869E0FB7D1C7F1879
:102BE0001254DB90086AE0FB7D1D7F181254DB90C5
:102BF000086BE0FB7D217F181254DB90086CE0FB32
:102C00007D227F181254DB90086DE0FB7D237F1836
:102C10001254DB90086EE0FB7D257F181254DB9088
:102C2000086FE0FB7D267F181254DB900870E0FBF4
:102C30007D277F181254DB900871E0FB7D287F18F8
:102C40001254DB900872E0FB7D407F181254DB9039
:102C5000087CE0FB7D4A7F181254DB90087DE0FB86
:102C60007D4B7F181254DB90087EE0FB7D4C7F1873
:102C70001254DB90087FE0FB7D4D7F181254DB90EF
:102C80000880E0FB7D4E7F181254DB900881E0FB4A
:102C90007D4F7F181254DB900882E0FB7D507F1837
:102CA0001254DB900883E0FB7D517F181254DB90B7
:102CB0000884E0FB7D527F181254DB900885E0FB0E
:102CC0007D5E7F181254DB900886E0FB7D5F7F18E5
:102CD0001254DB900887E0FB7D607F181254DB9074
:102CE0000888E0FB7D627F181254DB900874E0FBDB
:102CF0007D427F181254DB900875E0FB7D437F18FE
:102D00001254DB900876E0FB7D447F181254DB9070
:102D10000877E0FB7D457F181254DB900878E0FBD4
:102D20007D467F181254DB900879E0FB7D477F18C1
:102D30001254DB90087AE0FB7D487F181254DB9038
:102D4000087BE0FB7D497F181254DB900873E0FBA1
:102D50007D417F181254DB90088BE0FB7D827F1849
:102D60000254DBE4F546F9FDFC9000BAE0FEA3E076
:102D7000FBEEF530EBF531A3E0FEA3E0FBEEF53220
:102D8000EBF533A3E0FEA3E0FBEEF534EBF535A362
:102D9000E0FEA3E0FBEEF536EBF537A3E0FEA3E0A3
:102DA000FBEEF538EBF539A3E0FEA3E0FBEEF53AD8
:102DB000EBF53BA3E0FEA3E0FBEEF53CEBF53DA31A
:102DC000E0FEA3E0FBEEF53EEBF53F90036BE0FE8B
:102DD000A3E0FBEEF540EBF541A3E0FEA3E0FBEE44
:102DE000F542EBF543A3E0FEA3E0FBEEF544EBF583
:102DF00045A3E0FEA3E0FBEBFFE4FBEB25E0243082
:102E0000F8E6F58308E6D39541E5839540400D74D7
:102E100001A803088002C333D8FC4246EB25E02416
:102E200030F8E6F58308E6C39543E5839542500DF7
:102E30007401A803088002C333D8FC4201EB25E0EB
:102E40002430F8E6F58308E6D39545E583954440BC
:102E50000D7401A803088002C333D8FC4205EB259A
:102E6000E02430F8E6F58308E6C39FE5839E500D25
:102E70007401A803088002C333D8FC42040BEB643E
:102E8000086003022DFB900095E0FFD394004006FC
:102E9000E54670028F46900096E0FFD3940040050F
:102EA000E97002A907900097E0FFD394004005ED78
:102EB0007002AD07900098E0FFD394004005EC70DD
:102EC00002AC079008F1E546F09008F3E9F09008AD
:102ED000F9EDF09008FDECF0900095E546F0A3E9DF
:102EE000F0A3EDF0A3ECF0900064E0F45546601020
:102EF000C282900107E054FEF09008FCE04404F028
:102F0000900065E0F4FF9008F3E05F6010C28290EB
:102F10000107E054FEF09008FCE04408F0900066E1
:102F2000E0F4FF9008F9E05F6010C282900107E0D2
:102F300054FEF09008FCE04410F0900067E0F4FFCD
:102F40009008FDE05F6010C282900107E054FEF03F
:102F50009008FCE04420F0227BF07D107F18125492
:102F6000B19007E0E0FB7D027F181254B19007E1B9
:102F7000E0FB7D037F181254B19007E2E0FB7D0473
:102F80007F181254B19007E3E0FB7D057F181254BF
:102F9000B19007E5E0FB7D117F181254B19007E670
:102FA000E0FB7D167F181254B19007E7E0FB7D1916
:102FB0007F181254B19007E8E0FB7D1B7F18125474
:102FC000B19007E9E0FB7D1C7F181254B19007EA2D
:102FD000E0FB7D1D7F181254B19007EBE0FB7D21D3
:102FE0007F181254B19007ECE0FB7D227F18125439
:102FF000B19007EDE0FB7D237F181254B19007EEEE
:10300000E0FB7D257F181254B19007EFE0FB7D2691
:103010007F181254B19007F0E0FB7D277F181254FF
:10302000B19007F1E0FB7D287F181254B19007F2B0
:10303000E0FB7D407F181254B19007FCE0FB7D4A15
:103040007F181254B19007FDE0FB7D4B7F1812549E
:10305000B19007FEE0FB7D4C7F181254B19007FF42
:10306000E0FB7D4D7F181254B1900800E0FB7D4ECF
:103070007F181254B1900801E0FB7D4F7F18125465
:10308000B1900802E0FB7D507F181254B190080304
:10309000E0FB7D517F181254B1900804E0FB7D5293
:1030A0007F181254B1900805E0FB7D5E7F18125422
:1030B000B1900806E0FB7D5F7F181254B1900807BD
:1030C000E0FB7D607F181254B1900808E0FB7D6240
:1030D0007F181254B19007F4E0FB7D427F18125420
:1030E000B19007F5E0FB7D437F181254B19007F6CD
:1030F000E0FB7D447F181254B19007F7E0FB7D455B
:103100007F181254B19007F8E0FB7D467F181254E7
:10311000B19007F9E0FB7D477F181254B19007FA90
:10312000E0FB7D487F181254B19007FBE0FB7D491E
:103130007F181254B19007F3E0FB7D417F181254C1
:10314000B190080BE0FB7D827F180254B17BF07DCB
:10315000107F181254DB900860E0FB7D027F18128C
:1031600054DB900861E0FB7D037F181254DB90086C
:1031700062E0FB7D047F181254DB900863E0FB7D66
:10318000057F181254DB900865E0FB7D117F181253
:1031900054DB900866E0FB7D167F181254DB900824
:1031A00067E0FB7D197F181254DB900868E0FB7D17
:1031B0001B7F181254DB900869E0FB7D1C7F1812FE
:1031C00054DB90086AE0FB7D1D7F181254DB9008E9
:1031D0006BE0FB7D217F181254DB90086CE0FB7DD7
:1031E000227F181254DB90086DE0FB7D237F1812BC
:1031F00054DB90086EE0FB7D257F181254DB9008AD
:103200006FE0FB7D267F181254DB900870E0FB7D99
:10321000277F181254DB900871E0FB7D287F18127D
:1032200054DB900872E0FB7D407F181254DB90085D
:103230007CE0FB7D4A7F181254DB90087DE0FB7D2B
:103240004B7F181254DB90087EE0FB7D4C7F1812F8
:1032500054DB90087FE0FB7D4D7F181254DB900813
:1032600080E0FB7D4E7F181254DB900881E0FB7DEF
:103270004F7F181254DB900882E0FB7D507F1812BC
:1032800054DB900883E0FB7D517F181254DB9008DB
:1032900084E0FB7D527F181254DB900885E0FB7DB3
:1032A0005E7F181254DB900886E0FB7D5F7F18126A
:1032B00054DB900887E0FB7D607F181254DB900898
:1032C00088E0FB7D627F181254DB900874E0FB7D80
:1032D000427F181254DB900875E0FB7D437F181283
:1032E00054DB900876E0FB7D447F181254DB900895
:1032F00077E0FB7D457F181254DB900878E0FB7D7A
:10330000467F181254DB900879E0FB7D477F181246
:1033100054DB90087AE0FB7D487F181254DB90085C
:103320007BE0FB7D497F181254DB900873E0FB7D46
:10333000417F181254DB90088BE0FB7D827F1802DE
:1033400054DBEF24F9B4120040030234A790335B3E
:1033500075F003A4C58325F0C5837302339102334E
:10336000990233A10233A90233B10233C80233D028
:103370000233EB0233F302340E02341602342C0211
:10338000343302343A02344102345B02347502347D
:103390008FE4900087F00234A7E4900088F00234B4
:1033A000A7E4900089F00234A7E490008AF0023488
:1033B000A790008BE0FF9008F2E0F4FEEF5E900033
:1033C0008BF09008FF023489E490008CF00234A75F
:1033D00090008DE0FF9008FAE0F4FEEF5E90008D23
:1033E000F09008FFE054BFF00234A7E490008EF0A4
:1033F0000234A790008FE0FF9008F4E0F4FEEF5E47
:1034000090008FF09008FEE054FEF00234A7E490A4
:103410000090F00234A7900091E0FF900900E0F4E2
:10342000FEEF5E900091F09008FE8029E4900092FB
:10343000F08074E4900093F0806DE4900094F0804C
:1034400066900095E0FF9008F1E0F4FEEF5E9000DA
:1034500095F09008FCE054FBF0804C900096E0FF63
:103460009008F3E0F4FEEF5E900096F09008FCE028
:1034700054F7F08032900097E0FF9008F9E0F4FEF6
:10348000EF5E900097F09008FCE054EFF080189009
:103490000098E0FF9008FDE0F4FEEF5E900098F0E9
:1034A0009008FCE054DFF09008FEE07002A3E070AA
:1034B000139008FBE07002A3E07009900107E0445C
:1034C00001F0D28222E4FD7F161255DB9006D5EF83
:1034D000F07D017F161255DB9006D6EFF07D027F5E
:1034E000161255DB9006DEEFF07D037F161255DBDA
:1034F0009006DFEFF07D047F161255DB9006E0EFBB
:10350000F07D057F161255DB9006E1EFF07D107F10
:10351000161255DB9006E2EFF07D117F161255DB97
:103520009006E3EFF07D167F161255DB9006E4EF70
:10353000F07D177F161255DB9006D7EFF07D187FD0
:10354000161255DB9006D8EFF07D197F161255DB69
:103550009006E5EFF07D1A7F161255DB9006D9EF45
:10356000F07D1B7F161255DB9006E6EFF07D207F85
:10357000161255DB9006E7EFF07D217F161255DB22
:103580009006E8EFF07D227F161255DB9006E9EFFA
:10359000F07D237F161255DB9006EAEFF07D247F45
:1035A000161255DB9006EBEFF07D257F161255DBEA
:1035B0009006ECEFF07D267F161255DB9006EDEFBE
:1035C000F07D277F161255DB9006EEEFF07D287F09
:1035D000161255DB9006EFEFF07D407F161255DB9B
:1035E0009006F0EFF07D417F161255DB9006F1EF6B
:1035F000F07D427F161255DB9006F2EFF07D437F9F
:10360000161255DB9006F3EFF07D447F161255DB62
:103610009006F4EFF07D457F161255DB9006F5EF2E
:10362000F07D467F161255DB9006F6EFF07D477F62
:10363000161255DB9006F7EFF022E4FD7F161255C7
:10364000FB900755EFF07D017F161255FB90075652
:10365000EFF07D027F161255FB90075EEFF07D03C1
:103660007F161255FB90075FEFF07D047F16125511
:10367000FB900760EFF07D057F161255FB90076108
:10368000EFF07D107F161255FB900762EFF07D1171
:103690007F161255FB900763EFF07D167F161255CB
:1036A000FB900764EFF07D177F161255FB900757CC
:1036B000EFF07D187F161255FB900758EFF07D193B
:1036C0007F161255FB900765EFF07D1A7F16125595
:1036D000FB900759EFF07D1B7F161255FB90076694
:1036E000EFF07D207F161255FB900767EFF07D21EC
:1036F0007F161255FB900768EFF07D227F1612555A
:10370000FB900769EFF07D237F161255FB90076A47
:10371000EFF07D247F161255FB90076BEFF07D25AF
:103720007F161255FB90076CEFF07D267F16125521
:10373000FB90076DEFF07D277F161255FB90076E0B
:10374000EFF07D287F161255FB90076FEFF07D405C
:103750007F161255FB900770EFF07D417F161255D2
:10376000FB900771EFF07D427F161255FB900772B8
:10377000EFF07D437F161255FB900773EFF07D4409
:103780007F161255FB900774EFF07D457F1612559A
:10379000FB900775EFF07D467F161255FB9007767C
:1037A000EFF07D477F161255FB900777EFF02290E0
:1037B0000000E0FF65127003023915E4900080F00C
:1037C000A3F0A3F0A3F0EF90008030E010E04404F9
:1037D000F09007E4E054EFF05311FE800EE0440156
:1037E000F09007E4E04410F0431101900000E0FD88
:1037F00090008030E110E04440F09007E4E054DFB6
:10380000F05311FD800EE04410F09007E4E04420F6
:10381000F0431102ED90008130E210E04404F0909A
:1038200007E4E054BFF05311FB800EE04401F09038
:1038300007E4E04440F0431104900000E0FD9000F4
:103840008130E310E04440F09007E4E0547FF0530F
:1038500011F7800EE04410F09007E4E04480F0435C
:103860001108ED90008230E410E04404F090086408
:10387000E0547FF05311EF800EE04401F0900864B3
:10388000E04480F0431110900000E0FD9000823091
:10389000E510E04440F0900864E054BFF05311DFBD
:1038A000800EE04410F0900864E04440F0431120A2
:1038B000ED90008330E610E04404F0900864E0549A
:1038C000DFF05311BF800EE04401F0900864E04443
:1038D00020F0431140900000E090008330E710E0BA
:1038E0004440F0900864E054EFF053117F800EE004
:1038F0004410F0900864E04410F04311809007E415
:10390000E0FB7D107F181254B1900864E0FB7D103D
:103910007F181254DB900000E0F5122290001CE0AA
:10392000FFF531A3E0FEF532A3E0FDF533A3E0FCA3
:10393000F5349000D9EFF0A3EEF0A3EDF0A3ECF096
:10394000900100E06531603BE531540FF5302433E0
:10395000F582E43405F583E09007EEF0FB7D257FEA
:10396000181254B1E53154F0C4540FF5302433F536
:1039700082E43405F583E09007EFF0FB7D267F18A5
:103980001254B1900101E06532603BE532540FF50D
:10399000302433F582E43405F583E09007F0F0FB42
:1039A0007D277F181254B1E53254F0C4540FF5301E
:1039B0002433F582E43405F583E09007F1F0FB7DD4
:1039C000287F181254B1900102E06533603BE53363
:1039D000540FF5302433F582E43405F583E0900884
:1039E00071F0FB7D287F181254DBE53354F0C4548A
:1039F0000FF5302433F582E43405F583E090087048
:103A0000F0FB7D277F181254DB900103E0653460E2
:103A10003BE532540FF5302433F582E43405F58369
:103A2000E090086FF0FB7D267F181254DBE53254DE
:103A3000F0C4540FF5302433F582E43405F583E007
:103A400090086EF0FB7D257F181254DB900100E595
:103A500031F0900101E532F0900102E533F0900180
:103A600003E534F0229006DFE0FB7D037F1612545D
:103A7000B19006E0E0FB7D047F161254B19006E1A0
:103A8000E0FB7D057F161254B19006E2E0FB7D104D
:103A90007F161254B19006E3E0FB7D117F1612549D
:103AA000B19006E4E0FB7D167F161254B19006E556
:103AB000E0FB7D197F161254B19006E6E0FB7D1BFA
:103AC0007F161254B19006E7E0FB7D207F1612545A
:103AD000B19006E8E0FB7D217F161254B19006E913
:103AE000E0FB7D227F161254B19006EAE0FB7D23B5
:103AF0007F161254B19006EBE0FB7D247F16125422
:103B0000B19006ECE0FB7D257F161254B19006EDD6
:103B1000E0FB7D267F161254B19006EEE0FB7D2778
:103B20007F161254B19006EFE0FB7D287F161254E9
:103B3000B19006F0E0FB7D407F161254B19006F183
:103B4000E0FB7D417F161254B19006F2E0FB7D420E
:103B50007F161254B19006F3E0FB7D437F1612549A
:103B6000B19006F4E0FB7D447F161254B19006F547
:103B7000E0FB7D457F161254B19006F6E0FB7D46D2
:103B80007F161254B19006F7E0FB7D477F16125462
:103B9000B19006F8E0FB7D827F160254B190075F7A
:103BA000E0FB7D037F161254DB900760E0FB7D0491
:103BB0007F161254DB900761E0FB7D057F161254DF
:103BC000DB900762E0FB7D107F161254DB900763E9
:103BD000E0FB7D117F161254DB900764E0FB7D163D
:103BE0007F161254DB900765E0FB7D197F16125497
:103BF000DB900766E0FB7D1B7F161254DB900767A6
:103C0000E0FB7D207F161254DB900768E0FB7D21EE
:103C10007F161254DB900769E0FB7D227F16125459
:103C2000DB90076AE0FB7D237F161254DB90076B65
:103C3000E0FB7D247F161254DB90076CE0FB7D25B2
:103C40007F161254DB90076DE0FB7D267F16125421
:103C5000DB90076EE0FB7D277F161254DB90076F29
:103C6000E0FB7D287F161254DB900770E0FB7D405F
:103C70007F161254DB900771E0FB7D417F161254D2
:103C8000DB900772E0FB7D427F161254DB900773D6
:103C9000E0FB7D437F161254DB900774E0FB7D440C
:103CA0007F161254DB900775E0FB7D457F1612549A
:103CB000DB900776E0FB7D467F161254DB9007779A
:103CC000E0FB7D477F161254DB900778E0FB7D8296
:103CD0007F160254DB90002AE0F531A3E0F532A311
:103CE000E0F533A3E0F5349004ABE06531603BE5EB
:103CF00031540FF5302494F582E43402F583E090DA
:103D000006F5F0FB7D457F161254B1E53154F0C441
:103D1000540FF5302494F582E43402F583E09006E4
:103D2000F4F0FB7D447F161254B19004ACE0653290
:103D3000603BE532540FF5302494F582E43402F50B
:103D400083E09006F3F0FB7D437F161254B1E53219
:103D500054F0C4540FF5302494F582E43402F58312
:103D6000E09006F2F0FB7D427F161254B19004AD54
:103D7000E06533603BE533540FF5302494F582E47D
:103D80003402F583E0900772F0FB7D427F161254F7
:103D9000DBE53354F0C4540FF5302494F582E43459
:103DA00002F583E0900773F0FB7D437F161254DB2E
:103DB0009004B2E06534603BE534540FF530249450
:103DC000F582E43402F583E0900774F0FB7D447FD4
:103DD000161254DBE53454F0C4540FF5302494F536
:103DE00082E43402F583E0900775F0FB7D457F1691
:103DF0001254DB9004ABE531F09004ACE532F09066
:103E000004ADE533F09004B2E534F022E4FD900116
:103E100012E0FEA3E0FBEEF530EBF53190032BE072
:103E2000FEA3E0FBEEF532EBF533A3E0FEA3E0FBEF
:103E3000EEF534EBF535A3E0FEA3E0FBEEF536EB53
:103E4000F537A3E0FEA3E0FBEEF538EBF539900182
:103E500014E0FEA3E0FBEEF53AEBF53B900333E014
:103E6000FEA3E0FBEEF53CEBF53DA3E0FEA3E0FB9B
:103E7000EEF53EEBF53FA3E0FEA3E0FBEEF540EBF5
:103E8000F541A3E0FEA3E0FBEBFF900124E0FCC3BF
:103E9000E5319539E5386480F8E530648098500262
:103EA0007D08D3E5319537E5366480F8E5306480E8
:103EB000984003430504C3E5319535E5346480F843
:103EC000E5306480985003430502D3E5319533E52E
:103ED000326480F8E5306480984003430501C3E50F
:103EE0003B9FE53A9E5003430580D3E53B9541E572
:103EF0003A95404003430540C3E53B953FE53A957D
:103F00003E5003430520D3E53B953DE53A953C40C3
:103F10000343051090010DE0FFD394004005ED70C0
:103F200002AD079008F0EDF090010DF0ECF45D604B
:103F300010C282900107E054FEF09008FCE044407B
:103F4000F022EF24FB6059147003023FE814700361
:103F500002402D240360030240779008DDE0FF3328
:103F600095E0FEE42FFFEE34DEFE12574F9008740A
:103F7000EFF09008DDE0FF3395E0FEE42FFFEE3434
:103F8000E6FE12574F900878EFF0900874E0FB7D42
:103F9000427F181254DB900878E0FB7D46024072A5
:103FA0009008DDE0FF3395E0FEEF2480FFEE34DE85
:103FB000FE12574F900875EFF09008DDE0FF339543
:103FC000E0FEEF2480FFEE34E6FE12574F900879B2
:103FD000EFF0900875E0FB7D437F181254DB9008EA
:103FE00079E0FB7D470240729008DDE0FF3395E009
:103FF000FEE42FFFEE34E0FE12574F900876EFF00C
:104000009008DDE0FF3395E0FEE42FFFEE34E8FE9C
:1040100012574F90087AEFF0900876E0FB7D447FCE
:10402000181254DB90087AE0FB7D4880459008DD4B
:10403000E0FF3395E0FEEF2480FFEE34E0FE125700
:104040004F900877EFF09008DDE0FF3395E0FEEF4A
:104050002480FFEE34E8FE12574F90087BEFF0907B
:104060000877E0FB7D457F181254DB90087BE0FB6E
:104070007D497F181254DB227BF07D107F1612548D
:10408000B19006DFE0FB7D037F161254B19006E08D
:10409000E0FB7D047F161254B19006E1E0FB7D0544
:1040A0007F161254B19006E3E0FB7D117F16125487
:1040B000B19006E4E0FB7D167F161254B19006E540
:1040C000E0FB7D197F161254B19006E6E0FB7D1BE4
:1040D0007F161254B19006E7E0FB7D207F16125444
:1040E000B19006E8E0FB7D217F161254B19006E9FD
:1040F000E0FB7D227F161254B19006EAE0FB7D239F
:104100007F161254B19006EBE0FB7D247F1612540B
:10411000B19006ECE0FB7D257F161254B19006EDC0
:10412000E0FB7D267F161254B19006EEE0FB7D2762
:104130007F161254B19006EFE0FB7D287F161254D3
:10414000B19006F0E0FB7D407F161254B19006F16D
:10415000E0FB7D417F161254B19006F2E0FB7D42F8
:104160007F161254B19006F3E0FB7D437F16125484
:10417000B19006F4E0FB7D447F161254B19006F531
:10418000E0FB7D457F161254B19006F6E0FB7D46BC
:104190007F161254B19006F7E0FB7D477F1612544C
:1041A000B19006F8E0FB7D827F160254B17BF07D72
:1041B000107F161254DB90075FE0FB7D037F161221
:1041C00054DB900760E0FB7D047F161254DB900700
:1041D00061E0FB7D057F161254DB900763E0FB7DF9
:1041E000117F161254DB900764E0FB7D167F1612D8
:1041F00054DB900765E0FB7D197F161254DB9007B6
:1042000066E0FB7D1B7F161254DB900767E0FB7DA9
:10421000207F161254DB900768E0FB7D217F161289
:1042200054DB900769E0FB7D227F161254DB900778
:104230006AE0FB7D237F161254DB90076BE0FB7D69
:10424000247F161254DB90076CE0FB7D257F16124D
:1042500054DB90076DE0FB7D267F161254DB900740
:104260006EE0FB7D277F161254DB90076FE0FB7D2D
:10427000287F161254DB900770E0FB7D407F1612FA
:1042800054DB900771E0FB7D417F161254DB9007F1
:1042900072E0FB7D427F161254DB900773E0FB7DDA
:1042A000437F161254DB900774E0FB7D447F1612A7
:1042B00054DB900775E0FB7D457F161254DB9007B9
:1042C00076E0FB7D467F161254DB900777E0FB7D9E
:1042D000477F161254DB900778E0FB7D827F160241
:1042E00054DBEF1460591470030243871470030207
:1042F00043CC240360030244169008DDE0FF3395AD
:10430000E0FEE42FFFEE34DAFE12574F9007F4EF91
:10431000F09008DDE0FF3395E0FEE42FFFEE34E29D
:10432000FE12574F9007F8EFF09007F4E0FB7D4244
:104330007F181254B19007F8E0FB7D4602441190BB
:1043400008DDE0FF3395E0FEEF2480FFEE34DAFE77
:1043500012574F9007F5EFF09008DDE0FF3395E03E
:10436000FEEF2480FFEE34E2FE12574F9007F9EF84
:10437000F09007F5E0FB7D437F181254B19007F9E8
:10438000E0FB7D470244119008DDE0FF3395E0FE3D
:10439000E42FFFEE34DCFE12574F9007F6EFF0905B
:1043A00008DDE0FF3395E0FEE42FFFEE34E4FE127B
:1043B000574F9007FAEFF09007F6E0FB7D447F1827
:1043C0001254B19007FAE0FB7D4880459008DDE08B
:1043D000FF3395E0FEEF2480FFEE34DCFE12574FF2
:1043E0009007F7EFF09008DDE0FF3395E0FEEF2453
:1043F00080FFEE34E4FE12574F9007FBEFF090077A
:10440000F7E0FB7D457F181254B19007FBE0FB7D80
:10441000497F181254B122900022E0F531A3E0F553
:1044200032A3E0F533A3E0F5349002A4E0653160F7
:104430003AE53154F0C4540FF5302484F582E43465
:1044400002F583E0FF9006F7F0E531540FF53024D4
:1044500084F582E43402F583E0C454F0FEEF4E901C
:1044600006F7F0FB7D467F161254B19002A5E06579
:1044700032603AE53254F0C4540FF5302484F582AA
:10448000E43402F583E0FF9006F6F0E532540FF5D0
:10449000302484F582E43402F583E0C454F0FEEF66
:1044A0004E9006F6F0FB7D477F161254B19002A69F
:1044B000E06533603AE53354F0C4540FF53024849A
:1044C000F582E43402F583E0FF900776F0E533549B
:1044D0000FF5302484F582E43402F583E0C454F00F
:1044E000FEEF4E900776F0FB7D467F161254DB9070
:1044F00002A7E06534603AE53454F0C4540FF53057
:104500002484F582E43402F583E0FF900777F0E538
:1045100034540FF5302484F582E43402F583E0C48A
:1045200054F0FEEF4E900777F0FB7D477F16125454
:10453000DB9002A4E531F09002A5E532F09002A6EE
:10454000E533F09002A7E534F022E4FC9000CAF0D5
:10455000A3F0A3F0A3F0A3F0A3F0A3F0A3F0A3F0C3
:10456000A3F0A3F0A3F0900011E0B4200D9000CED2
:10457000F09000CAE04401F080079000CAE04403D4
:10458000F0900012E0B4200D9000CFF09000CAE04F
:104590004410F080079000CAE04430F0900013E02F
:1045A000B4200D9000D0F09000CBE04401F08007E3
:1045B0009000CBE04403F0900014E0B4200D900094
:1045C000D1F09000CBE04410F080079000CBE044A5
:1045D00030F0900015E0B4200D9000D2F09000CCA7
:1045E000E04401F080079000CCE04403F090001616
:1045F000E0B4200D9000D3F09000CCE04410F080A7
:10460000079000CCE04430F0900017E0B4200D900B
:1046100000D4F09000CDE04401F080079000CDE0A0
:104620004403F0900018E0B4200D9000D5F0900005
:10463000CDE04410F080079000CDE04430F07E01E2
:1046400074CE2EF582E43400F583E0FF9000CEE0D6
:10465000B507010C0EBE08E8BC07037508012290DF
:1046600000117410F0A3F0A3F0A3F0A3F0A3F0A343
:10467000F0A3F0900011E09000CEF0900012E090D6
:1046800000CFF0900013E09000D0F0900014E09084
:1046900000D1F0900015E09000D2F0900016E0906C
:1046A00000D3F0900017E09000D4F0A37410F090C5
:1046B000002074FFF09000DDF0900021F09000DE0B
:1046C000F09000807411F0A3F0A3F0A3F0E4900048
:1046D00000F0A3F0A3F090001C7466F0A3F0A3F028
:1046E000A3F09000227433F0A3F0A3F0A3F09000A5
:1046F0002A7422F0A3F0A3F0A3F090001CE0900134
:1047000000F090001DE0900101F090001EE090018B
:1047100002F090001FE0900103F0900022E0900270
:10472000A4F0900023E09002A5F0900024E0900215
:10473000A6F0900025E09002A7F090002AE09004F7
:10474000ABF090002BE09004ACF090002CE09004D3
:10475000ADF09004B27422F022EFB41200400302D4
:104760004851904769F828287302479F0247B402CE
:1047700047B80247BC0247C00247C40247C80247C5
:10478000CC0247D00247D50247E40247F302480271
:1047900002481102482002482F02483E02484E12A9
:1047A0005505124D3F7F0D125678EF25E0FFEE3391
:1047B000FE025825E4FF801A7F0180167F028012D6
:1047C0007F03800E7F04800A7F0580067F068002BB
:1047D0007F07021A05900479E06005E4FF1242E2C7
:1047E000E4FF8067900479E060057F011242E27F78
:1047F000018058900479E060057F021242E27F0256
:104800008049900479E060057F031242E27F0380D3
:104810003A900479E060057F04123F427F04802BC8
:10482000900479E060057F05123F427F05801C906F
:104830000479E060057F06123F427F06800D9004F8
:1048400079E060057F07123F427F0702090612598F
:104850002922E50F24FE601524FE604224FE6073C9
:10486000240660030248FC1254110248FCE50D6462
:1048700001701F90000FE0B4FF0812454AE4900059
:104880000FF0900000E0F47073750F04C282F50819
:104890008005750F04C2829001077404802BC283C7
:1048A000C29412552D90000074FFF0900002E0FFBA
:1048B000124AB49000807444F0A3F0A3F0A3F07502
:1048C0000F06C282900107E50FF090010CE0440151
:1048D000F08029D3E50A9458E50994024016AF0BFD
:1048E000124759050BE50BC394124003E4F50BE4A2
:1048F000F509F50A050AE50A70020509E50F6406DF
:1049000060157F0D125678EF25E0FFEE33FE12584A
:1049100025125505124D3FE50F64066005E50FB4FD
:1049200004111237AF900002E0FF124AB4125895FA
:104930001252F122900021E0F530900908E0653034
:1049400070030249EDE5309006E230E006E054F7EE
:10495000F08004E04408F0E5309006E230E106E043
:1049600054FBF08004E04404F0E5309006E230E2CD
:1049700006E054FDF08004E04402F0E5309006E2E9
:1049800030E306E054FEF08004E04401F0E53090AE
:10499000076230E406E054FEF08004E04401F0E5F4
:1049A0003090076230E506E054FDF08004E04402F8
:1049B000F0E53090076230E606E054FBF08004E05A
:1049C0004404F0E53090076230E706E054F7F080E9
:1049D00004E04408F09006E2E0FB7D107F161254DC
:1049E000B1900762E0FB7D107F161254DB9009083E
:1049F000E530F022900020E0F530900909E06530C4
:104A00007003024AADE5309007E430E006E054FE62
:104A1000F08004E04401F0E5309007E430E106E086
:104A200054FDF08004E04402F0E5309007E430E209
:104A300006E054FBF08004E04404F0E5309007E425
:104A400030E306E054F7F08004E04408F0E53090ED
:104A5000086430E406E054F7F08004E04408F0E530
:104A60003090086430E506E054FBF08004E0440434
:104A7000F0E53090086430E606E054FDF08004E094
:104A80004402F0E53090086430E706E054FEF08020
:104A900004E04401F09007E4E0FB7D107F1812541D
:104AA000B1900864E0FB7D107F181254DB90090977
:104AB000E530F022AD07ED9007F330E006E0440169
:104AC000F08004E054FEF0ED9007F330E106E0449E
:104AD00002F08004E054FDF0ED9007F330E206E0D0
:104AE0004404F08004E054FBF0ED9007F330E3065B
:104AF000E04408F08004E054F7F0ED90087330E4EF
:104B000006E04408F08004E054F7F0ED90087330BC
:104B1000E506E04404F08004E054FBF0ED900873F7
:104B200030E606E04402F08004E054FDF0ED900829
:104B30007330E706E04401F08004E054FEF0900793
:104B4000F3E0FB7D417F181254B1900873E0FB7DC8
:104B5000417F180254DB12006E787FE4F6D8FD75B1
:104B60008146024BA0024BE5E493A3F8E493A340F3
:104B700003F68001F208DFF48029E493A3F85407D8
:104B8000240CC8C333C4540F4420C8834004F456D3
:104B9000800146F6DFE4800B01020408102040800B
:104BA000900F60E47E019360BCA3FF543F30E509A1
:104BB000541FFEE493A360010ECF54C025E060A80B
:104BC00040B8E493A3FAE493A3F8E493A3C8C5829E
:104BD000C8CAC583CAF0A3C8C582C8CAC583CADF0C
:104BE000E9DEE780BEE4F52CF52DF52EF52F125207
:104BF000791256CB7F3C7E001256591256B01200E5
:104C00003E12592F1259351259321259387B467DAE
:104C1000427F181254B17B467D437F181254B17BFA
:104C2000467D447F181254B17B467D457F1812544F
:104C3000B17B467D427F181254DB7B467D437F1853
:104C40001254DB7B467D447F181254DB7B467D4546
:104C50007F181254DB7F011256E6124852124CD4D0
:104C600080F87B017A0779D57535007536807F002D
:104C70007ED01250AF7B017A0679D5753500753636
:104C8000807F007ED21250AF7B017A08795575354E
:104C9000007536807F007EEA1250AF7B017A07797B
:104CA000557535007536807F007EEC1250AF7B0164
:104CB0007A04792B7535007536807F007ED41250CA
:104CC000AF7B017A0479B37535007536807F007E3D
:104CD000D60250AF90064FE064017062900645E046
:104CE00024FB601524FE604E2406704D900655E0AE
:104CF000900183F01221E18040E4FFFE900653E032
:104D0000FDC3EF9DEE9400502874552FF582740674
:104D10003EF583E0FD900652E02FFBE43EFA74047A
:104D20002BF58274013AF583EDF00FBF00010E8080
:104D3000CB124EC88003120076E490064FF022ADED
:104D400007AC06ECFF3395E09004FAEFF0A3EDF02A
:104D5000FF90042FE0FDA3E0FBA3E0F5823395E094
:104D6000F53485823512532CAD07AC06ECFF90016B
:104D700012EFF0AF05A3EFF0900112E0FFC36480E3
:104D8000945850027FD8D3EF648094D540027F5569
:104D900074282FFFA2E7139008DDF0D3EF6480940E
:104DA000BF22AB05A907E4F534F533F532F53185BB
:104DB000A730F5A7FAEAC39B503789BBE4FFFE0F83
:104DC000BF00010EEF640A4E70F5D2EC30EDFDAF7E
:104DD000BDAEBEE4FCFDE5342FF534E5333EF533DE
:104DE000ED3532F532EC3531F531C2ECC2ED0A80E9
:104DF000C4E4FAF9F8AF34AE33AD32AC311250F747
:104E00008530A7228E348F35EF2480FB7D907F186C
:104E10001254B17B047D927F181254B17D657F18C6
:104E2000124F228E368F377D687F18124F228E36B2
:104E30008F37E5352480FB7D907F181254B17B08B5
:104E40007D927F181254B17D657F18124F227D68C4
:104E50007F18124F22C3E5379FFFE5369EFE7C0088
:104E60007D15121862228E348F35EF2480FB7D90E1
:104E70007F181254DB7B047D927F181254DB7D6512
:104E80007F18124F768E368F377D687F18124F76D7
:104E90008E368F37E5352480FB7D907F181254DBEA
:104EA0007B087D927F181254DB7D657F18124F7648
:104EB0007D687F18124F76C3E5379FFFE5369EFE6B
:104EC0007C007D15121862229004AEE0FF90017EF6
:104ED000E0FE6F702B9004AFE0FF90017FE0B5071C
:104EE0001F9004B0E0FF900180E0B507139004B17B
:104EF000E0FF900181E0B507079006447401F022BD
:104F0000EEB43A1890017FE0B41811A3E0B4B60CE7
:104F1000A3E0B46F079006447402F022E4900644C4
:104F2000F0228D38A907E4900903F0A3F0A3F0A3C1
:104F3000F012523C1253B6AF3812539F1200039036
:104F40000903EFF0125877120003A3EFF012571B7A
:104F5000900903E075F010A4FFA3E07C002FFEECA5
:104F600035F0A3F0A3CEF01257671258F49009055C
:104F7000E0FEA3E0FF228D38A907E4900903F0A327
:104F8000F0A3F0A3F01251BF1253EFAF381253D871
:104F9000125366900903EFF0125886125366A3EF7E
:104FA000F0125735900903E075F010A4FFA3E07CE0
:104FB000002FFEEC35F0A3F0A3CEF012577A125872
:104FC000FD900905E0FEA3E0FF22E4900329F0A391
:104FD000F0F530F531AF31AE3012574F7E0090030F
:104FE0002AE02FF0900329E03EF00531E531700210
:104FF0000530C3E53094C840DC900329E0FFA3E00E
:105000009004A3CFF0A3EFF07B017A04792B7537DE
:10501000007538807F007ED40250677B017A017969
:10502000047535017536007F007EC81250AF7B01D4
:105030007A0279A97535007536807F007ECA1250D4
:10504000AF7B017A03792B7535007536807F007E42
:10505000CC1250AF7B017A0379AB75350075368081
:105060007F007ECE0250AF8E328F338B348A3589EB
:1050700036E4F539F53A7D5512547EE4F539F53AC2
:10508000C3E53A9538E53995375023E533253AFF9E
:10509000E5323539FEAB340536E536AA3570020502
:1050A000351252B6053AE53A70D6053980D2228ECD
:1050B000308F318B328A338934E4F537F538F53760
:1050C000F538C3E5389536E53795355029E531256E
:1050D00038FFE5303537FE12574FAB320534E53433
:1050E000AA337002053314F9EF1218500538E53869
:1050F00070D0053780CC22C2D5E830E70FB2D5E4B6
:10510000C39BFBE49AFAE499F9E498F8EC30E717CA
:10511000B2D512512D121973E4C39BFBE49AFAE441
:1051200099F9E498F8800312197330D50DE4C39F00
:10513000FFE49EFEE49DFDE49CFC228E308F318BCB
:10514000328A338934E4F537F538F537F538C3E575
:10515000389536E53795355023E5312538FFE5306C
:105160003537FEAB320534E534AA3370020533120D
:1051700052B60538E53870D6053780D222AC06E045
:10518000FDA3E0FBA3E0F538A3E0F5398D368B37BE
:10519000AB07AA06E4F9F8AF36FCFDFE1218748FCF
:1051A0003D8E3C8D3B8C3AA937A8011218D18F3D1A
:1051B0008E3C8D3B8C3AE5392FFFE5383EFE2212BE
:1051C00058FD1258B8AF01AD07AC05C29112570394
:1051D0007B07EDA803088002C313D8FC5401FC60D0
:1051E00004D2908002C290D29112570C12570CC276
:1051F0009112570C1BC3EB6480948050D5227F0022
:105200007EF812574FBF010E124FCA7D557F007EA8
:10521000F812547E800F9004A3E0FFA3E0900329CE
:10522000CFF0A3EFF0900329E0FCA3E0FDEC9001A8
:10523000FCF0A3EDF0A37402F0A3F0221258F412D4
:1052400058AEAF01AD07AC051257017B07EDA803BF
:10525000088002C313D8FC5401FC6004D2B280025F
:10526000C2B2D2B312570C12570CC2B312570C1B56
:10527000C3EB6480948050D52285A7301258C212A7
:1052800058CC1258D61258E01259061258EA125742
:10529000D91257EC1257FF12006612590D12591409
:1052A00012583612581212585712591B12592212FC
:1052B00058678530A72214F9121837FD7B55ACA723
:1052C000A2AF9201E4F5A7C2AF75FF8075EF028F20
:1052D000828E83BB550975B7A575B7F1438F0175EC
:1052E000FF8075EF02EDF0538FFEA20192AF8CA705
:1052F0002290011EE0FF6510602BEF30E30375EF95
:1053000012EF30E40DD283D294C28290010774026E
:10531000800BC283C294C2829001077406F0900190
:105320000CE04401F090011EE0F510228D328B3329
:10533000AB07AA06EA3395E0F9F8AF32E4FCFDFECC
:105340001218748F398E388D378C36A933A8011214
:1053500018D18F398E388D378C36E535FEE42539F6
:10536000FFEE3538FE22E4FDC2911257037C07128E
:10537000570CD29112570C12570CA2909201A20115
:10538000E433FFA804088002C333D8FC4205C2916D
:1053900012570C1CC3EC6480948050D3AF052212CA
:1053A00052441253B6D2B312570C1258F41258AEDC
:1053B000E904FF12524412570CD2B312570C125781
:1053C0000C30B209C2B312570CC2B28007C2B3127A
:1053D000570CD2B212570C221251C71253EFD2916E
:1053E00012570C1258FD1258B8E904FF1251C71297
:1053F000570CD29112570C12570C309009C29112CF
:10540000570CC2908007C29112570CD29012570CC1
:10541000227FFF124AB4D283D294900478E06401D0
:10542000701090090BE07005750D018008E4F50D12
:105430008003E4F50D750F02C282900107E50FF0BD
:1054400090010CE04401F02290010DE0FF9008F083
:10545000E0F4FEEF5E90010DF09008FCE054BFF028
:105460009008FEE07002A3E070139008FBE0700269
:10547000A3E07009900107E04401F0D28222ACA7BA
:10548000A2AF9201C2AFE4F5A775FF8075EF028F5E
:10549000828E83BD550975B7A575B7F1438F037526
:1054A000FF8075EF02E4F0538FFCA20192AF8CA74E
:1054B000228D38AC07A9031258F41258AEAF04126B
:1054C00052441253B6AF381252441253B6AF0112BF
:1054D00052441253B61257670258F48D38AC07A9DC
:1054E000031258FD1258B8AF041251C71253EFAF50
:1054F000381251C71253EFAF011251C71253EF12B6
:10550000577A0258FD7D047F14124DA2C3EF9518FF
:10551000FFEE9517FE3395E0FDFCE4FB7A01F9F808
:10552000121874E47B13FAF9F81250F7227B0F7DFE
:10553000107F181254B17B0F7D107F181254DB7B43
:10554000FF7D107F161254B17BFF7D107F16025431
:10555000DB7E007F547D007B017A01790412190BF8
:10556000900184E0900104F0A37430F0E4A3F0A370
:105570007407F022E490010CF09008FEE07002A3A2
:10558000E070139008FBE07002A3E070099001073F
:10559000E04401F0D282229006DFE054CFFDEF75A7
:1055A000F010A4FFE5F0FCEF4205AB057D037F168C
:1055B0001254B17F091256782290075FE054CFFD54
:1055C000EF75F010A4FFE5F0FCEF4205AB057D039D
:1055D0007F161254DB7F13125678228D30A90712E2
:1055E000523C1253B6AF3012539F120003AC071255
:1055F000571B1257671258F4AF04228D30A90712B7
:1056000051BF1253EFAF301253D8125366AC07128A
:10561000573512577A1258FDAF0422C0E0C083C03C
:1056200082E59B90090B30E6057401F08002E4F0FE
:10563000539BCFD082D083D0E032C0E0C083C08201
:10564000E5BF90090A30E6057401F08002E4F053EA
:10565000BFCFD082D083D0E032AD07AC06E4FBFAF6
:10566000C3EB9DEC6480F8EA648098500A125847B6
:105670000BBB00010A80E9227D04124DA2AD07ACEC
:1056800006E41216877B487AE179BA783F12157CD6
:105690001216C022AD07E4FBFAEDFFC3EB9F748046
:1056A000F86A98500A12570C0BBB00010A80EA22D4
:1056B00012501B124C6212555112465F1251FE12CB
:1056C000578D1257A01257B30257C6C296C2957F84
:1056D0000A7E00125659D2967F0A7E00125659D27F
:1056E00095D283D29422AEA7E4F5A7EF600543C11B
:1056F00080800B53C17FC2C5C2C4C2C1C2C08EA7C5
:1057000022C2B312570C12570C12570CE4FFFE0FB3
:10571000BF00010EEF64054E70F52212570CD2B295
:1057200012570CD2B312570C12570CC2B312570CAB
:10573000C2B202570C12570CD29012570CD29112CF
:10574000570C12570CC29112570CC29002570CAD55
:10575000A7A2AF9201C2AFE4F5A78F828E8393FF19
:10576000A20192AF8DA722C2B27F02125694D2B389
:105770007F02125694D2B202570CC2907F02125688
:1057800094D2917F02125694D29002570C7B017AE8
:105790000579337535007536107F007ED80250AF1D
:1057A0007B017A0279847535007536107F107ED8BA
:1057B0000250AF7B017A0279947535007536107FFF
:1057C000207ED80250AF7B017A0479AE7535007522
:1057D00036047F307ED80250AF75B28075BB147529
:1057E000DF1F75BC1875B90443E88122759F52E428
:1057F000FF0FBF20FC539DFC439D30439B802275CF
:10580000AA07E4FF0FBF20FC53ABFC43AB3043BF00
:105810008022AF885388AF758CF1EF5440FEEF546F
:10582000104E42882290042B12517DAC0690011438
:10583000ECF0A3EFF022E4F5A9E5A930E7FB75A9A8
:1058400003E5A930E7FB22E4FFFE000FBF00010ED5
:10585000BE17F7BF70F422E59154045391FB759382
:10586000157592A042912275E6E175A71075EE01BB
:10587000E4F5A775A88022C2B2D2B312570C125712
:105880000CC2B3D2B222C290D29112570C12570C52
:10589000C291D2902212391C124417123CD51249DF
:1058A000340249F453C17F43C18053917F32125770
:1058B0000CC2B27F0202569412570CC2907F0202B1
:1058C0005694E4F5A77597DE7597AD2275A40C750F
:1058D000F16E75D4FF2275A57075F27775D5FF222C
:1058E00075A72075F30375CC0C22E4F5A775E3408A
:1058F00075E10422D2B3D2B27F01025694D291D282
:10590000907F01025694759C1075F49F2275A71024
:1059100075C12022E4F5A775EF0622758E01758901
:10592000022275D7A043C11C22123E0C022D630235
:1059300040780241AD022F5802314DFFFFFFFFFFBB
:10594000FFFFFFFFFFFFFFFFFFFFFFFFFFFFFFFF67
:10595000FFFFFFFFFFFFFFFFFFFFFFFFFFFFFFFF57
:10596000FFFFFFFFFFFFFFFFFFFFFFFFFFFFFFFF47
:10597000FFFFFFFFFFFFFFFFFFFFFFFFFFFFFFFF37
:10C80000190000000000000000000000000000000F
:10C810000000000000000000000000000000000018
:10C820000000000000000000000000000000000008
:10C8300000000000000000000000000000000000F8
:10C8400000000000000000000000000000000000E8
:10C8500000000000000100000000000000000000D7
:10C8600000000000000000000000000000000000C8
:10C87000000000000000FFFFFFFFFFFFFFFF0000C0
:10C88000194C555853484152452D494354202020B6
:10C89000203C18A000000000000000000000000084
:10C8A0000000000000000000000000000000000088
:10C8B0000000000000000000000000000000000078
:10C8C0000000000000000000000000000000000068
:10C8D0000000000000000000000000000000000058
:10C8E000FFFFFFFFFFFFFFFFFFFFFFFFFFFFFFFF58
:10C8F000FFFFFFFFFFFFFFFFFFFFFFFFFFFFFFFF48
:10C90000FFFFFFFFFFFFFFFFFFFFFFFFFFFFFFFF37
:10C91000FFFFFFFFFFFFFFFFFFFFFFFFFFFFFFFF27
:10C92000FFFFFFFFFFFFFFFFFFFFFFFFFFFFFFFF17
:10C93000FFFFFFFFFFFFFFFFFFFFFFFFFFFFFFFF07
:10C94000FFFFFFFFFFFFFFFFFFFFFFFFFFFFFFFFF7
:10C95000FFFFFFFFFFFFFFFFFFFFFFFFFFFFFFFFE7
:10C96000FFFFFFFFFFFFFFFFFFFFFFFFFFFFFFFFD7
:10C97000FFFFFFFFFFFFFFFFFFFFFFFFFFFFFFFFC7
:10C98000FFFFFFFFFFFFFFFFFFFFFFFFFFFFFFFFB7
:10C99000FFFFFFFFFFFFFFFFFFFFFFFFFFFFFFFFA7
:10C9A000FFFFFFFFFFFFFFFFFFFFFFFFFFFFFFFF97
:10C9B000FFFFFFFFFFFFFFFFFFFFFFFFFFFFFFFF87
:10C9C000FFFFFFFFFFFFFFFFFFFFFFFFFFFFFFFF77
:10C9D000FFFFFFFFFFFFFFFFFFFFFFFFFFFFFFFF67
:10C9E000FFFFFFFFFFFFFFFFFFFFFFFFFFFFFFFF57
:10C9F000FFFFFFFFFFFFFFFFFFFFFFFFFFFFFFFF47
:10CA000003120300000032230000426807D0040A2A
:10CA100088604600000000000000000000000000E8
:10CA20000000000000000000000000000000000006
:10CA30000111FF0111FF00000000000000000000D4
:10CA400000000000000000000000000000000000E6
:10CA500000000000000000000000000000000000D6
:10CA600000000000000000000000000000000000C6
:10CA700000000000000000000000000000000000B6
:10CA8000FFFFFFFFFFFFFFFFFFFFFFFFFFFFFFFFB6
:10CA9000FFFFFFFFFFFFFFFFFFFFFFFFFFFFFFFFA6
:10CAA000FFFFFFFFFFFFFFFFFFFFFFFFFFFFFFFF96
:10CAB000FFFFFFFFFFFFFFFFFFFFFFFFFFFFFFFF86
:10CAC000FFFFFFFFFFFFFFFFFFFFFFFFFFFFFFFF76
:10CAD000FFFFFFFFFFFFFFFFFFFFFFFFFFFFFFFF66
:10CAE000FFFFFFFFFFFFFFFFFFFFFFFFFFFFFFFF56
:10CAF000FFFFFFFFFFFFFFFFFFFFFFFFFFFFFFFF46
:10CB0000FFFFFFFFFFFFFFFFFFFFFFFFFFFFFFFF35
:10CB1000FFFFFFFFFFFFFFFFFFFFFFFFFFFFFFFF25
:10CB2000FFFFFFFFFFFFFFFFFFFFFFFFFFFFFFFF15
:10CB3000FFFFFFFFFFFFFFFFFFFFFFFFFFFFFFFF05
:10CB4000FFFFFFFFFFFFFFFFFFFFFFFFFFFFFFFFF5
:10CB5000FFFFFFFFFFFFFFFFFFFFFFFFFFFFFFFFE5
:10CB6000FFFFFFFFFFFFFFFFFFFFFFFFFFFFFFFFD5
:10CB7000FFFFFFFFFFFFFFFFFFFFFFFFFFFFFFFFC5
:10CB8000FFFFFFFFFFFFFFFFFFFFFFFFFFFFFFFFB5
:10CB9000FFFFFFFFFFFFFFFFFFFFFFFFFFFFFFFFA5
:10CBA000FFFFFFFFFFFFFFFFFFFFFFFFFFFFFFFF95
:10CBB000FFFFFFFFFFFFFFFFFFFFFFFFFFFFFFFF85
:10CBC000FFFFFFFFFFFFFFFFFFFFFFFFFFFFFFFF75
:10CBD000FFFFFFFFFFFFFFFFFFFFFFFFFFFFFFFF65
:10CBE000FFFFFFFFFFFFFFFFFFFFFFFFFFFFFFFF55
:10CBF000FFFFFFFFFFFFFFFFFFFFFFFFFFFFFFFF45
:10CC000080000000000000000000000000000000A4
:10CC10000000000000000000000000000000000014
:10CC20000000000000000000000000000000000004
:10CC300000000000000000000000000000000000F4
:10CC400000000000000000000000000000000000E4
:10D0000079030000000000000000000000000000A4
:10D010000F00FF000F7F55000006060606F00023F4
:10D020002323234A4A4A4A0000000000000000006F
:10D030001E000000000110000000000000000000C1
:10D0400000000000000000000000000000000000E0
:10D0500000000000000000000000000000000000D0
:10D0600000000000000000000000000000000000C0
:10D0700000000000000000000000000000000000B0
:10D08000FFFFFFFFFFFFFFFFFFFFFFFFFFFFFFFFB0
:10D09000FFFFFFFFFFFFFFFFFFFFFFFFFFFFFFFFA0
:10D0A000FFFFFFFFFFFFFFFFFFFFFFFFFFFFFFFF90
:10D0B000FFFFFFFFFFFFFFFFFFFFFFFFFFFFFFFF80
:10D0C000FFFFFFFFFFFFFFFFFFFFFFFFFFFFFFFF70
:10D0D000FFFFFFFFFFFFFFFFFFFFFFFFFFFFFFFF60
:10D0E000FFFFFFFFFFFFFFFFFFFFFFFFFFFFFFFF50
:10D0F000FFFFFFFFFFFFFFFFFFFFFFFFFFFFFFFF40
:10D10000FFFFFFFFFFFFFFFFFFFFFFFFFFFFFFFF2F
:10D11000FFFFFFFFFFFFFFFFFFFFFFFFFFFFFFFF1F
:10D12000FFFFFFFFFFFFFFFFFFFFFFFFFFFFFFFF0F
:10D13000FFFFFFFFFFFFFFFFFFFFFFFFFFFFFFFFFF
:10D14000FFFFFFFFFFFFFFFFFFFFFFFFFFFFFFFFEF
:10D15000FFFFFFFFFFFFFFFFFFFFFFFFFFFFFFFFDF
:10D16000FFFFFFFFFFFFFFFFFFFFFFFFFFFFFFFFCF
:10D17000FFFFFFFFFFFFFFFFFFFFFFFFFFFFFFFFBF
:10D18000FFFFFFFFFFFFFFFFFFFFFFFFFFFFFFFFAF
:10D19000FFFFFFFFFFFFFFFFFFFFFFFFFFFFFFFF9F
:10D1A000FFFFFFFFFFFFFFFFFFFFFFFFFFFFFFFF8F
:10D1B000FFFFFFFFFFFFFFFFFFFFFFFFFFFFFFFF7F
:10D1C000FFFFFFFFFFFFFFFFFFFFFFFFFFFFFFFF6F
:10D1D000FFFFFFFFFFFFFFFFFFFFFFFFFFFFFFFF5F
:10D1E000FFFFFFFFFFFFFFFFFFFFFFFFFFFFFFFF4F
:10D1F000FFFFFFFFFFFFFFFFFFFFFFFFFFFFFFFF3F
:10D2000077030000000000000000C00000000F00D5
:10D21000CF030000F0F0000F0F0F0F00003232328A
:10D2200032777710000000000000000000000000CE
:10D2300000000000000000000000000000000000EE
:10D2400000000000000000000000000000000000DE
:10D2500000000000000000000000000000000000CE
:10D2600000000000000000000000000000000000BE
:10D2700000000000000000000000000000000000AE
:10D28000FFFFFFFFFFFFFFFFFFFFFFFFFFFFFFFFAE
:10D29000FFFFFFFFFFFFFFFFFFFFFFFFFFFFFFFF9E
:10D2A000FFFFFFFFFFFFFFFFFFFFFFFFFFFFFFFF8E
:10D2B000FFFFFFFFFFFFFFFFFFFFFFFFFFFFFFFF7E
:10D2C000FFFFFFFFFFFFFFFFFFFFFFFFFFFFFFFF6E
:10D2D000FFFFFFFFFFFFFFFFFFFFFFFFFFFFFFFF5E
:10D2E000FFFFFFFFFFFFFFFFFFFFFFFFFFFFFFFF4E
:10D2F000FFFFFFFFFFFFFFFFFFFFFFFFFFFFFFFF3E
:10D30000FFFFFFFFFFFFFFFFFFFFFFFFFFFFFFFF2D
:10D31000FFFFFFFFFFFFFFFFFFFFFFFFFFFFFFFF1D
:10D32000FFFFFFFFFFFFFFFFFFFFFFFFFFFFFFFF0D
:10D33000FFFFFFFFFFFFFFFFFFFFFFFFFFFFFFFFFD
:10D34000FFFFFFFFFFFFFFFFFFFFFFFFFFFFFFFFED
:10D35000FFFFFFFFFFFFFFFFFFFFFFFFFFFFFFFFDD
:10D36000FFFFFFFFFFFFFFFFFFFFFFFFFFFFFFFFCD
:10D37000FFFFFFFFFFFFFFFFFFFFFFFFFFFFFFFFBD
:10D38000FFFFFFFFFFFFFFFFFFFFFFFFFFFFFFFFAD
:10D39000FFFFFFFFFFFFFFFFFFFFFFFFFFFFFFFF9D
:10D3A000FFFFFFFFFFFFFFFFFFFFFFFFFFFFFFFF8D
:10D3B000FFFFFFFFFFFFFFFFFFFFFFFFFFFFFFFF7D
:10D3C000FFFFFFFFFFFFFFFFFFFFFFFFFFFFFFFF6D
:10D3D000FFFFFFFFFFFFFFFFFFFFFFFFFFFFFFFF5D
:10D3E000FFFFFFFFFFFFFFFFFFFFFFFFFFFFFFFF4D
:10D3F000FFFFFFFFFFFFFFFFFFFFFFFFFFFFFFFF3D
:10D400000100000001000001000000010000000117
:10D410000000000100000001000000010000000108
:10D4200000000001000000010000000100000001F8
:10D4300000000001000000008001000080010000E9
:10D440008001000080010046000100000000000093
:10D4500000000000000000000000000000000000CC
:10D4600000000000000000000000000000000000BC
:10D4700000000000000000000000000000000000AC
:10D48000FFFFFFFFFFFFFFFFFFFFFFFFFFFFFFFFAC
:10D49000FFFFFFFFFFFFFFFFFFFFFFFFFFFFFFFF9C
:10D4A000FFFFFFFFFFFFFFFFFFFFFFFFFFFFFFFF8C
:10D4B000FFFFFFFFFFFFFFFFFFFFFFFFFFFFFFFF7C
:10D4C000FFFFFFFFFFFFFFFFFFFFFFFFFFFFFFFF6C
:10D4D000FFFFFFFFFFFFFFFFFFFFFFFFFFFFFFFF5C
:10D4E000FFFFFFFFFFFFFFFFFFFFFFFFFFFFFFFF4C
:10D4F000FFFFFFFFFFFFFFFFFFFFFFFFFFFFFFFF3C
:10D50000FFFFFFFFFFFFFFFFFFFFFFFFFFFFFFFF2B
:10D51000FFFFFFFFFFFFFFFFFFFFFFFFFFFFFFFF1B
:10D52000FFFFFFFFFFFFFFFFFFFFFFFFFFFFFFFF0B
:10D53000FFFFFFFFFFFFFFFFFFFFFFFFFFFFFFFFFB
:10D54000FFFFFFFFFFFFFFFFFFFFFFFFFFFFFFFFEB
:10D55000FFFFFFFFFFFFFFFFFFFFFFFFFFFFFFFFDB
:10D56000FFFFFFFFFFFFFFFFFFFFFFFFFFFFFFFFCB
:10D57000FFFFFFFFFFFFFFFFFFFFFFFFFFFFFFFFBB
:10D58000FFFFFFFFFFFFFFFFFFFFFFFFFFFFFFFFAB
:10D59000FFFFFFFFFFFFFFFFFFFFFFFFFFFFFFFF9B
:10D5A000FFFFFFFFFFFFFFFFFFFFFFFFFFFFFFFF8B
:10D5B000FFFFFFFFFFFFFFFFFFFFFFFFFFFFFFFF7B
:10D5C000FFFFFFFFFFFFFFFFFFFFFFFFFFFFFFFF6B
:10D5D000FFFFFFFFFFFFFFFFFFFFFFFFFFFFFFFF5B
:10D5E000FFFFFFFFFFFFFFFFFFFFFFFFFFFFFFFF4B
:10D5F000FFFFFFFFFFFFFFFFFFFFFFFFFFFFFFFF3B
:10D600000100000001000001000000010000000115
:10D610000000000100000001000000010000000106
:10D6200000000001000000010000000100000001F6
:10D6300000000001000000008001000080010000E7
:10D6400080010000800100000000000000000000D8
:10D6500000000000000000000000000000000000CA
:10D6600000000000000000000000000000000000BA
:10D6700000000000000000000000000000000000AA
:10D68000FFFFFFFFFFFFFFFFFFFFFFFFFFFFFFFFAA
:10D69000FFFFFFFFFFFFFFFFFFFFFFFFFFFFFFFF9A
:10D6A000FFFFFFFFFFFFFFFFFFFFFFFFFFFFFFFF8A
:10D6B000FFFFFFFFFFFFFFFFFFFFFFFFFFFFFFFF7A
:10D6C000FFFFFFFFFFFFFFFFFFFFFFFFFFFFFFFF6A
:10D6D000FFFFFFFFFFFFFFFFFFFFFFFFFFFFFFFF5A
:10D6E000FFFFFFFFFFFFFFFFFFFFFFFFFFFFFFFF4A
:10D6F000FFFFFFFFFFFFFFFFFFFFFFFFFFFFFFFF3A
:10D70000FFFFFFFFFFFFFFFFFFFFFFFFFFFFFFFF29
:10D71000FFFFFFFFFFFFFFFFFFFFFFFFFFFFFFFF19
:10D72000FFFFFFFFFFFFFFFFFFFFFFFFFFFFFFFF09
:10D73000FFFFFFFFFFFFFFFFFFFFFFFFFFFFFFFFF9
:10D74000FFFFFFFFFFFFFFFFFFFFFFFFFFFFFFFFE9
:10D75000FFFFFFFFFFFFFFFFFFFFFFFFFFFFFFFFD9
:10D76000FFFFFFFFFFFFFFFFFFFFFFFFFFFFFFFFC9
:10D77000FFFFFFFFFFFFFFFFFFFFFFFFFFFFFFFFB9
:10D78000FFFFFFFFFFFFFFFFFFFFFFFFFFFFFFFFA9
:10D79000FFFFFFFFFFFFFFFFFFFFFFFFFFFFFFFF99
:10D7A000FFFFFFFFFFFFFFFFFFFFFFFFFFFFFFFF89
:10D7B000FFFFFFFFFFFFFFFFFFFFFFFFFFFFFFFF79
:10D7C000FFFFFFFFFFFFFFFFFFFFFFFFFFFFFFFF69
:10D7D000FFFFFFFFFFFFFFFFFFFFFFFFFFFFFFFF59
:10D7E000FFFFFFFFFFFFFFFFFFFFFFFFFFFFFFFF49
:10D7F000FFFFFFFFFFFFFFFFFFFFFFFFFFFFFFFF39
:10D8000000000102030406080A0B0E0000000000DD
:10D8100002030507090B0D0F0000000000000000C7
:10D82000001E323C0000000000000000000000006C
:10D830009378CCAEFFFFFFFFFFFFFFFFFFFFFFFF6F
:10D84000FFFFFFFFFFFFFFFFFFFFFFFFFFFFFFFFE8
:10D85000FFFFFFFFFFFFFFFFFFFFFFFFFFFFFFFFD8
:10D86000FFFFFFFFFFFFFFFFFFFFFFFFFFFFFFFFC8
:10D87000FFFFFFFFFFFFFFFFFFFFFFFFFFFFFFFFB8
:10D88000FFFFFFFFFFFFFFFFFFFFFFFFFFFFFFFFA8
:10D89000FFFFFFFFFFFFFFFFFFFFFFFFFFFFFFFF98
:10D8A000FFFFFFFFFFFFFFFFFFFFFFFFFFFFFFFF88
:10D8B000FFFFFFFFFFFFFFFFFFFFFFFFFFFFFFFF78
:10D8C000FFFFFFFFFFFFFFFFFFFFFFFFFFFFFFFF68
:10D8D000FFFFFFFFFFFFFFFFFFFFFFFFFFFFFFFF58
:10D8E000FFFFFFFFFFFFFFFFFFFFFFFFFFFFFFFF48
:10D8F000FFFFFFFFFFFFFFFFFFFFFFFFFFFFFFFF38
:10D90000FFFFFFFFFFFFFFFFFFFFFFFFFFFFFFFF27
:10D91000FFFFFFFFFFFFFFFFFFFFFFFFFFFFFFFF17
:10D92000FFFFFFFFFFFFFFFFFFFFFFFFFFFFFFFF07
:10D93000FFFFFFFFFFFFFFFFFFFFFFFFFFFFFFFFF7
:10D94000FFFFFFFFFFFFFFFFFFFFFFFFFFFFFFFFE7
:10D95000FFFFFFFFFFFFFFFFFFFFFFFFFFFFFFFFD7
:10D96000FFFFFFFFFFFFFFFFFFFFFFFFFFFFFFFFC7
:10D97000FFFFFFFFFFFFFFFFFFFFFFFFFFFFFFFFB7
:10D98000FFFFFFFFFFFFFFFFFFFFFFFFFFFFFFFFA7
:10D99000FFFFFFFFFFFFFFFFFFFFFFFFFFFFFFFF97
:10D9A000FFFFFFFFFFFFFFFFFFFFFFFFFFFFFFFF87
:10D9B000FFFFFFFFFFFFFFFFFFFFFFFFFFFFFFFF77
:10D9C000FFFFFFFFFFFFFFFFFFFFFFFFFFFFFFFF67
:10D9D000FFFFFFFFFFFFFFFFFFFFFFFFFFFFFFFF57
:10D9E000FFFFFFFFFFFFFFFFFFFFFFFFFFFFFFFF47
:10D9F000FFFFFFFFFFFFFFFFFFFFFFFFFFFFFFFF37
:10DA000014141414141414141414141414141414D6
:10DA100014141414141414151515151516161616B9
:10DA20001617171717171818181818191919191A77
:10DA30001A1B1B1C1C1D1D1E1E1E1E1E1E1E1E1E16
:10DA40001E1E1E1E1E1E1E1E1E1E1E1E1E1E1E1EF6
:10DA50001E1E1E1E1E1E1E1E1E1E1E1E1E1E1E1EE6
:10DA60001E1E1E1E1E1E1E1E1E1E1E1E1E1E1E1ED6
:10DA70001E1E1E1E1E1E1E1E1E1E1E1E1E1E1E1EC6
:10DA80001414141414141414141414141414141456
:10DA90001414141414141415151515151616161639
:10DAA0001617171717171818181818191919191AF7
:10DAB0001A1B1B1C1C1D1D1E1E1E1E1E1E1E1E1E96
:10DAC0001E1E1E1E1E1E1E1E1E1E1E1E1E1E1E1E76
:10DAD0001E1E1E1E1E1E1E1E1E1E1E1E1E1E1E1E66
:10DAE0001E1E1E1E1E1E1E1E1E1E1E1E1E1E1E1E56
:10DAF0001E1E1E1E1E1E1E1E1E1E1E1E1E1E1E1E46
:10DB0000FFFFFFFFFFFFFFFFFFFFFFFFFFFFFFFF25
:10DB1000FFFFFFFFFFFFFFFFFFFFFFFFFFFFFFFF15
:10DB2000FFFFFFFFFFFFFFFFFFFFFFFFFFFFFFFF05
:10DB3000FFFFFFFFFFFFFFFFFFFFFFFFFFFFFFFFF5
:10DB4000FFFFFFFFFFFFFFFFFFFFFFFFFFFFFFFFE5
:10DB5000FFFFFFFFFFFFFFFFFFFFFFFFFFFFFFFFD5
:10DB6000FFFFFFFFFFFFFFFFFFFFFFFFFFFFFFFFC5
:10DB7000FFFFFFFFFFFFFFFFFFFFFFFFFFFFFFFFB5
:10DB8000FFFFFFFFFFFFFFFFFFFFFFFFFFFFFFFFA5
:10DB9000FFFFFFFFFFFFFFFFFFFFFFFFFFFFFFFF95
:10DBA000FFFFFFFFFFFFFFFFFFFFFFFFFFFFFFFF85
:10DBB000FFFFFFFFFFFFFFFFFFFFFFFFFFFFFFFF75
:10DBC000FFFFFFFFFFFFFFFFFFFFFFFFFFFFFFFF65
:10DBD000FFFFFFFFFFFFFFFFFFFFFFFFFFFFFFFF55
:10DBE000FFFFFFFFFFFFFFFFFFFFFFFFFFFFFFFF45
:10DBF000FFFFFFFFFFFFFFFFFFFFFFFFFFFFFFFF35
:10DC000014141414141414141414141414141414D4
:10DC100014141414141414151515151516161616B7
:10DC20001617171717171818181818191919191A75
:10DC30001A1B1B1C1C1D1D1E1E1E1E1E1E1E1E1E14
:10DC40001E1E1E1E1E1E1E1E1E1E1E1E1E1E1E1EF4
:10DC50001E1E1E1E1E1E1E1E1E1E1E1E1E1E1E1EE4
:10DC60001E1E1E1E1E1E1E1E1E1E1E1E1E1E1E1ED4
:10DC70001E1E1E1E1E1E1E1E1E1E1E1E1E1E1E1EC4
:10DC80001414141414141414141414141414141454
:10DC90001414141414141415151515151616161637
:10DCA0001617171717171818181818191919191AF5
:10DCB0001A1B1B1C1C1D1D1E1E1E1E1E1E1E1E1E94
:10DCC0001E1E1E1E1E1E1E1E1E1E1E1E1E1E1E1E74
:10DCD0001E1E1E1E1E1E1E1E1E1E1E1E1E1E1E1E64
:10DCE0001E1E1E1E1E1E1E1E1E1E1E1E1E1E1E1E54
:10DCF0001E1E1E1E1E1E1E1E1E1E1E1E1E1E1E1E44
:10DD0000FFFFFFFFFFFFFFFFFFFFFFFFFFFFFFFF23
:10DD1000FFFFFFFFFFFFFFFFFFFFFFFFFFFFFFFF13
:10DD2000FFFFFFFFFFFFFFFFFFFFFFFFFFFFFFFF03
:10DD3000FFFFFFFFFFFFFFFFFFFFFFFFFFFFFFFFF3
:10DD4000FFFFFFFFFFFFFFFFFFFFFFFFFFFFFFFFE3
:10DD5000FFFFFFFFFFFFFFFFFFFFFFFFFFFFFFFFD3
:10DD6000FFFFFFFFFFFFFFFFFFFFFFFFFFFFFFFFC3
:10DD7000FFFFFFFFFFFFFFFFFFFFFFFFFFFFFFFFB3
:10DD8000FFFFFFFFFFFFFFFFFFFFFFFFFFFFFFFFA3
:10DD9000FFFFFFFFFFFFFFFFFFFFFFFFFFFFFFFF93
:10DDA000FFFFFFFFFFFFFFFFFFFFFFFFFFFFFFFF83
:10DDB000FFFFFFFFFFFFFFFFFFFFFFFFFFFFFFFF73
:10DDC000FFFFFFFFFFFFFFFFFFFFFFFFFFFFFFFF63
:10DDD000FFFFFFFFFFFFFFFFFFFFFFFFFFFFFFFF53
:10DDE000FFFFFFFFFFFFFFFFFFFFFFFFFFFFFFFF43
:10DDF000FFFFFFFFFFFFFFFFFFFFFFFFFFFFFFFF33
:10DE000014141414141414141414141414141414D2
:10DE100014141414141414151515151516161616B5
:10DE20001617171717171818181818191919191A73
:10DE30001A1B1B1C1C1D1D1E1E1E1E1E1E1E1E1E12
:10DE40001E1E1E1E1E1E1E1E1E1E1E1E1E1E1E1EF2
:10DE50001E1E1E1E1E1E1E1E1E1E1E1E1E1E1E1EE2
:10DE60001E1E1E1E1E1E1E1E1E1E1E1E1E1E1E1ED2
:10DE70001E1E1E1E1E1E1E1E1E1E1E1E1E1E1E1EC2
:10DE80001414141414141414141414141414141452
:10DE90001414141414141415151515151616161635
:10DEA0001617171717171818181818191919191AF3
:10DEB0001A1B1B1C1C1D1D1E1E1E1E1E1E1E1E1E92
:10DEC0001E1E1E1E1E1E1E1E1E1E1E1E1E1E1E1E72
:10DED0001E1E1E1E1E1E1E1E1E1E1E1E1E1E1E1E62
:10DEE0001E1E1E1E1E1E1E1E1E1E1E1E1E1E1E1E52
:10DEF0001E1E1E1E1E1E1E1E1E1E1E1E1E1E1E1E42
:10DF0000FFFFFFFFFFFFFFFFFFFFFFFFFFFFFFFF21
:10DF1000FFFFFFFFFFFFFFFFFFFFFFFFFFFFFFFF11
:10DF2000FFFFFFFFFFFFFFFFFFFFFFFFFFFFFFFF01
:10DF3000FFFFFFFFFFFFFFFFFFFFFFFFFFFFFFFFF1
:10DF4000FFFFFFFFFFFFFFFFFFFFFFFFFFFFFFFFE1
:10DF5000FFFFFFFFFFFFFFFFFFFFFFFFFFFFFFFFD1
:10DF6000FFFFFFFFFFFFFFFFFFFFFFFFFFFFFFFFC1
:10DF7000FFFFFFFFFFFFFFFFFFFFFFFFFFFFFFFFB1
:10DF8000FFFFFFFFFFFFFFFFFFFFFFFFFFFFFFFFA1
:10DF9000FFFFFFFFFFFFFFFFFFFFFFFFFFFFFFFF91
:10DFA000FFFFFFFFFFFFFFFFFFFFFFFFFFFFFFFF81
:10DFB000FFFFFFFFFFFFFFFFFFFFFFFFFFFFFFFF71
:10DFC000FFFFFFFFFFFFFFFFFFFFFFFFFFFFFFFF61
:10DFD000FFFFFFFFFFFFFFFFFFFFFFFFFFFFFFFF51
:10DFE000FFFFFFFFFFFFFFFFFFFFFFFFFFFFFFFF41
:10DFF000FFFFFFFFFFFFFFFFFFFFFFFFFFFFFFFF31
:10E0000014141414141414141414141414141414D0
:10E0100014141414141414151515151516161616B3
:10E020001617171717171818181818191919191A71
:10E030001A1B1B1C1C1D1D1E1E1E1E1E1E1E1E1E10
:10E040001E1E1E1E1E1E1E1E1E1E1E1E1E1E1E1EF0
:10E050001E1E1E1E1E1E1E1E1E1E1E1E1E1E1E1EE0
:10E060001E1E1E1E1E1E1E1E1E1E1E1E1E1E1E1ED0
:10E070001E1E1E1E1E1E1E1E1E1E1E1E1E1E1E1EC0
:10E080001414141414141414141414141414141450
:10E090001414141414141415151515151616161633
:10E0A0001617171717171818181818191919191AF1
:10E0B0001A1B1B1C1C1D1D1E1E1E1E1E1E1E1E1E90
:10E0C0001E1E1E1E1E1E1E1E1E1E1E1E1E1E1E1E70
:10E0D0001E1E1E1E1E1E1E1E1E1E1E1E1E1E1E1E60
:10E0E0001E1E1E1E1E1E1E1E1E1E1E1E1E1E1E1E50
:10E0F0001E1E1E1E1E1E1E1E1E1E1E1E1E1E1E1E40
:10E10000FFFFFFFFFFFFFFFFFFFFFFFFFFFFFFFF1F
:10E11000FFFFFFFFFFFFFFFFFFFFFFFFFFFFFFFF0F
:10E12000FFFFFFFFFFFFFFFFFFFFFFFFFFFFFFFFFF
:10E13000FFFFFFFFFFFFFFFFFFFFFFFFFFFFFFFFEF
:10E14000FFFFFFFFFFFFFFFFFFFFFFFFFFFFFFFFDF
:10E15000FFFFFFFFFFFFFFFFFFFFFFFFFFFFFFFFCF
:10E16000FFFFFFFFFFFFFFFFFFFFFFFFFFFFFFFFBF
:10E17000FFFFFFFFFFFFFFFFFFFFFFFFFFFFFFFFAF
:10E18000FFFFFFFFFFFFFFFFFFFFFFFFFFFFFFFF9F
:10E19000FFFFFFFFFFFFFFFFFFFFFFFFFFFFFFFF8F
:10E1A000FFFFFFFFFFFFFFFFFFFFFFFFFFFFFFFF7F
:10E1B000FFFFFFFFFFFFFFFFFFFFFFFFFFFFFFFF6F
:10E1C000FFFFFFFFFFFFFFFFFFFFFFFFFFFFFFFF5F
:10E1D000FFFFFFFFFFFFFFFFFFFFFFFFFFFFFFFF4F
:10E1E000FFFFFFFFFFFFFFFFFFFFFFFFFFFFFFFF3F
:10E1F000FFFFFFFFFFFFFFFFFFFFFFFFFFFFFFFF2F
:10E20000595959595959595959595959595959597E
:10E210005959595959595858585757575656565584
:10E2200055555554545453535352525251515050C2
:10E230004F4E4E4D4C4B4B4A4A4A4A4A4A4A4A4A2A
:10E240004A4A4A4A4A4A4A4A4A4A4A4A4A4A4A4A2E
:10E250004A4A4A4A4A4A4A4A4A4A4A4A4A4A4A4A1E
:10E260004A4A4A4A4A4A4A4A4A4A4A4A4A4A4A4A0E
:10E270004A4A4A4A4A4A4A4A4A4A4A4A4A4A4A4AFE
:10E2800059595959595959595959595959595959FE
:10E290005959595959595858585757575656565504
:10E2A0005555555454545353535252525151505042
:10E2B0004F4E4E4D4C4B4B4A4A4A4A4A4A4A4A4AAA
:10E2C0004A4A4A4A4A4A4A4A4A4A4A4A4A4A4A4AAE
:10E2D0004A4A4A4A4A4A4A4A4A4A4A4A4A4A4A4A9E
:10E2E0004A4A4A4A4A4A4A4A4A4A4A4A4A4A4A4A8E
:10E2F0004A4A4A4A4A4A4A4A4A4A4A4A4A4A4A4A7E
:10E30000FFFFFFFFFFFFFFFFFFFFFFFFFFFFFFFF1D
:10E31000FFFFFFFFFFFFFFFFFFFFFFFFFFFFFFFF0D
:10E32000FFFFFFFFFFFFFFFFFFFFFFFFFFFFFFFFFD
:10E33000FFFFFFFFFFFFFFFFFFFFFFFFFFFFFFFFED
:10E34000FFFFFFFFFFFFFFFFFFFFFFFFFFFFFFFFDD
:10E35000FFFFFFFFFFFFFFFFFFFFFFFFFFFFFFFFCD
:10E36000FFFFFFFFFFFFFFFFFFFFFFFFFFFFFFFFBD
:10E37000FFFFFFFFFFFFFFFFFFFFFFFFFFFFFFFFAD
:10E38000FFFFFFFFFFFFFFFFFFFFFFFFFFFFFFFF9D
:10E39000FFFFFFFFFFFFFFFFFFFFFFFFFFFFFFFF8D
:10E3A000FFFFFFFFFFFFFFFFFFFFFFFFFFFFFFFF7D
:10E3B000FFFFFFFFFFFFFFFFFFFFFFFFFFFFFFFF6D
:10E3C000FFFFFFFFFFFFFFFFFFFFFFFFFFFFFFFF5D
:10E3D000FFFFFFFFFFFFFFFFFFFFFFFFFFFFFFFF4D
:10E3E000FFFFFFFFFFFFFFFFFFFFFFFFFFFFFFFF3D
:10E3F000FFFFFFFFFFFFFFFFFFFFFFFFFFFFFFFF2D
:10E40000595959595959595959595959595959597C
:10E410005959595959595858585757575656565582
:10E4200055555554545453535352525251515050C0
:10E430004F4E4E4D4C4B4B4A4A4A4A4A4A4A4A4A28
:10E440004A4A4A4A4A4A4A4A4A4A4A4A4A4A4A4A2C
:10E450004A4A4A4A4A4A4A4A4A4A4A4A4A4A4A4A1C
:10E460004A4A4A4A4A4A4A4A4A4A4A4A4A4A4A4A0C
:10E470004A4A4A4A4A4A4A4A4A4A4A4A4A4A4A4AFC
:10E4800059595959595959595959595959595959FC
:10E490005959595959595858585757575656565502
:10E4A0005555555454545353535252525151505040
:10E4B0004F4E4E4D4C4B4B4A4A4A4A4A4A4A4A4AA8
:10E4C0004A4A4A4A4A4A4A4A4A4A4A4A4A4A4A4AAC
:10E4D0004A4A4A4A4A4A4A4A4A4A4A4A4A4A4A4A9C
:10E4E0004A4A4A4A4A4A4A4A4A4A4A4A4A4A4A4A8C
:10E4F0004A4A4A4A4A4A4A4A4A4A4A4A4A4A4A4A7C
:10E50000FFFFFFFFFFFFFFFFFFFFFFFFFFFFFFFF1B
:10E51000FFFFFFFFFFFFFFFFFFFFFFFFFFFFFFFF0B
:10E52000FFFFFFFFFFFFFFFFFFFFFFFFFFFFFFFFFB
:10E53000FFFFFFFFFFFFFFFFFFFFFFFFFFFFFFFFEB
:10E54000FFFFFFFFFFFFFFFFFFFFFFFFFFFFFFFFDB
:10E55000FFFFFFFFFFFFFFFFFFFFFFFFFFFFFFFFCB
:10E56000FFFFFFFFFFFFFFFFFFFFFFFFFFFFFFFFBB
:10E57000FFFFFFFFFFFFFFFFFFFFFFFFFFFFFFFFAB
:10E58000FFFFFFFFFFFFFFFFFFFFFFFFFFFFFFFF9B
:10E59000FFFFFFFFFFFFFFFFFFFFFFFFFFFFFFFF8B
:10E5A000FFFFFFFFFFFFFFFFFFFFFFFFFFFFFFFF7B
:10E5B000FFFFFFFFFFFFFFFFFFFFFFFFFFFFFFFF6B
:10E5C000FFFFFFFFFFFFFFFFFFFFFFFFFFFFFFFF5B
:10E5D000FFFFFFFFFFFFFFFFFFFFFFFFFFFFFFFF4B
:10E5E000FFFFFFFFFFFFFFFFFFFFFFFFFFFFFFFF3B
:10E5F000FFFFFFFFFFFFFFFFFFFFFFFFFFFFFFFF2B
:10E60000595959595959595959595959595959597A
:10E610005959595959595858585757575656565580
:10E6200055555554545453535352525251515050BE
:10E630004F4E4E4D4C4B4B4A4A4A4A4A4A4A4A4A26
:10E640004A4A4A4A4A4A4A4A4A4A4A4A4A4A4A4A2A
:10E650004A4A4A4A4A4A4A4A4A4A4A4A4A4A4A4A1A
:10E660004A4A4A4A4A4A4A4A4A4A4A4A4A4A4A4A0A
:10E670004A4A4A4A4A4A4A4A4A4A4A4A4A4A4A4AFA
:10E6800059595959595959595959595959595959FA
:10E690005959595959595858585757575656565500
:10E6A000555555545454535353525252515150503E
:10E6B0004F4E4E4D4C4B4B4A4A4A4A4A4A4A4A4AA6
:10E6C0004A4A4A4A4A4A4A4A4A4A4A4A4A4A4A4AAA
:10E6D0004A4A4A4A4A4A4A4A4A4A4A4A4A4A4A4A9A
:10E6E0004A4A4A4A4A4A4A4A4A4A4A4A4A4A4A4A8A
:10E6F0004A4A4A4A4A4A4A4A4A4A4A4A4A4A4A4A7A
:10E70000FFFFFFFFFFFFFFFFFFFFFFFFFFFFFFFF19
:10E71000FFFFFFFFFFFFFFFFFFFFFFFFFFFFFFFF09
:10E72000FFFFFFFFFFFFFFFFFFFFFFFFFFFFFFFFF9
:10E73000FFFFFFFFFFFFFFFFFFFFFFFFFFFFFFFFE9
:10E74000FFFFFFFFFFFFFFFFFFFFFFFFFFFFFFFFD9
:10E75000FFFFFFFFFFFFFFFFFFFFFFFFFFFFFFFFC9
:10E76000FFFFFFFFFFFFFFFFFFFFFFFFFFFFFFFFB9
:10E77000FFFFFFFFFFFFFFFFFFFFFFFFFFFFFFFFA9
:10E78000FFFFFFFFFFFFFFFFFFFFFFFFFFFFFFFF99
:10E79000FFFFFFFFFFFFFFFFFFFFFFFFFFFFFFFF89
:10E7A000FFFFFFFFFFFFFFFFFFFFFFFFFFFFFFFF79
:10E7B000FFFFFFFFFFFFFFFFFFFFFFFFFFFFFFFF69
:10E7C000FFFFFFFFFFFFFFFFFFFFFFFFFFFFFFFF59
:10E7D000FFFFFFFFFFFFFFFFFFFFFFFFFFFFFFFF49
:10E7E000FFFFFFFFFFFFFFFFFFFFFFFFFFFFFFFF39
:10E7F000FFFFFFFFFFFFFFFFFFFFFFFFFFFFFFFF29
:10E800005959595959595959595959595959595978
:10E81000595959595959585858575757565656557E
:10E8200055555554545453535352525251515050BC
:10E830004F4E4E4D4C4B4B4A4A4A4A4A4A4A4A4A24
:10E840004A4A4A4A4A4A4A4A4A4A4A4A4A4A4A4A28
:10E850004A4A4A4A4A4A4A4A4A4A4A4A4A4A4A4A18
:10E860004A4A4A4A4A4A4A4A4A4A4A4A4A4A4A4A08
:10E870004A4A4A4A4A4A4A4A4A4A4A4A4A4A4A4AF8
:10E8800059595959595959595959595959595959F8
:10E8900059595959595958585857575756565655FE
:10E8A000555555545454535353525252515150503C
:10E8B0004F4E4E4D4C4B4B4A4A4A4A4A4A4A4A4AA4
:10E8C0004A4A4A4A4A4A4A4A4A4A4A4A4A4A4A4AA8
:10E8D0004A4A4A4A4A4A4A4A4A4A4A4A4A4A4A4A98
:10E8E0004A4A4A4A4A4A4A4A4A4A4A4A4A4A4A4A88
:10E8F0004A4A4A4A4A4A4A4A4A4A4A4A4A4A4A4A78
:10E90000FFFFFFFFFFFFFFFFFFFFFFFFFFFFFFFF17
:10E91000FFFFFFFFFFFFFFFFFFFFFFFFFFFFFFFF07
:10E92000FFFFFFFFFFFFFFFFFFFFFFFFFFFFFFFFF7
:10E93000FFFFFFFFFFFFFFFFFFFFFFFFFFFFFFFFE7
:10E94000FFFFFFFFFFFFFFFFFFFFFFFFFFFFFFFFD7
:10E95000FFFFFFFFFFFFFFFFFFFFFFFFFFFFFFFFC7
:10E96000FFFFFFFFFFFFFFFFFFFFFFFFFFFFFFFFB7
:10E97000FFFFFFFFFFFFFFFFFFFFFFFFFFFFFFFFA7
:10E98000FFFFFFFFFFFFFFFFFFFFFFFFFFFFFFFF97
:10E99000FFFFFFFFFFFFFFFFFFFFFFFFFFFFFFFF87
:10E9A000FFFFFFFFFFFFFFFFFFFFFFFFFFFFFFFF77
:10E9B000FFFFFFFFFFFFFFFFFFFFFFFFFFFFFFFF67
:10E9C000FFFFFFFFFFFFFFFFFFFFFFFFFFFFFFFF57
:10E9D000FFFFFFFFFFFFFFFFFFFFFFFFFFFFFFFF47
:10E9E000FFFFFFFFFFFFFFFFFFFFFFFFFFFFFFFF37
:10E9F000FFFFFFFFFFFFFFFFFFFFFFFFFFFFFFFF27
:10EA0000792300000000000000000000000000006A
:10EA10000F00FF000F7F5500F006060606F00023EA
:10EA20002323234A4A4A4A00000000000000000055
:10EA30001E000000000110000000000000000000A7
:10EA400000000000000000000000000000000000C6
:10EA500000000000000000000000000000000000B6
:10EA600000000000000000000000000000000000A6
:10EA70000000000000000000000000000000000096
:10EA8000FFFFFFFFFFFFFFFFFFFFFFFFFFFFFFFF96
:10EA9000FFFFFFFFFFFFFFFFFFFFFFFFFFFFFFFF86
:10EAA000FFFFFFFFFFFFFFFFFFFFFFFFFFFFFFFF76
:10EAB000FFFFFFFFFFFFFFFFFFFFFFFFFFFFFFFF66
:10EAC000FFFFFFFFFFFFFFFFFFFFFFFFFFFFFFFF56
:10EAD000FFFFFFFFFFFFFFFFFFFFFFFFFFFFFFFF46
:10EAE000FFFFFFFFFFFFFFFFFFFFFFFFFFFFFFFF36
:10EAF000FFFFFFFFFFFFFFFFFFFFFFFFFFFFFFFF26
:10EB0000FFFFFFFFFFFFFFFFFFFFFFFFFFFFFFFF15
:10EB1000FFFFFFFFFFFFFFFFFFFFFFFFFFFFFFFF05
:10EB2000FFFFFFFFFFFFFFFFFFFFFFFFFFFFFFFFF5
:10EB3000FFFFFFFFFFFFFFFFFFFFFFFFFFFFFFFFE5
:10EB4000FFFFFFFFFFFFFFFFFFFFFFFFFFFFFFFFD5
:10EB5000FFFFFFFFFFFFFFFFFFFFFFFFFFFFFFFFC5
:10EB6000FFFFFFFFFFFFFFFFFFFFFFFFFFFFFFFFB5
:10EB7000FFFFFFFFFFFFFFFFFFFFFFFFFFFFFFFFA5
:10EB8000FFFFFFFFFFFFFFFFFFFFFFFFFFFFFFFF95
:10EB9000FFFFFFFFFFFFFFFFFFFFFFFFFFFFFFFF85
:10EBA000FFFFFFFFFFFFFFFFFFFFFFFFFFFFFFFF75
:10EBB000FFFFFFFFFFFFFFFFFFFFFFFFFFFFFFFF65
:10EBC000FFFFFFFFFFFFFFFFFFFFFFFFFFFFFFFF55
:10EBD000FFFFFFFFFFFFFFFFFFFFFFFFFFFFFFFF45
:10EBE000FFFFFFFFFFFFFFFFFFFFFFFFFFFFFFFF35
:10EBF000FFFFFFFFFFFFFFFFFFFFFFFFFFFFFFFF25
:10EC000077230000000000000000C00000000F009B
:10EC1000CF030000F000000F0F0F0F000032323260
:10EC200032777710000000000000000000000000B4
:10EC300000000000000000000000000000000000D4
:10EC400000000000000000000000000000000000C4
:10EC500000000000000000000000000000000000B4
:10EC600000000000000000000000000000000000A4
:10F800000100000000000000FFFFFFFFFFFFFFFFFF
:00000001FF
